{
  "address": "0x7B970C578B354F0F816Ec0fEf3b236096C11E156",
  "abi": [
    {
      "anonymous": false,
      "inputs": [
        {
          "indexed": false,
          "internalType": "uint8",
          "name": "version",
          "type": "uint8"
        }
      ],
      "name": "Initialized",
      "type": "event"
    },
    {
      "anonymous": false,
      "inputs": [
        {
          "indexed": false,
          "internalType": "contract IPriceProvidersAggregator",
          "name": "oldProvidersAggregator",
          "type": "address"
        },
        {
          "indexed": false,
          "internalType": "contract IPriceProvidersAggregator",
          "name": "newProvidersAggregator",
          "type": "address"
        }
      ],
      "name": "ProvidersAggregatorUpdated",
      "type": "event"
    },
    {
      "anonymous": false,
      "inputs": [
        {
          "indexed": false,
          "internalType": "contract IStableCoinProvider",
          "name": "oldStableCoinProvider",
          "type": "address"
        },
        {
          "indexed": false,
          "internalType": "contract IStableCoinProvider",
          "name": "newStableCoinProvider",
          "type": "address"
        }
      ],
      "name": "StableCoinProviderUpdated",
      "type": "event"
    },
    {
      "anonymous": false,
      "inputs": [
        {
          "indexed": true,
          "internalType": "address",
          "name": "previousGovernor",
          "type": "address"
        },
        {
          "indexed": true,
          "internalType": "address",
          "name": "proposedGovernor",
          "type": "address"
        }
      ],
      "name": "UpdatedGovernor",
      "type": "event"
    },
    {
      "inputs": [],
      "name": "acceptGovernorship",
      "outputs": [],
      "stateMutability": "nonpayable",
      "type": "function"
    },
    {
      "inputs": [],
      "name": "governor",
      "outputs": [
        {
          "internalType": "address",
          "name": "",
          "type": "address"
        }
      ],
      "stateMutability": "view",
      "type": "function"
    },
    {
      "inputs": [
        {
          "internalType": "address",
          "name": "governor_",
          "type": "address"
        }
      ],
      "name": "initialize",
      "outputs": [],
      "stateMutability": "nonpayable",
      "type": "function"
    },
    {
      "inputs": [],
      "name": "proposedGovernor",
      "outputs": [
        {
          "internalType": "address",
          "name": "",
          "type": "address"
        }
      ],
      "stateMutability": "view",
      "type": "function"
    },
    {
      "inputs": [],
      "name": "providersAggregator",
      "outputs": [
        {
          "internalType": "contract IPriceProvidersAggregator",
          "name": "",
          "type": "address"
        }
      ],
      "stateMutability": "view",
      "type": "function"
    },
    {
      "inputs": [],
      "name": "stableCoinProvider",
      "outputs": [
        {
          "internalType": "contract IStableCoinProvider",
          "name": "",
          "type": "address"
        }
      ],
      "stateMutability": "view",
      "type": "function"
    },
    {
      "inputs": [
        {
          "internalType": "address",
          "name": "_proposedGovernor",
          "type": "address"
        }
      ],
      "name": "transferGovernorship",
      "outputs": [],
      "stateMutability": "nonpayable",
      "type": "function"
    },
    {
      "inputs": [
        {
          "internalType": "contract IPriceProvidersAggregator",
          "name": "providersAggregator_",
          "type": "address"
        }
      ],
      "name": "updateProvidersAggregator",
      "outputs": [],
      "stateMutability": "nonpayable",
      "type": "function"
    },
    {
      "inputs": [
        {
          "internalType": "contract IStableCoinProvider",
          "name": "stableCoinProvider_",
          "type": "address"
        }
      ],
      "name": "updateStableCoinProvider",
      "outputs": [],
      "stateMutability": "nonpayable",
      "type": "function"
    }
  ],
  "transactionHash": "0xf53219b305d4acd4c8c8281a1e6ab721fa9f8399e1c34a490645b3c6ba402914",
  "args": [],
  "numDeployments": 1,
  "solcInputHash": "3fa5c42839bedd7e9bb1b6da85fb2b0d",
  "bytecode": "0x608060405234801561001057600080fd5b50610951806100206000396000f3fe608060405234801561001057600080fd5b50600436106100a35760003560e01c80638a11a37011610076578063b6aa515b1161005b578063b6aa515b1461017f578063c4d66de814610192578063f3b27bc3146101a557600080fd5b80638a11a3701461013f5780638f8e162c1461015f57600080fd5b80630bb0b89d146100a85780630c340a24146100bd5780632082615f1461010c57806320adc8131461012c575b600080fd5b6100bb6100b63660046108f7565b6101ad565b005b6000546100e39062010000900473ffffffffffffffffffffffffffffffffffffffff1681565b60405173ffffffffffffffffffffffffffffffffffffffff909116815260200160405180910390f35b6003546100e39073ffffffffffffffffffffffffffffffffffffffff1681565b6100bb61013a3660046108f7565b61031d565b6001546100e39073ffffffffffffffffffffffffffffffffffffffff1681565b6002546100e39073ffffffffffffffffffffffffffffffffffffffff1681565b6100bb61018d3660046108f7565b610425565b6100bb6101a03660046108f7565b61053c565b6100bb610659565b60005462010000900473ffffffffffffffffffffffffffffffffffffffff16331461021f5760405162461bcd60e51b815260206004820152600c60248201527f6e6f742d676f7665726e6f72000000000000000000000000000000000000000060448201526064015b60405180910390fd5b73ffffffffffffffffffffffffffffffffffffffff81166102825760405162461bcd60e51b815260206004820152600f60248201527f616464726573732d69732d6e756c6c00000000000000000000000000000000006044820152606401610216565b6002546040805173ffffffffffffffffffffffffffffffffffffffff928316815291831660208301527fbcc4066cae087918db8d7695e80f5dc69eb597f904c8d513f27f2d04eed8f7ca910160405180910390a1600280547fffffffffffffffffffffffff00000000000000000000000000000000000000001673ffffffffffffffffffffffffffffffffffffffff92909216919091179055565b60005462010000900473ffffffffffffffffffffffffffffffffffffffff16331461038a5760405162461bcd60e51b815260206004820152600c60248201527f6e6f742d676f7665726e6f7200000000000000000000000000000000000000006044820152606401610216565b6003546040805173ffffffffffffffffffffffffffffffffffffffff928316815291831660208301527fae68fa83120514f5b4621d968a310169ce214a66994debd1638e3ff3ec61dc9d910160405180910390a1600380547fffffffffffffffffffffffff00000000000000000000000000000000000000001673ffffffffffffffffffffffffffffffffffffffff92909216919091179055565b60005462010000900473ffffffffffffffffffffffffffffffffffffffff1633146104925760405162461bcd60e51b815260206004820152600c60248201527f6e6f742d676f7665726e6f7200000000000000000000000000000000000000006044820152606401610216565b73ffffffffffffffffffffffffffffffffffffffff81166104f55760405162461bcd60e51b815260206004820152601960248201527f70726f706f7365642d676f7665726e6f722d69732d7a65726f000000000000006044820152606401610216565b600180547fffffffffffffffffffffffff00000000000000000000000000000000000000001673ffffffffffffffffffffffffffffffffffffffff92909216919091179055565b60006105486001610780565b9050801561057d57600080547fffffffffffffffffffffffffffffffffffffffffffffffffffffffffffff00ff166101001790555b600080547fffffffffffffffffffff0000000000000000000000000000000000000000ffff166201000073ffffffffffffffffffffffffffffffffffffffff85169081029190911782556040519091907fd4459d5b8b913cab0244230fd9b1c08b6ceace7fe9230e60d0f74cbffdf849d0908290a3801561065557600080547fffffffffffffffffffffffffffffffffffffffffffffffffffffffffffff00ff169055604051600181527f7f26b83ff96e1f2b6a682f133852f6798a09c465da95921460cefb38474024989060200160405180910390a15b5050565b60015473ffffffffffffffffffffffffffffffffffffffff1633146106c05760405162461bcd60e51b815260206004820152601960248201527f6e6f742d7468652d70726f706f7365642d676f7665726e6f72000000000000006044820152606401610216565b6001546000805460405173ffffffffffffffffffffffffffffffffffffffff9384169362010000909204909116917fd4459d5b8b913cab0244230fd9b1c08b6ceace7fe9230e60d0f74cbffdf849d091a360018054600080547fffffffffffffffffffff0000000000000000000000000000000000000000ffff1673ffffffffffffffffffffffffffffffffffffffff831662010000021790557fffffffffffffffffffffffff0000000000000000000000000000000000000000169055565b60008054610100900460ff161561081d578160ff1660011480156107a35750303b155b6108155760405162461bcd60e51b815260206004820152602e60248201527f496e697469616c697a61626c653a20636f6e747261637420697320616c72656160448201527f647920696e697469616c697a65640000000000000000000000000000000000006064820152608401610216565b506000919050565b60005460ff80841691161061089a5760405162461bcd60e51b815260206004820152602e60248201527f496e697469616c697a61626c653a20636f6e747261637420697320616c72656160448201527f647920696e697469616c697a65640000000000000000000000000000000000006064820152608401610216565b50600080547fffffffffffffffffffffffffffffffffffffffffffffffffffffffffffffff001660ff92909216919091179055600190565b73ffffffffffffffffffffffffffffffffffffffff811681146108f457600080fd5b50565b60006020828403121561090957600080fd5b8135610914816108d2565b939250505056fea2646970667358221220adf49d613e973c0250fe944b2797054eb20a4f1933e6a9d6d6efe55b0279eac964736f6c63430008090033",
  "devdoc": {
    "kind": "dev",
    "methods": {
      "acceptGovernorship()": {
        "details": "Allows new governor to accept governorship of the contract."
      },
      "transferGovernorship(address)": {
        "details": "Transfers governorship of the contract to a new account (`proposedGovernor`). Can only be called by the current owner."
      }
    },
    "version": 1
  },
  "userdoc": {
    "events": {
      "ProvidersAggregatorUpdated(address,address)": {
        "notice": "Emitted when providers aggregator is updated"
      },
      "StableCoinProviderUpdated(address,address)": {
        "notice": "Emitted when stable coin provider is updated"
      },
      "UpdatedGovernor(address,address)": {
        "notice": "Emitted when governor is updated"
      }
    },
    "kind": "user",
    "methods": {
      "governor()": {
        "notice": "The governor account"
      },
      "proposedGovernor()": {
        "notice": "The proposed governor account. Becomes the new governor after acceptance"
      },
      "providersAggregator()": {
        "notice": "The PriceProvidersAggregator contract"
      },
      "stableCoinProvider()": {
        "notice": "The StableCoinProvider contract"
      },
      "updateProvidersAggregator(address)": {
        "notice": "Update PriceProvidersAggregator contract"
      },
      "updateStableCoinProvider(address)": {
        "notice": "Update StableCoinProvider contract"
      }
    },
    "version": 1
  },
  "storageLayout": {
    "storage": [
      {
        "astId": 420,
        "contract": "contracts/core/AddressProvider.sol:AddressProvider",
        "label": "_initialized",
        "offset": 0,
        "slot": "0",
        "type": "t_uint8"
      },
      {
        "astId": 423,
        "contract": "contracts/core/AddressProvider.sol:AddressProvider",
        "label": "_initializing",
        "offset": 1,
        "slot": "0",
        "type": "t_bool"
      },
      {
        "astId": 6536,
        "contract": "contracts/core/AddressProvider.sol:AddressProvider",
        "label": "governor",
        "offset": 2,
        "slot": "0",
        "type": "t_address"
      },
      {
        "astId": 6539,
        "contract": "contracts/core/AddressProvider.sol:AddressProvider",
        "label": "proposedGovernor",
        "offset": 0,
        "slot": "1",
        "type": "t_address"
      },
      {
        "astId": 6544,
        "contract": "contracts/core/AddressProvider.sol:AddressProvider",
        "label": "providersAggregator",
        "offset": 0,
        "slot": "2",
        "type": "t_contract(IPriceProvidersAggregator)11833"
      },
      {
        "astId": 6549,
        "contract": "contracts/core/AddressProvider.sol:AddressProvider",
        "label": "stableCoinProvider",
        "offset": 0,
        "slot": "3",
        "type": "t_contract(IStableCoinProvider)11850"
      }
    ],
    "types": {
      "t_address": {
        "encoding": "inplace",
        "label": "address",
        "numberOfBytes": "20"
      },
      "t_bool": {
        "encoding": "inplace",
        "label": "bool",
        "numberOfBytes": "1"
      },
      "t_contract(IPriceProvidersAggregator)11833": {
        "encoding": "inplace",
        "label": "contract IPriceProvidersAggregator",
        "numberOfBytes": "20"
      },
      "t_contract(IStableCoinProvider)11850": {
        "encoding": "inplace",
        "label": "contract IStableCoinProvider",
        "numberOfBytes": "20"
      },
      "t_uint8": {
        "encoding": "inplace",
        "label": "uint8",
        "numberOfBytes": "1"
      }
    }
  }
}