{
  "address": "0xa4B4291E88CB61838406DcA8cD8ac6eA657193fC",
  "abi": [
    {
      "inputs": [],
      "stateMutability": "nonpayable",
      "type": "constructor"
    },
    {
      "anonymous": false,
      "inputs": [
        {
          "indexed": false,
          "internalType": "address",
          "name": "token",
          "type": "address"
        },
        {
          "indexed": false,
          "internalType": "contract AggregatorV3Interface",
          "name": "oldAggregator",
          "type": "address"
        },
        {
          "indexed": false,
          "internalType": "contract AggregatorV3Interface",
          "name": "newAggregator",
          "type": "address"
        }
      ],
      "name": "AggregatorUpdated",
      "type": "event"
    },
    {
      "inputs": [],
      "name": "CHAINLINK_DECIMALS",
      "outputs": [
        {
          "internalType": "uint256",
          "name": "",
          "type": "uint256"
        }
      ],
      "stateMutability": "view",
      "type": "function"
    },
    {
      "inputs": [],
      "name": "TO_SCALE",
      "outputs": [
        {
          "internalType": "uint256",
          "name": "",
          "type": "uint256"
        }
      ],
      "stateMutability": "view",
      "type": "function"
    },
    {
      "inputs": [],
      "name": "USD_DECIMALS",
      "outputs": [
        {
          "internalType": "uint256",
          "name": "",
          "type": "uint256"
        }
      ],
      "stateMutability": "view",
      "type": "function"
    },
    {
      "inputs": [],
      "name": "addressProvider",
      "outputs": [
        {
          "internalType": "contract IAddressProvider",
          "name": "",
          "type": "address"
        }
      ],
      "stateMutability": "view",
      "type": "function"
    },
    {
      "inputs": [
        {
          "internalType": "address",
          "name": "",
          "type": "address"
        }
      ],
      "name": "aggregators",
      "outputs": [
        {
          "internalType": "contract AggregatorV3Interface",
          "name": "",
          "type": "address"
        }
      ],
      "stateMutability": "view",
      "type": "function"
    },
    {
      "inputs": [
        {
          "internalType": "address",
          "name": "token_",
          "type": "address"
        }
      ],
      "name": "getPriceInUsd",
      "outputs": [
        {
          "internalType": "uint256",
          "name": "_priceInUsd",
          "type": "uint256"
        },
        {
          "internalType": "uint256",
          "name": "_lastUpdatedAt",
          "type": "uint256"
        }
      ],
      "stateMutability": "view",
      "type": "function"
    },
    {
      "inputs": [
        {
          "internalType": "address",
          "name": "tokenIn_",
          "type": "address"
        },
        {
          "internalType": "address",
          "name": "tokenOut_",
          "type": "address"
        },
        {
          "internalType": "uint256",
          "name": "amountIn_",
          "type": "uint256"
        }
      ],
      "name": "quote",
      "outputs": [
        {
          "internalType": "uint256",
          "name": "_amountOut",
          "type": "uint256"
        },
        {
          "internalType": "uint256",
          "name": "_tokenInLastUpdatedAt",
          "type": "uint256"
        },
        {
          "internalType": "uint256",
          "name": "_tokenOutLastUpdatedAt",
          "type": "uint256"
        }
      ],
      "stateMutability": "view",
      "type": "function"
    },
    {
      "inputs": [
        {
          "internalType": "address",
          "name": "token_",
          "type": "address"
        },
        {
          "internalType": "uint256",
          "name": "amountIn_",
          "type": "uint256"
        }
      ],
      "name": "quoteTokenToUsd",
      "outputs": [
        {
          "internalType": "uint256",
          "name": "_amountOut",
          "type": "uint256"
        },
        {
          "internalType": "uint256",
          "name": "_lastUpdatedAt",
          "type": "uint256"
        }
      ],
      "stateMutability": "view",
      "type": "function"
    },
    {
      "inputs": [
        {
          "internalType": "address",
          "name": "token_",
          "type": "address"
        },
        {
          "internalType": "uint256",
          "name": "amountIn_",
          "type": "uint256"
        }
      ],
      "name": "quoteUsdToToken",
      "outputs": [
        {
          "internalType": "uint256",
          "name": "_amountOut",
          "type": "uint256"
        },
        {
          "internalType": "uint256",
          "name": "_lastUpdatedAt",
          "type": "uint256"
        }
      ],
      "stateMutability": "view",
      "type": "function"
    },
    {
      "inputs": [
        {
          "internalType": "address",
          "name": "token_",
          "type": "address"
        },
        {
          "internalType": "contract AggregatorV3Interface",
          "name": "aggregator_",
          "type": "address"
        }
      ],
      "name": "updateAggregator",
      "outputs": [],
      "stateMutability": "nonpayable",
      "type": "function"
    }
  ],
  "transactionHash": "0x9b932226d2d9ba636a0194141c53549d964b9fb58378d01738dd6cdda7786eaa",
  "args": [],
  "numDeployments": 3,
  "solcInputHash": "09558308d54d3300cecb3743b140aa91",
  "bytecode": "0x60806040523480156200001157600080fd5b5062000046732170ed0880ac9a755fd29b2688956bd959f933f8732a3796273d47c4ed363b361d3aefb7f7e2a1378262000184565b6200007a7355d398326f99059ff775485246999027b319795573b97ad0e74fa7d920791e90258a6e2085088b432062000184565b620000ae738ac76a51cc950d9822d68b83fe1ad97b32cd580d7351597f405303c4377e36123cbc172b13269ea16362000184565b620000e273bb4cdb9cbd36b01bd1cbaebf2de08d9173bc095c730567f2323251f0aab15c8dfb1967e4e8a7d42aee62000184565b6200011673e9e7cea3dedca5984780bafc599bd69add087d5673cbb98864ef56e9042e7d2efef76141f15731b82f62000184565b6200014a731af3f329e8be154074d8769d1ffa4ee058b1dbc373132d3c0b1d2cea0bc552588063bdbb210fdeecfa62000184565b6200017e737130d2a12b9bcbfae4f2634d864a1ee1ce3ead9c73264990fbd0a4796a3e3d8e37c4d5f87a3aca5ebf62000184565b620002b0565b6001600160a01b03811615806200021257506008816001600160a01b031663313ce5676040518163ffffffff1660e01b815260040160206040518083038186803b158015620001d257600080fd5b505afa158015620001e7573d6000803e3d6000fd5b505050506040513d601f19601f820116820180604052508101906200020d919062000284565b60ff16145b620002565760405162461bcd60e51b815260206004820152601060248201526f696e76616c69642d646563696d616c7360801b604482015260640160405180910390fd5b6001600160a01b03918216600090815260208190526040902080546001600160a01b03191691909216179055565b6000602082840312156200029757600080fd5b815160ff81168114620002a957600080fd5b9392505050565b610c3c80620002c06000396000f3fe608060405234801561001057600080fd5b50600436106100be5760003560e01c80638d0dba0011610076578063b5e9bef51161005b578063b5e9bef5146101ac578063b6466384146101bf578063dee7aba4146101ed57600080fd5b80638d0dba001461018457806393d1f99e1461019757600080fd5b80632954018c116100a75780632954018c1461014b5780632f6ee6951461016657806334ec2a3a1461017c57600080fd5b806307ee40bf146100c3578063112cdab9146100f0575b600080fd5b6100d66100d13660046108ec565b6101f5565b604080519283526020830191909152015b60405180910390f35b6101266100fe3660046108ec565b60006020819052908152604090205473ffffffffffffffffffffffffffffffffffffffff1681565b60405173ffffffffffffffffffffffffffffffffffffffff90911681526020016100e7565b61012673fba0816a81bcabbf3829bed28618177a2bf0e82a81565b61016e601281565b6040519081526020016100e7565b61016e600881565b6100d6610192366004610910565b610330565b6101aa6101a536600461093c565b6103ed565b005b6100d66101ba366004610910565b61063e565b6101d26101cd366004610975565b6106e8565b604080519384526020840192909252908201526060016100e7565b61016e610715565b73ffffffffffffffffffffffffffffffffffffffff8082166000908152602081905260408120549091829116806102735760405162461bcd60e51b815260206004820152601860248201527f746f6b656e2d776974686f75742d61676772656761746f72000000000000000060448201526064015b60405180910390fd5b60008173ffffffffffffffffffffffffffffffffffffffff1663feaf968c6040518163ffffffff1660e01b815260040160a06040518083038186803b1580156102bb57600080fd5b505afa1580156102cf573d6000803e3d6000fd5b505050506040513d601f19601f820116820180604052508101906102f391906109d5565b5095509092506103099150600890506012610a54565b61031490600a610b51565b61031d8261072f565b6103279190610b5d565b93505050915091565b600080600061033e856101f5565b80935081925050508473ffffffffffffffffffffffffffffffffffffffff1663313ce5676040518163ffffffff1660e01b815260040160206040518083038186803b15801561038c57600080fd5b505afa1580156103a0573d6000803e3d6000fd5b505050506040513d601f19601f820116820180604052508101906103c49190610b7c565b6103cf90600a610b9f565b6103d98286610b5d565b6103e39190610bae565b9250509250929050565b73fba0816a81bcabbf3829bed28618177a2bf0e82a73ffffffffffffffffffffffffffffffffffffffff16630c340a246040518163ffffffff1660e01b815260040160206040518083038186803b15801561044757600080fd5b505afa15801561045b573d6000803e3d6000fd5b505050506040513d601f19601f8201168201806040525081019061047f9190610be9565b73ffffffffffffffffffffffffffffffffffffffff163373ffffffffffffffffffffffffffffffffffffffff16146104f95760405162461bcd60e51b815260206004820152600c60248201527f6e6f742d676f7665726e6f720000000000000000000000000000000000000000604482015260640161026a565b73ffffffffffffffffffffffffffffffffffffffff821661055c5760405162461bcd60e51b815260206004820152600d60248201527f746f6b656e2d69732d6e756c6c00000000000000000000000000000000000000604482015260640161026a565b73ffffffffffffffffffffffffffffffffffffffff80831660009081526020819052604090205481169082168114156105d75760405162461bcd60e51b815260206004820152600f60248201527f73616d652d61732d63757272656e740000000000000000000000000000000000604482015260640161026a565b6105e18383610785565b6040805173ffffffffffffffffffffffffffffffffffffffff8581168252838116602083015284168183015290517f589e912830d38d62f14a6cf3cea8f8a002fc9288b37f0d914b5e7dc107d278bf9181900360600190a1505050565b600080600061064c856101f5565b8093508192505050808573ffffffffffffffffffffffffffffffffffffffff1663313ce5676040518163ffffffff1660e01b815260040160206040518083038186803b15801561069b57600080fd5b505afa1580156106af573d6000803e3d6000fd5b505050506040513d601f19601f820116820180604052508101906106d39190610b7c565b6106de90600a610b9f565b6103d99086610b5d565b6000806000806106f88786610330565b93509050610706868261063e565b90989397509550919350505050565b61072160086012610a54565b61072c90600a610b51565b81565b6000808212156107815760405162461bcd60e51b815260206004820181905260248201527f53616665436173743a2076616c7565206d75737420626520706f736974697665604482015260640161026a565b5090565b73ffffffffffffffffffffffffffffffffffffffff81161580610828575060088173ffffffffffffffffffffffffffffffffffffffff1663313ce5676040518163ffffffff1660e01b815260040160206040518083038186803b1580156107eb57600080fd5b505afa1580156107ff573d6000803e3d6000fd5b505050506040513d601f19601f820116820180604052508101906108239190610b7c565b60ff16145b6108745760405162461bcd60e51b815260206004820152601060248201527f696e76616c69642d646563696d616c7300000000000000000000000000000000604482015260640161026a565b73ffffffffffffffffffffffffffffffffffffffff918216600090815260208190526040902080547fffffffffffffffffffffffff00000000000000000000000000000000000000001691909216179055565b73ffffffffffffffffffffffffffffffffffffffff811681146108e957600080fd5b50565b6000602082840312156108fe57600080fd5b8135610909816108c7565b9392505050565b6000806040838503121561092357600080fd5b823561092e816108c7565b946020939093013593505050565b6000806040838503121561094f57600080fd5b823561095a816108c7565b9150602083013561096a816108c7565b809150509250929050565b60008060006060848603121561098a57600080fd5b8335610995816108c7565b925060208401356109a5816108c7565b929592945050506040919091013590565b805169ffffffffffffffffffff811681146109d057600080fd5b919050565b600080600080600060a086880312156109ed57600080fd5b6109f6866109b6565b9450602086015193506040860151925060608601519150610a19608087016109b6565b90509295509295909350565b7f4e487b7100000000000000000000000000000000000000000000000000000000600052601160045260246000fd5b600082821015610a6657610a66610a25565b500390565b600181815b80851115610aa6578160001904821115610a8c57610a8c610a25565b80851615610a9957918102915b93841c9390800290610a70565b509250929050565b600082610abd57506001610b4b565b81610aca57506000610b4b565b8160018114610ae05760028114610aea57610b06565b6001915050610b4b565b60ff841115610afb57610afb610a25565b50506001821b610b4b565b5060208310610133831016604e8410600b8410161715610b29575081810a610b4b565b610b338383610a6b565b8060001904821115610b4757610b47610a25565b0290505b92915050565b60006109098383610aae565b6000816000190483118215151615610b7757610b77610a25565b500290565b600060208284031215610b8e57600080fd5b815160ff8116811461090957600080fd5b600061090960ff841683610aae565b600082610be4577f4e487b7100000000000000000000000000000000000000000000000000000000600052601260045260246000fd5b500490565b600060208284031215610bfb57600080fd5b8151610909816108c756fea264697066735822122004784f2b29c948cafe5d9fb9a6b387a7e2220749472400d262f22945ef7e598664736f6c63430008090033",
  "devdoc": {
    "kind": "dev",
    "methods": {
      "getPriceInUsd(address)": {
        "params": {
          "token_": "The address of asset"
        },
        "returns": {
          "_lastUpdatedAt": "Last updated timestamp",
          "_priceInUsd": "The USD price"
        }
      },
      "quote(address,address,uint256)": {
        "params": {
          "amountIn_": "Amount of input token",
          "tokenIn_": "The address of assetIn",
          "tokenOut_": "The address of assetOut"
        },
        "returns": {
          "_amountOut": "Amount out",
          "_tokenInLastUpdatedAt": "Last updated timestamp of `tokenIn_`",
          "_tokenOutLastUpdatedAt": "Last updated timestamp of `tokenOut_`"
        }
      },
      "quoteTokenToUsd(address,uint256)": {
        "params": {
          "amountIn_": "Amount of input token.",
          "token_": "The address of assetIn"
        },
        "returns": {
          "_amountOut": "Amount in USD",
          "_lastUpdatedAt": "Last updated timestamp"
        }
      },
      "quoteUsdToToken(address,uint256)": {
        "params": {
          "amountIn_": "Input amount in USD",
          "token_": "The address of assetOut"
        },
        "returns": {
          "_amountOut": "Output amount of token",
          "_lastUpdatedAt": "Last updated timestamp"
        }
      }
    },
    "title": "Chainlink's price provider for BSC (Binance) network",
    "version": 1
  },
  "userdoc": {
    "events": {
      "AggregatorUpdated(address,address,address)": {
        "notice": "Emitted when an aggregator is updated"
      }
    },
    "kind": "user",
    "methods": {
      "aggregators(address)": {
        "notice": "Aggregators map (token => aggregator)"
      },
      "getPriceInUsd(address)": {
        "notice": "Get USD (or equivalent) price of an asset"
      },
      "quote(address,address,uint256)": {
        "notice": "Get quote"
      },
      "quoteTokenToUsd(address,uint256)": {
        "notice": "Get quote in USD (or equivalent) amount"
      },
      "quoteUsdToToken(address,uint256)": {
        "notice": "Get quote from USD (or equivalent) amount to amount of token"
      },
      "updateAggregator(address,address)": {
        "notice": "Update token's aggregator"
      }
    },
    "version": 1
  },
  "storageLayout": {
    "storage": [
      {
        "astId": 4649,
        "contract": "contracts/core/ChainlinkBscPriceProvider.sol:ChainlinkBscPriceProvider",
        "label": "aggregators",
        "offset": 0,
        "slot": "0",
        "type": "t_mapping(t_address,t_contract(AggregatorV3Interface)102)"
      }
    ],
    "types": {
      "t_address": {
        "encoding": "inplace",
        "label": "address",
        "numberOfBytes": "20"
      },
      "t_contract(AggregatorV3Interface)102": {
        "encoding": "inplace",
        "label": "contract AggregatorV3Interface",
        "numberOfBytes": "20"
      },
      "t_mapping(t_address,t_contract(AggregatorV3Interface)102)": {
        "encoding": "mapping",
        "key": "t_address",
        "label": "mapping(address => contract AggregatorV3Interface)",
        "numberOfBytes": "32",
        "value": "t_contract(AggregatorV3Interface)102"
      }
    }
  }
}