{
  "address": "0x3eb916cddCdF072cb292dB8B09616B6f1C11c3F5",
  "abi": [
    {
      "inputs": [
        {
          "internalType": "contract ICurveAddressProvider",
          "name": "addressProvider_",
          "type": "address"
        }
      ],
      "stateMutability": "nonpayable",
      "type": "constructor"
    },
    {
      "anonymous": false,
      "inputs": [
        {
          "indexed": true,
          "internalType": "address",
          "name": "lpToken",
          "type": "address"
        },
        {
          "indexed": false,
          "internalType": "bool",
          "name": "isLending",
          "type": "bool"
        }
      ],
      "name": "LpRegistered",
      "type": "event"
    },
    {
      "inputs": [],
      "name": "addressProvider",
      "outputs": [
        {
          "internalType": "contract IAddressProvider",
          "name": "",
          "type": "address"
        }
      ],
      "stateMutability": "view",
      "type": "function"
    },
    {
      "inputs": [],
      "name": "curveAddressProvider",
      "outputs": [
        {
          "internalType": "contract ICurveAddressProvider",
          "name": "",
          "type": "address"
        }
      ],
      "stateMutability": "view",
      "type": "function"
    },
    {
      "inputs": [
        {
          "internalType": "address",
          "name": "lpToken_",
          "type": "address"
        }
      ],
      "name": "getPriceInUsd",
      "outputs": [
        {
          "internalType": "uint256",
          "name": "_priceInUsd",
          "type": "uint256"
        }
      ],
      "stateMutability": "view",
      "type": "function"
    },
    {
      "inputs": [
        {
          "internalType": "address",
          "name": "",
          "type": "address"
        }
      ],
      "name": "poolOf",
      "outputs": [
        {
          "internalType": "address",
          "name": "",
          "type": "address"
        }
      ],
      "stateMutability": "view",
      "type": "function"
    },
    {
      "inputs": [
        {
          "internalType": "address",
          "name": "lpToken_",
          "type": "address"
        }
      ],
      "name": "registerLendingLp",
      "outputs": [],
      "stateMutability": "nonpayable",
      "type": "function"
    },
    {
      "inputs": [
        {
          "internalType": "address",
          "name": "lpToken_",
          "type": "address"
        }
      ],
      "name": "registerLp",
      "outputs": [],
      "stateMutability": "nonpayable",
      "type": "function"
    },
    {
      "inputs": [],
      "name": "registry",
      "outputs": [
        {
          "internalType": "address",
          "name": "",
          "type": "address"
        }
      ],
      "stateMutability": "view",
      "type": "function"
    },
    {
      "inputs": [
        {
          "internalType": "address",
          "name": "",
          "type": "address"
        },
        {
          "internalType": "uint256",
          "name": "",
          "type": "uint256"
        }
      ],
      "name": "underlyingTokens",
      "outputs": [
        {
          "internalType": "address",
          "name": "",
          "type": "address"
        }
      ],
      "stateMutability": "view",
      "type": "function"
    }
  ],
  "transactionHash": "0x6be7e54a04d4f4996bc7a9256f5536ad34ad45a68d9717cc0acb6dcb7505630c",
  "args": [
    "0x31D236483A15F9B9dD60b36D4013D75e9dbF852b"
  ],
  "numDeployments": 1,
  "solcInputHash": "6024ac27a35281ee3828957dcac0214b",
  "bytecode": "0x60c060405234801561001057600080fd5b50604051610e59380380610e5983398101604081905261002f91610133565b806001600160a01b03811661008a5760405162461bcd60e51b815260206004820152601560248201527f6e756c6c2d616464726573732d70726f76696465720000000000000000000000604482015260640160405180910390fd5b6001600160a01b03811660808190526040805163a262904b60e01b8152905163a262904b91600480820192602092909190829003018186803b1580156100cf57600080fd5b505afa1580156100e3573d6000803e3d6000fd5b505050506040513d601f19601f820116820180604052508101906101079190610133565b6001600160a01b031660a052506101579050565b6001600160a01b038116811461013057600080fd5b50565b60006020828403121561014557600080fd5b81516101508161011b565b9392505050565b60805160a051610cd76101826000396000818161012501526106da0152600060fe0152610cd76000f3fe608060405234801561001057600080fd5b50600436106100885760003560e01c80637b1039991161005b5780637b103999146101205780637e3d431914610147578063988b1fa71461015c578063fd182f381461018557600080fd5b806301eadec41461008d57806307ee40bf146100bd5780632954018c146100de5780633d6e7388146100f9575b600080fd5b6100a061009b366004610a8c565b610198565b6040516001600160a01b0390911681526020015b60405180910390f35b6100d06100cb366004610ab8565b6101d0565b6040519081526020016100b4565b6100a073fba0816a81bcabbf3829bed28618177a2bf0e82a81565b6100a07f000000000000000000000000000000000000000000000000000000000000000081565b6100a07f000000000000000000000000000000000000000000000000000000000000000081565b61015a610155366004610ab8565b6104c3565b005b6100a061016a366004610ab8565b6001602052600090815260409020546001600160a01b031681565b61015a610193366004610ab8565b6105b6565b600060205281600052604060002081815481106101b457600080fd5b6000918252602090912001546001600160a01b03169150829050565b6001600160a01b038082166000908152600160205260408120549091168061023f5760405162461bcd60e51b815260206004820152601460248201527f6c702d69732d6e6f742d7265676973746572656400000000000000000000000060448201526064015b60405180910390fd5b6001600160a01b038316600090815260208181526040808320805482518185028101850190935280835291929091908301828280156102a757602002820191906000526020600020905b81546001600160a01b03168152600190910190602001808311610289575b5050835193945060001993925060009150505b81811015610389576000336001600160a01b03166307ee40bf8684815181106102e5576102e5610adc565b60200260200101516040518263ffffffff1660e01b815260040161031891906001600160a01b0391909116815260200190565b60206040518083038186803b15801561033057600080fd5b505afa158015610344573d6000803e3d6000fd5b505050506040513d601f19601f820116820180604052508101906103689190610b0b565b905083811015610376578093505b508061038181610b53565b9150506102ba565b5060001982106103db5760405162461bcd60e51b815260206004820152601d60248201527f6e6f2d6d696e2d756e6465726c79696e672d70726963652d666f756e640000006044820152606401610236565b6000821161042b5760405162461bcd60e51b815260206004820152601160248201527f696e76616c69642d6d696e2d70726963650000000000000000000000000000006044820152606401610236565b670de0b6b3a7640000846001600160a01b031663bb7b8b806040518163ffffffff1660e01b815260040160206040518083038186803b15801561046d57600080fd5b505afa158015610481573d6000803e3d6000fd5b505050506040513d601f19601f820116820180604052508101906104a59190610b0b565b6104af9084610b6e565b6104b99190610b8d565b9695505050505050565b73fba0816a81bcabbf3829bed28618177a2bf0e82a6001600160a01b0316630c340a246040518163ffffffff1660e01b815260040160206040518083038186803b15801561051057600080fd5b505afa158015610524573d6000803e3d6000fd5b505050506040513d601f19601f820116820180604052508101906105489190610bd8565b6001600160a01b0316336001600160a01b0316146105a85760405162461bcd60e51b815260206004820152600c60248201527f6e6f742d676f7665726e6f7200000000000000000000000000000000000000006044820152606401610236565b6105b38160006106a2565b50565b73fba0816a81bcabbf3829bed28618177a2bf0e82a6001600160a01b0316630c340a246040518163ffffffff1660e01b815260040160206040518083038186803b15801561060357600080fd5b505afa158015610617573d6000803e3d6000fd5b505050506040513d601f19601f8201168201806040525081019061063b9190610bd8565b6001600160a01b0316336001600160a01b03161461069b5760405162461bcd60e51b815260206004820152600c60248201527f6e6f742d676f7665726e6f7200000000000000000000000000000000000000006044820152606401610236565b6105b38160015b6040517fbdf475c30000000000000000000000000000000000000000000000000000000081526001600160a01b0383811660048301527f00000000000000000000000000000000000000000000000000000000000000009160009183169063bdf475c39060240160206040518083038186803b15801561072157600080fd5b505afa158015610735573d6000803e3d6000fd5b505050506040513d601f19601f820116820180604052508101906107599190610bd8565b90506001600160a01b0381166107b15760405162461bcd60e51b815260206004820152601660248201527f696e76616c69642d6e6f6e2d666163746f72792d6c70000000000000000000006044820152606401610236565b6040517f9ac90d3d0000000000000000000000000000000000000000000000000000000081526001600160a01b03828116600483015260009190841690639ac90d3d9060240160806040518083038186803b15801561080f57600080fd5b505afa158015610823573d6000803e3d6000fd5b505050506040513d601f19601f820116820180604052508101906108479190610bf5565b6001600160a01b03868116600090815260016020526040902054919250161561088b576001600160a01b038516600090815260208190526040812061088b91610a45565b6001600160a01b0385811660009081526001602052604080822080547fffffffffffffffffffffffff00000000000000000000000000000000000000001686851690811790915590517f940494f10000000000000000000000000000000000000000000000000000000081526004810191909152909185169063940494f19060240160206040518083038186803b15801561092557600080fd5b505afa158015610939573d6000803e3d6000fd5b505050506040513d601f19601f8201168201806040525081019061095d9190610b0b565b905060005b818110156109f7576001600160a01b038716600090815260208190526040902083826004811061099457610994610adc565b6020908102919091015182546001810184556000938452919092200180547fffffffffffffffffffffffff0000000000000000000000000000000000000000166001600160a01b03909216919091179055806109ef81610b53565b915050610962565b50856001600160a01b03167f57d0e2ad10d7bd8ccdedffbc52e5e50ff5314a8d8be6248e7c0d05d4cd81435386604051610a35911515815260200190565b60405180910390a2505050505050565b50805460008255906000526020600020908101906105b391905b80821115610a735760008155600101610a5f565b5090565b6001600160a01b03811681146105b357600080fd5b60008060408385031215610a9f57600080fd5b8235610aaa81610a77565b946020939093013593505050565b600060208284031215610aca57600080fd5b8135610ad581610a77565b9392505050565b7f4e487b7100000000000000000000000000000000000000000000000000000000600052603260045260246000fd5b600060208284031215610b1d57600080fd5b5051919050565b7f4e487b7100000000000000000000000000000000000000000000000000000000600052601160045260246000fd5b6000600019821415610b6757610b67610b24565b5060010190565b6000816000190483118215151615610b8857610b88610b24565b500290565b600082610bc3577f4e487b7100000000000000000000000000000000000000000000000000000000600052601260045260246000fd5b500490565b8051610bd381610a77565b919050565b600060208284031215610bea57600080fd5b8151610ad581610a77565b600060808284031215610c0757600080fd5b82601f830112610c1657600080fd5b6040516080810181811067ffffffffffffffff82111715610c60577f4e487b7100000000000000000000000000000000000000000000000000000000600052604160045260246000fd5b604052806080840185811115610c7557600080fd5b845b81811015610c9657610c8881610bc8565b835260209283019201610c77565b50919594505050505056fea2646970667358221220cf04fbafdf7c755f7cbb77683bdc5ed531a314c8c91e9d44e56950ed5c603da664736f6c63430008090033",
  "devdoc": {
    "kind": "dev",
    "methods": {
      "getPriceInUsd(address)": {
        "details": "This function is supposed to be called from `MasterOracle` only",
        "params": {
          "token_": "The address of asset"
        },
        "returns": {
          "_priceInUsd": "The USD price"
        }
      }
    },
    "title": "Oracle for Ellipsis LP tokens",
    "version": 1
  },
  "userdoc": {
    "events": {
      "LpRegistered(address,bool)": {
        "notice": "Emitted when a token is registered"
      }
    },
    "kind": "user",
    "methods": {
      "getPriceInUsd(address)": {
        "notice": "Get USD (or equivalent) price of an asset"
      },
      "poolOf(address)": {
        "notice": "LP token => pool"
      },
      "registerLendingLp(address)": {
        "notice": "Register LP token data"
      },
      "registerLp(address)": {
        "notice": "Register LP token data"
      },
      "registry()": {
        "notice": "Registry contract"
      },
      "underlyingTokens(address,uint256)": {
        "notice": "LP token => coins mapping"
      }
    },
    "version": 1
  },
  "storageLayout": {
    "storage": [
      {
        "astId": 1328,
        "contract": "contracts/periphery/tokens/EllipsisLpTokenOracle.sol:EllipsisLpTokenOracle",
        "label": "underlyingTokens",
        "offset": 0,
        "slot": "0",
        "type": "t_mapping(t_address,t_array(t_address)dyn_storage)"
      },
      {
        "astId": 1333,
        "contract": "contracts/periphery/tokens/EllipsisLpTokenOracle.sol:EllipsisLpTokenOracle",
        "label": "poolOf",
        "offset": 0,
        "slot": "1",
        "type": "t_mapping(t_address,t_address)"
      }
    ],
    "types": {
      "t_address": {
        "encoding": "inplace",
        "label": "address",
        "numberOfBytes": "20"
      },
      "t_array(t_address)dyn_storage": {
        "base": "t_address",
        "encoding": "dynamic_array",
        "label": "address[]",
        "numberOfBytes": "32"
      },
      "t_mapping(t_address,t_address)": {
        "encoding": "mapping",
        "key": "t_address",
        "label": "mapping(address => address)",
        "numberOfBytes": "32",
        "value": "t_address"
      },
      "t_mapping(t_address,t_array(t_address)dyn_storage)": {
        "encoding": "mapping",
        "key": "t_address",
        "label": "mapping(address => address[])",
        "numberOfBytes": "32",
        "value": "t_array(t_address)dyn_storage"
      }
    }
  }
}