{
  "address": "0x64E26Aeb32003aa17CdC20D07b27EC141a3f863d",
  "abi": [
    {
      "anonymous": false,
      "inputs": [
        {
          "indexed": false,
          "internalType": "bytes",
          "name": "key",
          "type": "bytes"
        },
        {
          "indexed": false,
          "internalType": "bytes",
          "name": "oldRouting",
          "type": "bytes"
        },
        {
          "indexed": false,
          "internalType": "bytes",
          "name": "newRouting",
          "type": "bytes"
        }
      ],
      "name": "DefaultRoutingUpdated",
      "type": "event"
    },
    {
      "anonymous": false,
      "inputs": [
        {
          "indexed": true,
          "internalType": "enum DataTypes.ExchangeType",
          "name": "exchangeType",
          "type": "uint8"
        },
        {
          "indexed": true,
          "internalType": "address",
          "name": "oldExchange",
          "type": "address"
        },
        {
          "indexed": true,
          "internalType": "address",
          "name": "newExchange",
          "type": "address"
        }
      ],
      "name": "ExchangeUpdated",
      "type": "event"
    },
    {
      "anonymous": false,
      "inputs": [
        {
          "indexed": true,
          "internalType": "contract IExchange",
          "name": "exchange",
          "type": "address"
        },
        {
          "indexed": false,
          "internalType": "bytes",
          "name": "path",
          "type": "bytes"
        },
        {
          "indexed": true,
          "internalType": "address",
          "name": "tokenIn",
          "type": "address"
        },
        {
          "indexed": true,
          "internalType": "address",
          "name": "tokenOut",
          "type": "address"
        },
        {
          "indexed": false,
          "internalType": "uint256",
          "name": "amountIn",
          "type": "uint256"
        },
        {
          "indexed": false,
          "internalType": "uint256",
          "name": "amountOut",
          "type": "uint256"
        }
      ],
      "name": "SwapExactInput",
      "type": "event"
    },
    {
      "anonymous": false,
      "inputs": [
        {
          "indexed": true,
          "internalType": "contract IExchange",
          "name": "exchange",
          "type": "address"
        },
        {
          "indexed": false,
          "internalType": "bytes",
          "name": "path",
          "type": "bytes"
        },
        {
          "indexed": true,
          "internalType": "address",
          "name": "tokenIn",
          "type": "address"
        },
        {
          "indexed": true,
          "internalType": "address",
          "name": "tokenOut",
          "type": "address"
        },
        {
          "indexed": false,
          "internalType": "uint256",
          "name": "amountInMax",
          "type": "uint256"
        },
        {
          "indexed": false,
          "internalType": "uint256",
          "name": "amountIn",
          "type": "uint256"
        },
        {
          "indexed": false,
          "internalType": "uint256",
          "name": "amountOut",
          "type": "uint256"
        }
      ],
      "name": "SwapExactOutput",
      "type": "event"
    },
    {
      "inputs": [
        {
          "internalType": "enum DataTypes.ExchangeType",
          "name": "",
          "type": "uint8"
        }
      ],
      "name": "addressOf",
      "outputs": [
        {
          "internalType": "address",
          "name": "",
          "type": "address"
        }
      ],
      "stateMutability": "view",
      "type": "function"
    },
    {
      "inputs": [],
      "name": "addressProvider",
      "outputs": [
        {
          "internalType": "contract IAddressProvider",
          "name": "",
          "type": "address"
        }
      ],
      "stateMutability": "view",
      "type": "function"
    },
    {
      "inputs": [
        {
          "internalType": "bytes",
          "name": "",
          "type": "bytes"
        }
      ],
      "name": "defaultRoutings",
      "outputs": [
        {
          "internalType": "bytes",
          "name": "",
          "type": "bytes"
        }
      ],
      "stateMutability": "view",
      "type": "function"
    },
    {
      "inputs": [],
      "name": "getAllExchanges",
      "outputs": [
        {
          "internalType": "address[]",
          "name": "",
          "type": "address[]"
        }
      ],
      "stateMutability": "view",
      "type": "function"
    },
    {
      "inputs": [
        {
          "internalType": "address",
          "name": "tokenIn_",
          "type": "address"
        },
        {
          "internalType": "address",
          "name": "tokenOut_",
          "type": "address"
        },
        {
          "internalType": "uint256",
          "name": "amountOut_",
          "type": "uint256"
        }
      ],
      "name": "getAmountIn",
      "outputs": [
        {
          "internalType": "uint256",
          "name": "_amountIn",
          "type": "uint256"
        }
      ],
      "stateMutability": "nonpayable",
      "type": "function"
    },
    {
      "inputs": [
        {
          "internalType": "address",
          "name": "tokenIn_",
          "type": "address"
        },
        {
          "internalType": "address",
          "name": "tokenOut_",
          "type": "address"
        },
        {
          "internalType": "uint256",
          "name": "amountIn_",
          "type": "uint256"
        }
      ],
      "name": "getAmountOut",
      "outputs": [
        {
          "internalType": "uint256",
          "name": "_amountOut",
          "type": "uint256"
        }
      ],
      "stateMutability": "nonpayable",
      "type": "function"
    },
    {
      "inputs": [
        {
          "internalType": "enum DataTypes.SwapType",
          "name": "swapType_",
          "type": "uint8"
        },
        {
          "internalType": "address",
          "name": "tokenIn_",
          "type": "address"
        },
        {
          "internalType": "address",
          "name": "tokenOut_",
          "type": "address"
        },
        {
          "internalType": "enum DataTypes.ExchangeType",
          "name": "exchange_",
          "type": "uint8"
        },
        {
          "internalType": "bytes",
          "name": "path_",
          "type": "bytes"
        }
      ],
      "name": "setDefaultRouting",
      "outputs": [],
      "stateMutability": "nonpayable",
      "type": "function"
    },
    {
      "inputs": [
        {
          "internalType": "enum DataTypes.ExchangeType",
          "name": "type_",
          "type": "uint8"
        },
        {
          "internalType": "address",
          "name": "exchange_",
          "type": "address"
        }
      ],
      "name": "setExchange",
      "outputs": [],
      "stateMutability": "nonpayable",
      "type": "function"
    },
    {
      "inputs": [
        {
          "internalType": "address",
          "name": "tokenIn_",
          "type": "address"
        },
        {
          "internalType": "address",
          "name": "tokenOut_",
          "type": "address"
        },
        {
          "internalType": "uint256",
          "name": "amountIn_",
          "type": "uint256"
        },
        {
          "internalType": "uint256",
          "name": "amountOutMin_",
          "type": "uint256"
        },
        {
          "internalType": "address",
          "name": "receiver_",
          "type": "address"
        }
      ],
      "name": "swapExactInput",
      "outputs": [
        {
          "internalType": "uint256",
          "name": "_amountOut",
          "type": "uint256"
        }
      ],
      "stateMutability": "nonpayable",
      "type": "function"
    },
    {
      "inputs": [
        {
          "internalType": "address",
          "name": "tokenIn_",
          "type": "address"
        },
        {
          "internalType": "address",
          "name": "tokenOut_",
          "type": "address"
        },
        {
          "internalType": "uint256",
          "name": "amountOut_",
          "type": "uint256"
        },
        {
          "internalType": "uint256",
          "name": "amountInMax_",
          "type": "uint256"
        },
        {
          "internalType": "address",
          "name": "receiver_",
          "type": "address"
        }
      ],
      "name": "swapExactOutput",
      "outputs": [
        {
          "internalType": "uint256",
          "name": "_amountIn",
          "type": "uint256"
        }
      ],
      "stateMutability": "nonpayable",
      "type": "function"
    }
  ],
  "transactionHash": "0xe575436a5181aaf3662fc836e21322b4fa283ad4fa9676c378c7524d4b834759",
  "args": [],
  "numDeployments": 3,
  "solcInputHash": "09558308d54d3300cecb3743b140aa91",
  "bytecode": "0x608060405234801561001057600080fd5b506120b1806100206000396000f3fe608060405234801561001057600080fd5b50600436106100be5760003560e01c806353b609b5116100765780636ccb2b011161005b5780636ccb2b01146101a257806381cc619b146101b5578063c71f8f94146101c857600080fd5b806353b609b51461016657806367b426451461017957600080fd5b80633254e7b1116100a75780633254e7b11461011057806337c03fb6146101305780634aa066521461014557600080fd5b80632954018c146100c35780632aa3e6c6146100fb575b600080fd5b6100de73fba0816a81bcabbf3829bed28618177a2bf0e82a81565b6040516001600160a01b0390911681526020015b60405180910390f35b61010e61010936600461191e565b6101db565b005b61012361011e3660046119df565b6105e9565b6040516100f29190611ab7565b61013861068e565b6040516100f29190611aca565b610158610153366004611b17565b61069f565b6040519081526020016100f2565b610158610174366004611b17565b6108b7565b6100de610187366004611b58565b6002602052600090815260409020546001600160a01b031681565b6101586101b0366004611b75565b610a72565b6101586101c3366004611b75565b610e1a565b61010e6101d6366004611bd4565b6110b2565b73fba0816a81bcabbf3829bed28618177a2bf0e82a6001600160a01b0316630c340a246040518163ffffffff1660e01b815260040160206040518083038186803b15801561022857600080fd5b505afa15801561023c573d6000803e3d6000fd5b505050506040513d601f19601f820116820180604052508101906102609190611c94565b6001600160a01b0316336001600160a01b0316146102c55760405162461bcd60e51b815260206004820152600c60248201527f6e6f742d676f7665726e6f72000000000000000000000000000000000000000060448201526064015b60405180910390fd5b6000600260008460078111156102dd576102dd611cb1565b60078111156102ee576102ee611cb1565b81526020810191909152604001600020546001600160a01b03169050806103c55761031a600083611341565b6103665760405162461bcd60e51b815260206004820152600f60248201527f65786368616e67652d657869737473000000000000000000000000000000000060448201526064016102bc565b816002600085600781111561037d5761037d611cb1565b600781111561038e5761038e611cb1565b815260200190815260200160002060006101000a8154816001600160a01b0302191690836001600160a01b03160217905550610595565b6001600160a01b03821661048c576103de60008261135f565b61042a5760405162461bcd60e51b815260206004820152601760248201527f65786368616e67652d646f65732d6e6f742d657869737400000000000000000060448201526064016102bc565b6002600084600781111561044057610440611cb1565b600781111561045157610451611cb1565b8152602081019190915260400160002080547fffffffffffffffffffffffff0000000000000000000000000000000000000000169055610595565b61049760008261135f565b6104e35760405162461bcd60e51b815260206004820152601760248201527f65786368616e67652d646f65732d6e6f742d657869737400000000000000000060448201526064016102bc565b6104ee600083611341565b61053a5760405162461bcd60e51b815260206004820152600f60248201527f65786368616e67652d657869737473000000000000000000000000000000000060448201526064016102bc565b816002600085600781111561055157610551611cb1565b600781111561056257610562611cb1565b815260200190815260200160002060006101000a8154816001600160a01b0302191690836001600160a01b031602179055505b816001600160a01b0316816001600160a01b03168460078111156105bb576105bb611cb1565b6040517fd368678e81cb4fa5855a3e8bc7c4df1cdfdc699b194e44bff3d1a4399ee6be1490600090a4505050565b80516020818301810180516003825292820191909301209152805461060d90611ce0565b80601f016020809104026020016040519081016040528092919081815260200182805461063990611ce0565b80156106865780601f1061065b57610100808354040283529160200191610686565b820191906000526020600020905b81548152906001019060200180831161066957829003601f168201915b505050505081565b606061069a6000611374565b905090565b6000806003600086866040516020016106ba93929190611d34565b60408051601f19818403018152908290526106d491611d8a565b908152602001604051809103902080546106ed90611ce0565b80601f016020809104026020016040519081016040528092919081815260200182805461071990611ce0565b80156107665780601f1061073b57610100808354040283529160200191610766565b820191906000526020600020905b81548152906001019060200180831161074957829003601f168201915b5050505050905060008151116107be5760405162461bcd60e51b815260206004820152601060248201527f6e6f2d726f7574696e672d666f756e640000000000000000000000000000000060448201526064016102bc565b600080828060200190518101906107d59190611da6565b91509150600260008360078111156107ef576107ef611cb1565b600781111561080057610800611cb1565b8152602081019190915260409081016000205490517ffee9574a0000000000000000000000000000000000000000000000000000000081526001600160a01b039091169063fee9574a9061085a9088908590600401611e33565b602060405180830381600087803b15801561087457600080fd5b505af1158015610888573d6000803e3d6000fd5b505050506040513d601f19601f820116820180604052508101906108ac9190611e4c565b979650505050505050565b6000806003600186866040516020016108d293929190611d34565b60408051601f19818403018152908290526108ec91611d8a565b9081526020016040518091039020805461090590611ce0565b80601f016020809104026020016040519081016040528092919081815260200182805461093190611ce0565b801561097e5780601f106109535761010080835404028352916020019161097e565b820191906000526020600020905b81548152906001019060200180831161096157829003601f168201915b5050505050905060008151116109d65760405162461bcd60e51b815260206004820152601060248201527f6e6f2d726f7574696e672d666f756e640000000000000000000000000000000060448201526064016102bc565b600080828060200190518101906109ed9190611da6565b9150915060026000836007811115610a0757610a07611cb1565b6007811115610a1857610a18611cb1565b8152602081019190915260409081016000205490517f2aa4a9e50000000000000000000000000000000000000000000000000000000081526001600160a01b0390911690632aa4a9e59061085a9088908590600401611e33565b600080600360008888604051602001610a8d93929190611d34565b60408051601f1981840301815290829052610aa791611d8a565b90815260200160405180910390208054610ac090611ce0565b80601f0160208091040260200160405190810160405280929190818152602001828054610aec90611ce0565b8015610b395780601f10610b0e57610100808354040283529160200191610b39565b820191906000526020600020905b815481529060010190602001808311610b1c57829003601f168201915b505050505090506000815111610b915760405162461bcd60e51b815260206004820152601060248201527f6e6f2d726f7574696e672d666f756e640000000000000000000000000000000060448201526064016102bc565b60008082806020019051810190610ba89190611da6565b91509150600060026000846007811115610bc457610bc4611cb1565b6007811115610bd557610bd5611cb1565b81526020810191909152604090810160009081205491517f70a082310000000000000000000000000000000000000000000000000000000081526001600160a01b0392831660048201819052935090918c16906370a082319060240160206040518083038186803b158015610c4957600080fd5b505afa158015610c5d573d6000803e3d6000fd5b505050506040513d601f19601f82011682018060405250810190610c819190611e4c565b9050610c986001600160a01b038c1633848c611388565b816001600160a01b0316634909c29a84838e6001600160a01b03166370a08231876040518263ffffffff1660e01b8152600401610ce491906001600160a01b0391909116815260200190565b60206040518083038186803b158015610cfc57600080fd5b505afa158015610d10573d6000803e3d6000fd5b505050506040513d601f19601f82011682018060405250810190610d349190611e4c565b610d3e9190611e65565b8b8b6040518563ffffffff1660e01b8152600401610d5f9493929190611ea3565b602060405180830381600087803b158015610d7957600080fd5b505af1158015610d8d573d6000803e3d6000fd5b505050506040513d601f19601f82011682018060405250810190610db19190611e4c565b9550896001600160a01b03168b6001600160a01b0316836001600160a01b03167f332d883d1035df5d58d7a529e9dab834dbc4c3983a2d629a6424230ec1bf8c04868d8b604051610e0493929190611edb565b60405180910390a4505050505095945050505050565b600080600360018888604051602001610e3593929190611d34565b60408051601f1981840301815290829052610e4f91611d8a565b90815260200160405180910390208054610e6890611ce0565b80601f0160208091040260200160405190810160405280929190818152602001828054610e9490611ce0565b8015610ee15780601f10610eb657610100808354040283529160200191610ee1565b820191906000526020600020905b815481529060010190602001808311610ec457829003601f168201915b505050505090506000815111610f395760405162461bcd60e51b815260206004820152601060248201527f6e6f2d726f7574696e672d666f756e640000000000000000000000000000000060448201526064016102bc565b60008082806020019051810190610f509190611da6565b91509150600060026000846007811115610f6c57610f6c611cb1565b6007811115610f7d57610f7d611cb1565b81526020810191909152604001600020546001600160a01b039081169150610fa9908b1633838a611388565b6040517f9d9f384d0000000000000000000000000000000000000000000000000000000081526001600160a01b03821690639d9f384d90610ff69085908c908c9033908d90600401611f00565b602060405180830381600087803b15801561101057600080fd5b505af1158015611024573d6000803e3d6000fd5b505050506040513d601f19601f820116820180604052508101906110489190611e4c565b9450886001600160a01b03168a6001600160a01b0316826001600160a01b03167fe2b399ee44535cc98392f9d1d787f5c925873e04562dee99db8c1f781240c062858b8a8e60405161109d9493929190611f40565b60405180910390a45050505095945050505050565b73fba0816a81bcabbf3829bed28618177a2bf0e82a6001600160a01b0316630c340a246040518163ffffffff1660e01b815260040160206040518083038186803b1580156110ff57600080fd5b505afa158015611113573d6000803e3d6000fd5b505050506040513d601f19601f820116820180604052508101906111379190611c94565b6001600160a01b0316336001600160a01b0316146111975760405162461bcd60e51b815260206004820152600c60248201527f6e6f742d676f7665726e6f72000000000000000000000000000000000000000060448201526064016102bc565b60008686866040516020016111ae93929190611d34565b604051602081830303815290604052905060006003826040516111d19190611d8a565b908152602001604051809103902080546111ea90611ce0565b80601f016020809104026020016040519081016040528092919081815260200182805461121690611ce0565b80156112635780601f1061123857610100808354040283529160200191611263565b820191906000526020600020905b81548152906001019060200180831161124657829003601f168201915b50505050509050600085858560405160200161128193929190611f6f565b60408051601f198184030181529190529050836112c7576003836040516112a89190611d8a565b908152602001604051809103902060006112c29190611826565b6112fb565b806003846040516112d89190611d8a565b908152602001604051809103902090805190602001906112f9929190611863565b505b7f69f079d2078c67fbbdee50f8233f472aed9a0ddc1deb4c04fa3ed59fdee4db3083838360405161132e93929190611fb8565b60405180910390a1505050505050505050565b6000611356836001600160a01b038416611416565b90505b92915050565b6000611356836001600160a01b038416611465565b6060600061138183611558565b9392505050565b604080516001600160a01b0385811660248301528416604482015260648082018490528251808303909101815260849091019091526020810180517bffffffffffffffffffffffffffffffffffffffffffffffffffffffff167f23b872dd000000000000000000000000000000000000000000000000000000001790526114109085906115b4565b50505050565b600081815260018301602052604081205461145d57508154600181810184556000848152602080822090930184905584548482528286019093526040902091909155611359565b506000611359565b6000818152600183016020526040812054801561154e576000611489600183611e65565b855490915060009061149d90600190611e65565b90508181146115025760008660000182815481106114bd576114bd611ffb565b90600052602060002001549050808760000184815481106114e0576114e0611ffb565b6000918252602080832090910192909255918252600188019052604090208390555b85548690806115135761151361202a565b600190038181906000526020600020016000905590558560010160008681526020019081526020016000206000905560019350505050611359565b6000915050611359565b6060816000018054806020026020016040519081016040528092919081815260200182805480156115a857602002820191906000526020600020905b815481526020019060010190808311611594575b50505050509050919050565b6000611609826040518060400160405280602081526020017f5361666545524332303a206c6f772d6c6576656c2063616c6c206661696c6564815250856001600160a01b031661169e9092919063ffffffff16565b80519091501561169957808060200190518101906116279190612059565b6116995760405162461bcd60e51b815260206004820152602a60248201527f5361666545524332303a204552433230206f7065726174696f6e20646964206e60448201527f6f7420737563636565640000000000000000000000000000000000000000000060648201526084016102bc565b505050565b60606116ad84846000856116b5565b949350505050565b60608247101561172d5760405162461bcd60e51b815260206004820152602660248201527f416464726573733a20696e73756666696369656e742062616c616e636520666f60448201527f722063616c6c000000000000000000000000000000000000000000000000000060648201526084016102bc565b6001600160a01b0385163b6117845760405162461bcd60e51b815260206004820152601d60248201527f416464726573733a2063616c6c20746f206e6f6e2d636f6e747261637400000060448201526064016102bc565b600080866001600160a01b031685876040516117a09190611d8a565b60006040518083038185875af1925050503d80600081146117dd576040519150601f19603f3d011682016040523d82523d6000602084013e6117e2565b606091505b50915091506108ac828286606083156117fc575081611381565b82511561180c5782518084602001fd5b8160405162461bcd60e51b81526004016102bc9190611ab7565b50805461183290611ce0565b6000825580601f10611842575050565b601f01602090049060005260206000209081019061186091906118e7565b50565b82805461186f90611ce0565b90600052602060002090601f01602090048101928261189157600085556118d7565b82601f106118aa57805160ff19168380011785556118d7565b828001600101855582156118d7579182015b828111156118d75782518255916020019190600101906118bc565b506118e39291506118e7565b5090565b5b808211156118e357600081556001016118e8565b6008811061186057600080fd5b6001600160a01b038116811461186057600080fd5b6000806040838503121561193157600080fd5b823561193c816118fc565b9150602083013561194c81611909565b809150509250929050565b7f4e487b7100000000000000000000000000000000000000000000000000000000600052604160045260246000fd5b604051601f8201601f1916810167ffffffffffffffff811182821017156119af576119af611957565b604052919050565b600067ffffffffffffffff8211156119d1576119d1611957565b50601f01601f191660200190565b6000602082840312156119f157600080fd5b813567ffffffffffffffff811115611a0857600080fd5b8201601f81018413611a1957600080fd5b8035611a2c611a27826119b7565b611986565b818152856020838501011115611a4157600080fd5b81602084016020830137600091810160200191909152949350505050565b60005b83811015611a7a578181015183820152602001611a62565b838111156114105750506000910152565b60008151808452611aa3816020860160208601611a5f565b601f01601f19169290920160200192915050565b6020815260006113566020830184611a8b565b6020808252825182820181905260009190848201906040850190845b81811015611b0b5783516001600160a01b031683529284019291840191600101611ae6565b50909695505050505050565b600080600060608486031215611b2c57600080fd5b8335611b3781611909565b92506020840135611b4781611909565b929592945050506040919091013590565b600060208284031215611b6a57600080fd5b8135611381816118fc565b600080600080600060a08688031215611b8d57600080fd5b8535611b9881611909565b94506020860135611ba881611909565b935060408601359250606086013591506080860135611bc681611909565b809150509295509295909350565b60008060008060008060a08789031215611bed57600080fd5b863560028110611bfc57600080fd5b95506020870135611c0c81611909565b94506040870135611c1c81611909565b93506060870135611c2c816118fc565b9250608087013567ffffffffffffffff80821115611c4957600080fd5b818901915089601f830112611c5d57600080fd5b813581811115611c6c57600080fd5b8a6020828501011115611c7e57600080fd5b6020830194508093505050509295509295509295565b600060208284031215611ca657600080fd5b815161138181611909565b7f4e487b7100000000000000000000000000000000000000000000000000000000600052602160045260246000fd5b600181811c90821680611cf457607f821691505b60208210811415611d2e577f4e487b7100000000000000000000000000000000000000000000000000000000600052602260045260246000fd5b50919050565b600060028510611d4657611d46611cb1565b5060f89390931b83527fffffffffffffffffffffffffffffffffffffffff000000000000000000000000606092831b81166001850152911b16601582015260290190565b60008251611d9c818460208701611a5f565b9190910192915050565b60008060408385031215611db957600080fd5b8251611dc4816118fc565b602084015190925067ffffffffffffffff811115611de157600080fd5b8301601f81018513611df257600080fd5b8051611e00611a27826119b7565b818152866020838501011115611e1557600080fd5b611e26826020830160208601611a5f565b8093505050509250929050565b8281526040602082015260006116ad6040830184611a8b565b600060208284031215611e5e57600080fd5b5051919050565b600082821015611e9e577f4e487b7100000000000000000000000000000000000000000000000000000000600052601160045260246000fd5b500390565b608081526000611eb66080830187611a8b565b60208301959095525060408101929092526001600160a01b0316606090910152919050565b606081526000611eee6060830186611a8b565b60208301949094525060400152919050565b60a081526000611f1360a0830188611a8b565b60208301969096525060408101939093526001600160a01b03918216606084015216608090910152919050565b608081526000611f536080830187611a8b565b6020830195909552506040810192909252606090910152919050565b600060088510611f8157611f81611cb1565b84825260406020830152826040830152828460608401376000606084840101526060601f19601f8501168301019050949350505050565b606081526000611fcb6060830186611a8b565b8281036020840152611fdd8186611a8b565b90508281036040840152611ff18185611a8b565b9695505050505050565b7f4e487b7100000000000000000000000000000000000000000000000000000000600052603260045260246000fd5b7f4e487b7100000000000000000000000000000000000000000000000000000000600052603160045260246000fd5b60006020828403121561206b57600080fd5b8151801515811461138157600080fdfea26469706673582212208a4507ccc51ea7b70e17b1055343a85193db26aef0aa3599dda3c4b2d0c2dfab64736f6c63430008090033",
  "devdoc": {
    "kind": "dev",
    "methods": {
      "getAllExchanges()": {
        "details": "This function is gas intensive"
      },
      "getAmountIn(address,address,uint256)": {
        "details": "It shouldn't be used as oracle!!!"
      },
      "getAmountOut(address,address,uint256)": {
        "details": "It shouldn't be used as oracle!!!"
      },
      "setDefaultRouting(uint8,address,address,uint8,bytes)": {
        "details": "Use empty `path_` for removalUse `abi.encodePacked(tokenA, poolFee1, tokenB, poolFee2, tokenC, ...)` for UniswapV3 exchangeUse `abi.encode([tokenA, tokenB, tokenC, ...])` for UniswapV2-like exchanges",
        "params": {
          "exchange_": "The type (i.e. protocol) of the exchange",
          "path_": "The swap path",
          "swapType_": "If the routing is related to `EXACT_INPUT` or `EXACT_OUTPUT`",
          "tokenIn_": "The swap in token",
          "tokenOut_": "The swap out token"
        }
      },
      "setExchange(uint8,address)": {
        "details": "Use null `exchange_` for removal"
      }
    },
    "stateVariables": {
      "defaultRoutings": {
        "details": "Used to save gas by using a preset routing instead of looking for the best"
      }
    },
    "version": 1
  },
  "userdoc": {
    "events": {
      "DefaultRoutingUpdated(bytes,bytes,bytes)": {
        "notice": "Emitted when default routing is updated"
      },
      "ExchangeUpdated(uint8,address,address)": {
        "notice": "Emitted when an exchange is added"
      },
      "SwapExactInput(address,bytes,address,address,uint256,uint256)": {
        "notice": "Emitted when exact-input swap is executed"
      },
      "SwapExactOutput(address,bytes,address,address,uint256,uint256,uint256)": {
        "notice": "Emitted when exact-output swap is executed"
      }
    },
    "kind": "user",
    "methods": {
      "addressOf(uint8)": {
        "notice": "Mapping of exchanges' addresses by type"
      },
      "defaultRoutings(bytes)": {
        "notice": "Default swap routings"
      },
      "getAllExchanges()": {
        "notice": "The list of supported DEXes"
      },
      "getAmountIn(address,address,uint256)": {
        "notice": "Get *spot* quote It will return the swap amount based on the current reserves of the best pair/path found (i.e. spot price)."
      },
      "getAmountOut(address,address,uint256)": {
        "notice": "Get *spot* quote It will return the swap amount based on the current reserves of the best pair/path found (i.e. spot price)."
      },
      "setDefaultRouting(uint8,address,address,uint8,bytes)": {
        "notice": "Set default routing"
      },
      "setExchange(uint8,address)": {
        "notice": "Add or update exchange"
      },
      "swapExactInput(address,address,uint256,uint256,address)": {
        "notice": "Perform an exact input swap - will revert if there is no default routing"
      },
      "swapExactOutput(address,address,uint256,uint256,address)": {
        "notice": "Perform an exact output swap - will revert if there is no default routing"
      }
    },
    "notice": "Routed Swapper contract This contract execute swaps and quoted using pre-set swap routes",
    "version": 1
  },
  "storageLayout": {
    "storage": [
      {
        "astId": 12732,
        "contract": "contracts/swapper/RoutedSwapper.sol:RoutedSwapper",
        "label": "allExchanges",
        "offset": 0,
        "slot": "0",
        "type": "t_struct(AddressSet)1970_storage"
      },
      {
        "astId": 12738,
        "contract": "contracts/swapper/RoutedSwapper.sol:RoutedSwapper",
        "label": "addressOf",
        "offset": 0,
        "slot": "2",
        "type": "t_mapping(t_enum(ExchangeType)9918,t_address)"
      },
      {
        "astId": 12743,
        "contract": "contracts/swapper/RoutedSwapper.sol:RoutedSwapper",
        "label": "defaultRoutings",
        "offset": 0,
        "slot": "3",
        "type": "t_mapping(t_bytes_memory_ptr,t_bytes_storage)"
      }
    ],
    "types": {
      "t_address": {
        "encoding": "inplace",
        "label": "address",
        "numberOfBytes": "20"
      },
      "t_array(t_bytes32)dyn_storage": {
        "base": "t_bytes32",
        "encoding": "dynamic_array",
        "label": "bytes32[]",
        "numberOfBytes": "32"
      },
      "t_bytes32": {
        "encoding": "inplace",
        "label": "bytes32",
        "numberOfBytes": "32"
      },
      "t_bytes_memory_ptr": {
        "encoding": "bytes",
        "label": "bytes",
        "numberOfBytes": "32"
      },
      "t_bytes_storage": {
        "encoding": "bytes",
        "label": "bytes",
        "numberOfBytes": "32"
      },
      "t_enum(ExchangeType)9918": {
        "encoding": "inplace",
        "label": "enum DataTypes.ExchangeType",
        "numberOfBytes": "1"
      },
      "t_mapping(t_bytes32,t_uint256)": {
        "encoding": "mapping",
        "key": "t_bytes32",
        "label": "mapping(bytes32 => uint256)",
        "numberOfBytes": "32",
        "value": "t_uint256"
      },
      "t_mapping(t_bytes_memory_ptr,t_bytes_storage)": {
        "encoding": "mapping",
        "key": "t_bytes_memory_ptr",
        "label": "mapping(bytes => bytes)",
        "numberOfBytes": "32",
        "value": "t_bytes_storage"
      },
      "t_mapping(t_enum(ExchangeType)9918,t_address)": {
        "encoding": "mapping",
        "key": "t_enum(ExchangeType)9918",
        "label": "mapping(enum DataTypes.ExchangeType => address)",
        "numberOfBytes": "32",
        "value": "t_address"
      },
      "t_struct(AddressSet)1970_storage": {
        "encoding": "inplace",
        "label": "struct EnumerableSet.AddressSet",
        "members": [
          {
            "astId": 1969,
            "contract": "contracts/swapper/RoutedSwapper.sol:RoutedSwapper",
            "label": "_inner",
            "offset": 0,
            "slot": "0",
            "type": "t_struct(Set)1669_storage"
          }
        ],
        "numberOfBytes": "64"
      },
      "t_struct(Set)1669_storage": {
        "encoding": "inplace",
        "label": "struct EnumerableSet.Set",
        "members": [
          {
            "astId": 1664,
            "contract": "contracts/swapper/RoutedSwapper.sol:RoutedSwapper",
            "label": "_values",
            "offset": 0,
            "slot": "0",
            "type": "t_array(t_bytes32)dyn_storage"
          },
          {
            "astId": 1668,
            "contract": "contracts/swapper/RoutedSwapper.sol:RoutedSwapper",
            "label": "_indexes",
            "offset": 0,
            "slot": "1",
            "type": "t_mapping(t_bytes32,t_uint256)"
          }
        ],
        "numberOfBytes": "64"
      },
      "t_uint256": {
        "encoding": "inplace",
        "label": "uint256",
        "numberOfBytes": "32"
      }
    }
  }
}