{
  "address": "0xDa64Ea66D4fBC785fa348c7A9A6b7121E6883bA9",
  "abi": [
    {
      "inputs": [
        {
          "internalType": "address",
          "name": "",
          "type": "address"
        }
      ],
      "name": "getPriceInUsd",
      "outputs": [
        {
          "internalType": "uint256",
          "name": "_priceInUsd",
          "type": "uint256"
        }
      ],
      "stateMutability": "pure",
      "type": "function"
    }
  ],
  "transactionHash": "0x2a8a8ba84e2b640f2ff39f80b54e06abfbacfe582ff0eb1a9383cb426e41fdd8",
  "args": [],
  "numDeployments": 1,
  "solcInputHash": "18c1b999f8d3b2b0f74d28c050605d6c",
  "bytecode": "0x608060405234801561001057600080fd5b5060c88061001f6000396000f3fe6080604052348015600f57600080fd5b506004361060285760003560e01c806307ee40bf14602d575b600080fd5b604560383660046057565b50670de0b6b3a764000090565b60405190815260200160405180910390f35b600060208284031215606857600080fd5b813573ffffffffffffffffffffffffffffffffffffffff81168114608b57600080fd5b939250505056fea26469706673582212200ab136214873400e4746279bbfaabe73fb4b6395540b3561a891183ddd8b0fa264736f6c63430008090033",
  "devdoc": {
    "details": "This oracle shouldn't be used for stable coins! Its purpose is for a specific use case that's the Synth USD token.",
    "kind": "dev",
    "methods": {
      "getPriceInUsd(address)": {
        "params": {
          "token_": "The address of asset"
        },
        "returns": {
          "_priceInUsd": "The USD price"
        }
      }
    },
    "title": "Oracle for USD hard pegged token",
    "version": 1
  },
  "userdoc": {
    "kind": "user",
    "methods": {
      "getPriceInUsd(address)": {
        "notice": "Get USD (or equivalent) price of an asset"
      }
    },
    "version": 1
  },
  "storageLayout": {
    "storage": [],
    "types": null
  }
}