{
  "address": "0x1f278B7EFf04ADd48Ff81ae1a01cBC178b3dD351",
  "abi": [
    {
      "inputs": [
        {
          "internalType": "address",
          "name": "weth_",
          "type": "address"
        }
      ],
      "stateMutability": "nonpayable",
      "type": "constructor"
    },
    {
      "anonymous": false,
      "inputs": [
        {
          "indexed": false,
          "internalType": "address",
          "name": "token",
          "type": "address"
        },
        {
          "indexed": false,
          "internalType": "uint256",
          "name": "oldStalePeriod",
          "type": "uint256"
        },
        {
          "indexed": false,
          "internalType": "uint256",
          "name": "newStalePeriod",
          "type": "uint256"
        }
      ],
      "name": "CustomStalePeriodUpdated",
      "type": "event"
    },
    {
      "anonymous": false,
      "inputs": [
        {
          "indexed": false,
          "internalType": "uint256",
          "name": "oldStalePeriod",
          "type": "uint256"
        },
        {
          "indexed": false,
          "internalType": "uint256",
          "name": "newStalePeriod",
          "type": "uint256"
        }
      ],
      "name": "DefaultStalePeriodUpdated",
      "type": "event"
    },
    {
      "anonymous": false,
      "inputs": [
        {
          "indexed": true,
          "internalType": "address",
          "name": "token",
          "type": "address"
        },
        {
          "indexed": false,
          "internalType": "contract AggregatorV3Interface",
          "name": "ethFeed",
          "type": "address"
        }
      ],
      "name": "EthFeedUpdated",
      "type": "event"
    },
    {
      "inputs": [],
      "name": "WETH",
      "outputs": [
        {
          "internalType": "address",
          "name": "",
          "type": "address"
        }
      ],
      "stateMutability": "view",
      "type": "function"
    },
    {
      "inputs": [],
      "name": "addressProvider",
      "outputs": [
        {
          "internalType": "contract IAddressProvider",
          "name": "",
          "type": "address"
        }
      ],
      "stateMutability": "view",
      "type": "function"
    },
    {
      "inputs": [],
      "name": "defaultStalePeriod",
      "outputs": [
        {
          "internalType": "uint256",
          "name": "",
          "type": "uint256"
        }
      ],
      "stateMutability": "view",
      "type": "function"
    },
    {
      "inputs": [
        {
          "internalType": "address",
          "name": "",
          "type": "address"
        }
      ],
      "name": "ethFeedOf",
      "outputs": [
        {
          "internalType": "contract AggregatorV3Interface",
          "name": "",
          "type": "address"
        }
      ],
      "stateMutability": "view",
      "type": "function"
    },
    {
      "inputs": [
        {
          "internalType": "address",
          "name": "token_",
          "type": "address"
        }
      ],
      "name": "getPriceInUsd",
      "outputs": [
        {
          "internalType": "uint256",
          "name": "_priceInUsd",
          "type": "uint256"
        }
      ],
      "stateMutability": "view",
      "type": "function"
    },
    {
      "inputs": [
        {
          "internalType": "address",
          "name": "token_",
          "type": "address"
        }
      ],
      "name": "stalePeriodOf",
      "outputs": [
        {
          "internalType": "uint256",
          "name": "_stalePeriod",
          "type": "uint256"
        }
      ],
      "stateMutability": "view",
      "type": "function"
    },
    {
      "inputs": [
        {
          "internalType": "address",
          "name": "token_",
          "type": "address"
        },
        {
          "internalType": "uint256",
          "name": "stalePeriod_",
          "type": "uint256"
        }
      ],
      "name": "updateCustomStalePeriod",
      "outputs": [],
      "stateMutability": "nonpayable",
      "type": "function"
    },
    {
      "inputs": [
        {
          "internalType": "uint256",
          "name": "stalePeriod_",
          "type": "uint256"
        }
      ],
      "name": "updateDefaultStalePeriod",
      "outputs": [],
      "stateMutability": "nonpayable",
      "type": "function"
    },
    {
      "inputs": [
        {
          "internalType": "address",
          "name": "token_",
          "type": "address"
        },
        {
          "internalType": "contract AggregatorV3Interface",
          "name": "ethFeed_",
          "type": "address"
        }
      ],
      "name": "updateEthFeed",
      "outputs": [],
      "stateMutability": "nonpayable",
      "type": "function"
    }
  ],
  "transactionHash": "0x3ed9345082e1f07157a1d4aa18193b6a653ce598252aad704baf7777ed22581c",
  "args": [
    "0x4200000000000000000000000000000000000006"
  ],
  "numDeployments": 1,
  "solcInputHash": "d83ca24400d2edb1607a87704d5e61e5",
  "bytecode": "0x60a060405234801561001057600080fd5b50604051610cac380380610cac83398101604081905261002f91610047565b620151806000556001600160a01b0316608052610077565b60006020828403121561005957600080fd5b81516001600160a01b038116811461007057600080fd5b9392505050565b608051610c136100996000396000818161014e01526103300152610c136000f3fe608060405234801561001057600080fd5b50600436106100a35760003560e01c806392e055ec11610076578063bc6d9e381161005b578063bc6d9e3814610170578063cafe465f146101a6578063ec8969bf146101af57600080fd5b806392e055ec14610136578063ad5c46481461014957600080fd5b806307ee40bf146100a85780632954018c146100ce5780636ad7e14b1461010e5780637cf295a014610123575b600080fd5b6100bb6100b63660046109e4565b6101c2565b6040519081526020015b60405180910390f35b6100e973fba0816a81bcabbf3829bed28618177a2bf0e82a81565b60405173ffffffffffffffffffffffffffffffffffffffff90911681526020016100c5565b61012161011c366004610a01565b6103df565b005b610121610131366004610a1a565b61052c565b610121610144366004610a46565b610758565b6100e97f000000000000000000000000000000000000000000000000000000000000000081565b6100e961017e3660046109e4565b60026020526000908152604090205473ffffffffffffffffffffffffffffffffffffffff1681565b6100bb60005481565b6100bb6101bd3660046109e4565b610904565b73ffffffffffffffffffffffffffffffffffffffff8082166000908152600260205260408082205481517ffeaf968c0000000000000000000000000000000000000000000000000000000081529151929384938493929091169163feaf968c9160048083019260a0929190829003018186803b15801561024157600080fd5b505afa158015610255573d6000803e3d6000fd5b505050506040513d601f19601f820116820180604052508101906102799190610a99565b5093505092505060008213801561029757506102958482610939565b155b6102e85760405162461bcd60e51b815260206004820152600d60248201527f70726963652d696e76616c69640000000000000000000000000000000000000060448201526064015b60405180910390fd5b60006102f383610954565b6040517f07ee40bf00000000000000000000000000000000000000000000000000000000815273ffffffffffffffffffffffffffffffffffffffff7f000000000000000000000000000000000000000000000000000000000000000016600482015290915060009033906307ee40bf9060240160206040518083038186803b15801561037e57600080fd5b505afa158015610392573d6000803e3d6000fd5b505050506040513d601f19601f820116820180604052508101906103b69190610ae9565b9050670de0b6b3a76400006103cb8284610b31565b6103d59190610b6e565b9695505050505050565b73fba0816a81bcabbf3829bed28618177a2bf0e82a73ffffffffffffffffffffffffffffffffffffffff16630c340a246040518163ffffffff1660e01b815260040160206040518083038186803b15801561043957600080fd5b505afa15801561044d573d6000803e3d6000fd5b505050506040513d601f19601f820116820180604052508101906104719190610ba9565b73ffffffffffffffffffffffffffffffffffffffff163373ffffffffffffffffffffffffffffffffffffffff16146104eb5760405162461bcd60e51b815260206004820152600c60248201527f6e6f742d676f7665726e6f72000000000000000000000000000000000000000060448201526064016102df565b60005460408051918252602082018390527f2298ab1c5c06d8c35fa98988c0f4a11eabd87ee1f630d5633b8eef025c4fba5c910160405180910390a1600055565b73fba0816a81bcabbf3829bed28618177a2bf0e82a73ffffffffffffffffffffffffffffffffffffffff16630c340a246040518163ffffffff1660e01b815260040160206040518083038186803b15801561058657600080fd5b505afa15801561059a573d6000803e3d6000fd5b505050506040513d601f19601f820116820180604052508101906105be9190610ba9565b73ffffffffffffffffffffffffffffffffffffffff163373ffffffffffffffffffffffffffffffffffffffff16146106385760405162461bcd60e51b815260206004820152600c60248201527f6e6f742d676f7665726e6f72000000000000000000000000000000000000000060448201526064016102df565b73ffffffffffffffffffffffffffffffffffffffff821661069b5760405162461bcd60e51b815260206004820152600d60248201527f746f6b656e2d69732d6e756c6c0000000000000000000000000000000000000060448201526064016102df565b73ffffffffffffffffffffffffffffffffffffffff82166000818152600160209081526040918290205482519384529083015281018290527ff8186f97b3fdb2550b9756b668187a5196e4e023b0090dcdf93bfbb2999fae549060600160405180910390a180156107305773ffffffffffffffffffffffffffffffffffffffff91909116600090815260016020526040902055565b5073ffffffffffffffffffffffffffffffffffffffff16600090815260016020526040812055565b73fba0816a81bcabbf3829bed28618177a2bf0e82a73ffffffffffffffffffffffffffffffffffffffff16630c340a246040518163ffffffff1660e01b815260040160206040518083038186803b1580156107b257600080fd5b505afa1580156107c6573d6000803e3d6000fd5b505050506040513d601f19601f820116820180604052508101906107ea9190610ba9565b73ffffffffffffffffffffffffffffffffffffffff163373ffffffffffffffffffffffffffffffffffffffff16146108645760405162461bcd60e51b815260206004820152600c60248201527f6e6f742d676f7665726e6f72000000000000000000000000000000000000000060448201526064016102df565b60405173ffffffffffffffffffffffffffffffffffffffff82811682528316907fa3faead9d1c711e9154581b2f4e874040321b46356634293b09b29496bb0fba79060200160405180910390a273ffffffffffffffffffffffffffffffffffffffff918216600090815260026020526040902080547fffffffffffffffffffffffff00000000000000000000000000000000000000001691909216179055565b73ffffffffffffffffffffffffffffffffffffffff81166000908152600160205260409020548061093457506000545b919050565b600061094d8261094885610904565b6109aa565b9392505050565b6000808212156109a65760405162461bcd60e51b815260206004820181905260248201527f53616665436173743a2076616c7565206d75737420626520706f73697469766560448201526064016102df565b5090565b6000816109b78442610bc6565b119392505050565b73ffffffffffffffffffffffffffffffffffffffff811681146109e157600080fd5b50565b6000602082840312156109f657600080fd5b813561094d816109bf565b600060208284031215610a1357600080fd5b5035919050565b60008060408385031215610a2d57600080fd5b8235610a38816109bf565b946020939093013593505050565b60008060408385031215610a5957600080fd5b8235610a64816109bf565b91506020830135610a74816109bf565b809150509250929050565b805169ffffffffffffffffffff8116811461093457600080fd5b600080600080600060a08688031215610ab157600080fd5b610aba86610a7f565b9450602086015193506040860151925060608601519150610add60808701610a7f565b90509295509295909350565b600060208284031215610afb57600080fd5b5051919050565b7f4e487b7100000000000000000000000000000000000000000000000000000000600052601160045260246000fd5b6000817fffffffffffffffffffffffffffffffffffffffffffffffffffffffffffffffff0483118215151615610b6957610b69610b02565b500290565b600082610ba4577f4e487b7100000000000000000000000000000000000000000000000000000000600052601260045260246000fd5b500490565b600060208284031215610bbb57600080fd5b815161094d816109bf565b600082821015610bd857610bd8610b02565b50039056fea2646970667358221220ae81450c2816e01418f8ccdac52d6a48e778ca9b50e3e5d5b0f9827012627cd064736f6c63430008090033",
  "devdoc": {
    "kind": "dev",
    "methods": {
      "getPriceInUsd(address)": {
        "params": {
          "token_": "The address of asset"
        },
        "returns": {
          "_priceInUsd": "The USD price"
        }
      },
      "updateCustomStalePeriod(address,uint256)": {
        "details": "Use `0` as `stalePeriod_` to remove custom stale period"
      }
    },
    "title": "Chainlink Oracle for token with ETH-only price feed",
    "version": 1
  },
  "userdoc": {
    "events": {
      "CustomStalePeriodUpdated(address,uint256,uint256)": {
        "notice": "Emitted when custom stale period is updated"
      },
      "DefaultStalePeriodUpdated(uint256,uint256)": {
        "notice": "Emitted when default stale period is updated"
      }
    },
    "kind": "user",
    "methods": {
      "defaultStalePeriod()": {
        "notice": "The default stale period. It's used to determine if a price is invalid (i.e. outdated)"
      },
      "getPriceInUsd(address)": {
        "notice": "Get USD (or equivalent) price of an asset"
      },
      "stalePeriodOf(address)": {
        "notice": "Get stale period of a token"
      },
      "updateCustomStalePeriod(address,uint256)": {
        "notice": "Update custom stale period"
      },
      "updateDefaultStalePeriod(uint256)": {
        "notice": "Update default stale period"
      },
      "updateEthFeed(address,address)": {
        "notice": "Update default stale period"
      }
    },
    "version": 1
  },
  "storageLayout": {
    "storage": [
      {
        "astId": 11761,
        "contract": "contracts/periphery/tokens/ChainlinkEthOnlyTokenOracle.sol:ChainlinkEthOnlyTokenOracle",
        "label": "defaultStalePeriod",
        "offset": 0,
        "slot": "0",
        "type": "t_uint256"
      },
      {
        "astId": 11766,
        "contract": "contracts/periphery/tokens/ChainlinkEthOnlyTokenOracle.sol:ChainlinkEthOnlyTokenOracle",
        "label": "customStalePeriod",
        "offset": 0,
        "slot": "1",
        "type": "t_mapping(t_address,t_uint256)"
      },
      {
        "astId": 16508,
        "contract": "contracts/periphery/tokens/ChainlinkEthOnlyTokenOracle.sol:ChainlinkEthOnlyTokenOracle",
        "label": "ethFeedOf",
        "offset": 0,
        "slot": "2",
        "type": "t_mapping(t_address,t_contract(AggregatorV3Interface)102)"
      }
    ],
    "types": {
      "t_address": {
        "encoding": "inplace",
        "label": "address",
        "numberOfBytes": "20"
      },
      "t_contract(AggregatorV3Interface)102": {
        "encoding": "inplace",
        "label": "contract AggregatorV3Interface",
        "numberOfBytes": "20"
      },
      "t_mapping(t_address,t_contract(AggregatorV3Interface)102)": {
        "encoding": "mapping",
        "key": "t_address",
        "label": "mapping(address => contract AggregatorV3Interface)",
        "numberOfBytes": "32",
        "value": "t_contract(AggregatorV3Interface)102"
      },
      "t_mapping(t_address,t_uint256)": {
        "encoding": "mapping",
        "key": "t_address",
        "label": "mapping(address => uint256)",
        "numberOfBytes": "32",
        "value": "t_uint256"
      },
      "t_uint256": {
        "encoding": "inplace",
        "label": "uint256",
        "numberOfBytes": "32"
      }
    }
  }
}