{
  "address": "0x522040e6738Ac009da4FC11b2aE25aD4C4079ca9",
  "abi": [
    {
      "inputs": [],
      "stateMutability": "nonpayable",
      "type": "constructor"
    },
    {
      "anonymous": false,
      "inputs": [
        {
          "indexed": true,
          "internalType": "address",
          "name": "lpToken",
          "type": "address"
        }
      ],
      "name": "LpRegistered",
      "type": "event"
    },
    {
      "inputs": [],
      "name": "addressProvider",
      "outputs": [
        {
          "internalType": "contract ICurveAddressProvider",
          "name": "",
          "type": "address"
        }
      ],
      "stateMutability": "view",
      "type": "function"
    },
    {
      "inputs": [
        {
          "internalType": "address",
          "name": "lpToken_",
          "type": "address"
        }
      ],
      "name": "getPriceInUsd",
      "outputs": [
        {
          "internalType": "uint256",
          "name": "_priceInUsd",
          "type": "uint256"
        }
      ],
      "stateMutability": "view",
      "type": "function"
    },
    {
      "inputs": [
        {
          "internalType": "address",
          "name": "lpToken_",
          "type": "address"
        }
      ],
      "name": "isLpRegistered",
      "outputs": [
        {
          "internalType": "bool",
          "name": "",
          "type": "bool"
        }
      ],
      "stateMutability": "view",
      "type": "function"
    },
    {
      "inputs": [
        {
          "internalType": "address",
          "name": "lpToken_",
          "type": "address"
        }
      ],
      "name": "registerLp",
      "outputs": [],
      "stateMutability": "nonpayable",
      "type": "function"
    },
    {
      "inputs": [],
      "name": "registry",
      "outputs": [
        {
          "internalType": "contract ICurveFactoryRegistry",
          "name": "",
          "type": "address"
        }
      ],
      "stateMutability": "view",
      "type": "function"
    },
    {
      "inputs": [
        {
          "internalType": "address",
          "name": "",
          "type": "address"
        },
        {
          "internalType": "uint256",
          "name": "",
          "type": "uint256"
        }
      ],
      "name": "underlyingTokens",
      "outputs": [
        {
          "internalType": "address",
          "name": "",
          "type": "address"
        }
      ],
      "stateMutability": "view",
      "type": "function"
    }
  ],
  "transactionHash": "0x1f906b29925382f9a99809b67126d411bb13c01f40f5b7dea734e2f7fc0c0ab7",
  "args": [],
  "numDeployments": 1,
  "solcInputHash": "6560b70d562cf6c2a7aadabeef5e4dc6",
  "bytecode": "0x60a060405234801561001057600080fd5b5060405163124fd3dd60e21b8152600360048201526f22d53366457f9d5e68ec105046fc43839063493f4f749060240160206040518083038186803b15801561005857600080fd5b505afa15801561006c573d6000803e3d6000fd5b505050506040513d601f19601f8201168201806040525081019061009091906100a1565b6001600160a01b03166080526100d1565b6000602082840312156100b357600080fd5b81516001600160a01b03811681146100ca57600080fd5b9392505050565b608051610bd16101006000396000818160f1015281816105ec015281816106b401526107e30152610bd16000f3fe608060405234801561001057600080fd5b50600436106100725760003560e01c80637b103999116100505780637b103999146100ec5780637e3d431914610113578063e27dbd5e1461012857600080fd5b806301eadec41461007757806307ee40bf146100b45780632954018c146100d5575b600080fd5b61008a61008536600461097f565b610170565b60405173ffffffffffffffffffffffffffffffffffffffff90911681526020015b60405180910390f35b6100c76100c23660046109ab565b6101b5565b6040519081526020016100ab565b61008a6f22d53366457f9d5e68ec105046fc438381565b61008a7f000000000000000000000000000000000000000000000000000000000000000081565b6101266101213660046109ab565b610517565b005b6101606101363660046109ab565b73ffffffffffffffffffffffffffffffffffffffff16600090815260208190526040902054151590565b60405190151581526020016100ab565b6000602052816000526040600020818154811061018c57600080fd5b60009182526020909120015473ffffffffffffffffffffffffffffffffffffffff169150829050565b73ffffffffffffffffffffffffffffffffffffffff81166000908152602081815260408083208054825181850281018501909352808352849383018282801561023457602002820191906000526020600020905b815473ffffffffffffffffffffffffffffffffffffffff168152600190910190602001808311610209575b5050505050905060008151116102ab576040517f08c379a000000000000000000000000000000000000000000000000000000000815260206004820152601460248201527f6c702d69732d6e6f742d7265676973746572656400000000000000000000000060448201526064015b60405180910390fd5b80516000199060005b8181101561039d5760003373ffffffffffffffffffffffffffffffffffffffff166307ee40bf8684815181106102ec576102ec6109cf565b60200260200101516040518263ffffffff1660e01b815260040161032c919073ffffffffffffffffffffffffffffffffffffffff91909116815260200190565b60206040518083038186803b15801561034457600080fd5b505afa158015610358573d6000803e3d6000fd5b505050506040513d601f19601f8201168201806040525081019061037c91906109fe565b90508381101561038a578093505b508061039581610a46565b9150506102b4565b506000198210610409576040517f08c379a000000000000000000000000000000000000000000000000000000000815260206004820152601d60248201527f6e6f2d6d696e2d756e6465726c79696e672d70726963652d666f756e6400000060448201526064016102a2565b60008211610473576040517f08c379a000000000000000000000000000000000000000000000000000000000815260206004820152601160248201527f696e76616c69642d6d696e2d707269636500000000000000000000000000000060448201526064016102a2565b670de0b6b3a76400008573ffffffffffffffffffffffffffffffffffffffff1663bb7b8b806040518163ffffffff1660e01b815260040160206040518083038186803b1580156104c257600080fd5b505afa1580156104d6573d6000803e3d6000fd5b505050506040513d601f19601f820116820180604052508101906104fa91906109fe565b6105049084610a61565b61050e9190610a80565b95945050505050565b73ffffffffffffffffffffffffffffffffffffffff8116600090815260208190526040902054156105a4576040517f08c379a000000000000000000000000000000000000000000000000000000000815260206004820152601560248201527f6c702d616c72656164792d72656769737465726564000000000000000000000060448201526064016102a2565b6040517f940494f100000000000000000000000000000000000000000000000000000000815273ffffffffffffffffffffffffffffffffffffffff82811660048301526000917f00000000000000000000000000000000000000000000000000000000000000009091169063940494f19060240160206040518083038186803b15801561063057600080fd5b505afa158015610644573d6000803e3d6000fd5b505050506040513d601f19601f8201168201806040525081019061066891906109fe565b905080610731576040517feb73f37d00000000000000000000000000000000000000000000000000000000815273ffffffffffffffffffffffffffffffffffffffff83811660048301527f0000000000000000000000000000000000000000000000000000000000000000169063eb73f37d90602401604080518083038186803b1580156106f557600080fd5b505afa158015610709573d6000803e3d6000fd5b505050506040513d601f19601f8201168201806040525081019061072d9190610abb565b5090505b6000811161079b576040517f08c379a000000000000000000000000000000000000000000000000000000000815260206004820152601860248201527f696e76616c69642d666163746f72792d6c702d746f6b656e000000000000000060448201526064016102a2565b6040517f9ac90d3d00000000000000000000000000000000000000000000000000000000815273ffffffffffffffffffffffffffffffffffffffff83811660048301526000917f000000000000000000000000000000000000000000000000000000000000000090911690639ac90d3d9060240160806040518083038186803b15801561082757600080fd5b505afa15801561083b573d6000803e3d6000fd5b505050506040513d601f19601f8201168201806040525081019061085f9190610aef565b905060005b828110156109135773ffffffffffffffffffffffffffffffffffffffff841660009081526020819052604090208282600481106108a3576108a36109cf565b6020908102919091015182546001810184556000938452919092200180547fffffffffffffffffffffffff00000000000000000000000000000000000000001673ffffffffffffffffffffffffffffffffffffffff9092169190911790558061090b81610a46565b915050610864565b5060405173ffffffffffffffffffffffffffffffffffffffff8416907f21ebaedd59f317b5de83c2b833f2f8f6e38e5e826f527a827412bce37c93a14890600090a2505050565b73ffffffffffffffffffffffffffffffffffffffff8116811461097c57600080fd5b50565b6000806040838503121561099257600080fd5b823561099d8161095a565b946020939093013593505050565b6000602082840312156109bd57600080fd5b81356109c88161095a565b9392505050565b7f4e487b7100000000000000000000000000000000000000000000000000000000600052603260045260246000fd5b600060208284031215610a1057600080fd5b5051919050565b7f4e487b7100000000000000000000000000000000000000000000000000000000600052601160045260246000fd5b6000600019821415610a5a57610a5a610a17565b5060010190565b6000816000190483118215151615610a7b57610a7b610a17565b500290565b600082610ab6577f4e487b7100000000000000000000000000000000000000000000000000000000600052601260045260246000fd5b500490565b60008060408385031215610ace57600080fd5b505080516020909101519092909150565b8051610aea8161095a565b919050565b600060808284031215610b0157600080fd5b82601f830112610b1057600080fd5b6040516080810181811067ffffffffffffffff82111715610b5a577f4e487b7100000000000000000000000000000000000000000000000000000000600052604160045260246000fd5b604052806080840185811115610b6f57600080fd5b845b81811015610b9057610b8281610adf565b835260209283019201610b71565b50919594505050505056fea2646970667358221220d229c82d6767b1c53327ee053e6c2537beea7d8e7c3261fb86f2b2ee40ebd3a764736f6c63430008090033",
  "devdoc": {
    "kind": "dev",
    "methods": {
      "getPriceInUsd(address)": {
        "params": {
          "token_": "The address of asset"
        },
        "returns": {
          "_priceInUsd": "The USD price"
        }
      },
      "registerLp(address)": {
        "details": "For factory pools, the LP and pool addresses are the same"
      }
    },
    "stateVariables": {
      "addressProvider": {
        "details": "Same address for all chains"
      }
    },
    "title": "Oracle for Curve LP tokens (Factory Pools)",
    "version": 1
  },
  "userdoc": {
    "events": {
      "LpRegistered(address)": {
        "notice": "Emitted when a token is registered"
      }
    },
    "kind": "user",
    "methods": {
      "getPriceInUsd(address)": {
        "notice": "Get USD (or equivalent) price of an asset"
      },
      "isLpRegistered(address)": {
        "notice": "Check if a token is already registered"
      },
      "registerLp(address)": {
        "notice": "Register LP token data"
      },
      "registry()": {
        "notice": "Factory Registry contract"
      },
      "underlyingTokens(address,uint256)": {
        "notice": "LP token => coins mapping"
      }
    },
    "version": 1
  },
  "storageLayout": {
    "storage": [
      {
        "astId": 16356,
        "contract": "contracts/periphery/tokens/CurveFactoryLpTokenOracle.sol:CurveFactoryLpTokenOracle",
        "label": "underlyingTokens",
        "offset": 0,
        "slot": "0",
        "type": "t_mapping(t_address,t_array(t_address)dyn_storage)"
      }
    ],
    "types": {
      "t_address": {
        "encoding": "inplace",
        "label": "address",
        "numberOfBytes": "20"
      },
      "t_array(t_address)dyn_storage": {
        "base": "t_address",
        "encoding": "dynamic_array",
        "label": "address[]",
        "numberOfBytes": "32"
      },
      "t_mapping(t_address,t_array(t_address)dyn_storage)": {
        "encoding": "mapping",
        "key": "t_address",
        "label": "mapping(address => address[])",
        "numberOfBytes": "32",
        "value": "t_array(t_address)dyn_storage"
      }
    }
  }
}