{
  "address": "0xc7eBF549c1454165E385a4C984B499C6e46C3eC7",
  "abi": [
    {
      "inputs": [
        {
          "internalType": "address",
          "name": "weth_",
          "type": "address"
        }
      ],
      "stateMutability": "nonpayable",
      "type": "constructor"
    },
    {
      "anonymous": false,
      "inputs": [
        {
          "indexed": true,
          "internalType": "address",
          "name": "lpToken",
          "type": "address"
        }
      ],
      "name": "LpRegistered",
      "type": "event"
    },
    {
      "inputs": [],
      "name": "addressProvider",
      "outputs": [
        {
          "internalType": "contract ICurveAddressProvider",
          "name": "",
          "type": "address"
        }
      ],
      "stateMutability": "view",
      "type": "function"
    },
    {
      "inputs": [
        {
          "internalType": "address",
          "name": "lpToken_",
          "type": "address"
        }
      ],
      "name": "getPriceInUsd",
      "outputs": [
        {
          "internalType": "uint256",
          "name": "_priceInUsd",
          "type": "uint256"
        }
      ],
      "stateMutability": "view",
      "type": "function"
    },
    {
      "inputs": [
        {
          "internalType": "address",
          "name": "lpToken_",
          "type": "address"
        }
      ],
      "name": "isLpRegistered",
      "outputs": [
        {
          "internalType": "bool",
          "name": "",
          "type": "bool"
        }
      ],
      "stateMutability": "view",
      "type": "function"
    },
    {
      "inputs": [
        {
          "internalType": "address",
          "name": "lpToken_",
          "type": "address"
        }
      ],
      "name": "registerLp",
      "outputs": [],
      "stateMutability": "nonpayable",
      "type": "function"
    },
    {
      "inputs": [],
      "name": "registry",
      "outputs": [
        {
          "internalType": "contract ICurveFactoryRegistry",
          "name": "",
          "type": "address"
        }
      ],
      "stateMutability": "view",
      "type": "function"
    },
    {
      "inputs": [
        {
          "internalType": "address",
          "name": "",
          "type": "address"
        },
        {
          "internalType": "uint256",
          "name": "",
          "type": "uint256"
        }
      ],
      "name": "underlyingTokens",
      "outputs": [
        {
          "internalType": "address",
          "name": "",
          "type": "address"
        }
      ],
      "stateMutability": "view",
      "type": "function"
    }
  ],
  "transactionHash": "0xc3f8e02d20033b692dc99b7b6a68f3810d568fe4c6437cd4d5180cf3fb7dcf0a",
  "args": [
    "0x4200000000000000000000000000000000000006"
  ],
  "numDeployments": 2,
  "solcInputHash": "e266555a8bd48defd80ea00b64fb74e8",
  "bytecode": "0x60c060405234801561001057600080fd5b50604051610e1d380380610e1d83398101604081905261002f91610113565b6001600160a01b0381166100755760405162461bcd60e51b81526020600482015260096024820152680dcead8d85aeecae8d60bb1b604482015260640160405180910390fd5b6001600160a01b03811660a05260405163124fd3dd60e21b8152600360048201526f22d53366457f9d5e68ec105046fc43839063493f4f749060240160206040518083038186803b1580156100c957600080fd5b505afa1580156100dd573d6000803e3d6000fd5b505050506040513d601f19601f820116820180604052508101906101019190610113565b6001600160a01b031660805250610143565b60006020828403121561012557600080fd5b81516001600160a01b038116811461013c57600080fd5b9392505050565b60805160a051610ca161017c600039600061090e01526000818160f1015281816105ec015281816106b401526107e30152610ca16000f3fe608060405234801561001057600080fd5b50600436106100725760003560e01c80637b103999116100505780637b103999146100ec5780637e3d431914610113578063e27dbd5e1461012857600080fd5b806301eadec41461007757806307ee40bf146100b45780632954018c146100d5575b600080fd5b61008a610085366004610a4f565b610170565b60405173ffffffffffffffffffffffffffffffffffffffff90911681526020015b60405180910390f35b6100c76100c2366004610a7b565b6101b5565b6040519081526020016100ab565b61008a6f22d53366457f9d5e68ec105046fc438381565b61008a7f000000000000000000000000000000000000000000000000000000000000000081565b610126610121366004610a7b565b610517565b005b610160610136366004610a7b565b73ffffffffffffffffffffffffffffffffffffffff16600090815260208190526040902054151590565b60405190151581526020016100ab565b6000602052816000526040600020818154811061018c57600080fd5b60009182526020909120015473ffffffffffffffffffffffffffffffffffffffff169150829050565b73ffffffffffffffffffffffffffffffffffffffff81166000908152602081815260408083208054825181850281018501909352808352849383018282801561023457602002820191906000526020600020905b815473ffffffffffffffffffffffffffffffffffffffff168152600190910190602001808311610209575b5050505050905060008151116102ab576040517f08c379a000000000000000000000000000000000000000000000000000000000815260206004820152601460248201527f6c702d69732d6e6f742d7265676973746572656400000000000000000000000060448201526064015b60405180910390fd5b80516000199060005b8181101561039d5760003373ffffffffffffffffffffffffffffffffffffffff166307ee40bf8684815181106102ec576102ec610a9f565b60200260200101516040518263ffffffff1660e01b815260040161032c919073ffffffffffffffffffffffffffffffffffffffff91909116815260200190565b60206040518083038186803b15801561034457600080fd5b505afa158015610358573d6000803e3d6000fd5b505050506040513d601f19601f8201168201806040525081019061037c9190610ace565b90508381101561038a578093505b508061039581610b16565b9150506102b4565b506000198210610409576040517f08c379a000000000000000000000000000000000000000000000000000000000815260206004820152601d60248201527f6e6f2d6d696e2d756e6465726c79696e672d70726963652d666f756e6400000060448201526064016102a2565b60008211610473576040517f08c379a000000000000000000000000000000000000000000000000000000000815260206004820152601160248201527f696e76616c69642d6d696e2d707269636500000000000000000000000000000060448201526064016102a2565b670de0b6b3a76400008573ffffffffffffffffffffffffffffffffffffffff1663bb7b8b806040518163ffffffff1660e01b815260040160206040518083038186803b1580156104c257600080fd5b505afa1580156104d6573d6000803e3d6000fd5b505050506040513d601f19601f820116820180604052508101906104fa9190610ace565b6105049084610b31565b61050e9190610b50565b95945050505050565b73ffffffffffffffffffffffffffffffffffffffff8116600090815260208190526040902054156105a4576040517f08c379a000000000000000000000000000000000000000000000000000000000815260206004820152601560248201527f6c702d616c72656164792d72656769737465726564000000000000000000000060448201526064016102a2565b6040517f940494f100000000000000000000000000000000000000000000000000000000815273ffffffffffffffffffffffffffffffffffffffff82811660048301526000917f00000000000000000000000000000000000000000000000000000000000000009091169063940494f19060240160206040518083038186803b15801561063057600080fd5b505afa158015610644573d6000803e3d6000fd5b505050506040513d601f19601f820116820180604052508101906106689190610ace565b905080610731576040517feb73f37d00000000000000000000000000000000000000000000000000000000815273ffffffffffffffffffffffffffffffffffffffff83811660048301527f0000000000000000000000000000000000000000000000000000000000000000169063eb73f37d90602401604080518083038186803b1580156106f557600080fd5b505afa158015610709573d6000803e3d6000fd5b505050506040513d601f19601f8201168201806040525081019061072d9190610b8b565b5090505b6000811161079b576040517f08c379a000000000000000000000000000000000000000000000000000000000815260206004820152601860248201527f696e76616c69642d666163746f72792d6c702d746f6b656e000000000000000060448201526064016102a2565b6040517f9ac90d3d00000000000000000000000000000000000000000000000000000000815273ffffffffffffffffffffffffffffffffffffffff83811660048301526000917f000000000000000000000000000000000000000000000000000000000000000090911690639ac90d3d9060240160806040518083038186803b15801561082757600080fd5b505afa15801561083b573d6000803e3d6000fd5b505050506040513d601f19601f8201168201806040525081019061085f9190610bbf565b905060005b828110156109e35773eeeeeeeeeeeeeeeeeeeeeeeeeeeeeeeeeeeeeeee82826004811061089357610893610a9f565b602002015173ffffffffffffffffffffffffffffffffffffffff16141561093b5773ffffffffffffffffffffffffffffffffffffffff8481166000908152602081815260408220805460018101825590835291200180547fffffffffffffffffffffffff0000000000000000000000000000000000000000167f00000000000000000000000000000000000000000000000000000000000000009092169190911790556109d1565b73ffffffffffffffffffffffffffffffffffffffff8416600090815260208190526040902082826004811061097257610972610a9f565b6020908102919091015182546001810184556000938452919092200180547fffffffffffffffffffffffff00000000000000000000000000000000000000001673ffffffffffffffffffffffffffffffffffffffff9092169190911790555b806109db81610b16565b915050610864565b5060405173ffffffffffffffffffffffffffffffffffffffff8416907f21ebaedd59f317b5de83c2b833f2f8f6e38e5e826f527a827412bce37c93a14890600090a2505050565b73ffffffffffffffffffffffffffffffffffffffff81168114610a4c57600080fd5b50565b60008060408385031215610a6257600080fd5b8235610a6d81610a2a565b946020939093013593505050565b600060208284031215610a8d57600080fd5b8135610a9881610a2a565b9392505050565b7f4e487b7100000000000000000000000000000000000000000000000000000000600052603260045260246000fd5b600060208284031215610ae057600080fd5b5051919050565b7f4e487b7100000000000000000000000000000000000000000000000000000000600052601160045260246000fd5b6000600019821415610b2a57610b2a610ae7565b5060010190565b6000816000190483118215151615610b4b57610b4b610ae7565b500290565b600082610b86577f4e487b7100000000000000000000000000000000000000000000000000000000600052601260045260246000fd5b500490565b60008060408385031215610b9e57600080fd5b505080516020909101519092909150565b8051610bba81610a2a565b919050565b600060808284031215610bd157600080fd5b82601f830112610be057600080fd5b6040516080810181811067ffffffffffffffff82111715610c2a577f4e487b7100000000000000000000000000000000000000000000000000000000600052604160045260246000fd5b604052806080840185811115610c3f57600080fd5b845b81811015610c6057610c5281610baf565b835260209283019201610c41565b50919594505050505056fea26469706673582212206f229ac83e94bd0678bda497a01fc4ad7954a0e477798cd3f373171e43ad645964736f6c63430008090033",
  "devdoc": {
    "kind": "dev",
    "methods": {
      "getPriceInUsd(address)": {
        "params": {
          "token_": "The address of asset"
        },
        "returns": {
          "_priceInUsd": "The USD price"
        }
      },
      "registerLp(address)": {
        "details": "For factory pools, the LP and pool addresses are the same"
      }
    },
    "stateVariables": {
      "addressProvider": {
        "details": "Same address for all chains"
      }
    },
    "title": "Oracle for Curve LP tokens (Factory Pools)",
    "version": 1
  },
  "userdoc": {
    "events": {
      "LpRegistered(address)": {
        "notice": "Emitted when a token is registered"
      }
    },
    "kind": "user",
    "methods": {
      "getPriceInUsd(address)": {
        "notice": "Get USD (or equivalent) price of an asset"
      },
      "isLpRegistered(address)": {
        "notice": "Check if a token is already registered"
      },
      "registerLp(address)": {
        "notice": "Register LP token data"
      },
      "registry()": {
        "notice": "Factory Registry contract"
      },
      "underlyingTokens(address,uint256)": {
        "notice": "LP token => coins mapping"
      }
    },
    "version": 1
  },
  "storageLayout": {
    "storage": [
      {
        "astId": 478,
        "contract": "contracts/periphery/tokens/CurveFactoryLpTokenOracle.sol:CurveFactoryLpTokenOracle",
        "label": "underlyingTokens",
        "offset": 0,
        "slot": "0",
        "type": "t_mapping(t_address,t_array(t_address)dyn_storage)"
      }
    ],
    "types": {
      "t_address": {
        "encoding": "inplace",
        "label": "address",
        "numberOfBytes": "20"
      },
      "t_array(t_address)dyn_storage": {
        "base": "t_address",
        "encoding": "dynamic_array",
        "label": "address[]",
        "numberOfBytes": "32"
      },
      "t_mapping(t_address,t_array(t_address)dyn_storage)": {
        "encoding": "mapping",
        "key": "t_address",
        "label": "mapping(address => address[])",
        "numberOfBytes": "32",
        "value": "t_array(t_address)dyn_storage"
      }
    }
  }
}