{
  "address": "0xACAd4d26A2E61112aB1bcD86e5e361554437fe3D",
  "abi": [
    {
      "inputs": [
        {
          "internalType": "contract ICurveAddressProvider",
          "name": "curveAddressProvider_",
          "type": "address"
        },
        {
          "internalType": "address",
          "name": "weth_",
          "type": "address"
        }
      ],
      "stateMutability": "nonpayable",
      "type": "constructor"
    },
    {
      "anonymous": false,
      "inputs": [
        {
          "indexed": true,
          "internalType": "address",
          "name": "lpToken",
          "type": "address"
        },
        {
          "indexed": false,
          "internalType": "bool",
          "name": "isLending",
          "type": "bool"
        }
      ],
      "name": "LpRegistered",
      "type": "event"
    },
    {
      "inputs": [],
      "name": "addressProvider",
      "outputs": [
        {
          "internalType": "contract IAddressProvider",
          "name": "",
          "type": "address"
        }
      ],
      "stateMutability": "view",
      "type": "function"
    },
    {
      "inputs": [],
      "name": "curveAddressProvider",
      "outputs": [
        {
          "internalType": "contract ICurveAddressProvider",
          "name": "",
          "type": "address"
        }
      ],
      "stateMutability": "view",
      "type": "function"
    },
    {
      "inputs": [
        {
          "internalType": "address",
          "name": "lpToken_",
          "type": "address"
        }
      ],
      "name": "getPriceInUsd",
      "outputs": [
        {
          "internalType": "uint256",
          "name": "_priceInUsd",
          "type": "uint256"
        }
      ],
      "stateMutability": "view",
      "type": "function"
    },
    {
      "inputs": [
        {
          "internalType": "address",
          "name": "lpToken_",
          "type": "address"
        }
      ],
      "name": "isLpRegistered",
      "outputs": [
        {
          "internalType": "bool",
          "name": "",
          "type": "bool"
        }
      ],
      "stateMutability": "view",
      "type": "function"
    },
    {
      "inputs": [
        {
          "internalType": "address",
          "name": "",
          "type": "address"
        }
      ],
      "name": "poolOf",
      "outputs": [
        {
          "internalType": "address",
          "name": "",
          "type": "address"
        }
      ],
      "stateMutability": "view",
      "type": "function"
    },
    {
      "inputs": [
        {
          "internalType": "address",
          "name": "lpToken_",
          "type": "address"
        }
      ],
      "name": "registerLendingLp",
      "outputs": [],
      "stateMutability": "nonpayable",
      "type": "function"
    },
    {
      "inputs": [
        {
          "internalType": "address",
          "name": "lpToken_",
          "type": "address"
        }
      ],
      "name": "registerLp",
      "outputs": [],
      "stateMutability": "nonpayable",
      "type": "function"
    },
    {
      "inputs": [],
      "name": "registry",
      "outputs": [
        {
          "internalType": "address",
          "name": "",
          "type": "address"
        }
      ],
      "stateMutability": "view",
      "type": "function"
    },
    {
      "inputs": [
        {
          "internalType": "address",
          "name": "",
          "type": "address"
        },
        {
          "internalType": "uint256",
          "name": "",
          "type": "uint256"
        }
      ],
      "name": "underlyingTokens",
      "outputs": [
        {
          "internalType": "address",
          "name": "",
          "type": "address"
        }
      ],
      "stateMutability": "view",
      "type": "function"
    }
  ],
  "transactionHash": "0xce18c6b9f3559e298b8430e9aa5c4123b7bf1edcbc54b063cf10372fdabe80f7",
  "args": [
    "0x0000000022D53366457F9d5E68Ec105046FC4383",
    "0x4200000000000000000000000000000000000006"
  ],
  "numDeployments": 3,
  "solcInputHash": "1c8556a54c6b7d55eaf2d5583fe6e2b9",
  "bytecode": "0x60e06040523480156200001157600080fd5b506040516200113238038062001132833981016040819052620000349162000187565b6001600160a01b038216620000905760405162461bcd60e51b815260206004820152601560248201527f6e756c6c2d616464726573732d70726f7669646572000000000000000000000060448201526064015b60405180910390fd5b6001600160a01b038116620000d45760405162461bcd60e51b81526020600482015260096024820152680dcead8d85aeecae8d60bb1b604482015260640162000087565b6001600160a01b03821660808190526040805163a262904b60e01b8152905163a262904b91600480820192602092909190829003018186803b1580156200011a57600080fd5b505afa1580156200012f573d6000803e3d6000fd5b505050506040513d601f19601f82011682018060405250810190620001559190620001c6565b6001600160a01b0390811660a0521660c05250620001ed565b6001600160a01b03811681146200018457600080fd5b50565b600080604083850312156200019b57600080fd5b8251620001a8816200016e565b6020840151909250620001bb816200016e565b809150509250929050565b600060208284031215620001d957600080fd5b8151620001e6816200016e565b9392505050565b60805160a05160c051610f0e620002246000396000610b530152600081816101400152610796015260006101190152610f0e6000f3fe608060405234801561001057600080fd5b50600436106100a35760003560e01c80637b10399911610076578063988b1fa71161005b578063988b1fa714610177578063e27dbd5e146101a0578063fd182f38146101db57600080fd5b80637b1039991461013b5780637e3d43191461016257600080fd5b806301eadec4146100a857806307ee40bf146100d85780632954018c146100f95780633d6e738814610114575b600080fd5b6100bb6100b6366004610cc2565b6101ee565b6040516001600160a01b0390911681526020015b60405180910390f35b6100eb6100e6366004610cee565b610226565b6040519081526020016100cf565b6100bb73fba0816a81bcabbf3829bed28618177a2bf0e82a81565b6100bb7f000000000000000000000000000000000000000000000000000000000000000081565b6100bb7f000000000000000000000000000000000000000000000000000000000000000081565b610175610170366004610cee565b610519565b005b6100bb610185366004610cee565b6001602052600090815260409020546001600160a01b031681565b6101cb6101ae366004610cee565b6001600160a01b0316600090815260208190526040902054151590565b60405190151581526020016100cf565b6101756101e9366004610cee565b61060c565b6000602052816000526040600020818154811061020a57600080fd5b6000918252602090912001546001600160a01b03169150829050565b6001600160a01b03808216600090815260016020526040812054909116806102955760405162461bcd60e51b815260206004820152601460248201527f6c702d69732d6e6f742d7265676973746572656400000000000000000000000060448201526064015b60405180910390fd5b6001600160a01b038316600090815260208181526040808320805482518185028101850190935280835291929091908301828280156102fd57602002820191906000526020600020905b81546001600160a01b031681526001909101906020018083116102df575b5050835193945060001993925060009150505b818110156103df576000336001600160a01b03166307ee40bf86848151811061033b5761033b610d12565b60200260200101516040518263ffffffff1660e01b815260040161036e91906001600160a01b0391909116815260200190565b60206040518083038186803b15801561038657600080fd5b505afa15801561039a573d6000803e3d6000fd5b505050506040513d601f19601f820116820180604052508101906103be9190610d41565b9050838110156103cc578093505b50806103d781610d89565b915050610310565b5060001982106104315760405162461bcd60e51b815260206004820152601d60248201527f6e6f2d6d696e2d756e6465726c79696e672d70726963652d666f756e64000000604482015260640161028c565b600082116104815760405162461bcd60e51b815260206004820152601160248201527f696e76616c69642d6d696e2d7072696365000000000000000000000000000000604482015260640161028c565b670de0b6b3a7640000846001600160a01b031663bb7b8b806040518163ffffffff1660e01b815260040160206040518083038186803b1580156104c357600080fd5b505afa1580156104d7573d6000803e3d6000fd5b505050506040513d601f19601f820116820180604052508101906104fb9190610d41565b6105059084610da4565b61050f9190610dc3565b9695505050505050565b73fba0816a81bcabbf3829bed28618177a2bf0e82a6001600160a01b0316630c340a246040518163ffffffff1660e01b815260040160206040518083038186803b15801561056657600080fd5b505afa15801561057a573d6000803e3d6000fd5b505050506040513d601f19601f8201168201806040525081019061059e9190610e0e565b6001600160a01b0316336001600160a01b0316146105fe5760405162461bcd60e51b815260206004820152600c60248201527f6e6f742d676f7665726e6f720000000000000000000000000000000000000000604482015260640161028c565b6106098160006106f8565b50565b73fba0816a81bcabbf3829bed28618177a2bf0e82a6001600160a01b0316630c340a246040518163ffffffff1660e01b815260040160206040518083038186803b15801561065957600080fd5b505afa15801561066d573d6000803e3d6000fd5b505050506040513d601f19601f820116820180604052508101906106919190610e0e565b6001600160a01b0316336001600160a01b0316146106f15760405162461bcd60e51b815260206004820152600c60248201527f6e6f742d676f7665726e6f720000000000000000000000000000000000000000604482015260640161028c565b6106098160015b6001600160a01b0382166000908152602081905260409020541561075e5760405162461bcd60e51b815260206004820152601560248201527f6c702d616c72656164792d726567697374657265640000000000000000000000604482015260640161028c565b6040517fbdf475c30000000000000000000000000000000000000000000000000000000081526001600160a01b0383811660048301527f00000000000000000000000000000000000000000000000000000000000000009160009183169063bdf475c39060240160206040518083038186803b1580156107dd57600080fd5b505afa1580156107f1573d6000803e3d6000fd5b505050506040513d601f19601f820116820180604052508101906108159190610e0e565b90506001600160a01b03811661086d5760405162461bcd60e51b815260206004820152601660248201527f696e76616c69642d6e6f6e2d666163746f72792d6c7000000000000000000000604482015260640161028c565b610875610c5c565b8315610915576040517fa77576ef0000000000000000000000000000000000000000000000000000000081526001600160a01b03838116600483015284169063a77576ef906024016101006040518083038186803b1580156108d657600080fd5b505afa1580156108ea573d6000803e3d6000fd5b505050506040513d601f19601f8201168201806040525081019061090e9190610e2b565b90506109ab565b6040517f9ac90d3d0000000000000000000000000000000000000000000000000000000081526001600160a01b038381166004830152841690639ac90d3d906024016101006040518083038186803b15801561097057600080fd5b505afa158015610984573d6000803e3d6000fd5b505050506040513d601f19601f820116820180604052508101906109a89190610e2b565b90505b6001600160a01b0385811660009081526001602052604090205416156109ec576001600160a01b03851660009081526020819052604081206109ec91610c7b565b6001600160a01b0385811660009081526001602052604080822080547fffffffffffffffffffffffff00000000000000000000000000000000000000001686851690811790915590517f940494f10000000000000000000000000000000000000000000000000000000081526004810191909152909185169063940494f19060240160206040518083038186803b158015610a8657600080fd5b505afa158015610a9a573d6000803e3d6000fd5b505050506040513d601f19601f82011682018060405250810190610abe9190610d41565b905060005b81811015610c0e5773eeeeeeeeeeeeeeeeeeeeeeeeeeeeeeeeeeeeeeee838260088110610af257610af2610d12565b60200201516001600160a01b03161415610b80576001600160a01b038781166000908152602081815260408220805460018101825590835291200180547fffffffffffffffffffffffff0000000000000000000000000000000000000000167f0000000000000000000000000000000000000000000000000000000000000000909216919091179055610bfc565b6001600160a01b0387166000908152602081905260409020838260088110610baa57610baa610d12565b6020908102919091015182546001810184556000938452919092200180547fffffffffffffffffffffffff0000000000000000000000000000000000000000166001600160a01b039092169190911790555b80610c0681610d89565b915050610ac3565b50856001600160a01b03167f57d0e2ad10d7bd8ccdedffbc52e5e50ff5314a8d8be6248e7c0d05d4cd81435386604051610c4c911515815260200190565b60405180910390a2505050505050565b6040518061010001604052806008906020820280368337509192915050565b508054600082559060005260206000209081019061060991905b80821115610ca95760008155600101610c95565b5090565b6001600160a01b038116811461060957600080fd5b60008060408385031215610cd557600080fd5b8235610ce081610cad565b946020939093013593505050565b600060208284031215610d0057600080fd5b8135610d0b81610cad565b9392505050565b7f4e487b7100000000000000000000000000000000000000000000000000000000600052603260045260246000fd5b600060208284031215610d5357600080fd5b5051919050565b7f4e487b7100000000000000000000000000000000000000000000000000000000600052601160045260246000fd5b6000600019821415610d9d57610d9d610d5a565b5060010190565b6000816000190483118215151615610dbe57610dbe610d5a565b500290565b600082610df9577f4e487b7100000000000000000000000000000000000000000000000000000000600052601260045260246000fd5b500490565b8051610e0981610cad565b919050565b600060208284031215610e2057600080fd5b8151610d0b81610cad565b6000610100808385031215610e3f57600080fd5b83601f840112610e4e57600080fd5b60405181810181811067ffffffffffffffff82111715610e97577f4e487b7100000000000000000000000000000000000000000000000000000000600052604160045260246000fd5b604052908301908085831115610eac57600080fd5b845b83811015610ecd57610ebf81610dfe565b825260209182019101610eae565b50909594505050505056fea26469706673582212203a57d47cf3a5d7c9c245f6142cba4916799feccdfbc56e1c961a45c247303d0b64736f6c63430008090033",
  "devdoc": {
    "kind": "dev",
    "methods": {
      "getPriceInUsd(address)": {
        "details": "This function is supposed to be called from `MasterOracle` only",
        "params": {
          "token_": "The address of asset"
        },
        "returns": {
          "_priceInUsd": "The USD price"
        }
      }
    },
    "title": "Oracle for Curve LP tokens",
    "version": 1
  },
  "userdoc": {
    "events": {
      "LpRegistered(address,bool)": {
        "notice": "Emitted when a token is registered"
      }
    },
    "kind": "user",
    "methods": {
      "getPriceInUsd(address)": {
        "notice": "Get USD (or equivalent) price of an asset"
      },
      "isLpRegistered(address)": {
        "notice": "Check if a token is already registered"
      },
      "poolOf(address)": {
        "notice": "LP token => pool"
      },
      "registerLendingLp(address)": {
        "notice": "Register LP token data"
      },
      "registerLp(address)": {
        "notice": "Register LP token data"
      },
      "registry()": {
        "notice": "Registry contract"
      },
      "underlyingTokens(address,uint256)": {
        "notice": "LP token => coins mapping"
      }
    },
    "version": 1
  },
  "storageLayout": {
    "storage": [
      {
        "astId": 448,
        "contract": "contracts/periphery/tokens/CurveLpTokenOracle.sol:CurveLpTokenOracle",
        "label": "underlyingTokens",
        "offset": 0,
        "slot": "0",
        "type": "t_mapping(t_address,t_array(t_address)dyn_storage)"
      },
      {
        "astId": 453,
        "contract": "contracts/periphery/tokens/CurveLpTokenOracle.sol:CurveLpTokenOracle",
        "label": "poolOf",
        "offset": 0,
        "slot": "1",
        "type": "t_mapping(t_address,t_address)"
      }
    ],
    "types": {
      "t_address": {
        "encoding": "inplace",
        "label": "address",
        "numberOfBytes": "20"
      },
      "t_array(t_address)dyn_storage": {
        "base": "t_address",
        "encoding": "dynamic_array",
        "label": "address[]",
        "numberOfBytes": "32"
      },
      "t_mapping(t_address,t_address)": {
        "encoding": "mapping",
        "key": "t_address",
        "label": "mapping(address => address)",
        "numberOfBytes": "32",
        "value": "t_address"
      },
      "t_mapping(t_address,t_array(t_address)dyn_storage)": {
        "encoding": "mapping",
        "key": "t_address",
        "label": "mapping(address => address[])",
        "numberOfBytes": "32",
        "value": "t_array(t_address)dyn_storage"
      }
    }
  }
}