{
  "address": "0x7d0DC1ec332512E16Ca5b63A61Db9Ad9Ac9839Dc",
  "abi": [
    {
      "inputs": [
        {
          "internalType": "address",
          "name": "wethLike_",
          "type": "address"
        }
      ],
      "stateMutability": "nonpayable",
      "type": "constructor"
    },
    {
      "inputs": [],
      "name": "POOL_FEE_BPS",
      "outputs": [
        {
          "internalType": "uint24",
          "name": "",
          "type": "uint24"
        }
      ],
      "stateMutability": "view",
      "type": "function"
    },
    {
      "inputs": [],
      "name": "UNISWAP_V3_FACTORY",
      "outputs": [
        {
          "internalType": "address",
          "name": "",
          "type": "address"
        }
      ],
      "stateMutability": "view",
      "type": "function"
    },
    {
      "inputs": [],
      "name": "defaultPoolFee",
      "outputs": [
        {
          "internalType": "uint24",
          "name": "",
          "type": "uint24"
        }
      ],
      "stateMutability": "view",
      "type": "function"
    },
    {
      "inputs": [
        {
          "internalType": "uint256",
          "name": "amountOut_",
          "type": "uint256"
        },
        {
          "internalType": "bytes",
          "name": "path_",
          "type": "bytes"
        }
      ],
      "name": "getAmountsIn",
      "outputs": [
        {
          "internalType": "uint256",
          "name": "_amountIn",
          "type": "uint256"
        }
      ],
      "stateMutability": "nonpayable",
      "type": "function"
    },
    {
      "inputs": [
        {
          "internalType": "uint256",
          "name": "amountIn_",
          "type": "uint256"
        },
        {
          "internalType": "bytes",
          "name": "path_",
          "type": "bytes"
        }
      ],
      "name": "getAmountsOut",
      "outputs": [
        {
          "internalType": "uint256",
          "name": "_amountOut",
          "type": "uint256"
        }
      ],
      "stateMutability": "nonpayable",
      "type": "function"
    },
    {
      "inputs": [
        {
          "internalType": "bytes",
          "name": "path_",
          "type": "bytes"
        },
        {
          "internalType": "uint256",
          "name": "amountIn_",
          "type": "uint256"
        },
        {
          "internalType": "uint256",
          "name": "amountOutMin_",
          "type": "uint256"
        },
        {
          "internalType": "address",
          "name": "outReceiver_",
          "type": "address"
        }
      ],
      "name": "swapExactInput",
      "outputs": [
        {
          "internalType": "uint256",
          "name": "_amountOut",
          "type": "uint256"
        }
      ],
      "stateMutability": "nonpayable",
      "type": "function"
    },
    {
      "inputs": [
        {
          "internalType": "bytes",
          "name": "path_",
          "type": "bytes"
        },
        {
          "internalType": "uint256",
          "name": "amountOut_",
          "type": "uint256"
        },
        {
          "internalType": "uint256",
          "name": "amountInMax_",
          "type": "uint256"
        },
        {
          "internalType": "address",
          "name": "remainingReceiver_",
          "type": "address"
        },
        {
          "internalType": "address",
          "name": "outReceiver_",
          "type": "address"
        }
      ],
      "name": "swapExactOutput",
      "outputs": [
        {
          "internalType": "uint256",
          "name": "_amountIn",
          "type": "uint256"
        }
      ],
      "stateMutability": "nonpayable",
      "type": "function"
    },
    {
      "inputs": [],
      "name": "wethLike",
      "outputs": [
        {
          "internalType": "address",
          "name": "",
          "type": "address"
        }
      ],
      "stateMutability": "view",
      "type": "function"
    }
  ],
  "transactionHash": "0x8b646072c8a8b6b3a17744ff6c3ca30d889fbaef3180ef9cddbcf948e7e9e07e",
  "args": [
    "0x4200000000000000000000000000000000000006"
  ],
  "numDeployments": 1,
  "solcInputHash": "3f700629f3c05da05b55250433de2d74",
  "bytecode": "0x60a06040526000805462ffffff1916610bb817905534801561002057600080fd5b506040516115b13803806115b183398101604081905261003f91610054565b60601b6001600160601b031916608052610082565b600060208284031215610065578081fd5b81516001600160a01b038116811461007b578182fd5b9392505050565b60805160601c61151261009f6000398061012b52506115126000f3fe608060405234801561001057600080fd5b50600436106100885760003560e01c80639d9f384d1161005b5780639d9f384d146100f3578063cd6c787314610106578063f73e5aab1461010e578063fee9574a1461011657610088565b806329dbd9441461008d5780632aa4a9e5146100ab5780634909c29a146100cb5780636f60a6dd146100de575b600080fd5b610095610129565b6040516100a29190611399565b60405180910390f35b6100be6100b936600461124e565b61014d565b6040516100a29190611483565b6100be6100d936600461115d565b6101fe565b6100e661050d565b6040516100a29190611473565b6100be6101013660046111c2565b610518565b6100e661094b565b610095610952565b6100be61012436600461124e565b61096a565b7f000000000000000000000000000000000000000000000000000000000000000081565b6040517f2f80bb1d00000000000000000000000000000000000000000000000000000000815260009073b27308f9f90d607463bb33ea1bebb41c27ce5ab690632f80bb1d906101a29085908790600401611407565b602060405180830381600087803b1580156101bc57600080fd5b505af19250505080156101ec575060408051601f3d908101601f191682019092526101e991810190611236565b60015b6101f5576101f8565b90505b92915050565b6000806040518060a0016040528088888080601f016020809104026020016040519081016040528093929190818152602001838380828437600092018290525093855250505073ffffffffffffffffffffffffffffffffffffffff861660208084019190915242604080850191909152606084018a905260809093018890528251601f8b01829004820281018201909352898352929350916102bb91908a908a90819084018382808284376000920191909152506109bf92505050565b50506040517fdd62ed3e0000000000000000000000000000000000000000000000000000000081529091508190879073ffffffffffffffffffffffffffffffffffffffff83169063dd62ed3e9061032c90309073e592427a0aece92de3edee1f18e0157c05861564906004016113ba565b60206040518083038186803b15801561034457600080fd5b505afa158015610358573d6000803e3d6000fd5b505050506040513d601f19601f8201168201806040525081019061037c9190611236565b101561045e576040517f095ea7b300000000000000000000000000000000000000000000000000000000815273ffffffffffffffffffffffffffffffffffffffff82169063095ea7b39061040a9073e592427a0aece92de3edee1f18e0157c05861564907fffffffffffffffffffffffffffffffffffffffffffffffffffffffffffffffff906004016113e1565b602060405180830381600087803b15801561042457600080fd5b505af1158015610438573d6000803e3d6000fd5b505050506040513d601f19601f8201168201806040525081019061045c919061113d565b505b6040517fc04b8d5900000000000000000000000000000000000000000000000000000000815273e592427a0aece92de3edee1f18e0157c058615649063c04b8d59906104ae908690600401611460565b602060405180830381600087803b1580156104c857600080fd5b505af11580156104dc573d6000803e3d6000fd5b505050506040513d601f19601f820116820180604052508101906105009190611236565b9998505050505050505050565b60005462ffffff1681565b60008061055a88888080601f0160208091040260200160405190810160405280939291908181526020018383808284376000920191909152506109f092505050565b600114156105ab576105a188888080601f0160208091040260200160405190810160405280939291908181526020018383808284376000920191909152506109bf92505050565b50915061065a9050565b6105ea88888080601f0160208091040260200160405190810160405280939291908181526020018383808284376000920191909152506109f092505050565b60021415610639576105a161063489898080601f016020809104026020016040519081016040528093929190818152602001838380828437600092019190915250610a1f92505050565b6109bf565b60405162461bcd60e51b815260040161065190611429565b60405180910390fd5b6040517fdd62ed3e0000000000000000000000000000000000000000000000000000000081528190869073ffffffffffffffffffffffffffffffffffffffff83169063dd62ed3e906106c690309073e592427a0aece92de3edee1f18e0157c05861564906004016113ba565b60206040518083038186803b1580156106de57600080fd5b505afa1580156106f2573d6000803e3d6000fd5b505050506040513d601f19601f820116820180604052508101906107169190611236565b10156107f8576040517f095ea7b300000000000000000000000000000000000000000000000000000000815273ffffffffffffffffffffffffffffffffffffffff82169063095ea7b3906107a49073e592427a0aece92de3edee1f18e0157c05861564907fffffffffffffffffffffffffffffffffffffffffffffffffffffffffffffffff906004016113e1565b602060405180830381600087803b1580156107be57600080fd5b505af11580156107d2573d6000803e3d6000fd5b505050506040513d601f19601f820116820180604052508101906107f6919061113d565b505b6040805160c06020601f8c01819004028201810190925260a081018a81526000928291908d908d908190850183828082843760009201919091525050509082525073ffffffffffffffffffffffffffffffffffffffff8716602082015242604080830191909152606082018b90526080909101899052517ff28c049800000000000000000000000000000000000000000000000000000000815290915073e592427a0aece92de3edee1f18e0157c058615649063f28c0498906108bf908490600401611460565b602060405180830381600087803b1580156108d957600080fd5b505af11580156108ed573d6000803e3d6000fd5b505050506040513d601f19601f820116820180604052508101906109119190611236565b9350838703801561093d5761093d73ffffffffffffffffffffffffffffffffffffffff84168883610a54565b505050509695505050505050565b620f424081565b731f98431c8ad98523631ae4a59f267346ea31f98481565b6040517fcdca175300000000000000000000000000000000000000000000000000000000815260009073b27308f9f90d607463bb33ea1bebb41c27ce5ab69063cdca1753906101a29085908790600401611407565b600080806109cd8482610ae6565b92506109da846014610bb2565b90506109e7846017610ae6565b91509193909250565b805160177fffffffffffffffffffffffffffffffffffffffffffffffffffffffffffffffec909101045b919050565b80516060906101f89083906017907fffffffffffffffffffffffffffffffffffffffffffffffffffffffffffffffe901610c6e565b6040805173ffffffffffffffffffffffffffffffffffffffff8416602482015260448082018490528251808303909101815260649091019091526020810180517bffffffffffffffffffffffffffffffffffffffffffffffffffffffff167fa9059cbb00000000000000000000000000000000000000000000000000000000179052610ae1908490610deb565b505050565b600081826014011015610b40576040805162461bcd60e51b815260206004820152601260248201527f746f416464726573735f6f766572666c6f770000000000000000000000000000604482015290519081900360640190fd5b8160140183511015610b99576040805162461bcd60e51b815260206004820152601560248201527f746f416464726573735f6f75744f66426f756e64730000000000000000000000604482015290519081900360640190fd5b5001602001516c01000000000000000000000000900490565b600081826003011015610c0c576040805162461bcd60e51b815260206004820152601160248201527f746f55696e7432345f6f766572666c6f77000000000000000000000000000000604482015290519081900360640190fd5b8160030183511015610c65576040805162461bcd60e51b815260206004820152601460248201527f746f55696e7432345f6f75744f66426f756e6473000000000000000000000000604482015290519081900360640190fd5b50016003015190565b60608182601f011015610cc8576040805162461bcd60e51b815260206004820152600e60248201527f736c6963655f6f766572666c6f77000000000000000000000000000000000000604482015290519081900360640190fd5b828284011015610d1f576040805162461bcd60e51b815260206004820152600e60248201527f736c6963655f6f766572666c6f77000000000000000000000000000000000000604482015290519081900360640190fd5b81830184511015610d77576040805162461bcd60e51b815260206004820152601160248201527f736c6963655f6f75744f66426f756e6473000000000000000000000000000000604482015290519081900360640190fd5b606082158015610d965760405191506000825260208201604052610de0565b6040519150601f8416801560200281840101858101878315602002848b0101015b81831015610dcf578051835260209283019201610db7565b5050858452601f01601f1916604052505b5090505b9392505050565b6000610e4d826040518060400160405280602081526020017f5361666545524332303a206c6f772d6c6576656c2063616c6c206661696c65648152508573ffffffffffffffffffffffffffffffffffffffff16610ea99092919063ffffffff16565b805190915015610ae157808060200190516020811015610e6c57600080fd5b5051610ae15760405162461bcd60e51b815260040180806020018281038252602a8152602001806114b3602a913960400191505060405180910390fd5b6060610eb88484600085610ec0565b949350505050565b606082471015610f015760405162461bcd60e51b815260040180806020018281038252602681526020018061148d6026913960400191505060405180910390fd5b610f0a85611028565b610f5b576040805162461bcd60e51b815260206004820152601d60248201527f416464726573733a2063616c6c20746f206e6f6e2d636f6e7472616374000000604482015290519081900360640190fd5b6000808673ffffffffffffffffffffffffffffffffffffffff1685876040518082805190602001908083835b60208310610fa65780518252601f199092019160209182019101610f87565b6001836020036101000a03801982511681845116808217855250505050505090500191505060006040518083038185875af1925050503d8060008114611008576040519150601f19603f3d011682016040523d82523d6000602084013e61100d565b606091505b509150915061101d82828661102e565b979650505050505050565b3b151590565b6060831561103d575081610de4565b82511561104d5782518084602001fd5b8160405162461bcd60e51b81526004018080602001828103825283818151815260200191508051906020019080838360005b8381101561109757818101518382015260200161107f565b50505050905090810190601f1680156110c45780820380516001836020036101000a031916815260200191505b509250505060405180910390fd5b803573ffffffffffffffffffffffffffffffffffffffff81168114610a1a57600080fd5b60008083601f840112611107578081fd5b50813567ffffffffffffffff81111561111e578182fd5b60208301915083602082850101111561113657600080fd5b9250929050565b60006020828403121561114e578081fd5b815180151581146101f5578182fd5b600080600080600060808688031215611174578081fd5b853567ffffffffffffffff81111561118a578182fd5b611196888289016110f6565b90965094505060208601359250604086013591506111b6606087016110d2565b90509295509295909350565b60008060008060008060a087890312156111da578081fd5b863567ffffffffffffffff8111156111f0578182fd5b6111fc89828a016110f6565b909750955050602087013593506040870135925061121c606088016110d2565b915061122a608088016110d2565b90509295509295509295565b600060208284031215611247578081fd5b5051919050565b60008060408385031215611260578182fd5b8235915060208084013567ffffffffffffffff8082111561127f578384fd5b818601915086601f830112611292578384fd5b81358181111561129e57fe5b60405184601f19601f84011682010181811084821117156112bb57fe5b60405281815283820185018910156112d1578586fd5b81858501868301378585838301015280955050505050509250929050565b60008151808452815b81811015611314576020818501810151868301820152016112f8565b818111156113255782602083870101525b50601f01601f19169290920160200192915050565b6000815160a0845261134f60a08501826112ef565b905073ffffffffffffffffffffffffffffffffffffffff60208401511660208501526040830151604085015260608301516060850152608083015160808501528091505092915050565b73ffffffffffffffffffffffffffffffffffffffff91909116815260200190565b73ffffffffffffffffffffffffffffffffffffffff92831681529116602082015260400190565b73ffffffffffffffffffffffffffffffffffffffff929092168252602082015260400190565b60006040825261141a60408301856112ef565b90508260208301529392505050565b60208082526013908201527f696e76616c69642d706174682d6c656e67746800000000000000000000000000604082015260600190565b600060208252610de4602083018461133a565b62ffffff91909116815260200190565b9081526020019056fe416464726573733a20696e73756666696369656e742062616c616e636520666f722063616c6c5361666545524332303a204552433230206f7065726174696f6e20646964206e6f742073756363656564a2646970667358221220bedc03b08c5fba12c47c85d9a6142d50bd2b77f8ef8a4a5a78e7a826eaf1f94564736f6c63430007060033",
  "devdoc": {
    "kind": "dev",
    "methods": {
      "constructor": {
        "details": "Doesn't consider router.WETH() as `wethLike` because isn't guaranteed that it's the most liquid token. For instance: On Polygon, the `WETH` is more liquid than `WMATIC` on UniV3 protocol."
      },
      "getAmountsIn(uint256,bytes)": {
        "details": "Returns `0` if reverts"
      },
      "getAmountsOut(uint256,bytes)": {
        "details": "Returns `0` if reverts"
      },
      "swapExactInput(bytes,uint256,uint256,address)": {
        "details": "Should transfer `amountIn_` before performing swap"
      },
      "swapExactOutput(bytes,uint256,uint256,address,address)": {
        "details": "Should transfer `amountInMax_` before performing swapSends swap remains - if any - to the `inSender_`"
      }
    },
    "title": "UniswapV3 Exchange",
    "version": 1
  },
  "userdoc": {
    "kind": "user",
    "methods": {
      "getAmountsIn(uint256,bytes)": {
        "notice": "Wraps `quoter.quoteExactOutput()` function"
      },
      "getAmountsOut(uint256,bytes)": {
        "notice": "Wraps `quoter.quoteExactInput()` function"
      },
      "swapExactInput(bytes,uint256,uint256,address)": {
        "notice": "Perform an exact input swap"
      },
      "swapExactOutput(bytes,uint256,uint256,address,address)": {
        "notice": "Perform an exact output swap"
      }
    },
    "version": 1
  },
  "storageLayout": {
    "storage": [
      {
        "astId": 3316,
        "contract": "contracts/swapper/UniswapV3Exchange.sol:UniswapV3Exchange",
        "label": "defaultPoolFee",
        "offset": 0,
        "slot": "0",
        "type": "t_uint24"
      }
    ],
    "types": {
      "t_uint24": {
        "encoding": "inplace",
        "label": "uint24",
        "numberOfBytes": "3"
      }
    }
  }
}