{
  "address": "0x28b3214684Dc4044e4Eaf7248FbB384192256BB5",
  "abi": [
    {
      "inputs": [
        {
          "internalType": "address",
          "name": "",
          "type": "address"
        }
      ],
      "name": "getPriceInUsd",
      "outputs": [
        {
          "internalType": "uint256",
          "name": "_priceInUsd",
          "type": "uint256"
        }
      ],
      "stateMutability": "pure",
      "type": "function"
    }
  ],
  "transactionHash": "0xcd4362cf120c23889f2156cda1acbc22e9d0ca7c3a40d32eb749a56052e2ab57",
  "args": [],
  "numDeployments": 1,
  "solcInputHash": "6560b70d562cf6c2a7aadabeef5e4dc6",
  "bytecode": "0x608060405234801561001057600080fd5b5060c88061001f6000396000f3fe6080604052348015600f57600080fd5b506004361060285760003560e01c806307ee40bf14602d575b600080fd5b604560383660046057565b50670de0b6b3a764000090565b60405190815260200160405180910390f35b600060208284031215606857600080fd5b813573ffffffffffffffffffffffffffffffffffffffff81168114608b57600080fd5b939250505056fea26469706673582212200ab136214873400e4746279bbfaabe73fb4b6395540b3561a891183ddd8b0fa264736f6c63430008090033",
  "devdoc": {
    "details": "This oracle shouldn't be used for stable coins! Its purpose is for a specific use case that's the Synth USD token.",
    "kind": "dev",
    "methods": {
      "getPriceInUsd(address)": {
        "params": {
          "token_": "The address of asset"
        },
        "returns": {
          "_priceInUsd": "The USD price"
        }
      }
    },
    "title": "Oracle for USD hard pegged token",
    "version": 1
  },
  "userdoc": {
    "kind": "user",
    "methods": {
      "getPriceInUsd(address)": {
        "notice": "Get USD (or equivalent) price of an asset"
      }
    },
    "version": 1
  },
  "storageLayout": {
    "storage": [],
    "types": null
  }
}