{
  "address": "0x8ffC95039a037Dd3D597125339a8B96c08d6DC81",
  "abi": [
    {
      "inputs": [
        {
          "internalType": "contract AggregatorV3Interface",
          "name": "btcAggregator_",
          "type": "address"
        },
        {
          "internalType": "uint256",
          "name": "stalePeriod_",
          "type": "uint256"
        }
      ],
      "stateMutability": "nonpayable",
      "type": "constructor"
    },
    {
      "anonymous": false,
      "inputs": [
        {
          "indexed": false,
          "internalType": "uint8",
          "name": "version",
          "type": "uint8"
        }
      ],
      "name": "Initialized",
      "type": "event"
    },
    {
      "anonymous": false,
      "inputs": [
        {
          "indexed": false,
          "internalType": "uint256",
          "name": "oldStalePeriod",
          "type": "uint256"
        },
        {
          "indexed": false,
          "internalType": "uint256",
          "name": "newStalePeriod",
          "type": "uint256"
        }
      ],
      "name": "StalePeriodUpdated",
      "type": "event"
    },
    {
      "anonymous": false,
      "inputs": [
        {
          "indexed": true,
          "internalType": "address",
          "name": "previousGovernor",
          "type": "address"
        },
        {
          "indexed": true,
          "internalType": "address",
          "name": "proposedGovernor",
          "type": "address"
        }
      ],
      "name": "UpdatedGovernor",
      "type": "event"
    },
    {
      "inputs": [],
      "name": "acceptGovernorship",
      "outputs": [],
      "stateMutability": "nonpayable",
      "type": "function"
    },
    {
      "inputs": [],
      "name": "btcAggregator",
      "outputs": [
        {
          "internalType": "contract AggregatorV3Interface",
          "name": "",
          "type": "address"
        }
      ],
      "stateMutability": "view",
      "type": "function"
    },
    {
      "inputs": [
        {
          "internalType": "address",
          "name": "",
          "type": "address"
        }
      ],
      "name": "getPriceInUsd",
      "outputs": [
        {
          "internalType": "uint256",
          "name": "_priceInUsd",
          "type": "uint256"
        }
      ],
      "stateMutability": "view",
      "type": "function"
    },
    {
      "inputs": [],
      "name": "governor",
      "outputs": [
        {
          "internalType": "address",
          "name": "",
          "type": "address"
        }
      ],
      "stateMutability": "view",
      "type": "function"
    },
    {
      "inputs": [],
      "name": "stalePeriod",
      "outputs": [
        {
          "internalType": "uint256",
          "name": "",
          "type": "uint256"
        }
      ],
      "stateMutability": "view",
      "type": "function"
    },
    {
      "inputs": [
        {
          "internalType": "address",
          "name": "_proposedGovernor",
          "type": "address"
        }
      ],
      "name": "transferGovernorship",
      "outputs": [],
      "stateMutability": "nonpayable",
      "type": "function"
    },
    {
      "inputs": [
        {
          "internalType": "uint256",
          "name": "stalePeriod_",
          "type": "uint256"
        }
      ],
      "name": "updateStalePeriod",
      "outputs": [],
      "stateMutability": "nonpayable",
      "type": "function"
    }
  ],
  "transactionHash": "0xc10697b7a5cc69517dc3357e5fca510e6d2aac3bbcc00105079940e0413b9d42",
  "args": [
    "0x2779D32d5166BAaa2B2b658333bA7e6Ec0C65743",
    3600
  ],
  "numDeployments": 1,
  "solcInputHash": "3b00cb4db1117bcb9429730108fe71c6",
  "bytecode": "0x60a060405234801561001057600080fd5b5060405161084d38038061084d83398101604081905261002f9161008e565b6000805462010000600160b01b03191633620100008102919091178255604051839282917fd4459d5b8b913cab0244230fd9b1c08b6ceace7fe9230e60d0f74cbffdf849d0908290a350600255506001600160a01b03166080526100c8565b600080604083850312156100a157600080fd5b82516001600160a01b03811681146100b857600080fd5b6020939093015192949293505050565b6080516107636100ea60003960008181610129015261015a01526107636000f3fe608060405234801561001057600080fd5b506004361061007d5760003560e01c8063b6aa515b1161005b578063b6aa515b146100fc578063c1a2e32b14610111578063de6338fa14610124578063f3b27bc31461014b57600080fd5b806307ee40bf146100825780630c340a24146100a8578063a5b36a36146100f3575b600080fd5b6100956100903660046105e5565b610153565b6040519081526020015b60405180910390f35b6000546100ce9062010000900473ffffffffffffffffffffffffffffffffffffffff1681565b60405173ffffffffffffffffffffffffffffffffffffffff909116815260200161009f565b61009560025481565b61010f61010a3660046105e5565b610278565b005b61010f61011f366004610622565b610390565b6100ce7f000000000000000000000000000000000000000000000000000000000000000081565b61010f61043f565b60008060007f000000000000000000000000000000000000000000000000000000000000000073ffffffffffffffffffffffffffffffffffffffff1663feaf968c6040518163ffffffff1660e01b815260040160a06040518083038186803b1580156101be57600080fd5b505afa1580156101d2573d6000803e3d6000fd5b505050506040513d601f19601f820116820180604052508101906101f6919061065a565b5093505092505061020681610566565b156102585760405162461bcd60e51b815260206004820152600b60248201527f7374616c652d707269636500000000000000000000000000000000000000000060448201526064015b60405180910390fd5b6102618261057a565b610270906402540be4006106d9565b949350505050565b60005473ffffffffffffffffffffffffffffffffffffffff620100009091041633146102e65760405162461bcd60e51b815260206004820152600c60248201527f6e6f742d676f7665726e6f720000000000000000000000000000000000000000604482015260640161024f565b73ffffffffffffffffffffffffffffffffffffffff81166103495760405162461bcd60e51b815260206004820152601960248201527f70726f706f7365642d676f7665726e6f722d69732d7a65726f00000000000000604482015260640161024f565b600180547fffffffffffffffffffffffff00000000000000000000000000000000000000001673ffffffffffffffffffffffffffffffffffffffff92909216919091179055565b60005473ffffffffffffffffffffffffffffffffffffffff620100009091041633146103fe5760405162461bcd60e51b815260206004820152600c60248201527f6e6f742d676f7665726e6f720000000000000000000000000000000000000000604482015260640161024f565b60025460408051918252602082018390527f1dcb97516840282e793e073fe5a34e75c575d63193a3cbed8fa1930b27df4720910160405180910390a1600255565b60015473ffffffffffffffffffffffffffffffffffffffff1633146104a65760405162461bcd60e51b815260206004820152601960248201527f6e6f742d7468652d70726f706f7365642d676f7665726e6f7200000000000000604482015260640161024f565b6001546000805460405173ffffffffffffffffffffffffffffffffffffffff9384169362010000909204909116917fd4459d5b8b913cab0244230fd9b1c08b6ceace7fe9230e60d0f74cbffdf849d091a360018054600080547fffffffffffffffffffff0000000000000000000000000000000000000000ffff1673ffffffffffffffffffffffffffffffffffffffff831662010000021790557fffffffffffffffffffffffff0000000000000000000000000000000000000000169055565b6000610574826002546105d0565b92915050565b6000808212156105cc5760405162461bcd60e51b815260206004820181905260248201527f53616665436173743a2076616c7565206d75737420626520706f736974697665604482015260640161024f565b5090565b6000816105dd8442610716565b119392505050565b6000602082840312156105f757600080fd5b813573ffffffffffffffffffffffffffffffffffffffff8116811461061b57600080fd5b9392505050565b60006020828403121561063457600080fd5b5035919050565b805169ffffffffffffffffffff8116811461065557600080fd5b919050565b600080600080600060a0868803121561067257600080fd5b61067b8661063b565b945060208601519350604086015192506060860151915061069e6080870161063b565b90509295509295909350565b7f4e487b7100000000000000000000000000000000000000000000000000000000600052601160045260246000fd5b6000817fffffffffffffffffffffffffffffffffffffffffffffffffffffffffffffffff0483118215151615610711576107116106aa565b500290565b600082821015610728576107286106aa565b50039056fea2646970667358221220f9001e69600376c42714b0d0e712bb7234b94765308ac07de821192b2ffc266864736f6c63430008090033",
  "devdoc": {
    "kind": "dev",
    "methods": {
      "acceptGovernorship()": {
        "details": "Allows new governor to accept governorship of the contract."
      },
      "getPriceInUsd(address)": {
        "params": {
          "token_": "The address of asset"
        },
        "returns": {
          "_priceInUsd": "The USD price"
        }
      },
      "transferGovernorship(address)": {
        "details": "Transfers governorship of the contract to a new account (`proposedGovernor`). Can only be called by the current owner."
      }
    },
    "title": "Oracle for BTC-pegged tokens that uses Chainlink's BTC/USD feed",
    "version": 1
  },
  "userdoc": {
    "events": {
      "StalePeriodUpdated(uint256,uint256)": {
        "notice": "Emitted when stale period is updated"
      }
    },
    "kind": "user",
    "methods": {
      "btcAggregator()": {
        "notice": "Chainlink BTC/USD aggregator"
      },
      "getPriceInUsd(address)": {
        "notice": "Get USD (or equivalent) price of an asset"
      },
      "stalePeriod()": {
        "notice": "The stale period. It's used to determine if a price is invalid (i.e. outdated)"
      },
      "updateStalePeriod(uint256)": {
        "notice": "Update stale period"
      }
    },
    "version": 1
  },
  "storageLayout": {
    "storage": [
      {
        "astId": 420,
        "contract": "contracts/periphery/tokens/BTCPeggedTokenOracle.sol:BTCPeggedTokenOracle",
        "label": "_initialized",
        "offset": 0,
        "slot": "0",
        "type": "t_uint8"
      },
      {
        "astId": 423,
        "contract": "contracts/periphery/tokens/BTCPeggedTokenOracle.sol:BTCPeggedTokenOracle",
        "label": "_initializing",
        "offset": 1,
        "slot": "0",
        "type": "t_bool"
      },
      {
        "astId": 6513,
        "contract": "contracts/periphery/tokens/BTCPeggedTokenOracle.sol:BTCPeggedTokenOracle",
        "label": "governor",
        "offset": 2,
        "slot": "0",
        "type": "t_address"
      },
      {
        "astId": 6515,
        "contract": "contracts/periphery/tokens/BTCPeggedTokenOracle.sol:BTCPeggedTokenOracle",
        "label": "proposedGovernor",
        "offset": 0,
        "slot": "1",
        "type": "t_address"
      },
      {
        "astId": 11532,
        "contract": "contracts/periphery/tokens/BTCPeggedTokenOracle.sol:BTCPeggedTokenOracle",
        "label": "stalePeriod",
        "offset": 0,
        "slot": "2",
        "type": "t_uint256"
      }
    ],
    "types": {
      "t_address": {
        "encoding": "inplace",
        "label": "address",
        "numberOfBytes": "20"
      },
      "t_bool": {
        "encoding": "inplace",
        "label": "bool",
        "numberOfBytes": "1"
      },
      "t_uint256": {
        "encoding": "inplace",
        "label": "uint256",
        "numberOfBytes": "32"
      },
      "t_uint8": {
        "encoding": "inplace",
        "label": "uint8",
        "numberOfBytes": "1"
      }
    }
  }
}