{
  "address": "0xc542A4bCDbD814F0073fed2A99C32aa2777866f0",
  "abi": [
    {
      "inputs": [],
      "stateMutability": "nonpayable",
      "type": "constructor"
    },
    {
      "anonymous": false,
      "inputs": [
        {
          "indexed": false,
          "internalType": "address",
          "name": "token",
          "type": "address"
        },
        {
          "indexed": false,
          "internalType": "contract AggregatorV3Interface",
          "name": "oldAggregator",
          "type": "address"
        },
        {
          "indexed": false,
          "internalType": "contract AggregatorV3Interface",
          "name": "newAggregator",
          "type": "address"
        }
      ],
      "name": "AggregatorUpdated",
      "type": "event"
    },
    {
      "anonymous": false,
      "inputs": [
        {
          "indexed": false,
          "internalType": "uint8",
          "name": "version",
          "type": "uint8"
        }
      ],
      "name": "Initialized",
      "type": "event"
    },
    {
      "anonymous": false,
      "inputs": [
        {
          "indexed": true,
          "internalType": "address",
          "name": "previousGovernor",
          "type": "address"
        },
        {
          "indexed": true,
          "internalType": "address",
          "name": "proposedGovernor",
          "type": "address"
        }
      ],
      "name": "UpdatedGovernor",
      "type": "event"
    },
    {
      "inputs": [],
      "name": "CHAINLINK_DECIMALS",
      "outputs": [
        {
          "internalType": "uint256",
          "name": "",
          "type": "uint256"
        }
      ],
      "stateMutability": "view",
      "type": "function"
    },
    {
      "inputs": [],
      "name": "TO_SCALE",
      "outputs": [
        {
          "internalType": "uint256",
          "name": "",
          "type": "uint256"
        }
      ],
      "stateMutability": "view",
      "type": "function"
    },
    {
      "inputs": [],
      "name": "USD_DECIMALS",
      "outputs": [
        {
          "internalType": "uint256",
          "name": "",
          "type": "uint256"
        }
      ],
      "stateMutability": "view",
      "type": "function"
    },
    {
      "inputs": [],
      "name": "acceptGovernorship",
      "outputs": [],
      "stateMutability": "nonpayable",
      "type": "function"
    },
    {
      "inputs": [
        {
          "internalType": "address",
          "name": "",
          "type": "address"
        }
      ],
      "name": "aggregators",
      "outputs": [
        {
          "internalType": "contract AggregatorV3Interface",
          "name": "",
          "type": "address"
        }
      ],
      "stateMutability": "view",
      "type": "function"
    },
    {
      "inputs": [
        {
          "internalType": "address",
          "name": "token_",
          "type": "address"
        }
      ],
      "name": "getPriceInUsd",
      "outputs": [
        {
          "internalType": "uint256",
          "name": "_priceInUsd",
          "type": "uint256"
        },
        {
          "internalType": "uint256",
          "name": "_lastUpdatedAt",
          "type": "uint256"
        }
      ],
      "stateMutability": "view",
      "type": "function"
    },
    {
      "inputs": [],
      "name": "governor",
      "outputs": [
        {
          "internalType": "address",
          "name": "",
          "type": "address"
        }
      ],
      "stateMutability": "view",
      "type": "function"
    },
    {
      "inputs": [
        {
          "internalType": "address",
          "name": "tokenIn_",
          "type": "address"
        },
        {
          "internalType": "address",
          "name": "tokenOut_",
          "type": "address"
        },
        {
          "internalType": "uint256",
          "name": "amountIn_",
          "type": "uint256"
        }
      ],
      "name": "quote",
      "outputs": [
        {
          "internalType": "uint256",
          "name": "_amountOut",
          "type": "uint256"
        },
        {
          "internalType": "uint256",
          "name": "_lastUpdatedAt",
          "type": "uint256"
        }
      ],
      "stateMutability": "view",
      "type": "function"
    },
    {
      "inputs": [
        {
          "internalType": "address",
          "name": "token_",
          "type": "address"
        },
        {
          "internalType": "uint256",
          "name": "amountIn_",
          "type": "uint256"
        }
      ],
      "name": "quoteTokenToUsd",
      "outputs": [
        {
          "internalType": "uint256",
          "name": "_amountOut",
          "type": "uint256"
        },
        {
          "internalType": "uint256",
          "name": "_lastUpdatedAt",
          "type": "uint256"
        }
      ],
      "stateMutability": "view",
      "type": "function"
    },
    {
      "inputs": [
        {
          "internalType": "address",
          "name": "token_",
          "type": "address"
        },
        {
          "internalType": "uint256",
          "name": "amountIn_",
          "type": "uint256"
        }
      ],
      "name": "quoteUsdToToken",
      "outputs": [
        {
          "internalType": "uint256",
          "name": "_amountOut",
          "type": "uint256"
        },
        {
          "internalType": "uint256",
          "name": "_lastUpdatedAt",
          "type": "uint256"
        }
      ],
      "stateMutability": "view",
      "type": "function"
    },
    {
      "inputs": [
        {
          "internalType": "address",
          "name": "_proposedGovernor",
          "type": "address"
        }
      ],
      "name": "transferGovernorship",
      "outputs": [],
      "stateMutability": "nonpayable",
      "type": "function"
    },
    {
      "inputs": [
        {
          "internalType": "address",
          "name": "token_",
          "type": "address"
        },
        {
          "internalType": "contract AggregatorV3Interface",
          "name": "aggregator_",
          "type": "address"
        }
      ],
      "name": "updateAggregator",
      "outputs": [],
      "stateMutability": "nonpayable",
      "type": "function"
    }
  ],
  "transactionHash": "0xe112318ab8922f9a24bd5b6a29c75e3a04e790f49ca73795b5578491984fbbae",
  "args": [],
  "numDeployments": 1,
  "solcInputHash": "3b00cb4db1117bcb9429730108fe71c6",
  "bytecode": "0x60806040523480156200001157600080fd5b506000805462010000600160b01b03191633620100008102919091178255604051909182917fd4459d5b8b913cab0244230fd9b1c08b6ceace7fe9230e60d0f74cbffdf849d0908290a350620000907363a72806098bd3d9520cc43356dd78afe5d386d9733ca13391e9fb38a75330fb28f8cc2eb3d9ceceed620004a6565b620000c4732147efff675e4a4ee1c2f918d181cdbd7a8e208f737b0ca9a6d03fe0467a31ca850f5bca51e027b3af620004a6565b620000f873027dbca046ca156de9622cd1e2d907d375e53aa773cf667fb6bd30c520a435391c50cadcde15e5e12f620004a6565b6200012c7319860ccb0a68fd4213ab9d8266f7bbf05a8dde9873827f8a0dc5c943f7524dda178e2e7f275aad743f620004a6565b6200016073249848beca43ac405b8102ec90dd5f22ca513c06737cf8a6090a9053b01f3df4d4e6cfedd8c90d9027620004a6565b6200019473d586e7f844cea2f87f50152665bcbc2c279d8d707351d7180eda2260cc4f6e4eebb82fef5c3c2b8300620004a6565b620001c8736e84a6216ea6dacc71ee8e6b0a5b7322eebc0fdd7302d35d3a8ac3e1626d3ee09a78dd87286f5e8e3a620004a6565b620001fc735947bb275c521040051d82396192181b413227a37349ccd9ca821efeab2b98c60dc60f518e765ede9a620004a6565b6200023073130966628846bfd36ff31a822705796e8cb8c18d7354edab30a7134a16a54218ae64c73e1daf48a8fb620004a6565b62000264738729438eb15e2c8b576fcc6aecda6a148776c0f57336e039e6391a5e7a7267650979fdf613f659be5d620004a6565b6200029873ce1bffbd5374dac86a2893119683f4911a2f7814734f3ddf9378a4865cf4f28be51e10aecb83b7daee620004a6565b620002cc7337b608519f91f70f2eeb0e5ed9af4061722e4f7673449a373a090d8a1e5f74c63ef831ceff39e94563620004a6565b62000300731c20e891bab6b1727d14da358fae2984ed9b59eb739cf3ef104a973b351b2c032aa6793c3a6f76b448620004a6565b62000334738ebaf22b6f053dffeaf46f4dd9efa95d89ba8580739a1372f9b1b71b3a5a72e092ae67e172dbd7daaa620004a6565b6200036873a7d7079b0fead91f3e65f86e8915cb59c1a4c66473f096872672f44d6eba71458d74fe67f9a77a23b9620004a6565b6200039c73c7198437980c041c805a1edcba50c1ce5db9511873ebe676ee90fe1112671f19b6b7459bc678b67e8a620004a6565b620003d073b31f66aa3c1e785363f0875a1b74e27b85fd66c7730a77230d17318075983913bc2145db16c7366156620004a6565b620004047350b7545627a5162f82a992c33b87adc75187b218732779d32d5166baaa2b2b658333ba7e6ec0c65743620004a6565b620004387349d5c2bdffac6ce2bfdb6640f4f80f226bc10bab73976b3d034e162d8bd72d6b9c989d545b839003b0620004a6565b6200046c73d1c3f94de7e5b45fa4edbba472491a9f4b166fc4734cf57dc9028187b9daaf773c8eca941036989238620004a6565b620004a0739eaac1b23d935365bd7b542fe22ceee2922f52dc7328043b1ebd41860b93ec1f1ec19560760b6db556620004a6565b620005d2565b6001600160a01b03811615806200053457506008816001600160a01b031663313ce5676040518163ffffffff1660e01b815260040160206040518083038186803b158015620004f457600080fd5b505afa15801562000509573d6000803e3d6000fd5b505050506040513d601f19601f820116820180604052508101906200052f9190620005a6565b60ff16145b620005785760405162461bcd60e51b815260206004820152601060248201526f696e76616c69642d646563696d616c7360801b604482015260640160405180910390fd5b6001600160a01b03918216600090815260026020526040902080546001600160a01b03191691909216179055565b600060208284031215620005b957600080fd5b815160ff81168114620005cb57600080fd5b9392505050565b610e0580620005e26000396000f3fe608060405234801561001057600080fd5b50600436106100d45760003560e01c806393d1f99e11610081578063b6aa515b1161005b578063b6aa515b146101f3578063dee7aba414610206578063f3b27bc31461020e57600080fd5b806393d1f99e146101b8578063b5e9bef5146101cd578063b6466384146101e057600080fd5b80632f6ee695116100b25780632f6ee6951461018757806334ec2a3a1461019d5780638d0dba00146101a557600080fd5b806307ee40bf146100d95780630c340a2414610106578063112cdab914610151575b600080fd5b6100ec6100e7366004610ad4565b610216565b604080519283526020830191909152015b60405180910390f35b60005461012c9062010000900473ffffffffffffffffffffffffffffffffffffffff1681565b60405173ffffffffffffffffffffffffffffffffffffffff90911681526020016100fd565b61012c61015f366004610ad4565b60026020526000908152604090205473ffffffffffffffffffffffffffffffffffffffff1681565b61018f601281565b6040519081526020016100fd565b61018f600881565b6100ec6101b3366004610af8565b610351565b6101cb6101c6366004610b24565b61040e565b005b6100ec6101db366004610af8565b6105c1565b6100ec6101ee366004610b5d565b61066b565b6101cb610201366004610ad4565b6106a4565b61018f6107bc565b6101cb6107d6565b73ffffffffffffffffffffffffffffffffffffffff8082166000908152600260205260408120549091829116806102945760405162461bcd60e51b815260206004820152601860248201527f746f6b656e2d776974686f75742d61676772656761746f72000000000000000060448201526064015b60405180910390fd5b60008173ffffffffffffffffffffffffffffffffffffffff1663feaf968c6040518163ffffffff1660e01b815260040160a06040518083038186803b1580156102dc57600080fd5b505afa1580156102f0573d6000803e3d6000fd5b505050506040513d601f19601f820116820180604052508101906103149190610bbd565b50955090925061032a9150600890506012610c3c565b61033590600a610d37565b61033e826108fd565b6103489190610d43565b93505050915091565b600080600061035f85610216565b80935081925050508473ffffffffffffffffffffffffffffffffffffffff1663313ce5676040518163ffffffff1660e01b815260040160206040518083038186803b1580156103ad57600080fd5b505afa1580156103c1573d6000803e3d6000fd5b505050506040513d601f19601f820116820180604052508101906103e59190610d62565b6103f090600a610d85565b6103fa8286610d43565b6104049190610d94565b9250509250929050565b60005473ffffffffffffffffffffffffffffffffffffffff6201000090910416331461047c5760405162461bcd60e51b815260206004820152600c60248201527f6e6f742d676f7665726e6f720000000000000000000000000000000000000000604482015260640161028b565b73ffffffffffffffffffffffffffffffffffffffff82166104df5760405162461bcd60e51b815260206004820152600d60248201527f746f6b656e2d69732d6e756c6c00000000000000000000000000000000000000604482015260640161028b565b73ffffffffffffffffffffffffffffffffffffffff808316600090815260026020526040902054811690821681141561055a5760405162461bcd60e51b815260206004820152600f60248201527f73616d652d61732d63757272656e740000000000000000000000000000000000604482015260640161028b565b6105648383610953565b6040805173ffffffffffffffffffffffffffffffffffffffff8581168252838116602083015284168183015290517f589e912830d38d62f14a6cf3cea8f8a002fc9288b37f0d914b5e7dc107d278bf9181900360600190a1505050565b60008060006105cf85610216565b8093508192505050808573ffffffffffffffffffffffffffffffffffffffff1663313ce5676040518163ffffffff1660e01b815260040160206040518083038186803b15801561061e57600080fd5b505afa158015610632573d6000803e3d6000fd5b505050506040513d601f19601f820116820180604052508101906106569190610d62565b61066190600a610d85565b6103fa9086610d43565b60008060008061067b8786610351565b9150915061068986836105c1565b90945092506106988184610a95565b92505050935093915050565b60005473ffffffffffffffffffffffffffffffffffffffff620100009091041633146107125760405162461bcd60e51b815260206004820152600c60248201527f6e6f742d676f7665726e6f720000000000000000000000000000000000000000604482015260640161028b565b73ffffffffffffffffffffffffffffffffffffffff81166107755760405162461bcd60e51b815260206004820152601960248201527f70726f706f7365642d676f7665726e6f722d69732d7a65726f00000000000000604482015260640161028b565b600180547fffffffffffffffffffffffff00000000000000000000000000000000000000001673ffffffffffffffffffffffffffffffffffffffff92909216919091179055565b6107c860086012610c3c565b6107d390600a610d37565b81565b60015473ffffffffffffffffffffffffffffffffffffffff16331461083d5760405162461bcd60e51b815260206004820152601960248201527f6e6f742d7468652d70726f706f7365642d676f7665726e6f7200000000000000604482015260640161028b565b6001546000805460405173ffffffffffffffffffffffffffffffffffffffff9384169362010000909204909116917fd4459d5b8b913cab0244230fd9b1c08b6ceace7fe9230e60d0f74cbffdf849d091a360018054600080547fffffffffffffffffffff0000000000000000000000000000000000000000ffff1673ffffffffffffffffffffffffffffffffffffffff831662010000021790557fffffffffffffffffffffffff0000000000000000000000000000000000000000169055565b60008082121561094f5760405162461bcd60e51b815260206004820181905260248201527f53616665436173743a2076616c7565206d75737420626520706f736974697665604482015260640161028b565b5090565b73ffffffffffffffffffffffffffffffffffffffff811615806109f6575060088173ffffffffffffffffffffffffffffffffffffffff1663313ce5676040518163ffffffff1660e01b815260040160206040518083038186803b1580156109b957600080fd5b505afa1580156109cd573d6000803e3d6000fd5b505050506040513d601f19601f820116820180604052508101906109f19190610d62565b60ff16145b610a425760405162461bcd60e51b815260206004820152601060248201527f696e76616c69642d646563696d616c7300000000000000000000000000000000604482015260640161028b565b73ffffffffffffffffffffffffffffffffffffffff918216600090815260026020526040902080547fffffffffffffffffffffffff00000000000000000000000000000000000000001691909216179055565b6000818310610aa45781610aa6565b825b90505b92915050565b73ffffffffffffffffffffffffffffffffffffffff81168114610ad157600080fd5b50565b600060208284031215610ae657600080fd5b8135610af181610aaf565b9392505050565b60008060408385031215610b0b57600080fd5b8235610b1681610aaf565b946020939093013593505050565b60008060408385031215610b3757600080fd5b8235610b4281610aaf565b91506020830135610b5281610aaf565b809150509250929050565b600080600060608486031215610b7257600080fd5b8335610b7d81610aaf565b92506020840135610b8d81610aaf565b929592945050506040919091013590565b805169ffffffffffffffffffff81168114610bb857600080fd5b919050565b600080600080600060a08688031215610bd557600080fd5b610bde86610b9e565b9450602086015193506040860151925060608601519150610c0160808701610b9e565b90509295509295909350565b7f4e487b7100000000000000000000000000000000000000000000000000000000600052601160045260246000fd5b600082821015610c4e57610c4e610c0d565b500390565b600181815b80851115610c8e578160001904821115610c7457610c74610c0d565b80851615610c8157918102915b93841c9390800290610c58565b509250929050565b600082610ca557506001610aa9565b81610cb257506000610aa9565b8160018114610cc85760028114610cd257610cee565b6001915050610aa9565b60ff841115610ce357610ce3610c0d565b50506001821b610aa9565b5060208310610133831016604e8410600b8410161715610d11575081810a610aa9565b610d1b8383610c53565b8060001904821115610d2f57610d2f610c0d565b029392505050565b6000610aa68383610c96565b6000816000190483118215151615610d5d57610d5d610c0d565b500290565b600060208284031215610d7457600080fd5b815160ff81168114610af157600080fd5b6000610aa660ff841683610c96565b600082610dca577f4e487b7100000000000000000000000000000000000000000000000000000000600052601260045260246000fd5b50049056fea2646970667358221220d1f43ec35f83cfeda5b66c2d6c648a0b74202c91a38231e2b35f37a29684c1d564736f6c63430008090033",
  "devdoc": {
    "kind": "dev",
    "methods": {
      "acceptGovernorship()": {
        "details": "Allows new governor to accept governorship of the contract."
      },
      "getPriceInUsd(address)": {
        "params": {
          "token_": "The address of asset"
        },
        "returns": {
          "_lastUpdatedAt": "Last updated timestamp",
          "_priceInUsd": "The USD price"
        }
      },
      "quote(address,address,uint256)": {
        "params": {
          "amountIn_": "Amount of input token",
          "tokenIn_": "The address of assetIn",
          "tokenOut_": "The address of assetOut"
        },
        "returns": {
          "_amountOut": "Amount out",
          "_lastUpdatedAt": "Last updated timestamp"
        }
      },
      "quoteTokenToUsd(address,uint256)": {
        "params": {
          "amountIn_": "Amount of input token.",
          "token_": "The address of assetIn"
        },
        "returns": {
          "_amountOut": "Amount in USD",
          "_lastUpdatedAt": "Last updated timestamp"
        }
      },
      "quoteUsdToToken(address,uint256)": {
        "params": {
          "amountIn_": "Input amount in USD",
          "token_": "The address of assetOut"
        },
        "returns": {
          "_amountOut": "Output amount of token",
          "_lastUpdatedAt": "Last updated timestamp"
        }
      },
      "transferGovernorship(address)": {
        "details": "Transfers governorship of the contract to a new account (`proposedGovernor`). Can only be called by the current owner."
      }
    },
    "title": "ChainLink's price provider for Avalanche network",
    "version": 1
  },
  "userdoc": {
    "events": {
      "AggregatorUpdated(address,address,address)": {
        "notice": "Emitted when an aggregator is updated"
      }
    },
    "kind": "user",
    "methods": {
      "aggregators(address)": {
        "notice": "Aggregators map (token => aggregator)"
      },
      "getPriceInUsd(address)": {
        "notice": "Get USD (or equivalent) price of an asset"
      },
      "quote(address,address,uint256)": {
        "notice": "Get quote"
      },
      "quoteTokenToUsd(address,uint256)": {
        "notice": "Get quote in USD (or equivalent) amount"
      },
      "quoteUsdToToken(address,uint256)": {
        "notice": "Get quote from USD (or equivalent) amount to amount of token"
      },
      "updateAggregator(address,address)": {
        "notice": "Update token's aggregator"
      }
    },
    "version": 1
  },
  "storageLayout": {
    "storage": [
      {
        "astId": 420,
        "contract": "contracts/core/ChainlinkAvalanchePriceProvider.sol:ChainlinkAvalanchePriceProvider",
        "label": "_initialized",
        "offset": 0,
        "slot": "0",
        "type": "t_uint8"
      },
      {
        "astId": 423,
        "contract": "contracts/core/ChainlinkAvalanchePriceProvider.sol:ChainlinkAvalanchePriceProvider",
        "label": "_initializing",
        "offset": 1,
        "slot": "0",
        "type": "t_bool"
      },
      {
        "astId": 6513,
        "contract": "contracts/core/ChainlinkAvalanchePriceProvider.sol:ChainlinkAvalanchePriceProvider",
        "label": "governor",
        "offset": 2,
        "slot": "0",
        "type": "t_address"
      },
      {
        "astId": 6515,
        "contract": "contracts/core/ChainlinkAvalanchePriceProvider.sol:ChainlinkAvalanchePriceProvider",
        "label": "proposedGovernor",
        "offset": 0,
        "slot": "1",
        "type": "t_address"
      },
      {
        "astId": 7596,
        "contract": "contracts/core/ChainlinkAvalanchePriceProvider.sol:ChainlinkAvalanchePriceProvider",
        "label": "aggregators",
        "offset": 0,
        "slot": "2",
        "type": "t_mapping(t_address,t_contract(AggregatorV3Interface)102)"
      }
    ],
    "types": {
      "t_address": {
        "encoding": "inplace",
        "label": "address",
        "numberOfBytes": "20"
      },
      "t_bool": {
        "encoding": "inplace",
        "label": "bool",
        "numberOfBytes": "1"
      },
      "t_contract(AggregatorV3Interface)102": {
        "encoding": "inplace",
        "label": "contract AggregatorV3Interface",
        "numberOfBytes": "20"
      },
      "t_mapping(t_address,t_contract(AggregatorV3Interface)102)": {
        "encoding": "mapping",
        "key": "t_address",
        "label": "mapping(address => contract AggregatorV3Interface)",
        "numberOfBytes": "32",
        "value": "t_contract(AggregatorV3Interface)102"
      },
      "t_uint8": {
        "encoding": "inplace",
        "label": "uint8",
        "numberOfBytes": "1"
      }
    }
  }
}