{
  "address": "0x831146fc805dc460fF074A8926B9a5d4D52d5b47",
  "abi": [
    {
      "inputs": [
        {
          "internalType": "contract IOracle",
          "name": "defaultOracle_",
          "type": "address"
        }
      ],
      "stateMutability": "nonpayable",
      "type": "constructor"
    },
    {
      "anonymous": false,
      "inputs": [
        {
          "indexed": true,
          "internalType": "contract IOracle",
          "name": "defaultOracle",
          "type": "address"
        }
      ],
      "name": "DefaultOracleUpdated",
      "type": "event"
    },
    {
      "anonymous": false,
      "inputs": [
        {
          "indexed": false,
          "internalType": "uint8",
          "name": "version",
          "type": "uint8"
        }
      ],
      "name": "Initialized",
      "type": "event"
    },
    {
      "anonymous": false,
      "inputs": [
        {
          "indexed": true,
          "internalType": "address",
          "name": "token",
          "type": "address"
        },
        {
          "indexed": true,
          "internalType": "contract IOracle",
          "name": "oracle",
          "type": "address"
        }
      ],
      "name": "TokenOracleUpdated",
      "type": "event"
    },
    {
      "anonymous": false,
      "inputs": [
        {
          "indexed": true,
          "internalType": "address",
          "name": "previousGovernor",
          "type": "address"
        },
        {
          "indexed": true,
          "internalType": "address",
          "name": "proposedGovernor",
          "type": "address"
        }
      ],
      "name": "UpdatedGovernor",
      "type": "event"
    },
    {
      "inputs": [],
      "name": "acceptGovernorship",
      "outputs": [],
      "stateMutability": "nonpayable",
      "type": "function"
    },
    {
      "inputs": [],
      "name": "defaultOracle",
      "outputs": [
        {
          "internalType": "contract IOracle",
          "name": "",
          "type": "address"
        }
      ],
      "stateMutability": "view",
      "type": "function"
    },
    {
      "inputs": [
        {
          "internalType": "address",
          "name": "token_",
          "type": "address"
        }
      ],
      "name": "getPriceInUsd",
      "outputs": [
        {
          "internalType": "uint256",
          "name": "_priceInUsd",
          "type": "uint256"
        }
      ],
      "stateMutability": "view",
      "type": "function"
    },
    {
      "inputs": [],
      "name": "governor",
      "outputs": [
        {
          "internalType": "address",
          "name": "",
          "type": "address"
        }
      ],
      "stateMutability": "view",
      "type": "function"
    },
    {
      "inputs": [
        {
          "internalType": "address",
          "name": "",
          "type": "address"
        }
      ],
      "name": "oracles",
      "outputs": [
        {
          "internalType": "contract IOracle",
          "name": "",
          "type": "address"
        }
      ],
      "stateMutability": "view",
      "type": "function"
    },
    {
      "inputs": [
        {
          "internalType": "address",
          "name": "tokenIn_",
          "type": "address"
        },
        {
          "internalType": "address",
          "name": "tokenOut_",
          "type": "address"
        },
        {
          "internalType": "uint256",
          "name": "amountIn_",
          "type": "uint256"
        }
      ],
      "name": "quote",
      "outputs": [
        {
          "internalType": "uint256",
          "name": "_amountOut",
          "type": "uint256"
        }
      ],
      "stateMutability": "view",
      "type": "function"
    },
    {
      "inputs": [
        {
          "internalType": "address",
          "name": "token_",
          "type": "address"
        },
        {
          "internalType": "uint256",
          "name": "amountIn_",
          "type": "uint256"
        }
      ],
      "name": "quoteTokenToUsd",
      "outputs": [
        {
          "internalType": "uint256",
          "name": "_amountOut",
          "type": "uint256"
        }
      ],
      "stateMutability": "view",
      "type": "function"
    },
    {
      "inputs": [
        {
          "internalType": "address",
          "name": "token_",
          "type": "address"
        },
        {
          "internalType": "uint256",
          "name": "amountIn_",
          "type": "uint256"
        }
      ],
      "name": "quoteUsdToToken",
      "outputs": [
        {
          "internalType": "uint256",
          "name": "_amountOut",
          "type": "uint256"
        }
      ],
      "stateMutability": "view",
      "type": "function"
    },
    {
      "inputs": [
        {
          "internalType": "address",
          "name": "_proposedGovernor",
          "type": "address"
        }
      ],
      "name": "transferGovernorship",
      "outputs": [],
      "stateMutability": "nonpayable",
      "type": "function"
    },
    {
      "inputs": [
        {
          "internalType": "contract IOracle",
          "name": "defaultOracle_",
          "type": "address"
        }
      ],
      "name": "updateDefaultOracle",
      "outputs": [],
      "stateMutability": "nonpayable",
      "type": "function"
    },
    {
      "inputs": [
        {
          "internalType": "address",
          "name": "token_",
          "type": "address"
        },
        {
          "internalType": "contract IOracle",
          "name": "oracle_",
          "type": "address"
        }
      ],
      "name": "updateTokenOracle",
      "outputs": [],
      "stateMutability": "nonpayable",
      "type": "function"
    }
  ],
  "transactionHash": "0x8a14e6931e4f229e8664e07cdd306fa3169cbaf5f6e215caa0530c350db6100a",
  "args": [
    "0x10061d0593441Ff74536158592e1Be3F4C7B180C"
  ],
  "numDeployments": 1,
  "solcInputHash": "3b00cb4db1117bcb9429730108fe71c6",
  "bytecode": "0x608060405234801561001057600080fd5b50604051610cf5380380610cf583398101604081905261002f9161009e565b6000805462010000600160b01b03191633620100008102919091178255604051909182917fd4459d5b8b913cab0244230fd9b1c08b6ceace7fe9230e60d0f74cbffdf849d0908290a350600280546001600160a01b0319166001600160a01b03929092169190911790556100ce565b6000602082840312156100b057600080fd5b81516001600160a01b03811681146100c757600080fd5b9392505050565b610c18806100dd6000396000f3fe608060405234801561001057600080fd5b50600436106100c95760003560e01c8063addd509911610081578063b6aa515b1161005b578063b6aa515b146101e3578063c1934d9b146101f6578063f3b27bc31461020957600080fd5b8063addd509914610187578063b5e9bef5146101bd578063b6466384146101d057600080fd5b80633e797970116100b25780633e7979701461013f57806380dce169146101545780638d0dba001461017457600080fd5b806307ee40bf146100ce5780630c340a24146100f4575b600080fd5b6100e16100dc366004610965565b610211565b6040519081526020015b60405180910390f35b60005461011a9062010000900473ffffffffffffffffffffffffffffffffffffffff1681565b60405173ffffffffffffffffffffffffffffffffffffffff90911681526020016100eb565b61015261014d366004610965565b6103e6565b005b60025461011a9073ffffffffffffffffffffffffffffffffffffffff1681565b6100e1610182366004610982565b6104c3565b61011a610195366004610965565b60036020526000908152604090205473ffffffffffffffffffffffffffffffffffffffff1681565b6100e16101cb366004610982565b61056b565b6100e16101de3660046109ae565b6105ff565b6101526101f1366004610965565b610617565b6101526102043660046109ef565b61072f565b610152610819565b73ffffffffffffffffffffffffffffffffffffffff808216600090815260036020526040812054909116806102ea576002546040517f07ee40bf00000000000000000000000000000000000000000000000000000000815273ffffffffffffffffffffffffffffffffffffffff8581166004830152909116906307ee40bf9060240160206040518083038186803b1580156102ab57600080fd5b505afa1580156102bf573d6000803e3d6000fd5b505050506040513d601f19601f820116820180604052508101906102e39190610a28565b9392505050565b6040517f07ee40bf00000000000000000000000000000000000000000000000000000000815273ffffffffffffffffffffffffffffffffffffffff84811660048301528216906307ee40bf9060240160206040518083038186803b15801561035157600080fd5b505afa158015610365573d6000803e3d6000fd5b505050506040513d601f19601f820116820180604052508101906103899190610a28565b9150600082116103e05760405162461bcd60e51b815260206004820152601360248201527f696e76616c69642d746f6b656e2d70726963650000000000000000000000000060448201526064015b60405180910390fd5b50919050565b60005473ffffffffffffffffffffffffffffffffffffffff620100009091041633146104545760405162461bcd60e51b815260206004820152600c60248201527f6e6f742d676f7665726e6f72000000000000000000000000000000000000000060448201526064016103d7565b600280547fffffffffffffffffffffffff00000000000000000000000000000000000000001673ffffffffffffffffffffffffffffffffffffffff83169081179091556040517f1bc296d82f6c12b9613275344793ebdb1c8ed5dca91d1699898b5c9adf1e997890600090a250565b60008273ffffffffffffffffffffffffffffffffffffffff1663313ce5676040518163ffffffff1660e01b815260040160206040518083038186803b15801561050b57600080fd5b505afa15801561051f573d6000803e3d6000fd5b505050506040513d601f19601f820116820180604052508101906105439190610a41565b61054e90600a610b79565b61055784610211565b6105619084610b88565b6102e39190610ba7565b600061057683610211565b8373ffffffffffffffffffffffffffffffffffffffff1663313ce5676040518163ffffffff1660e01b815260040160206040518083038186803b1580156105bc57600080fd5b505afa1580156105d0573d6000803e3d6000fd5b505050506040513d601f19601f820116820180604052508101906105f49190610a41565b61055790600a610b79565b600061060f836101cb86856104c3565b949350505050565b60005473ffffffffffffffffffffffffffffffffffffffff620100009091041633146106855760405162461bcd60e51b815260206004820152600c60248201527f6e6f742d676f7665726e6f72000000000000000000000000000000000000000060448201526064016103d7565b73ffffffffffffffffffffffffffffffffffffffff81166106e85760405162461bcd60e51b815260206004820152601960248201527f70726f706f7365642d676f7665726e6f722d69732d7a65726f0000000000000060448201526064016103d7565b600180547fffffffffffffffffffffffff00000000000000000000000000000000000000001673ffffffffffffffffffffffffffffffffffffffff92909216919091179055565b60005473ffffffffffffffffffffffffffffffffffffffff6201000090910416331461079d5760405162461bcd60e51b815260206004820152600c60248201527f6e6f742d676f7665726e6f72000000000000000000000000000000000000000060448201526064016103d7565b73ffffffffffffffffffffffffffffffffffffffff82811660008181526003602052604080822080547fffffffffffffffffffffffff0000000000000000000000000000000000000000169486169485179055517f38af5c16b8276594303df55e002ec2a4e461e676aa19663bcb1ff9e1823acdf79190a35050565b60015473ffffffffffffffffffffffffffffffffffffffff1633146108805760405162461bcd60e51b815260206004820152601960248201527f6e6f742d7468652d70726f706f7365642d676f7665726e6f720000000000000060448201526064016103d7565b6001546000805460405173ffffffffffffffffffffffffffffffffffffffff9384169362010000909204909116917fd4459d5b8b913cab0244230fd9b1c08b6ceace7fe9230e60d0f74cbffdf849d091a360018054600080547fffffffffffffffffffff0000000000000000000000000000000000000000ffff1673ffffffffffffffffffffffffffffffffffffffff831662010000021790557fffffffffffffffffffffffff0000000000000000000000000000000000000000169055565b73ffffffffffffffffffffffffffffffffffffffff8116811461096257600080fd5b50565b60006020828403121561097757600080fd5b81356102e381610940565b6000806040838503121561099557600080fd5b82356109a081610940565b946020939093013593505050565b6000806000606084860312156109c357600080fd5b83356109ce81610940565b925060208401356109de81610940565b929592945050506040919091013590565b60008060408385031215610a0257600080fd5b8235610a0d81610940565b91506020830135610a1d81610940565b809150509250929050565b600060208284031215610a3a57600080fd5b5051919050565b600060208284031215610a5357600080fd5b815160ff811681146102e357600080fd5b7f4e487b7100000000000000000000000000000000000000000000000000000000600052601160045260246000fd5b600181815b80851115610ace578160001904821115610ab457610ab4610a64565b80851615610ac157918102915b93841c9390800290610a98565b509250929050565b600082610ae557506001610b73565b81610af257506000610b73565b8160018114610b085760028114610b1257610b2e565b6001915050610b73565b60ff841115610b2357610b23610a64565b50506001821b610b73565b5060208310610133831016604e8410600b8410161715610b51575081810a610b73565b610b5b8383610a93565b8060001904821115610b6f57610b6f610a64565b0290505b92915050565b60006102e360ff841683610ad6565b6000816000190483118215151615610ba257610ba2610a64565b500290565b600082610bdd577f4e487b7100000000000000000000000000000000000000000000000000000000600052601260045260246000fd5b50049056fea26469706673582212202b314c6617d145df08f378b28772a12f4b43191f8477421a1502d503a640cb8264736f6c63430008090033",
  "devdoc": {
    "kind": "dev",
    "methods": {
      "acceptGovernorship()": {
        "details": "Allows new governor to accept governorship of the contract."
      },
      "getPriceInUsd(address)": {
        "params": {
          "token_": "The address of asset"
        },
        "returns": {
          "_priceInUsd": "The USD price"
        }
      },
      "quote(address,address,uint256)": {
        "params": {
          "amountIn_": "Amount of input token",
          "tokenIn_": "The address of assetIn",
          "tokenOut_": "The address of assetOut"
        },
        "returns": {
          "_amountOut": "Amount out"
        }
      },
      "quoteTokenToUsd(address,uint256)": {
        "params": {
          "amountIn_": "Amount of input token.",
          "token_": "The address of assetIn"
        },
        "returns": {
          "_amountOut": "Amount in USD"
        }
      },
      "quoteUsdToToken(address,uint256)": {
        "params": {
          "amountIn_": "Input amount in USD",
          "token_": "The address of assetOut"
        },
        "returns": {
          "_amountOut": "Output amount of token"
        }
      },
      "transferGovernorship(address)": {
        "details": "Transfers governorship of the contract to a new account (`proposedGovernor`). Can only be called by the current owner."
      }
    },
    "stateVariables": {
      "oracles": {
        "details": "Useful when dealing with special tokens (e.g. LP, IB, etc)"
      }
    },
    "title": "MasterOracle",
    "version": 1
  },
  "userdoc": {
    "events": {
      "DefaultOracleUpdated(address)": {
        "notice": "Emitted when the default oracle is updated"
      },
      "TokenOracleUpdated(address,address)": {
        "notice": "Emitted when a token's oracle is set"
      }
    },
    "kind": "user",
    "methods": {
      "defaultOracle()": {
        "notice": "Default oracle to use when token hasn't custom oracle"
      },
      "getPriceInUsd(address)": {
        "notice": "Get USD (or equivalent) price of an asset"
      },
      "oracles(address)": {
        "notice": "Custom tokens' oracles"
      },
      "quote(address,address,uint256)": {
        "notice": "Get quote"
      },
      "quoteTokenToUsd(address,uint256)": {
        "notice": "Get quote in USD (or equivalent) amount"
      },
      "quoteUsdToToken(address,uint256)": {
        "notice": "Get quote from USD (or equivalent) amount to amount of token"
      },
      "updateDefaultOracle(address)": {
        "notice": "Update the default oracle"
      },
      "updateTokenOracle(address,address)": {
        "notice": "Set custom oracle for a token_"
      }
    },
    "version": 1
  },
  "storageLayout": {
    "storage": [
      {
        "astId": 420,
        "contract": "contracts/periphery/MasterOracle.sol:MasterOracle",
        "label": "_initialized",
        "offset": 0,
        "slot": "0",
        "type": "t_uint8"
      },
      {
        "astId": 423,
        "contract": "contracts/periphery/MasterOracle.sol:MasterOracle",
        "label": "_initializing",
        "offset": 1,
        "slot": "0",
        "type": "t_bool"
      },
      {
        "astId": 6513,
        "contract": "contracts/periphery/MasterOracle.sol:MasterOracle",
        "label": "governor",
        "offset": 2,
        "slot": "0",
        "type": "t_address"
      },
      {
        "astId": 6515,
        "contract": "contracts/periphery/MasterOracle.sol:MasterOracle",
        "label": "proposedGovernor",
        "offset": 0,
        "slot": "1",
        "type": "t_address"
      },
      {
        "astId": 14367,
        "contract": "contracts/periphery/MasterOracle.sol:MasterOracle",
        "label": "defaultOracle",
        "offset": 0,
        "slot": "2",
        "type": "t_contract(IOracle)12676"
      },
      {
        "astId": 14373,
        "contract": "contracts/periphery/MasterOracle.sol:MasterOracle",
        "label": "oracles",
        "offset": 0,
        "slot": "3",
        "type": "t_mapping(t_address,t_contract(IOracle)12676)"
      }
    ],
    "types": {
      "t_address": {
        "encoding": "inplace",
        "label": "address",
        "numberOfBytes": "20"
      },
      "t_bool": {
        "encoding": "inplace",
        "label": "bool",
        "numberOfBytes": "1"
      },
      "t_contract(IOracle)12676": {
        "encoding": "inplace",
        "label": "contract IOracle",
        "numberOfBytes": "20"
      },
      "t_mapping(t_address,t_contract(IOracle)12676)": {
        "encoding": "mapping",
        "key": "t_address",
        "label": "mapping(address => contract IOracle)",
        "numberOfBytes": "32",
        "value": "t_contract(IOracle)12676"
      },
      "t_uint8": {
        "encoding": "inplace",
        "label": "uint8",
        "numberOfBytes": "1"
      }
    }
  }
}