{
  "address": "0xd71Bb8e10b2d200Dd935a6c95699E18de2bBE013",
  "abi": [
    {
      "inputs": [
        {
          "internalType": "address",
          "name": "nativeToken_",
          "type": "address"
        }
      ],
      "stateMutability": "nonpayable",
      "type": "constructor"
    },
    {
      "anonymous": false,
      "inputs": [
        {
          "indexed": false,
          "internalType": "uint8",
          "name": "version",
          "type": "uint8"
        }
      ],
      "name": "Initialized",
      "type": "event"
    },
    {
      "anonymous": false,
      "inputs": [
        {
          "indexed": false,
          "internalType": "enum DataTypes.Provider",
          "name": "provider",
          "type": "uint8"
        },
        {
          "indexed": false,
          "internalType": "contract IPriceProvider",
          "name": "oldPriceProvider",
          "type": "address"
        },
        {
          "indexed": false,
          "internalType": "contract IPriceProvider",
          "name": "newPriceProvider",
          "type": "address"
        }
      ],
      "name": "PriceProviderUpdated",
      "type": "event"
    },
    {
      "anonymous": false,
      "inputs": [
        {
          "indexed": true,
          "internalType": "address",
          "name": "previousGovernor",
          "type": "address"
        },
        {
          "indexed": true,
          "internalType": "address",
          "name": "proposedGovernor",
          "type": "address"
        }
      ],
      "name": "UpdatedGovernor",
      "type": "event"
    },
    {
      "inputs": [],
      "name": "acceptGovernorship",
      "outputs": [],
      "stateMutability": "nonpayable",
      "type": "function"
    },
    {
      "inputs": [
        {
          "internalType": "enum DataTypes.Provider",
          "name": "provider_",
          "type": "uint8"
        },
        {
          "internalType": "address",
          "name": "token_",
          "type": "address"
        }
      ],
      "name": "getPriceInUsd",
      "outputs": [
        {
          "internalType": "uint256",
          "name": "_priceInUsd",
          "type": "uint256"
        },
        {
          "internalType": "uint256",
          "name": "_lastUpdatedAt",
          "type": "uint256"
        }
      ],
      "stateMutability": "view",
      "type": "function"
    },
    {
      "inputs": [],
      "name": "governor",
      "outputs": [
        {
          "internalType": "address",
          "name": "",
          "type": "address"
        }
      ],
      "stateMutability": "view",
      "type": "function"
    },
    {
      "inputs": [],
      "name": "nativeToken",
      "outputs": [
        {
          "internalType": "address",
          "name": "",
          "type": "address"
        }
      ],
      "stateMutability": "view",
      "type": "function"
    },
    {
      "inputs": [
        {
          "internalType": "enum DataTypes.Provider",
          "name": "",
          "type": "uint8"
        }
      ],
      "name": "priceProviders",
      "outputs": [
        {
          "internalType": "contract IPriceProvider",
          "name": "",
          "type": "address"
        }
      ],
      "stateMutability": "view",
      "type": "function"
    },
    {
      "inputs": [
        {
          "internalType": "enum DataTypes.Provider",
          "name": "provider_",
          "type": "uint8"
        },
        {
          "internalType": "address",
          "name": "tokenIn_",
          "type": "address"
        },
        {
          "internalType": "address",
          "name": "tokenOut_",
          "type": "address"
        },
        {
          "internalType": "uint256",
          "name": "amountIn_",
          "type": "uint256"
        }
      ],
      "name": "quote",
      "outputs": [
        {
          "internalType": "uint256",
          "name": "_amountOut",
          "type": "uint256"
        },
        {
          "internalType": "uint256",
          "name": "_lastUpdatedAt",
          "type": "uint256"
        }
      ],
      "stateMutability": "view",
      "type": "function"
    },
    {
      "inputs": [
        {
          "internalType": "enum DataTypes.Provider",
          "name": "providerIn_",
          "type": "uint8"
        },
        {
          "internalType": "address",
          "name": "tokenIn_",
          "type": "address"
        },
        {
          "internalType": "enum DataTypes.Provider",
          "name": "providerOut_",
          "type": "uint8"
        },
        {
          "internalType": "address",
          "name": "tokenOut_",
          "type": "address"
        },
        {
          "internalType": "uint256",
          "name": "amountIn_",
          "type": "uint256"
        }
      ],
      "name": "quote",
      "outputs": [
        {
          "internalType": "uint256",
          "name": "_amountOut",
          "type": "uint256"
        },
        {
          "internalType": "uint256",
          "name": "_lastUpdatedAt",
          "type": "uint256"
        }
      ],
      "stateMutability": "view",
      "type": "function"
    },
    {
      "inputs": [
        {
          "internalType": "enum DataTypes.Provider",
          "name": "provider_",
          "type": "uint8"
        },
        {
          "internalType": "address",
          "name": "token_",
          "type": "address"
        },
        {
          "internalType": "uint256",
          "name": "amountIn_",
          "type": "uint256"
        }
      ],
      "name": "quoteTokenToUsd",
      "outputs": [
        {
          "internalType": "uint256",
          "name": "amountOut_",
          "type": "uint256"
        },
        {
          "internalType": "uint256",
          "name": "_lastUpdatedAt",
          "type": "uint256"
        }
      ],
      "stateMutability": "view",
      "type": "function"
    },
    {
      "inputs": [
        {
          "internalType": "enum DataTypes.Provider",
          "name": "provider_",
          "type": "uint8"
        },
        {
          "internalType": "address",
          "name": "token_",
          "type": "address"
        },
        {
          "internalType": "uint256",
          "name": "amountIn_",
          "type": "uint256"
        }
      ],
      "name": "quoteUsdToToken",
      "outputs": [
        {
          "internalType": "uint256",
          "name": "_amountOut",
          "type": "uint256"
        },
        {
          "internalType": "uint256",
          "name": "_lastUpdatedAt",
          "type": "uint256"
        }
      ],
      "stateMutability": "view",
      "type": "function"
    },
    {
      "inputs": [
        {
          "internalType": "enum DataTypes.Provider",
          "name": "provider_",
          "type": "uint8"
        },
        {
          "internalType": "contract IPriceProvider",
          "name": "priceProvider_",
          "type": "address"
        }
      ],
      "name": "setPriceProvider",
      "outputs": [],
      "stateMutability": "nonpayable",
      "type": "function"
    },
    {
      "inputs": [
        {
          "internalType": "address",
          "name": "_proposedGovernor",
          "type": "address"
        }
      ],
      "name": "transferGovernorship",
      "outputs": [],
      "stateMutability": "nonpayable",
      "type": "function"
    }
  ],
  "transactionHash": "0xb4d1fff6770c96ba00f9035d38a7bcc3ba4a19557a9ad16e4d70d921f323b422",
  "args": [
    "0xB31f66AA3C1e785363F0875A1B74E27b85FD66c7"
  ],
  "numDeployments": 1,
  "solcInputHash": "3b00cb4db1117bcb9429730108fe71c6",
  "bytecode": "0x60a060405234801561001057600080fd5b506040516111d93803806111d983398101604081905261002f916100e4565b6000805462010000600160b01b03191633620100008102919091178255604051909182917fd4459d5b8b913cab0244230fd9b1c08b6ceace7fe9230e60d0f74cbffdf849d0908290a3506001600160a01b0381166100d35760405162461bcd60e51b815260206004820152601460248201527f6e61746976652d746f6b656e2d69732d6e756c6c000000000000000000000000604482015260640160405180910390fd5b6001600160a01b0316608052610114565b6000602082840312156100f657600080fd5b81516001600160a01b038116811461010d57600080fd5b9392505050565b60805161109c61013d600039600081816101ce015281816108a3015261095b015261109c6000f3fe608060405234801561001057600080fd5b50600436106100c95760003560e01c8063777f1be911610081578063c6222eba1161005b578063c6222eba146101a0578063e1758bd8146101c9578063f3b27bc3146101f057600080fd5b8063777f1be914610167578063828509481461017a578063b6aa515b1461018d57600080fd5b80630fd01228116100b25780630fd012281461012c5780632b041e3a14610141578063769e8e3f1461015457600080fd5b8063037c696a146100ce5780630c340a24146100fb575b600080fd5b6100e16100dc366004610e5d565b6101f8565b604080519283526020830191909152015b60405180910390f35b600054610114906201000090046001600160a01b031681565b6040516001600160a01b0390911681526020016100f2565b61013f61013a366004610eac565b610340565b005b6100e161014f366004610ee3565b610535565b6100e1610162366004610f22565b610670565b6100e1610175366004610ee3565b610a13565b6100e1610188366004610eac565b610af6565b61013f61019b366004610f82565b610c28565b6101146101ae366004610f9f565b6002602052600090815260409020546001600160a01b031681565b6101147f000000000000000000000000000000000000000000000000000000000000000081565b61013f610d19565b60008060006002600088600a81111561021357610213610fba565b600a81111561022457610224610fba565b81526020810191909152604001600020546001600160a01b03169050806102925760405162461bcd60e51b815260206004820152601060248201527f70726f76696465722d6e6f742d7365740000000000000000000000000000000060448201526064015b60405180910390fd5b6040517fb64663840000000000000000000000000000000000000000000000000000000081526001600160a01b03878116600483015286811660248301526044820186905282169063b646638490606401604080518083038186803b1580156102fa57600080fd5b505afa15801561030e573d6000803e3d6000fd5b505050506040513d601f19601f820116820180604052508101906103329190610fe9565b925092505094509492505050565b6000546001600160a01b03620100009091041633146103a15760405162461bcd60e51b815260206004820152600c60248201527f6e6f742d676f7665726e6f7200000000000000000000000000000000000000006044820152606401610289565b600082600a8111156103b5576103b5610fba565b14156104035760405162461bcd60e51b815260206004820152601060248201527f696e76616c69642d70726f7669646572000000000000000000000000000000006044820152606401610289565b60006002600084600a81111561041b5761041b610fba565b600a81111561042c5761042c610fba565b81526020810191909152604001600020546001600160a01b039081169150821681141561049b5760405162461bcd60e51b815260206004820152600f60248201527f73616d652d61732d63757272656e7400000000000000000000000000000000006044820152606401610289565b7f6d8522a73cf263ee8c1097d5bd32695416c18e9df8cfc47b646f465297177f8e8382846040516104ce9392919061100d565b60405180910390a1816002600085600a8111156104ed576104ed610fba565b600a8111156104fe576104fe610fba565b815260200190815260200160002060006101000a8154816001600160a01b0302191690836001600160a01b03160217905550505050565b60008060006002600087600a81111561055057610550610fba565b600a81111561056157610561610fba565b81526020810191909152604001600020546001600160a01b03169050806105ca5760405162461bcd60e51b815260206004820152601060248201527f70726f76696465722d6e6f742d736574000000000000000000000000000000006044820152606401610289565b6040517f8d0dba000000000000000000000000000000000000000000000000000000000081526001600160a01b03868116600483015260248201869052821690638d0dba00906044015b604080518083038186803b15801561062b57600080fd5b505afa15801561063f573d6000803e3d6000fd5b505050506040513d601f19601f820116820180604052508101906106639190610fe9565b9250925050935093915050565b60008060006002600089600a81111561068b5761068b610fba565b600a81111561069c5761069c610fba565b81526020810191909152604001600020546001600160a01b03169050806107055760405162461bcd60e51b815260206004820152601360248201527f70726f76696465722d696e2d6e6f742d736574000000000000000000000000006044820152606401610289565b85600a81111561071757610717610fba565b88600a81111561072957610729610fba565b14156107d9576040517fb64663840000000000000000000000000000000000000000000000000000000081526001600160a01b03888116600483015286811660248301526044820186905282169063b646638490606401604080518083038186803b15801561079757600080fd5b505afa1580156107ab573d6000803e3d6000fd5b505050506040513d601f19601f820116820180604052508101906107cf9190610fe9565b9250925050610a09565b60006002600088600a8111156107f1576107f1610fba565b600a81111561080257610802610fba565b81526020810191909152604001600020546001600160a01b031690508061086b5760405162461bcd60e51b815260206004820152601460248201527f70726f76696465722d6f75742d6e6f742d7365740000000000000000000000006044820152606401610289565b6040517fb64663840000000000000000000000000000000000000000000000000000000081526001600160a01b0389811660048301527f0000000000000000000000000000000000000000000000000000000000000000811660248301526044820187905283169063b646638490606401604080518083038186803b1580156108f357600080fd5b505afa158015610907573d6000803e3d6000fd5b505050506040513d601f19601f8201168201806040525081019061092b9190610fe9565b6040517fb64663840000000000000000000000000000000000000000000000000000000081526001600160a01b037f00000000000000000000000000000000000000000000000000000000000000008116600483015289811660248301526044820184905292965090945060009183169063b646638490606401604080518083038186803b1580156109bc57600080fd5b505afa1580156109d0573d6000803e3d6000fd5b505050506040513d601f19601f820116820180604052508101906109f49190610fe9565b9095509050610a038185610e19565b93505050505b9550959350505050565b60008060006002600087600a811115610a2e57610a2e610fba565b600a811115610a3f57610a3f610fba565b81526020810191909152604001600020546001600160a01b0316905080610aa85760405162461bcd60e51b815260206004820152601060248201527f70726f76696465722d6e6f742d736574000000000000000000000000000000006044820152606401610289565b6040517fb5e9bef50000000000000000000000000000000000000000000000000000000081526001600160a01b0386811660048301526024820186905282169063b5e9bef590604401610614565b60008060006002600086600a811115610b1157610b11610fba565b600a811115610b2257610b22610fba565b81526020810191909152604001600020546001600160a01b0316905080610b8b5760405162461bcd60e51b815260206004820152601060248201527f70726f76696465722d6e6f742d736574000000000000000000000000000000006044820152606401610289565b6040517f07ee40bf0000000000000000000000000000000000000000000000000000000081526001600160a01b0385811660048301528216906307ee40bf90602401604080518083038186803b158015610be457600080fd5b505afa158015610bf8573d6000803e3d6000fd5b505050506040513d601f19601f82011682018060405250810190610c1c9190610fe9565b92509250509250929050565b6000546001600160a01b0362010000909104163314610c895760405162461bcd60e51b815260206004820152600c60248201527f6e6f742d676f7665726e6f7200000000000000000000000000000000000000006044820152606401610289565b6001600160a01b038116610cdf5760405162461bcd60e51b815260206004820152601960248201527f70726f706f7365642d676f7665726e6f722d69732d7a65726f000000000000006044820152606401610289565b600180547fffffffffffffffffffffffff0000000000000000000000000000000000000000166001600160a01b0392909216919091179055565b6001546001600160a01b03163314610d735760405162461bcd60e51b815260206004820152601960248201527f6e6f742d7468652d70726f706f7365642d676f7665726e6f72000000000000006044820152606401610289565b600154600080546040516001600160a01b039384169362010000909204909116917fd4459d5b8b913cab0244230fd9b1c08b6ceace7fe9230e60d0f74cbffdf849d091a360018054600080547fffffffffffffffffffff0000000000000000000000000000000000000000ffff166001600160a01b03831662010000021790557fffffffffffffffffffffffff0000000000000000000000000000000000000000169055565b6000818310610e285781610e2a565b825b9392505050565b8035600b8110610e4057600080fd5b919050565b6001600160a01b0381168114610e5a57600080fd5b50565b60008060008060808587031215610e7357600080fd5b610e7c85610e31565b93506020850135610e8c81610e45565b92506040850135610e9c81610e45565b9396929550929360600135925050565b60008060408385031215610ebf57600080fd5b610ec883610e31565b91506020830135610ed881610e45565b809150509250929050565b600080600060608486031215610ef857600080fd5b610f0184610e31565b92506020840135610f1181610e45565b929592945050506040919091013590565b600080600080600060a08688031215610f3a57600080fd5b610f4386610e31565b94506020860135610f5381610e45565b9350610f6160408701610e31565b92506060860135610f7181610e45565b949793965091946080013592915050565b600060208284031215610f9457600080fd5b8135610e2a81610e45565b600060208284031215610fb157600080fd5b610e2a82610e31565b7f4e487b7100000000000000000000000000000000000000000000000000000000600052602160045260246000fd5b60008060408385031215610ffc57600080fd5b505080516020909101519092909150565b60608101600b8510611048577f4e487b7100000000000000000000000000000000000000000000000000000000600052602160045260246000fd5b9381526001600160a01b03928316602082015291166040909101529056fea2646970667358221220d00e9e21fa489c84b138013bf8a721b1772a9ca72d9deb3dd59be2ed9345007164736f6c63430008090033",
  "devdoc": {
    "kind": "dev",
    "methods": {
      "acceptGovernorship()": {
        "details": "Allows new governor to accept governorship of the contract."
      },
      "getPriceInUsd(uint8,address)": {
        "params": {
          "provider_": "The price provider to get quote from",
          "token_": "The address of asset"
        },
        "returns": {
          "_lastUpdatedAt": "Last updated timestamp",
          "_priceInUsd": "The USD price"
        }
      },
      "quote(uint8,address,address,uint256)": {
        "params": {
          "amountIn_": "Amount of input token",
          "provider_": "The price provider to get quote from",
          "tokenIn_": "The address of assetIn",
          "tokenOut_": "The address of assetOut"
        },
        "returns": {
          "_amountOut": "Amount out",
          "_lastUpdatedAt": "Last updated timestamp"
        }
      },
      "quote(uint8,address,uint8,address,uint256)": {
        "details": "If providers aren't the same, uses native token as \"bridge\"",
        "params": {
          "amountIn_": "Amount of input token",
          "providerIn_": "The price provider to get quote for the tokenIn",
          "providerOut_": "The price provider to get quote for the tokenOut",
          "tokenIn_": "The address of assetIn",
          "tokenOut_": "The address of assetOut"
        },
        "returns": {
          "_amountOut": "Amount out",
          "_lastUpdatedAt": "Last updated timestamp"
        }
      },
      "quoteTokenToUsd(uint8,address,uint256)": {
        "params": {
          "amountIn_": "Amount of input token.",
          "provider_": "The price provider to get quote from",
          "token_": "The address of assetIn"
        },
        "returns": {
          "_lastUpdatedAt": "Last updated timestamp",
          "amountOut_": "Amount in USD"
        }
      },
      "quoteUsdToToken(uint8,address,uint256)": {
        "params": {
          "amountIn_": "Input amount in USD",
          "provider_": "The price provider to get quote from",
          "token_": "The address of assetOut"
        },
        "returns": {
          "_amountOut": "Output amount of token",
          "_lastUpdatedAt": "Last updated timestamp"
        }
      },
      "setPriceProvider(uint8,address)": {
        "details": "Administrative function",
        "params": {
          "priceProvider_": "The price provider contract",
          "provider_": "The provider (from enum)"
        }
      },
      "transferGovernorship(address)": {
        "details": "Transfers governorship of the contract to a new account (`proposedGovernor`). Can only be called by the current owner."
      }
    },
    "stateVariables": {
      "nativeToken": {
        "details": "Is used when getting quote from two price providers"
      }
    },
    "title": "Price Providers Aggregator",
    "version": 1
  },
  "userdoc": {
    "events": {
      "PriceProviderUpdated(uint8,address,address)": {
        "notice": "Emitted when an price provider is updated"
      }
    },
    "kind": "user",
    "methods": {
      "getPriceInUsd(uint8,address)": {
        "notice": "Get USD (or equivalent) price of an asset"
      },
      "nativeToken()": {
        "notice": "The native token (usually the most liquid asset in the chain)"
      },
      "priceProviders(uint8)": {
        "notice": "Price providers map"
      },
      "quote(uint8,address,address,uint256)": {
        "notice": "Get quote"
      },
      "quote(uint8,address,uint8,address,uint256)": {
        "notice": "Get quote"
      },
      "quoteTokenToUsd(uint8,address,uint256)": {
        "notice": "Get quote in USD (or equivalent) amount"
      },
      "quoteUsdToToken(uint8,address,uint256)": {
        "notice": "Get quote from USD (or equivalent) amount to amount of token"
      },
      "setPriceProvider(uint8,address)": {
        "notice": "Set a price provider"
      }
    },
    "version": 1
  },
  "storageLayout": {
    "storage": [
      {
        "astId": 420,
        "contract": "contracts/core/PriceProvidersAggregator.sol:PriceProvidersAggregator",
        "label": "_initialized",
        "offset": 0,
        "slot": "0",
        "type": "t_uint8"
      },
      {
        "astId": 423,
        "contract": "contracts/core/PriceProvidersAggregator.sol:PriceProvidersAggregator",
        "label": "_initializing",
        "offset": 1,
        "slot": "0",
        "type": "t_bool"
      },
      {
        "astId": 6513,
        "contract": "contracts/core/PriceProvidersAggregator.sol:PriceProvidersAggregator",
        "label": "governor",
        "offset": 2,
        "slot": "0",
        "type": "t_address"
      },
      {
        "astId": 6515,
        "contract": "contracts/core/PriceProvidersAggregator.sol:PriceProvidersAggregator",
        "label": "proposedGovernor",
        "offset": 0,
        "slot": "1",
        "type": "t_address"
      },
      {
        "astId": 8204,
        "contract": "contracts/core/PriceProvidersAggregator.sol:PriceProvidersAggregator",
        "label": "priceProviders",
        "offset": 0,
        "slot": "2",
        "type": "t_mapping(t_enum(Provider)13024,t_contract(IPriceProvider)11703)"
      }
    ],
    "types": {
      "t_address": {
        "encoding": "inplace",
        "label": "address",
        "numberOfBytes": "20"
      },
      "t_bool": {
        "encoding": "inplace",
        "label": "bool",
        "numberOfBytes": "1"
      },
      "t_contract(IPriceProvider)11703": {
        "encoding": "inplace",
        "label": "contract IPriceProvider",
        "numberOfBytes": "20"
      },
      "t_enum(Provider)13024": {
        "encoding": "inplace",
        "label": "enum DataTypes.Provider",
        "numberOfBytes": "1"
      },
      "t_mapping(t_enum(Provider)13024,t_contract(IPriceProvider)11703)": {
        "encoding": "mapping",
        "key": "t_enum(Provider)13024",
        "label": "mapping(enum DataTypes.Provider => contract IPriceProvider)",
        "numberOfBytes": "32",
        "value": "t_contract(IPriceProvider)11703"
      },
      "t_uint8": {
        "encoding": "inplace",
        "label": "uint8",
        "numberOfBytes": "1"
      }
    }
  }
}