{
  "address": "0xC85831dED6fCB15A288dfF49D256CBBC2B58388f",
  "abi": [
    {
      "anonymous": false,
      "inputs": [
        {
          "indexed": false,
          "internalType": "bytes",
          "name": "key",
          "type": "bytes"
        },
        {
          "indexed": false,
          "internalType": "bytes",
          "name": "oldRouting",
          "type": "bytes"
        },
        {
          "indexed": false,
          "internalType": "bytes",
          "name": "newRouting",
          "type": "bytes"
        }
      ],
      "name": "DefaultRoutingUpdated",
      "type": "event"
    },
    {
      "anonymous": false,
      "inputs": [
        {
          "indexed": true,
          "internalType": "enum DataTypes.ExchangeType",
          "name": "exchangeType",
          "type": "uint8"
        },
        {
          "indexed": true,
          "internalType": "address",
          "name": "oldExchange",
          "type": "address"
        },
        {
          "indexed": true,
          "internalType": "address",
          "name": "newExchange",
          "type": "address"
        }
      ],
      "name": "ExchangeUpdated",
      "type": "event"
    },
    {
      "anonymous": false,
      "inputs": [
        {
          "indexed": false,
          "internalType": "uint8",
          "name": "version",
          "type": "uint8"
        }
      ],
      "name": "Initialized",
      "type": "event"
    },
    {
      "anonymous": false,
      "inputs": [
        {
          "indexed": true,
          "internalType": "contract IExchange",
          "name": "exchange",
          "type": "address"
        },
        {
          "indexed": false,
          "internalType": "bytes",
          "name": "path",
          "type": "bytes"
        },
        {
          "indexed": true,
          "internalType": "address",
          "name": "tokenIn",
          "type": "address"
        },
        {
          "indexed": true,
          "internalType": "address",
          "name": "tokenOut",
          "type": "address"
        },
        {
          "indexed": false,
          "internalType": "uint256",
          "name": "amountIn",
          "type": "uint256"
        },
        {
          "indexed": false,
          "internalType": "uint256",
          "name": "amountOut",
          "type": "uint256"
        }
      ],
      "name": "SwapExactInput",
      "type": "event"
    },
    {
      "anonymous": false,
      "inputs": [
        {
          "indexed": true,
          "internalType": "contract IExchange",
          "name": "exchange",
          "type": "address"
        },
        {
          "indexed": false,
          "internalType": "bytes",
          "name": "path",
          "type": "bytes"
        },
        {
          "indexed": true,
          "internalType": "address",
          "name": "tokenIn",
          "type": "address"
        },
        {
          "indexed": true,
          "internalType": "address",
          "name": "tokenOut",
          "type": "address"
        },
        {
          "indexed": false,
          "internalType": "uint256",
          "name": "amountInMax",
          "type": "uint256"
        },
        {
          "indexed": false,
          "internalType": "uint256",
          "name": "amountIn",
          "type": "uint256"
        },
        {
          "indexed": false,
          "internalType": "uint256",
          "name": "amountOut",
          "type": "uint256"
        }
      ],
      "name": "SwapExactOutput",
      "type": "event"
    },
    {
      "anonymous": false,
      "inputs": [
        {
          "indexed": true,
          "internalType": "address",
          "name": "previousGovernor",
          "type": "address"
        },
        {
          "indexed": true,
          "internalType": "address",
          "name": "proposedGovernor",
          "type": "address"
        }
      ],
      "name": "UpdatedGovernor",
      "type": "event"
    },
    {
      "inputs": [],
      "name": "acceptGovernorship",
      "outputs": [],
      "stateMutability": "nonpayable",
      "type": "function"
    },
    {
      "inputs": [
        {
          "internalType": "enum DataTypes.ExchangeType",
          "name": "",
          "type": "uint8"
        }
      ],
      "name": "addressOf",
      "outputs": [
        {
          "internalType": "address",
          "name": "",
          "type": "address"
        }
      ],
      "stateMutability": "view",
      "type": "function"
    },
    {
      "inputs": [
        {
          "internalType": "bytes",
          "name": "",
          "type": "bytes"
        }
      ],
      "name": "defaultRoutings",
      "outputs": [
        {
          "internalType": "bytes",
          "name": "",
          "type": "bytes"
        }
      ],
      "stateMutability": "view",
      "type": "function"
    },
    {
      "inputs": [],
      "name": "getAllExchanges",
      "outputs": [
        {
          "internalType": "address[]",
          "name": "",
          "type": "address[]"
        }
      ],
      "stateMutability": "view",
      "type": "function"
    },
    {
      "inputs": [
        {
          "internalType": "address",
          "name": "tokenIn_",
          "type": "address"
        },
        {
          "internalType": "address",
          "name": "tokenOut_",
          "type": "address"
        },
        {
          "internalType": "uint256",
          "name": "amountOut_",
          "type": "uint256"
        }
      ],
      "name": "getAmountIn",
      "outputs": [
        {
          "internalType": "uint256",
          "name": "_amountIn",
          "type": "uint256"
        }
      ],
      "stateMutability": "nonpayable",
      "type": "function"
    },
    {
      "inputs": [
        {
          "internalType": "address",
          "name": "tokenIn_",
          "type": "address"
        },
        {
          "internalType": "address",
          "name": "tokenOut_",
          "type": "address"
        },
        {
          "internalType": "uint256",
          "name": "amountIn_",
          "type": "uint256"
        }
      ],
      "name": "getAmountOut",
      "outputs": [
        {
          "internalType": "uint256",
          "name": "_amountOut",
          "type": "uint256"
        }
      ],
      "stateMutability": "nonpayable",
      "type": "function"
    },
    {
      "inputs": [],
      "name": "governor",
      "outputs": [
        {
          "internalType": "address",
          "name": "",
          "type": "address"
        }
      ],
      "stateMutability": "view",
      "type": "function"
    },
    {
      "inputs": [
        {
          "internalType": "enum DataTypes.SwapType",
          "name": "swapType_",
          "type": "uint8"
        },
        {
          "internalType": "address",
          "name": "tokenIn_",
          "type": "address"
        },
        {
          "internalType": "address",
          "name": "tokenOut_",
          "type": "address"
        },
        {
          "internalType": "enum DataTypes.ExchangeType",
          "name": "exchange_",
          "type": "uint8"
        },
        {
          "internalType": "bytes",
          "name": "path_",
          "type": "bytes"
        }
      ],
      "name": "setDefaultRouting",
      "outputs": [],
      "stateMutability": "nonpayable",
      "type": "function"
    },
    {
      "inputs": [
        {
          "internalType": "enum DataTypes.ExchangeType",
          "name": "type_",
          "type": "uint8"
        },
        {
          "internalType": "address",
          "name": "exchange_",
          "type": "address"
        }
      ],
      "name": "setExchange",
      "outputs": [],
      "stateMutability": "nonpayable",
      "type": "function"
    },
    {
      "inputs": [
        {
          "internalType": "address",
          "name": "tokenIn_",
          "type": "address"
        },
        {
          "internalType": "address",
          "name": "tokenOut_",
          "type": "address"
        },
        {
          "internalType": "uint256",
          "name": "amountIn_",
          "type": "uint256"
        },
        {
          "internalType": "uint256",
          "name": "amountOutMin_",
          "type": "uint256"
        },
        {
          "internalType": "address",
          "name": "receiver_",
          "type": "address"
        }
      ],
      "name": "swapExactInput",
      "outputs": [
        {
          "internalType": "uint256",
          "name": "_amountOut",
          "type": "uint256"
        }
      ],
      "stateMutability": "nonpayable",
      "type": "function"
    },
    {
      "inputs": [
        {
          "internalType": "address",
          "name": "tokenIn_",
          "type": "address"
        },
        {
          "internalType": "address",
          "name": "tokenOut_",
          "type": "address"
        },
        {
          "internalType": "uint256",
          "name": "amountOut_",
          "type": "uint256"
        },
        {
          "internalType": "uint256",
          "name": "amountInMax_",
          "type": "uint256"
        },
        {
          "internalType": "address",
          "name": "receiver_",
          "type": "address"
        }
      ],
      "name": "swapExactOutput",
      "outputs": [
        {
          "internalType": "uint256",
          "name": "_amountIn",
          "type": "uint256"
        }
      ],
      "stateMutability": "nonpayable",
      "type": "function"
    },
    {
      "inputs": [
        {
          "internalType": "address",
          "name": "_proposedGovernor",
          "type": "address"
        }
      ],
      "name": "transferGovernorship",
      "outputs": [],
      "stateMutability": "nonpayable",
      "type": "function"
    }
  ],
  "transactionHash": "0xb2e155b9cf0755458a1adbf25d181ed03bcda8504e1e9f6660277493ea674e8c",
  "args": [],
  "numDeployments": 1,
  "solcInputHash": "b7d2ef77559d78105af4c2ea80b55c05",
  "bytecode": "0x608060405234801561001057600080fd5b506000805462010000600160b01b03191633620100008102919091178255604051909182917fd4459d5b8b913cab0244230fd9b1c08b6ceace7fe9230e60d0f74cbffdf849d0908290a3506121b98061006a6000396000f3fe608060405234801561001057600080fd5b50600436106100d45760003560e01c806367b4264511610081578063b6aa515b1161005b578063b6aa515b146101dc578063c71f8f94146101ef578063f3b27bc31461020257600080fd5b806367b426451461018d5780636ccb2b01146101b657806381cc619b146101c957600080fd5b806337c03fb6116100b257806337c03fb6146101445780634aa066521461015957806353b609b51461017a57600080fd5b80630c340a24146100d95780632aa3e6c61461010f5780633254e7b114610124575b600080fd5b6000546100f2906201000090046001600160a01b031681565b6040516001600160a01b0390911681526020015b60405180910390f35b61012261011d366004611a3d565b61020a565b005b610137610132366004611afa565b610594565b6040516101069190611bd2565b61014c610639565b6040516101069190611be5565b61016c610167366004611c32565b61064a565b604051908152602001610106565b61016c610188366004611c32565b610862565b6100f261019b366004611c6e565b6004602052600090815260409020546001600160a01b031681565b61016c6101c4366004611c8b565b610a1d565b61016c6101d7366004611c8b565b610dc5565b6101226101ea366004611ce2565b61105d565b6101226101fd366004611cfd565b61114e565b610122611359565b6000546001600160a01b03620100009091041633146102705760405162461bcd60e51b815260206004820152600c60248201527f6e6f742d676f7665726e6f72000000000000000000000000000000000000000060448201526064015b60405180910390fd5b60006004600084600581111561028857610288611db9565b600581111561029957610299611db9565b81526020810191909152604001600020546001600160a01b0316905080610370576102c5600283611459565b6103115760405162461bcd60e51b815260206004820152600f60248201527f65786368616e67652d65786973747300000000000000000000000000000000006044820152606401610267565b816004600085600581111561032857610328611db9565b600581111561033957610339611db9565b815260200190815260200160002060006101000a8154816001600160a01b0302191690836001600160a01b03160217905550610540565b6001600160a01b03821661043757610389600282611477565b6103d55760405162461bcd60e51b815260206004820152601760248201527f65786368616e67652d646f65732d6e6f742d65786973740000000000000000006044820152606401610267565b600460008460058111156103eb576103eb611db9565b60058111156103fc576103fc611db9565b8152602081019190915260400160002080547fffffffffffffffffffffffff0000000000000000000000000000000000000000169055610540565b610442600282611477565b61048e5760405162461bcd60e51b815260206004820152601760248201527f65786368616e67652d646f65732d6e6f742d65786973740000000000000000006044820152606401610267565b610499600283611459565b6104e55760405162461bcd60e51b815260206004820152600f60248201527f65786368616e67652d65786973747300000000000000000000000000000000006044820152606401610267565b81600460008560058111156104fc576104fc611db9565b600581111561050d5761050d611db9565b815260200190815260200160002060006101000a8154816001600160a01b0302191690836001600160a01b031602179055505b816001600160a01b0316816001600160a01b031684600581111561056657610566611db9565b6040517fd368678e81cb4fa5855a3e8bc7c4df1cdfdc699b194e44bff3d1a4399ee6be1490600090a4505050565b8051602081830181018051600582529282019190930120915280546105b890611de8565b80601f01602080910402602001604051908101604052809291908181526020018280546105e490611de8565b80156106315780601f1061060657610100808354040283529160200191610631565b820191906000526020600020905b81548152906001019060200180831161061457829003601f168201915b505050505081565b6060610645600261148c565b905090565b60008060056000868660405160200161066593929190611e3c565b60408051601f198184030181529082905261067f91611e92565b9081526020016040518091039020805461069890611de8565b80601f01602080910402602001604051908101604052809291908181526020018280546106c490611de8565b80156107115780601f106106e657610100808354040283529160200191610711565b820191906000526020600020905b8154815290600101906020018083116106f457829003601f168201915b5050505050905060008151116107695760405162461bcd60e51b815260206004820152601060248201527f6e6f2d726f7574696e672d666f756e64000000000000000000000000000000006044820152606401610267565b600080828060200190518101906107809190611eae565b915091506004600083600581111561079a5761079a611db9565b60058111156107ab576107ab611db9565b8152602081019190915260409081016000205490517ffee9574a0000000000000000000000000000000000000000000000000000000081526001600160a01b039091169063fee9574a906108059088908590600401611f3b565b602060405180830381600087803b15801561081f57600080fd5b505af1158015610833573d6000803e3d6000fd5b505050506040513d601f19601f820116820180604052508101906108579190611f54565b979650505050505050565b60008060056001868660405160200161087d93929190611e3c565b60408051601f198184030181529082905261089791611e92565b908152602001604051809103902080546108b090611de8565b80601f01602080910402602001604051908101604052809291908181526020018280546108dc90611de8565b80156109295780601f106108fe57610100808354040283529160200191610929565b820191906000526020600020905b81548152906001019060200180831161090c57829003601f168201915b5050505050905060008151116109815760405162461bcd60e51b815260206004820152601060248201527f6e6f2d726f7574696e672d666f756e64000000000000000000000000000000006044820152606401610267565b600080828060200190518101906109989190611eae565b91509150600460008360058111156109b2576109b2611db9565b60058111156109c3576109c3611db9565b8152602081019190915260409081016000205490517f2aa4a9e50000000000000000000000000000000000000000000000000000000081526001600160a01b0390911690632aa4a9e5906108059088908590600401611f3b565b600080600560008888604051602001610a3893929190611e3c565b60408051601f1981840301815290829052610a5291611e92565b90815260200160405180910390208054610a6b90611de8565b80601f0160208091040260200160405190810160405280929190818152602001828054610a9790611de8565b8015610ae45780601f10610ab957610100808354040283529160200191610ae4565b820191906000526020600020905b815481529060010190602001808311610ac757829003601f168201915b505050505090506000815111610b3c5760405162461bcd60e51b815260206004820152601060248201527f6e6f2d726f7574696e672d666f756e64000000000000000000000000000000006044820152606401610267565b60008082806020019051810190610b539190611eae565b91509150600060046000846005811115610b6f57610b6f611db9565b6005811115610b8057610b80611db9565b81526020810191909152604090810160009081205491517f70a082310000000000000000000000000000000000000000000000000000000081526001600160a01b0392831660048201819052935090918c16906370a082319060240160206040518083038186803b158015610bf457600080fd5b505afa158015610c08573d6000803e3d6000fd5b505050506040513d601f19601f82011682018060405250810190610c2c9190611f54565b9050610c436001600160a01b038c1633848c6114a0565b816001600160a01b0316634909c29a84838e6001600160a01b03166370a08231876040518263ffffffff1660e01b8152600401610c8f91906001600160a01b0391909116815260200190565b60206040518083038186803b158015610ca757600080fd5b505afa158015610cbb573d6000803e3d6000fd5b505050506040513d601f19601f82011682018060405250810190610cdf9190611f54565b610ce99190611f6d565b8b8b6040518563ffffffff1660e01b8152600401610d0a9493929190611fab565b602060405180830381600087803b158015610d2457600080fd5b505af1158015610d38573d6000803e3d6000fd5b505050506040513d601f19601f82011682018060405250810190610d5c9190611f54565b9550896001600160a01b03168b6001600160a01b0316836001600160a01b03167f332d883d1035df5d58d7a529e9dab834dbc4c3983a2d629a6424230ec1bf8c04868d8b604051610daf93929190611fe3565b60405180910390a4505050505095945050505050565b600080600560018888604051602001610de093929190611e3c565b60408051601f1981840301815290829052610dfa91611e92565b90815260200160405180910390208054610e1390611de8565b80601f0160208091040260200160405190810160405280929190818152602001828054610e3f90611de8565b8015610e8c5780601f10610e6157610100808354040283529160200191610e8c565b820191906000526020600020905b815481529060010190602001808311610e6f57829003601f168201915b505050505090506000815111610ee45760405162461bcd60e51b815260206004820152601060248201527f6e6f2d726f7574696e672d666f756e64000000000000000000000000000000006044820152606401610267565b60008082806020019051810190610efb9190611eae565b91509150600060046000846005811115610f1757610f17611db9565b6005811115610f2857610f28611db9565b81526020810191909152604001600020546001600160a01b039081169150610f54908b1633838a6114a0565b6040517f9d9f384d0000000000000000000000000000000000000000000000000000000081526001600160a01b03821690639d9f384d90610fa19085908c908c9033908d90600401612008565b602060405180830381600087803b158015610fbb57600080fd5b505af1158015610fcf573d6000803e3d6000fd5b505050506040513d601f19601f82011682018060405250810190610ff39190611f54565b9450886001600160a01b03168a6001600160a01b0316826001600160a01b03167fe2b399ee44535cc98392f9d1d787f5c925873e04562dee99db8c1f781240c062858b8a8e6040516110489493929190612048565b60405180910390a45050505095945050505050565b6000546001600160a01b03620100009091041633146110be5760405162461bcd60e51b815260206004820152600c60248201527f6e6f742d676f7665726e6f7200000000000000000000000000000000000000006044820152606401610267565b6001600160a01b0381166111145760405162461bcd60e51b815260206004820152601960248201527f70726f706f7365642d676f7665726e6f722d69732d7a65726f000000000000006044820152606401610267565b600180547fffffffffffffffffffffffff0000000000000000000000000000000000000000166001600160a01b0392909216919091179055565b6000546001600160a01b03620100009091041633146111af5760405162461bcd60e51b815260206004820152600c60248201527f6e6f742d676f7665726e6f7200000000000000000000000000000000000000006044820152606401610267565b60008686866040516020016111c693929190611e3c565b604051602081830303815290604052905060006005826040516111e99190611e92565b9081526020016040518091039020805461120290611de8565b80601f016020809104026020016040519081016040528092919081815260200182805461122e90611de8565b801561127b5780601f106112505761010080835404028352916020019161127b565b820191906000526020600020905b81548152906001019060200180831161125e57829003601f168201915b50505050509050600085858560405160200161129993929190612077565b60408051601f198184030181529190529050836112df576005836040516112c09190611e92565b908152602001604051809103902060006112da919061193e565b611313565b806005846040516112f09190611e92565b9081526020016040518091039020908051906020019061131192919061197b565b505b7f69f079d2078c67fbbdee50f8233f472aed9a0ddc1deb4c04fa3ed59fdee4db30838383604051611346939291906120c0565b60405180910390a1505050505050505050565b6001546001600160a01b031633146113b35760405162461bcd60e51b815260206004820152601960248201527f6e6f742d7468652d70726f706f7365642d676f7665726e6f72000000000000006044820152606401610267565b600154600080546040516001600160a01b039384169362010000909204909116917fd4459d5b8b913cab0244230fd9b1c08b6ceace7fe9230e60d0f74cbffdf849d091a360018054600080547fffffffffffffffffffff0000000000000000000000000000000000000000ffff166001600160a01b03831662010000021790557fffffffffffffffffffffffff0000000000000000000000000000000000000000169055565b600061146e836001600160a01b03841661152e565b90505b92915050565b600061146e836001600160a01b03841661157d565b6060600061149983611670565b9392505050565b604080516001600160a01b0385811660248301528416604482015260648082018490528251808303909101815260849091019091526020810180517bffffffffffffffffffffffffffffffffffffffffffffffffffffffff167f23b872dd000000000000000000000000000000000000000000000000000000001790526115289085906116cc565b50505050565b600081815260018301602052604081205461157557508154600181810184556000848152602080822090930184905584548482528286019093526040902091909155611471565b506000611471565b600081815260018301602052604081205480156116665760006115a1600183611f6d565b85549091506000906115b590600190611f6d565b905081811461161a5760008660000182815481106115d5576115d5612103565b90600052602060002001549050808760000184815481106115f8576115f8612103565b6000918252602080832090910192909255918252600188019052604090208390555b855486908061162b5761162b612132565b600190038181906000526020600020016000905590558560010160008681526020019081526020016000206000905560019350505050611471565b6000915050611471565b6060816000018054806020026020016040519081016040528092919081815260200182805480156116c057602002820191906000526020600020905b8154815260200190600101908083116116ac575b50505050509050919050565b6000611721826040518060400160405280602081526020017f5361666545524332303a206c6f772d6c6576656c2063616c6c206661696c6564815250856001600160a01b03166117b69092919063ffffffff16565b8051909150156117b1578080602001905181019061173f9190612161565b6117b15760405162461bcd60e51b815260206004820152602a60248201527f5361666545524332303a204552433230206f7065726174696f6e20646964206e60448201527f6f742073756363656564000000000000000000000000000000000000000000006064820152608401610267565b505050565b60606117c584846000856117cd565b949350505050565b6060824710156118455760405162461bcd60e51b815260206004820152602660248201527f416464726573733a20696e73756666696369656e742062616c616e636520666f60448201527f722063616c6c00000000000000000000000000000000000000000000000000006064820152608401610267565b6001600160a01b0385163b61189c5760405162461bcd60e51b815260206004820152601d60248201527f416464726573733a2063616c6c20746f206e6f6e2d636f6e74726163740000006044820152606401610267565b600080866001600160a01b031685876040516118b89190611e92565b60006040518083038185875af1925050503d80600081146118f5576040519150601f19603f3d011682016040523d82523d6000602084013e6118fa565b606091505b509150915061085782828660608315611914575081611499565b8251156119245782518084602001fd5b8160405162461bcd60e51b81526004016102679190611bd2565b50805461194a90611de8565b6000825580601f1061195a575050565b601f01602090049060005260206000209081019061197891906119ff565b50565b82805461198790611de8565b90600052602060002090601f0160209004810192826119a957600085556119ef565b82601f106119c257805160ff19168380011785556119ef565b828001600101855582156119ef579182015b828111156119ef5782518255916020019190600101906119d4565b506119fb9291506119ff565b5090565b5b808211156119fb5760008155600101611a00565b6006811061197857600080fd5b80356001600160a01b0381168114611a3857600080fd5b919050565b60008060408385031215611a5057600080fd5b8235611a5b81611a14565b9150611a6960208401611a21565b90509250929050565b7f4e487b7100000000000000000000000000000000000000000000000000000000600052604160045260246000fd5b604051601f8201601f1916810167ffffffffffffffff81118282101715611aca57611aca611a72565b604052919050565b600067ffffffffffffffff821115611aec57611aec611a72565b50601f01601f191660200190565b600060208284031215611b0c57600080fd5b813567ffffffffffffffff811115611b2357600080fd5b8201601f81018413611b3457600080fd5b8035611b47611b4282611ad2565b611aa1565b818152856020838501011115611b5c57600080fd5b81602084016020830137600091810160200191909152949350505050565b60005b83811015611b95578181015183820152602001611b7d565b838111156115285750506000910152565b60008151808452611bbe816020860160208601611b7a565b601f01601f19169290920160200192915050565b60208152600061146e6020830184611ba6565b6020808252825182820181905260009190848201906040850190845b81811015611c265783516001600160a01b031683529284019291840191600101611c01565b50909695505050505050565b600080600060608486031215611c4757600080fd5b611c5084611a21565b9250611c5e60208501611a21565b9150604084013590509250925092565b600060208284031215611c8057600080fd5b813561149981611a14565b600080600080600060a08688031215611ca357600080fd5b611cac86611a21565b9450611cba60208701611a21565b93506040860135925060608601359150611cd660808701611a21565b90509295509295909350565b600060208284031215611cf457600080fd5b61146e82611a21565b60008060008060008060a08789031215611d1657600080fd5b863560028110611d2557600080fd5b9550611d3360208801611a21565b9450611d4160408801611a21565b93506060870135611d5181611a14565b9250608087013567ffffffffffffffff80821115611d6e57600080fd5b818901915089601f830112611d8257600080fd5b813581811115611d9157600080fd5b8a6020828501011115611da357600080fd5b6020830194508093505050509295509295509295565b7f4e487b7100000000000000000000000000000000000000000000000000000000600052602160045260246000fd5b600181811c90821680611dfc57607f821691505b60208210811415611e36577f4e487b7100000000000000000000000000000000000000000000000000000000600052602260045260246000fd5b50919050565b600060028510611e4e57611e4e611db9565b5060f89390931b83527fffffffffffffffffffffffffffffffffffffffff000000000000000000000000606092831b81166001850152911b16601582015260290190565b60008251611ea4818460208701611b7a565b9190910192915050565b60008060408385031215611ec157600080fd5b8251611ecc81611a14565b602084015190925067ffffffffffffffff811115611ee957600080fd5b8301601f81018513611efa57600080fd5b8051611f08611b4282611ad2565b818152866020838501011115611f1d57600080fd5b611f2e826020830160208601611b7a565b8093505050509250929050565b8281526040602082015260006117c56040830184611ba6565b600060208284031215611f6657600080fd5b5051919050565b600082821015611fa6577f4e487b7100000000000000000000000000000000000000000000000000000000600052601160045260246000fd5b500390565b608081526000611fbe6080830187611ba6565b60208301959095525060408101929092526001600160a01b0316606090910152919050565b606081526000611ff66060830186611ba6565b60208301949094525060400152919050565b60a08152600061201b60a0830188611ba6565b60208301969096525060408101939093526001600160a01b03918216606084015216608090910152919050565b60808152600061205b6080830187611ba6565b6020830195909552506040810192909252606090910152919050565b60006006851061208957612089611db9565b84825260406020830152826040830152828460608401376000606084840101526060601f19601f8501168301019050949350505050565b6060815260006120d36060830186611ba6565b82810360208401526120e58186611ba6565b905082810360408401526120f98185611ba6565b9695505050505050565b7f4e487b7100000000000000000000000000000000000000000000000000000000600052603260045260246000fd5b7f4e487b7100000000000000000000000000000000000000000000000000000000600052603160045260246000fd5b60006020828403121561217357600080fd5b8151801515811461149957600080fdfea26469706673582212208660e29c6608ac0da13cf734f66cf0e3026c446b3c37c797231e5bcdadf6929264736f6c63430008090033",
  "devdoc": {
    "kind": "dev",
    "methods": {
      "acceptGovernorship()": {
        "details": "Allows new governor to accept governorship of the contract."
      },
      "getAllExchanges()": {
        "details": "This function is gas intensive"
      },
      "getAmountIn(address,address,uint256)": {
        "details": "It shouldn't be used as oracle!!!"
      },
      "getAmountOut(address,address,uint256)": {
        "details": "It shouldn't be used as oracle!!!"
      },
      "setDefaultRouting(uint8,address,address,uint8,bytes)": {
        "details": "Use empty `path_` for removalUse `abi.encodePacked(tokenA, poolFee1, tokenB, poolFee2, tokenC, ...)` for UniswapV3 exchangeUse `abi.encode([tokenA, tokenB, tokenC, ...])` for UniswapV2-like exchanges",
        "params": {
          "exchange_": "The type (i.e. protocol) of the exchange",
          "path_": "The swap path",
          "swapType_": "If the routing is related to `EXACT_INPUT` or `EXACT_OUTPUT`",
          "tokenIn_": "The swap in token",
          "tokenOut_": "The swap out token"
        }
      },
      "setExchange(uint8,address)": {
        "details": "Use null `exchange_` for removal"
      },
      "transferGovernorship(address)": {
        "details": "Transfers governorship of the contract to a new account (`proposedGovernor`). Can only be called by the current owner."
      }
    },
    "stateVariables": {
      "defaultRoutings": {
        "details": "Used to save gas by using a preset routing instead of looking for the best"
      }
    },
    "version": 1
  },
  "userdoc": {
    "events": {
      "DefaultRoutingUpdated(bytes,bytes,bytes)": {
        "notice": "Emitted when default routing is updated"
      },
      "ExchangeUpdated(uint8,address,address)": {
        "notice": "Emitted when an exchange is added"
      },
      "SwapExactInput(address,bytes,address,address,uint256,uint256)": {
        "notice": "Emitted when exact-input swap is executed"
      },
      "SwapExactOutput(address,bytes,address,address,uint256,uint256,uint256)": {
        "notice": "Emitted when exact-output swap is executed"
      }
    },
    "kind": "user",
    "methods": {
      "addressOf(uint8)": {
        "notice": "Mapping of exchanges' addresses by type"
      },
      "defaultRoutings(bytes)": {
        "notice": "Default swap routings"
      },
      "getAllExchanges()": {
        "notice": "The list of supported DEXes"
      },
      "getAmountIn(address,address,uint256)": {
        "notice": "Get *spot* quote It will return the swap amount based on the current reserves of the best pair/path found (i.e. spot price)."
      },
      "getAmountOut(address,address,uint256)": {
        "notice": "Get *spot* quote It will return the swap amount based on the current reserves of the best pair/path found (i.e. spot price)."
      },
      "setDefaultRouting(uint8,address,address,uint8,bytes)": {
        "notice": "Set default routing"
      },
      "setExchange(uint8,address)": {
        "notice": "Add or update exchange"
      },
      "swapExactInput(address,address,uint256,uint256,address)": {
        "notice": "Perform an exact input swap - will revert if there is no default routing"
      },
      "swapExactOutput(address,address,uint256,uint256,address)": {
        "notice": "Perform an exact output swap - will revert if there is no default routing"
      }
    },
    "notice": "Routed Swapper contract This contract execute swaps and quoted using pre-set swap routes",
    "version": 1
  },
  "storageLayout": {
    "storage": [
      {
        "astId": 420,
        "contract": "contracts/swapper/RoutedSwapper.sol:RoutedSwapper",
        "label": "_initialized",
        "offset": 0,
        "slot": "0",
        "type": "t_uint8"
      },
      {
        "astId": 423,
        "contract": "contracts/swapper/RoutedSwapper.sol:RoutedSwapper",
        "label": "_initializing",
        "offset": 1,
        "slot": "0",
        "type": "t_bool"
      },
      {
        "astId": 6513,
        "contract": "contracts/swapper/RoutedSwapper.sol:RoutedSwapper",
        "label": "governor",
        "offset": 2,
        "slot": "0",
        "type": "t_address"
      },
      {
        "astId": 6515,
        "contract": "contracts/swapper/RoutedSwapper.sol:RoutedSwapper",
        "label": "proposedGovernor",
        "offset": 0,
        "slot": "1",
        "type": "t_address"
      },
      {
        "astId": 14515,
        "contract": "contracts/swapper/RoutedSwapper.sol:RoutedSwapper",
        "label": "allExchanges",
        "offset": 0,
        "slot": "2",
        "type": "t_struct(AddressSet)2578_storage"
      },
      {
        "astId": 14521,
        "contract": "contracts/swapper/RoutedSwapper.sol:RoutedSwapper",
        "label": "addressOf",
        "offset": 0,
        "slot": "4",
        "type": "t_mapping(t_enum(ExchangeType)12618,t_address)"
      },
      {
        "astId": 14526,
        "contract": "contracts/swapper/RoutedSwapper.sol:RoutedSwapper",
        "label": "defaultRoutings",
        "offset": 0,
        "slot": "5",
        "type": "t_mapping(t_bytes_memory_ptr,t_bytes_storage)"
      }
    ],
    "types": {
      "t_address": {
        "encoding": "inplace",
        "label": "address",
        "numberOfBytes": "20"
      },
      "t_array(t_bytes32)dyn_storage": {
        "base": "t_bytes32",
        "encoding": "dynamic_array",
        "label": "bytes32[]",
        "numberOfBytes": "32"
      },
      "t_bool": {
        "encoding": "inplace",
        "label": "bool",
        "numberOfBytes": "1"
      },
      "t_bytes32": {
        "encoding": "inplace",
        "label": "bytes32",
        "numberOfBytes": "32"
      },
      "t_bytes_memory_ptr": {
        "encoding": "bytes",
        "label": "bytes",
        "numberOfBytes": "32"
      },
      "t_bytes_storage": {
        "encoding": "bytes",
        "label": "bytes",
        "numberOfBytes": "32"
      },
      "t_enum(ExchangeType)12618": {
        "encoding": "inplace",
        "label": "enum DataTypes.ExchangeType",
        "numberOfBytes": "1"
      },
      "t_mapping(t_bytes32,t_uint256)": {
        "encoding": "mapping",
        "key": "t_bytes32",
        "label": "mapping(bytes32 => uint256)",
        "numberOfBytes": "32",
        "value": "t_uint256"
      },
      "t_mapping(t_bytes_memory_ptr,t_bytes_storage)": {
        "encoding": "mapping",
        "key": "t_bytes_memory_ptr",
        "label": "mapping(bytes => bytes)",
        "numberOfBytes": "32",
        "value": "t_bytes_storage"
      },
      "t_mapping(t_enum(ExchangeType)12618,t_address)": {
        "encoding": "mapping",
        "key": "t_enum(ExchangeType)12618",
        "label": "mapping(enum DataTypes.ExchangeType => address)",
        "numberOfBytes": "32",
        "value": "t_address"
      },
      "t_struct(AddressSet)2578_storage": {
        "encoding": "inplace",
        "label": "struct EnumerableSet.AddressSet",
        "members": [
          {
            "astId": 2577,
            "contract": "contracts/swapper/RoutedSwapper.sol:RoutedSwapper",
            "label": "_inner",
            "offset": 0,
            "slot": "0",
            "type": "t_struct(Set)2277_storage"
          }
        ],
        "numberOfBytes": "64"
      },
      "t_struct(Set)2277_storage": {
        "encoding": "inplace",
        "label": "struct EnumerableSet.Set",
        "members": [
          {
            "astId": 2272,
            "contract": "contracts/swapper/RoutedSwapper.sol:RoutedSwapper",
            "label": "_values",
            "offset": 0,
            "slot": "0",
            "type": "t_array(t_bytes32)dyn_storage"
          },
          {
            "astId": 2276,
            "contract": "contracts/swapper/RoutedSwapper.sol:RoutedSwapper",
            "label": "_indexes",
            "offset": 0,
            "slot": "1",
            "type": "t_mapping(t_bytes32,t_uint256)"
          }
        ],
        "numberOfBytes": "64"
      },
      "t_uint256": {
        "encoding": "inplace",
        "label": "uint256",
        "numberOfBytes": "32"
      },
      "t_uint8": {
        "encoding": "inplace",
        "label": "uint8",
        "numberOfBytes": "1"
      }
    }
  }
}