{
  "address": "0x1CC8Ba8f1C4698549cd4BAB39c99412982684Cab",
  "abi": [
    {
      "inputs": [
        {
          "internalType": "address",
          "name": "factory_",
          "type": "address"
        },
        {
          "internalType": "bytes32",
          "name": "initCodeHash_",
          "type": "bytes32"
        },
        {
          "internalType": "address",
          "name": "wethLike_",
          "type": "address"
        }
      ],
      "stateMutability": "nonpayable",
      "type": "constructor"
    },
    {
      "anonymous": false,
      "inputs": [
        {
          "indexed": false,
          "internalType": "uint8",
          "name": "version",
          "type": "uint8"
        }
      ],
      "name": "Initialized",
      "type": "event"
    },
    {
      "anonymous": false,
      "inputs": [
        {
          "indexed": true,
          "internalType": "address",
          "name": "previousGovernor",
          "type": "address"
        },
        {
          "indexed": true,
          "internalType": "address",
          "name": "proposedGovernor",
          "type": "address"
        }
      ],
      "name": "UpdatedGovernor",
      "type": "event"
    },
    {
      "anonymous": false,
      "inputs": [
        {
          "indexed": false,
          "internalType": "address",
          "name": "oldWethLike",
          "type": "address"
        },
        {
          "indexed": false,
          "internalType": "address",
          "name": "newWethLike",
          "type": "address"
        }
      ],
      "name": "WethLikeTokenUpdated",
      "type": "event"
    },
    {
      "inputs": [],
      "name": "acceptGovernorship",
      "outputs": [],
      "stateMutability": "nonpayable",
      "type": "function"
    },
    {
      "inputs": [],
      "name": "factory",
      "outputs": [
        {
          "internalType": "address",
          "name": "",
          "type": "address"
        }
      ],
      "stateMutability": "view",
      "type": "function"
    },
    {
      "inputs": [
        {
          "internalType": "uint256",
          "name": "amountOut_",
          "type": "uint256"
        },
        {
          "internalType": "address[]",
          "name": "path_",
          "type": "address[]"
        }
      ],
      "name": "getAmountsIn",
      "outputs": [
        {
          "internalType": "uint256",
          "name": "_amountIn",
          "type": "uint256"
        }
      ],
      "stateMutability": "view",
      "type": "function"
    },
    {
      "inputs": [
        {
          "internalType": "uint256",
          "name": "amountOut_",
          "type": "uint256"
        },
        {
          "internalType": "bytes",
          "name": "path_",
          "type": "bytes"
        }
      ],
      "name": "getAmountsIn",
      "outputs": [
        {
          "internalType": "uint256",
          "name": "_amountIn",
          "type": "uint256"
        }
      ],
      "stateMutability": "view",
      "type": "function"
    },
    {
      "inputs": [
        {
          "internalType": "uint256",
          "name": "amountIn_",
          "type": "uint256"
        },
        {
          "internalType": "address[]",
          "name": "path_",
          "type": "address[]"
        }
      ],
      "name": "getAmountsOut",
      "outputs": [
        {
          "internalType": "uint256",
          "name": "_amountOut",
          "type": "uint256"
        }
      ],
      "stateMutability": "view",
      "type": "function"
    },
    {
      "inputs": [
        {
          "internalType": "uint256",
          "name": "amountIn_",
          "type": "uint256"
        },
        {
          "internalType": "bytes",
          "name": "path_",
          "type": "bytes"
        }
      ],
      "name": "getAmountsOut",
      "outputs": [
        {
          "internalType": "uint256",
          "name": "_amountOut",
          "type": "uint256"
        }
      ],
      "stateMutability": "view",
      "type": "function"
    },
    {
      "inputs": [
        {
          "internalType": "address",
          "name": "tokenIn_",
          "type": "address"
        },
        {
          "internalType": "address",
          "name": "tokenOut_",
          "type": "address"
        },
        {
          "internalType": "uint256",
          "name": "amountOut_",
          "type": "uint256"
        }
      ],
      "name": "getBestAmountIn",
      "outputs": [
        {
          "internalType": "uint256",
          "name": "_amountIn",
          "type": "uint256"
        },
        {
          "internalType": "bytes",
          "name": "_path",
          "type": "bytes"
        }
      ],
      "stateMutability": "nonpayable",
      "type": "function"
    },
    {
      "inputs": [
        {
          "internalType": "address",
          "name": "tokenIn_",
          "type": "address"
        },
        {
          "internalType": "address",
          "name": "tokenOut_",
          "type": "address"
        },
        {
          "internalType": "uint256",
          "name": "amountIn_",
          "type": "uint256"
        }
      ],
      "name": "getBestAmountOut",
      "outputs": [
        {
          "internalType": "uint256",
          "name": "_amountOut",
          "type": "uint256"
        },
        {
          "internalType": "bytes",
          "name": "_path",
          "type": "bytes"
        }
      ],
      "stateMutability": "nonpayable",
      "type": "function"
    },
    {
      "inputs": [],
      "name": "governor",
      "outputs": [
        {
          "internalType": "address",
          "name": "",
          "type": "address"
        }
      ],
      "stateMutability": "view",
      "type": "function"
    },
    {
      "inputs": [
        {
          "internalType": "bytes",
          "name": "path_",
          "type": "bytes"
        },
        {
          "internalType": "uint256",
          "name": "amountIn_",
          "type": "uint256"
        },
        {
          "internalType": "uint256",
          "name": "amountOutMin_",
          "type": "uint256"
        },
        {
          "internalType": "address",
          "name": "outReceiver_",
          "type": "address"
        }
      ],
      "name": "swapExactInput",
      "outputs": [
        {
          "internalType": "uint256",
          "name": "_amountOut",
          "type": "uint256"
        }
      ],
      "stateMutability": "nonpayable",
      "type": "function"
    },
    {
      "inputs": [
        {
          "internalType": "bytes",
          "name": "path_",
          "type": "bytes"
        },
        {
          "internalType": "uint256",
          "name": "amountOut_",
          "type": "uint256"
        },
        {
          "internalType": "uint256",
          "name": "amountInMax_",
          "type": "uint256"
        },
        {
          "internalType": "address",
          "name": "inSender_",
          "type": "address"
        },
        {
          "internalType": "address",
          "name": "outRecipient_",
          "type": "address"
        }
      ],
      "name": "swapExactOutput",
      "outputs": [
        {
          "internalType": "uint256",
          "name": "_amountIn",
          "type": "uint256"
        }
      ],
      "stateMutability": "nonpayable",
      "type": "function"
    },
    {
      "inputs": [
        {
          "internalType": "address",
          "name": "_proposedGovernor",
          "type": "address"
        }
      ],
      "name": "transferGovernorship",
      "outputs": [],
      "stateMutability": "nonpayable",
      "type": "function"
    },
    {
      "inputs": [
        {
          "internalType": "address",
          "name": "wethLike_",
          "type": "address"
        }
      ],
      "name": "updateWethLikeToken",
      "outputs": [],
      "stateMutability": "nonpayable",
      "type": "function"
    },
    {
      "inputs": [],
      "name": "wethLike",
      "outputs": [
        {
          "internalType": "address",
          "name": "",
          "type": "address"
        }
      ],
      "stateMutability": "view",
      "type": "function"
    }
  ],
  "transactionHash": "0x0ffcf235d0c9a2706c82e016f2403a15d9a67b644a790a7f4084d28636e4308d",
  "args": [
    "0x9Ad6C38BE94206cA50bb0d90783181662f0Cfa10",
    "0x0bbca9af0511ad1a1da383135cf3a8d2ac620e549ef9f6ae3a4c33c2fed0af91",
    "0xB31f66AA3C1e785363F0875A1B74E27b85FD66c7"
  ],
  "numDeployments": 1,
  "solcInputHash": "b7d2ef77559d78105af4c2ea80b55c05",
  "bytecode": "0x60c06040523480156200001157600080fd5b50604051620026b6380380620026b68339810160408190526200003491620000ca565b6000805462010000600160b01b03191633620100008102919091178255604051909182917fd4459d5b8b913cab0244230fd9b1c08b6ceace7fe9230e60d0f74cbffdf849d0908290a3506001600160a01b0392831660805260a091909152600280546001600160a01b031916919092161790556200010b565b80516001600160a01b0381168114620000c557600080fd5b919050565b600080600060608486031215620000e057600080fd5b620000eb84620000ad565b9250602084015191506200010260408501620000ad565b90509250925092565b60805160a05161252a6200018c600039600081816105020152818161061701528181610bf701528181610cb201528181610e680152818161140101526116100152600081816101f3015281816104e1015281816105f601528181610bd601528181610c9101528181610e47015281816113e001526115ef015261252a6000f3fe608060405234801561001057600080fd5b50600436106100ea5760003560e01c80637fbb36e71161008c578063c45a015511610066578063c45a0155146101ee578063d06ca61f14610215578063f3b27bc314610228578063fee9574a1461023057600080fd5b80637fbb36e7146101b35780639d9f384d146101c8578063b6aa515b146101db57600080fd5b806329dbd944116100c857806329dbd944146101675780632aa4a9e51461017a5780634909c29a1461018d57806370b24742146101a057600080fd5b80630c340a24146100ef57806319145798146101255780631f00ca7414610146575b600080fd5b600054610108906201000090046001600160a01b031681565b6040516001600160a01b0390911681526020015b60405180910390f35b610138610133366004611e07565b610243565b60405161011c929190611ea4565b610159610154366004611f41565b6104da565b60405190815260200161011c565b600254610108906001600160a01b031681565b610159610188366004611fec565b61054a565b61015961019b3660046120cd565b610560565b6101386101ae366004611e07565b610822565b6101c66101c1366004612138565b610a8c565b005b6101596101d6366004612155565b610b6e565b6101c66101e9366004612138565b610d4f565b6101087f000000000000000000000000000000000000000000000000000000000000000081565b610159610223366004611f41565b610e40565b6101c6610eac565b61015961023e366004611fec565b610fac565b60408051600280825260608281019093526000929183918160200160208202803683370190505090508581600081518110610280576102806121d1565b60200260200101906001600160a01b031690816001600160a01b03168152505084816001815181106102b4576102b46121d1565b60200260200101906001600160a01b031690816001600160a01b03168152505060006102e08583610fbb565b6002549091506001600160a01b038881169116148061030c57506002546001600160a01b038781169116145b1561037b57600081116103665760405162461bcd60e51b815260206004820152600d60248201527f6e6f2d706174682d666f756e640000000000000000000000000000000000000060448201526064015b60405180910390fd5b8061037083611056565b9350935050506104d2565b604080516003808252608082019092526000916020820160608036833701905050905087816000815181106103b2576103b26121d1565b6001600160a01b0392831660209182029290920101526002548251911690829060019081106103e3576103e36121d1565b60200260200101906001600160a01b031690816001600160a01b0316815250508681600281518110610417576104176121d1565b60200260200101906001600160a01b031690816001600160a01b03168152505060006104438783610fbb565b905060008311806104545750600081115b6104a05760405162461bcd60e51b815260206004820152600d60248201527f6e6f2d706174682d666f756e6400000000000000000000000000000000000000604482015260640161035d565b808311156104bf57826104b285611056565b95509550505050506104d2565b806104c983611056565b95509550505050505b935093915050565b60006105287f00000000000000000000000000000000000000000000000000000000000000007f0000000000000000000000000000000000000000000000000000000000000000858561107f565b60008151811061053a5761053a6121d1565b6020026020010151905092915050565b600061055983610154846111d4565b9392505050565b6000806105a287878080601f0160208091040260200160405190810160405280939291908181526020018383808284376000920191909152506111d492505050565b90506000816000815181106105b9576105b96121d1565b60200260200101519050600082600184516105d4919061222f565b815181106105e4576105e46121d1565b602002602001015190506106826106717f00000000000000000000000000000000000000000000000000000000000000007f000000000000000000000000000000000000000000000000000000000000000086600081518110610649576106496121d1565b602002602001015187600181518110610664576106646121d1565b60200260200101516111ea565b6001600160a01b03841690896112e6565b6040517f70a082310000000000000000000000000000000000000000000000000000000081526001600160a01b038681166004830152600091908316906370a082319060240160206040518083038186803b1580156106e057600080fd5b505afa1580156106f4573d6000803e3d6000fd5b505050506040513d601f19601f820116820180604052508101906107189190612246565b9050610724848761136b565b6040517f70a082310000000000000000000000000000000000000000000000000000000081526001600160a01b0387811660048301528291908416906370a082319060240160206040518083038186803b15801561078157600080fd5b505afa158015610795573d6000803e3d6000fd5b505050506040513d601f19601f820116820180604052508101906107b99190612246565b6107c3919061222f565b9450868510156108155760405162461bcd60e51b815260206004820152601360248201527f546f6f206c6974746c6520726563656976656400000000000000000000000000604482015260640161035d565b5050505095945050505050565b6040805160028082526060828101909352600092918391816020016020820280368337019050509050858160008151811061085f5761085f6121d1565b60200260200101906001600160a01b031690816001600160a01b0316815250508481600181518110610893576108936121d1565b60200260200101906001600160a01b031690816001600160a01b03168152505060006108bf85836116f5565b6002549091506001600160a01b03888116911614806108eb57506002546001600160a01b038781169116145b1561094057600081116103665760405162461bcd60e51b815260206004820152600d60248201527f6e6f2d706174682d666f756e6400000000000000000000000000000000000000604482015260640161035d565b60408051600380825260808201909252600091602082016060803683370190505090508781600081518110610977576109776121d1565b6001600160a01b0392831660209182029290920101526002548251911690829060019081106109a8576109a86121d1565b60200260200101906001600160a01b031690816001600160a01b03168152505086816002815181106109dc576109dc6121d1565b60200260200101906001600160a01b031690816001600160a01b0316815250506000610a0887836116f5565b90506000831180610a195750600081115b610a655760405162461bcd60e51b815260206004820152600d60248201527f6e6f2d706174682d666f756e6400000000000000000000000000000000000000604482015260640161035d565b600083118015610a7457508083105b80610a7d575080155b156104bf57826104b285611056565b6000546001600160a01b0362010000909104163314610aed5760405162461bcd60e51b815260206004820152600c60248201527f6e6f742d676f7665726e6f720000000000000000000000000000000000000000604482015260640161035d565b600254604080516001600160a01b03928316815291831660208301527fa660aa88bd78e0552d7e2b6cb01df732642a0ff595c9c7b2ae67fb9e3db01f55910160405180910390a1600280547fffffffffffffffffffffffff0000000000000000000000000000000000000000166001600160a01b0392909216919091179055565b600080610bb088888080601f0160208091040260200160405190810160405280939291908181526020018383808284376000920191909152506111d492505050565b9050600081600081518110610bc757610bc76121d1565b60200260200101519050610c1d7f00000000000000000000000000000000000000000000000000000000000000007f0000000000000000000000000000000000000000000000000000000000000000898561107f565b600081518110610c2f57610c2f6121d1565b6020026020010151925085831115610c895760405162461bcd60e51b815260206004820152601260248201527f546f6f206d756368207265717565737465640000000000000000000000000000604482015260640161035d565b610d10610cff7f00000000000000000000000000000000000000000000000000000000000000007f000000000000000000000000000000000000000000000000000000000000000085600081518110610ce457610ce46121d1565b602002602001015186600181518110610664576106646121d1565b6001600160a01b03831690856112e6565b610d1a828561136b565b6000610d26848861222f565b90508015610d4257610d426001600160a01b03831687836112e6565b5050509695505050505050565b6000546001600160a01b0362010000909104163314610db05760405162461bcd60e51b815260206004820152600c60248201527f6e6f742d676f7665726e6f720000000000000000000000000000000000000000604482015260640161035d565b6001600160a01b038116610e065760405162461bcd60e51b815260206004820152601960248201527f70726f706f7365642d676f7665726e6f722d69732d7a65726f00000000000000604482015260640161035d565b600180547fffffffffffffffffffffffff0000000000000000000000000000000000000000166001600160a01b0392909216919091179055565b6000610e8e7f00000000000000000000000000000000000000000000000000000000000000007f00000000000000000000000000000000000000000000000000000000000000008585611736565b60018351610e9c919061222f565b8151811061053a5761053a6121d1565b6001546001600160a01b03163314610f065760405162461bcd60e51b815260206004820152601960248201527f6e6f742d7468652d70726f706f7365642d676f7665726e6f7200000000000000604482015260640161035d565b600154600080546040516001600160a01b039384169362010000909204909116917fd4459d5b8b913cab0244230fd9b1c08b6ceace7fe9230e60d0f74cbffdf849d091a360018054600080547fffffffffffffffffffff0000000000000000000000000000000000000000ffff166001600160a01b03831662010000021790557fffffffffffffffffffffffff0000000000000000000000000000000000000000169055565b600061055983610223846111d4565b6040517fd06ca61f000000000000000000000000000000000000000000000000000000008152600090309063d06ca61f90610ffc90869086906004016122a3565b60206040518083038186803b15801561101457600080fd5b505afa925050508015611044575060408051601f3d908101601f1916820190925261104191810190612246565b60015b61104d57611050565b90505b92915050565b60608160405160200161106991906122bc565b6040516020818303038152906040529050919050565b606060028251101561109057600080fd5b815167ffffffffffffffff8111156110aa576110aa611ebd565b6040519080825280602002602001820160405280156110d3578160200160208202803683370190505b5090508281600183516110e6919061222f565b815181106110f6576110f66121d1565b602002602001018181525050600060018351611112919061222f565b90505b80156111cb5760008061116688888761112f60018861222f565b8151811061113f5761113f6121d1565b6020026020010151888781518110611159576111596121d1565b602002602001015161186a565b9150915061118e84848151811061117f5761117f6121d1565b60200260200101518383611953565b8461119a60018661222f565b815181106111aa576111aa6121d1565b602002602001018181525050505080806111c3906122cf565b915050611115565b50949350505050565b60608180602001905181019061105091906122e6565b60008060006111f98585611a0a565b6040517fffffffffffffffffffffffffffffffffffffffff000000000000000000000000606084811b8216602084015283901b1660348201529193509150879060480160405160208183030381529060405280519060200120876040516020016112c3939291907fff00000000000000000000000000000000000000000000000000000000000000815260609390931b7fffffffffffffffffffffffffffffffffffffffff0000000000000000000000001660018401526015830191909152603582015260550190565b60408051601f198184030181529190528051602090910120979650505050505050565b604080516001600160a01b038416602482015260448082018490528251808303909101815260649091019091526020810180517bffffffffffffffffffffffffffffffffffffffffffffffffffffffff167fa9059cbb00000000000000000000000000000000000000000000000000000000179052611366908490611a6e565b505050565b60005b6001835161137c919061222f565b81101561136657600080848381518110611398576113986121d1565b6020026020010151858460016113ae9190612375565b815181106113be576113be6121d1565b60200260200101519150915060006113d68383611a0a565b50905060006114277f00000000000000000000000000000000000000000000000000000000000000007f000000000000000000000000000000000000000000000000000000000000000086866111ea565b9050600080600080846001600160a01b0316630902f1ac6040518163ffffffff1660e01b815260040160606040518083038186803b15801561146857600080fd5b505afa15801561147c573d6000803e3d6000fd5b505050506040513d601f19601f820116820180604052508101906114a091906123b0565b506dffffffffffffffffffffffffffff1691506dffffffffffffffffffffffffffff169150600080876001600160a01b03168a6001600160a01b0316146114e85782846114eb565b83835b6040517f70a082310000000000000000000000000000000000000000000000000000000081526001600160a01b038a8116600483015292945090925083918c16906370a082319060240160206040518083038186803b15801561154d57600080fd5b505afa158015611561573d6000803e3d6000fd5b505050506040513d601f19601f820116820180604052508101906115859190612246565b61158f919061222f565b955061159c868383611b53565b945050505050600080856001600160a01b0316886001600160a01b0316146115c6578260006115ca565b6000835b91509150600060028c516115de919061222f565b8a106115ea578a61164c565b61164c7f00000000000000000000000000000000000000000000000000000000000000007f00000000000000000000000000000000000000000000000000000000000000008a8f61163c8f6002612375565b81518110610664576106646121d1565b604080516000815260208101918290527f022c0d9f000000000000000000000000000000000000000000000000000000009091529091506001600160a01b0387169063022c0d9f906116a79086908690869060248101612400565b600060405180830381600087803b1580156116c157600080fd5b505af11580156116d5573d6000803e3d6000fd5b5050505050505050505050505080806116ed9061242e565b91505061136e565b6040517f1f00ca740000000000000000000000000000000000000000000000000000000081526000903090631f00ca7490610ffc90869086906004016122a3565b606060028251101561174757600080fd5b815167ffffffffffffffff81111561176157611761611ebd565b60405190808252806020026020018201604052801561178a578160200160208202803683370190505b50905082816000815181106117a1576117a16121d1565b60200260200101818152505060005b600183516117be919061222f565b8110156111cb5760008061180588888786815181106117df576117df6121d1565b6020026020010151888760016117f59190612375565b81518110611159576111596121d1565b9150915061182d84848151811061181e5761181e6121d1565b60200260200101518383611b53565b84611839856001612375565b81518110611849576118496121d1565b602002602001018181525050505080806118629061242e565b9150506117b0565b60008060006118798585611a0a565b50905060008061188b898989896111ea565b6001600160a01b0316630902f1ac6040518163ffffffff1660e01b815260040160606040518083038186803b1580156118c357600080fd5b505afa1580156118d7573d6000803e3d6000fd5b505050506040513d601f19601f820116820180604052508101906118fb91906123b0565b506dffffffffffffffffffffffffffff1691506dffffffffffffffffffffffffffff169150826001600160a01b0316876001600160a01b031614611940578082611943565b81815b909a909950975050505050505050565b60008084116119a45760405162461bcd60e51b815260206004820152601a60248201527f494e53554646494349454e545f4f55545055545f414d4f554e54000000000000604482015260640161035d565b6000831180156119b45750600082115b6119bd57600080fd5b60006119d56103e86119cf8688611c04565b90611c04565b905060006119e96103e56119cf8689611c31565b9050611a0060016119fa8385612449565b90611c4c565b9695505050505050565b600080826001600160a01b0316846001600160a01b03161415611a2c57600080fd5b826001600160a01b0316846001600160a01b031610611a4c578284611a4f565b83835b90925090506001600160a01b038216611a6757600080fd5b9250929050565b6000611ac3826040518060400160405280602081526020017f5361666545524332303a206c6f772d6c6576656c2063616c6c206661696c6564815250856001600160a01b0316611c679092919063ffffffff16565b8051909150156113665780806020019051810190611ae19190612484565b6113665760405162461bcd60e51b815260206004820152602a60248201527f5361666545524332303a204552433230206f7065726174696f6e20646964206e60448201527f6f74207375636365656400000000000000000000000000000000000000000000606482015260840161035d565b6000808411611ba45760405162461bcd60e51b815260206004820152601960248201527f494e53554646494349454e545f494e5055545f414d4f554e5400000000000000604482015260640161035d565b600083118015611bb45750600082115b611bbd57600080fd5b6000611bcb856103e5611c04565b90506000611bd98285611c04565b90506000611bed836119fa886103e8611c04565b9050611bf98183612449565b979650505050505050565b6000821580611c2857508183611c1a82826124a6565b9250611c269083612449565b145b61105057600080fd5b600082611c3e838261222f565b915081111561105057600080fd5b600082611c598382612375565b915081101561105057600080fd5b6060611c768484600085611c7e565b949350505050565b606082471015611cf65760405162461bcd60e51b815260206004820152602660248201527f416464726573733a20696e73756666696369656e742062616c616e636520666f60448201527f722063616c6c0000000000000000000000000000000000000000000000000000606482015260840161035d565b6001600160a01b0385163b611d4d5760405162461bcd60e51b815260206004820152601d60248201527f416464726573733a2063616c6c20746f206e6f6e2d636f6e7472616374000000604482015260640161035d565b600080866001600160a01b03168587604051611d6991906124c5565b60006040518083038185875af1925050503d8060008114611da6576040519150601f19603f3d011682016040523d82523d6000602084013e611dab565b606091505b5091509150611bf982828660608315611dc5575081610559565b825115611dd55782518084602001fd5b8160405162461bcd60e51b815260040161035d91906124e1565b6001600160a01b0381168114611e0457600080fd5b50565b600080600060608486031215611e1c57600080fd5b8335611e2781611def565b92506020840135611e3781611def565b929592945050506040919091013590565b60005b83811015611e63578181015183820152602001611e4b565b83811115611e72576000848401525b50505050565b60008151808452611e90816020860160208601611e48565b601f01601f19169290920160200192915050565b828152604060208201526000611c766040830184611e78565b7f4e487b7100000000000000000000000000000000000000000000000000000000600052604160045260246000fd5b604051601f8201601f1916810167ffffffffffffffff81118282101715611f1557611f15611ebd565b604052919050565b600067ffffffffffffffff821115611f3757611f37611ebd565b5060051b60200190565b60008060408385031215611f5457600080fd5b8235915060208084013567ffffffffffffffff811115611f7357600080fd5b8401601f81018613611f8457600080fd5b8035611f97611f9282611f1d565b611eec565b81815260059190911b82018301908381019088831115611fb657600080fd5b928401925b82841015611fdd578335611fce81611def565b82529284019290840190611fbb565b80955050505050509250929050565b60008060408385031215611fff57600080fd5b8235915060208084013567ffffffffffffffff8082111561201f57600080fd5b818601915086601f83011261203357600080fd5b81358181111561204557612045611ebd565b61205784601f19601f84011601611eec565b9150808252878482850101111561206d57600080fd5b80848401858401376000848284010152508093505050509250929050565b60008083601f84011261209d57600080fd5b50813567ffffffffffffffff8111156120b557600080fd5b602083019150836020828501011115611a6757600080fd5b6000806000806000608086880312156120e557600080fd5b853567ffffffffffffffff8111156120fc57600080fd5b6121088882890161208b565b9096509450506020860135925060408601359150606086013561212a81611def565b809150509295509295909350565b60006020828403121561214a57600080fd5b813561104d81611def565b60008060008060008060a0878903121561216e57600080fd5b863567ffffffffffffffff81111561218557600080fd5b61219189828a0161208b565b909750955050602087013593506040870135925060608701356121b381611def565b915060808701356121c381611def565b809150509295509295509295565b7f4e487b7100000000000000000000000000000000000000000000000000000000600052603260045260246000fd5b7f4e487b7100000000000000000000000000000000000000000000000000000000600052601160045260246000fd5b60008282101561224157612241612200565b500390565b60006020828403121561225857600080fd5b5051919050565b600081518084526020808501945080840160005b838110156122985781516001600160a01b031687529582019590820190600101612273565b509495945050505050565b828152604060208201526000611c76604083018461225f565b602081526000610559602083018461225f565b6000816122de576122de612200565b506000190190565b600060208083850312156122f957600080fd5b825167ffffffffffffffff81111561231057600080fd5b8301601f8101851361232157600080fd5b805161232f611f9282611f1d565b81815260059190911b8201830190838101908783111561234e57600080fd5b928401925b82841015611bf957835161236681611def565b82529284019290840190612353565b6000821982111561238857612388612200565b500190565b80516dffffffffffffffffffffffffffff811681146123ab57600080fd5b919050565b6000806000606084860312156123c557600080fd5b6123ce8461238d565b92506123dc6020850161238d565b9150604084015163ffffffff811681146123f557600080fd5b809150509250925092565b8481528360208201526001600160a01b0383166040820152608060608201526000611a006080830184611e78565b600060001982141561244257612442612200565b5060010190565b60008261247f577f4e487b7100000000000000000000000000000000000000000000000000000000600052601260045260246000fd5b500490565b60006020828403121561249657600080fd5b8151801515811461104d57600080fd5b60008160001904831182151516156124c0576124c0612200565b500290565b600082516124d7818460208701611e48565b9190910192915050565b6020815260006105596020830184611e7856fea2646970667358221220b09c966d64ae890afeaa555aec42ceaf9dd430ff01fa7b13dcb2481149997bfa64736f6c63430008090033",
  "devdoc": {
    "kind": "dev",
    "methods": {
      "acceptGovernorship()": {
        "details": "Allows new governor to accept governorship of the contract."
      },
      "constructor": {
        "details": "Doesn't consider router.WETH() as `wethLike` because isn't guaranteed that it's the most liquid token."
      },
      "getAmountsIn(uint256,address[])": {
        "details": "getBestAmountIn require a try/catch version of getAmountsIn and try/catch do not work with internal library functions, hence wrapped library call in this function so that it can be used in try/catch"
      },
      "getAmountsIn(uint256,bytes)": {
        "details": "It shouldn't be used as oracle!!!"
      },
      "getAmountsOut(uint256,address[])": {
        "details": "getBestAmountOut require a try/catch version of getAmountsOut and try/catch do not work with internal library functions, hence wrapped library call in this function so that it can be used in try/catch"
      },
      "getAmountsOut(uint256,bytes)": {
        "details": "It shouldn't be used as oracle!!!"
      },
      "getBestAmountIn(address,address,uint256)": {
        "details": "It shouldn't be used as oracle!!!"
      },
      "getBestAmountOut(address,address,uint256)": {
        "details": "It shouldn't be used as oracle!!!"
      },
      "swapExactInput(bytes,uint256,uint256,address)": {
        "details": "Should transfer `amountIn_` before performing swap"
      },
      "swapExactOutput(bytes,uint256,uint256,address,address)": {
        "details": "Should transfer `amountInMax_` before performing swapSends swap remains - if any - to the `inSender_`"
      },
      "transferGovernorship(address)": {
        "details": "Transfers governorship of the contract to a new account (`proposedGovernor`). Can only be called by the current owner."
      }
    },
    "stateVariables": {
      "wethLike": {
        "details": "I.e. should be the most liquid token that offer best routers among trade pairsIt's usually the wrapper token of the chain's native coin but it isn't always true For instance: On Polygon, the `WETH` is more liquid than `WMATIC` on UniV3 protocol."
      }
    },
    "version": 1
  },
  "userdoc": {
    "events": {
      "WethLikeTokenUpdated(address,address)": {
        "notice": "Emitted when wethLike token is updated"
      }
    },
    "kind": "user",
    "methods": {
      "factory()": {
        "notice": "The UniswapV2-Like factory contract"
      },
      "getAmountsIn(uint256,bytes)": {
        "notice": "Get *spot* quote It will return the swap amount based on the current reserves of the given path (i.e. spot price)"
      },
      "getAmountsOut(uint256,bytes)": {
        "notice": "Get *spot* quote It will return the swap amount based on the current reserves of the given path (i.e. spot price)"
      },
      "getBestAmountIn(address,address,uint256)": {
        "notice": "Get *spot* quote It will return the swap amount based on the current reserves of the best pair/path found (i.e. spot price)"
      },
      "getBestAmountOut(address,address,uint256)": {
        "notice": "Get *spot* quote It will return the swap amount based on the current reserves of the best pair/path found (i.e. spot price)"
      },
      "swapExactInput(bytes,uint256,uint256,address)": {
        "notice": "Perform an exact input swap"
      },
      "swapExactOutput(bytes,uint256,uint256,address,address)": {
        "notice": "Perform an exact output swap"
      },
      "updateWethLikeToken(address)": {
        "notice": "Update WETH-Like token"
      },
      "wethLike()": {
        "notice": "The WETH-Like token (a.k.a. Native Token)"
      }
    },
    "notice": "UniswapV2 Like Exchange",
    "version": 1
  },
  "storageLayout": {
    "storage": [
      {
        "astId": 420,
        "contract": "contracts/swapper/UniswapV2LikeExchange.sol:UniswapV2LikeExchange",
        "label": "_initialized",
        "offset": 0,
        "slot": "0",
        "type": "t_uint8"
      },
      {
        "astId": 423,
        "contract": "contracts/swapper/UniswapV2LikeExchange.sol:UniswapV2LikeExchange",
        "label": "_initializing",
        "offset": 1,
        "slot": "0",
        "type": "t_bool"
      },
      {
        "astId": 6513,
        "contract": "contracts/swapper/UniswapV2LikeExchange.sol:UniswapV2LikeExchange",
        "label": "governor",
        "offset": 2,
        "slot": "0",
        "type": "t_address"
      },
      {
        "astId": 6515,
        "contract": "contracts/swapper/UniswapV2LikeExchange.sol:UniswapV2LikeExchange",
        "label": "proposedGovernor",
        "offset": 0,
        "slot": "1",
        "type": "t_address"
      },
      {
        "astId": 16104,
        "contract": "contracts/swapper/UniswapV2LikeExchange.sol:UniswapV2LikeExchange",
        "label": "wethLike",
        "offset": 0,
        "slot": "2",
        "type": "t_address"
      }
    ],
    "types": {
      "t_address": {
        "encoding": "inplace",
        "label": "address",
        "numberOfBytes": "20"
      },
      "t_bool": {
        "encoding": "inplace",
        "label": "bool",
        "numberOfBytes": "1"
      },
      "t_uint8": {
        "encoding": "inplace",
        "label": "uint8",
        "numberOfBytes": "1"
      }
    }
  }
}