{
  "address": "0x82611C86d98Bd0730b0460ea7D5Dc5Da327F00eE",
  "abi": [
    {
      "inputs": [
        {
          "internalType": "uint256",
          "name": "stalePeriod_",
          "type": "uint256"
        }
      ],
      "stateMutability": "nonpayable",
      "type": "constructor"
    },
    {
      "anonymous": false,
      "inputs": [
        {
          "indexed": false,
          "internalType": "address",
          "name": "token",
          "type": "address"
        },
        {
          "indexed": false,
          "internalType": "uint256",
          "name": "oldStalePeriod",
          "type": "uint256"
        },
        {
          "indexed": false,
          "internalType": "uint256",
          "name": "newStalePeriod",
          "type": "uint256"
        }
      ],
      "name": "CustomStalePeriodUpdated",
      "type": "event"
    },
    {
      "anonymous": false,
      "inputs": [
        {
          "indexed": false,
          "internalType": "uint256",
          "name": "oldStalePeriod",
          "type": "uint256"
        },
        {
          "indexed": false,
          "internalType": "uint256",
          "name": "newStalePeriod",
          "type": "uint256"
        }
      ],
      "name": "DefaultStalePeriodUpdated",
      "type": "event"
    },
    {
      "inputs": [],
      "name": "addressProvider",
      "outputs": [
        {
          "internalType": "contract IAddressProvider",
          "name": "",
          "type": "address"
        }
      ],
      "stateMutability": "view",
      "type": "function"
    },
    {
      "inputs": [],
      "name": "defaultStalePeriod",
      "outputs": [
        {
          "internalType": "uint256",
          "name": "",
          "type": "uint256"
        }
      ],
      "stateMutability": "view",
      "type": "function"
    },
    {
      "inputs": [
        {
          "internalType": "address",
          "name": "token_",
          "type": "address"
        }
      ],
      "name": "getPriceInUsd",
      "outputs": [
        {
          "internalType": "uint256",
          "name": "_priceInUsd",
          "type": "uint256"
        }
      ],
      "stateMutability": "view",
      "type": "function"
    },
    {
      "inputs": [
        {
          "internalType": "address",
          "name": "tokenIn_",
          "type": "address"
        },
        {
          "internalType": "address",
          "name": "tokenOut_",
          "type": "address"
        },
        {
          "internalType": "uint256",
          "name": "amountIn_",
          "type": "uint256"
        }
      ],
      "name": "quote",
      "outputs": [
        {
          "internalType": "uint256",
          "name": "_amountOut",
          "type": "uint256"
        }
      ],
      "stateMutability": "view",
      "type": "function"
    },
    {
      "inputs": [
        {
          "internalType": "address",
          "name": "token_",
          "type": "address"
        },
        {
          "internalType": "uint256",
          "name": "amountIn_",
          "type": "uint256"
        }
      ],
      "name": "quoteTokenToUsd",
      "outputs": [
        {
          "internalType": "uint256",
          "name": "_amountOut",
          "type": "uint256"
        }
      ],
      "stateMutability": "view",
      "type": "function"
    },
    {
      "inputs": [
        {
          "internalType": "address",
          "name": "token_",
          "type": "address"
        },
        {
          "internalType": "uint256",
          "name": "amountIn_",
          "type": "uint256"
        }
      ],
      "name": "quoteUsdToToken",
      "outputs": [
        {
          "internalType": "uint256",
          "name": "_amountOut",
          "type": "uint256"
        }
      ],
      "stateMutability": "view",
      "type": "function"
    },
    {
      "inputs": [
        {
          "internalType": "address",
          "name": "token_",
          "type": "address"
        }
      ],
      "name": "stalePeriodOf",
      "outputs": [
        {
          "internalType": "uint256",
          "name": "_stalePeriod",
          "type": "uint256"
        }
      ],
      "stateMutability": "view",
      "type": "function"
    },
    {
      "inputs": [
        {
          "internalType": "address",
          "name": "token_",
          "type": "address"
        },
        {
          "internalType": "uint256",
          "name": "stalePeriod_",
          "type": "uint256"
        }
      ],
      "name": "updateCustomStalePeriod",
      "outputs": [],
      "stateMutability": "nonpayable",
      "type": "function"
    },
    {
      "inputs": [
        {
          "internalType": "uint256",
          "name": "stalePeriod_",
          "type": "uint256"
        }
      ],
      "name": "updateDefaultStalePeriod",
      "outputs": [],
      "stateMutability": "nonpayable",
      "type": "function"
    }
  ],
  "transactionHash": "0x7aba2330216817d71f881f9392294b15063ad6f6fc9fcdb41dd44d6170e4f2b8",
  "args": [
    86400
  ],
  "numDeployments": 1,
  "solcInputHash": "e04a8a7ff0f0e4be0e617fa3b289ec90",
  "bytecode": "0x608060405234801561001057600080fd5b50604051610cbb380380610cbb83398101604081905261002f91610037565b600055610050565b60006020828403121561004957600080fd5b5051919050565b610c5c8061005f6000396000f3fe608060405234801561001057600080fd5b50600436106100a35760003560e01c80638d0dba0011610076578063b64663841161005b578063b64663841461014f578063cafe465f14610162578063ec8969bf1461016b57600080fd5b80638d0dba0014610129578063b5e9bef51461013c57600080fd5b806307ee40bf146100a85780632954018c146100ce5780636ad7e14b146101015780637cf295a014610116575b600080fd5b6100bb6100b6366004610a1a565b61017e565b6040519081526020015b60405180910390f35b6100e973fba0816a81bcabbf3829bed28618177a2bf0e82a81565b6040516001600160a01b0390911681526020016100c5565b61011461010f366004610a37565b6102f5565b005b610114610124366004610a50565b61041b565b6100bb610137366004610a50565b6105ec565b6100bb61014a366004610a50565b610761565b6100bb61015d366004610a7c565b610819565b6100bb60005481565b6100bb610179366004610a1a565b6109aa565b60008073fba0816a81bcabbf3829bed28618177a2bf0e82a6001600160a01b0316638f8e162c6040518163ffffffff1660e01b815260040160206040518083038186803b1580156101ce57600080fd5b505afa1580156101e2573d6000803e3d6000fd5b505050506040513d601f19601f820116820180604052508101906102069190610abd565b6001600160a01b031663828509486001856040518363ffffffff1660e01b8152600401610234929190610b15565b604080518083038186803b15801561024b57600080fd5b505afa15801561025f573d6000803e3d6000fd5b505050506040513d601f19601f820116820180604052508101906102839190610b39565b9092509050811580159061029e575061029c83826109d2565b155b6102ef5760405162461bcd60e51b815260206004820152600d60248201527f70726963652d696e76616c69640000000000000000000000000000000000000060448201526064015b60405180910390fd5b50919050565b73fba0816a81bcabbf3829bed28618177a2bf0e82a6001600160a01b0316630c340a246040518163ffffffff1660e01b815260040160206040518083038186803b15801561034257600080fd5b505afa158015610356573d6000803e3d6000fd5b505050506040513d601f19601f8201168201806040525081019061037a9190610abd565b6001600160a01b0316336001600160a01b0316146103da5760405162461bcd60e51b815260206004820152600c60248201527f6e6f742d676f7665726e6f72000000000000000000000000000000000000000060448201526064016102e6565b60005460408051918252602082018390527f2298ab1c5c06d8c35fa98988c0f4a11eabd87ee1f630d5633b8eef025c4fba5c910160405180910390a1600055565b73fba0816a81bcabbf3829bed28618177a2bf0e82a6001600160a01b0316630c340a246040518163ffffffff1660e01b815260040160206040518083038186803b15801561046857600080fd5b505afa15801561047c573d6000803e3d6000fd5b505050506040513d601f19601f820116820180604052508101906104a09190610abd565b6001600160a01b0316336001600160a01b0316146105005760405162461bcd60e51b815260206004820152600c60248201527f6e6f742d676f7665726e6f72000000000000000000000000000000000000000060448201526064016102e6565b6001600160a01b0382166105565760405162461bcd60e51b815260206004820152600d60248201527f746f6b656e2d69732d6e756c6c0000000000000000000000000000000000000060448201526064016102e6565b6001600160a01b0382166000818152600160209081526040918290205482519384529083015281018290527ff8186f97b3fdb2550b9756b668187a5196e4e023b0090dcdf93bfbb2999fae549060600160405180910390a180156105d1576001600160a01b0391909116600090815260016020526040902055565b506001600160a01b0316600090815260016020526040812055565b60008073fba0816a81bcabbf3829bed28618177a2bf0e82a6001600160a01b0316638f8e162c6040518163ffffffff1660e01b815260040160206040518083038186803b15801561063c57600080fd5b505afa158015610650573d6000803e3d6000fd5b505050506040513d601f19601f820116820180604052508101906106749190610abd565b6001600160a01b0316632b041e3a600186866040518463ffffffff1660e01b81526004016106a493929190610b5d565b604080518083038186803b1580156106bb57600080fd5b505afa1580156106cf573d6000803e3d6000fd5b505050506040513d601f19601f820116820180604052508101906106f39190610b39565b9092509050811580159061070e575061070c84826109d2565b155b61075a5760405162461bcd60e51b815260206004820152600d60248201527f70726963652d696e76616c69640000000000000000000000000000000000000060448201526064016102e6565b5092915050565b60008073fba0816a81bcabbf3829bed28618177a2bf0e82a6001600160a01b0316638f8e162c6040518163ffffffff1660e01b815260040160206040518083038186803b1580156107b157600080fd5b505afa1580156107c5573d6000803e3d6000fd5b505050506040513d601f19601f820116820180604052508101906107e99190610abd565b6001600160a01b031663777f1be9600186866040518463ffffffff1660e01b81526004016106a493929190610b5d565b600080600073fba0816a81bcabbf3829bed28618177a2bf0e82a6001600160a01b0316638f8e162c6040518163ffffffff1660e01b815260040160206040518083038186803b15801561086b57600080fd5b505afa15801561087f573d6000803e3d6000fd5b505050506040513d601f19601f820116820180604052508101906108a39190610abd565b6001600160a01b031663037c696a60018888886040518563ffffffff1660e01b81526004016108d59493929190610b85565b60606040518083038186803b1580156108ed57600080fd5b505afa158015610901573d6000803e3d6000fd5b505050506040513d601f19601f820116820180604052508101906109259190610bba565b919450925090508215801590610942575061094086836109d2565b155b8015610955575061095386826109d2565b155b6109a15760405162461bcd60e51b815260206004820152600d60248201527f70726963652d696e76616c69640000000000000000000000000000000000000060448201526064016102e6565b50509392505050565b6001600160a01b038116600090815260016020526040902054806109cd57506000545b919050565b60006109e6826109e1856109aa565b6109ed565b9392505050565b6000816109fa8442610be8565b119392505050565b6001600160a01b0381168114610a1757600080fd5b50565b600060208284031215610a2c57600080fd5b81356109e681610a02565b600060208284031215610a4957600080fd5b5035919050565b60008060408385031215610a6357600080fd5b8235610a6e81610a02565b946020939093013593505050565b600080600060608486031215610a9157600080fd5b8335610a9c81610a02565b92506020840135610aac81610a02565b929592945050506040919091013590565b600060208284031215610acf57600080fd5b81516109e681610a02565b600a8110610b11577f4e487b7100000000000000000000000000000000000000000000000000000000600052602160045260246000fd5b9052565b60408101610b238285610ada565b6001600160a01b03831660208301529392505050565b60008060408385031215610b4c57600080fd5b505080516020909101519092909150565b60608101610b6b8286610ada565b6001600160a01b0393909316602082015260400152919050565b60808101610b938287610ada565b6001600160a01b039485166020830152929093166040840152606090920191909152919050565b600080600060608486031215610bcf57600080fd5b8351925060208401519150604084015190509250925092565b600082821015610c21577f4e487b7100000000000000000000000000000000000000000000000000000000600052601160045260246000fd5b50039056fea264697066735822122088473d56d5b223c1c4f55f0cac4164b51645e77b85058e5b72648cae875bafc364736f6c63430008090033",
  "devdoc": {
    "kind": "dev",
    "methods": {
      "getPriceInUsd(address)": {
        "params": {
          "token_": "The address of asset"
        },
        "returns": {
          "_priceInUsd": "The USD price"
        }
      },
      "quote(address,address,uint256)": {
        "params": {
          "amountIn_": "Amount of input token",
          "tokenIn_": "The address of assetIn",
          "tokenOut_": "The address of assetOut"
        },
        "returns": {
          "_amountOut": "Amount out"
        }
      },
      "quoteTokenToUsd(address,uint256)": {
        "params": {
          "amountIn_": "Amount of input token.",
          "token_": "The address of assetIn"
        },
        "returns": {
          "_amountOut": "Amount in USD"
        }
      },
      "quoteUsdToToken(address,uint256)": {
        "params": {
          "amountIn_": "Input amount in USD",
          "token_": "The address of assetOut"
        },
        "returns": {
          "_amountOut": "Output amount of token"
        }
      },
      "updateCustomStalePeriod(address,uint256)": {
        "details": "Use `0` as `stalePeriod_` to remove custom stale period"
      }
    },
    "title": "Chainlink oracle",
    "version": 1
  },
  "userdoc": {
    "events": {
      "CustomStalePeriodUpdated(address,uint256,uint256)": {
        "notice": "Emitted when custom stale period is updated"
      },
      "DefaultStalePeriodUpdated(uint256,uint256)": {
        "notice": "Emitted when default stale period is updated"
      }
    },
    "kind": "user",
    "methods": {
      "defaultStalePeriod()": {
        "notice": "The default stale period. It's used to determine if a price is invalid (i.e. outdated)"
      },
      "getPriceInUsd(address)": {
        "notice": "Get USD (or equivalent) price of an asset"
      },
      "quote(address,address,uint256)": {
        "notice": "Get quote"
      },
      "quoteTokenToUsd(address,uint256)": {
        "notice": "Get quote in USD (or equivalent) amount"
      },
      "quoteUsdToToken(address,uint256)": {
        "notice": "Get quote from USD (or equivalent) amount to amount of token"
      },
      "stalePeriodOf(address)": {
        "notice": "Get stale period of a token"
      },
      "updateCustomStalePeriod(address,uint256)": {
        "notice": "Update custom stale period"
      },
      "updateDefaultStalePeriod(uint256)": {
        "notice": "Update default stale period"
      }
    },
    "version": 1
  },
  "storageLayout": {
    "storage": [
      {
        "astId": 9718,
        "contract": "contracts/periphery/ChainlinkOracle.sol:ChainlinkOracle",
        "label": "defaultStalePeriod",
        "offset": 0,
        "slot": "0",
        "type": "t_uint256"
      },
      {
        "astId": 9723,
        "contract": "contracts/periphery/ChainlinkOracle.sol:ChainlinkOracle",
        "label": "customStalePeriod",
        "offset": 0,
        "slot": "1",
        "type": "t_mapping(t_address,t_uint256)"
      }
    ],
    "types": {
      "t_address": {
        "encoding": "inplace",
        "label": "address",
        "numberOfBytes": "20"
      },
      "t_mapping(t_address,t_uint256)": {
        "encoding": "mapping",
        "key": "t_address",
        "label": "mapping(address => uint256)",
        "numberOfBytes": "32",
        "value": "t_uint256"
      },
      "t_uint256": {
        "encoding": "inplace",
        "label": "uint256",
        "numberOfBytes": "32"
      }
    }
  }
}