{
  "address": "0x1C8f469e3c1D87B108eC69b165037d5d7365F8C3",
  "abi": [
    {
      "inputs": [],
      "stateMutability": "nonpayable",
      "type": "constructor"
    },
    {
      "anonymous": false,
      "inputs": [
        {
          "indexed": false,
          "internalType": "address",
          "name": "token",
          "type": "address"
        },
        {
          "indexed": false,
          "internalType": "contract AggregatorV3Interface",
          "name": "oldAggregator",
          "type": "address"
        },
        {
          "indexed": false,
          "internalType": "contract AggregatorV3Interface",
          "name": "newAggregator",
          "type": "address"
        }
      ],
      "name": "AggregatorUpdated",
      "type": "event"
    },
    {
      "inputs": [],
      "name": "CHAINLINK_DECIMALS",
      "outputs": [
        {
          "internalType": "uint256",
          "name": "",
          "type": "uint256"
        }
      ],
      "stateMutability": "view",
      "type": "function"
    },
    {
      "inputs": [],
      "name": "TO_SCALE",
      "outputs": [
        {
          "internalType": "uint256",
          "name": "",
          "type": "uint256"
        }
      ],
      "stateMutability": "view",
      "type": "function"
    },
    {
      "inputs": [],
      "name": "USD_DECIMALS",
      "outputs": [
        {
          "internalType": "uint256",
          "name": "",
          "type": "uint256"
        }
      ],
      "stateMutability": "view",
      "type": "function"
    },
    {
      "inputs": [],
      "name": "addressProvider",
      "outputs": [
        {
          "internalType": "contract IAddressProvider",
          "name": "",
          "type": "address"
        }
      ],
      "stateMutability": "view",
      "type": "function"
    },
    {
      "inputs": [
        {
          "internalType": "address",
          "name": "",
          "type": "address"
        }
      ],
      "name": "aggregators",
      "outputs": [
        {
          "internalType": "contract AggregatorV3Interface",
          "name": "",
          "type": "address"
        }
      ],
      "stateMutability": "view",
      "type": "function"
    },
    {
      "inputs": [
        {
          "internalType": "address",
          "name": "token_",
          "type": "address"
        }
      ],
      "name": "getPriceInUsd",
      "outputs": [
        {
          "internalType": "uint256",
          "name": "_priceInUsd",
          "type": "uint256"
        },
        {
          "internalType": "uint256",
          "name": "_lastUpdatedAt",
          "type": "uint256"
        }
      ],
      "stateMutability": "view",
      "type": "function"
    },
    {
      "inputs": [
        {
          "internalType": "address",
          "name": "tokenIn_",
          "type": "address"
        },
        {
          "internalType": "address",
          "name": "tokenOut_",
          "type": "address"
        },
        {
          "internalType": "uint256",
          "name": "amountIn_",
          "type": "uint256"
        }
      ],
      "name": "quote",
      "outputs": [
        {
          "internalType": "uint256",
          "name": "_amountOut",
          "type": "uint256"
        },
        {
          "internalType": "uint256",
          "name": "_tokenInLastUpdatedAt",
          "type": "uint256"
        },
        {
          "internalType": "uint256",
          "name": "_tokenOutLastUpdatedAt",
          "type": "uint256"
        }
      ],
      "stateMutability": "view",
      "type": "function"
    },
    {
      "inputs": [
        {
          "internalType": "address",
          "name": "token_",
          "type": "address"
        },
        {
          "internalType": "uint256",
          "name": "amountIn_",
          "type": "uint256"
        }
      ],
      "name": "quoteTokenToUsd",
      "outputs": [
        {
          "internalType": "uint256",
          "name": "_amountOut",
          "type": "uint256"
        },
        {
          "internalType": "uint256",
          "name": "_lastUpdatedAt",
          "type": "uint256"
        }
      ],
      "stateMutability": "view",
      "type": "function"
    },
    {
      "inputs": [
        {
          "internalType": "address",
          "name": "token_",
          "type": "address"
        },
        {
          "internalType": "uint256",
          "name": "amountIn_",
          "type": "uint256"
        }
      ],
      "name": "quoteUsdToToken",
      "outputs": [
        {
          "internalType": "uint256",
          "name": "_amountOut",
          "type": "uint256"
        },
        {
          "internalType": "uint256",
          "name": "_lastUpdatedAt",
          "type": "uint256"
        }
      ],
      "stateMutability": "view",
      "type": "function"
    },
    {
      "inputs": [
        {
          "internalType": "address",
          "name": "token_",
          "type": "address"
        },
        {
          "internalType": "contract AggregatorV3Interface",
          "name": "aggregator_",
          "type": "address"
        }
      ],
      "name": "updateAggregator",
      "outputs": [],
      "stateMutability": "nonpayable",
      "type": "function"
    }
  ],
  "transactionHash": "0x23de98332e8259e77eb7084122538ea1e8fe1ad7b1f13d6559e1c5c401e012f4",
  "args": [],
  "numDeployments": 1,
  "solcInputHash": "e0aa8a19d2d51e643de6dd8ddedbf8db",
  "bytecode": "0x608060405234801561001057600080fd5b5061004373824d8fcdc36e81618377d140bec12c3b7e4e4cba7331a36cdf4465ba61ce78f5cdba26fdf8ec3618036100de565b61007573bba60da06c2c5424f03f7434542280fcad453d1073e8d9fbc10e00ecc9f0694617075fdaf657a76fb26100de565b6100a77303c7054bcb39f7b2e5b2c7acb37583e32d70cfa373e23eca12d7d2ed3829499556f6dce06642afd9906100de565b6100d973420000000000000000000000000000000000000673b9d0073acb296719c26a8bf156e4b599174fe1d56100de565b610202565b6001600160a01b038116158061016757506008816001600160a01b031663313ce5676040518163ffffffff1660e01b815260040160206040518083038186803b15801561012a57600080fd5b505afa15801561013e573d6000803e3d6000fd5b505050506040513d601f19601f8201168201806040525081019061016291906101d8565b60ff16145b6101aa5760405162461bcd60e51b815260206004820152601060248201526f696e76616c69642d646563696d616c7360801b604482015260640160405180910390fd5b6001600160a01b03918216600090815260208190526040902080546001600160a01b03191691909216179055565b6000602082840312156101ea57600080fd5b815160ff811681146101fb57600080fd5b9392505050565b610c51806102116000396000f3fe608060405234801561001057600080fd5b50600436106100be5760003560e01c80638d0dba0011610076578063b5e9bef51161005b578063b5e9bef5146101ac578063b6466384146101bf578063dee7aba4146101ed57600080fd5b80638d0dba001461018457806393d1f99e1461019757600080fd5b80632954018c116100a75780632954018c1461014b5780632f6ee6951461016657806334ec2a3a1461017c57600080fd5b806307ee40bf146100c3578063112cdab9146100f0575b600080fd5b6100d66100d1366004610901565b6101f5565b604080519283526020830191909152015b60405180910390f35b6101266100fe366004610901565b60006020819052908152604090205473ffffffffffffffffffffffffffffffffffffffff1681565b60405173ffffffffffffffffffffffffffffffffffffffff90911681526020016100e7565b61012673fba0816a81bcabbf3829bed28618177a2bf0e82a81565b61016e601281565b6040519081526020016100e7565b61016e600881565b6100d6610192366004610925565b610330565b6101aa6101a5366004610951565b6103ed565b005b6100d66101ba366004610925565b61063e565b6101d26101cd36600461098a565b6106fd565b604080519384526020840192909252908201526060016100e7565b61016e61072a565b73ffffffffffffffffffffffffffffffffffffffff8082166000908152602081905260408120549091829116806102735760405162461bcd60e51b815260206004820152601860248201527f746f6b656e2d776974686f75742d61676772656761746f72000000000000000060448201526064015b60405180910390fd5b60008173ffffffffffffffffffffffffffffffffffffffff1663feaf968c6040518163ffffffff1660e01b815260040160a06040518083038186803b1580156102bb57600080fd5b505afa1580156102cf573d6000803e3d6000fd5b505050506040513d601f19601f820116820180604052508101906102f391906109ea565b5095509092506103099150600890506012610a69565b61031490600a610b66565b61031d82610744565b6103279190610b72565b93505050915091565b600080600061033e856101f5565b80935081925050508473ffffffffffffffffffffffffffffffffffffffff1663313ce5676040518163ffffffff1660e01b815260040160206040518083038186803b15801561038c57600080fd5b505afa1580156103a0573d6000803e3d6000fd5b505050506040513d601f19601f820116820180604052508101906103c49190610b91565b6103cf90600a610bb4565b6103d98286610b72565b6103e39190610bc3565b9250509250929050565b73fba0816a81bcabbf3829bed28618177a2bf0e82a73ffffffffffffffffffffffffffffffffffffffff16630c340a246040518163ffffffff1660e01b815260040160206040518083038186803b15801561044757600080fd5b505afa15801561045b573d6000803e3d6000fd5b505050506040513d601f19601f8201168201806040525081019061047f9190610bfe565b73ffffffffffffffffffffffffffffffffffffffff163373ffffffffffffffffffffffffffffffffffffffff16146104f95760405162461bcd60e51b815260206004820152600c60248201527f6e6f742d676f7665726e6f720000000000000000000000000000000000000000604482015260640161026a565b73ffffffffffffffffffffffffffffffffffffffff821661055c5760405162461bcd60e51b815260206004820152600d60248201527f746f6b656e2d69732d6e756c6c00000000000000000000000000000000000000604482015260640161026a565b73ffffffffffffffffffffffffffffffffffffffff80831660009081526020819052604090205481169082168114156105d75760405162461bcd60e51b815260206004820152600f60248201527f73616d652d61732d63757272656e740000000000000000000000000000000000604482015260640161026a565b6105e1838361079a565b6040805173ffffffffffffffffffffffffffffffffffffffff8581168252838116602083015284168183015290517f589e912830d38d62f14a6cf3cea8f8a002fc9288b37f0d914b5e7dc107d278bf9181900360600190a1505050565b600080600061064c856101f5565b92509050806106625760008092509250506106f6565b808573ffffffffffffffffffffffffffffffffffffffff1663313ce5676040518163ffffffff1660e01b815260040160206040518083038186803b1580156106a957600080fd5b505afa1580156106bd573d6000803e3d6000fd5b505050506040513d601f19601f820116820180604052508101906106e19190610b91565b6106ec90600a610bb4565b6103d99086610b72565b9250929050565b60008060008061070d8786610330565b9350905061071b868261063e565b90989397509550919350505050565b61073660086012610a69565b61074190600a610b66565b81565b6000808212156107965760405162461bcd60e51b815260206004820181905260248201527f53616665436173743a2076616c7565206d75737420626520706f736974697665604482015260640161026a565b5090565b73ffffffffffffffffffffffffffffffffffffffff8116158061083d575060088173ffffffffffffffffffffffffffffffffffffffff1663313ce5676040518163ffffffff1660e01b815260040160206040518083038186803b15801561080057600080fd5b505afa158015610814573d6000803e3d6000fd5b505050506040513d601f19601f820116820180604052508101906108389190610b91565b60ff16145b6108895760405162461bcd60e51b815260206004820152601060248201527f696e76616c69642d646563696d616c7300000000000000000000000000000000604482015260640161026a565b73ffffffffffffffffffffffffffffffffffffffff918216600090815260208190526040902080547fffffffffffffffffffffffff00000000000000000000000000000000000000001691909216179055565b73ffffffffffffffffffffffffffffffffffffffff811681146108fe57600080fd5b50565b60006020828403121561091357600080fd5b813561091e816108dc565b9392505050565b6000806040838503121561093857600080fd5b8235610943816108dc565b946020939093013593505050565b6000806040838503121561096457600080fd5b823561096f816108dc565b9150602083013561097f816108dc565b809150509250929050565b60008060006060848603121561099f57600080fd5b83356109aa816108dc565b925060208401356109ba816108dc565b929592945050506040919091013590565b805169ffffffffffffffffffff811681146109e557600080fd5b919050565b600080600080600060a08688031215610a0257600080fd5b610a0b866109cb565b9450602086015193506040860151925060608601519150610a2e608087016109cb565b90509295509295909350565b7f4e487b7100000000000000000000000000000000000000000000000000000000600052601160045260246000fd5b600082821015610a7b57610a7b610a3a565b500390565b600181815b80851115610abb578160001904821115610aa157610aa1610a3a565b80851615610aae57918102915b93841c9390800290610a85565b509250929050565b600082610ad257506001610b60565b81610adf57506000610b60565b8160018114610af55760028114610aff57610b1b565b6001915050610b60565b60ff841115610b1057610b10610a3a565b50506001821b610b60565b5060208310610133831016604e8410600b8410161715610b3e575081810a610b60565b610b488383610a80565b8060001904821115610b5c57610b5c610a3a565b0290505b92915050565b600061091e8383610ac3565b6000816000190483118215151615610b8c57610b8c610a3a565b500290565b600060208284031215610ba357600080fd5b815160ff8116811461091e57600080fd5b600061091e60ff841683610ac3565b600082610bf9577f4e487b7100000000000000000000000000000000000000000000000000000000600052601260045260246000fd5b500490565b600060208284031215610c1057600080fd5b815161091e816108dc56fea2646970667358221220db01c9fcc513ebe2e73be23800b6bf4aa2dbab3b884092bddf4a830268a9db1264736f6c63430008090033",
  "devdoc": {
    "kind": "dev",
    "methods": {
      "getPriceInUsd(address)": {
        "params": {
          "token_": "The address of asset"
        },
        "returns": {
          "_lastUpdatedAt": "Last updated timestamp",
          "_priceInUsd": "The USD price"
        }
      },
      "quote(address,address,uint256)": {
        "params": {
          "amountIn_": "Amount of input token",
          "tokenIn_": "The address of assetIn",
          "tokenOut_": "The address of assetOut"
        },
        "returns": {
          "_amountOut": "Amount out",
          "_tokenInLastUpdatedAt": "Last updated timestamp of `tokenIn_`",
          "_tokenOutLastUpdatedAt": "Last updated timestamp of `tokenOut_`"
        }
      },
      "quoteTokenToUsd(address,uint256)": {
        "params": {
          "amountIn_": "Amount of input token.",
          "token_": "The address of assetIn"
        },
        "returns": {
          "_amountOut": "Amount in USD",
          "_lastUpdatedAt": "Last updated timestamp"
        }
      },
      "quoteUsdToToken(address,uint256)": {
        "params": {
          "amountIn_": "Input amount in USD",
          "token_": "The address of assetOut"
        },
        "returns": {
          "_amountOut": "Output amount of token",
          "_lastUpdatedAt": "Last updated timestamp"
        }
      }
    },
    "title": "Redstone's push price provider for Hemi network. Redstone push price feed is 100% compatible with Chainlink.",
    "version": 1
  },
  "userdoc": {
    "events": {
      "AggregatorUpdated(address,address,address)": {
        "notice": "Emitted when an aggregator is updated"
      }
    },
    "kind": "user",
    "methods": {
      "aggregators(address)": {
        "notice": "Aggregators map (token => aggregator)"
      },
      "getPriceInUsd(address)": {
        "notice": "Get USD (or equivalent) price of an asset"
      },
      "quote(address,address,uint256)": {
        "notice": "Get quote"
      },
      "quoteTokenToUsd(address,uint256)": {
        "notice": "Get quote in USD (or equivalent) amount"
      },
      "quoteUsdToToken(address,uint256)": {
        "notice": "Get quote from USD (or equivalent) amount to amount of token"
      },
      "updateAggregator(address,address)": {
        "notice": "Update token's aggregator"
      }
    },
    "version": 1
  },
  "storageLayout": {
    "storage": [
      {
        "astId": 4869,
        "contract": "contracts/core/RedstoneHemiPushPriceProvider.sol:RedstoneHemiPushPriceProvider",
        "label": "aggregators",
        "offset": 0,
        "slot": "0",
        "type": "t_mapping(t_address,t_contract(AggregatorV3Interface)102)"
      }
    ],
    "types": {
      "t_address": {
        "encoding": "inplace",
        "label": "address",
        "numberOfBytes": "20"
      },
      "t_contract(AggregatorV3Interface)102": {
        "encoding": "inplace",
        "label": "contract AggregatorV3Interface",
        "numberOfBytes": "20"
      },
      "t_mapping(t_address,t_contract(AggregatorV3Interface)102)": {
        "encoding": "mapping",
        "key": "t_address",
        "label": "mapping(address => contract AggregatorV3Interface)",
        "numberOfBytes": "32",
        "value": "t_contract(AggregatorV3Interface)102"
      }
    }
  }
}