{
  "address": "0x6ea1c75C219eEEBb10Ec57737cF0a7DF1eff5377",
  "abi": [
    {
      "inputs": [
        {
          "internalType": "uint256",
          "name": "stalePeriod_",
          "type": "uint256"
        }
      ],
      "stateMutability": "nonpayable",
      "type": "constructor"
    },
    {
      "anonymous": false,
      "inputs": [
        {
          "indexed": false,
          "internalType": "uint256",
          "name": "oldStalePeriod",
          "type": "uint256"
        },
        {
          "indexed": false,
          "internalType": "uint256",
          "name": "newStalePeriod",
          "type": "uint256"
        }
      ],
      "name": "StalePeriodUpdated",
      "type": "event"
    },
    {
      "inputs": [],
      "name": "ALUSD_ADDRESS",
      "outputs": [
        {
          "internalType": "address",
          "name": "",
          "type": "address"
        }
      ],
      "stateMutability": "view",
      "type": "function"
    },
    {
      "inputs": [],
      "name": "ONE_ALUSD",
      "outputs": [
        {
          "internalType": "uint256",
          "name": "",
          "type": "uint256"
        }
      ],
      "stateMutability": "view",
      "type": "function"
    },
    {
      "inputs": [],
      "name": "WETH_ADDRESS",
      "outputs": [
        {
          "internalType": "address",
          "name": "",
          "type": "address"
        }
      ],
      "stateMutability": "view",
      "type": "function"
    },
    {
      "inputs": [],
      "name": "addressProvider",
      "outputs": [
        {
          "internalType": "contract IAddressProvider",
          "name": "",
          "type": "address"
        }
      ],
      "stateMutability": "view",
      "type": "function"
    },
    {
      "inputs": [
        {
          "internalType": "address",
          "name": "_asset",
          "type": "address"
        }
      ],
      "name": "getPriceInUsd",
      "outputs": [
        {
          "internalType": "uint256",
          "name": "_priceInUsd",
          "type": "uint256"
        }
      ],
      "stateMutability": "view",
      "type": "function"
    },
    {
      "inputs": [],
      "name": "stalePeriod",
      "outputs": [
        {
          "internalType": "uint256",
          "name": "",
          "type": "uint256"
        }
      ],
      "stateMutability": "view",
      "type": "function"
    },
    {
      "inputs": [],
      "name": "update",
      "outputs": [],
      "stateMutability": "nonpayable",
      "type": "function"
    },
    {
      "inputs": [
        {
          "internalType": "uint256",
          "name": "stalePeriod_",
          "type": "uint256"
        }
      ],
      "name": "updateStalePeriod",
      "outputs": [],
      "stateMutability": "nonpayable",
      "type": "function"
    }
  ],
  "transactionHash": "0x33631467a6dc6ccb099eac4a82f14de9401a37ee2af21a198a33550709f84bdc",
  "args": [
    14400
  ],
  "numDeployments": 3,
  "solcInputHash": "8b654c506c10a4071125075f82070c93",
  "bytecode": "0x608060405234801561001057600080fd5b50604051610ac5380380610ac583398101604081905261002f91610037565b600055610050565b60006020828403121561004957600080fd5b5051919050565b610a668061005f6000396000f3fe608060405234801561001057600080fd5b50600436106100885760003560e01c8063a2e620451161005b578063a2e620451461011d578063a5b36a3614610127578063c1a2e32b14610130578063f13a09681461014357600080fd5b8063040141e51461008d57806307ee40bf146100d25780632954018c146100f3578063750ca1681461010e575b600080fd5b6100a873c02aaa39b223fe8d0a0e5c4f27ead9083c756cc281565b60405173ffffffffffffffffffffffffffffffffffffffff90911681526020015b60405180910390f35b6100e56100e03660046108f6565b61015e565b6040519081526020016100c9565b6100a873fba0816a81bcabbf3829bed28618177a2bf0e82a81565b6100e5670de0b6b3a764000081565b6101256103ba565b005b6100e560005481565b61012561013e36600461091a565b610741565b6100a873bc6da0fe9ad5f3b0d58160288917aa56653660e981565b600073ffffffffffffffffffffffffffffffffffffffff821673bc6da0fe9ad5f3b0d58160288917aa56653660e9146101f8576040517f08c379a000000000000000000000000000000000000000000000000000000000815260206004820152600d60248201527f696e76616c69642d746f6b656e0000000000000000000000000000000000000060448201526064015b60405180910390fd5b600073fba0816a81bcabbf3829bed28618177a2bf0e82a73ffffffffffffffffffffffffffffffffffffffff16638f8e162c6040518163ffffffff1660e01b815260040160206040518083038186803b15801561025457600080fd5b505afa158015610268573d6000803e3d6000fd5b505050506040513d601f19601f8201168201806040525081019061028c9190610933565b73ffffffffffffffffffffffffffffffffffffffff16632b041e3a600473bc6da0fe9ad5f3b0d58160288917aa56653660e9670de0b6b3a76400006040518463ffffffff1660e01b81526004016102e59392919061098b565b604080518083038186803b1580156102fc57600080fd5b505afa158015610310573d6000803e3d6000fd5b505050506040513d601f19601f8201168201806040525081019061033491906109c0565b9092509050811580159061034e575061034c816108a8565b155b6103b4576040517f08c379a000000000000000000000000000000000000000000000000000000000815260206004820152600d60248201527f70726963652d696e76616c69640000000000000000000000000000000000000060448201526064016101ef565b50919050565b600073fba0816a81bcabbf3829bed28618177a2bf0e82a905060008173ffffffffffffffffffffffffffffffffffffffff16638f8e162c6040518163ffffffff1660e01b815260040160206040518083038186803b15801561041b57600080fd5b505afa15801561042f573d6000803e3d6000fd5b505050506040513d601f19601f820116820180604052508101906104539190610933565b73ffffffffffffffffffffffffffffffffffffffff1663c6222eba60046040518263ffffffff1660e01b815260040161048c91906109e4565b60206040518083038186803b1580156104a457600080fd5b505afa1580156104b8573d6000803e3d6000fd5b505050506040513d601f19601f820116820180604052508101906104dc9190610933565b6040517f41118ef400000000000000000000000000000000000000000000000000000000815273bc6da0fe9ad5f3b0d58160288917aa56653660e9600482015273c02aaa39b223fe8d0a0e5c4f27ead9083c756cc2602482015290915073ffffffffffffffffffffffffffffffffffffffff8216906341118ef490604401600060405180830381600087803b15801561057457600080fd5b505af1158015610588573d6000803e3d6000fd5b505050508073ffffffffffffffffffffffffffffffffffffffff166341118ef473c02aaa39b223fe8d0a0e5c4f27ead9083c756cc28473ffffffffffffffffffffffffffffffffffffffff16632082615f6040518163ffffffff1660e01b815260040160206040518083038186803b15801561060357600080fd5b505afa158015610617573d6000803e3d6000fd5b505050506040513d601f19601f8201168201806040525081019061063b9190610933565b73ffffffffffffffffffffffffffffffffffffffff166384537f0e6040518163ffffffff1660e01b815260040160206040518083038186803b15801561068057600080fd5b505afa158015610694573d6000803e3d6000fd5b505050506040513d601f19601f820116820180604052508101906106b89190610933565b6040517fffffffff0000000000000000000000000000000000000000000000000000000060e085901b16815273ffffffffffffffffffffffffffffffffffffffff928316600482015291166024820152604401600060405180830381600087803b15801561072557600080fd5b505af1158015610739573d6000803e3d6000fd5b505050505050565b73fba0816a81bcabbf3829bed28618177a2bf0e82a73ffffffffffffffffffffffffffffffffffffffff16630c340a246040518163ffffffff1660e01b815260040160206040518083038186803b15801561079b57600080fd5b505afa1580156107af573d6000803e3d6000fd5b505050506040513d601f19601f820116820180604052508101906107d39190610933565b73ffffffffffffffffffffffffffffffffffffffff163373ffffffffffffffffffffffffffffffffffffffff1614610867576040517f08c379a000000000000000000000000000000000000000000000000000000000815260206004820152600c60248201527f6e6f742d676f7665726e6f72000000000000000000000000000000000000000060448201526064016101ef565b60005460408051918252602082018390527f1dcb97516840282e793e073fe5a34e75c575d63193a3cbed8fa1930b27df4720910160405180910390a1600055565b60006108b6826000546108bc565b92915050565b6000816108c984426109f2565b119392505050565b73ffffffffffffffffffffffffffffffffffffffff811681146108f357600080fd5b50565b60006020828403121561090857600080fd5b8135610913816108d1565b9392505050565b60006020828403121561092c57600080fd5b5035919050565b60006020828403121561094557600080fd5b8151610913816108d1565b600b8110610987577f4e487b7100000000000000000000000000000000000000000000000000000000600052602160045260246000fd5b9052565b606081016109998286610950565b73ffffffffffffffffffffffffffffffffffffffff93909316602082015260400152919050565b600080604083850312156109d357600080fd5b505080516020909101519092909150565b602081016108b68284610950565b600082821015610a2b577f4e487b7100000000000000000000000000000000000000000000000000000000600052601160045260246000fd5b50039056fea26469706673582212205867ec1e5ac8ebdbca4e8363f7a278cfe98262b63fdcec327f179543ed5f243964736f6c63430008090033",
  "devdoc": {
    "kind": "dev",
    "methods": {
      "getPriceInUsd(address)": {
        "params": {
          "token_": "The address of asset"
        },
        "returns": {
          "_priceInUsd": "The USD price"
        }
      }
    },
    "title": "alUSD Oracle (mainnet-only)",
    "version": 1
  },
  "userdoc": {
    "events": {
      "StalePeriodUpdated(uint256,uint256)": {
        "notice": "Emitted when stale period is updated"
      }
    },
    "kind": "user",
    "methods": {
      "getPriceInUsd(address)": {
        "notice": "Get USD (or equivalent) price of an asset"
      },
      "stalePeriod()": {
        "notice": "The stale period. It's used to determine if a price is invalid (i.e. outdated)"
      },
      "update()": {
        "notice": "Update underlying price providers (i.e. UniswapV2-Like)"
      },
      "updateStalePeriod(uint256)": {
        "notice": "Update stale period"
      }
    },
    "version": 1
  },
  "storageLayout": {
    "storage": [
      {
        "astId": 11477,
        "contract": "contracts/periphery/tokens/AlusdTokenMainnetOracle.sol:AlusdTokenMainnetOracle",
        "label": "stalePeriod",
        "offset": 0,
        "slot": "0",
        "type": "t_uint256"
      }
    ],
    "types": {
      "t_uint256": {
        "encoding": "inplace",
        "label": "uint256",
        "numberOfBytes": "32"
      }
    }
  }
}