{
  "address": "0xcc7e22e8c8fa860ff6cd7a90c34e466ee0bd950c",
  "abi": [
    {
      "inputs": [
        {
          "internalType": "contract IPriceProvidersAggregator",
          "name": "providersAggregator_",
          "type": "address"
        },
        {
          "internalType": "contract IStableCoinProvider",
          "name": "stableCoinProvider_",
          "type": "address"
        },
        {
          "internalType": "uint256",
          "name": "stalePeriod_",
          "type": "uint256"
        }
      ],
      "stateMutability": "nonpayable",
      "type": "constructor"
    },
    {
      "anonymous": false,
      "inputs": [
        {
          "indexed": false,
          "internalType": "uint8",
          "name": "version",
          "type": "uint8"
        }
      ],
      "name": "Initialized",
      "type": "event"
    },
    {
      "anonymous": false,
      "inputs": [
        {
          "indexed": false,
          "internalType": "contract IPriceProvidersAggregator",
          "name": "oldProvidersAggregator",
          "type": "address"
        },
        {
          "indexed": false,
          "internalType": "contract IPriceProvidersAggregator",
          "name": "newProvidersAggregator",
          "type": "address"
        }
      ],
      "name": "ProvidersAggregatorUpdated",
      "type": "event"
    },
    {
      "anonymous": false,
      "inputs": [
        {
          "indexed": false,
          "internalType": "contract IStableCoinProvider",
          "name": "oldStableCoinProvider",
          "type": "address"
        },
        {
          "indexed": false,
          "internalType": "contract IStableCoinProvider",
          "name": "newStableCoinProvider",
          "type": "address"
        }
      ],
      "name": "StableCoinProviderUpdated",
      "type": "event"
    },
    {
      "anonymous": false,
      "inputs": [
        {
          "indexed": false,
          "internalType": "uint256",
          "name": "oldStalePeriod",
          "type": "uint256"
        },
        {
          "indexed": false,
          "internalType": "uint256",
          "name": "newStalePeriod",
          "type": "uint256"
        }
      ],
      "name": "StalePeriodUpdated",
      "type": "event"
    },
    {
      "anonymous": false,
      "inputs": [
        {
          "indexed": true,
          "internalType": "address",
          "name": "previousGovernor",
          "type": "address"
        },
        {
          "indexed": true,
          "internalType": "address",
          "name": "proposedGovernor",
          "type": "address"
        }
      ],
      "name": "UpdatedGovernor",
      "type": "event"
    },
    {
      "inputs": [],
      "name": "ALUSD_ADDRESS",
      "outputs": [
        {
          "internalType": "address",
          "name": "",
          "type": "address"
        }
      ],
      "stateMutability": "view",
      "type": "function"
    },
    {
      "inputs": [],
      "name": "ONE_ALUSD",
      "outputs": [
        {
          "internalType": "uint256",
          "name": "",
          "type": "uint256"
        }
      ],
      "stateMutability": "view",
      "type": "function"
    },
    {
      "inputs": [],
      "name": "WETH_ADDRESS",
      "outputs": [
        {
          "internalType": "address",
          "name": "",
          "type": "address"
        }
      ],
      "stateMutability": "view",
      "type": "function"
    },
    {
      "inputs": [],
      "name": "acceptGovernorship",
      "outputs": [],
      "stateMutability": "nonpayable",
      "type": "function"
    },
    {
      "inputs": [
        {
          "internalType": "address",
          "name": "_asset",
          "type": "address"
        }
      ],
      "name": "getPriceInUsd",
      "outputs": [
        {
          "internalType": "uint256",
          "name": "_priceInUsd",
          "type": "uint256"
        }
      ],
      "stateMutability": "view",
      "type": "function"
    },
    {
      "inputs": [],
      "name": "governor",
      "outputs": [
        {
          "internalType": "address",
          "name": "",
          "type": "address"
        }
      ],
      "stateMutability": "view",
      "type": "function"
    },
    {
      "inputs": [],
      "name": "providersAggregator",
      "outputs": [
        {
          "internalType": "contract IPriceProvidersAggregator",
          "name": "",
          "type": "address"
        }
      ],
      "stateMutability": "view",
      "type": "function"
    },
    {
      "inputs": [],
      "name": "stableCoinProvider",
      "outputs": [
        {
          "internalType": "contract IStableCoinProvider",
          "name": "",
          "type": "address"
        }
      ],
      "stateMutability": "view",
      "type": "function"
    },
    {
      "inputs": [],
      "name": "stalePeriod",
      "outputs": [
        {
          "internalType": "uint256",
          "name": "",
          "type": "uint256"
        }
      ],
      "stateMutability": "view",
      "type": "function"
    },
    {
      "inputs": [
        {
          "internalType": "address",
          "name": "_proposedGovernor",
          "type": "address"
        }
      ],
      "name": "transferGovernorship",
      "outputs": [],
      "stateMutability": "nonpayable",
      "type": "function"
    },
    {
      "inputs": [],
      "name": "update",
      "outputs": [],
      "stateMutability": "nonpayable",
      "type": "function"
    },
    {
      "inputs": [
        {
          "internalType": "contract IPriceProvidersAggregator",
          "name": "providersAggregator_",
          "type": "address"
        }
      ],
      "name": "updateProvidersAggregator",
      "outputs": [],
      "stateMutability": "nonpayable",
      "type": "function"
    },
    {
      "inputs": [
        {
          "internalType": "contract IStableCoinProvider",
          "name": "stableCoinProvider_",
          "type": "address"
        }
      ],
      "name": "updateStableCoinProvider",
      "outputs": [],
      "stateMutability": "nonpayable",
      "type": "function"
    },
    {
      "inputs": [
        {
          "internalType": "uint256",
          "name": "stalePeriod_",
          "type": "uint256"
        }
      ],
      "name": "updateStalePeriod",
      "outputs": [],
      "stateMutability": "nonpayable",
      "type": "function"
    }
  ],
  "transactionHash": "0x65c95515c83ca3624a292ffa8142346d9d1be69d6e7b6a3a3c9b10cff2698743",
  "args": [
    "0x32a21eC8ee93971D4b4093C0895FD841c7169a23",
    "0xE55744eBb196D0E4dDeA70204142eaF517EF005A",
    14400
  ],
  "numDeployments": 2,
  "solcInputHash": "a576ad73838d68fba3312b301893fe1e",
  "bytecode": "0x608060405234801561001057600080fd5b50604051610e32380380610e3283398101604081905261002f9161017d565b8082846000336000805462010000600160b01b031916620100006001600160a01b038416908102919091178255604051929350917fd4459d5b8b913cab0244230fd9b1c08b6ceace7fe9230e60d0f74cbffdf849d0908290a3506001600160a01b0381166100d95760405162461bcd60e51b81526020600482015260126024820152711859d9dc9959d85d1bdc8b5a5ccb5b9d5b1b60721b60448201526064015b60405180910390fd5b600280546001600160a01b03199081166001600160a01b03938416179091556003805490911692821692909217909155600491909155821661015d5760405162461bcd60e51b815260206004820152601c60248201527f737461626c652d636f696e2d70726f76696465722d69732d6e756c6c0000000060448201526064016100d0565b5050506101c0565b6001600160a01b038116811461017a57600080fd5b50565b60008060006060848603121561019257600080fd5b835161019d81610165565b60208501519093506101ae81610165565b80925050604084015190509250925092565b610c63806101cf6000396000f3fe608060405234801561001057600080fd5b50600436106100ea5760003560e01c80638f8e162c1161008c578063b6aa515b11610066578063b6aa515b146101cf578063c1a2e32b146101e2578063f13a0968146101f5578063f3b27bc31461021057600080fd5b80638f8e162c146101ab578063a2e62045146101be578063a5b36a36146101c657600080fd5b80630c340a24116100c85780630c340a241461015d5780632082615f1461017657806320adc81314610189578063750ca1681461019c57600080fd5b8063040141e5146100ef57806307ee40bf146101275780630bb0b89d14610148575b600080fd5b61010a73c02aaa39b223fe8d0a0e5c4f27ead9083c756cc281565b6040516001600160a01b0390911681526020015b60405180910390f35b61013a610135366004610b00565b610218565b60405190815260200161011e565b61015b610156366004610b00565b6103b0565b005b60005461010a906201000090046001600160a01b031681565b60035461010a906001600160a01b031681565b61015b610197366004610b00565b6104e8565b61013a670de0b6b3a764000081565b60025461010a906001600160a01b031681565b61015b6105ca565b61013a60045481565b61015b6101dd366004610b00565b61082c565b61015b6101f0366004610b24565b61091d565b61010a73bc6da0fe9ad5f3b0d58160288917aa56653660e981565b61015b6109bf565b60006001600160a01b03821673bc6da0fe9ad5f3b0d58160288917aa56653660e91461028b5760405162461bcd60e51b815260206004820152600d60248201527f696e76616c69642d746f6b656e0000000000000000000000000000000000000060448201526064015b60405180910390fd5b6002546040517f2b041e3a0000000000000000000000000000000000000000000000000000000081526000916001600160a01b031690632b041e3a906102f59060049073bc6da0fe9ad5f3b0d58160288917aa56653660e990670de0b6b3a7640000908301610b78565b604080518083038186803b15801561030c57600080fd5b505afa158015610320573d6000803e3d6000fd5b505050506040513d601f19601f820116820180604052508101906103449190610ba0565b9092509050811580159061035e575061035c81610abf565b155b6103aa5760405162461bcd60e51b815260206004820152600d60248201527f70726963652d696e76616c6964000000000000000000000000000000000000006044820152606401610282565b50919050565b6000546001600160a01b03620100009091041633146104115760405162461bcd60e51b815260206004820152600c60248201527f6e6f742d676f7665726e6f7200000000000000000000000000000000000000006044820152606401610282565b6001600160a01b0381166104675760405162461bcd60e51b815260206004820152600f60248201527f616464726573732d69732d6e756c6c00000000000000000000000000000000006044820152606401610282565b600254604080516001600160a01b03928316815291831660208301527fbcc4066cae087918db8d7695e80f5dc69eb597f904c8d513f27f2d04eed8f7ca910160405180910390a1600280547fffffffffffffffffffffffff0000000000000000000000000000000000000000166001600160a01b0392909216919091179055565b6000546001600160a01b03620100009091041633146105495760405162461bcd60e51b815260206004820152600c60248201527f6e6f742d676f7665726e6f7200000000000000000000000000000000000000006044820152606401610282565b600354604080516001600160a01b03928316815291831660208301527fae68fa83120514f5b4621d968a310169ce214a66994debd1638e3ff3ec61dc9d910160405180910390a1600380547fffffffffffffffffffffffff0000000000000000000000000000000000000000166001600160a01b0392909216919091179055565b6002546040517fc6222eba0000000000000000000000000000000000000000000000000000000081526000916001600160a01b03169063c6222eba90610614906004908101610bc4565b60206040518083038186803b15801561062c57600080fd5b505afa158015610640573d6000803e3d6000fd5b505050506040513d601f19601f820116820180604052508101906106649190610bd2565b6040517f41118ef400000000000000000000000000000000000000000000000000000000815273bc6da0fe9ad5f3b0d58160288917aa56653660e9600482015273c02aaa39b223fe8d0a0e5c4f27ead9083c756cc260248201529091506001600160a01b038216906341118ef490604401600060405180830381600087803b1580156106ef57600080fd5b505af1158015610703573d6000803e3d6000fd5b50505050806001600160a01b03166341118ef473c02aaa39b223fe8d0a0e5c4f27ead9083c756cc2600360009054906101000a90046001600160a01b03166001600160a01b03166384537f0e6040518163ffffffff1660e01b815260040160206040518083038186803b15801561077957600080fd5b505afa15801561078d573d6000803e3d6000fd5b505050506040513d601f19601f820116820180604052508101906107b19190610bd2565b6040517fffffffff0000000000000000000000000000000000000000000000000000000060e085901b1681526001600160a01b03928316600482015291166024820152604401600060405180830381600087803b15801561081157600080fd5b505af1158015610825573d6000803e3d6000fd5b5050505050565b6000546001600160a01b036201000090910416331461088d5760405162461bcd60e51b815260206004820152600c60248201527f6e6f742d676f7665726e6f7200000000000000000000000000000000000000006044820152606401610282565b6001600160a01b0381166108e35760405162461bcd60e51b815260206004820152601960248201527f70726f706f7365642d676f7665726e6f722d69732d7a65726f000000000000006044820152606401610282565b600180547fffffffffffffffffffffffff0000000000000000000000000000000000000000166001600160a01b0392909216919091179055565b6000546001600160a01b036201000090910416331461097e5760405162461bcd60e51b815260206004820152600c60248201527f6e6f742d676f7665726e6f7200000000000000000000000000000000000000006044820152606401610282565b60045460408051918252602082018390527f1dcb97516840282e793e073fe5a34e75c575d63193a3cbed8fa1930b27df4720910160405180910390a1600455565b6001546001600160a01b03163314610a195760405162461bcd60e51b815260206004820152601960248201527f6e6f742d7468652d70726f706f7365642d676f7665726e6f72000000000000006044820152606401610282565b600154600080546040516001600160a01b039384169362010000909204909116917fd4459d5b8b913cab0244230fd9b1c08b6ceace7fe9230e60d0f74cbffdf849d091a360018054600080547fffffffffffffffffffff0000000000000000000000000000000000000000ffff166001600160a01b03831662010000021790557fffffffffffffffffffffffff0000000000000000000000000000000000000000169055565b6000610acd82600454610ad3565b92915050565b600081610ae08442610bef565b119392505050565b6001600160a01b0381168114610afd57600080fd5b50565b600060208284031215610b1257600080fd5b8135610b1d81610ae8565b9392505050565b600060208284031215610b3657600080fd5b5035919050565b600b8110610b74577f4e487b7100000000000000000000000000000000000000000000000000000000600052602160045260246000fd5b9052565b60608101610b868286610b3d565b6001600160a01b0393909316602082015260400152919050565b60008060408385031215610bb357600080fd5b505080516020909101519092909150565b60208101610acd8284610b3d565b600060208284031215610be457600080fd5b8151610b1d81610ae8565b600082821015610c28577f4e487b7100000000000000000000000000000000000000000000000000000000600052601160045260246000fd5b50039056fea2646970667358221220d011d0da8867870aa99b004f0a960b23562abcf9412f002807297c23f35aa04364736f6c63430008090033",
  "devdoc": {
    "kind": "dev",
    "methods": {
      "acceptGovernorship()": {
        "details": "Allows new governor to accept governorship of the contract."
      },
      "getPriceInUsd(address)": {
        "params": {
          "token_": "The address of asset"
        },
        "returns": {
          "_priceInUsd": "The USD price"
        }
      },
      "transferGovernorship(address)": {
        "details": "Transfers governorship of the contract to a new account (`proposedGovernor`). Can only be called by the current owner."
      }
    },
    "title": "alUSD Oracle (mainnet-only)",
    "version": 1
  },
  "userdoc": {
    "events": {
      "ProvidersAggregatorUpdated(address,address)": {
        "notice": "Emitted when providers aggregator is updated"
      },
      "StableCoinProviderUpdated(address,address)": {
        "notice": "Emitted when stable coin provider is updated"
      },
      "StalePeriodUpdated(uint256,uint256)": {
        "notice": "Emitted when stale period is updated"
      }
    },
    "kind": "user",
    "methods": {
      "getPriceInUsd(address)": {
        "notice": "Get USD (or equivalent) price of an asset"
      },
      "providersAggregator()": {
        "notice": "The PriceProvidersAggregator contract"
      },
      "stableCoinProvider()": {
        "notice": "The StableCoinProvider contract"
      },
      "stalePeriod()": {
        "notice": "The stale period. It's used to determine if a price is invalid (i.e. outdated)"
      },
      "update()": {
        "notice": "Update underlying price providers (i.e. UniswapV2-Like)"
      },
      "updateProvidersAggregator(address)": {
        "notice": "Update PriceProvidersAggregator contract"
      },
      "updateStableCoinProvider(address)": {
        "notice": "Update StableCoinProvider contract"
      },
      "updateStalePeriod(uint256)": {
        "notice": "Update stale period"
      }
    },
    "version": 1
  },
  "storageLayout": {
    "storage": [
      {
        "astId": 420,
        "contract": "contracts/periphery/tokens/AlusdTokenMainnetOracle.sol:AlusdTokenMainnetOracle",
        "label": "_initialized",
        "offset": 0,
        "slot": "0",
        "type": "t_uint8"
      },
      {
        "astId": 423,
        "contract": "contracts/periphery/tokens/AlusdTokenMainnetOracle.sol:AlusdTokenMainnetOracle",
        "label": "_initializing",
        "offset": 1,
        "slot": "0",
        "type": "t_bool"
      },
      {
        "astId": 6513,
        "contract": "contracts/periphery/tokens/AlusdTokenMainnetOracle.sol:AlusdTokenMainnetOracle",
        "label": "governor",
        "offset": 2,
        "slot": "0",
        "type": "t_address"
      },
      {
        "astId": 6515,
        "contract": "contracts/periphery/tokens/AlusdTokenMainnetOracle.sol:AlusdTokenMainnetOracle",
        "label": "proposedGovernor",
        "offset": 0,
        "slot": "1",
        "type": "t_address"
      },
      {
        "astId": 11406,
        "contract": "contracts/periphery/tokens/AlusdTokenMainnetOracle.sol:AlusdTokenMainnetOracle",
        "label": "providersAggregator",
        "offset": 0,
        "slot": "2",
        "type": "t_contract(IPriceProvidersAggregator)11809"
      },
      {
        "astId": 11483,
        "contract": "contracts/periphery/tokens/AlusdTokenMainnetOracle.sol:AlusdTokenMainnetOracle",
        "label": "stableCoinProvider",
        "offset": 0,
        "slot": "3",
        "type": "t_contract(IStableCoinProvider)11826"
      },
      {
        "astId": 11532,
        "contract": "contracts/periphery/tokens/AlusdTokenMainnetOracle.sol:AlusdTokenMainnetOracle",
        "label": "stalePeriod",
        "offset": 0,
        "slot": "4",
        "type": "t_uint256"
      }
    ],
    "types": {
      "t_address": {
        "encoding": "inplace",
        "label": "address",
        "numberOfBytes": "20"
      },
      "t_bool": {
        "encoding": "inplace",
        "label": "bool",
        "numberOfBytes": "1"
      },
      "t_contract(IPriceProvidersAggregator)11809": {
        "encoding": "inplace",
        "label": "contract IPriceProvidersAggregator",
        "numberOfBytes": "20"
      },
      "t_contract(IStableCoinProvider)11826": {
        "encoding": "inplace",
        "label": "contract IStableCoinProvider",
        "numberOfBytes": "20"
      },
      "t_uint256": {
        "encoding": "inplace",
        "label": "uint256",
        "numberOfBytes": "32"
      },
      "t_uint8": {
        "encoding": "inplace",
        "label": "uint8",
        "numberOfBytes": "1"
      }
    }
  }
}