{
  "address": "0xE2131907E2A999D60e765660e96dEcca0d4372d0",
  "abi": [
    {
      "inputs": [
        {
          "internalType": "contract AggregatorV3Interface",
          "name": "btcAggregator_",
          "type": "address"
        },
        {
          "internalType": "uint256",
          "name": "stalePeriod_",
          "type": "uint256"
        }
      ],
      "stateMutability": "nonpayable",
      "type": "constructor"
    },
    {
      "anonymous": false,
      "inputs": [
        {
          "indexed": false,
          "internalType": "uint256",
          "name": "oldStalePeriod",
          "type": "uint256"
        },
        {
          "indexed": false,
          "internalType": "uint256",
          "name": "newStalePeriod",
          "type": "uint256"
        }
      ],
      "name": "StalePeriodUpdated",
      "type": "event"
    },
    {
      "inputs": [],
      "name": "addressProvider",
      "outputs": [
        {
          "internalType": "contract IAddressProvider",
          "name": "",
          "type": "address"
        }
      ],
      "stateMutability": "view",
      "type": "function"
    },
    {
      "inputs": [],
      "name": "btcAggregator",
      "outputs": [
        {
          "internalType": "contract AggregatorV3Interface",
          "name": "",
          "type": "address"
        }
      ],
      "stateMutability": "view",
      "type": "function"
    },
    {
      "inputs": [
        {
          "internalType": "address",
          "name": "",
          "type": "address"
        }
      ],
      "name": "getPriceInUsd",
      "outputs": [
        {
          "internalType": "uint256",
          "name": "_priceInUsd",
          "type": "uint256"
        }
      ],
      "stateMutability": "view",
      "type": "function"
    },
    {
      "inputs": [],
      "name": "stalePeriod",
      "outputs": [
        {
          "internalType": "uint256",
          "name": "",
          "type": "uint256"
        }
      ],
      "stateMutability": "view",
      "type": "function"
    },
    {
      "inputs": [
        {
          "internalType": "uint256",
          "name": "stalePeriod_",
          "type": "uint256"
        }
      ],
      "name": "updateStalePeriod",
      "outputs": [],
      "stateMutability": "nonpayable",
      "type": "function"
    }
  ],
  "transactionHash": "0x94920079e6a2967fd299766a1ccda6dcd72d73927771c8a4c97602039a0a830c",
  "args": [
    "0xF4030086522a5bEEa4988F8cA5B36dbC97BeE88c",
    3600
  ],
  "numDeployments": 2,
  "solcInputHash": "8b654c506c10a4071125075f82070c93",
  "bytecode": "0x60a060405234801561001057600080fd5b5060405161069b38038061069b83398101604081905261002f91610043565b6000556001600160a01b031660805261007d565b6000806040838503121561005657600080fd5b82516001600160a01b038116811461006d57600080fd5b6020939093015192949293505050565b6080516105fd61009e6000396000818160f5015261011e01526105fd6000f3fe608060405234801561001057600080fd5b50600436106100675760003560e01c8063a5b36a3611610050578063a5b36a36146100d2578063c1a2e32b146100db578063de6338fa146100f057600080fd5b806307ee40bf1461006c5780632954018c14610092575b600080fd5b61007f61007a36600461047b565b610117565b6040519081526020015b60405180910390f35b6100ad73fba0816a81bcabbf3829bed28618177a2bf0e82a81565b60405173ffffffffffffffffffffffffffffffffffffffff9091168152602001610089565b61007f60005481565b6100ee6100e936600461049f565b610256565b005b6100ad7f000000000000000000000000000000000000000000000000000000000000000081565b60008060007f000000000000000000000000000000000000000000000000000000000000000073ffffffffffffffffffffffffffffffffffffffff1663feaf968c6040518163ffffffff1660e01b815260040160a06040518083038186803b15801561018257600080fd5b505afa158015610196573d6000803e3d6000fd5b505050506040513d601f19601f820116820180604052508101906101ba91906104d7565b509350509250506101ca816103bd565b15610236576040517f08c379a000000000000000000000000000000000000000000000000000000000815260206004820152600b60248201527f7374616c652d707269636500000000000000000000000000000000000000000060448201526064015b60405180910390fd5b61023f826103d1565b61024e906402540be400610556565b949350505050565b73fba0816a81bcabbf3829bed28618177a2bf0e82a73ffffffffffffffffffffffffffffffffffffffff16630c340a246040518163ffffffff1660e01b815260040160206040518083038186803b1580156102b057600080fd5b505afa1580156102c4573d6000803e3d6000fd5b505050506040513d601f19601f820116820180604052508101906102e89190610593565b73ffffffffffffffffffffffffffffffffffffffff163373ffffffffffffffffffffffffffffffffffffffff161461037c576040517f08c379a000000000000000000000000000000000000000000000000000000000815260206004820152600c60248201527f6e6f742d676f7665726e6f720000000000000000000000000000000000000000604482015260640161022d565b60005460408051918252602082018390527f1dcb97516840282e793e073fe5a34e75c575d63193a3cbed8fa1930b27df4720910160405180910390a1600055565b60006103cb82600054610441565b92915050565b60008082121561043d576040517f08c379a000000000000000000000000000000000000000000000000000000000815260206004820181905260248201527f53616665436173743a2076616c7565206d75737420626520706f736974697665604482015260640161022d565b5090565b60008161044e84426105b0565b119392505050565b73ffffffffffffffffffffffffffffffffffffffff8116811461047857600080fd5b50565b60006020828403121561048d57600080fd5b813561049881610456565b9392505050565b6000602082840312156104b157600080fd5b5035919050565b805169ffffffffffffffffffff811681146104d257600080fd5b919050565b600080600080600060a086880312156104ef57600080fd5b6104f8866104b8565b945060208601519350604086015192506060860151915061051b608087016104b8565b90509295509295909350565b7f4e487b7100000000000000000000000000000000000000000000000000000000600052601160045260246000fd5b6000817fffffffffffffffffffffffffffffffffffffffffffffffffffffffffffffffff048311821515161561058e5761058e610527565b500290565b6000602082840312156105a557600080fd5b815161049881610456565b6000828210156105c2576105c2610527565b50039056fea2646970667358221220ba4e0f5e2177c3da6fac95accf5bf3af7a6f77e6b6da8e297278b8e8bbf95c7d64736f6c63430008090033",
  "devdoc": {
    "kind": "dev",
    "methods": {
      "getPriceInUsd(address)": {
        "params": {
          "token_": "The address of asset"
        },
        "returns": {
          "_priceInUsd": "The USD price"
        }
      }
    },
    "title": "Oracle for BTC-pegged tokens that uses Chainlink's BTC/USD feed",
    "version": 1
  },
  "userdoc": {
    "events": {
      "StalePeriodUpdated(uint256,uint256)": {
        "notice": "Emitted when stale period is updated"
      }
    },
    "kind": "user",
    "methods": {
      "btcAggregator()": {
        "notice": "Chainlink BTC/USD aggregator"
      },
      "getPriceInUsd(address)": {
        "notice": "Get USD (or equivalent) price of an asset"
      },
      "stalePeriod()": {
        "notice": "The stale period. It's used to determine if a price is invalid (i.e. outdated)"
      },
      "updateStalePeriod(uint256)": {
        "notice": "Update stale period"
      }
    },
    "version": 1
  },
  "storageLayout": {
    "storage": [
      {
        "astId": 11477,
        "contract": "contracts/periphery/tokens/BTCPeggedTokenOracle.sol:BTCPeggedTokenOracle",
        "label": "stalePeriod",
        "offset": 0,
        "slot": "0",
        "type": "t_uint256"
      }
    ],
    "types": {
      "t_uint256": {
        "encoding": "inplace",
        "label": "uint256",
        "numberOfBytes": "32"
      }
    }
  }
}