{
  "address": "0x54525f751b71e1eA58A558649f0057451E4946b4",
  "abi": [
    {
      "inputs": [
        {
          "internalType": "contract AggregatorV3Interface",
          "name": "btcAggregator_",
          "type": "address"
        },
        {
          "internalType": "uint256",
          "name": "stalePeriod_",
          "type": "uint256"
        }
      ],
      "stateMutability": "nonpayable",
      "type": "constructor"
    },
    {
      "anonymous": false,
      "inputs": [
        {
          "indexed": false,
          "internalType": "address",
          "name": "token",
          "type": "address"
        },
        {
          "indexed": false,
          "internalType": "uint256",
          "name": "oldStalePeriod",
          "type": "uint256"
        },
        {
          "indexed": false,
          "internalType": "uint256",
          "name": "newStalePeriod",
          "type": "uint256"
        }
      ],
      "name": "CustomStalePeriodUpdated",
      "type": "event"
    },
    {
      "anonymous": false,
      "inputs": [
        {
          "indexed": false,
          "internalType": "uint256",
          "name": "oldStalePeriod",
          "type": "uint256"
        },
        {
          "indexed": false,
          "internalType": "uint256",
          "name": "newStalePeriod",
          "type": "uint256"
        }
      ],
      "name": "DefaultStalePeriodUpdated",
      "type": "event"
    },
    {
      "inputs": [],
      "name": "addressProvider",
      "outputs": [
        {
          "internalType": "contract IAddressProvider",
          "name": "",
          "type": "address"
        }
      ],
      "stateMutability": "view",
      "type": "function"
    },
    {
      "inputs": [],
      "name": "btcAggregator",
      "outputs": [
        {
          "internalType": "contract AggregatorV3Interface",
          "name": "",
          "type": "address"
        }
      ],
      "stateMutability": "view",
      "type": "function"
    },
    {
      "inputs": [],
      "name": "defaultStalePeriod",
      "outputs": [
        {
          "internalType": "uint256",
          "name": "",
          "type": "uint256"
        }
      ],
      "stateMutability": "view",
      "type": "function"
    },
    {
      "inputs": [
        {
          "internalType": "address",
          "name": "",
          "type": "address"
        }
      ],
      "name": "getPriceInUsd",
      "outputs": [
        {
          "internalType": "uint256",
          "name": "_priceInUsd",
          "type": "uint256"
        }
      ],
      "stateMutability": "view",
      "type": "function"
    },
    {
      "inputs": [
        {
          "internalType": "address",
          "name": "token_",
          "type": "address"
        }
      ],
      "name": "stalePeriodOf",
      "outputs": [
        {
          "internalType": "uint256",
          "name": "_stalePeriod",
          "type": "uint256"
        }
      ],
      "stateMutability": "view",
      "type": "function"
    },
    {
      "inputs": [
        {
          "internalType": "address",
          "name": "token_",
          "type": "address"
        },
        {
          "internalType": "uint256",
          "name": "stalePeriod_",
          "type": "uint256"
        }
      ],
      "name": "updateCustomStalePeriod",
      "outputs": [],
      "stateMutability": "nonpayable",
      "type": "function"
    },
    {
      "inputs": [
        {
          "internalType": "uint256",
          "name": "stalePeriod_",
          "type": "uint256"
        }
      ],
      "name": "updateDefaultStalePeriod",
      "outputs": [],
      "stateMutability": "nonpayable",
      "type": "function"
    }
  ],
  "transactionHash": "0xc0164aff1b667c085f9fe23ace70b7cec734a5fa71fed6deafbbd76771f38522",
  "args": [
    "0xF4030086522a5bEEa4988F8cA5B36dbC97BeE88c",
    3600
  ],
  "numDeployments": 3,
  "solcInputHash": "631221980a3697b51bca4256d1fd6608",
  "bytecode": "0x60a060405234801561001057600080fd5b5060405161098338038061098383398101604081905261002f91610043565b6000556001600160a01b031660805261007d565b6000806040838503121561005657600080fd5b82516001600160a01b038116811461006d57600080fd5b6020939093015192949293505050565b6080516108e461009f6000396000818161011e015261015a01526108e46000f3fe608060405234801561001057600080fd5b506004361061007d5760003560e01c80637cf295a01161005b5780637cf295a0146100fd578063cafe465f14610110578063de6338fa14610119578063ec8969bf1461014057600080fd5b806307ee40bf146100825780632954018c146100a85780636ad7e14b146100e8575b600080fd5b61009561009036600461073b565b610153565b6040519081526020015b60405180910390f35b6100c373fba0816a81bcabbf3829bed28618177a2bf0e82a81565b60405173ffffffffffffffffffffffffffffffffffffffff909116815260200161009f565b6100fb6100f636600461075f565b610295565b005b6100fb61010b366004610778565b6103fc565b61009560005481565b6100c37f000000000000000000000000000000000000000000000000000000000000000081565b61009561014e36600461073b565b61065c565b60008060007f000000000000000000000000000000000000000000000000000000000000000073ffffffffffffffffffffffffffffffffffffffff1663feaf968c6040518163ffffffff1660e01b815260040160a06040518083038186803b1580156101be57600080fd5b505afa1580156101d2573d6000803e3d6000fd5b505050506040513d601f19601f820116820180604052508101906101f691906107be565b5093505092505061020981600054610691565b15610275576040517f08c379a000000000000000000000000000000000000000000000000000000000815260206004820152600b60248201527f7374616c652d707269636500000000000000000000000000000000000000000060448201526064015b60405180910390fd5b61027e826106a6565b61028d906402540be40061083d565b949350505050565b73fba0816a81bcabbf3829bed28618177a2bf0e82a73ffffffffffffffffffffffffffffffffffffffff16630c340a246040518163ffffffff1660e01b815260040160206040518083038186803b1580156102ef57600080fd5b505afa158015610303573d6000803e3d6000fd5b505050506040513d601f19601f82011682018060405250810190610327919061087a565b73ffffffffffffffffffffffffffffffffffffffff163373ffffffffffffffffffffffffffffffffffffffff16146103bb576040517f08c379a000000000000000000000000000000000000000000000000000000000815260206004820152600c60248201527f6e6f742d676f7665726e6f720000000000000000000000000000000000000000604482015260640161026c565b60005460408051918252602082018390527f2298ab1c5c06d8c35fa98988c0f4a11eabd87ee1f630d5633b8eef025c4fba5c910160405180910390a1600055565b73fba0816a81bcabbf3829bed28618177a2bf0e82a73ffffffffffffffffffffffffffffffffffffffff16630c340a246040518163ffffffff1660e01b815260040160206040518083038186803b15801561045657600080fd5b505afa15801561046a573d6000803e3d6000fd5b505050506040513d601f19601f8201168201806040525081019061048e919061087a565b73ffffffffffffffffffffffffffffffffffffffff163373ffffffffffffffffffffffffffffffffffffffff1614610522576040517f08c379a000000000000000000000000000000000000000000000000000000000815260206004820152600c60248201527f6e6f742d676f7665726e6f720000000000000000000000000000000000000000604482015260640161026c565b73ffffffffffffffffffffffffffffffffffffffff821661059f576040517f08c379a000000000000000000000000000000000000000000000000000000000815260206004820152600d60248201527f746f6b656e2d69732d6e756c6c00000000000000000000000000000000000000604482015260640161026c565b73ffffffffffffffffffffffffffffffffffffffff82166000818152600160209081526040918290205482519384529083015281018290527ff8186f97b3fdb2550b9756b668187a5196e4e023b0090dcdf93bfbb2999fae549060600160405180910390a180156106345773ffffffffffffffffffffffffffffffffffffffff91909116600090815260016020526040902055565b5073ffffffffffffffffffffffffffffffffffffffff16600090815260016020526040812055565b73ffffffffffffffffffffffffffffffffffffffff81166000908152600160205260409020548061068c57506000545b919050565b60008161069e8442610897565b119392505050565b600080821215610712576040517f08c379a000000000000000000000000000000000000000000000000000000000815260206004820181905260248201527f53616665436173743a2076616c7565206d75737420626520706f736974697665604482015260640161026c565b5090565b73ffffffffffffffffffffffffffffffffffffffff8116811461073857600080fd5b50565b60006020828403121561074d57600080fd5b813561075881610716565b9392505050565b60006020828403121561077157600080fd5b5035919050565b6000806040838503121561078b57600080fd5b823561079681610716565b946020939093013593505050565b805169ffffffffffffffffffff8116811461068c57600080fd5b600080600080600060a086880312156107d657600080fd5b6107df866107a4565b9450602086015193506040860151925060608601519150610802608087016107a4565b90509295509295909350565b7f4e487b7100000000000000000000000000000000000000000000000000000000600052601160045260246000fd5b6000817fffffffffffffffffffffffffffffffffffffffffffffffffffffffffffffffff04831182151516156108755761087561080e565b500290565b60006020828403121561088c57600080fd5b815161075881610716565b6000828210156108a9576108a961080e565b50039056fea26469706673582212201732be13c1c212e9622023dd703c87a9f1536870b9e97fc57cc0451f70bab41c64736f6c63430008090033",
  "devdoc": {
    "kind": "dev",
    "methods": {
      "getPriceInUsd(address)": {
        "params": {
          "token_": "The address of asset"
        },
        "returns": {
          "_priceInUsd": "The USD price"
        }
      },
      "updateCustomStalePeriod(address,uint256)": {
        "details": "Use `0` as `stalePeriod_` to remove custom stale period"
      }
    },
    "title": "Oracle for BTC-pegged tokens that uses Chainlink's BTC/USD feed",
    "version": 1
  },
  "userdoc": {
    "events": {
      "CustomStalePeriodUpdated(address,uint256,uint256)": {
        "notice": "Emitted when custom stale period is updated"
      },
      "DefaultStalePeriodUpdated(uint256,uint256)": {
        "notice": "Emitted when default stale period is updated"
      }
    },
    "kind": "user",
    "methods": {
      "btcAggregator()": {
        "notice": "Chainlink BTC/USD aggregator"
      },
      "defaultStalePeriod()": {
        "notice": "The default stale period. It's used to determine if a price is invalid (i.e. outdated)"
      },
      "getPriceInUsd(address)": {
        "notice": "Get USD (or equivalent) price of an asset"
      },
      "stalePeriodOf(address)": {
        "notice": "Get stale period of a token"
      },
      "updateCustomStalePeriod(address,uint256)": {
        "notice": "Update custom stale period"
      },
      "updateDefaultStalePeriod(uint256)": {
        "notice": "Update default stale period"
      }
    },
    "version": 1
  },
  "storageLayout": {
    "storage": [
      {
        "astId": 8496,
        "contract": "contracts/periphery/tokens/BTCPeggedTokenOracle.sol:BTCPeggedTokenOracle",
        "label": "defaultStalePeriod",
        "offset": 0,
        "slot": "0",
        "type": "t_uint256"
      },
      {
        "astId": 8501,
        "contract": "contracts/periphery/tokens/BTCPeggedTokenOracle.sol:BTCPeggedTokenOracle",
        "label": "customStalePeriod",
        "offset": 0,
        "slot": "1",
        "type": "t_mapping(t_address,t_uint256)"
      }
    ],
    "types": {
      "t_address": {
        "encoding": "inplace",
        "label": "address",
        "numberOfBytes": "20"
      },
      "t_mapping(t_address,t_uint256)": {
        "encoding": "mapping",
        "key": "t_address",
        "label": "mapping(address => uint256)",
        "numberOfBytes": "32",
        "value": "t_uint256"
      },
      "t_uint256": {
        "encoding": "inplace",
        "label": "uint256",
        "numberOfBytes": "32"
      }
    }
  }
}