{
  "address": "0x4661407fC224E5432D7f528a20EF8906E453A8f3",
  "abi": [
    {
      "anonymous": false,
      "inputs": [
        {
          "indexed": false,
          "internalType": "address",
          "name": "token",
          "type": "address"
        },
        {
          "indexed": false,
          "internalType": "contract AggregatorV3Interface",
          "name": "oldAggregator",
          "type": "address"
        },
        {
          "indexed": false,
          "internalType": "contract AggregatorV3Interface",
          "name": "newAggregator",
          "type": "address"
        }
      ],
      "name": "AggregatorUpdated",
      "type": "event"
    },
    {
      "anonymous": false,
      "inputs": [
        {
          "indexed": false,
          "internalType": "uint8",
          "name": "version",
          "type": "uint8"
        }
      ],
      "name": "Initialized",
      "type": "event"
    },
    {
      "anonymous": false,
      "inputs": [
        {
          "indexed": true,
          "internalType": "address",
          "name": "previousGovernor",
          "type": "address"
        },
        {
          "indexed": true,
          "internalType": "address",
          "name": "proposedGovernor",
          "type": "address"
        }
      ],
      "name": "UpdatedGovernor",
      "type": "event"
    },
    {
      "inputs": [],
      "name": "BTC",
      "outputs": [
        {
          "internalType": "address",
          "name": "",
          "type": "address"
        }
      ],
      "stateMutability": "view",
      "type": "function"
    },
    {
      "inputs": [],
      "name": "CHAINLINK_DECIMALS",
      "outputs": [
        {
          "internalType": "uint256",
          "name": "",
          "type": "uint256"
        }
      ],
      "stateMutability": "view",
      "type": "function"
    },
    {
      "inputs": [],
      "name": "ETH",
      "outputs": [
        {
          "internalType": "address",
          "name": "",
          "type": "address"
        }
      ],
      "stateMutability": "view",
      "type": "function"
    },
    {
      "inputs": [],
      "name": "PRICE_FEED",
      "outputs": [
        {
          "internalType": "contract FeedRegistryInterface",
          "name": "",
          "type": "address"
        }
      ],
      "stateMutability": "view",
      "type": "function"
    },
    {
      "inputs": [],
      "name": "TO_SCALE",
      "outputs": [
        {
          "internalType": "uint256",
          "name": "",
          "type": "uint256"
        }
      ],
      "stateMutability": "view",
      "type": "function"
    },
    {
      "inputs": [],
      "name": "USD",
      "outputs": [
        {
          "internalType": "address",
          "name": "",
          "type": "address"
        }
      ],
      "stateMutability": "view",
      "type": "function"
    },
    {
      "inputs": [],
      "name": "USD_DECIMALS",
      "outputs": [
        {
          "internalType": "uint256",
          "name": "",
          "type": "uint256"
        }
      ],
      "stateMutability": "view",
      "type": "function"
    },
    {
      "inputs": [],
      "name": "WBTC",
      "outputs": [
        {
          "internalType": "address",
          "name": "",
          "type": "address"
        }
      ],
      "stateMutability": "view",
      "type": "function"
    },
    {
      "inputs": [],
      "name": "WETH",
      "outputs": [
        {
          "internalType": "address",
          "name": "",
          "type": "address"
        }
      ],
      "stateMutability": "view",
      "type": "function"
    },
    {
      "inputs": [],
      "name": "acceptGovernorship",
      "outputs": [],
      "stateMutability": "nonpayable",
      "type": "function"
    },
    {
      "inputs": [
        {
          "internalType": "address",
          "name": "",
          "type": "address"
        }
      ],
      "name": "aggregators",
      "outputs": [
        {
          "internalType": "contract AggregatorV3Interface",
          "name": "",
          "type": "address"
        }
      ],
      "stateMutability": "view",
      "type": "function"
    },
    {
      "inputs": [
        {
          "internalType": "address",
          "name": "token_",
          "type": "address"
        }
      ],
      "name": "getPriceInUsd",
      "outputs": [
        {
          "internalType": "uint256",
          "name": "",
          "type": "uint256"
        },
        {
          "internalType": "uint256",
          "name": "",
          "type": "uint256"
        }
      ],
      "stateMutability": "view",
      "type": "function"
    },
    {
      "inputs": [],
      "name": "governor",
      "outputs": [
        {
          "internalType": "address",
          "name": "",
          "type": "address"
        }
      ],
      "stateMutability": "view",
      "type": "function"
    },
    {
      "inputs": [
        {
          "internalType": "address",
          "name": "tokenIn_",
          "type": "address"
        },
        {
          "internalType": "address",
          "name": "tokenOut_",
          "type": "address"
        },
        {
          "internalType": "uint256",
          "name": "amountIn_",
          "type": "uint256"
        }
      ],
      "name": "quote",
      "outputs": [
        {
          "internalType": "uint256",
          "name": "_amountOut",
          "type": "uint256"
        },
        {
          "internalType": "uint256",
          "name": "_lastUpdatedAt",
          "type": "uint256"
        }
      ],
      "stateMutability": "view",
      "type": "function"
    },
    {
      "inputs": [
        {
          "internalType": "address",
          "name": "token_",
          "type": "address"
        },
        {
          "internalType": "uint256",
          "name": "amountIn_",
          "type": "uint256"
        }
      ],
      "name": "quoteTokenToUsd",
      "outputs": [
        {
          "internalType": "uint256",
          "name": "_amountOut",
          "type": "uint256"
        },
        {
          "internalType": "uint256",
          "name": "_lastUpdatedAt",
          "type": "uint256"
        }
      ],
      "stateMutability": "view",
      "type": "function"
    },
    {
      "inputs": [
        {
          "internalType": "address",
          "name": "token_",
          "type": "address"
        },
        {
          "internalType": "uint256",
          "name": "amountIn_",
          "type": "uint256"
        }
      ],
      "name": "quoteUsdToToken",
      "outputs": [
        {
          "internalType": "uint256",
          "name": "_amountOut",
          "type": "uint256"
        },
        {
          "internalType": "uint256",
          "name": "_lastUpdatedAt",
          "type": "uint256"
        }
      ],
      "stateMutability": "view",
      "type": "function"
    },
    {
      "inputs": [
        {
          "internalType": "address",
          "name": "_proposedGovernor",
          "type": "address"
        }
      ],
      "name": "transferGovernorship",
      "outputs": [],
      "stateMutability": "nonpayable",
      "type": "function"
    },
    {
      "inputs": [
        {
          "internalType": "address",
          "name": "token_",
          "type": "address"
        },
        {
          "internalType": "contract AggregatorV3Interface",
          "name": "aggregator_",
          "type": "address"
        }
      ],
      "name": "updateAggregator",
      "outputs": [],
      "stateMutability": "nonpayable",
      "type": "function"
    }
  ],
  "transactionHash": "0x879dae1156ca6462372c8b820781e8d3615da02a8b5cf6da978b9be8d5982b73",
  "args": [],
  "numDeployments": 1,
  "solcInputHash": "b7d2ef77559d78105af4c2ea80b55c05",
  "bytecode": "0x608060405234801561001057600080fd5b506000805462010000600160b01b03191633620100008102919091178255604051909182917fd4459d5b8b913cab0244230fd9b1c08b6ceace7fe9230e60d0f74cbffdf849d0908290a3506110588061006a6000396000f3fe608060405234801561001057600080fd5b50600436106101365760003560e01c80638322fff2116100b2578063b5e9bef511610081578063b6aa515b11610066578063b6aa515b146102e5578063dee7aba4146102f8578063f3b27bc31461030057600080fd5b8063b5e9bef5146102bf578063b6466384146102d257600080fd5b80638322fff2146102615780638d0dba001461027c57806393d1f99e1461028f578063ad5c4648146102a457600080fd5b80632792949d1161010957806331eb318a116100ee57806331eb318a1461022357806334ec2a3a1461023e5780634dede3de1461024657600080fd5b80632792949d146101f25780632f6ee6951461020d57600080fd5b806307ee40bf1461013b5780630c340a2414610168578063112cdab9146101b35780631bf6c21b146101e9575b600080fd5b61014e610149366004610d2e565b610308565b604080519283526020830191909152015b60405180910390f35b60005461018e9062010000900473ffffffffffffffffffffffffffffffffffffffff1681565b60405173ffffffffffffffffffffffffffffffffffffffff909116815260200161015f565b61018e6101c1366004610d2e565b60026020526000908152604090205473ffffffffffffffffffffffffffffffffffffffff1681565b61018e61034881565b61018e73bbbbbbbbbbbbbbbbbbbbbbbbbbbbbbbbbbbbbbbb81565b610215601281565b60405190815260200161015f565b61018e7347fb2585d2c56fe188d0e6ec628a38b74fceeedf81565b610215600881565b61018e732260fac5e5542a773aa44fbcfedf7c193bc2c59981565b61018e73eeeeeeeeeeeeeeeeeeeeeeeeeeeeeeeeeeeeeeee81565b61014e61028a366004610d4b565b610545565b6102a261029d366004610d77565b610602565b005b61018e73c02aaa39b223fe8d0a0e5c4f27ead9083c756cc281565b61014e6102cd366004610d4b565b6107ba565b61014e6102e0366004610db0565b610864565b6102a26102f3366004610d2e565b61089d565b6102156109b5565b6102a26109cf565b60008073ffffffffffffffffffffffffffffffffffffffff831673c02aaa39b223fe8d0a0e5c4f27ead9083c756cc214156103595773eeeeeeeeeeeeeeeeeeeeeeeeeeeeeeeeeeeeeeee92506103a3565b73ffffffffffffffffffffffffffffffffffffffff8316732260fac5e5542a773aa44fbcfedf7c193bc2c59914156103a35773bbbbbbbbbbbbbbbbbbbbbbbbbbbbbbbbbbbbbbbb92505b6040517fbcfd032d00000000000000000000000000000000000000000000000000000000815273ffffffffffffffffffffffffffffffffffffffff84166004820152610348602482015260009081907347fb2585d2c56fe188d0e6ec628a38b74fceeedf9063bcfd032d9060440160a06040518083038186803b15801561042957600080fd5b505afa15801561043d573d6000803e3d6000fd5b505050506040513d601f19601f820116820180604052508101906104619190610e10565b506040517f58e2d3a800000000000000000000000000000000000000000000000000000000815273ffffffffffffffffffffffffffffffffffffffff8a1660048201526103486024820152929550935061053b92507347fb2585d2c56fe188d0e6ec628a38b74fceeedf916358e2d3a8915060440160206040518083038186803b1580156104ee57600080fd5b505afa158015610502573d6000803e3d6000fd5b505050506040513d601f19601f820116820180604052508101906105269190610e60565b60ff16601261053485610af6565b9190610b4c565b9590945092505050565b600080600061055385610308565b80935081925050508473ffffffffffffffffffffffffffffffffffffffff1663313ce5676040518163ffffffff1660e01b815260040160206040518083038186803b1580156105a157600080fd5b505afa1580156105b5573d6000803e3d6000fd5b505050506040513d601f19601f820116820180604052508101906105d99190610e60565b6105e490600a610f96565b6105ee8286610fa5565b6105f89190610fc4565b9250509250929050565b60005473ffffffffffffffffffffffffffffffffffffffff620100009091041633146106755760405162461bcd60e51b815260206004820152600c60248201527f6e6f742d676f7665726e6f72000000000000000000000000000000000000000060448201526064015b60405180910390fd5b73ffffffffffffffffffffffffffffffffffffffff82166106d85760405162461bcd60e51b815260206004820152600d60248201527f746f6b656e2d69732d6e756c6c00000000000000000000000000000000000000604482015260640161066c565b73ffffffffffffffffffffffffffffffffffffffff80831660009081526002602052604090205481169082168114156107535760405162461bcd60e51b815260206004820152600f60248201527f73616d652d61732d63757272656e740000000000000000000000000000000000604482015260640161066c565b61075d8383610bad565b6040805173ffffffffffffffffffffffffffffffffffffffff8581168252838116602083015284168183015290517f589e912830d38d62f14a6cf3cea8f8a002fc9288b37f0d914b5e7dc107d278bf9181900360600190a1505050565b60008060006107c885610308565b8093508192505050808573ffffffffffffffffffffffffffffffffffffffff1663313ce5676040518163ffffffff1660e01b815260040160206040518083038186803b15801561081757600080fd5b505afa15801561082b573d6000803e3d6000fd5b505050506040513d601f19601f8201168201806040525081019061084f9190610e60565b61085a90600a610f96565b6105ee9086610fa5565b6000806000806108748786610545565b9150915061088286836107ba565b90945092506108918184610cef565b92505050935093915050565b60005473ffffffffffffffffffffffffffffffffffffffff6201000090910416331461090b5760405162461bcd60e51b815260206004820152600c60248201527f6e6f742d676f7665726e6f720000000000000000000000000000000000000000604482015260640161066c565b73ffffffffffffffffffffffffffffffffffffffff811661096e5760405162461bcd60e51b815260206004820152601960248201527f70726f706f7365642d676f7665726e6f722d69732d7a65726f00000000000000604482015260640161066c565b600180547fffffffffffffffffffffffff00000000000000000000000000000000000000001673ffffffffffffffffffffffffffffffffffffffff92909216919091179055565b6109c160086012610fff565b6109cc90600a611016565b81565b60015473ffffffffffffffffffffffffffffffffffffffff163314610a365760405162461bcd60e51b815260206004820152601960248201527f6e6f742d7468652d70726f706f7365642d676f7665726e6f7200000000000000604482015260640161066c565b6001546000805460405173ffffffffffffffffffffffffffffffffffffffff9384169362010000909204909116917fd4459d5b8b913cab0244230fd9b1c08b6ceace7fe9230e60d0f74cbffdf849d091a360018054600080547fffffffffffffffffffff0000000000000000000000000000000000000000ffff1673ffffffffffffffffffffffffffffffffffffffff831662010000021790557fffffffffffffffffffffffff0000000000000000000000000000000000000000169055565b600080821215610b485760405162461bcd60e51b815260206004820181905260248201527f53616665436173743a2076616c7565206d75737420626520706f736974697665604482015260640161066c565b5090565b600081831115610b7c57610b608284610fff565b610b6b90600a611016565b610b759085610fc4565b9050610ba6565b81831015610ba357610b8e8383610fff565b610b9990600a611016565b610b759085610fa5565b50825b9392505050565b73ffffffffffffffffffffffffffffffffffffffff81161580610c50575060088173ffffffffffffffffffffffffffffffffffffffff1663313ce5676040518163ffffffff1660e01b815260040160206040518083038186803b158015610c1357600080fd5b505afa158015610c27573d6000803e3d6000fd5b505050506040513d601f19601f82011682018060405250810190610c4b9190610e60565b60ff16145b610c9c5760405162461bcd60e51b815260206004820152601060248201527f696e76616c69642d646563696d616c7300000000000000000000000000000000604482015260640161066c565b73ffffffffffffffffffffffffffffffffffffffff918216600090815260026020526040902080547fffffffffffffffffffffffff00000000000000000000000000000000000000001691909216179055565b6000818310610cfe5781610d00565b825b90505b92915050565b73ffffffffffffffffffffffffffffffffffffffff81168114610d2b57600080fd5b50565b600060208284031215610d4057600080fd5b8135610ba681610d09565b60008060408385031215610d5e57600080fd5b8235610d6981610d09565b946020939093013593505050565b60008060408385031215610d8a57600080fd5b8235610d9581610d09565b91506020830135610da581610d09565b809150509250929050565b600080600060608486031215610dc557600080fd5b8335610dd081610d09565b92506020840135610de081610d09565b929592945050506040919091013590565b805169ffffffffffffffffffff81168114610e0b57600080fd5b919050565b600080600080600060a08688031215610e2857600080fd5b610e3186610df1565b9450602086015193506040860151925060608601519150610e5460808701610df1565b90509295509295909350565b600060208284031215610e7257600080fd5b815160ff81168114610ba657600080fd5b7f4e487b7100000000000000000000000000000000000000000000000000000000600052601160045260246000fd5b600181815b80851115610eed578160001904821115610ed357610ed3610e83565b80851615610ee057918102915b93841c9390800290610eb7565b509250929050565b600082610f0457506001610d03565b81610f1157506000610d03565b8160018114610f275760028114610f3157610f4d565b6001915050610d03565b60ff841115610f4257610f42610e83565b50506001821b610d03565b5060208310610133831016604e8410600b8410161715610f70575081810a610d03565b610f7a8383610eb2565b8060001904821115610f8e57610f8e610e83565b029392505050565b6000610d0060ff841683610ef5565b6000816000190483118215151615610fbf57610fbf610e83565b500290565b600082610ffa577f4e487b7100000000000000000000000000000000000000000000000000000000600052601260045260246000fd5b500490565b60008282101561101157611011610e83565b500390565b6000610d008383610ef556fea26469706673582212209286afd9d392bda175316a7b9899edc3ce9efa7c8690b5cfa69e19b966e7fde864736f6c63430008090033",
  "devdoc": {
    "details": "This contract is more expensive (+ ~1.3k) than others contracts (that don't use feed) because they get decimals during aggregator addition",
    "kind": "dev",
    "methods": {
      "acceptGovernorship()": {
        "details": "Allows new governor to accept governorship of the contract."
      },
      "getPriceInUsd(address)": {
        "params": {
          "token_": "The address of asset"
        },
        "returns": {
          "_0": "The USD price",
          "_1": "Last updated timestamp"
        }
      },
      "quote(address,address,uint256)": {
        "params": {
          "amountIn_": "Amount of input token",
          "tokenIn_": "The address of assetIn",
          "tokenOut_": "The address of assetOut"
        },
        "returns": {
          "_amountOut": "Amount out",
          "_lastUpdatedAt": "Last updated timestamp"
        }
      },
      "quoteTokenToUsd(address,uint256)": {
        "params": {
          "amountIn_": "Amount of input token.",
          "token_": "The address of assetIn"
        },
        "returns": {
          "_amountOut": "Amount in USD",
          "_lastUpdatedAt": "Last updated timestamp"
        }
      },
      "quoteUsdToToken(address,uint256)": {
        "params": {
          "amountIn_": "Input amount in USD",
          "token_": "The address of assetOut"
        },
        "returns": {
          "_amountOut": "Output amount of token",
          "_lastUpdatedAt": "Last updated timestamp"
        }
      },
      "transferGovernorship(address)": {
        "details": "Transfers governorship of the contract to a new account (`proposedGovernor`). Can only be called by the current owner."
      }
    },
    "title": "ChainLink's price provider that uses price feed (only available on Mainnet currently)",
    "version": 1
  },
  "userdoc": {
    "events": {
      "AggregatorUpdated(address,address,address)": {
        "notice": "Emitted when an aggregator is updated"
      }
    },
    "kind": "user",
    "methods": {
      "aggregators(address)": {
        "notice": "Aggregators map (token => aggregator)"
      },
      "getPriceInUsd(address)": {
        "notice": "Get USD (or equivalent) price of an asset"
      },
      "quote(address,address,uint256)": {
        "notice": "Get quote"
      },
      "quoteTokenToUsd(address,uint256)": {
        "notice": "Get quote in USD (or equivalent) amount"
      },
      "quoteUsdToToken(address,uint256)": {
        "notice": "Get quote from USD (or equivalent) amount to amount of token"
      },
      "updateAggregator(address,address)": {
        "notice": "Update token's aggregator"
      }
    },
    "version": 1
  },
  "storageLayout": {
    "storage": [
      {
        "astId": 420,
        "contract": "contracts/core/ChainlinkFeedPriceProvider.sol:ChainlinkFeedPriceProvider",
        "label": "_initialized",
        "offset": 0,
        "slot": "0",
        "type": "t_uint8"
      },
      {
        "astId": 423,
        "contract": "contracts/core/ChainlinkFeedPriceProvider.sol:ChainlinkFeedPriceProvider",
        "label": "_initializing",
        "offset": 1,
        "slot": "0",
        "type": "t_bool"
      },
      {
        "astId": 6513,
        "contract": "contracts/core/ChainlinkFeedPriceProvider.sol:ChainlinkFeedPriceProvider",
        "label": "governor",
        "offset": 2,
        "slot": "0",
        "type": "t_address"
      },
      {
        "astId": 6515,
        "contract": "contracts/core/ChainlinkFeedPriceProvider.sol:ChainlinkFeedPriceProvider",
        "label": "proposedGovernor",
        "offset": 0,
        "slot": "1",
        "type": "t_address"
      },
      {
        "astId": 7596,
        "contract": "contracts/core/ChainlinkFeedPriceProvider.sol:ChainlinkFeedPriceProvider",
        "label": "aggregators",
        "offset": 0,
        "slot": "2",
        "type": "t_mapping(t_address,t_contract(AggregatorV3Interface)102)"
      }
    ],
    "types": {
      "t_address": {
        "encoding": "inplace",
        "label": "address",
        "numberOfBytes": "20"
      },
      "t_bool": {
        "encoding": "inplace",
        "label": "bool",
        "numberOfBytes": "1"
      },
      "t_contract(AggregatorV3Interface)102": {
        "encoding": "inplace",
        "label": "contract AggregatorV3Interface",
        "numberOfBytes": "20"
      },
      "t_mapping(t_address,t_contract(AggregatorV3Interface)102)": {
        "encoding": "mapping",
        "key": "t_address",
        "label": "mapping(address => contract AggregatorV3Interface)",
        "numberOfBytes": "32",
        "value": "t_contract(AggregatorV3Interface)102"
      },
      "t_uint8": {
        "encoding": "inplace",
        "label": "uint8",
        "numberOfBytes": "1"
      }
    }
  }
}