{
  "address": "0x7b8A1D28Ef8d09b442c6070316D92401fBAD36BF",
  "abi": [
    {
      "inputs": [],
      "stateMutability": "nonpayable",
      "type": "constructor"
    },
    {
      "anonymous": false,
      "inputs": [
        {
          "indexed": false,
          "internalType": "address",
          "name": "token",
          "type": "address"
        },
        {
          "indexed": false,
          "internalType": "uint256",
          "name": "oldStalePeriod",
          "type": "uint256"
        },
        {
          "indexed": false,
          "internalType": "uint256",
          "name": "newStalePeriod",
          "type": "uint256"
        }
      ],
      "name": "CustomStalePeriodUpdated",
      "type": "event"
    },
    {
      "anonymous": false,
      "inputs": [
        {
          "indexed": false,
          "internalType": "uint256",
          "name": "oldStalePeriod",
          "type": "uint256"
        },
        {
          "indexed": false,
          "internalType": "uint256",
          "name": "newStalePeriod",
          "type": "uint256"
        }
      ],
      "name": "DefaultStalePeriodUpdated",
      "type": "event"
    },
    {
      "anonymous": false,
      "inputs": [
        {
          "indexed": true,
          "internalType": "address",
          "name": "token",
          "type": "address"
        },
        {
          "indexed": false,
          "internalType": "contract AggregatorV3Interface",
          "name": "ethFeed",
          "type": "address"
        }
      ],
      "name": "EthFeedUpdated",
      "type": "event"
    },
    {
      "inputs": [],
      "name": "WETH",
      "outputs": [
        {
          "internalType": "address",
          "name": "",
          "type": "address"
        }
      ],
      "stateMutability": "view",
      "type": "function"
    },
    {
      "inputs": [],
      "name": "addressProvider",
      "outputs": [
        {
          "internalType": "contract IAddressProvider",
          "name": "",
          "type": "address"
        }
      ],
      "stateMutability": "view",
      "type": "function"
    },
    {
      "inputs": [],
      "name": "defaultStalePeriod",
      "outputs": [
        {
          "internalType": "uint256",
          "name": "",
          "type": "uint256"
        }
      ],
      "stateMutability": "view",
      "type": "function"
    },
    {
      "inputs": [
        {
          "internalType": "address",
          "name": "",
          "type": "address"
        }
      ],
      "name": "ethFeedOf",
      "outputs": [
        {
          "internalType": "contract AggregatorV3Interface",
          "name": "",
          "type": "address"
        }
      ],
      "stateMutability": "view",
      "type": "function"
    },
    {
      "inputs": [
        {
          "internalType": "address",
          "name": "token_",
          "type": "address"
        }
      ],
      "name": "getPriceInUsd",
      "outputs": [
        {
          "internalType": "uint256",
          "name": "_priceInUsd",
          "type": "uint256"
        }
      ],
      "stateMutability": "view",
      "type": "function"
    },
    {
      "inputs": [
        {
          "internalType": "address",
          "name": "token_",
          "type": "address"
        }
      ],
      "name": "stalePeriodOf",
      "outputs": [
        {
          "internalType": "uint256",
          "name": "_stalePeriod",
          "type": "uint256"
        }
      ],
      "stateMutability": "view",
      "type": "function"
    },
    {
      "inputs": [
        {
          "internalType": "address",
          "name": "token_",
          "type": "address"
        },
        {
          "internalType": "uint256",
          "name": "stalePeriod_",
          "type": "uint256"
        }
      ],
      "name": "updateCustomStalePeriod",
      "outputs": [],
      "stateMutability": "nonpayable",
      "type": "function"
    },
    {
      "inputs": [
        {
          "internalType": "uint256",
          "name": "stalePeriod_",
          "type": "uint256"
        }
      ],
      "name": "updateDefaultStalePeriod",
      "outputs": [],
      "stateMutability": "nonpayable",
      "type": "function"
    },
    {
      "inputs": [
        {
          "internalType": "address",
          "name": "token_",
          "type": "address"
        },
        {
          "internalType": "contract AggregatorV3Interface",
          "name": "ethFeed_",
          "type": "address"
        }
      ],
      "name": "updateEthFeed",
      "outputs": [],
      "stateMutability": "nonpayable",
      "type": "function"
    }
  ],
  "transactionHash": "0xdf4f836eb4a2a49cdaf0f78454eb09136373fbf2da01bc5cbbc8323dc76c0858",
  "args": [],
  "numDeployments": 1,
  "solcInputHash": "e8295b03461e02f8d612d09aa22ec34f",
  "bytecode": "0x608060405234801561001057600080fd5b5062015180600055610be5806100276000396000f3fe608060405234801561001057600080fd5b50600436106100a35760003560e01c806392e055ec11610076578063bc6d9e381161005b578063bc6d9e3814610164578063cafe465f1461019a578063ec8969bf146101a357600080fd5b806392e055ec14610136578063ad5c46481461014957600080fd5b806307ee40bf146100a85780632954018c146100ce5780636ad7e14b1461010e5780637cf295a014610123575b600080fd5b6100bb6100b63660046109b6565b6101b6565b6040519081526020015b60405180910390f35b6100e973fba0816a81bcabbf3829bed28618177a2bf0e82a81565b60405173ffffffffffffffffffffffffffffffffffffffff90911681526020016100c5565b61012161011c3660046109d3565b6103b1565b005b6101216101313660046109ec565b6104fe565b610121610144366004610a18565b61072a565b6100e973c02aaa39b223fe8d0a0e5c4f27ead9083c756cc281565b6100e96101723660046109b6565b60026020526000908152604090205473ffffffffffffffffffffffffffffffffffffffff1681565b6100bb60005481565b6100bb6101b13660046109b6565b6108d6565b73ffffffffffffffffffffffffffffffffffffffff8082166000908152600260205260408082205481517ffeaf968c0000000000000000000000000000000000000000000000000000000081529151929384938493929091169163feaf968c9160048083019260a0929190829003018186803b15801561023557600080fd5b505afa158015610249573d6000803e3d6000fd5b505050506040513d601f19601f8201168201806040525081019061026d9190610a6b565b5093505092505060008213801561028b5750610289848261090b565b155b6102dc5760405162461bcd60e51b815260206004820152600d60248201527f70726963652d696e76616c69640000000000000000000000000000000000000060448201526064015b60405180910390fd5b60006102e783610926565b6040517f07ee40bf00000000000000000000000000000000000000000000000000000000815273c02aaa39b223fe8d0a0e5c4f27ead9083c756cc2600482015290915060009033906307ee40bf9060240160206040518083038186803b15801561035057600080fd5b505afa158015610364573d6000803e3d6000fd5b505050506040513d601f19601f820116820180604052508101906103889190610abb565b9050670de0b6b3a764000061039d8284610b03565b6103a79190610b40565b9695505050505050565b73fba0816a81bcabbf3829bed28618177a2bf0e82a73ffffffffffffffffffffffffffffffffffffffff16630c340a246040518163ffffffff1660e01b815260040160206040518083038186803b15801561040b57600080fd5b505afa15801561041f573d6000803e3d6000fd5b505050506040513d601f19601f820116820180604052508101906104439190610b7b565b73ffffffffffffffffffffffffffffffffffffffff163373ffffffffffffffffffffffffffffffffffffffff16146104bd5760405162461bcd60e51b815260206004820152600c60248201527f6e6f742d676f7665726e6f72000000000000000000000000000000000000000060448201526064016102d3565b60005460408051918252602082018390527f2298ab1c5c06d8c35fa98988c0f4a11eabd87ee1f630d5633b8eef025c4fba5c910160405180910390a1600055565b73fba0816a81bcabbf3829bed28618177a2bf0e82a73ffffffffffffffffffffffffffffffffffffffff16630c340a246040518163ffffffff1660e01b815260040160206040518083038186803b15801561055857600080fd5b505afa15801561056c573d6000803e3d6000fd5b505050506040513d601f19601f820116820180604052508101906105909190610b7b565b73ffffffffffffffffffffffffffffffffffffffff163373ffffffffffffffffffffffffffffffffffffffff161461060a5760405162461bcd60e51b815260206004820152600c60248201527f6e6f742d676f7665726e6f72000000000000000000000000000000000000000060448201526064016102d3565b73ffffffffffffffffffffffffffffffffffffffff821661066d5760405162461bcd60e51b815260206004820152600d60248201527f746f6b656e2d69732d6e756c6c0000000000000000000000000000000000000060448201526064016102d3565b73ffffffffffffffffffffffffffffffffffffffff82166000818152600160209081526040918290205482519384529083015281018290527ff8186f97b3fdb2550b9756b668187a5196e4e023b0090dcdf93bfbb2999fae549060600160405180910390a180156107025773ffffffffffffffffffffffffffffffffffffffff91909116600090815260016020526040902055565b5073ffffffffffffffffffffffffffffffffffffffff16600090815260016020526040812055565b73fba0816a81bcabbf3829bed28618177a2bf0e82a73ffffffffffffffffffffffffffffffffffffffff16630c340a246040518163ffffffff1660e01b815260040160206040518083038186803b15801561078457600080fd5b505afa158015610798573d6000803e3d6000fd5b505050506040513d601f19601f820116820180604052508101906107bc9190610b7b565b73ffffffffffffffffffffffffffffffffffffffff163373ffffffffffffffffffffffffffffffffffffffff16146108365760405162461bcd60e51b815260206004820152600c60248201527f6e6f742d676f7665726e6f72000000000000000000000000000000000000000060448201526064016102d3565b60405173ffffffffffffffffffffffffffffffffffffffff82811682528316907fa3faead9d1c711e9154581b2f4e874040321b46356634293b09b29496bb0fba79060200160405180910390a273ffffffffffffffffffffffffffffffffffffffff918216600090815260026020526040902080547fffffffffffffffffffffffff00000000000000000000000000000000000000001691909216179055565b73ffffffffffffffffffffffffffffffffffffffff81166000908152600160205260409020548061090657506000545b919050565b600061091f8261091a856108d6565b61097c565b9392505050565b6000808212156109785760405162461bcd60e51b815260206004820181905260248201527f53616665436173743a2076616c7565206d75737420626520706f73697469766560448201526064016102d3565b5090565b6000816109898442610b98565b119392505050565b73ffffffffffffffffffffffffffffffffffffffff811681146109b357600080fd5b50565b6000602082840312156109c857600080fd5b813561091f81610991565b6000602082840312156109e557600080fd5b5035919050565b600080604083850312156109ff57600080fd5b8235610a0a81610991565b946020939093013593505050565b60008060408385031215610a2b57600080fd5b8235610a3681610991565b91506020830135610a4681610991565b809150509250929050565b805169ffffffffffffffffffff8116811461090657600080fd5b600080600080600060a08688031215610a8357600080fd5b610a8c86610a51565b9450602086015193506040860151925060608601519150610aaf60808701610a51565b90509295509295909350565b600060208284031215610acd57600080fd5b5051919050565b7f4e487b7100000000000000000000000000000000000000000000000000000000600052601160045260246000fd5b6000817fffffffffffffffffffffffffffffffffffffffffffffffffffffffffffffffff0483118215151615610b3b57610b3b610ad4565b500290565b600082610b76577f4e487b7100000000000000000000000000000000000000000000000000000000600052601260045260246000fd5b500490565b600060208284031215610b8d57600080fd5b815161091f81610991565b600082821015610baa57610baa610ad4565b50039056fea264697066735822122009f8df9503cea8455d91821c1ae7caae60c9699eb503e37e3b5e028696781f4c64736f6c63430008090033",
  "devdoc": {
    "kind": "dev",
    "methods": {
      "getPriceInUsd(address)": {
        "params": {
          "token_": "The address of asset"
        },
        "returns": {
          "_priceInUsd": "The USD price"
        }
      },
      "updateCustomStalePeriod(address,uint256)": {
        "details": "Use `0` as `stalePeriod_` to remove custom stale period"
      }
    },
    "title": "Chainlink Oracle for token with ETH-only price feed",
    "version": 1
  },
  "userdoc": {
    "events": {
      "CustomStalePeriodUpdated(address,uint256,uint256)": {
        "notice": "Emitted when custom stale period is updated"
      },
      "DefaultStalePeriodUpdated(uint256,uint256)": {
        "notice": "Emitted when default stale period is updated"
      }
    },
    "kind": "user",
    "methods": {
      "defaultStalePeriod()": {
        "notice": "The default stale period. It's used to determine if a price is invalid (i.e. outdated)"
      },
      "getPriceInUsd(address)": {
        "notice": "Get USD (or equivalent) price of an asset"
      },
      "stalePeriodOf(address)": {
        "notice": "Get stale period of a token"
      },
      "updateCustomStalePeriod(address,uint256)": {
        "notice": "Update custom stale period"
      },
      "updateDefaultStalePeriod(uint256)": {
        "notice": "Update default stale period"
      },
      "updateEthFeed(address,address)": {
        "notice": "Update default stale period"
      }
    },
    "version": 1
  },
  "storageLayout": {
    "storage": [
      {
        "astId": 8328,
        "contract": "contracts/periphery/tokens/ChainlinkEthOnlyTokenOracle.sol:ChainlinkEthOnlyTokenOracle",
        "label": "defaultStalePeriod",
        "offset": 0,
        "slot": "0",
        "type": "t_uint256"
      },
      {
        "astId": 8333,
        "contract": "contracts/periphery/tokens/ChainlinkEthOnlyTokenOracle.sol:ChainlinkEthOnlyTokenOracle",
        "label": "customStalePeriod",
        "offset": 0,
        "slot": "1",
        "type": "t_mapping(t_address,t_uint256)"
      },
      {
        "astId": 11597,
        "contract": "contracts/periphery/tokens/ChainlinkEthOnlyTokenOracle.sol:ChainlinkEthOnlyTokenOracle",
        "label": "ethFeedOf",
        "offset": 0,
        "slot": "2",
        "type": "t_mapping(t_address,t_contract(AggregatorV3Interface)102)"
      }
    ],
    "types": {
      "t_address": {
        "encoding": "inplace",
        "label": "address",
        "numberOfBytes": "20"
      },
      "t_contract(AggregatorV3Interface)102": {
        "encoding": "inplace",
        "label": "contract AggregatorV3Interface",
        "numberOfBytes": "20"
      },
      "t_mapping(t_address,t_contract(AggregatorV3Interface)102)": {
        "encoding": "mapping",
        "key": "t_address",
        "label": "mapping(address => contract AggregatorV3Interface)",
        "numberOfBytes": "32",
        "value": "t_contract(AggregatorV3Interface)102"
      },
      "t_mapping(t_address,t_uint256)": {
        "encoding": "mapping",
        "key": "t_address",
        "label": "mapping(address => uint256)",
        "numberOfBytes": "32",
        "value": "t_uint256"
      },
      "t_uint256": {
        "encoding": "inplace",
        "label": "uint256",
        "numberOfBytes": "32"
      }
    }
  }
}