{
  "address": "0x8e4F0E00904D03b2FA805c2B07C436E7A76110Bf",
  "abi": [
    {
      "inputs": [
        {
          "internalType": "contract IPriceProvidersAggregator",
          "name": "providersAggregator_",
          "type": "address"
        },
        {
          "internalType": "uint256",
          "name": "maxDeviation_",
          "type": "uint256"
        },
        {
          "internalType": "uint256",
          "name": "stalePeriod_",
          "type": "uint256"
        },
        {
          "internalType": "enum DataTypes.Provider",
          "name": "fallbackProviderA_",
          "type": "uint8"
        },
        {
          "internalType": "enum DataTypes.Provider",
          "name": "fallbackProviderB_",
          "type": "uint8"
        }
      ],
      "stateMutability": "nonpayable",
      "type": "constructor"
    },
    {
      "anonymous": false,
      "inputs": [
        {
          "indexed": false,
          "internalType": "enum DataTypes.Provider",
          "name": "oldFallbackProviderA",
          "type": "uint8"
        },
        {
          "indexed": false,
          "internalType": "enum DataTypes.Provider",
          "name": "newFallbackProviderA",
          "type": "uint8"
        },
        {
          "indexed": false,
          "internalType": "enum DataTypes.Provider",
          "name": "oldFallbackProviderB",
          "type": "uint8"
        },
        {
          "indexed": false,
          "internalType": "enum DataTypes.Provider",
          "name": "newFallbackProviderB",
          "type": "uint8"
        }
      ],
      "name": "FallbackProvidersUpdated",
      "type": "event"
    },
    {
      "anonymous": false,
      "inputs": [
        {
          "indexed": false,
          "internalType": "uint8",
          "name": "version",
          "type": "uint8"
        }
      ],
      "name": "Initialized",
      "type": "event"
    },
    {
      "anonymous": false,
      "inputs": [
        {
          "indexed": false,
          "internalType": "uint256",
          "name": "oldMaxDeviation",
          "type": "uint256"
        },
        {
          "indexed": false,
          "internalType": "uint256",
          "name": "newMaxDeviation",
          "type": "uint256"
        }
      ],
      "name": "MaxDeviationUpdated",
      "type": "event"
    },
    {
      "anonymous": false,
      "inputs": [
        {
          "indexed": false,
          "internalType": "contract IPriceProvidersAggregator",
          "name": "oldProvidersAggregator",
          "type": "address"
        },
        {
          "indexed": false,
          "internalType": "contract IPriceProvidersAggregator",
          "name": "newProvidersAggregator",
          "type": "address"
        }
      ],
      "name": "ProvidersAggregatorUpdated",
      "type": "event"
    },
    {
      "anonymous": false,
      "inputs": [
        {
          "indexed": false,
          "internalType": "uint256",
          "name": "oldStalePeriod",
          "type": "uint256"
        },
        {
          "indexed": false,
          "internalType": "uint256",
          "name": "newStalePeriod",
          "type": "uint256"
        }
      ],
      "name": "StalePeriodUpdated",
      "type": "event"
    },
    {
      "anonymous": false,
      "inputs": [
        {
          "indexed": true,
          "internalType": "address",
          "name": "previousGovernor",
          "type": "address"
        },
        {
          "indexed": true,
          "internalType": "address",
          "name": "proposedGovernor",
          "type": "address"
        }
      ],
      "name": "UpdatedGovernor",
      "type": "event"
    },
    {
      "inputs": [],
      "name": "acceptGovernorship",
      "outputs": [],
      "stateMutability": "nonpayable",
      "type": "function"
    },
    {
      "inputs": [],
      "name": "fallbackProviderA",
      "outputs": [
        {
          "internalType": "enum DataTypes.Provider",
          "name": "",
          "type": "uint8"
        }
      ],
      "stateMutability": "view",
      "type": "function"
    },
    {
      "inputs": [],
      "name": "fallbackProviderB",
      "outputs": [
        {
          "internalType": "enum DataTypes.Provider",
          "name": "",
          "type": "uint8"
        }
      ],
      "stateMutability": "view",
      "type": "function"
    },
    {
      "inputs": [
        {
          "internalType": "address",
          "name": "_asset",
          "type": "address"
        }
      ],
      "name": "getPriceInUsd",
      "outputs": [
        {
          "internalType": "uint256",
          "name": "_priceInUsd",
          "type": "uint256"
        }
      ],
      "stateMutability": "view",
      "type": "function"
    },
    {
      "inputs": [],
      "name": "governor",
      "outputs": [
        {
          "internalType": "address",
          "name": "",
          "type": "address"
        }
      ],
      "stateMutability": "view",
      "type": "function"
    },
    {
      "inputs": [],
      "name": "maxDeviation",
      "outputs": [
        {
          "internalType": "uint256",
          "name": "",
          "type": "uint256"
        }
      ],
      "stateMutability": "view",
      "type": "function"
    },
    {
      "inputs": [],
      "name": "providersAggregator",
      "outputs": [
        {
          "internalType": "contract IPriceProvidersAggregator",
          "name": "",
          "type": "address"
        }
      ],
      "stateMutability": "view",
      "type": "function"
    },
    {
      "inputs": [
        {
          "internalType": "address",
          "name": "tokenIn_",
          "type": "address"
        },
        {
          "internalType": "address",
          "name": "tokenOut_",
          "type": "address"
        },
        {
          "internalType": "uint256",
          "name": "amountIn_",
          "type": "uint256"
        }
      ],
      "name": "quote",
      "outputs": [
        {
          "internalType": "uint256",
          "name": "_amountOut",
          "type": "uint256"
        }
      ],
      "stateMutability": "view",
      "type": "function"
    },
    {
      "inputs": [
        {
          "internalType": "address",
          "name": "token_",
          "type": "address"
        },
        {
          "internalType": "uint256",
          "name": "amountIn_",
          "type": "uint256"
        }
      ],
      "name": "quoteTokenToUsd",
      "outputs": [
        {
          "internalType": "uint256",
          "name": "_amountOut",
          "type": "uint256"
        }
      ],
      "stateMutability": "view",
      "type": "function"
    },
    {
      "inputs": [
        {
          "internalType": "address",
          "name": "token_",
          "type": "address"
        },
        {
          "internalType": "uint256",
          "name": "amountIn_",
          "type": "uint256"
        }
      ],
      "name": "quoteUsdToToken",
      "outputs": [
        {
          "internalType": "uint256",
          "name": "_amountOut",
          "type": "uint256"
        }
      ],
      "stateMutability": "view",
      "type": "function"
    },
    {
      "inputs": [],
      "name": "stalePeriod",
      "outputs": [
        {
          "internalType": "uint256",
          "name": "",
          "type": "uint256"
        }
      ],
      "stateMutability": "view",
      "type": "function"
    },
    {
      "inputs": [
        {
          "internalType": "address",
          "name": "_proposedGovernor",
          "type": "address"
        }
      ],
      "name": "transferGovernorship",
      "outputs": [],
      "stateMutability": "nonpayable",
      "type": "function"
    },
    {
      "inputs": [
        {
          "internalType": "enum DataTypes.Provider",
          "name": "fallbackProviderA_",
          "type": "uint8"
        },
        {
          "internalType": "enum DataTypes.Provider",
          "name": "fallbackProviderB_",
          "type": "uint8"
        }
      ],
      "name": "updateFallbackProviders",
      "outputs": [],
      "stateMutability": "nonpayable",
      "type": "function"
    },
    {
      "inputs": [
        {
          "internalType": "uint256",
          "name": "maxDeviation_",
          "type": "uint256"
        }
      ],
      "name": "updateMaxDeviation",
      "outputs": [],
      "stateMutability": "nonpayable",
      "type": "function"
    },
    {
      "inputs": [
        {
          "internalType": "contract IPriceProvidersAggregator",
          "name": "providersAggregator_",
          "type": "address"
        }
      ],
      "name": "updateProvidersAggregator",
      "outputs": [],
      "stateMutability": "nonpayable",
      "type": "function"
    },
    {
      "inputs": [
        {
          "internalType": "uint256",
          "name": "stalePeriod_",
          "type": "uint256"
        }
      ],
      "name": "updateStalePeriod",
      "outputs": [],
      "stateMutability": "nonpayable",
      "type": "function"
    }
  ],
  "transactionHash": "0x90e3a68de59fe250c2ad66dc82f48e1957c2e0a2feb5e2658df55f7db56fda60",
  "args": [
    "0x32a21eC8ee93971D4b4093C0895FD841c7169a23",
    "50000000000000000",
    14400,
    3,
    4
  ],
  "numDeployments": 1,
  "solcInputHash": "60a21801151c3a578e76024254551efc",
  "bytecode": "0x60806040523480156200001157600080fd5b5060405162001841380380620018418339810160408190526200003491620001dc565b8284866000336000805462010000600160b01b031916620100006001600160a01b038416908102919091178255604051929350917fd4459d5b8b913cab0244230fd9b1c08b6ceace7fe9230e60d0f74cbffdf849d0908290a3506001600160a01b038116620000df5760405162461bcd60e51b81526020600482015260126024820152711859d9dc9959d85d1bdc8b5a5ccb5b9d5b1b60721b60448201526064015b60405180910390fd5b600280546001600160a01b0319166001600160a01b0392909216919091179055600355600455600082600a8111156200011c576200011c62000248565b14156200016c5760405162461bcd60e51b815260206004820152601960248201527f66616c6c6261636b2d70726f76696465722d6e6f742d736574000000000000006044820152606401620000d6565b6005805483919060ff1916600183600a8111156200018e576200018e62000248565b02179055506005805482919061ff00191661010083600a811115620001b757620001b762000248565b021790555050505050506200025e565b8051600b8110620001d757600080fd5b919050565b600080600080600060a08688031215620001f557600080fd5b85516001600160a01b03811681146200020d57600080fd5b60208701516040880151919650945092506200022c60608701620001c7565b91506200023c60808701620001c7565b90509295509295909350565b634e487b7160e01b600052602160045260246000fd5b6115d3806200026e6000396000f3fe608060405234801561001057600080fd5b50600436106101005760003560e01c80638d0dba0011610097578063b646638411610066578063b646638414610212578063b6aa515b14610225578063c1a2e32b14610238578063f3b27bc31461024b57600080fd5b80638d0dba00146101d05780638f8e162c146101e3578063a5b36a36146101f6578063b5e9bef5146101ff57600080fd5b80630c340a24116100d35780630c340a24146101765780632a1bab73146101a75780637a679230146101b0578063868de82f146101bd57600080fd5b806302651a2914610105578063028533dd1461011a57806307ee40bf146101425780630bb0b89d14610163575b600080fd5b610118610113366004611282565b610253565b005b60055461012c90610100900460ff1681565b6040516101399190611305565b60405180910390f35b61015561015036600461132b565b6102fa565b604051908152602001610139565b61011861017136600461132b565b610506565b60005461018f906201000090046001600160a01b031681565b6040516001600160a01b039091168152602001610139565b61015560035481565b60055461012c9060ff1681565b6101186101cb36600461135c565b61063e565b6101556101de36600461138f565b6107d7565b60025461018f906001600160a01b031681565b61015560045481565b61015561020d36600461138f565b6109ef565b6101556102203660046113bb565b610ae4565b61011861023336600461132b565b610d00565b610118610246366004611282565b610df1565b610118610e93565b6000546001600160a01b03620100009091041633146102b95760405162461bcd60e51b815260206004820152600c60248201527f6e6f742d676f7665726e6f72000000000000000000000000000000000000000060448201526064015b60405180910390fd5b60035460408051918252602082018390527fea7b0359048504e79474eaaa05294b49265fc4e7b0a0c3737aaa22412e90f16e910160405180910390a1600355565b600080610308600184610f93565b90925090508115801590610322575061032081611040565b155b1561032d5750919050565b60055460009081906103429060ff1686610f93565b915091506000808311801561035d575061035b82611040565b155b90506000600554610100900460ff16600a81111561037d5761037d61129b565b14156103da57806103d05760405162461bcd60e51b815260206004820152601160248201527f66616c6c6261636b2d612d6661696c656400000000000000000000000000000060448201526064016102b0565b5090949350505050565b6000806103f6600560019054906101000a900460ff1689610f93565b9150915060008083118015610411575061040f82611040565b155b90508015801561041e5750835b15610430575093979650505050505050565b80801561043b575083155b1561044d575090979650505050505050565b8380156104575750805b6104a35760405162461bcd60e51b815260206004820152601060248201527f66616c6c6261636b732d6661696c65640000000000000000000000000000000060448201526064016102b0565b6104ad868461104e565b6104f95760405162461bcd60e51b815260206004820152601960248201527f7072696365732d646576696174696f6e2d746f6f2d686967680000000000000060448201526064016102b0565b5093979650505050505050565b6000546001600160a01b03620100009091041633146105675760405162461bcd60e51b815260206004820152600c60248201527f6e6f742d676f7665726e6f72000000000000000000000000000000000000000060448201526064016102b0565b6001600160a01b0381166105bd5760405162461bcd60e51b815260206004820152600f60248201527f616464726573732d69732d6e756c6c000000000000000000000000000000000060448201526064016102b0565b600254604080516001600160a01b03928316815291831660208301527fbcc4066cae087918db8d7695e80f5dc69eb597f904c8d513f27f2d04eed8f7ca910160405180910390a1600280547fffffffffffffffffffffffff0000000000000000000000000000000000000000166001600160a01b0392909216919091179055565b6000546001600160a01b036201000090910416331461069f5760405162461bcd60e51b815260206004820152600c60248201527f6e6f742d676f7665726e6f72000000000000000000000000000000000000000060448201526064016102b0565b600082600a8111156106b3576106b361129b565b14156107015760405162461bcd60e51b815260206004820152601260248201527f66616c6c6261636b2d612d69732d6e756c6c000000000000000000000000000060448201526064016102b0565b6005546040517f4eab60c8c5ba1a19c902f9ddbd28319fca0c179916440ef40ba8f2e483d12ef2916107469160ff8083169287926101009091049091169086906113fc565b60405180910390a1600580548391907fffffffffffffffffffffffffffffffffffffffffffffffffffffffffffffff0016600183600a81111561078b5761078b61129b565b0217905550600580548291907fffffffffffffffffffffffffffffffffffffffffffffffffffffffffffff00ff1661010083600a8111156107ce576107ce61129b565b02179055505050565b6000806107e6600185856110b8565b9092509050811580159061080057506107fe81611040565b155b1561080b57506109e9565b60055460009081906108219060ff1687876110b8565b915091506000808311801561083c575061083a82611040565b155b90506000600554610100900460ff16600a81111561085c5761085c61129b565b14156108bb57806108af5760405162461bcd60e51b815260206004820152601160248201527f66616c6c6261636b2d612d6661696c656400000000000000000000000000000060448201526064016102b0565b829450505050506109e9565b6000806108d8600560019054906101000a900460ff168a8a6110b8565b91509150600080831180156108f357506108f182611040565b155b9050801580156109005750835b1561091457859750505050505050506109e9565b80801561091f575083155b1561093357829750505050505050506109e9565b83801561093d5750805b6109895760405162461bcd60e51b815260206004820152601060248201527f66616c6c6261636b732d6661696c65640000000000000000000000000000000060448201526064016102b0565b610993868461104e565b6109df5760405162461bcd60e51b815260206004820152601960248201527f7072696365732d646576696174696f6e2d746f6f2d686967680000000000000060448201526064016102b0565b5093955050505050505b92915050565b6000806109fe60018585611168565b90925090508115801590610a185750610a1681611040565b155b15610a2357506109e9565b6005546000908190610a399060ff168787611168565b9150915060008083118015610a545750610a5282611040565b155b90506000600554610100900460ff16600a811115610a7457610a7461129b565b1415610ac757806108af5760405162461bcd60e51b815260206004820152601160248201527f66616c6c6261636b2d612d6661696c656400000000000000000000000000000060448201526064016102b0565b6000806108d8600560019054906101000a900460ff168a8a611168565b600080610af460018686866111ba565b90925090508115801590610b0e5750610b0c81611040565b155b15610b195750610cf9565b6005546000908190610b309060ff168888886111ba565b9150915060008083118015610b4b5750610b4982611040565b155b90506000600554610100900460ff16600a811115610b6b57610b6b61129b565b1415610bca5780610bbe5760405162461bcd60e51b815260206004820152601160248201527f66616c6c6261636b2d612d6661696c656400000000000000000000000000000060448201526064016102b0565b82945050505050610cf9565b600080610be8600560019054906101000a900460ff168b8b8b6111ba565b9150915060008083118015610c035750610c0182611040565b155b905080158015610c105750835b15610c245785975050505050505050610cf9565b808015610c2f575083155b15610c435782975050505050505050610cf9565b838015610c4d5750805b610c995760405162461bcd60e51b815260206004820152601060248201527f66616c6c6261636b732d6661696c65640000000000000000000000000000000060448201526064016102b0565b610ca3868461104e565b610cef5760405162461bcd60e51b815260206004820152601960248201527f7072696365732d646576696174696f6e2d746f6f2d686967680000000000000060448201526064016102b0565b5093955050505050505b9392505050565b6000546001600160a01b0362010000909104163314610d615760405162461bcd60e51b815260206004820152600c60248201527f6e6f742d676f7665726e6f72000000000000000000000000000000000000000060448201526064016102b0565b6001600160a01b038116610db75760405162461bcd60e51b815260206004820152601960248201527f70726f706f7365642d676f7665726e6f722d69732d7a65726f0000000000000060448201526064016102b0565b600180547fffffffffffffffffffffffff0000000000000000000000000000000000000000166001600160a01b0392909216919091179055565b6000546001600160a01b0362010000909104163314610e525760405162461bcd60e51b815260206004820152600c60248201527f6e6f742d676f7665726e6f72000000000000000000000000000000000000000060448201526064016102b0565b60045460408051918252602082018390527f1dcb97516840282e793e073fe5a34e75c575d63193a3cbed8fa1930b27df4720910160405180910390a1600455565b6001546001600160a01b03163314610eed5760405162461bcd60e51b815260206004820152601960248201527f6e6f742d7468652d70726f706f7365642d676f7665726e6f720000000000000060448201526064016102b0565b600154600080546040516001600160a01b039384169362010000909204909116917fd4459d5b8b913cab0244230fd9b1c08b6ceace7fe9230e60d0f74cbffdf849d091a360018054600080547fffffffffffffffffffff0000000000000000000000000000000000000000ffff166001600160a01b03831662010000021790557fffffffffffffffffffffffff0000000000000000000000000000000000000000169055565b6002546040517f8285094800000000000000000000000000000000000000000000000000000000815260009182916001600160a01b0390911690638285094890610fe3908790879060040161143a565b604080518083038186803b158015610ffa57600080fd5b505afa92505050801561102a575060408051601f3d908101601f191682019092526110279181019061145e565b60015b61103357611039565b90925090505b9250929050565b60006109e98260045461126d565b600080828411611084578261106385826114b1565b61107590670de0b6b3a76400006114c8565b61107f9190611505565b6110ab565b8361108f84826114b1565b6110a190670de0b6b3a76400006114c8565b6110ab9190611505565b6003541015949350505050565b6002546040517f2b041e3a00000000000000000000000000000000000000000000000000000000815260009182916001600160a01b0390911690632b041e3a9061110a90889088908890600401611540565b604080518083038186803b15801561112157600080fd5b505afa925050508015611151575060408051601f3d908101601f1916820190925261114e9181019061145e565b60015b61115a57611160565b90925090505b935093915050565b6002546040517f777f1be900000000000000000000000000000000000000000000000000000000815260009182916001600160a01b039091169063777f1be99061110a90889088908890600401611540565b6002546040517f037c696a00000000000000000000000000000000000000000000000000000000815260009182916001600160a01b039091169063037c696a9061120e908990899089908990600401611568565b604080518083038186803b15801561122557600080fd5b505afa925050508015611255575060408051601f3d908101601f191682019092526112529181019061145e565b60015b61125e57611264565b90925090505b94509492505050565b60008161127a84426114b1565b119392505050565b60006020828403121561129457600080fd5b5035919050565b7f4e487b7100000000000000000000000000000000000000000000000000000000600052602160045260246000fd5b600b8110611301577f4e487b7100000000000000000000000000000000000000000000000000000000600052602160045260246000fd5b9052565b602081016109e982846112ca565b6001600160a01b038116811461132857600080fd5b50565b60006020828403121561133d57600080fd5b8135610cf981611313565b8035600b811061135757600080fd5b919050565b6000806040838503121561136f57600080fd5b61137883611348565b915061138660208401611348565b90509250929050565b600080604083850312156113a257600080fd5b82356113ad81611313565b946020939093013593505050565b6000806000606084860312156113d057600080fd5b83356113db81611313565b925060208401356113eb81611313565b929592945050506040919091013590565b6080810161140a82876112ca565b61141760208301866112ca565b61142460408301856112ca565b61143160608301846112ca565b95945050505050565b6040810161144882856112ca565b6001600160a01b03831660208301529392505050565b6000806040838503121561147157600080fd5b505080516020909101519092909150565b7f4e487b7100000000000000000000000000000000000000000000000000000000600052601160045260246000fd5b6000828210156114c3576114c3611482565b500390565b6000817fffffffffffffffffffffffffffffffffffffffffffffffffffffffffffffffff048311821515161561150057611500611482565b500290565b60008261153b577f4e487b7100000000000000000000000000000000000000000000000000000000600052601260045260246000fd5b500490565b6060810161154e82866112ca565b6001600160a01b0393909316602082015260400152919050565b6080810161157682876112ca565b6001600160a01b03948516602083015292909316604084015260609092019190915291905056fea2646970667358221220d378bb52a1ae46aa83cae8295b9e13f3140403e7cea79272e1c6d20b7a070df864736f6c63430008090033",
  "devdoc": {
    "details": "Uses chainlink as primary oracle, if it doesn't support the asset(s), get price from fallback providers",
    "kind": "dev",
    "methods": {
      "acceptGovernorship()": {
        "details": "Allows new governor to accept governorship of the contract."
      },
      "getPriceInUsd(address)": {
        "params": {
          "token_": "The address of asset"
        },
        "returns": {
          "_priceInUsd": "The USD price"
        }
      },
      "quote(address,address,uint256)": {
        "params": {
          "amountIn_": "Amount of input token",
          "tokenIn_": "The address of assetIn",
          "tokenOut_": "The address of assetOut"
        },
        "returns": {
          "_amountOut": "Amount out"
        }
      },
      "quoteTokenToUsd(address,uint256)": {
        "params": {
          "amountIn_": "Amount of input token.",
          "token_": "The address of assetIn"
        },
        "returns": {
          "_amountOut": "Amount in USD"
        }
      },
      "quoteUsdToToken(address,uint256)": {
        "params": {
          "amountIn_": "Input amount in USD",
          "token_": "The address of assetOut"
        },
        "returns": {
          "_amountOut": "Output amount of token"
        }
      },
      "transferGovernorship(address)": {
        "details": "Transfers governorship of the contract to a new account (`proposedGovernor`). Can only be called by the current owner."
      },
      "updateFallbackProviders(uint8,uint8)": {
        "details": "The fallback provider B is optional"
      }
    },
    "stateVariables": {
      "fallbackProviderB": {
        "details": "This is optional"
      }
    },
    "title": "Chainlink and Fallbacks oracle",
    "version": 1
  },
  "userdoc": {
    "events": {
      "FallbackProvidersUpdated(uint8,uint8,uint8,uint8)": {
        "notice": "Emitted when fallback providers are updated"
      },
      "MaxDeviationUpdated(uint256,uint256)": {
        "notice": "Emitted when max deviation is updated"
      },
      "ProvidersAggregatorUpdated(address,address)": {
        "notice": "Emitted when providers aggregator is updated"
      },
      "StalePeriodUpdated(uint256,uint256)": {
        "notice": "Emitted when stale period is updated"
      }
    },
    "kind": "user",
    "methods": {
      "fallbackProviderA()": {
        "notice": "The fallback provider A. It's used when Chainlink isn't available"
      },
      "fallbackProviderB()": {
        "notice": "The fallback provider B. It's used when Chainlink isn't available"
      },
      "getPriceInUsd(address)": {
        "notice": "Get USD (or equivalent) price of an asset"
      },
      "maxDeviation()": {
        "notice": "The max acceptable deviation"
      },
      "providersAggregator()": {
        "notice": "The PriceProvidersAggregator contract"
      },
      "quote(address,address,uint256)": {
        "notice": "Get quote"
      },
      "quoteTokenToUsd(address,uint256)": {
        "notice": "Get quote in USD (or equivalent) amount"
      },
      "quoteUsdToToken(address,uint256)": {
        "notice": "Get quote from USD (or equivalent) amount to amount of token"
      },
      "stalePeriod()": {
        "notice": "The stale period. It's used to determine if a price is invalid (i.e. outdated)"
      },
      "updateFallbackProviders(uint8,uint8)": {
        "notice": "Update fallback providers"
      },
      "updateMaxDeviation(uint256)": {
        "notice": "Update max deviation"
      },
      "updateProvidersAggregator(address)": {
        "notice": "Update PriceProvidersAggregator contract"
      },
      "updateStalePeriod(uint256)": {
        "notice": "Update stale period"
      }
    },
    "version": 1
  },
  "storageLayout": {
    "storage": [
      {
        "astId": 420,
        "contract": "contracts/periphery/ChainlinkAndFallbacksOracle.sol:ChainlinkAndFallbacksOracle",
        "label": "_initialized",
        "offset": 0,
        "slot": "0",
        "type": "t_uint8"
      },
      {
        "astId": 423,
        "contract": "contracts/periphery/ChainlinkAndFallbacksOracle.sol:ChainlinkAndFallbacksOracle",
        "label": "_initializing",
        "offset": 1,
        "slot": "0",
        "type": "t_bool"
      },
      {
        "astId": 6513,
        "contract": "contracts/periphery/ChainlinkAndFallbacksOracle.sol:ChainlinkAndFallbacksOracle",
        "label": "governor",
        "offset": 2,
        "slot": "0",
        "type": "t_address"
      },
      {
        "astId": 6515,
        "contract": "contracts/periphery/ChainlinkAndFallbacksOracle.sol:ChainlinkAndFallbacksOracle",
        "label": "proposedGovernor",
        "offset": 0,
        "slot": "1",
        "type": "t_address"
      },
      {
        "astId": 11406,
        "contract": "contracts/periphery/ChainlinkAndFallbacksOracle.sol:ChainlinkAndFallbacksOracle",
        "label": "providersAggregator",
        "offset": 0,
        "slot": "2",
        "type": "t_contract(IPriceProvidersAggregator)11809"
      },
      {
        "astId": 11319,
        "contract": "contracts/periphery/ChainlinkAndFallbacksOracle.sol:ChainlinkAndFallbacksOracle",
        "label": "maxDeviation",
        "offset": 0,
        "slot": "3",
        "type": "t_uint256"
      },
      {
        "astId": 11532,
        "contract": "contracts/periphery/ChainlinkAndFallbacksOracle.sol:ChainlinkAndFallbacksOracle",
        "label": "stalePeriod",
        "offset": 0,
        "slot": "4",
        "type": "t_uint256"
      },
      {
        "astId": 13388,
        "contract": "contracts/periphery/ChainlinkAndFallbacksOracle.sol:ChainlinkAndFallbacksOracle",
        "label": "fallbackProviderA",
        "offset": 0,
        "slot": "5",
        "type": "t_enum(Provider)13013"
      },
      {
        "astId": 13392,
        "contract": "contracts/periphery/ChainlinkAndFallbacksOracle.sol:ChainlinkAndFallbacksOracle",
        "label": "fallbackProviderB",
        "offset": 1,
        "slot": "5",
        "type": "t_enum(Provider)13013"
      }
    ],
    "types": {
      "t_address": {
        "encoding": "inplace",
        "label": "address",
        "numberOfBytes": "20"
      },
      "t_bool": {
        "encoding": "inplace",
        "label": "bool",
        "numberOfBytes": "1"
      },
      "t_contract(IPriceProvidersAggregator)11809": {
        "encoding": "inplace",
        "label": "contract IPriceProvidersAggregator",
        "numberOfBytes": "20"
      },
      "t_enum(Provider)13013": {
        "encoding": "inplace",
        "label": "enum DataTypes.Provider",
        "numberOfBytes": "1"
      },
      "t_uint256": {
        "encoding": "inplace",
        "label": "uint256",
        "numberOfBytes": "32"
      },
      "t_uint8": {
        "encoding": "inplace",
        "label": "uint8",
        "numberOfBytes": "1"
      }
    }
  }
}