{
  "address": "0x60f440B2013Aa8d5CbD389F48E30eA942231449b",
  "abi": [
    {
      "inputs": [
        {
          "internalType": "uint256",
          "name": "maxDeviation_",
          "type": "uint256"
        },
        {
          "internalType": "uint256",
          "name": "stalePeriod_",
          "type": "uint256"
        },
        {
          "internalType": "enum DataTypes.Provider",
          "name": "fallbackProviderA_",
          "type": "uint8"
        },
        {
          "internalType": "enum DataTypes.Provider",
          "name": "fallbackProviderB_",
          "type": "uint8"
        }
      ],
      "stateMutability": "nonpayable",
      "type": "constructor"
    },
    {
      "anonymous": false,
      "inputs": [
        {
          "indexed": false,
          "internalType": "enum DataTypes.Provider",
          "name": "oldFallbackProviderA",
          "type": "uint8"
        },
        {
          "indexed": false,
          "internalType": "enum DataTypes.Provider",
          "name": "newFallbackProviderA",
          "type": "uint8"
        },
        {
          "indexed": false,
          "internalType": "enum DataTypes.Provider",
          "name": "oldFallbackProviderB",
          "type": "uint8"
        },
        {
          "indexed": false,
          "internalType": "enum DataTypes.Provider",
          "name": "newFallbackProviderB",
          "type": "uint8"
        }
      ],
      "name": "FallbackProvidersUpdated",
      "type": "event"
    },
    {
      "anonymous": false,
      "inputs": [
        {
          "indexed": false,
          "internalType": "uint256",
          "name": "oldMaxDeviation",
          "type": "uint256"
        },
        {
          "indexed": false,
          "internalType": "uint256",
          "name": "newMaxDeviation",
          "type": "uint256"
        }
      ],
      "name": "MaxDeviationUpdated",
      "type": "event"
    },
    {
      "anonymous": false,
      "inputs": [
        {
          "indexed": false,
          "internalType": "uint256",
          "name": "oldStalePeriod",
          "type": "uint256"
        },
        {
          "indexed": false,
          "internalType": "uint256",
          "name": "newStalePeriod",
          "type": "uint256"
        }
      ],
      "name": "StalePeriodUpdated",
      "type": "event"
    },
    {
      "inputs": [],
      "name": "addressProvider",
      "outputs": [
        {
          "internalType": "contract IAddressProvider",
          "name": "",
          "type": "address"
        }
      ],
      "stateMutability": "view",
      "type": "function"
    },
    {
      "inputs": [],
      "name": "fallbackProviderA",
      "outputs": [
        {
          "internalType": "enum DataTypes.Provider",
          "name": "",
          "type": "uint8"
        }
      ],
      "stateMutability": "view",
      "type": "function"
    },
    {
      "inputs": [],
      "name": "fallbackProviderB",
      "outputs": [
        {
          "internalType": "enum DataTypes.Provider",
          "name": "",
          "type": "uint8"
        }
      ],
      "stateMutability": "view",
      "type": "function"
    },
    {
      "inputs": [
        {
          "internalType": "address",
          "name": "_asset",
          "type": "address"
        }
      ],
      "name": "getPriceInUsd",
      "outputs": [
        {
          "internalType": "uint256",
          "name": "_priceInUsd",
          "type": "uint256"
        }
      ],
      "stateMutability": "view",
      "type": "function"
    },
    {
      "inputs": [],
      "name": "maxDeviation",
      "outputs": [
        {
          "internalType": "uint256",
          "name": "",
          "type": "uint256"
        }
      ],
      "stateMutability": "view",
      "type": "function"
    },
    {
      "inputs": [
        {
          "internalType": "address",
          "name": "tokenIn_",
          "type": "address"
        },
        {
          "internalType": "address",
          "name": "tokenOut_",
          "type": "address"
        },
        {
          "internalType": "uint256",
          "name": "amountIn_",
          "type": "uint256"
        }
      ],
      "name": "quote",
      "outputs": [
        {
          "internalType": "uint256",
          "name": "_amountOut",
          "type": "uint256"
        }
      ],
      "stateMutability": "view",
      "type": "function"
    },
    {
      "inputs": [
        {
          "internalType": "address",
          "name": "token_",
          "type": "address"
        },
        {
          "internalType": "uint256",
          "name": "amountIn_",
          "type": "uint256"
        }
      ],
      "name": "quoteTokenToUsd",
      "outputs": [
        {
          "internalType": "uint256",
          "name": "_amountOut",
          "type": "uint256"
        }
      ],
      "stateMutability": "view",
      "type": "function"
    },
    {
      "inputs": [
        {
          "internalType": "address",
          "name": "token_",
          "type": "address"
        },
        {
          "internalType": "uint256",
          "name": "amountIn_",
          "type": "uint256"
        }
      ],
      "name": "quoteUsdToToken",
      "outputs": [
        {
          "internalType": "uint256",
          "name": "_amountOut",
          "type": "uint256"
        }
      ],
      "stateMutability": "view",
      "type": "function"
    },
    {
      "inputs": [],
      "name": "stalePeriod",
      "outputs": [
        {
          "internalType": "uint256",
          "name": "",
          "type": "uint256"
        }
      ],
      "stateMutability": "view",
      "type": "function"
    },
    {
      "inputs": [
        {
          "internalType": "enum DataTypes.Provider",
          "name": "fallbackProviderA_",
          "type": "uint8"
        },
        {
          "internalType": "enum DataTypes.Provider",
          "name": "fallbackProviderB_",
          "type": "uint8"
        }
      ],
      "name": "updateFallbackProviders",
      "outputs": [],
      "stateMutability": "nonpayable",
      "type": "function"
    },
    {
      "inputs": [
        {
          "internalType": "uint256",
          "name": "maxDeviation_",
          "type": "uint256"
        }
      ],
      "name": "updateMaxDeviation",
      "outputs": [],
      "stateMutability": "nonpayable",
      "type": "function"
    },
    {
      "inputs": [
        {
          "internalType": "uint256",
          "name": "stalePeriod_",
          "type": "uint256"
        }
      ],
      "name": "updateStalePeriod",
      "outputs": [],
      "stateMutability": "nonpayable",
      "type": "function"
    }
  ],
  "transactionHash": "0x658244c5cb38bcaf3e2f1dbf71b7a7af7df5958c5d5abc48715a80f5ed7b891f",
  "args": [
    "50000000000000000",
    14400,
    3,
    4
  ],
  "numDeployments": 2,
  "solcInputHash": "8b654c506c10a4071125075f82070c93",
  "bytecode": "0x60806040523480156200001157600080fd5b506040516200182038038062001820833981016040819052620000349162000115565b6000848155600184905582600a81111562000053576200005362000160565b1415620000a65760405162461bcd60e51b815260206004820152601960248201527f66616c6c6261636b2d70726f76696465722d6e6f742d73657400000000000000604482015260640160405180910390fd5b6002805483919060ff1916600183600a811115620000c857620000c862000160565b02179055506002805482919061ff00191661010083600a811115620000f157620000f162000160565b02179055505050505062000176565b8051600b81106200011057600080fd5b919050565b600080600080608085870312156200012c57600080fd5b8451935060208501519250620001456040860162000100565b9150620001556060860162000100565b905092959194509250565b634e487b7160e01b600052602160045260246000fd5b61169a80620001866000396000f3fe608060405234801561001057600080fd5b50600436106100d45760003560e01c8063868de82f11610081578063b5e9bef51161005b578063b5e9bef5146101bc578063b6466384146101cf578063c1a2e32b146101e257600080fd5b8063868de82f1461018d5780638d0dba00146101a0578063a5b36a36146101b357600080fd5b80632954018c116100b25780632954018c146101375780632a1bab73146101775780637a6792301461018057600080fd5b806302651a29146100d9578063028533dd146100ee57806307ee40bf14610116575b600080fd5b6100ec6100e73660046112f8565b6101f5565b005b60025461010090610100900460ff1681565b60405161010d919061137b565b60405180910390f35b6101296101243660046113ae565b610347565b60405190815260200161010d565b61015273fba0816a81bcabbf3829bed28618177a2bf0e82a81565b60405173ffffffffffffffffffffffffffffffffffffffff909116815260200161010d565b61012960005481565b6002546101009060ff1681565b6100ec61019b3660046113df565b610553565b6101296101ae366004611412565b610797565b61012960015481565b6101296101ca366004611412565b6109af565b6101296101dd36600461143e565b610aa4565b6100ec6101f03660046112f8565b610cc0565b73fba0816a81bcabbf3829bed28618177a2bf0e82a73ffffffffffffffffffffffffffffffffffffffff16630c340a246040518163ffffffff1660e01b815260040160206040518083038186803b15801561024f57600080fd5b505afa158015610263573d6000803e3d6000fd5b505050506040513d601f19601f82011682018060405250810190610287919061147f565b73ffffffffffffffffffffffffffffffffffffffff163373ffffffffffffffffffffffffffffffffffffffff16146103065760405162461bcd60e51b815260206004820152600c60248201527f6e6f742d676f7665726e6f72000000000000000000000000000000000000000060448201526064015b60405180910390fd5b60005460408051918252602082018390527fea7b0359048504e79474eaaa05294b49265fc4e7b0a0c3737aaa22412e90f16e910160405180910390a1600055565b600080610355600184610e0d565b9092509050811580159061036f575061036d81610f39565b155b1561037a5750919050565b600254600090819061038f9060ff1686610e0d565b91509150600080831180156103aa57506103a882610f39565b155b90506000600254610100900460ff16600a8111156103ca576103ca611311565b1415610427578061041d5760405162461bcd60e51b815260206004820152601160248201527f66616c6c6261636b2d612d6661696c656400000000000000000000000000000060448201526064016102fd565b5090949350505050565b600080610443600260019054906101000a900460ff1689610e0d565b915091506000808311801561045e575061045c82610f39565b155b90508015801561046b5750835b1561047d575093979650505050505050565b808015610488575083155b1561049a575090979650505050505050565b8380156104a45750805b6104f05760405162461bcd60e51b815260206004820152601060248201527f66616c6c6261636b732d6661696c65640000000000000000000000000000000060448201526064016102fd565b6104fa8684610f47565b6105465760405162461bcd60e51b815260206004820152601960248201527f7072696365732d646576696174696f6e2d746f6f2d686967680000000000000060448201526064016102fd565b5093979650505050505050565b73fba0816a81bcabbf3829bed28618177a2bf0e82a73ffffffffffffffffffffffffffffffffffffffff16630c340a246040518163ffffffff1660e01b815260040160206040518083038186803b1580156105ad57600080fd5b505afa1580156105c1573d6000803e3d6000fd5b505050506040513d601f19601f820116820180604052508101906105e5919061147f565b73ffffffffffffffffffffffffffffffffffffffff163373ffffffffffffffffffffffffffffffffffffffff161461065f5760405162461bcd60e51b815260206004820152600c60248201527f6e6f742d676f7665726e6f72000000000000000000000000000000000000000060448201526064016102fd565b600082600a81111561067357610673611311565b14156106c15760405162461bcd60e51b815260206004820152601260248201527f66616c6c6261636b2d612d69732d6e756c6c000000000000000000000000000060448201526064016102fd565b6002546040517f4eab60c8c5ba1a19c902f9ddbd28319fca0c179916440ef40ba8f2e483d12ef2916107069160ff80831692879261010090910490911690869061149c565b60405180910390a1600280548391907fffffffffffffffffffffffffffffffffffffffffffffffffffffffffffffff0016600183600a81111561074b5761074b611311565b0217905550600280548291907fffffffffffffffffffffffffffffffffffffffffffffffffffffffffffff00ff1661010083600a81111561078e5761078e611311565b02179055505050565b6000806107a660018585610fb1565b909250905081158015906107c057506107be81610f39565b155b156107cb57506109a9565b60025460009081906107e19060ff168787610fb1565b91509150600080831180156107fc57506107fa82610f39565b155b90506000600254610100900460ff16600a81111561081c5761081c611311565b141561087b578061086f5760405162461bcd60e51b815260206004820152601160248201527f66616c6c6261636b2d612d6661696c656400000000000000000000000000000060448201526064016102fd565b829450505050506109a9565b600080610898600260019054906101000a900460ff168a8a610fb1565b91509150600080831180156108b357506108b182610f39565b155b9050801580156108c05750835b156108d457859750505050505050506109a9565b8080156108df575083155b156108f357829750505050505050506109a9565b8380156108fd5750805b6109495760405162461bcd60e51b815260206004820152601060248201527f66616c6c6261636b732d6661696c65640000000000000000000000000000000060448201526064016102fd565b6109538684610f47565b61099f5760405162461bcd60e51b815260206004820152601960248201527f7072696365732d646576696174696f6e2d746f6f2d686967680000000000000060448201526064016102fd565b5093955050505050505b92915050565b6000806109be600185856110e0565b909250905081158015906109d857506109d681610f39565b155b156109e357506109a9565b60025460009081906109f99060ff1687876110e0565b9150915060008083118015610a145750610a1282610f39565b155b90506000600254610100900460ff16600a811115610a3457610a34611311565b1415610a87578061086f5760405162461bcd60e51b815260206004820152601160248201527f66616c6c6261636b2d612d6661696c656400000000000000000000000000000060448201526064016102fd565b600080610898600260019054906101000a900460ff168a8a6110e0565b600080610ab460018686866111b1565b90925090508115801590610ace5750610acc81610f39565b155b15610ad95750610cb9565b6002546000908190610af09060ff168888886111b1565b9150915060008083118015610b0b5750610b0982610f39565b155b90506000600254610100900460ff16600a811115610b2b57610b2b611311565b1415610b8a5780610b7e5760405162461bcd60e51b815260206004820152601160248201527f66616c6c6261636b2d612d6661696c656400000000000000000000000000000060448201526064016102fd565b82945050505050610cb9565b600080610ba8600260019054906101000a900460ff168b8b8b6111b1565b9150915060008083118015610bc35750610bc182610f39565b155b905080158015610bd05750835b15610be45785975050505050505050610cb9565b808015610bef575083155b15610c035782975050505050505050610cb9565b838015610c0d5750805b610c595760405162461bcd60e51b815260206004820152601060248201527f66616c6c6261636b732d6661696c65640000000000000000000000000000000060448201526064016102fd565b610c638684610f47565b610caf5760405162461bcd60e51b815260206004820152601960248201527f7072696365732d646576696174696f6e2d746f6f2d686967680000000000000060448201526064016102fd565b5093955050505050505b9392505050565b73fba0816a81bcabbf3829bed28618177a2bf0e82a73ffffffffffffffffffffffffffffffffffffffff16630c340a246040518163ffffffff1660e01b815260040160206040518083038186803b158015610d1a57600080fd5b505afa158015610d2e573d6000803e3d6000fd5b505050506040513d601f19601f82011682018060405250810190610d52919061147f565b73ffffffffffffffffffffffffffffffffffffffff163373ffffffffffffffffffffffffffffffffffffffff1614610dcc5760405162461bcd60e51b815260206004820152600c60248201527f6e6f742d676f7665726e6f72000000000000000000000000000000000000000060448201526064016102fd565b60015460408051918252602082018390527f1dcb97516840282e793e073fe5a34e75c575d63193a3cbed8fa1930b27df4720910160405180910390a1600155565b60008073fba0816a81bcabbf3829bed28618177a2bf0e82a73ffffffffffffffffffffffffffffffffffffffff16638f8e162c6040518163ffffffff1660e01b815260040160206040518083038186803b158015610e6a57600080fd5b505afa158015610e7e573d6000803e3d6000fd5b505050506040513d601f19601f82011682018060405250810190610ea2919061147f565b73ffffffffffffffffffffffffffffffffffffffff16638285094885856040518363ffffffff1660e01b8152600401610edc9291906114da565b604080518083038186803b158015610ef357600080fd5b505afa925050508015610f23575060408051601f3d908101601f19168201909252610f209181019061150b565b60015b610f2c57610f32565b90925090505b9250929050565b60006109a9826001546112e3565b600080828411610f7d5782610f5c858261155e565b610f6e90670de0b6b3a7640000611575565b610f7891906115b2565b610fa4565b83610f88848261155e565b610f9a90670de0b6b3a7640000611575565b610fa491906115b2565b6000541015949350505050565b60008073fba0816a81bcabbf3829bed28618177a2bf0e82a73ffffffffffffffffffffffffffffffffffffffff16638f8e162c6040518163ffffffff1660e01b815260040160206040518083038186803b15801561100e57600080fd5b505afa158015611022573d6000803e3d6000fd5b505050506040513d601f19601f82011682018060405250810190611046919061147f565b73ffffffffffffffffffffffffffffffffffffffff16632b041e3a8686866040518463ffffffff1660e01b8152600401611082939291906115ed565b604080518083038186803b15801561109957600080fd5b505afa9250505080156110c9575060408051601f3d908101601f191682019092526110c69181019061150b565b60015b6110d2576110d8565b90925090505b935093915050565b60008073fba0816a81bcabbf3829bed28618177a2bf0e82a73ffffffffffffffffffffffffffffffffffffffff16638f8e162c6040518163ffffffff1660e01b815260040160206040518083038186803b15801561113d57600080fd5b505afa158015611151573d6000803e3d6000fd5b505050506040513d601f19601f82011682018060405250810190611175919061147f565b73ffffffffffffffffffffffffffffffffffffffff1663777f1be98686866040518463ffffffff1660e01b8152600401611082939291906115ed565b60008073fba0816a81bcabbf3829bed28618177a2bf0e82a73ffffffffffffffffffffffffffffffffffffffff16638f8e162c6040518163ffffffff1660e01b815260040160206040518083038186803b15801561120e57600080fd5b505afa158015611222573d6000803e3d6000fd5b505050506040513d601f19601f82011682018060405250810190611246919061147f565b73ffffffffffffffffffffffffffffffffffffffff1663037c696a878787876040518563ffffffff1660e01b81526004016112849493929190611622565b604080518083038186803b15801561129b57600080fd5b505afa9250505080156112cb575060408051601f3d908101601f191682019092526112c89181019061150b565b60015b6112d4576112da565b90925090505b94509492505050565b6000816112f0844261155e565b119392505050565b60006020828403121561130a57600080fd5b5035919050565b7f4e487b7100000000000000000000000000000000000000000000000000000000600052602160045260246000fd5b600b8110611377577f4e487b7100000000000000000000000000000000000000000000000000000000600052602160045260246000fd5b9052565b602081016109a98284611340565b73ffffffffffffffffffffffffffffffffffffffff811681146113ab57600080fd5b50565b6000602082840312156113c057600080fd5b8135610cb981611389565b8035600b81106113da57600080fd5b919050565b600080604083850312156113f257600080fd5b6113fb836113cb565b9150611409602084016113cb565b90509250929050565b6000806040838503121561142557600080fd5b823561143081611389565b946020939093013593505050565b60008060006060848603121561145357600080fd5b833561145e81611389565b9250602084013561146e81611389565b929592945050506040919091013590565b60006020828403121561149157600080fd5b8151610cb981611389565b608081016114aa8287611340565b6114b76020830186611340565b6114c46040830185611340565b6114d16060830184611340565b95945050505050565b604081016114e88285611340565b73ffffffffffffffffffffffffffffffffffffffff831660208301529392505050565b6000806040838503121561151e57600080fd5b505080516020909101519092909150565b7f4e487b7100000000000000000000000000000000000000000000000000000000600052601160045260246000fd5b6000828210156115705761157061152f565b500390565b6000817fffffffffffffffffffffffffffffffffffffffffffffffffffffffffffffffff04831182151516156115ad576115ad61152f565b500290565b6000826115e8577f4e487b7100000000000000000000000000000000000000000000000000000000600052601260045260246000fd5b500490565b606081016115fb8286611340565b73ffffffffffffffffffffffffffffffffffffffff93909316602082015260400152919050565b608081016116308287611340565b73ffffffffffffffffffffffffffffffffffffffff948516602083015292909316604084015260609092019190915291905056fea2646970667358221220dc6512365f83157570ff8e97ada29b2ebabd0e68f8d415fb0ac6ccfb63f5ad9564736f6c63430008090033",
  "devdoc": {
    "details": "Uses chainlink as primary oracle, if it doesn't support the asset(s), get price from fallback providers",
    "kind": "dev",
    "methods": {
      "getPriceInUsd(address)": {
        "params": {
          "token_": "The address of asset"
        },
        "returns": {
          "_priceInUsd": "The USD price"
        }
      },
      "quote(address,address,uint256)": {
        "params": {
          "amountIn_": "Amount of input token",
          "tokenIn_": "The address of assetIn",
          "tokenOut_": "The address of assetOut"
        },
        "returns": {
          "_amountOut": "Amount out"
        }
      },
      "quoteTokenToUsd(address,uint256)": {
        "params": {
          "amountIn_": "Amount of input token.",
          "token_": "The address of assetIn"
        },
        "returns": {
          "_amountOut": "Amount in USD"
        }
      },
      "quoteUsdToToken(address,uint256)": {
        "params": {
          "amountIn_": "Input amount in USD",
          "token_": "The address of assetOut"
        },
        "returns": {
          "_amountOut": "Output amount of token"
        }
      },
      "updateFallbackProviders(uint8,uint8)": {
        "details": "The fallback provider B is optional"
      }
    },
    "stateVariables": {
      "fallbackProviderB": {
        "details": "This is optional"
      }
    },
    "title": "Chainlink and Fallbacks oracle",
    "version": 1
  },
  "userdoc": {
    "events": {
      "FallbackProvidersUpdated(uint8,uint8,uint8,uint8)": {
        "notice": "Emitted when fallback providers are updated"
      },
      "MaxDeviationUpdated(uint256,uint256)": {
        "notice": "Emitted when max deviation is updated"
      },
      "StalePeriodUpdated(uint256,uint256)": {
        "notice": "Emitted when stale period is updated"
      }
    },
    "kind": "user",
    "methods": {
      "fallbackProviderA()": {
        "notice": "The fallback provider A. It's used when Chainlink isn't available"
      },
      "fallbackProviderB()": {
        "notice": "The fallback provider B. It's used when Chainlink isn't available"
      },
      "getPriceInUsd(address)": {
        "notice": "Get USD (or equivalent) price of an asset"
      },
      "maxDeviation()": {
        "notice": "The max acceptable deviation"
      },
      "quote(address,address,uint256)": {
        "notice": "Get quote"
      },
      "quoteTokenToUsd(address,uint256)": {
        "notice": "Get quote in USD (or equivalent) amount"
      },
      "quoteUsdToToken(address,uint256)": {
        "notice": "Get quote from USD (or equivalent) amount to amount of token"
      },
      "stalePeriod()": {
        "notice": "The stale period. It's used to determine if a price is invalid (i.e. outdated)"
      },
      "updateFallbackProviders(uint8,uint8)": {
        "notice": "Update fallback providers"
      },
      "updateMaxDeviation(uint256)": {
        "notice": "Update max deviation"
      },
      "updateStalePeriod(uint256)": {
        "notice": "Update stale period"
      }
    },
    "version": 1
  },
  "storageLayout": {
    "storage": [
      {
        "astId": 11392,
        "contract": "contracts/periphery/ChainlinkAndFallbacksOracle.sol:ChainlinkAndFallbacksOracle",
        "label": "maxDeviation",
        "offset": 0,
        "slot": "0",
        "type": "t_uint256"
      },
      {
        "astId": 11477,
        "contract": "contracts/periphery/ChainlinkAndFallbacksOracle.sol:ChainlinkAndFallbacksOracle",
        "label": "stalePeriod",
        "offset": 0,
        "slot": "1",
        "type": "t_uint256"
      },
      {
        "astId": 13335,
        "contract": "contracts/periphery/ChainlinkAndFallbacksOracle.sol:ChainlinkAndFallbacksOracle",
        "label": "fallbackProviderA",
        "offset": 0,
        "slot": "2",
        "type": "t_enum(Provider)12995"
      },
      {
        "astId": 13339,
        "contract": "contracts/periphery/ChainlinkAndFallbacksOracle.sol:ChainlinkAndFallbacksOracle",
        "label": "fallbackProviderB",
        "offset": 1,
        "slot": "2",
        "type": "t_enum(Provider)12995"
      }
    ],
    "types": {
      "t_enum(Provider)12995": {
        "encoding": "inplace",
        "label": "enum DataTypes.Provider",
        "numberOfBytes": "1"
      },
      "t_uint256": {
        "encoding": "inplace",
        "label": "uint256",
        "numberOfBytes": "32"
      }
    }
  }
}