{
  "address": "0x2c3FA1D0613bE336E62509788f374A378948D61f",
  "abi": [
    {
      "anonymous": false,
      "inputs": [
        {
          "indexed": false,
          "internalType": "address",
          "name": "token",
          "type": "address"
        },
        {
          "indexed": false,
          "internalType": "contract AggregatorV3Interface",
          "name": "oldAggregator",
          "type": "address"
        },
        {
          "indexed": false,
          "internalType": "contract AggregatorV3Interface",
          "name": "newAggregator",
          "type": "address"
        }
      ],
      "name": "AggregatorUpdated",
      "type": "event"
    },
    {
      "inputs": [],
      "name": "BTC",
      "outputs": [
        {
          "internalType": "address",
          "name": "",
          "type": "address"
        }
      ],
      "stateMutability": "view",
      "type": "function"
    },
    {
      "inputs": [],
      "name": "CHAINLINK_DECIMALS",
      "outputs": [
        {
          "internalType": "uint256",
          "name": "",
          "type": "uint256"
        }
      ],
      "stateMutability": "view",
      "type": "function"
    },
    {
      "inputs": [],
      "name": "ETH",
      "outputs": [
        {
          "internalType": "address",
          "name": "",
          "type": "address"
        }
      ],
      "stateMutability": "view",
      "type": "function"
    },
    {
      "inputs": [],
      "name": "PRICE_FEED",
      "outputs": [
        {
          "internalType": "contract FeedRegistryInterface",
          "name": "",
          "type": "address"
        }
      ],
      "stateMutability": "view",
      "type": "function"
    },
    {
      "inputs": [],
      "name": "TO_SCALE",
      "outputs": [
        {
          "internalType": "uint256",
          "name": "",
          "type": "uint256"
        }
      ],
      "stateMutability": "view",
      "type": "function"
    },
    {
      "inputs": [],
      "name": "USD",
      "outputs": [
        {
          "internalType": "address",
          "name": "",
          "type": "address"
        }
      ],
      "stateMutability": "view",
      "type": "function"
    },
    {
      "inputs": [],
      "name": "USD_DECIMALS",
      "outputs": [
        {
          "internalType": "uint256",
          "name": "",
          "type": "uint256"
        }
      ],
      "stateMutability": "view",
      "type": "function"
    },
    {
      "inputs": [],
      "name": "WBTC",
      "outputs": [
        {
          "internalType": "address",
          "name": "",
          "type": "address"
        }
      ],
      "stateMutability": "view",
      "type": "function"
    },
    {
      "inputs": [],
      "name": "WETH",
      "outputs": [
        {
          "internalType": "address",
          "name": "",
          "type": "address"
        }
      ],
      "stateMutability": "view",
      "type": "function"
    },
    {
      "inputs": [],
      "name": "addressProvider",
      "outputs": [
        {
          "internalType": "contract IAddressProvider",
          "name": "",
          "type": "address"
        }
      ],
      "stateMutability": "view",
      "type": "function"
    },
    {
      "inputs": [
        {
          "internalType": "address",
          "name": "",
          "type": "address"
        }
      ],
      "name": "aggregators",
      "outputs": [
        {
          "internalType": "contract AggregatorV3Interface",
          "name": "",
          "type": "address"
        }
      ],
      "stateMutability": "view",
      "type": "function"
    },
    {
      "inputs": [
        {
          "internalType": "address",
          "name": "token_",
          "type": "address"
        }
      ],
      "name": "getPriceInUsd",
      "outputs": [
        {
          "internalType": "uint256",
          "name": "_priceInUsd",
          "type": "uint256"
        },
        {
          "internalType": "uint256",
          "name": "_lastUpdatedAt",
          "type": "uint256"
        }
      ],
      "stateMutability": "view",
      "type": "function"
    },
    {
      "inputs": [
        {
          "internalType": "address",
          "name": "tokenIn_",
          "type": "address"
        },
        {
          "internalType": "address",
          "name": "tokenOut_",
          "type": "address"
        },
        {
          "internalType": "uint256",
          "name": "amountIn_",
          "type": "uint256"
        }
      ],
      "name": "quote",
      "outputs": [
        {
          "internalType": "uint256",
          "name": "_amountOut",
          "type": "uint256"
        },
        {
          "internalType": "uint256",
          "name": "_lastUpdatedAt",
          "type": "uint256"
        }
      ],
      "stateMutability": "view",
      "type": "function"
    },
    {
      "inputs": [
        {
          "internalType": "address",
          "name": "token_",
          "type": "address"
        },
        {
          "internalType": "uint256",
          "name": "amountIn_",
          "type": "uint256"
        }
      ],
      "name": "quoteTokenToUsd",
      "outputs": [
        {
          "internalType": "uint256",
          "name": "_amountOut",
          "type": "uint256"
        },
        {
          "internalType": "uint256",
          "name": "_lastUpdatedAt",
          "type": "uint256"
        }
      ],
      "stateMutability": "view",
      "type": "function"
    },
    {
      "inputs": [
        {
          "internalType": "address",
          "name": "token_",
          "type": "address"
        },
        {
          "internalType": "uint256",
          "name": "amountIn_",
          "type": "uint256"
        }
      ],
      "name": "quoteUsdToToken",
      "outputs": [
        {
          "internalType": "uint256",
          "name": "_amountOut",
          "type": "uint256"
        },
        {
          "internalType": "uint256",
          "name": "_lastUpdatedAt",
          "type": "uint256"
        }
      ],
      "stateMutability": "view",
      "type": "function"
    },
    {
      "inputs": [
        {
          "internalType": "address",
          "name": "token_",
          "type": "address"
        },
        {
          "internalType": "contract AggregatorV3Interface",
          "name": "aggregator_",
          "type": "address"
        }
      ],
      "name": "updateAggregator",
      "outputs": [],
      "stateMutability": "nonpayable",
      "type": "function"
    }
  ],
  "transactionHash": "0xc1312eb23c9afc54ec98a423301223448e82aa193e0f971ffe2e46db559571b5",
  "args": [],
  "numDeployments": 3,
  "solcInputHash": "907fdc10b42273782005459788cc093f",
  "bytecode": "0x608060405234801561001057600080fd5b50610fd1806100206000396000f3fe608060405234801561001057600080fd5b50600436106101005760003560e01c80634dede3de11610097578063ad5c464811610066578063ad5c464814610263578063b5e9bef51461027e578063b646638414610291578063dee7aba4146102a457600080fd5b80634dede3de146102055780638322fff2146102205780638d0dba001461023b57806393d1f99e1461024e57600080fd5b80632954018c116100d35780632954018c146101b15780632f6ee695146101cc57806331eb318a146101e257806334ec2a3a146101fd57600080fd5b806307ee40bf14610105578063112cdab9146101325780631bf6c21b1461018d5780632792949d14610196575b600080fd5b610118610113366004610c8a565b6102ac565b604080519283526020830191909152015b60405180910390f35b610168610140366004610c8a565b60006020819052908152604090205473ffffffffffffffffffffffffffffffffffffffff1681565b60405173ffffffffffffffffffffffffffffffffffffffff9091168152602001610129565b61016861034881565b61016873bbbbbbbbbbbbbbbbbbbbbbbbbbbbbbbbbbbbbbbb81565b61016873fba0816a81bcabbf3829bed28618177a2bf0e82a81565b6101d4601281565b604051908152602001610129565b6101687347fb2585d2c56fe188d0e6ec628a38b74fceeedf81565b6101d4600881565b610168732260fac5e5542a773aa44fbcfedf7c193bc2c59981565b61016873eeeeeeeeeeeeeeeeeeeeeeeeeeeeeeeeeeeeeeee81565b610118610249366004610ca7565b61050c565b61026161025c366004610cd3565b6105c9565b005b61016873c02aaa39b223fe8d0a0e5c4f27ead9083c756cc281565b61011861028c366004610ca7565b61081f565b61011861029f366004610d0c565b6108c9565b6101d4610902565b60008073ffffffffffffffffffffffffffffffffffffffff831673c02aaa39b223fe8d0a0e5c4f27ead9083c756cc214156102fd5773eeeeeeeeeeeeeeeeeeeeeeeeeeeeeeeeeeeeeeee9250610347565b73ffffffffffffffffffffffffffffffffffffffff8316732260fac5e5542a773aa44fbcfedf7c193bc2c59914156103475773bbbbbbbbbbbbbbbbbbbbbbbbbbbbbbbbbbbbbbbb92505b6040517fbcfd032d00000000000000000000000000000000000000000000000000000000815273ffffffffffffffffffffffffffffffffffffffff8416600482015261034860248201527347fb2585d2c56fe188d0e6ec628a38b74fceeedf9063bcfd032d9060440160a06040518083038186803b1580156103c857600080fd5b505afa925050508015610416575060408051601f3d9081017fffffffffffffffffffffffffffffffffffffffffffffffffffffffffffffffe016820190925261041391810190610d6c565b60015b61042c576104238361091c565b91509150915091565b6040517f58e2d3a800000000000000000000000000000000000000000000000000000000815273ffffffffffffffffffffffffffffffffffffffff8916600482015261034860248201526104fe907347fb2585d2c56fe188d0e6ec628a38b74fceeedf906358e2d3a89060440160206040518083038186803b1580156104b157600080fd5b505afa1580156104c5573d6000803e3d6000fd5b505050506040513d601f19601f820116820180604052508101906104e99190610dbc565b60ff1660126104f787610a52565b9190610aa8565b989197509095505050505050565b600080600061051a856102ac565b80935081925050508473ffffffffffffffffffffffffffffffffffffffff1663313ce5676040518163ffffffff1660e01b815260040160206040518083038186803b15801561056857600080fd5b505afa15801561057c573d6000803e3d6000fd5b505050506040513d601f19601f820116820180604052508101906105a09190610dbc565b6105ab90600a610ef2565b6105b58286610f01565b6105bf9190610f20565b9250509250929050565b73fba0816a81bcabbf3829bed28618177a2bf0e82a73ffffffffffffffffffffffffffffffffffffffff16630c340a246040518163ffffffff1660e01b815260040160206040518083038186803b15801561062357600080fd5b505afa158015610637573d6000803e3d6000fd5b505050506040513d601f19601f8201168201806040525081019061065b9190610f5b565b73ffffffffffffffffffffffffffffffffffffffff163373ffffffffffffffffffffffffffffffffffffffff16146106da5760405162461bcd60e51b815260206004820152600c60248201527f6e6f742d676f7665726e6f72000000000000000000000000000000000000000060448201526064015b60405180910390fd5b73ffffffffffffffffffffffffffffffffffffffff821661073d5760405162461bcd60e51b815260206004820152600d60248201527f746f6b656e2d69732d6e756c6c0000000000000000000000000000000000000060448201526064016106d1565b73ffffffffffffffffffffffffffffffffffffffff80831660009081526020819052604090205481169082168114156107b85760405162461bcd60e51b815260206004820152600f60248201527f73616d652d61732d63757272656e74000000000000000000000000000000000060448201526064016106d1565b6107c28383610b09565b6040805173ffffffffffffffffffffffffffffffffffffffff8581168252838116602083015284168183015290517f589e912830d38d62f14a6cf3cea8f8a002fc9288b37f0d914b5e7dc107d278bf9181900360600190a1505050565b600080600061082d856102ac565b8093508192505050808573ffffffffffffffffffffffffffffffffffffffff1663313ce5676040518163ffffffff1660e01b815260040160206040518083038186803b15801561087c57600080fd5b505afa158015610890573d6000803e3d6000fd5b505050506040513d601f19601f820116820180604052508101906108b49190610dbc565b6108bf90600a610ef2565b6105b59086610f01565b6000806000806108d9878661050c565b915091506108e7868361081f565b90945092506108f68184610c4b565b92505050935093915050565b61090e60086012610f78565b61091990600a610f8f565b81565b73ffffffffffffffffffffffffffffffffffffffff8082166000908152602081905260408120549091829116806109955760405162461bcd60e51b815260206004820152601860248201527f746f6b656e2d776974686f75742d61676772656761746f72000000000000000060448201526064016106d1565b60008173ffffffffffffffffffffffffffffffffffffffff1663feaf968c6040518163ffffffff1660e01b815260040160a06040518083038186803b1580156109dd57600080fd5b505afa1580156109f1573d6000803e3d6000fd5b505050506040513d601f19601f82011682018060405250810190610a159190610d6c565b509550909250610a2b9150600890506012610f78565b610a3690600a610f8f565b610a3f82610a52565b610a499190610f01565b93505050915091565b600080821215610aa45760405162461bcd60e51b815260206004820181905260248201527f53616665436173743a2076616c7565206d75737420626520706f73697469766560448201526064016106d1565b5090565b600081831115610ad857610abc8284610f78565b610ac790600a610f8f565b610ad19085610f20565b9050610b02565b81831015610aff57610aea8383610f78565b610af590600a610f8f565b610ad19085610f01565b50825b9392505050565b73ffffffffffffffffffffffffffffffffffffffff81161580610bac575060088173ffffffffffffffffffffffffffffffffffffffff1663313ce5676040518163ffffffff1660e01b815260040160206040518083038186803b158015610b6f57600080fd5b505afa158015610b83573d6000803e3d6000fd5b505050506040513d601f19601f82011682018060405250810190610ba79190610dbc565b60ff16145b610bf85760405162461bcd60e51b815260206004820152601060248201527f696e76616c69642d646563696d616c730000000000000000000000000000000060448201526064016106d1565b73ffffffffffffffffffffffffffffffffffffffff918216600090815260208190526040902080547fffffffffffffffffffffffff00000000000000000000000000000000000000001691909216179055565b6000818310610c5a5781610c5c565b825b90505b92915050565b73ffffffffffffffffffffffffffffffffffffffff81168114610c8757600080fd5b50565b600060208284031215610c9c57600080fd5b8135610b0281610c65565b60008060408385031215610cba57600080fd5b8235610cc581610c65565b946020939093013593505050565b60008060408385031215610ce657600080fd5b8235610cf181610c65565b91506020830135610d0181610c65565b809150509250929050565b600080600060608486031215610d2157600080fd5b8335610d2c81610c65565b92506020840135610d3c81610c65565b929592945050506040919091013590565b805169ffffffffffffffffffff81168114610d6757600080fd5b919050565b600080600080600060a08688031215610d8457600080fd5b610d8d86610d4d565b9450602086015193506040860151925060608601519150610db060808701610d4d565b90509295509295909350565b600060208284031215610dce57600080fd5b815160ff81168114610b0257600080fd5b7f4e487b7100000000000000000000000000000000000000000000000000000000600052601160045260246000fd5b600181815b80851115610e49578160001904821115610e2f57610e2f610ddf565b80851615610e3c57918102915b93841c9390800290610e13565b509250929050565b600082610e6057506001610c5f565b81610e6d57506000610c5f565b8160018114610e835760028114610e8d57610ea9565b6001915050610c5f565b60ff841115610e9e57610e9e610ddf565b50506001821b610c5f565b5060208310610133831016604e8410600b8410161715610ecc575081810a610c5f565b610ed68383610e0e565b8060001904821115610eea57610eea610ddf565b029392505050565b6000610c5c60ff841683610e51565b6000816000190483118215151615610f1b57610f1b610ddf565b500290565b600082610f56577f4e487b7100000000000000000000000000000000000000000000000000000000600052601260045260246000fd5b500490565b600060208284031215610f6d57600080fd5b8151610b0281610c65565b600082821015610f8a57610f8a610ddf565b500390565b6000610c5c8383610e5156fea264697066735822122073244c3071933649366e8e78b88433b9222e6d9df7c680706be31923e8179ff364736f6c63430008090033",
  "devdoc": {
    "details": "This contract is more expensive (+ ~1.3k) than others contracts (that don't use feed) because they get decimals during aggregator addition",
    "kind": "dev",
    "methods": {
      "getPriceInUsd(address)": {
        "params": {
          "token_": "The address of asset"
        },
        "returns": {
          "_lastUpdatedAt": "Last updated timestamp",
          "_priceInUsd": "The USD price"
        }
      },
      "quote(address,address,uint256)": {
        "params": {
          "amountIn_": "Amount of input token",
          "tokenIn_": "The address of assetIn",
          "tokenOut_": "The address of assetOut"
        },
        "returns": {
          "_amountOut": "Amount out",
          "_lastUpdatedAt": "Last updated timestamp"
        }
      },
      "quoteTokenToUsd(address,uint256)": {
        "params": {
          "amountIn_": "Amount of input token.",
          "token_": "The address of assetIn"
        },
        "returns": {
          "_amountOut": "Amount in USD",
          "_lastUpdatedAt": "Last updated timestamp"
        }
      },
      "quoteUsdToToken(address,uint256)": {
        "params": {
          "amountIn_": "Input amount in USD",
          "token_": "The address of assetOut"
        },
        "returns": {
          "_amountOut": "Output amount of token",
          "_lastUpdatedAt": "Last updated timestamp"
        }
      }
    },
    "title": "ChainLink's price provider that uses price feed (only available on Mainnet currently)",
    "version": 1
  },
  "userdoc": {
    "events": {
      "AggregatorUpdated(address,address,address)": {
        "notice": "Emitted when an aggregator is updated"
      }
    },
    "kind": "user",
    "methods": {
      "aggregators(address)": {
        "notice": "Aggregators map (token => aggregator)"
      },
      "getPriceInUsd(address)": {
        "notice": "Get USD (or equivalent) price of an asset"
      },
      "quote(address,address,uint256)": {
        "notice": "Get quote"
      },
      "quoteTokenToUsd(address,uint256)": {
        "notice": "Get quote in USD (or equivalent) amount"
      },
      "quoteUsdToToken(address,uint256)": {
        "notice": "Get quote from USD (or equivalent) amount to amount of token"
      },
      "updateAggregator(address,address)": {
        "notice": "Update token's aggregator"
      }
    },
    "version": 1
  },
  "storageLayout": {
    "storage": [
      {
        "astId": 7683,
        "contract": "contracts/core/ChainlinkFeedPriceProvider.sol:ChainlinkFeedPriceProvider",
        "label": "aggregators",
        "offset": 0,
        "slot": "0",
        "type": "t_mapping(t_address,t_contract(AggregatorV3Interface)102)"
      }
    ],
    "types": {
      "t_address": {
        "encoding": "inplace",
        "label": "address",
        "numberOfBytes": "20"
      },
      "t_contract(AggregatorV3Interface)102": {
        "encoding": "inplace",
        "label": "contract AggregatorV3Interface",
        "numberOfBytes": "20"
      },
      "t_mapping(t_address,t_contract(AggregatorV3Interface)102)": {
        "encoding": "mapping",
        "key": "t_address",
        "label": "mapping(address => contract AggregatorV3Interface)",
        "numberOfBytes": "32",
        "value": "t_contract(AggregatorV3Interface)102"
      }
    }
  }
}