{
  "address": "0x602BA8C28D235a106455B6F88ce92471c369262C",
  "abi": [
    {
      "inputs": [
        {
          "internalType": "uint256",
          "name": "stalePeriod_",
          "type": "uint256"
        }
      ],
      "stateMutability": "nonpayable",
      "type": "constructor"
    },
    {
      "anonymous": false,
      "inputs": [
        {
          "indexed": false,
          "internalType": "uint256",
          "name": "oldStalePeriod",
          "type": "uint256"
        },
        {
          "indexed": false,
          "internalType": "uint256",
          "name": "newStalePeriod",
          "type": "uint256"
        }
      ],
      "name": "StalePeriodUpdated",
      "type": "event"
    },
    {
      "inputs": [],
      "name": "addressProvider",
      "outputs": [
        {
          "internalType": "contract IAddressProvider",
          "name": "",
          "type": "address"
        }
      ],
      "stateMutability": "view",
      "type": "function"
    },
    {
      "inputs": [
        {
          "internalType": "address",
          "name": "token_",
          "type": "address"
        }
      ],
      "name": "getPriceInUsd",
      "outputs": [
        {
          "internalType": "uint256",
          "name": "_priceInUsd",
          "type": "uint256"
        }
      ],
      "stateMutability": "view",
      "type": "function"
    },
    {
      "inputs": [
        {
          "internalType": "address",
          "name": "tokenIn_",
          "type": "address"
        },
        {
          "internalType": "address",
          "name": "tokenOut_",
          "type": "address"
        },
        {
          "internalType": "uint256",
          "name": "amountIn_",
          "type": "uint256"
        }
      ],
      "name": "quote",
      "outputs": [
        {
          "internalType": "uint256",
          "name": "_amountOut",
          "type": "uint256"
        }
      ],
      "stateMutability": "view",
      "type": "function"
    },
    {
      "inputs": [
        {
          "internalType": "address",
          "name": "token_",
          "type": "address"
        },
        {
          "internalType": "uint256",
          "name": "amountIn_",
          "type": "uint256"
        }
      ],
      "name": "quoteTokenToUsd",
      "outputs": [
        {
          "internalType": "uint256",
          "name": "_amountOut",
          "type": "uint256"
        }
      ],
      "stateMutability": "view",
      "type": "function"
    },
    {
      "inputs": [
        {
          "internalType": "address",
          "name": "token_",
          "type": "address"
        },
        {
          "internalType": "uint256",
          "name": "amountIn_",
          "type": "uint256"
        }
      ],
      "name": "quoteUsdToToken",
      "outputs": [
        {
          "internalType": "uint256",
          "name": "_amountOut",
          "type": "uint256"
        }
      ],
      "stateMutability": "view",
      "type": "function"
    },
    {
      "inputs": [],
      "name": "stalePeriod",
      "outputs": [
        {
          "internalType": "uint256",
          "name": "",
          "type": "uint256"
        }
      ],
      "stateMutability": "view",
      "type": "function"
    },
    {
      "inputs": [
        {
          "internalType": "uint256",
          "name": "stalePeriod_",
          "type": "uint256"
        }
      ],
      "name": "updateStalePeriod",
      "outputs": [],
      "stateMutability": "nonpayable",
      "type": "function"
    }
  ],
  "transactionHash": "0x774e70806eecfec81bd638700364c873b0470189ba9ac02f9fb01032a20b2908",
  "args": [
    14400
  ],
  "numDeployments": 1,
  "solcInputHash": "18c1b999f8d3b2b0f74d28c050605d6c",
  "bytecode": "0x608060405234801561001057600080fd5b50604051610b64380380610b6483398101604081905261002f91610037565b600055610050565b60006020828403121561004957600080fd5b5051919050565b610b058061005f6000396000f3fe608060405234801561001057600080fd5b506004361061007d5760003560e01c8063a5b36a361161005b578063a5b36a36146100fb578063b5e9bef514610104578063b646638414610117578063c1a2e32b1461012a57600080fd5b806307ee40bf146100825780632954018c146100a85780638d0dba00146100e8575b600080fd5b6100956100903660046108c3565b61013f565b6040519081526020015b60405180910390f35b6100c373fba0816a81bcabbf3829bed28618177a2bf0e82a81565b60405173ffffffffffffffffffffffffffffffffffffffff909116815260200161009f565b6100956100f63660046108e7565b6102e9565b61009560005481565b6100956101123660046108e7565b610491565b610095610125366004610913565b610563565b61013d610138366004610954565b61070e565b005b60008073fba0816a81bcabbf3829bed28618177a2bf0e82a73ffffffffffffffffffffffffffffffffffffffff16638f8e162c6040518163ffffffff1660e01b815260040160206040518083038186803b15801561019c57600080fd5b505afa1580156101b0573d6000803e3d6000fd5b505050506040513d601f19601f820116820180604052508101906101d4919061096d565b73ffffffffffffffffffffffffffffffffffffffff1663828509486001856040518363ffffffff1660e01b815260040161020f9291906109c5565b604080518083038186803b15801561022657600080fd5b505afa15801561023a573d6000803e3d6000fd5b505050506040513d601f19601f8201168201806040525081019061025e91906109f6565b90925090508115801590610278575061027681610875565b155b6102e3576040517f08c379a000000000000000000000000000000000000000000000000000000000815260206004820152600d60248201527f70726963652d696e76616c69640000000000000000000000000000000000000060448201526064015b60405180910390fd5b50919050565b60008073fba0816a81bcabbf3829bed28618177a2bf0e82a73ffffffffffffffffffffffffffffffffffffffff16638f8e162c6040518163ffffffff1660e01b815260040160206040518083038186803b15801561034657600080fd5b505afa15801561035a573d6000803e3d6000fd5b505050506040513d601f19601f8201168201806040525081019061037e919061096d565b73ffffffffffffffffffffffffffffffffffffffff16632b041e3a600186866040518463ffffffff1660e01b81526004016103bb93929190610a1a565b604080518083038186803b1580156103d257600080fd5b505afa1580156103e6573d6000803e3d6000fd5b505050506040513d601f19601f8201168201806040525081019061040a91906109f6565b90925090508115801590610424575061042281610875565b155b61048a576040517f08c379a000000000000000000000000000000000000000000000000000000000815260206004820152600d60248201527f70726963652d696e76616c69640000000000000000000000000000000000000060448201526064016102da565b5092915050565b60008073fba0816a81bcabbf3829bed28618177a2bf0e82a73ffffffffffffffffffffffffffffffffffffffff16638f8e162c6040518163ffffffff1660e01b815260040160206040518083038186803b1580156104ee57600080fd5b505afa158015610502573d6000803e3d6000fd5b505050506040513d601f19601f82011682018060405250810190610526919061096d565b73ffffffffffffffffffffffffffffffffffffffff1663777f1be9600186866040518463ffffffff1660e01b81526004016103bb93929190610a1a565b60008073fba0816a81bcabbf3829bed28618177a2bf0e82a73ffffffffffffffffffffffffffffffffffffffff16638f8e162c6040518163ffffffff1660e01b815260040160206040518083038186803b1580156105c057600080fd5b505afa1580156105d4573d6000803e3d6000fd5b505050506040513d601f19601f820116820180604052508101906105f8919061096d565b73ffffffffffffffffffffffffffffffffffffffff1663037c696a60018787876040518563ffffffff1660e01b81526004016106379493929190610a4f565b604080518083038186803b15801561064e57600080fd5b505afa158015610662573d6000803e3d6000fd5b505050506040513d601f19601f8201168201806040525081019061068691906109f6565b909250905081158015906106a0575061069e81610875565b155b610706576040517f08c379a000000000000000000000000000000000000000000000000000000000815260206004820152600d60248201527f70726963652d696e76616c69640000000000000000000000000000000000000060448201526064016102da565b509392505050565b73fba0816a81bcabbf3829bed28618177a2bf0e82a73ffffffffffffffffffffffffffffffffffffffff16630c340a246040518163ffffffff1660e01b815260040160206040518083038186803b15801561076857600080fd5b505afa15801561077c573d6000803e3d6000fd5b505050506040513d601f19601f820116820180604052508101906107a0919061096d565b73ffffffffffffffffffffffffffffffffffffffff163373ffffffffffffffffffffffffffffffffffffffff1614610834576040517f08c379a000000000000000000000000000000000000000000000000000000000815260206004820152600c60248201527f6e6f742d676f7665726e6f72000000000000000000000000000000000000000060448201526064016102da565b60005460408051918252602082018390527f1dcb97516840282e793e073fe5a34e75c575d63193a3cbed8fa1930b27df4720910160405180910390a1600055565b600061088382600054610889565b92915050565b6000816108968442610a91565b119392505050565b73ffffffffffffffffffffffffffffffffffffffff811681146108c057600080fd5b50565b6000602082840312156108d557600080fd5b81356108e08161089e565b9392505050565b600080604083850312156108fa57600080fd5b82356109058161089e565b946020939093013593505050565b60008060006060848603121561092857600080fd5b83356109338161089e565b925060208401356109438161089e565b929592945050506040919091013590565b60006020828403121561096657600080fd5b5035919050565b60006020828403121561097f57600080fd5b81516108e08161089e565b600b81106109c1577f4e487b7100000000000000000000000000000000000000000000000000000000600052602160045260246000fd5b9052565b604081016109d3828561098a565b73ffffffffffffffffffffffffffffffffffffffff831660208301529392505050565b60008060408385031215610a0957600080fd5b505080516020909101519092909150565b60608101610a28828661098a565b73ffffffffffffffffffffffffffffffffffffffff93909316602082015260400152919050565b60808101610a5d828761098a565b73ffffffffffffffffffffffffffffffffffffffff9485166020830152929093166040840152606090920191909152919050565b600082821015610aca577f4e487b7100000000000000000000000000000000000000000000000000000000600052601160045260246000fd5b50039056fea2646970667358221220e4c97b23fd97ffa92298618f8ec6f9acd7dd78bed003a8f29ec5b3e6a589c96464736f6c63430008090033",
  "devdoc": {
    "kind": "dev",
    "methods": {
      "getPriceInUsd(address)": {
        "params": {
          "token_": "The address of asset"
        },
        "returns": {
          "_priceInUsd": "The USD price"
        }
      },
      "quote(address,address,uint256)": {
        "params": {
          "amountIn_": "Amount of input token",
          "tokenIn_": "The address of assetIn",
          "tokenOut_": "The address of assetOut"
        },
        "returns": {
          "_amountOut": "Amount out"
        }
      },
      "quoteTokenToUsd(address,uint256)": {
        "params": {
          "amountIn_": "Amount of input token.",
          "token_": "The address of assetIn"
        },
        "returns": {
          "_amountOut": "Amount in USD"
        }
      },
      "quoteUsdToToken(address,uint256)": {
        "params": {
          "amountIn_": "Input amount in USD",
          "token_": "The address of assetOut"
        },
        "returns": {
          "_amountOut": "Output amount of token"
        }
      }
    },
    "title": "Chainlink oracle",
    "version": 1
  },
  "userdoc": {
    "events": {
      "StalePeriodUpdated(uint256,uint256)": {
        "notice": "Emitted when stale period is updated"
      }
    },
    "kind": "user",
    "methods": {
      "getPriceInUsd(address)": {
        "notice": "Get USD (or equivalent) price of an asset"
      },
      "quote(address,address,uint256)": {
        "notice": "Get quote"
      },
      "quoteTokenToUsd(address,uint256)": {
        "notice": "Get quote in USD (or equivalent) amount"
      },
      "quoteUsdToToken(address,uint256)": {
        "notice": "Get quote from USD (or equivalent) amount to amount of token"
      },
      "stalePeriod()": {
        "notice": "The stale period. It's used to determine if a price is invalid (i.e. outdated)"
      },
      "updateStalePeriod(uint256)": {
        "notice": "Update stale period"
      }
    },
    "version": 1
  },
  "storageLayout": {
    "storage": [
      {
        "astId": 11567,
        "contract": "contracts/periphery/ChainlinkOracle.sol:ChainlinkOracle",
        "label": "stalePeriod",
        "offset": 0,
        "slot": "0",
        "type": "t_uint256"
      }
    ],
    "types": {
      "t_uint256": {
        "encoding": "inplace",
        "label": "uint256",
        "numberOfBytes": "32"
      }
    }
  }
}