{
  "address": "0x7C3085721aa6F36081ee5E00583Da5526d57a87e",
  "abi": [
    {
      "inputs": [
        {
          "internalType": "address",
          "name": "_wethLike",
          "type": "address"
        }
      ],
      "stateMutability": "nonpayable",
      "type": "constructor"
    },
    {
      "inputs": [],
      "name": "ONE_CTOKEN",
      "outputs": [
        {
          "internalType": "uint256",
          "name": "",
          "type": "uint256"
        }
      ],
      "stateMutability": "view",
      "type": "function"
    },
    {
      "inputs": [
        {
          "internalType": "address",
          "name": "_asset",
          "type": "address"
        }
      ],
      "name": "getPriceInUsd",
      "outputs": [
        {
          "internalType": "uint256",
          "name": "_priceInUsd",
          "type": "uint256"
        }
      ],
      "stateMutability": "view",
      "type": "function"
    },
    {
      "inputs": [],
      "name": "wethLike",
      "outputs": [
        {
          "internalType": "address",
          "name": "",
          "type": "address"
        }
      ],
      "stateMutability": "view",
      "type": "function"
    }
  ],
  "transactionHash": "0xbcb7283d3173a7a18c0daa1e7b5c0b1066cff23f9a5be18cea092ee090266ff9",
  "args": [
    "0xC02aaA39b223FE8D0A0e5C4F27eAD9083C756Cc2"
  ],
  "numDeployments": 1,
  "solcInputHash": "8b654c506c10a4071125075f82070c93",
  "bytecode": "0x60a060405234801561001057600080fd5b506040516106c13803806106c183398101604081905261002f9161008b565b6001600160a01b03811661007a5760405162461bcd60e51b815260206004820152600e60248201526d1dd95d1a0b5b1a5ad94b5b9d5b1b60921b604482015260640160405180910390fd5b6001600160a01b03166080526100bb565b60006020828403121561009d57600080fd5b81516001600160a01b03811681146100b457600080fd5b9392505050565b6080516105e56100dc600039600081816071015261018401526105e56000f3fe608060405234801561001057600080fd5b50600436106100415760003560e01c806307ee40bf1461004657806329dbd9441461006c578063f944737a146100b8575b600080fd5b6100596100543660046103b4565b6100c3565b6040519081526020015b60405180910390f35b6100937f000000000000000000000000000000000000000000000000000000000000000081565b60405173ffffffffffffffffffffffffffffffffffffffff9091168152602001610063565b6100596305f5e10081565b6000808273ffffffffffffffffffffffffffffffffffffffff16636f307dc36040518163ffffffff1660e01b815260040160206040518083038186803b15801561010c57600080fd5b505afa92505050801561015a575060408051601f3d9081017fffffffffffffffffffffffffffffffffffffffffffffffffffffffffffffffe0168201909252610157918101906103d8565b60015b61016357610166565b90505b73ffffffffffffffffffffffffffffffffffffffff81166101a457507f00000000000000000000000000000000000000000000000000000000000000005b6040517f07ee40bf00000000000000000000000000000000000000000000000000000000815273ffffffffffffffffffffffffffffffffffffffff8216600482015260009033906307ee40bf9060240160206040518083038186803b15801561020c57600080fd5b505afa158015610220573d6000803e3d6000fd5b505050506040513d601f19601f8201168201806040525081019061024491906103f5565b90506000670de0b6b3a76400008573ffffffffffffffffffffffffffffffffffffffff1663182df0f56040518163ffffffff1660e01b815260040160206040518083038186803b15801561029757600080fd5b505afa1580156102ab573d6000803e3d6000fd5b505050506040513d601f19601f820116820180604052508101906102cf91906103f5565b6102dd906305f5e10061043d565b6102e7919061045c565b90508273ffffffffffffffffffffffffffffffffffffffff1663313ce5676040518163ffffffff1660e01b815260040160206040518083038186803b15801561032f57600080fd5b505afa158015610343573d6000803e3d6000fd5b505050506040513d601f19601f820116820180604052508101906103679190610497565b61037290600a6105a0565b61037c828461043d565b610386919061045c565b95945050505050565b73ffffffffffffffffffffffffffffffffffffffff811681146103b157600080fd5b50565b6000602082840312156103c657600080fd5b81356103d18161038f565b9392505050565b6000602082840312156103ea57600080fd5b81516103d18161038f565b60006020828403121561040757600080fd5b5051919050565b7f4e487b7100000000000000000000000000000000000000000000000000000000600052601160045260246000fd5b60008160001904831182151516156104575761045761040e565b500290565b600082610492577f4e487b7100000000000000000000000000000000000000000000000000000000600052601260045260246000fd5b500490565b6000602082840312156104a957600080fd5b815160ff811681146103d157600080fd5b600181815b808511156104f55781600019048211156104db576104db61040e565b808516156104e857918102915b93841c93908002906104bf565b509250929050565b60008261050c5750600161059a565b816105195750600061059a565b816001811461052f576002811461053957610555565b600191505061059a565b60ff84111561054a5761054a61040e565b50506001821b61059a565b5060208310610133831016604e8410600b8410161715610578575081810a61059a565b61058283836104ba565b80600019048211156105965761059661040e565b0290505b92915050565b60006103d160ff8416836104fd56fea2646970667358221220c59ff14a0367cefb16992a30dac43660334dfa58e59a4ce20f4dc16a95d2d5db64736f6c63430008090033",
  "devdoc": {
    "kind": "dev",
    "methods": {
      "getPriceInUsd(address)": {
        "params": {
          "token_": "The address of asset"
        },
        "returns": {
          "_priceInUsd": "The USD price"
        }
      }
    },
    "title": "Oracle for `CTokens`",
    "version": 1
  },
  "userdoc": {
    "kind": "user",
    "methods": {
      "getPriceInUsd(address)": {
        "notice": "Get USD (or equivalent) price of an asset"
      },
      "wethLike()": {
        "notice": "The address of the `CEther` underlying (Usually WETH)"
      }
    },
    "version": 1
  },
  "storageLayout": {
    "storage": [],
    "types": null
  }
}