{
  "address": "0x024cE630ff4A267FEab8Bb2AdEcC5c02e311DB0e",
  "abi": [
    {
      "inputs": [
        {
          "internalType": "address",
          "name": "addressProvider_",
          "type": "address"
        }
      ],
      "stateMutability": "nonpayable",
      "type": "constructor"
    },
    {
      "inputs": [],
      "name": "addressProvider",
      "outputs": [
        {
          "internalType": "contract ICurveAddressProvider",
          "name": "",
          "type": "address"
        }
      ],
      "stateMutability": "view",
      "type": "function"
    },
    {
      "inputs": [
        {
          "internalType": "uint256",
          "name": "",
          "type": "uint256"
        },
        {
          "internalType": "bytes",
          "name": "",
          "type": "bytes"
        }
      ],
      "name": "getAmountsIn",
      "outputs": [
        {
          "internalType": "uint256",
          "name": "",
          "type": "uint256"
        }
      ],
      "stateMutability": "pure",
      "type": "function"
    },
    {
      "inputs": [
        {
          "internalType": "uint256",
          "name": "amountIn_",
          "type": "uint256"
        },
        {
          "internalType": "bytes",
          "name": "path_",
          "type": "bytes"
        }
      ],
      "name": "getAmountsOut",
      "outputs": [
        {
          "internalType": "uint256",
          "name": "_amountOut",
          "type": "uint256"
        }
      ],
      "stateMutability": "view",
      "type": "function"
    },
    {
      "inputs": [
        {
          "internalType": "bytes",
          "name": "path_",
          "type": "bytes"
        },
        {
          "internalType": "uint256",
          "name": "amountIn_",
          "type": "uint256"
        },
        {
          "internalType": "uint256",
          "name": "amountOutMin_",
          "type": "uint256"
        },
        {
          "internalType": "address",
          "name": "outReceiver_",
          "type": "address"
        }
      ],
      "name": "swapExactInput",
      "outputs": [
        {
          "internalType": "uint256",
          "name": "_amountOut",
          "type": "uint256"
        }
      ],
      "stateMutability": "nonpayable",
      "type": "function"
    },
    {
      "inputs": [
        {
          "internalType": "bytes",
          "name": "",
          "type": "bytes"
        },
        {
          "internalType": "uint256",
          "name": "",
          "type": "uint256"
        },
        {
          "internalType": "uint256",
          "name": "",
          "type": "uint256"
        },
        {
          "internalType": "address",
          "name": "",
          "type": "address"
        },
        {
          "internalType": "address",
          "name": "",
          "type": "address"
        }
      ],
      "name": "swapExactOutput",
      "outputs": [
        {
          "internalType": "uint256",
          "name": "",
          "type": "uint256"
        }
      ],
      "stateMutability": "pure",
      "type": "function"
    }
  ],
  "transactionHash": "0x932baddc7831a89dbee7529f2cd2de761d9c831b52f654ca4444704c1b07cb72",
  "args": [
    "0x0000000022D53366457F9d5E68Ec105046FC4383"
  ],
  "numDeployments": 2,
  "solcInputHash": "e3efb90b5d54b908989b905a69e9177d",
  "bytecode": "0x60a060405234801561001057600080fd5b50604051610d5a380380610d5a83398101604081905261002f9161009a565b6001600160a01b0381166100895760405162461bcd60e51b815260206004820152601760248201527f6164647265737350726f76696465722d69732d6e756c6c000000000000000000604482015260640160405180910390fd5b6001600160a01b03166080526100ca565b6000602082840312156100ac57600080fd5b81516001600160a01b03811681146100c357600080fd5b9392505050565b608051610c6f6100eb60003960008181607101526104e00152610c6f6000f3fe608060405234801561001057600080fd5b50600436106100675760003560e01c80634909c29a116100505780634909c29a146100de5780639d9f384d146100f1578063fee9574a146100ff57600080fd5b80632954018c1461006c5780632aa4a9e5146100bd575b600080fd5b6100937f000000000000000000000000000000000000000000000000000000000000000081565b60405173ffffffffffffffffffffffffffffffffffffffff90911681526020015b60405180910390f35b6100d06100cb366004610680565b610112565b6040519081526020016100b4565b6100d06100ec3660046107ab565b61017b565b6100d06100cb366004610816565b6100d061010d366004610680565b6103f4565b6040517f08c379a000000000000000000000000000000000000000000000000000000000815260206004820152600d60248201527f6e6f742d737570706f7274656400000000000000000000000000000000000000604482015260009060640160405180910390fd5b6000808061018b87890189610892565b81519193509150600061019c6104ae565b6040517fdd62ed3e00000000000000000000000000000000000000000000000000000000815230600482015273ffffffffffffffffffffffffffffffffffffffff8083166024830152919250899184169063dd62ed3e9060440160206040518083038186803b15801561020e57600080fd5b505afa158015610222573d6000803e3d6000fd5b505050506040513d601f19601f820116820180604052508101906102469190610995565b1015610315576040517f095ea7b300000000000000000000000000000000000000000000000000000000815273ffffffffffffffffffffffffffffffffffffffff82811660048301527fffffffffffffffffffffffffffffffffffffffffffffffffffffffffffffffff602483015283169063095ea7b390604401602060405180830381600087803b1580156102db57600080fd5b505af11580156102ef573d6000803e3d6000fd5b505050506040513d601f19601f8201168201806040525081019061031391906109ae565b505b61031d610574565b60008082526020820181905260408083018290526060830191909152517f0651cb3500000000000000000000000000000000000000000000000000000000815273ffffffffffffffffffffffffffffffffffffffff831690630651cb359061039390889088908e908e9088908f90600401610a68565b602060405180830381600087803b1580156103ad57600080fd5b505af11580156103c1573d6000803e3d6000fd5b505050506040513d601f19601f820116820180604052508101906103e59190610995565b9b9a5050505050505050505050565b60008060008380602001905181019061040d9190610afc565b915091506104196104ae565b73ffffffffffffffffffffffffffffffffffffffff16637b3d22cf8383886040518463ffffffff1660e01b815260040161045593929190610bf0565b60206040518083038186803b15801561046d57600080fd5b505afa158015610481573d6000803e3d6000fd5b505050506040513d601f19601f820116820180604052508101906104a59190610995565b95945050505050565b6040517f493f4f74000000000000000000000000000000000000000000000000000000008152600260048201526000907f000000000000000000000000000000000000000000000000000000000000000073ffffffffffffffffffffffffffffffffffffffff169063493f4f749060240160206040518083038186803b15801561053757600080fd5b505afa15801561054b573d6000803e3d6000fd5b505050506040513d601f19601f8201168201806040525081019061056f9190610c1c565b905090565b60405180608001604052806004906020820280368337509192915050565b7f4e487b7100000000000000000000000000000000000000000000000000000000600052604160045260246000fd5b604051610120810167ffffffffffffffff811182821017156105e5576105e5610592565b60405290565b6040516080810167ffffffffffffffff811182821017156105e5576105e5610592565b6040516060810167ffffffffffffffff811182821017156105e5576105e5610592565b604051601f82017fffffffffffffffffffffffffffffffffffffffffffffffffffffffffffffffe016810167ffffffffffffffff8111828210171561067857610678610592565b604052919050565b6000806040838503121561069357600080fd5b8235915060208084013567ffffffffffffffff808211156106b357600080fd5b818601915086601f8301126106c757600080fd5b8135818111156106d9576106d9610592565b610709847fffffffffffffffffffffffffffffffffffffffffffffffffffffffffffffffe0601f84011601610631565b9150808252878482850101111561071f57600080fd5b80848401858401376000848284010152508093505050509250929050565b60008083601f84011261074f57600080fd5b50813567ffffffffffffffff81111561076757600080fd5b60208301915083602082850101111561077f57600080fd5b9250929050565b73ffffffffffffffffffffffffffffffffffffffff811681146107a857600080fd5b50565b6000806000806000608086880312156107c357600080fd5b853567ffffffffffffffff8111156107da57600080fd5b6107e68882890161073d565b9096509450506020860135925060408601359150606086013561080881610786565b809150509295509295909350565b60008060008060008060a0878903121561082f57600080fd5b863567ffffffffffffffff81111561084657600080fd5b61085289828a0161073d565b9097509550506020870135935060408701359250606087013561087481610786565b9150608087013561088481610786565b809150509295509295509295565b6000806102a08084860312156108a757600080fd5b601f85818601126108b757600080fd5b6108bf6105c1565b806101208701888111156108d257600080fd5b875b818110156108f55780356108e781610786565b8452602093840193016108d4565b508196508861013f89011261090957600080fd5b6109116105eb565b9488019492508291508885111561092757600080fd5b8481101561098657888482011261093e5760008081fd5b61094661060e565b80606083018b8111156109595760008081fd5b835b8181101561097357803584526020938401930161095b565b5050845250602090920191606001610927565b50809450505050509250929050565b6000602082840312156109a757600080fd5b5051919050565b6000602082840312156109c057600080fd5b815180151581146109d057600080fd5b9392505050565b8060005b6009811015610a1057815173ffffffffffffffffffffffffffffffffffffffff168452602093840193909101906001016109db565b50505050565b806000805b6004811015610a6157825185835b6003811015610a48578251825260209283019290910190600101610a29565b5050506060949094019360209290920191600101610a1b565b5050505050565b6103808101610a7782896109d7565b610a85610120830188610a16565b856102a0830152846102c08301526102e082018460005b6004811015610ad157815173ffffffffffffffffffffffffffffffffffffffff16835260209283019290910190600101610a9c565b50505073ffffffffffffffffffffffffffffffffffffffff8316610360830152979650505050505050565b6000806102a0808486031215610b1157600080fd5b601f8581860112610b2157600080fd5b610b296105c1565b80610120870188811115610b3c57600080fd5b875b81811015610b5f578051610b5181610786565b845260209384019301610b3e565b508196508861013f890112610b7357600080fd5b610b7b6105eb565b94880194925082915088851115610b9157600080fd5b84811015610986578884820112610ba85760008081fd5b610bb061060e565b80606083018b811115610bc35760008081fd5b835b81811015610bdd578051845260209384019301610bc5565b5050845250602090920191606001610b91565b6102c08101610bff82866109d7565b610c0d610120830185610a16565b826102a0830152949350505050565b600060208284031215610c2e57600080fd5b81516109d08161078656fea2646970667358221220d14cee5c34d0854340a228f2421e8d076d210f7fff9486972d9db3618e47b24d64736f6c63430008090033",
  "devdoc": {
    "kind": "dev",
    "methods": {
      "getAmountsIn(uint256,bytes)": {
        "details": "Not properly supported by curve"
      },
      "getAmountsOut(uint256,bytes)": {
        "details": "It shouldn't be used as oracle!!!"
      },
      "swapExactInput(bytes,uint256,uint256,address)": {
        "details": "Should transfer `amountIn_` before performing swap"
      },
      "swapExactOutput(bytes,uint256,uint256,address,address)": {
        "details": "Not properly supported by curve"
      }
    },
    "title": "CurveExchange Exchange.",
    "version": 1
  },
  "userdoc": {
    "kind": "user",
    "methods": {
      "getAmountsIn(uint256,bytes)": {
        "notice": "Get *spot* quote It will return the swap amount based on the current reserves of the given path (i.e. spot price)"
      },
      "getAmountsOut(uint256,bytes)": {
        "notice": "Get *spot* quote It will return the swap amount based on the current reserves of the given path (i.e. spot price)"
      },
      "swapExactInput(bytes,uint256,uint256,address)": {
        "notice": "Perform an exact input swap"
      },
      "swapExactOutput(bytes,uint256,uint256,address,address)": {
        "notice": "Perform an exact output swap"
      }
    },
    "notice": "Implemented as per https://curve.readthedocs.io/registry-exchanges.html",
    "version": 1
  },
  "storageLayout": {
    "storage": [],
    "types": null
  }
}