{
  "address": "0xB812A730fCe12d3F841Fb6Ca3fD39Bd8F60ddF19",
  "abi": [
    {
      "inputs": [
        {
          "internalType": "address",
          "name": "addressProvider_",
          "type": "address"
        }
      ],
      "stateMutability": "nonpayable",
      "type": "constructor"
    },
    {
      "inputs": [],
      "name": "addressProvider",
      "outputs": [
        {
          "internalType": "contract ICurveAddressProvider",
          "name": "",
          "type": "address"
        }
      ],
      "stateMutability": "view",
      "type": "function"
    },
    {
      "inputs": [
        {
          "internalType": "uint256",
          "name": "amountOut_",
          "type": "uint256"
        },
        {
          "internalType": "bytes",
          "name": "path_",
          "type": "bytes"
        }
      ],
      "name": "getAmountsIn",
      "outputs": [
        {
          "internalType": "uint256",
          "name": "_amountIn",
          "type": "uint256"
        }
      ],
      "stateMutability": "pure",
      "type": "function"
    },
    {
      "inputs": [
        {
          "internalType": "uint256",
          "name": "amountIn_",
          "type": "uint256"
        },
        {
          "internalType": "bytes",
          "name": "path_",
          "type": "bytes"
        }
      ],
      "name": "getAmountsOut",
      "outputs": [
        {
          "internalType": "uint256",
          "name": "_amountOut",
          "type": "uint256"
        }
      ],
      "stateMutability": "view",
      "type": "function"
    },
    {
      "inputs": [
        {
          "internalType": "address",
          "name": "tokenIn_",
          "type": "address"
        },
        {
          "internalType": "address",
          "name": "tokenOut_",
          "type": "address"
        },
        {
          "internalType": "uint256",
          "name": "amountOut_",
          "type": "uint256"
        }
      ],
      "name": "getBestAmountIn",
      "outputs": [
        {
          "internalType": "uint256",
          "name": "_amountIn",
          "type": "uint256"
        },
        {
          "internalType": "bytes",
          "name": "_path",
          "type": "bytes"
        }
      ],
      "stateMutability": "pure",
      "type": "function"
    },
    {
      "inputs": [
        {
          "internalType": "address",
          "name": "tokenIn_",
          "type": "address"
        },
        {
          "internalType": "address",
          "name": "tokenOut_",
          "type": "address"
        },
        {
          "internalType": "uint256",
          "name": "amountIn_",
          "type": "uint256"
        }
      ],
      "name": "getBestAmountOut",
      "outputs": [
        {
          "internalType": "uint256",
          "name": "_amountOut",
          "type": "uint256"
        },
        {
          "internalType": "bytes",
          "name": "_path",
          "type": "bytes"
        }
      ],
      "stateMutability": "view",
      "type": "function"
    },
    {
      "inputs": [
        {
          "internalType": "bytes",
          "name": "path_",
          "type": "bytes"
        },
        {
          "internalType": "uint256",
          "name": "amountIn_",
          "type": "uint256"
        },
        {
          "internalType": "uint256",
          "name": "amountOutMin_",
          "type": "uint256"
        },
        {
          "internalType": "address",
          "name": "outReceiver_",
          "type": "address"
        }
      ],
      "name": "swapExactInput",
      "outputs": [
        {
          "internalType": "uint256",
          "name": "_amountOut",
          "type": "uint256"
        }
      ],
      "stateMutability": "nonpayable",
      "type": "function"
    },
    {
      "inputs": [
        {
          "internalType": "bytes",
          "name": "path_",
          "type": "bytes"
        },
        {
          "internalType": "uint256",
          "name": "amountOut_",
          "type": "uint256"
        },
        {
          "internalType": "uint256",
          "name": "amountInMax_",
          "type": "uint256"
        },
        {
          "internalType": "address",
          "name": "remainingReceiver_",
          "type": "address"
        },
        {
          "internalType": "address",
          "name": "outReceiver_",
          "type": "address"
        }
      ],
      "name": "swapExactOutput",
      "outputs": [
        {
          "internalType": "uint256",
          "name": "_amountIn",
          "type": "uint256"
        }
      ],
      "stateMutability": "pure",
      "type": "function"
    }
  ],
  "transactionHash": "0xc25cc678fd30ee1a551e277e87d397902123afbf6a05aaa8a2c9f232d9a832aa",
  "args": [
    "0x0000000022D53366457F9d5E68Ec105046FC4383"
  ],
  "numDeployments": 1,
  "solcInputHash": "941efbb6272fac457b0ba47aca3d6b5a",
  "bytecode": "0x60a060405234801561001057600080fd5b50604051610cb5380380610cb583398101604081905261002f9161009a565b6001600160a01b0381166100895760405162461bcd60e51b815260206004820152601760248201527f6164647265737350726f76696465722d69732d6e756c6c000000000000000000604482015260640160405180910390fd5b6001600160a01b03166080526100ca565b6000602082840312156100ac57600080fd5b81516001600160a01b03811681146100c357600080fd5b9392505050565b608051610bca6100eb6000396000818160b101526106cd0152610bca6000f3fe608060405234801561001057600080fd5b506004361061007d5760003560e01c80634909c29a1161005b5780634909c29a1461011957806370b247421461012c5780639d9f384d1461013f578063fee9574a1461014d57600080fd5b806319145798146100825780632954018c146100ac5780632aa4a9e5146100f8575b600080fd5b610095610090366004610786565b610160565b6040516100a39291906107c7565b60405180910390f35b6100d37f000000000000000000000000000000000000000000000000000000000000000081565b60405173ffffffffffffffffffffffffffffffffffffffff90911681526020016100a3565b61010b610106366004610871565b61026d565b6040519081526020016100a3565b61010b610127366004610993565b6102d7565b61009561013a366004610786565b610549565b61010b6101063660046109fe565b61010b61015b366004610871565b6105b1565b60006060600061016e61069b565b6040517f4e21df7500000000000000000000000000000000000000000000000000000000815273ffffffffffffffffffffffffffffffffffffffff88811660048301528781166024830152604482018790529190911690634e21df7590606401604080518083038186803b1580156101e557600080fd5b505afa1580156101f9573d6000803e3d6000fd5b505050506040513d601f19601f8201168201806040525081019061021d9190610a7a565b6040805173ffffffffffffffffffffffffffffffffffffffff9384166020820152988316898201529690911660608089019190915286518089039091018152608090970190955250929492505050565b6040517f08c379a000000000000000000000000000000000000000000000000000000000815260206004820152600d60248201527f6e6f742d737570706f727465640000000000000000000000000000000000000060448201526000906064015b60405180910390fd5b60008080806102e8888a018a610aa8565b919450925090508160006102fa61069b565b6040517fdd62ed3e00000000000000000000000000000000000000000000000000000000815230600482015273ffffffffffffffffffffffffffffffffffffffff80831660248301529192508a9184169063dd62ed3e9060440160206040518083038186803b15801561036c57600080fd5b505afa158015610380573d6000803e3d6000fd5b505050506040513d601f19601f820116820180604052508101906103a49190610af3565b1015610473576040517f095ea7b300000000000000000000000000000000000000000000000000000000815273ffffffffffffffffffffffffffffffffffffffff82811660048301527fffffffffffffffffffffffffffffffffffffffffffffffffffffffffffffffff602483015283169063095ea7b390604401602060405180830381600087803b15801561043957600080fd5b505af115801561044d573d6000803e3d6000fd5b505050506040513d601f19601f820116820180604052508101906104719190610b0c565b505b6040517f1a4c1ca300000000000000000000000000000000000000000000000000000000815273ffffffffffffffffffffffffffffffffffffffff868116600483015285811660248301528481166044830152606482018b9052608482018a905288811660a4830152821690631a4c1ca39060c401602060405180830381600087803b15801561050257600080fd5b505af1158015610516573d6000803e3d6000fd5b505050506040513d601f19601f8201168201806040525081019061053a9190610af3565b9b9a5050505050505050505050565b6040517f08c379a000000000000000000000000000000000000000000000000000000000815260206004820152600d60248201527f6e6f742d737570706f727465640000000000000000000000000000000000000060448201526000906060906064016102ce565b600080600080848060200190518101906105cb9190610b35565b9250925092506105d961069b565b6040517f3973e83400000000000000000000000000000000000000000000000000000000815273ffffffffffffffffffffffffffffffffffffffff858116600483015284811660248301528381166044830152606482018990529190911690633973e8349060840160206040518083038186803b15801561065957600080fd5b505afa15801561066d573d6000803e3d6000fd5b505050506040513d601f19601f820116820180604052508101906106919190610af3565b9695505050505050565b6040517f493f4f74000000000000000000000000000000000000000000000000000000008152600260048201526000907f000000000000000000000000000000000000000000000000000000000000000073ffffffffffffffffffffffffffffffffffffffff169063493f4f749060240160206040518083038186803b15801561072457600080fd5b505afa158015610738573d6000803e3d6000fd5b505050506040513d601f19601f8201168201806040525081019061075c9190610b77565b905090565b73ffffffffffffffffffffffffffffffffffffffff8116811461078357600080fd5b50565b60008060006060848603121561079b57600080fd5b83356107a681610761565b925060208401356107b681610761565b929592945050506040919091013590565b82815260006020604081840152835180604085015260005b818110156107fb578581018301518582016060015282016107df565b8181111561080d576000606083870101525b50601f017fffffffffffffffffffffffffffffffffffffffffffffffffffffffffffffffe01692909201606001949350505050565b7f4e487b7100000000000000000000000000000000000000000000000000000000600052604160045260246000fd5b6000806040838503121561088457600080fd5b82359150602083013567ffffffffffffffff808211156108a357600080fd5b818501915085601f8301126108b757600080fd5b8135818111156108c9576108c9610842565b604051601f82017fffffffffffffffffffffffffffffffffffffffffffffffffffffffffffffffe0908116603f0116810190838211818310171561090f5761090f610842565b8160405282815288602084870101111561092857600080fd5b8260208601602083013760006020848301015280955050505050509250929050565b60008083601f84011261095c57600080fd5b50813567ffffffffffffffff81111561097457600080fd5b60208301915083602082850101111561098c57600080fd5b9250929050565b6000806000806000608086880312156109ab57600080fd5b853567ffffffffffffffff8111156109c257600080fd5b6109ce8882890161094a565b909650945050602086013592506040860135915060608601356109f081610761565b809150509295509295909350565b60008060008060008060a08789031215610a1757600080fd5b863567ffffffffffffffff811115610a2e57600080fd5b610a3a89828a0161094a565b90975095505060208701359350604087013592506060870135610a5c81610761565b91506080870135610a6c81610761565b809150509295509295509295565b60008060408385031215610a8d57600080fd5b8251610a9881610761565b6020939093015192949293505050565b600080600060608486031215610abd57600080fd5b8335610ac881610761565b92506020840135610ad881610761565b91506040840135610ae881610761565b809150509250925092565b600060208284031215610b0557600080fd5b5051919050565b600060208284031215610b1e57600080fd5b81518015158114610b2e57600080fd5b9392505050565b600080600060608486031215610b4a57600080fd5b8351610b5581610761565b6020850151909350610b6681610761565b6040850151909250610ae881610761565b600060208284031215610b8957600080fd5b8151610b2e8161076156fea2646970667358221220b9ab098a38b51033948f255709e846af22daad0e0cac9f9f500c244b1389dc3264736f6c63430008090033",
  "devdoc": {
    "kind": "dev",
    "methods": {
      "getAmountsIn(uint256,bytes)": {
        "details": "Not supported by curve"
      },
      "getAmountsOut(uint256,bytes)": {
        "details": "It shouldn't be used as oracle!!!"
      },
      "getBestAmountOut(address,address,uint256)": {
        "details": "It iterates through all the curve pools which support `tokenIn_` and `tokenOut_` pair and would consume more gas."
      },
      "swapExactInput(bytes,uint256,uint256,address)": {
        "details": "Should transfer `amountIn_` before performing swap"
      },
      "swapExactOutput(bytes,uint256,uint256,address,address)": {
        "details": "Not supported by curve"
      }
    },
    "title": "CurveExchange Exchange.",
    "version": 1
  },
  "userdoc": {
    "kind": "user",
    "methods": {
      "getAmountsOut(uint256,bytes)": {
        "notice": "Wraps `swaps.get_exchange_amount()` function"
      },
      "getBestAmountIn(address,address,uint256)": {
        "notice": "solhint-disable "
      },
      "getBestAmountOut(address,address,uint256)": {
        "notice": "Wraps `swaps.get_best_rate()` function"
      },
      "swapExactInput(bytes,uint256,uint256,address)": {
        "notice": "Wraps `swaps.exchange()` function"
      }
    },
    "notice": "Implemented as per https://curve.readthedocs.io/registry-exchanges.html",
    "version": 1
  },
  "storageLayout": {
    "storage": [],
    "types": null
  }
}