{
  "address": "0xDc9d45E320AbD6907E1c1f0826Fa729c9f658CBf",
  "abi": [
    {
      "inputs": [],
      "stateMutability": "nonpayable",
      "type": "constructor"
    },
    {
      "anonymous": false,
      "inputs": [
        {
          "indexed": true,
          "internalType": "address",
          "name": "lpToken",
          "type": "address"
        }
      ],
      "name": "LpRegistered",
      "type": "event"
    },
    {
      "inputs": [],
      "name": "addressProvider",
      "outputs": [
        {
          "internalType": "contract ICurveAddressProvider",
          "name": "",
          "type": "address"
        }
      ],
      "stateMutability": "view",
      "type": "function"
    },
    {
      "inputs": [
        {
          "internalType": "address",
          "name": "lpToken_",
          "type": "address"
        }
      ],
      "name": "getPriceInUsd",
      "outputs": [
        {
          "internalType": "uint256",
          "name": "_priceInUsd",
          "type": "uint256"
        }
      ],
      "stateMutability": "view",
      "type": "function"
    },
    {
      "inputs": [
        {
          "internalType": "address",
          "name": "lpToken_",
          "type": "address"
        }
      ],
      "name": "registerLp",
      "outputs": [],
      "stateMutability": "nonpayable",
      "type": "function"
    },
    {
      "inputs": [],
      "name": "registry",
      "outputs": [
        {
          "internalType": "contract ICurveFactoryRegistry",
          "name": "",
          "type": "address"
        }
      ],
      "stateMutability": "view",
      "type": "function"
    },
    {
      "inputs": [
        {
          "internalType": "address",
          "name": "",
          "type": "address"
        },
        {
          "internalType": "uint256",
          "name": "",
          "type": "uint256"
        }
      ],
      "name": "underlyingTokens",
      "outputs": [
        {
          "internalType": "address",
          "name": "",
          "type": "address"
        }
      ],
      "stateMutability": "view",
      "type": "function"
    }
  ],
  "transactionHash": "0x43810fbdf3ecb17af5402dc6358906c99089599569447e0145e0826b19d429c9",
  "args": [],
  "numDeployments": 2,
  "solcInputHash": "484127642a19aeb7a7fbc27311cb599f",
  "bytecode": "0x60a060405234801561001057600080fd5b5060405163124fd3dd60e21b8152600360048201526f22d53366457f9d5e68ec105046fc43839063493f4f749060240160206040518083038186803b15801561005857600080fd5b505afa15801561006c573d6000803e3d6000fd5b505050506040513d601f19601f8201168201806040525081019061009091906100a1565b6001600160a01b03166080526100d1565b6000602082840312156100b357600080fd5b81516001600160a01b03811681146100ca57600080fd5b9392505050565b608051610b7e6101006000396000818160e6015281816105990152818161066101526107900152610b7e6000f3fe608060405234801561001057600080fd5b50600436106100675760003560e01c80632954018c116100505780632954018c146100ca5780637b103999146100e15780637e3d43191461010857600080fd5b806301eadec41461006c57806307ee40bf146100a9575b600080fd5b61007f61007a36600461092c565b61011d565b60405173ffffffffffffffffffffffffffffffffffffffff90911681526020015b60405180910390f35b6100bc6100b7366004610958565b610162565b6040519081526020016100a0565b61007f6f22d53366457f9d5e68ec105046fc438381565b61007f7f000000000000000000000000000000000000000000000000000000000000000081565b61011b610116366004610958565b6104c4565b005b6000602052816000526040600020818154811061013957600080fd5b60009182526020909120015473ffffffffffffffffffffffffffffffffffffffff169150829050565b73ffffffffffffffffffffffffffffffffffffffff8116600090815260208181526040808320805482518185028101850190935280835284938301828280156101e157602002820191906000526020600020905b815473ffffffffffffffffffffffffffffffffffffffff1681526001909101906020018083116101b6575b505050505090506000815111610258576040517f08c379a000000000000000000000000000000000000000000000000000000000815260206004820152601460248201527f6c702d69732d6e6f742d7265676973746572656400000000000000000000000060448201526064015b60405180910390fd5b80516000199060005b8181101561034a5760003373ffffffffffffffffffffffffffffffffffffffff166307ee40bf8684815181106102995761029961097c565b60200260200101516040518263ffffffff1660e01b81526004016102d9919073ffffffffffffffffffffffffffffffffffffffff91909116815260200190565b60206040518083038186803b1580156102f157600080fd5b505afa158015610305573d6000803e3d6000fd5b505050506040513d601f19601f8201168201806040525081019061032991906109ab565b905083811015610337578093505b5080610342816109f3565b915050610261565b5060001982106103b6576040517f08c379a000000000000000000000000000000000000000000000000000000000815260206004820152601d60248201527f6e6f2d6d696e2d756e6465726c79696e672d70726963652d666f756e64000000604482015260640161024f565b60008211610420576040517f08c379a000000000000000000000000000000000000000000000000000000000815260206004820152601160248201527f696e76616c69642d6d696e2d7072696365000000000000000000000000000000604482015260640161024f565b670de0b6b3a76400008573ffffffffffffffffffffffffffffffffffffffff1663bb7b8b806040518163ffffffff1660e01b815260040160206040518083038186803b15801561046f57600080fd5b505afa158015610483573d6000803e3d6000fd5b505050506040513d601f19601f820116820180604052508101906104a791906109ab565b6104b19084610a0e565b6104bb9190610a2d565b95945050505050565b73ffffffffffffffffffffffffffffffffffffffff811660009081526020819052604090205415610551576040517f08c379a000000000000000000000000000000000000000000000000000000000815260206004820152601560248201527f6c702d616c72656164792d726567697374657265640000000000000000000000604482015260640161024f565b6040517f940494f100000000000000000000000000000000000000000000000000000000815273ffffffffffffffffffffffffffffffffffffffff82811660048301526000917f00000000000000000000000000000000000000000000000000000000000000009091169063940494f19060240160206040518083038186803b1580156105dd57600080fd5b505afa1580156105f1573d6000803e3d6000fd5b505050506040513d601f19601f8201168201806040525081019061061591906109ab565b9050806106de576040517feb73f37d00000000000000000000000000000000000000000000000000000000815273ffffffffffffffffffffffffffffffffffffffff83811660048301527f0000000000000000000000000000000000000000000000000000000000000000169063eb73f37d90602401604080518083038186803b1580156106a257600080fd5b505afa1580156106b6573d6000803e3d6000fd5b505050506040513d601f19601f820116820180604052508101906106da9190610a68565b5090505b60008111610748576040517f08c379a000000000000000000000000000000000000000000000000000000000815260206004820152601860248201527f696e76616c69642d666163746f72792d6c702d746f6b656e0000000000000000604482015260640161024f565b6040517f9ac90d3d00000000000000000000000000000000000000000000000000000000815273ffffffffffffffffffffffffffffffffffffffff83811660048301526000917f000000000000000000000000000000000000000000000000000000000000000090911690639ac90d3d9060240160806040518083038186803b1580156107d457600080fd5b505afa1580156107e8573d6000803e3d6000fd5b505050506040513d601f19601f8201168201806040525081019061080c9190610a9c565b905060005b828110156108c05773ffffffffffffffffffffffffffffffffffffffff841660009081526020819052604090208282600481106108505761085061097c565b6020908102919091015182546001810184556000938452919092200180547fffffffffffffffffffffffff00000000000000000000000000000000000000001673ffffffffffffffffffffffffffffffffffffffff909216919091179055806108b8816109f3565b915050610811565b5060405173ffffffffffffffffffffffffffffffffffffffff8416907f21ebaedd59f317b5de83c2b833f2f8f6e38e5e826f527a827412bce37c93a14890600090a2505050565b73ffffffffffffffffffffffffffffffffffffffff8116811461092957600080fd5b50565b6000806040838503121561093f57600080fd5b823561094a81610907565b946020939093013593505050565b60006020828403121561096a57600080fd5b813561097581610907565b9392505050565b7f4e487b7100000000000000000000000000000000000000000000000000000000600052603260045260246000fd5b6000602082840312156109bd57600080fd5b5051919050565b7f4e487b7100000000000000000000000000000000000000000000000000000000600052601160045260246000fd5b6000600019821415610a0757610a076109c4565b5060010190565b6000816000190483118215151615610a2857610a286109c4565b500290565b600082610a63577f4e487b7100000000000000000000000000000000000000000000000000000000600052601260045260246000fd5b500490565b60008060408385031215610a7b57600080fd5b505080516020909101519092909150565b8051610a9781610907565b919050565b600060808284031215610aae57600080fd5b82601f830112610abd57600080fd5b6040516080810181811067ffffffffffffffff82111715610b07577f4e487b7100000000000000000000000000000000000000000000000000000000600052604160045260246000fd5b604052806080840185811115610b1c57600080fd5b845b81811015610b3d57610b2f81610a8c565b835260209283019201610b1e565b50919594505050505056fea26469706673582212203f80c3a69c46f71562fe7183e4940d6d37f3508bca20b5b66a4fc5cd8236c65b64736f6c63430008090033",
  "devdoc": {
    "kind": "dev",
    "methods": {
      "getPriceInUsd(address)": {
        "params": {
          "token_": "The address of asset"
        },
        "returns": {
          "_priceInUsd": "The USD price"
        }
      },
      "registerLp(address)": {
        "details": "For factory pools, the LP and pool addresses are the same"
      }
    },
    "stateVariables": {
      "addressProvider": {
        "details": "Same address for all chains"
      }
    },
    "title": "Oracle for Curve LP tokens (Factory Pools)",
    "version": 1
  },
  "userdoc": {
    "events": {
      "LpRegistered(address)": {
        "notice": "Emitted when a token is registered"
      }
    },
    "kind": "user",
    "methods": {
      "getPriceInUsd(address)": {
        "notice": "Get USD (or equivalent) price of an asset"
      },
      "registerLp(address)": {
        "notice": "Register LP token data"
      },
      "registry()": {
        "notice": "Factory Registry contract"
      },
      "underlyingTokens(address,uint256)": {
        "notice": "LP token => coins mapping"
      }
    },
    "version": 1
  },
  "storageLayout": {
    "storage": [
      {
        "astId": 14984,
        "contract": "contracts/periphery/tokens/CurveFactoryLpTokenOracle.sol:CurveFactoryLpTokenOracle",
        "label": "underlyingTokens",
        "offset": 0,
        "slot": "0",
        "type": "t_mapping(t_address,t_array(t_address)dyn_storage)"
      }
    ],
    "types": {
      "t_address": {
        "encoding": "inplace",
        "label": "address",
        "numberOfBytes": "20"
      },
      "t_array(t_address)dyn_storage": {
        "base": "t_address",
        "encoding": "dynamic_array",
        "label": "address[]",
        "numberOfBytes": "32"
      },
      "t_mapping(t_address,t_array(t_address)dyn_storage)": {
        "encoding": "mapping",
        "key": "t_address",
        "label": "mapping(address => address[])",
        "numberOfBytes": "32",
        "value": "t_array(t_address)dyn_storage"
      }
    }
  }
}