{
  "address": "0x87AAc880c998662BAfF07c61D2584B7543eb2Ff3",
  "abi": [
    {
      "inputs": [
        {
          "internalType": "address",
          "name": "weth_",
          "type": "address"
        }
      ],
      "stateMutability": "nonpayable",
      "type": "constructor"
    },
    {
      "anonymous": false,
      "inputs": [
        {
          "indexed": true,
          "internalType": "address",
          "name": "lpToken",
          "type": "address"
        }
      ],
      "name": "LpRegistered",
      "type": "event"
    },
    {
      "inputs": [],
      "name": "addressProvider",
      "outputs": [
        {
          "internalType": "contract IAddressProvider",
          "name": "",
          "type": "address"
        }
      ],
      "stateMutability": "view",
      "type": "function"
    },
    {
      "inputs": [],
      "name": "curveAddressProvider",
      "outputs": [
        {
          "internalType": "contract ICurveAddressProvider",
          "name": "",
          "type": "address"
        }
      ],
      "stateMutability": "view",
      "type": "function"
    },
    {
      "inputs": [
        {
          "internalType": "address",
          "name": "lpToken_",
          "type": "address"
        }
      ],
      "name": "getPriceInUsd",
      "outputs": [
        {
          "internalType": "uint256",
          "name": "_priceInUsd",
          "type": "uint256"
        }
      ],
      "stateMutability": "view",
      "type": "function"
    },
    {
      "inputs": [
        {
          "internalType": "address",
          "name": "lpToken_",
          "type": "address"
        }
      ],
      "name": "isLpRegistered",
      "outputs": [
        {
          "internalType": "bool",
          "name": "",
          "type": "bool"
        }
      ],
      "stateMutability": "view",
      "type": "function"
    },
    {
      "inputs": [
        {
          "internalType": "address",
          "name": "",
          "type": "address"
        }
      ],
      "name": "poolOf",
      "outputs": [
        {
          "internalType": "address",
          "name": "",
          "type": "address"
        }
      ],
      "stateMutability": "view",
      "type": "function"
    },
    {
      "inputs": [
        {
          "internalType": "address",
          "name": "lpToken_",
          "type": "address"
        }
      ],
      "name": "registerLp",
      "outputs": [],
      "stateMutability": "nonpayable",
      "type": "function"
    },
    {
      "inputs": [
        {
          "internalType": "address",
          "name": "",
          "type": "address"
        },
        {
          "internalType": "uint256",
          "name": "",
          "type": "uint256"
        }
      ],
      "name": "underlyingTokens",
      "outputs": [
        {
          "internalType": "address",
          "name": "",
          "type": "address"
        }
      ],
      "stateMutability": "view",
      "type": "function"
    }
  ],
  "transactionHash": "0xf9d2130b9115e20ee4360c56f28895973ac7256051eaffed4ad2c3bfc16d246f",
  "args": [
    "0xC02aaA39b223FE8D0A0e5C4F27eAD9083C756Cc2"
  ],
  "numDeployments": 1,
  "solcInputHash": "43a5b14b25be57aac4dc77aeb35756c6",
  "bytecode": "0x60a060405234801561001057600080fd5b50604051610db8380380610db883398101604081905261002f91610086565b6001600160a01b0381166100755760405162461bcd60e51b81526020600482015260096024820152680dcead8d85aeecae8d60bb1b604482015260640160405180910390fd5b6001600160a01b03166080526100b6565b60006020828403121561009857600080fd5b81516001600160a01b03811681146100af57600080fd5b9392505050565b608051610ce76100d160003960006109560152610ce76000f3fe608060405234801561001057600080fd5b506004361061007d5760003560e01c80633d6e73881161005b5780633d6e7388146100ee5780637e3d431914610105578063988b1fa71461011a578063e27dbd5e1461014357600080fd5b806301eadec41461008257806307ee40bf146100b25780632954018c146100d3575b600080fd5b610095610090366004610a9b565b61017e565b6040516001600160a01b0390911681526020015b60405180910390f35b6100c56100c0366004610ac7565b6101b6565b6040519081526020016100a9565b61009573fba0816a81bcabbf3829bed28618177a2bf0e82a81565b6100956f22d53366457f9d5e68ec105046fc438381565b610118610113366004610ac7565b6104a9565b005b610095610128366004610ac7565b6001602052600090815260409020546001600160a01b031681565b61016e610151366004610ac7565b6001600160a01b0316600090815260208190526040902054151590565b60405190151581526020016100a9565b6000602052816000526040600020818154811061019a57600080fd5b6000918252602090912001546001600160a01b03169150829050565b6001600160a01b03808216600090815260016020526040812054909116806102255760405162461bcd60e51b815260206004820152601460248201527f6c702d69732d6e6f742d7265676973746572656400000000000000000000000060448201526064015b60405180910390fd5b6001600160a01b0383166000908152602081815260408083208054825181850281018501909352808352919290919083018282801561028d57602002820191906000526020600020905b81546001600160a01b0316815260019091019060200180831161026f575b5050835193945060001993925060009150505b8181101561036f576000336001600160a01b03166307ee40bf8684815181106102cb576102cb610aeb565b60200260200101516040518263ffffffff1660e01b81526004016102fe91906001600160a01b0391909116815260200190565b60206040518083038186803b15801561031657600080fd5b505afa15801561032a573d6000803e3d6000fd5b505050506040513d601f19601f8201168201806040525081019061034e9190610b1a565b90508381101561035c578093505b508061036781610b62565b9150506102a0565b5060001982106103c15760405162461bcd60e51b815260206004820152601d60248201527f6e6f2d6d696e2d756e6465726c79696e672d70726963652d666f756e64000000604482015260640161021c565b600082116104115760405162461bcd60e51b815260206004820152601160248201527f696e76616c69642d6d696e2d7072696365000000000000000000000000000000604482015260640161021c565b670de0b6b3a7640000846001600160a01b031663bb7b8b806040518163ffffffff1660e01b815260040160206040518083038186803b15801561045357600080fd5b505afa158015610467573d6000803e3d6000fd5b505050506040513d601f19601f8201168201806040525081019061048b9190610b1a565b6104959084610b7d565b61049f9190610b9c565b9695505050505050565b73fba0816a81bcabbf3829bed28618177a2bf0e82a6001600160a01b0316630c340a246040518163ffffffff1660e01b815260040160206040518083038186803b1580156104f657600080fd5b505afa15801561050a573d6000803e3d6000fd5b505050506040513d601f19601f8201168201806040525081019061052e9190610be7565b6001600160a01b0316336001600160a01b03161461058e5760405162461bcd60e51b815260206004820152600c60248201527f6e6f742d676f7665726e6f720000000000000000000000000000000000000000604482015260640161021c565b6001600160a01b038116600090815260208190526040902054156105f45760405162461bcd60e51b815260206004820152601560248201527f6c702d616c72656164792d726567697374657265640000000000000000000000604482015260640161021c565b6040517f493f4f74000000000000000000000000000000000000000000000000000000008152600760048201526000906f22d53366457f9d5e68ec105046fc43839063493f4f749060240160206040518083038186803b15801561065757600080fd5b505afa15801561066b573d6000803e3d6000fd5b505050506040513d601f19601f8201168201806040525081019061068f9190610be7565b6040517fbdf475c30000000000000000000000000000000000000000000000000000000081526001600160a01b03848116600483015291925060009183169063bdf475c39060240160206040518083038186803b1580156106ef57600080fd5b505afa158015610703573d6000803e3d6000fd5b505050506040513d601f19601f820116820180604052508101906107279190610be7565b90506001600160a01b03811661077f5760405162461bcd60e51b815260206004820152601060248201527f696e76616c69642d6c702d746f6b656e00000000000000000000000000000000604482015260640161021c565b6001600160a01b0383811660009081526001602052604090205416156107c0576001600160a01b03831660009081526020819052604081206107c091610a4c565b6001600160a01b0383811660009081526001602052604080822080547fffffffffffffffffffffffff00000000000000000000000000000000000000001685851690811790915590517fa77576ef0000000000000000000000000000000000000000000000000000000081526004810191909152909184169063a77576ef906024016101006040518083038186803b15801561085b57600080fd5b505afa15801561086f573d6000803e3d6000fd5b505050506040513d601f19601f820116820180604052508101906108939190610c04565b905060005b6008811015610a115760008282600881106108b5576108b5610aeb565b60200201516001600160a01b031614156108ce57610a11565b73eeeeeeeeeeeeeeeeeeeeeeeeeeeeeeeeeeeeeeee8282600881106108f5576108f5610aeb565b60200201516001600160a01b03161415610983576001600160a01b038581166000908152602081815260408220805460018101825590835291200180547fffffffffffffffffffffffff0000000000000000000000000000000000000000167f00000000000000000000000000000000000000000000000000000000000000009092169190911790556109ff565b6001600160a01b03851660009081526020819052604090208282600881106109ad576109ad610aeb565b6020908102919091015182546001810184556000938452919092200180547fffffffffffffffffffffffff0000000000000000000000000000000000000000166001600160a01b039092169190911790555b80610a0981610b62565b915050610898565b506040516001600160a01b038516907f21ebaedd59f317b5de83c2b833f2f8f6e38e5e826f527a827412bce37c93a14890600090a250505050565b5080546000825590600052602060002090810190610a6a9190610a6d565b50565b5b80821115610a825760008155600101610a6e565b5090565b6001600160a01b0381168114610a6a57600080fd5b60008060408385031215610aae57600080fd5b8235610ab981610a86565b946020939093013593505050565b600060208284031215610ad957600080fd5b8135610ae481610a86565b9392505050565b7f4e487b7100000000000000000000000000000000000000000000000000000000600052603260045260246000fd5b600060208284031215610b2c57600080fd5b5051919050565b7f4e487b7100000000000000000000000000000000000000000000000000000000600052601160045260246000fd5b6000600019821415610b7657610b76610b33565b5060010190565b6000816000190483118215151615610b9757610b97610b33565b500290565b600082610bd2577f4e487b7100000000000000000000000000000000000000000000000000000000600052601260045260246000fd5b500490565b8051610be281610a86565b919050565b600060208284031215610bf957600080fd5b8151610ae481610a86565b6000610100808385031215610c1857600080fd5b83601f840112610c2757600080fd5b60405181810181811067ffffffffffffffff82111715610c70577f4e487b7100000000000000000000000000000000000000000000000000000000600052604160045260246000fd5b604052908301908085831115610c8557600080fd5b845b83811015610ca657610c9881610bd7565b825260209182019101610c87565b50909594505050505056fea26469706673582212209c227cde2548f93354dd559b3b5874f3785eae2fc6d6755a3b4341e01c27970464736f6c63430008090033",
  "devdoc": {
    "kind": "dev",
    "methods": {
      "getPriceInUsd(address)": {
        "details": "This function is supposed to be called from `MasterOracle` only",
        "params": {
          "token_": "The address of asset"
        },
        "returns": {
          "_priceInUsd": "The USD price"
        }
      }
    },
    "stateVariables": {
      "curveAddressProvider": {
        "details": "Same address for all chains"
      }
    },
    "title": "Oracle for Curve LP tokens",
    "version": 1
  },
  "userdoc": {
    "events": {
      "LpRegistered(address)": {
        "notice": "Emitted when a LP token is registered"
      }
    },
    "kind": "user",
    "methods": {
      "getPriceInUsd(address)": {
        "notice": "Get USD (or equivalent) price of an asset"
      },
      "isLpRegistered(address)": {
        "notice": "Check if a token is already registered"
      },
      "poolOf(address)": {
        "notice": "LP token => pool"
      },
      "registerLp(address)": {
        "notice": "Register LP token data"
      },
      "underlyingTokens(address,uint256)": {
        "notice": "LP token => coins mapping"
      }
    },
    "version": 1
  },
  "storageLayout": {
    "storage": [
      {
        "astId": 404,
        "contract": "contracts/periphery/tokens/CurveLpTokenOracleV2.sol:CurveLpTokenOracleV2",
        "label": "underlyingTokens",
        "offset": 0,
        "slot": "0",
        "type": "t_mapping(t_address,t_array(t_address)dyn_storage)"
      },
      {
        "astId": 409,
        "contract": "contracts/periphery/tokens/CurveLpTokenOracleV2.sol:CurveLpTokenOracleV2",
        "label": "poolOf",
        "offset": 0,
        "slot": "1",
        "type": "t_mapping(t_address,t_address)"
      }
    ],
    "types": {
      "t_address": {
        "encoding": "inplace",
        "label": "address",
        "numberOfBytes": "20"
      },
      "t_array(t_address)dyn_storage": {
        "base": "t_address",
        "encoding": "dynamic_array",
        "label": "address[]",
        "numberOfBytes": "32"
      },
      "t_mapping(t_address,t_address)": {
        "encoding": "mapping",
        "key": "t_address",
        "label": "mapping(address => address)",
        "numberOfBytes": "32",
        "value": "t_address"
      },
      "t_mapping(t_address,t_array(t_address)dyn_storage)": {
        "encoding": "mapping",
        "key": "t_address",
        "label": "mapping(address => address[])",
        "numberOfBytes": "32",
        "value": "t_array(t_address)dyn_storage"
      }
    }
  }
}