{
  "address": "0x3A360A00f781ec5130a8E1e406D7eE144F756346",
  "abi": [
    {
      "inputs": [
        {
          "internalType": "contract ITokenOracle",
          "name": "btcOracle_",
          "type": "address"
        }
      ],
      "stateMutability": "nonpayable",
      "type": "constructor"
    },
    {
      "inputs": [],
      "name": "IBBTC",
      "outputs": [
        {
          "internalType": "contract IXToken",
          "name": "",
          "type": "address"
        }
      ],
      "stateMutability": "view",
      "type": "function"
    },
    {
      "inputs": [],
      "name": "WIBBTC",
      "outputs": [
        {
          "internalType": "contract IXToken",
          "name": "",
          "type": "address"
        }
      ],
      "stateMutability": "view",
      "type": "function"
    },
    {
      "inputs": [],
      "name": "btcOracle",
      "outputs": [
        {
          "internalType": "contract ITokenOracle",
          "name": "",
          "type": "address"
        }
      ],
      "stateMutability": "view",
      "type": "function"
    },
    {
      "inputs": [
        {
          "internalType": "address",
          "name": "token_",
          "type": "address"
        }
      ],
      "name": "getPriceInUsd",
      "outputs": [
        {
          "internalType": "uint256",
          "name": "_priceInUsd",
          "type": "uint256"
        }
      ],
      "stateMutability": "view",
      "type": "function"
    }
  ],
  "transactionHash": "0x46465ac4c3eb26dd9450bf8aea487bea7cdd29c6176cd35a54bcb99f20374322",
  "args": [
    "0xE2131907E2A999D60e765660e96dEcca0d4372d0"
  ],
  "numDeployments": 2,
  "solcInputHash": "8b654c506c10a4071125075f82070c93",
  "bytecode": "0x60a060405234801561001057600080fd5b506040516105e03803806105e083398101604081905261002f91610040565b6001600160a01b0316608052610070565b60006020828403121561005257600080fd5b81516001600160a01b038116811461006957600080fd5b9392505050565b60805161054f61009160003960008181607c01526101f7015261054f6000f3fe608060405234801561001057600080fd5b506004361061004c5760003560e01c806307ee40bf1461005157806322a15848146100775780635c7fdafc146100c3578063ccae9f3d146100de575b600080fd5b61006461005f366004610424565b6100f9565b6040519081526020015b60405180910390f35b61009e7f000000000000000000000000000000000000000000000000000000000000000081565b60405173ffffffffffffffffffffffffffffffffffffffff909116815260200161006e565b61009e73c4e15973e6ff2a35cc804c2cf9d2a1b817a8b40f81565b61009e738751d4196027d4e6da63716fa7786b5174f04c1581565b600073ffffffffffffffffffffffffffffffffffffffff821673c4e15973e6ff2a35cc804c2cf9d2a1b817a8b40f14156102a057670de0b6b3a764000073c4e15973e6ff2a35cc804c2cf9d2a1b817a8b40f73ffffffffffffffffffffffffffffffffffffffff166399530b066040518163ffffffff1660e01b815260040160206040518083038186803b15801561019057600080fd5b505afa1580156101a4573d6000803e3d6000fd5b505050506040513d601f19601f820116820180604052508101906101c89190610461565b6040517f07ee40bf000000000000000000000000000000000000000000000000000000008152600060048201527f000000000000000000000000000000000000000000000000000000000000000073ffffffffffffffffffffffffffffffffffffffff16906307ee40bf9060240160206040518083038186803b15801561024e57600080fd5b505afa158015610262573d6000803e3d6000fd5b505050506040513d601f19601f820116820180604052508101906102869190610461565b610290919061047a565b61029a91906104de565b92915050565b73ffffffffffffffffffffffffffffffffffffffff8216738751d4196027d4e6da63716fa7786b5174f04c1514156103be57738751d4196027d4e6da63716fa7786b5174f04c1573ffffffffffffffffffffffffffffffffffffffff166399530b066040518163ffffffff1660e01b815260040160206040518083038186803b15801561032c57600080fd5b505afa158015610340573d6000803e3d6000fd5b505050506040513d601f19601f820116820180604052508101906103649190610461565b73c4e15973e6ff2a35cc804c2cf9d2a1b817a8b40f73ffffffffffffffffffffffffffffffffffffffff166399530b066040518163ffffffff1660e01b815260040160206040518083038186803b15801561019057600080fd5b6040517f08c379a000000000000000000000000000000000000000000000000000000000815260206004820152601b60248201527f696e76616c69642d69626274632d72656c617465642d746f6b656e0000000000604482015260640160405180910390fd5b60006020828403121561043657600080fd5b813573ffffffffffffffffffffffffffffffffffffffff8116811461045a57600080fd5b9392505050565b60006020828403121561047357600080fd5b5051919050565b6000817fffffffffffffffffffffffffffffffffffffffffffffffffffffffffffffffff04831182151516156104d9577f4e487b7100000000000000000000000000000000000000000000000000000000600052601160045260246000fd5b500290565b600082610514577f4e487b7100000000000000000000000000000000000000000000000000000000600052601260045260246000fd5b50049056fea264697066735822122026824a70d5e5588aee01b04ce12962783e39db88ce778453a695b129c9fc4f6264736f6c63430008090033",
  "devdoc": {
    "kind": "dev",
    "methods": {
      "getPriceInUsd(address)": {
        "params": {
          "token_": "The address of asset"
        },
        "returns": {
          "_priceInUsd": "The USD price"
        }
      }
    },
    "title": "Oracle for ibBTC token",
    "version": 1
  },
  "userdoc": {
    "kind": "user",
    "methods": {
      "btcOracle()": {
        "notice": "BTC/USD oracle"
      },
      "getPriceInUsd(address)": {
        "notice": "Get USD (or equivalent) price of an asset"
      }
    },
    "version": 1
  },
  "storageLayout": {
    "storage": [],
    "types": null
  }
}