{
  "address": "0xfFD74eCF5B4eec6EAC2624764933fb5f2E2DfD09",
  "abi": [
    {
      "inputs": [],
      "name": "IMBTC",
      "outputs": [
        {
          "internalType": "contract ISavingsContractV2",
          "name": "",
          "type": "address"
        }
      ],
      "stateMutability": "view",
      "type": "function"
    },
    {
      "inputs": [],
      "name": "IMUSD",
      "outputs": [
        {
          "internalType": "contract ISavingsContractV2",
          "name": "",
          "type": "address"
        }
      ],
      "stateMutability": "view",
      "type": "function"
    },
    {
      "inputs": [],
      "name": "MBTC",
      "outputs": [
        {
          "internalType": "contract IMasset",
          "name": "",
          "type": "address"
        }
      ],
      "stateMutability": "view",
      "type": "function"
    },
    {
      "inputs": [],
      "name": "MUSD",
      "outputs": [
        {
          "internalType": "contract IMasset",
          "name": "",
          "type": "address"
        }
      ],
      "stateMutability": "view",
      "type": "function"
    },
    {
      "inputs": [
        {
          "internalType": "address",
          "name": "mAsset_",
          "type": "address"
        }
      ],
      "name": "getPriceInUsd",
      "outputs": [
        {
          "internalType": "uint256",
          "name": "",
          "type": "uint256"
        }
      ],
      "stateMutability": "view",
      "type": "function"
    }
  ],
  "transactionHash": "0x7d12f8c1bf95ecea18f7111d963e42fe634890d32f5e51898b79ca0cbff81fd0",
  "args": [],
  "numDeployments": 1,
  "solcInputHash": "60a21801151c3a578e76024254551efc",
  "bytecode": "0x608060405234801561001057600080fd5b50610b5c806100206000396000f3fe608060405234801561001057600080fd5b50600436106100675760003560e01c80635685c387116100505780635685c387146100d2578063cb5690e5146100ed578063f35d2ab61461010857600080fd5b806307ee40bf1461006c57806343a8262114610092575b600080fd5b61007f61007a3660046106b5565b610123565b6040519081526020015b60405180910390f35b6100ad73e2f2a5c287993345a840db3b0845fbc70f5935a581565b60405173ffffffffffffffffffffffffffffffffffffffff9091168152602001610089565b6100ad7317d8cbb6bce8cee970a4027d1198f6700a7a6c2481565b6100ad73945facb997494cc2570096c74b5f66a3507330a181565b6100ad7330647a72dc82d7fbb1123ea74716ab8a317eac1981565b600073ffffffffffffffffffffffffffffffffffffffff821673e2f2a5c287993345a840db3b0845fbc70f5935a5141561017a5761017473e2f2a5c287993345a840db3b0845fbc70f5935a56103df565b92915050565b73ffffffffffffffffffffffffffffffffffffffff82167330647a72dc82d7fbb1123ea74716ab8a317eac19141561027857670de0b6b3a76400006101d273e2f2a5c287993345a840db3b0845fbc70f5935a56103df565b7330647a72dc82d7fbb1123ea74716ab8a317eac1973ffffffffffffffffffffffffffffffffffffffff16633ba0b9a96040518163ffffffff1660e01b815260040160206040518083038186803b15801561022c57600080fd5b505afa158015610240573d6000803e3d6000fd5b505050506040513d601f19601f8201168201806040525081019061026491906106d9565b61026e9190610721565b610174919061075e565b73ffffffffffffffffffffffffffffffffffffffff821673945facb997494cc2570096c74b5f66a3507330a114156102c75761017473945facb997494cc2570096c74b5f66a3507330a16103df565b73ffffffffffffffffffffffffffffffffffffffff82167317d8cbb6bce8cee970a4027d1198f6700a7a6c24141561037957670de0b6b3a764000061031f73945facb997494cc2570096c74b5f66a3507330a16103df565b7317d8cbb6bce8cee970a4027d1198f6700a7a6c2473ffffffffffffffffffffffffffffffffffffffff16633ba0b9a96040518163ffffffff1660e01b815260040160206040518083038186803b15801561022c57600080fd5b6040517f08c379a000000000000000000000000000000000000000000000000000000000815260206004820152600d60248201527f696e76616c69642d746f6b656e00000000000000000000000000000000000000604482015260640160405180910390fd5b60008060008373ffffffffffffffffffffffffffffffffffffffff16631d3ce3986040518163ffffffff1660e01b815260040160006040518083038186803b15801561042a57600080fd5b505afa15801561043e573d6000803e3d6000fd5b505050506040513d6000823e601f3d9081017fffffffffffffffffffffffffffffffffffffffffffffffffffffffffffffffe01682016040526104849190810190610949565b80519193509150600090815b818110156105fd573373ffffffffffffffffffffffffffffffffffffffff166307ee40bf8683815181106104c6576104c6610a6e565b6020908102919091010151516040517fffffffff0000000000000000000000000000000000000000000000000000000060e084901b16815273ffffffffffffffffffffffffffffffffffffffff909116600482015260240160206040518083038186803b15801561053657600080fd5b505afa15801561054a573d6000803e3d6000fd5b505050506040513d601f19601f8201168201806040525081019061056e91906106d9565b6305f5e10085838151811061058557610585610a6e565b6020026020010151600001518684815181106105a3576105a3610a6e565b6020026020010151602001516105b99190610a9d565b6fffffffffffffffffffffffffffffffff166105d5919061075e565b6105df9190610721565b6105e99084610ad5565b9250806105f581610aed565b915050610490565b508573ffffffffffffffffffffffffffffffffffffffff166318160ddd6040518163ffffffff1660e01b815260040160206040518083038186803b15801561064457600080fd5b505afa158015610658573d6000803e3d6000fd5b505050506040513d601f19601f8201168201806040525081019061067c91906106d9565b610686908361075e565b9695505050505050565b73ffffffffffffffffffffffffffffffffffffffff811681146106b257600080fd5b50565b6000602082840312156106c757600080fd5b81356106d281610690565b9392505050565b6000602082840312156106eb57600080fd5b5051919050565b7f4e487b7100000000000000000000000000000000000000000000000000000000600052601160045260246000fd5b6000817fffffffffffffffffffffffffffffffffffffffffffffffffffffffffffffffff0483118215151615610759576107596106f2565b500290565b600082610794577f4e487b7100000000000000000000000000000000000000000000000000000000600052601260045260246000fd5b500490565b7f4e487b7100000000000000000000000000000000000000000000000000000000600052604160045260246000fd5b6040805190810167ffffffffffffffff811182821017156107eb576107eb610799565b60405290565b6040516080810167ffffffffffffffff811182821017156107eb576107eb610799565b604051601f82017fffffffffffffffffffffffffffffffffffffffffffffffffffffffffffffffe016810167ffffffffffffffff8111828210171561085b5761085b610799565b604052919050565b600067ffffffffffffffff82111561087d5761087d610799565b5060051b60200190565b80516fffffffffffffffffffffffffffffffff811681146108a757600080fd5b919050565b600082601f8301126108bd57600080fd5b815160206108d26108cd83610863565b610814565b82815260069290921b840181019181810190868411156108f157600080fd5b8286015b8481101561093e576040818903121561090e5760008081fd5b6109166107c8565b61091f82610887565b815261092c858301610887565b818601528352918301916040016108f5565b509695505050505050565b600080604080848603121561095d57600080fd5b835167ffffffffffffffff8082111561097557600080fd5b818601915086601f83011261098957600080fd5b815160206109996108cd83610863565b82815260079290921b8401810191818101908a8411156109b857600080fd5b948201945b83861015610a3d576080868c0312156109d65760008081fd5b6109de6107f1565b86516109e981610690565b8152868401516109f881610690565b81850152868801518015158114610a0f5760008081fd5b8189015260608781015160088110610a275760008081fd5b90820152825260809590950194908201906109bd565b91890151919750909450505080831115610a5657600080fd5b5050610a64858286016108ac565b9150509250929050565b7f4e487b7100000000000000000000000000000000000000000000000000000000600052603260045260246000fd5b60006fffffffffffffffffffffffffffffffff80831681851681830481118215151615610acc57610acc6106f2565b02949350505050565b60008219821115610ae857610ae86106f2565b500190565b60007fffffffffffffffffffffffffffffffffffffffffffffffffffffffffffffffff821415610b1f57610b1f6106f2565b506001019056fea2646970667358221220c19a72e9786a7803992952634bc688281e981e4fe738c8c29ab32f75554b0b0264736f6c63430008090033",
  "devdoc": {
    "kind": "dev",
    "methods": {
      "getPriceInUsd(address)": {
        "params": {
          "token_": "The address of asset"
        },
        "returns": {
          "_0": "The USD price"
        }
      }
    },
    "title": "mStable's tokens oracle",
    "version": 1
  },
  "userdoc": {
    "kind": "user",
    "methods": {
      "getPriceInUsd(address)": {
        "notice": "Get USD (or equivalent) price of an asset"
      }
    },
    "version": 1
  },
  "storageLayout": {
    "storage": [],
    "types": null
  }
}