{
  "address": "0x516F93d90Afdf3d663dB1Fe35c05727736e900fd",
  "abi": [
    {
      "inputs": [
        {
          "internalType": "address",
          "name": "nativeToken_",
          "type": "address"
        }
      ],
      "stateMutability": "nonpayable",
      "type": "constructor"
    },
    {
      "anonymous": false,
      "inputs": [
        {
          "indexed": false,
          "internalType": "enum DataTypes.Provider",
          "name": "provider",
          "type": "uint8"
        },
        {
          "indexed": false,
          "internalType": "contract IPriceProvider",
          "name": "oldPriceProvider",
          "type": "address"
        },
        {
          "indexed": false,
          "internalType": "contract IPriceProvider",
          "name": "newPriceProvider",
          "type": "address"
        }
      ],
      "name": "PriceProviderUpdated",
      "type": "event"
    },
    {
      "inputs": [],
      "name": "addressProvider",
      "outputs": [
        {
          "internalType": "contract IAddressProvider",
          "name": "",
          "type": "address"
        }
      ],
      "stateMutability": "view",
      "type": "function"
    },
    {
      "inputs": [
        {
          "internalType": "enum DataTypes.Provider",
          "name": "provider_",
          "type": "uint8"
        },
        {
          "internalType": "address",
          "name": "token_",
          "type": "address"
        }
      ],
      "name": "getPriceInUsd",
      "outputs": [
        {
          "internalType": "uint256",
          "name": "_priceInUsd",
          "type": "uint256"
        },
        {
          "internalType": "uint256",
          "name": "_lastUpdatedAt",
          "type": "uint256"
        }
      ],
      "stateMutability": "view",
      "type": "function"
    },
    {
      "inputs": [],
      "name": "nativeToken",
      "outputs": [
        {
          "internalType": "address",
          "name": "",
          "type": "address"
        }
      ],
      "stateMutability": "view",
      "type": "function"
    },
    {
      "inputs": [
        {
          "internalType": "enum DataTypes.Provider",
          "name": "",
          "type": "uint8"
        }
      ],
      "name": "priceProviders",
      "outputs": [
        {
          "internalType": "contract IPriceProvider",
          "name": "",
          "type": "address"
        }
      ],
      "stateMutability": "view",
      "type": "function"
    },
    {
      "inputs": [
        {
          "internalType": "enum DataTypes.Provider",
          "name": "provider_",
          "type": "uint8"
        },
        {
          "internalType": "address",
          "name": "tokenIn_",
          "type": "address"
        },
        {
          "internalType": "address",
          "name": "tokenOut_",
          "type": "address"
        },
        {
          "internalType": "uint256",
          "name": "amountIn_",
          "type": "uint256"
        }
      ],
      "name": "quote",
      "outputs": [
        {
          "internalType": "uint256",
          "name": "_amountOut",
          "type": "uint256"
        },
        {
          "internalType": "uint256",
          "name": "_lastUpdatedAt",
          "type": "uint256"
        }
      ],
      "stateMutability": "view",
      "type": "function"
    },
    {
      "inputs": [
        {
          "internalType": "enum DataTypes.Provider",
          "name": "providerIn_",
          "type": "uint8"
        },
        {
          "internalType": "address",
          "name": "tokenIn_",
          "type": "address"
        },
        {
          "internalType": "enum DataTypes.Provider",
          "name": "providerOut_",
          "type": "uint8"
        },
        {
          "internalType": "address",
          "name": "tokenOut_",
          "type": "address"
        },
        {
          "internalType": "uint256",
          "name": "amountIn_",
          "type": "uint256"
        }
      ],
      "name": "quote",
      "outputs": [
        {
          "internalType": "uint256",
          "name": "_amountOut",
          "type": "uint256"
        },
        {
          "internalType": "uint256",
          "name": "_lastUpdatedAt",
          "type": "uint256"
        }
      ],
      "stateMutability": "view",
      "type": "function"
    },
    {
      "inputs": [
        {
          "internalType": "enum DataTypes.Provider",
          "name": "provider_",
          "type": "uint8"
        },
        {
          "internalType": "address",
          "name": "token_",
          "type": "address"
        },
        {
          "internalType": "uint256",
          "name": "amountIn_",
          "type": "uint256"
        }
      ],
      "name": "quoteTokenToUsd",
      "outputs": [
        {
          "internalType": "uint256",
          "name": "amountOut_",
          "type": "uint256"
        },
        {
          "internalType": "uint256",
          "name": "_lastUpdatedAt",
          "type": "uint256"
        }
      ],
      "stateMutability": "view",
      "type": "function"
    },
    {
      "inputs": [
        {
          "internalType": "enum DataTypes.Provider",
          "name": "provider_",
          "type": "uint8"
        },
        {
          "internalType": "address",
          "name": "token_",
          "type": "address"
        },
        {
          "internalType": "uint256",
          "name": "amountIn_",
          "type": "uint256"
        }
      ],
      "name": "quoteUsdToToken",
      "outputs": [
        {
          "internalType": "uint256",
          "name": "_amountOut",
          "type": "uint256"
        },
        {
          "internalType": "uint256",
          "name": "_lastUpdatedAt",
          "type": "uint256"
        }
      ],
      "stateMutability": "view",
      "type": "function"
    },
    {
      "inputs": [
        {
          "internalType": "enum DataTypes.Provider",
          "name": "provider_",
          "type": "uint8"
        },
        {
          "internalType": "contract IPriceProvider",
          "name": "priceProvider_",
          "type": "address"
        }
      ],
      "name": "setPriceProvider",
      "outputs": [],
      "stateMutability": "nonpayable",
      "type": "function"
    }
  ],
  "transactionHash": "0x23c2052ed44c3980f4c23a0ea2583fce92c830ed5b570645a2775dbb8aca089d",
  "args": [
    "0xC02aaA39b223FE8D0A0e5C4F27eAD9083C756Cc2"
  ],
  "numDeployments": 2,
  "solcInputHash": "8b654c506c10a4071125075f82070c93",
  "bytecode": "0x60a060405234801561001057600080fd5b5060405161110638038061110683398101604081905261002f9161009a565b6001600160a01b0381166100895760405162461bcd60e51b815260206004820152601460248201527f6e61746976652d746f6b656e2d69732d6e756c6c000000000000000000000000604482015260640160405180910390fd5b6001600160a01b03166080526100ca565b6000602082840312156100ac57600080fd5b81516001600160a01b03811681146100c357600080fd5b9392505050565b6080516110136100f3600039600081816101b1015281816109b20152610a7701526110136000f3fe608060405234801561001057600080fd5b50600436106100a35760003560e01c8063769e8e3f11610076578063828509481161005b5780638285094814610163578063c6222eba14610176578063e1758bd8146101ac57600080fd5b8063769e8e3f1461013d578063777f1be91461015057600080fd5b8063037c696a146100a85780630fd01228146100d55780632954018c146100ea5780632b041e3a1461012a575b600080fd5b6100bb6100b6366004610dc7565b6101d3565b604080519283526020830191909152015b60405180910390f35b6100e86100e3366004610e16565b610334565b005b61010573fba0816a81bcabbf3829bed28618177a2bf0e82a81565b60405173ffffffffffffffffffffffffffffffffffffffff90911681526020016100cc565b6100bb610138366004610e4d565b6105f9565b6100bb61014b366004610e8c565b61074d565b6100bb61015e366004610e4d565b610b2f565b6100bb610171366004610e16565b610c2b565b610105610184366004610eec565b60006020819052908152604090205473ffffffffffffffffffffffffffffffffffffffff1681565b6101057f000000000000000000000000000000000000000000000000000000000000000081565b600080600080600088600a8111156101ed576101ed610f07565b600a8111156101fe576101fe610f07565b815260208101919091526040016000205473ffffffffffffffffffffffffffffffffffffffff169050806102795760405162461bcd60e51b815260206004820152601060248201527f70726f76696465722d6e6f742d7365740000000000000000000000000000000060448201526064015b60405180910390fd5b6040517fb646638400000000000000000000000000000000000000000000000000000000815273ffffffffffffffffffffffffffffffffffffffff878116600483015286811660248301526044820186905282169063b646638490606401604080518083038186803b1580156102ee57600080fd5b505afa158015610302573d6000803e3d6000fd5b505050506040513d601f19601f820116820180604052508101906103269190610f36565b925092505094509492505050565b73fba0816a81bcabbf3829bed28618177a2bf0e82a73ffffffffffffffffffffffffffffffffffffffff16630c340a246040518163ffffffff1660e01b815260040160206040518083038186803b15801561038e57600080fd5b505afa1580156103a2573d6000803e3d6000fd5b505050506040513d601f19601f820116820180604052508101906103c69190610f5a565b73ffffffffffffffffffffffffffffffffffffffff163373ffffffffffffffffffffffffffffffffffffffff16146104405760405162461bcd60e51b815260206004820152600c60248201527f6e6f742d676f7665726e6f7200000000000000000000000000000000000000006044820152606401610270565b600082600a81111561045457610454610f07565b14156104a25760405162461bcd60e51b815260206004820152601060248201527f696e76616c69642d70726f7669646572000000000000000000000000000000006044820152606401610270565b600080600084600a8111156104b9576104b9610f07565b600a8111156104ca576104ca610f07565b815260208101919091526040016000205473ffffffffffffffffffffffffffffffffffffffff908116915082168114156105465760405162461bcd60e51b815260206004820152600f60248201527f73616d652d61732d63757272656e7400000000000000000000000000000000006044820152606401610270565b7f6d8522a73cf263ee8c1097d5bd32695416c18e9df8cfc47b646f465297177f8e83828460405161057993929190610f77565b60405180910390a18160008085600a81111561059757610597610f07565b600a8111156105a8576105a8610f07565b815260200190815260200160002060006101000a81548173ffffffffffffffffffffffffffffffffffffffff021916908373ffffffffffffffffffffffffffffffffffffffff160217905550505050565b600080600080600087600a81111561061357610613610f07565b600a81111561062457610624610f07565b815260208101919091526040016000205473ffffffffffffffffffffffffffffffffffffffff1690508061069a5760405162461bcd60e51b815260206004820152601060248201527f70726f76696465722d6e6f742d736574000000000000000000000000000000006044820152606401610270565b6040517f8d0dba0000000000000000000000000000000000000000000000000000000000815273ffffffffffffffffffffffffffffffffffffffff868116600483015260248201869052821690638d0dba00906044015b604080518083038186803b15801561070857600080fd5b505afa15801561071c573d6000803e3d6000fd5b505050506040513d601f19601f820116820180604052508101906107409190610f36565b9250925050935093915050565b600080600080600089600a81111561076757610767610f07565b600a81111561077857610778610f07565b815260208101919091526040016000205473ffffffffffffffffffffffffffffffffffffffff169050806107ee5760405162461bcd60e51b815260206004820152601360248201527f70726f76696465722d696e2d6e6f742d736574000000000000000000000000006044820152606401610270565b85600a81111561080057610800610f07565b88600a81111561081257610812610f07565b14156108cf576040517fb646638400000000000000000000000000000000000000000000000000000000815273ffffffffffffffffffffffffffffffffffffffff888116600483015286811660248301526044820186905282169063b646638490606401604080518083038186803b15801561088d57600080fd5b505afa1580156108a1573d6000803e3d6000fd5b505050506040513d601f19601f820116820180604052508101906108c59190610f36565b9250925050610b25565b600080600088600a8111156108e6576108e6610f07565b600a8111156108f7576108f7610f07565b815260208101919091526040016000205473ffffffffffffffffffffffffffffffffffffffff1690508061096d5760405162461bcd60e51b815260206004820152601460248201527f70726f76696465722d6f75742d6e6f742d7365740000000000000000000000006044820152606401610270565b6040517fb646638400000000000000000000000000000000000000000000000000000000815273ffffffffffffffffffffffffffffffffffffffff89811660048301527f0000000000000000000000000000000000000000000000000000000000000000811660248301526044820187905283169063b646638490606401604080518083038186803b158015610a0257600080fd5b505afa158015610a16573d6000803e3d6000fd5b505050506040513d601f19601f82011682018060405250810190610a3a9190610f36565b6040517fb646638400000000000000000000000000000000000000000000000000000000815273ffffffffffffffffffffffffffffffffffffffff7f00000000000000000000000000000000000000000000000000000000000000008116600483015289811660248301526044820184905292965090945060009183169063b646638490606401604080518083038186803b158015610ad857600080fd5b505afa158015610aec573d6000803e3d6000fd5b505050506040513d601f19601f82011682018060405250810190610b109190610f36565b9095509050610b1f8185610d76565b93505050505b9550959350505050565b600080600080600087600a811115610b4957610b49610f07565b600a811115610b5a57610b5a610f07565b815260208101919091526040016000205473ffffffffffffffffffffffffffffffffffffffff16905080610bd05760405162461bcd60e51b815260206004820152601060248201527f70726f76696465722d6e6f742d736574000000000000000000000000000000006044820152606401610270565b6040517fb5e9bef500000000000000000000000000000000000000000000000000000000815273ffffffffffffffffffffffffffffffffffffffff86811660048301526024820186905282169063b5e9bef5906044016106f1565b600080600080600086600a811115610c4557610c45610f07565b600a811115610c5657610c56610f07565b815260208101919091526040016000205473ffffffffffffffffffffffffffffffffffffffff16905080610ccc5760405162461bcd60e51b815260206004820152601060248201527f70726f76696465722d6e6f742d736574000000000000000000000000000000006044820152606401610270565b6040517f07ee40bf00000000000000000000000000000000000000000000000000000000815273ffffffffffffffffffffffffffffffffffffffff85811660048301528216906307ee40bf90602401604080518083038186803b158015610d3257600080fd5b505afa158015610d46573d6000803e3d6000fd5b505050506040513d601f19601f82011682018060405250810190610d6a9190610f36565b92509250509250929050565b6000818310610d855781610d87565b825b9392505050565b8035600b8110610d9d57600080fd5b919050565b73ffffffffffffffffffffffffffffffffffffffff81168114610dc457600080fd5b50565b60008060008060808587031215610ddd57600080fd5b610de685610d8e565b93506020850135610df681610da2565b92506040850135610e0681610da2565b9396929550929360600135925050565b60008060408385031215610e2957600080fd5b610e3283610d8e565b91506020830135610e4281610da2565b809150509250929050565b600080600060608486031215610e6257600080fd5b610e6b84610d8e565b92506020840135610e7b81610da2565b929592945050506040919091013590565b600080600080600060a08688031215610ea457600080fd5b610ead86610d8e565b94506020860135610ebd81610da2565b9350610ecb60408701610d8e565b92506060860135610edb81610da2565b949793965091946080013592915050565b600060208284031215610efe57600080fd5b610d8782610d8e565b7f4e487b7100000000000000000000000000000000000000000000000000000000600052602160045260246000fd5b60008060408385031215610f4957600080fd5b505080516020909101519092909150565b600060208284031215610f6c57600080fd5b8151610d8781610da2565b60608101600b8510610fb2577f4e487b7100000000000000000000000000000000000000000000000000000000600052602160045260246000fd5b93815273ffffffffffffffffffffffffffffffffffffffff928316602082015291166040909101529056fea2646970667358221220217f418cb0c701e4ffcd868cf659dbb027b09edc5b12faa3f73d776f754ede4564736f6c63430008090033",
  "devdoc": {
    "kind": "dev",
    "methods": {
      "getPriceInUsd(uint8,address)": {
        "params": {
          "provider_": "The price provider to get quote from",
          "token_": "The address of asset"
        },
        "returns": {
          "_lastUpdatedAt": "Last updated timestamp",
          "_priceInUsd": "The USD price"
        }
      },
      "quote(uint8,address,address,uint256)": {
        "params": {
          "amountIn_": "Amount of input token",
          "provider_": "The price provider to get quote from",
          "tokenIn_": "The address of assetIn",
          "tokenOut_": "The address of assetOut"
        },
        "returns": {
          "_amountOut": "Amount out",
          "_lastUpdatedAt": "Last updated timestamp"
        }
      },
      "quote(uint8,address,uint8,address,uint256)": {
        "details": "If providers aren't the same, uses native token as \"bridge\"",
        "params": {
          "amountIn_": "Amount of input token",
          "providerIn_": "The price provider to get quote for the tokenIn",
          "providerOut_": "The price provider to get quote for the tokenOut",
          "tokenIn_": "The address of assetIn",
          "tokenOut_": "The address of assetOut"
        },
        "returns": {
          "_amountOut": "Amount out",
          "_lastUpdatedAt": "Last updated timestamp"
        }
      },
      "quoteTokenToUsd(uint8,address,uint256)": {
        "params": {
          "amountIn_": "Amount of input token.",
          "provider_": "The price provider to get quote from",
          "token_": "The address of assetIn"
        },
        "returns": {
          "_lastUpdatedAt": "Last updated timestamp",
          "amountOut_": "Amount in USD"
        }
      },
      "quoteUsdToToken(uint8,address,uint256)": {
        "params": {
          "amountIn_": "Input amount in USD",
          "provider_": "The price provider to get quote from",
          "token_": "The address of assetOut"
        },
        "returns": {
          "_amountOut": "Output amount of token",
          "_lastUpdatedAt": "Last updated timestamp"
        }
      },
      "setPriceProvider(uint8,address)": {
        "details": "Administrative function",
        "params": {
          "priceProvider_": "The price provider contract",
          "provider_": "The provider (from enum)"
        }
      }
    },
    "stateVariables": {
      "nativeToken": {
        "details": "Is used when getting quote from two price providers"
      }
    },
    "title": "Price Providers Aggregator",
    "version": 1
  },
  "userdoc": {
    "events": {
      "PriceProviderUpdated(uint8,address,address)": {
        "notice": "Emitted when an price provider is updated"
      }
    },
    "kind": "user",
    "methods": {
      "getPriceInUsd(uint8,address)": {
        "notice": "Get USD (or equivalent) price of an asset"
      },
      "nativeToken()": {
        "notice": "The native token (usually the most liquid asset in the chain)"
      },
      "priceProviders(uint8)": {
        "notice": "Price providers map"
      },
      "quote(uint8,address,address,uint256)": {
        "notice": "Get quote"
      },
      "quote(uint8,address,uint8,address,uint256)": {
        "notice": "Get quote"
      },
      "quoteTokenToUsd(uint8,address,uint256)": {
        "notice": "Get quote in USD (or equivalent) amount"
      },
      "quoteUsdToToken(uint8,address,uint256)": {
        "notice": "Get quote from USD (or equivalent) amount to amount of token"
      },
      "setPriceProvider(uint8,address)": {
        "notice": "Set a price provider"
      }
    },
    "version": 1
  },
  "storageLayout": {
    "storage": [
      {
        "astId": 8282,
        "contract": "contracts/core/PriceProvidersAggregator.sol:PriceProvidersAggregator",
        "label": "priceProviders",
        "offset": 0,
        "slot": "0",
        "type": "t_mapping(t_enum(Provider)12995,t_contract(IPriceProvider)11656)"
      }
    ],
    "types": {
      "t_contract(IPriceProvider)11656": {
        "encoding": "inplace",
        "label": "contract IPriceProvider",
        "numberOfBytes": "20"
      },
      "t_enum(Provider)12995": {
        "encoding": "inplace",
        "label": "enum DataTypes.Provider",
        "numberOfBytes": "1"
      },
      "t_mapping(t_enum(Provider)12995,t_contract(IPriceProvider)11656)": {
        "encoding": "mapping",
        "key": "t_enum(Provider)12995",
        "label": "mapping(enum DataTypes.Provider => contract IPriceProvider)",
        "numberOfBytes": "32",
        "value": "t_contract(IPriceProvider)11656"
      }
    }
  }
}