{
  "address": "0x1f278B7EFf04ADd48Ff81ae1a01cBC178b3dD351",
  "abi": [
    {
      "inputs": [
        {
          "internalType": "contract IPriceProvider",
          "name": "provider_",
          "type": "address"
        }
      ],
      "stateMutability": "nonpayable",
      "type": "constructor"
    },
    {
      "inputs": [
        {
          "internalType": "address",
          "name": "token_",
          "type": "address"
        }
      ],
      "name": "getPriceInUsd",
      "outputs": [
        {
          "internalType": "uint256",
          "name": "_priceInUsd",
          "type": "uint256"
        }
      ],
      "stateMutability": "view",
      "type": "function"
    },
    {
      "inputs": [],
      "name": "provider",
      "outputs": [
        {
          "internalType": "contract IPriceProvider",
          "name": "",
          "type": "address"
        }
      ],
      "stateMutability": "view",
      "type": "function"
    },
    {
      "inputs": [
        {
          "internalType": "address",
          "name": "tokenIn_",
          "type": "address"
        },
        {
          "internalType": "address",
          "name": "tokenOut_",
          "type": "address"
        },
        {
          "internalType": "uint256",
          "name": "amountIn_",
          "type": "uint256"
        }
      ],
      "name": "quote",
      "outputs": [
        {
          "internalType": "uint256",
          "name": "_amountOut",
          "type": "uint256"
        }
      ],
      "stateMutability": "view",
      "type": "function"
    },
    {
      "inputs": [
        {
          "internalType": "address",
          "name": "token_",
          "type": "address"
        },
        {
          "internalType": "uint256",
          "name": "amountIn_",
          "type": "uint256"
        }
      ],
      "name": "quoteTokenToUsd",
      "outputs": [
        {
          "internalType": "uint256",
          "name": "_amountOut",
          "type": "uint256"
        }
      ],
      "stateMutability": "view",
      "type": "function"
    },
    {
      "inputs": [
        {
          "internalType": "address",
          "name": "token_",
          "type": "address"
        },
        {
          "internalType": "uint256",
          "name": "amountIn_",
          "type": "uint256"
        }
      ],
      "name": "quoteUsdToToken",
      "outputs": [
        {
          "internalType": "uint256",
          "name": "_amountOut",
          "type": "uint256"
        }
      ],
      "stateMutability": "view",
      "type": "function"
    }
  ],
  "transactionHash": "0x4a87a4095d1f925ba2eb0366fbbd83e52624bc3de22d4b244b308bf74e60700a",
  "args": [
    "0x7c2d5b1E7d7BE588389BDb94138cC37dC014e85c"
  ],
  "numDeployments": 1,
  "solcInputHash": "7cfc7c43f7a8c30044114d86312d782c",
  "bytecode": "0x60a060405234801561001057600080fd5b506040516105f13803806105f183398101604081905261002f91610040565b6001600160a01b0316608052610070565b60006020828403121561005257600080fd5b81516001600160a01b038116811461006957600080fd5b9392505050565b60805161054b6100a66000396000818160970152818161015f0152818161023001528181610303015261038b015261054b6000f3fe608060405234801561001057600080fd5b50600436106100675760003560e01c80638d0dba00116100505780638d0dba00146100de578063b5e9bef5146100f1578063b64663841461010457600080fd5b806307ee40bf1461006c578063085d488314610092575b600080fd5b61007f61007a36600461043b565b610117565b6040519081526020015b60405180910390f35b6100b97f000000000000000000000000000000000000000000000000000000000000000081565b60405173ffffffffffffffffffffffffffffffffffffffff9091168152602001610089565b61007f6100ec36600461045d565b6101e1565b61007f6100ff36600461045d565b6102b4565b61007f610112366004610487565b610334565b6040517f07ee40bf00000000000000000000000000000000000000000000000000000000815273ffffffffffffffffffffffffffffffffffffffff82811660048301526000917f0000000000000000000000000000000000000000000000000000000000000000909116906307ee40bf90602401604080518083038186803b1580156101a257600080fd5b505afa1580156101b6573d6000803e3d6000fd5b505050506040513d601f19601f820116820180604052508101906101da91906104c3565b5092915050565b6040517f8d0dba0000000000000000000000000000000000000000000000000000000000815273ffffffffffffffffffffffffffffffffffffffff8381166004830152602482018390526000917f000000000000000000000000000000000000000000000000000000000000000090911690638d0dba00906044015b604080518083038186803b15801561027457600080fd5b505afa158015610288573d6000803e3d6000fd5b505050506040513d601f19601f820116820180604052508101906102ac91906104c3565b509392505050565b6040517fb5e9bef500000000000000000000000000000000000000000000000000000000815273ffffffffffffffffffffffffffffffffffffffff8381166004830152602482018390526000917f00000000000000000000000000000000000000000000000000000000000000009091169063b5e9bef59060440161025d565b6040517fb646638400000000000000000000000000000000000000000000000000000000815273ffffffffffffffffffffffffffffffffffffffff84811660048301528381166024830152604482018390526000917f00000000000000000000000000000000000000000000000000000000000000009091169063b64663849060640160606040518083038186803b1580156103cf57600080fd5b505afa1580156103e3573d6000803e3d6000fd5b505050506040513d601f19601f8201168201806040525081019061040791906104e7565b509095945050505050565b803573ffffffffffffffffffffffffffffffffffffffff8116811461043657600080fd5b919050565b60006020828403121561044d57600080fd5b61045682610412565b9392505050565b6000806040838503121561047057600080fd5b61047983610412565b946020939093013593505050565b60008060006060848603121561049c57600080fd5b6104a584610412565b92506104b360208501610412565b9150604084013590509250925092565b600080604083850312156104d657600080fd5b505080516020909101519092909150565b6000806000606084860312156104fc57600080fd5b835192506020840151915060408401519050925092509256fea26469706673582212209d3c4733677a258d4652f1168a010972d80486ddf134a8284dc41d577f34b1e464736f6c63430008090033",
  "devdoc": {
    "details": "This is the same as `MainOracle` but without stale period check because pull-oracle providers already do that",
    "kind": "dev",
    "methods": {
      "getPriceInUsd(address)": {
        "params": {
          "token_": "The address of asset"
        },
        "returns": {
          "_priceInUsd": "The USD price"
        }
      },
      "quote(address,address,uint256)": {
        "params": {
          "amountIn_": "Amount of input token",
          "tokenIn_": "The address of assetIn",
          "tokenOut_": "The address of assetOut"
        },
        "returns": {
          "_amountOut": "Amount out"
        }
      },
      "quoteTokenToUsd(address,uint256)": {
        "params": {
          "amountIn_": "Amount of input token.",
          "token_": "The address of assetIn"
        },
        "returns": {
          "_amountOut": "Amount in USD"
        }
      },
      "quoteUsdToToken(address,uint256)": {
        "params": {
          "amountIn_": "Input amount in USD",
          "token_": "The address of assetOut"
        },
        "returns": {
          "_amountOut": "Output amount of token"
        }
      }
    },
    "title": "Pull oracle",
    "version": 1
  },
  "userdoc": {
    "kind": "user",
    "methods": {
      "getPriceInUsd(address)": {
        "notice": "Get USD (or equivalent) price of an asset"
      },
      "quote(address,address,uint256)": {
        "notice": "Get quote"
      },
      "quoteTokenToUsd(address,uint256)": {
        "notice": "Get quote in USD (or equivalent) amount"
      },
      "quoteUsdToToken(address,uint256)": {
        "notice": "Get quote from USD (or equivalent) amount to amount of token"
      }
    },
    "version": 1
  },
  "storageLayout": {
    "storage": [],
    "types": null
  }
}