{
  "address": "0x7c2d5b1E7d7BE588389BDb94138cC37dC014e85c",
  "abi": [
    {
      "inputs": [
        {
          "internalType": "contract IPyth",
          "name": "pyth_",
          "type": "address"
        }
      ],
      "stateMutability": "nonpayable",
      "type": "constructor"
    },
    {
      "anonymous": false,
      "inputs": [
        {
          "indexed": false,
          "internalType": "address",
          "name": "token",
          "type": "address"
        },
        {
          "indexed": false,
          "internalType": "bytes32",
          "name": "feedId",
          "type": "bytes32"
        }
      ],
      "name": "FeedIdUpdated",
      "type": "event"
    },
    {
      "inputs": [],
      "name": "USD_DECIMALS",
      "outputs": [
        {
          "internalType": "uint256",
          "name": "",
          "type": "uint256"
        }
      ],
      "stateMutability": "view",
      "type": "function"
    },
    {
      "inputs": [],
      "name": "addressProvider",
      "outputs": [
        {
          "internalType": "contract IAddressProvider",
          "name": "",
          "type": "address"
        }
      ],
      "stateMutability": "view",
      "type": "function"
    },
    {
      "inputs": [
        {
          "internalType": "address",
          "name": "",
          "type": "address"
        }
      ],
      "name": "feedIds",
      "outputs": [
        {
          "internalType": "bytes32",
          "name": "",
          "type": "bytes32"
        }
      ],
      "stateMutability": "view",
      "type": "function"
    },
    {
      "inputs": [
        {
          "internalType": "address",
          "name": "token_",
          "type": "address"
        }
      ],
      "name": "getPriceInUsd",
      "outputs": [
        {
          "internalType": "uint256",
          "name": "_priceInUsd",
          "type": "uint256"
        },
        {
          "internalType": "uint256",
          "name": "_lastUpdatedAt",
          "type": "uint256"
        }
      ],
      "stateMutability": "view",
      "type": "function"
    },
    {
      "inputs": [],
      "name": "pyth",
      "outputs": [
        {
          "internalType": "contract IPyth",
          "name": "",
          "type": "address"
        }
      ],
      "stateMutability": "view",
      "type": "function"
    },
    {
      "inputs": [
        {
          "internalType": "address",
          "name": "tokenIn_",
          "type": "address"
        },
        {
          "internalType": "address",
          "name": "tokenOut_",
          "type": "address"
        },
        {
          "internalType": "uint256",
          "name": "amountIn_",
          "type": "uint256"
        }
      ],
      "name": "quote",
      "outputs": [
        {
          "internalType": "uint256",
          "name": "_amountOut",
          "type": "uint256"
        },
        {
          "internalType": "uint256",
          "name": "_tokenInLastUpdatedAt",
          "type": "uint256"
        },
        {
          "internalType": "uint256",
          "name": "_tokenOutLastUpdatedAt",
          "type": "uint256"
        }
      ],
      "stateMutability": "view",
      "type": "function"
    },
    {
      "inputs": [
        {
          "internalType": "address",
          "name": "token_",
          "type": "address"
        },
        {
          "internalType": "uint256",
          "name": "amountIn_",
          "type": "uint256"
        }
      ],
      "name": "quoteTokenToUsd",
      "outputs": [
        {
          "internalType": "uint256",
          "name": "_amountOut",
          "type": "uint256"
        },
        {
          "internalType": "uint256",
          "name": "_lastUpdatedAt",
          "type": "uint256"
        }
      ],
      "stateMutability": "view",
      "type": "function"
    },
    {
      "inputs": [
        {
          "internalType": "address",
          "name": "token_",
          "type": "address"
        },
        {
          "internalType": "uint256",
          "name": "amountIn_",
          "type": "uint256"
        }
      ],
      "name": "quoteUsdToToken",
      "outputs": [
        {
          "internalType": "uint256",
          "name": "_amountOut",
          "type": "uint256"
        },
        {
          "internalType": "uint256",
          "name": "_lastUpdatedAt",
          "type": "uint256"
        }
      ],
      "stateMutability": "view",
      "type": "function"
    },
    {
      "inputs": [
        {
          "internalType": "address",
          "name": "token_",
          "type": "address"
        },
        {
          "internalType": "bytes32",
          "name": "feedId_",
          "type": "bytes32"
        }
      ],
      "name": "updateFeedId",
      "outputs": [],
      "stateMutability": "nonpayable",
      "type": "function"
    }
  ],
  "transactionHash": "0x4838f114931079be4bb1aee08a8eabf202e5ce043e8e7a725e26f3a8aa458246",
  "args": [
    "0x4305fb66699c3b2702d4d05cf36551390a4c69c6"
  ],
  "numDeployments": 1,
  "solcInputHash": "7cfc7c43f7a8c30044114d86312d782c",
  "bytecode": "0x60a060405234801561001057600080fd5b5060405161104638038061104683398101604081905261002f91610301565b6001600160a01b0316608052600060208190527feaa020c61cc479712813461ce153894a96a6c00b21ed0cfc2798d1f9a9e9c94a7fc6521c8ea4247e8beb499344e591b9401fb2807ff9997dd598fd9e56c73a264d557fb0948a5e5313200c632b51bb5ca32f6de0d36e9950a942d19751e833f70dabfd7f5306b8fbe80b30a74098357ee8e26fad8dc069da9011cca5f0870a0a5982e541557fff61491a931112ddf1bd8147cd1b641375f79f5825126d665480874634fd0ace7f2a11cb67ca5c7e99dba99b50e02c11472d0f19c22ed5af42a1599a7f57e1c7a48190557fbbb37e6ba3a71aaf85047b098c3624d29ee3743ab3cb47dbc57b9c82f031e069557fc3d5d8d6d17081b3d0bbca6e2fa3a6704bb9a9561d9f9e1dc52db47629f862ad7f27e997bcf7e34b5892c35718d72ca8a4d44f6f77265e19fe4feb6a8ebb16cc7b557fb2bb466ff5386a63c18aa7c3bc953cb540c755e2aa99dafb13bc4c177692bed07f309d92492c7f635f58f756695c94812586abca8aee21131e72d98c0b96a8da75557fa0255134973f4fdf2f8f7808354274a3b1ebc6ee438be898d045e8b56ba1fe137f01e31ce9e26a9ca5180dcb0a75e33e53ef4b11264df43624ffa093ce233c5f10557f846ae1bdb6300b817cee5fdee2a6da192775030db5615b94a465f53bd40850b57f77975c0a8ca35f51de27d519912827927b7f0a11d43bb3cc2d028db4340cc73a557fe62df6c8b4a85fe1a67db44dc12de5db330f7ac66b72dc658afedf0f4a415b437ff0b998666205e50af945dcd5198861491334a6162cc24264d9a801634ee07ec88190557fb3bbacab3ea2d1640c98911cd64c4f2df51ba268b012ed2f152ea449f69158875573be9895146f7af43049ca1c1ae358b0541ea4970490527f15ecddd26d49e1a8f1de9376ebebc03916ede873447c1255d2d5891b92ce57177f92b1303370d00ac37fc3bf1b6b90981e7ec7d961304389d4b4a33ff8350992b155610331565b60006020828403121561031357600080fd5b81516001600160a01b038116811461032a57600080fd5b9392505050565b608051610cf3610353600039600081816101b901526102870152610cf36000f3fe608060405234801561001057600080fd5b50600436106100a35760003560e01c80638d0dba0011610076578063b5e9bef51161005b578063b5e9bef514610173578063b646638414610186578063f98d06f0146101b457600080fd5b80638d0dba001461014b578063b00e95de1461015e57600080fd5b806307ee40bf146100a85780632954018c146100d55780632f6ee695146101155780635de379321461012b575b600080fd5b6100bb6100b636600461090f565b6101db565b604080519283526020830191909152015b60405180910390f35b6100f073fba0816a81bcabbf3829bed28618177a2bf0e82a81565b60405173ffffffffffffffffffffffffffffffffffffffff90911681526020016100cc565b61011d601281565b6040519081526020016100cc565b61011d61013936600461090f565b60006020819052908152604090205481565b6100bb610159366004610933565b61052e565b61017161016c366004610933565b6105eb565b005b6100bb610181366004610933565b6107bd565b61019961019436600461095f565b610867565b604080519384526020840192909252908201526060016100cc565b6100f07f000000000000000000000000000000000000000000000000000000000000000081565b73ffffffffffffffffffffffffffffffffffffffff81166000908152602081905260408120548190806102555760405162461bcd60e51b815260206004820152601660248201527f746f6b656e2d776974686f75742d666565642d6964730000000000000000000060448201526064015b60405180910390fd5b6040517f96834ad3000000000000000000000000000000000000000000000000000000008152600481018290526000907f000000000000000000000000000000000000000000000000000000000000000073ffffffffffffffffffffffffffffffffffffffff16906396834ad39060240160806040518083038186803b1580156102de57600080fd5b505afa1580156102f2573d6000803e3d6000fd5b505050506040513d601f19601f8201168201806040525081019061031691906109cf565b9050428160600151101561038457603c8160600151426103369190610aa7565b11156103845760405162461bcd60e51b815260206004820152601060248201527f70726963652d746f6f2d626568696e6400000000000000000000000000000000604482015260640161024c565b42816060015111156103f057603c4282606001516103a29190610aa7565b11156103f05760405162461bcd60e51b815260206004820152600f60248201527f70726963652d746f6f2d61686561640000000000000000000000000000000000604482015260640161024c565b6000816000015160070b136104475760405162461bcd60e51b815260206004820152601660248201527f70726963652d6e656761746976652d6f722d7a65726f00000000000000000000604482015260640161024c565b7fffffffffffffffffffffffffffffffffffffffffffffffffffffffffffffffee816040015160030b1215801561048657506000816040015160030b13155b6104d25760405162461bcd60e51b815260206004820152600c60248201527f696e76616c69642d6578706f0000000000000000000000000000000000000000604482015260640161024c565b60006104f0826040015160126104e89190610abe565b60030b610894565b6104fb90600a610c08565b9050600081610510846000015160070b610894565b61051a9190610c14565b606090930151929792965091945050505050565b600080600061053c856101db565b80935081925050508473ffffffffffffffffffffffffffffffffffffffff1663313ce5676040518163ffffffff1660e01b815260040160206040518083038186803b15801561058a57600080fd5b505afa15801561059e573d6000803e3d6000fd5b505050506040513d601f19601f820116820180604052508101906105c29190610c33565b6105cd90600a610c56565b6105d78286610c14565b6105e19190610c65565b9250509250929050565b73fba0816a81bcabbf3829bed28618177a2bf0e82a73ffffffffffffffffffffffffffffffffffffffff16630c340a246040518163ffffffff1660e01b815260040160206040518083038186803b15801561064557600080fd5b505afa158015610659573d6000803e3d6000fd5b505050506040513d601f19601f8201168201806040525081019061067d9190610ca0565b73ffffffffffffffffffffffffffffffffffffffff163373ffffffffffffffffffffffffffffffffffffffff16146106f75760405162461bcd60e51b815260206004820152600c60248201527f6e6f742d676f7665726e6f720000000000000000000000000000000000000000604482015260640161024c565b73ffffffffffffffffffffffffffffffffffffffff821661075a5760405162461bcd60e51b815260206004820152600d60248201527f746f6b656e2d69732d6e756c6c00000000000000000000000000000000000000604482015260640161024c565b73ffffffffffffffffffffffffffffffffffffffff821660008181526020818152604091829020849055815192835282018390527f380f40e2043f47beba35d7dc843f21c023004811c237606be3dbd7f0234f45f3910160405180910390a15050565b60008060006107cb856101db565b8093508192505050808573ffffffffffffffffffffffffffffffffffffffff1663313ce5676040518163ffffffff1660e01b815260040160206040518083038186803b15801561081a57600080fd5b505afa15801561082e573d6000803e3d6000fd5b505050506040513d601f19601f820116820180604052508101906108529190610c33565b61085d90600a610c56565b6105d79086610c14565b600080600080610877878661052e565b9350905061088586826107bd565b90989397509550919350505050565b6000808212156108e65760405162461bcd60e51b815260206004820181905260248201527f53616665436173743a2076616c7565206d75737420626520706f736974697665604482015260640161024c565b5090565b73ffffffffffffffffffffffffffffffffffffffff8116811461090c57600080fd5b50565b60006020828403121561092157600080fd5b813561092c816108ea565b9392505050565b6000806040838503121561094657600080fd5b8235610951816108ea565b946020939093013593505050565b60008060006060848603121561097457600080fd5b833561097f816108ea565b9250602084013561098f816108ea565b929592945050506040919091013590565b805167ffffffffffffffff811681146109b857600080fd5b919050565b8051600381900b81146109b857600080fd5b6000608082840312156109e157600080fd5b6040516080810181811067ffffffffffffffff82111715610a2b577f4e487b7100000000000000000000000000000000000000000000000000000000600052604160045260246000fd5b6040528251600781900b8114610a4057600080fd5b8152610a4e602084016109a0565b6020820152610a5f604084016109bd565b6040820152606083015160608201528091505092915050565b7f4e487b7100000000000000000000000000000000000000000000000000000000600052601160045260246000fd5b600082821015610ab957610ab9610a78565b500390565b60008160030b8360030b6000821282637fffffff03821381151615610ae557610ae5610a78565b827fffffffffffffffffffffffffffffffffffffffffffffffffffffffff80000000038212811615610b1957610b19610a78565b50019392505050565b600181815b80851115610b5d578160001904821115610b4357610b43610a78565b80851615610b5057918102915b93841c9390800290610b27565b509250929050565b600082610b7457506001610c02565b81610b8157506000610c02565b8160018114610b975760028114610ba157610bbd565b6001915050610c02565b60ff841115610bb257610bb2610a78565b50506001821b610c02565b5060208310610133831016604e8410600b8410161715610be0575081810a610c02565b610bea8383610b22565b8060001904821115610bfe57610bfe610a78565b0290505b92915050565b600061092c8383610b65565b6000816000190483118215151615610c2e57610c2e610a78565b500290565b600060208284031215610c4557600080fd5b815160ff8116811461092c57600080fd5b600061092c60ff841683610b65565b600082610c9b577f4e487b7100000000000000000000000000000000000000000000000000000000600052601260045260246000fd5b500490565b600060208284031215610cb257600080fd5b815161092c816108ea56fea26469706673582212205d12ecca87e2e40fcffdcd4e3c40a89425b03bb98462e289b3abda6d93c9fdb364736f6c63430008090033",
  "devdoc": {
    "kind": "dev",
    "methods": {
      "getPriceInUsd(address)": {
        "params": {
          "token_": "The address of asset"
        },
        "returns": {
          "_lastUpdatedAt": "Last updated timestamp",
          "_priceInUsd": "The USD price"
        }
      },
      "quote(address,address,uint256)": {
        "params": {
          "amountIn_": "Amount of input token",
          "tokenIn_": "The address of assetIn",
          "tokenOut_": "The address of assetOut"
        },
        "returns": {
          "_amountOut": "Amount out",
          "_tokenInLastUpdatedAt": "Last updated timestamp of `tokenIn_`",
          "_tokenOutLastUpdatedAt": "Last updated timestamp of `tokenOut_`"
        }
      },
      "quoteTokenToUsd(address,uint256)": {
        "params": {
          "amountIn_": "Amount of input token.",
          "token_": "The address of assetIn"
        },
        "returns": {
          "_amountOut": "Amount in USD",
          "_lastUpdatedAt": "Last updated timestamp"
        }
      },
      "quoteUsdToToken(address,uint256)": {
        "params": {
          "amountIn_": "Input amount in USD",
          "token_": "The address of assetOut"
        },
        "returns": {
          "_amountOut": "Output amount of token",
          "_lastUpdatedAt": "Last updated timestamp"
        }
      }
    },
    "title": "Pyth's price provider with Mainnet pre-setup",
    "version": 1
  },
  "userdoc": {
    "events": {
      "FeedIdUpdated(address,bytes32)": {
        "notice": "Emitted when an aggregator is updated"
      }
    },
    "kind": "user",
    "methods": {
      "feedIds(address)": {
        "notice": "Feed ids map (token => feedId)"
      },
      "getPriceInUsd(address)": {
        "notice": "Get USD (or equivalent) price of an asset"
      },
      "pyth()": {
        "notice": "Pyth main contract"
      },
      "quote(address,address,uint256)": {
        "notice": "Get quote"
      },
      "quoteTokenToUsd(address,uint256)": {
        "notice": "Get quote in USD (or equivalent) amount"
      },
      "quoteUsdToToken(address,uint256)": {
        "notice": "Get quote from USD (or equivalent) amount to amount of token"
      },
      "updateFeedId(address,bytes32)": {
        "notice": "Update token's feed id"
      }
    },
    "version": 1
  },
  "storageLayout": {
    "storage": [
      {
        "astId": 9175,
        "contract": "contracts/core/PythMainnetPriceProvider.sol:PythMainnetPriceProvider",
        "label": "feedIds",
        "offset": 0,
        "slot": "0",
        "type": "t_mapping(t_address,t_bytes32)"
      }
    ],
    "types": {
      "t_address": {
        "encoding": "inplace",
        "label": "address",
        "numberOfBytes": "20"
      },
      "t_bytes32": {
        "encoding": "inplace",
        "label": "bytes32",
        "numberOfBytes": "32"
      },
      "t_mapping(t_address,t_bytes32)": {
        "encoding": "mapping",
        "key": "t_address",
        "label": "mapping(address => bytes32)",
        "numberOfBytes": "32",
        "value": "t_bytes32"
      }
    }
  }
}