{
  "address": "0x9cfdADaEfCA0052A04AF5695E40829A62f4B0559",
  "abi": [
    {
      "inputs": [],
      "name": "ETH_FRXETH_CURVE_POOL",
      "outputs": [
        {
          "internalType": "contract IFrxEthStableSwap",
          "name": "",
          "type": "address"
        }
      ],
      "stateMutability": "view",
      "type": "function"
    },
    {
      "inputs": [],
      "name": "MAX_FRXETH_PRICE",
      "outputs": [
        {
          "internalType": "uint256",
          "name": "",
          "type": "uint256"
        }
      ],
      "stateMutability": "view",
      "type": "function"
    },
    {
      "inputs": [],
      "name": "MIN_FRXETH_PRICE",
      "outputs": [
        {
          "internalType": "uint256",
          "name": "",
          "type": "uint256"
        }
      ],
      "stateMutability": "view",
      "type": "function"
    },
    {
      "inputs": [],
      "name": "SFRXETH",
      "outputs": [
        {
          "internalType": "contract ISFrxEth",
          "name": "",
          "type": "address"
        }
      ],
      "stateMutability": "view",
      "type": "function"
    },
    {
      "inputs": [],
      "name": "WETH",
      "outputs": [
        {
          "internalType": "address",
          "name": "",
          "type": "address"
        }
      ],
      "stateMutability": "view",
      "type": "function"
    },
    {
      "inputs": [
        {
          "internalType": "address",
          "name": "",
          "type": "address"
        }
      ],
      "name": "getPriceInUsd",
      "outputs": [
        {
          "internalType": "uint256",
          "name": "_priceInUsd",
          "type": "uint256"
        }
      ],
      "stateMutability": "view",
      "type": "function"
    }
  ],
  "transactionHash": "0x712b28edc2a96cc977012bb9738b006c43106cdcebdec946dd15700253bb770b",
  "args": [],
  "numDeployments": 1,
  "solcInputHash": "6560b70d562cf6c2a7aadabeef5e4dc6",
  "bytecode": "0x608060405234801561001057600080fd5b50610498806100206000396000f3fe608060405234801561001057600080fd5b50600436106100725760003560e01c80636547fcde116100505780636547fcde146100f8578063ad5c464814610107578063d730e3d11461012257600080fd5b806307ee40bf1461007757806335da603d1461009d5780633c4f3f06146100dd575b600080fd5b61008a61008536600461036d565b610131565b6040519081526020015b60405180910390f35b6100b873ac3e018457b222d93114458476f3e3416abbe38f81565b60405173ffffffffffffffffffffffffffffffffffffffff9091168152602001610094565b6100b873a1f8a6807c402e4a15ef4eba36528a3fed24e57781565b61008a670c7d713b49da000081565b6100b873c02aaa39b223fe8d0a0e5c4f27ead9083c756cc281565b61008a670de0b6b3a764000081565b6040517f07ee40bf00000000000000000000000000000000000000000000000000000000815273c02aaa39b223fe8d0a0e5c4f27ead9083c756cc26004820152600090819033906307ee40bf9060240160206040518083038186803b15801561019957600080fd5b505afa1580156101ad573d6000803e3d6000fd5b505050506040513d601f19601f820116820180604052508101906101d191906103aa565b9050600073a1f8a6807c402e4a15ef4eba36528a3fed24e57773ffffffffffffffffffffffffffffffffffffffff166386fc88d36040518163ffffffff1660e01b815260040160206040518083038186803b15801561022f57600080fd5b505afa158015610243573d6000803e3d6000fd5b505050506040513d601f19601f8201168201806040525081019061026791906103aa565b9050670de0b6b3a76400008111156102885750670de0b6b3a76400006102a3565b670c7d713b49da00008110156102a35750670c7d713b49da00005b6ec097ce7bc90715b34b9f1000000000828273ac3e018457b222d93114458476f3e3416abbe38f73ffffffffffffffffffffffffffffffffffffffff166399530b066040518163ffffffff1660e01b815260040160206040518083038186803b15801561030f57600080fd5b505afa158015610323573d6000803e3d6000fd5b505050506040513d601f19601f8201168201806040525081019061034791906103aa565b61035191906103c3565b61035b91906103c3565b6103659190610427565b949350505050565b60006020828403121561037f57600080fd5b813573ffffffffffffffffffffffffffffffffffffffff811681146103a357600080fd5b9392505050565b6000602082840312156103bc57600080fd5b5051919050565b6000817fffffffffffffffffffffffffffffffffffffffffffffffffffffffffffffffff0483118215151615610422577f4e487b7100000000000000000000000000000000000000000000000000000000600052601160045260246000fd5b500290565b60008261045d577f4e487b7100000000000000000000000000000000000000000000000000000000600052601260045260246000fd5b50049056fea264697066735822122030b1cc0c73bbfba75bf2f1c336ab5d24ac030b91d7b9878ee8f15b635a611ef764736f6c63430008090033",
  "devdoc": {
    "details": "Based on https://etherscan.deth.net/address/0x27942aFe4EcB7F9945168094e0749CAC749aC97B#code",
    "kind": "dev",
    "methods": {
      "getPriceInUsd(address)": {
        "params": {
          "token_": "The address of asset"
        },
        "returns": {
          "_priceInUsd": "The USD price"
        }
      }
    },
    "title": "Oracle for `sFraxEthToken`",
    "version": 1
  },
  "userdoc": {
    "kind": "user",
    "methods": {
      "getPriceInUsd(address)": {
        "notice": "Get USD (or equivalent) price of an asset"
      }
    },
    "version": 1
  },
  "storageLayout": {
    "storage": [],
    "types": null
  }
}