{
  "address": "0xfd5216426B516008137E9b7Ec33D2B0931690773",
  "abi": [
    {
      "inputs": [
        {
          "internalType": "address",
          "name": "primaryStableCoin_",
          "type": "address"
        },
        {
          "internalType": "address",
          "name": "secondaryStableCoin_",
          "type": "address"
        },
        {
          "internalType": "uint256",
          "name": "stalePeriod_",
          "type": "uint256"
        },
        {
          "internalType": "uint256",
          "name": "maxDeviation_",
          "type": "uint256"
        }
      ],
      "stateMutability": "nonpayable",
      "type": "constructor"
    },
    {
      "anonymous": false,
      "inputs": [
        {
          "indexed": false,
          "internalType": "address",
          "name": "token",
          "type": "address"
        },
        {
          "indexed": false,
          "internalType": "uint256",
          "name": "oldStalePeriod",
          "type": "uint256"
        },
        {
          "indexed": false,
          "internalType": "uint256",
          "name": "newStalePeriod",
          "type": "uint256"
        }
      ],
      "name": "CustomStalePeriodUpdated",
      "type": "event"
    },
    {
      "anonymous": false,
      "inputs": [
        {
          "indexed": false,
          "internalType": "uint256",
          "name": "oldStalePeriod",
          "type": "uint256"
        },
        {
          "indexed": false,
          "internalType": "uint256",
          "name": "newStalePeriod",
          "type": "uint256"
        }
      ],
      "name": "DefaultStalePeriodUpdated",
      "type": "event"
    },
    {
      "anonymous": false,
      "inputs": [
        {
          "indexed": false,
          "internalType": "uint256",
          "name": "oldMaxDeviation",
          "type": "uint256"
        },
        {
          "indexed": false,
          "internalType": "uint256",
          "name": "newMaxDeviation",
          "type": "uint256"
        }
      ],
      "name": "MaxDeviationUpdated",
      "type": "event"
    },
    {
      "anonymous": false,
      "inputs": [
        {
          "indexed": false,
          "internalType": "address",
          "name": "oldPrimaryStableCoin",
          "type": "address"
        },
        {
          "indexed": false,
          "internalType": "address",
          "name": "oldSecondaryStableCoin",
          "type": "address"
        },
        {
          "indexed": false,
          "internalType": "address",
          "name": "newPrimaryStableCoin",
          "type": "address"
        },
        {
          "indexed": false,
          "internalType": "address",
          "name": "newSecondaryStableCoin",
          "type": "address"
        }
      ],
      "name": "StableCoinsUpdated",
      "type": "event"
    },
    {
      "inputs": [],
      "name": "ONE_USD",
      "outputs": [
        {
          "internalType": "uint256",
          "name": "",
          "type": "uint256"
        }
      ],
      "stateMutability": "view",
      "type": "function"
    },
    {
      "inputs": [],
      "name": "USD_DECIMALS",
      "outputs": [
        {
          "internalType": "uint256",
          "name": "",
          "type": "uint256"
        }
      ],
      "stateMutability": "view",
      "type": "function"
    },
    {
      "inputs": [],
      "name": "addressProvider",
      "outputs": [
        {
          "internalType": "contract IAddressProvider",
          "name": "",
          "type": "address"
        }
      ],
      "stateMutability": "view",
      "type": "function"
    },
    {
      "inputs": [],
      "name": "defaultStalePeriod",
      "outputs": [
        {
          "internalType": "uint256",
          "name": "",
          "type": "uint256"
        }
      ],
      "stateMutability": "view",
      "type": "function"
    },
    {
      "inputs": [],
      "name": "getStableCoinIfPegged",
      "outputs": [
        {
          "internalType": "address",
          "name": "_stableCoin",
          "type": "address"
        }
      ],
      "stateMutability": "view",
      "type": "function"
    },
    {
      "inputs": [],
      "name": "maxDeviation",
      "outputs": [
        {
          "internalType": "uint256",
          "name": "",
          "type": "uint256"
        }
      ],
      "stateMutability": "view",
      "type": "function"
    },
    {
      "inputs": [],
      "name": "primaryStableCoin",
      "outputs": [
        {
          "internalType": "address",
          "name": "",
          "type": "address"
        }
      ],
      "stateMutability": "view",
      "type": "function"
    },
    {
      "inputs": [],
      "name": "secondaryStableCoin",
      "outputs": [
        {
          "internalType": "address",
          "name": "",
          "type": "address"
        }
      ],
      "stateMutability": "view",
      "type": "function"
    },
    {
      "inputs": [
        {
          "internalType": "address",
          "name": "token_",
          "type": "address"
        }
      ],
      "name": "stalePeriodOf",
      "outputs": [
        {
          "internalType": "uint256",
          "name": "_stalePeriod",
          "type": "uint256"
        }
      ],
      "stateMutability": "view",
      "type": "function"
    },
    {
      "inputs": [
        {
          "internalType": "uint256",
          "name": "stableCoinAmount_",
          "type": "uint256"
        }
      ],
      "name": "toUsdRepresentation",
      "outputs": [
        {
          "internalType": "uint256",
          "name": "_usdAmount",
          "type": "uint256"
        }
      ],
      "stateMutability": "view",
      "type": "function"
    },
    {
      "inputs": [
        {
          "internalType": "address",
          "name": "token_",
          "type": "address"
        },
        {
          "internalType": "uint256",
          "name": "stalePeriod_",
          "type": "uint256"
        }
      ],
      "name": "updateCustomStalePeriod",
      "outputs": [],
      "stateMutability": "nonpayable",
      "type": "function"
    },
    {
      "inputs": [
        {
          "internalType": "uint256",
          "name": "stalePeriod_",
          "type": "uint256"
        }
      ],
      "name": "updateDefaultStalePeriod",
      "outputs": [],
      "stateMutability": "nonpayable",
      "type": "function"
    },
    {
      "inputs": [
        {
          "internalType": "uint256",
          "name": "maxDeviation_",
          "type": "uint256"
        }
      ],
      "name": "updateMaxDeviation",
      "outputs": [],
      "stateMutability": "nonpayable",
      "type": "function"
    },
    {
      "inputs": [
        {
          "internalType": "address",
          "name": "primaryStableCoin_",
          "type": "address"
        },
        {
          "internalType": "address",
          "name": "secondaryStableCoin_",
          "type": "address"
        }
      ],
      "name": "updateStableCoins",
      "outputs": [],
      "stateMutability": "nonpayable",
      "type": "function"
    }
  ],
  "transactionHash": "0x508c6580d730ab202c57d81296f4a4f6e00f4d8d1ac849ca0e61be4169765d5f",
  "args": [
    "0xA0b86991c6218b36c1d19D4a2e9Eb0cE3606eB48",
    "0x6B175474E89094C44Da98b954EedeAC495271d0F",
    86400,
    "10000000000000000"
  ],
  "numDeployments": 3,
  "solcInputHash": "631221980a3697b51bca4256d1fd6608",
  "bytecode": "0x60806040523480156200001157600080fd5b506040516200146e3803806200146e833981016040819052620000349162000292565b600082905560028190556200004a848462000054565b5050505062000306565b6001600160a01b038216158015906200007557506001600160a01b03811615155b620000c75760405162461bcd60e51b815260206004820152601560248201527f737461626c652d636f696e732d6172652d6e756c6c000000000000000000000060448201526064015b60405180910390fd5b806001600160a01b0316826001600160a01b031614156200012b5760405162461bcd60e51b815260206004820152601960248201527f737461626c652d636f696e732d6172652d7468652d73616d65000000000000006044820152606401620000be565b600380546001600160a01b038085166001600160a01b0319928316811790935560048054918516919092161781556040805163313ce56760e01b8152905163313ce56792828101926020929190829003018186803b1580156200018d57600080fd5b505afa158015620001a2573d6000803e3d6000fd5b505050506040513d601f19601f82011682018060405250810190620001c89190620002da565b600360146101000a81548160ff021916908360ff160217905550806001600160a01b031663313ce5676040518163ffffffff1660e01b815260040160206040518083038186803b1580156200021c57600080fd5b505afa15801562000231573d6000803e3d6000fd5b505050506040513d601f19601f82011682018060405250810190620002579190620002da565b600460146101000a81548160ff021916908360ff1602179055505050565b80516001600160a01b03811681146200028d57600080fd5b919050565b60008060008060808587031215620002a957600080fd5b620002b48562000275565b9350620002c46020860162000275565b6040860151606090960151949790965092505050565b600060208284031215620002ed57600080fd5b815160ff81168114620002ff57600080fd5b9392505050565b61115880620003166000396000f3fe608060405234801561001057600080fd5b50600436106100ea5760003560e01c80637cf295a01161008c578063c1c2d92c11610066578063c1c2d92c146101b7578063cafe465f146101ca578063d101186f146101d3578063ec8969bf146101e657600080fd5b80637cf295a01461018957806384537f0e1461019c578063ba55f5c1146101a457600080fd5b80632f6ee695116100c85780632f6ee6951461015357806367781c0e1461015b5780636ad7e14b146101635780637587d2491461017657600080fd5b806302651a29146100ef5780632954018c146101045780632a1bab731461013c575b600080fd5b6101026100fd366004610e3a565b6101f9565b005b61011f73fba0816a81bcabbf3829bed28618177a2bf0e82a81565b6040516001600160a01b0390911681526020015b60405180910390f35b61014560025481565b604051908152602001610133565b610145601281565b610145610324565b610102610171366004610e3a565b610333565b60035461011f906001600160a01b031681565b610102610197366004610e6b565b610459565b61011f61062d565b6101456101b2366004610e3a565b610948565b60045461011f906001600160a01b031681565b61014560005481565b6101026101e1366004610e97565b61098c565b6101456101f4366004610ed0565b610ad6565b73fba0816a81bcabbf3829bed28618177a2bf0e82a6001600160a01b0316630c340a246040518163ffffffff1660e01b815260040160206040518083038186803b15801561024657600080fd5b505afa15801561025a573d6000803e3d6000fd5b505050506040513d601f19601f8201168201806040525081019061027e9190610eed565b6001600160a01b0316336001600160a01b0316146102e35760405162461bcd60e51b815260206004820152600c60248201527f6e6f742d676f7665726e6f72000000000000000000000000000000000000000060448201526064015b60405180910390fd5b60025460408051918252602082018390527fea7b0359048504e79474eaaa05294b49265fc4e7b0a0c3737aaa22412e90f16e910160405180910390a1600255565b6103306012600a61101d565b81565b73fba0816a81bcabbf3829bed28618177a2bf0e82a6001600160a01b0316630c340a246040518163ffffffff1660e01b815260040160206040518083038186803b15801561038057600080fd5b505afa158015610394573d6000803e3d6000fd5b505050506040513d601f19601f820116820180604052508101906103b89190610eed565b6001600160a01b0316336001600160a01b0316146104185760405162461bcd60e51b815260206004820152600c60248201527f6e6f742d676f7665726e6f72000000000000000000000000000000000000000060448201526064016102da565b60005460408051918252602082018390527f2298ab1c5c06d8c35fa98988c0f4a11eabd87ee1f630d5633b8eef025c4fba5c910160405180910390a1600055565b73fba0816a81bcabbf3829bed28618177a2bf0e82a6001600160a01b0316630c340a246040518163ffffffff1660e01b815260040160206040518083038186803b1580156104a657600080fd5b505afa1580156104ba573d6000803e3d6000fd5b505050506040513d601f19601f820116820180604052508101906104de9190610eed565b6001600160a01b0316336001600160a01b03161461053e5760405162461bcd60e51b815260206004820152600c60248201527f6e6f742d676f7665726e6f72000000000000000000000000000000000000000060448201526064016102da565b6001600160a01b0382166105945760405162461bcd60e51b815260206004820152600d60248201527f746f6b656e2d69732d6e756c6c0000000000000000000000000000000000000060448201526064016102da565b6001600160a01b0382166000818152600160209081526040918290205482519384529083015281018290527ff8186f97b3fdb2550b9756b668187a5196e4e023b0090dcdf93bfbb2999fae549060600160405180910390a1801561060f576001600160a01b0391909116600090815260016020526040902055565b6001600160a01b0382166000908152600160205260408120555b5050565b60008073fba0816a81bcabbf3829bed28618177a2bf0e82a6001600160a01b0316638f8e162c6040518163ffffffff1660e01b815260040160206040518083038186803b15801561067d57600080fd5b505afa158015610691573d6000803e3d6000fd5b505050506040513d601f19601f820116820180604052508101906106b59190610eed565b6001600160a01b031663c6222eba60016040518263ffffffff1660e01b81526004016106e19190611029565b60206040518083038186803b1580156106f957600080fd5b505afa15801561070d573d6000803e3d6000fd5b505050506040513d601f19601f820116820180604052508101906107319190610eed565b6003546040517f07ee40bf0000000000000000000000000000000000000000000000000000000081526001600160a01b03918216600482015291925060009182918416906307ee40bf90602401604080518083038186803b15801561079557600080fd5b505afa1580156107a9573d6000803e3d6000fd5b505050506040513d601f19601f820116820180604052508101906107cd919061106a565b60035491935091506107e8906001600160a01b031682610afe565b1580156108055750610805826108006012600a61101d565b610b1b565b1561081e5750506003546001600160a01b031692915050565b600480546040517f07ee40bf0000000000000000000000000000000000000000000000000000000081526001600160a01b03918216928101929092528416906307ee40bf90602401604080518083038186803b15801561087d57600080fd5b505afa158015610891573d6000803e3d6000fd5b505050506040513d601f19601f820116820180604052508101906108b5919061106a565b60045491935091506108d0906001600160a01b031682610afe565b1580156108e857506108e8826108006012600a61101d565b6109345760405162461bcd60e51b815260206004820152601560248201527f737461626c652d7072696365732d696e76616c6964000000000000000000000060448201526064016102da565b50506004546001600160a01b031692915050565b60035460009074010000000000000000000000000000000000000000900460ff166012811415610979575090919050565b61098583826012610b85565b9392505050565b73fba0816a81bcabbf3829bed28618177a2bf0e82a6001600160a01b0316630c340a246040518163ffffffff1660e01b815260040160206040518083038186803b1580156109d957600080fd5b505afa1580156109ed573d6000803e3d6000fd5b505050506040513d601f19601f82011682018060405250810190610a119190610eed565b6001600160a01b0316336001600160a01b031614610a715760405162461bcd60e51b815260206004820152600c60248201527f6e6f742d676f7665726e6f72000000000000000000000000000000000000000060448201526064016102da565b600354600454604080516001600160a01b03938416815291831660208301528483169082015290821660608201527f9185a6f8d50cdc8134346b06fb9eac02c0f5421c392c04ee54d363036db1add59060800160405180910390a16106298282610be4565b6001600160a01b03811660009081526001602052604090205480610af957506000545b919050565b6000610b1282610b0d85610ad6565b610e25565b90505b92915050565b600080828411610b515782610b30858261108e565b610b4290670de0b6b3a76400006110a5565b610b4c91906110c4565b610b78565b83610b5c848261108e565b610b6e90670de0b6b3a76400006110a5565b610b7891906110c4565b6002541015949350505050565b600081831115610bb557610b99828461108e565b610ba490600a61101d565b610bae90856110c4565b9050610985565b81831015610bdc57610bc7838361108e565b610bd290600a61101d565b610bae90856110a5565b509192915050565b6001600160a01b03821615801590610c0457506001600160a01b03811615155b610c505760405162461bcd60e51b815260206004820152601560248201527f737461626c652d636f696e732d6172652d6e756c6c000000000000000000000060448201526064016102da565b806001600160a01b0316826001600160a01b03161415610cb25760405162461bcd60e51b815260206004820152601960248201527f737461626c652d636f696e732d6172652d7468652d73616d650000000000000060448201526064016102da565b600380546001600160a01b038085167fffffffffffffffffffffffff000000000000000000000000000000000000000092831681179093556004805491851691909216178155604080517f313ce567000000000000000000000000000000000000000000000000000000008152905163313ce56792828101926020929190829003018186803b158015610d4457600080fd5b505afa158015610d58573d6000803e3d6000fd5b505050506040513d601f19601f82011682018060405250810190610d7c91906110ff565b600360146101000a81548160ff021916908360ff160217905550806001600160a01b031663313ce5676040518163ffffffff1660e01b815260040160206040518083038186803b158015610dcf57600080fd5b505afa158015610de3573d6000803e3d6000fd5b505050506040513d601f19601f82011682018060405250810190610e0791906110ff565b600460146101000a81548160ff021916908360ff1602179055505050565b600081610e32844261108e565b119392505050565b600060208284031215610e4c57600080fd5b5035919050565b6001600160a01b0381168114610e6857600080fd5b50565b60008060408385031215610e7e57600080fd5b8235610e8981610e53565b946020939093013593505050565b60008060408385031215610eaa57600080fd5b8235610eb581610e53565b91506020830135610ec581610e53565b809150509250929050565b600060208284031215610ee257600080fd5b813561098581610e53565b600060208284031215610eff57600080fd5b815161098581610e53565b7f4e487b7100000000000000000000000000000000000000000000000000000000600052601160045260246000fd5b600181815b80851115610f74578160001904821115610f5a57610f5a610f0a565b80851615610f6757918102915b93841c9390800290610f3e565b509250929050565b600082610f8b57506001610b15565b81610f9857506000610b15565b8160018114610fae5760028114610fb857610fd4565b6001915050610b15565b60ff841115610fc957610fc9610f0a565b50506001821b610b15565b5060208310610133831016604e8410600b8410161715610ff7575081810a610b15565b6110018383610f39565b806000190482111561101557611015610f0a565b029392505050565b6000610b128383610f7c565b60208101600b8310611064577f4e487b7100000000000000000000000000000000000000000000000000000000600052602160045260246000fd5b91905290565b6000806040838503121561107d57600080fd5b505080516020909101519092909150565b6000828210156110a0576110a0610f0a565b500390565b60008160001904831182151516156110bf576110bf610f0a565b500290565b6000826110fa577f4e487b7100000000000000000000000000000000000000000000000000000000600052601260045260246000fd5b500490565b60006020828403121561111157600080fd5b815160ff8116811461098557600080fdfea26469706673582212206b926927405a2539d16fe268ff4f2357bc73c2b84fd42878da635f079eeadb2d64736f6c63430008090033",
  "devdoc": {
    "details": "This contract mitigates a de-peg scenario by checking price against two stable coins that should be around 1",
    "kind": "dev",
    "methods": {
      "getStableCoinIfPegged()": {
        "details": "Check price relation between both stable coins and revert if peg is too loose",
        "returns": {
          "_stableCoin": "The primary stable coin if pass all checks"
        }
      },
      "updateCustomStalePeriod(address,uint256)": {
        "details": "Use `0` as `stalePeriod_` to remove custom stale period"
      },
      "updateStableCoins(address,address)": {
        "details": "Used externally by the governor"
      }
    },
    "stateVariables": {
      "primaryStableCoin": {
        "details": "Should not be called directly from other contracts, must use `getStableCoinIfPegged`"
      },
      "secondaryStableCoin": {
        "details": "Should not be called directly from other contracts, must use `getStableCoinIfPegged`"
      }
    },
    "title": "Provide pegged stable coin, useful for getting USD prices reference from DEXes",
    "version": 1
  },
  "userdoc": {
    "events": {
      "CustomStalePeriodUpdated(address,uint256,uint256)": {
        "notice": "Emitted when custom stale period is updated"
      },
      "DefaultStalePeriodUpdated(uint256,uint256)": {
        "notice": "Emitted when default stale period is updated"
      },
      "MaxDeviationUpdated(uint256,uint256)": {
        "notice": "Emitted when max deviation is updated"
      },
      "StableCoinsUpdated(address,address,address,address)": {
        "notice": "Emitted when stable coin is updated"
      }
    },
    "kind": "user",
    "methods": {
      "defaultStalePeriod()": {
        "notice": "The default stale period. It's used to determine if a price is invalid (i.e. outdated)"
      },
      "getStableCoinIfPegged()": {
        "notice": "Return the stable coin if pegged"
      },
      "maxDeviation()": {
        "notice": "The max acceptable deviation"
      },
      "primaryStableCoin()": {
        "notice": "A stable coin to use as USD price reference"
      },
      "secondaryStableCoin()": {
        "notice": "A secondary stable coin used to check USD-peg against primary"
      },
      "stalePeriodOf(address)": {
        "notice": "Get stale period of a token"
      },
      "toUsdRepresentation(uint256)": {
        "notice": "Convert given amount of stable coin to USD representation (18 decimals)"
      },
      "updateCustomStalePeriod(address,uint256)": {
        "notice": "Update custom stale period"
      },
      "updateDefaultStalePeriod(uint256)": {
        "notice": "Update default stale period"
      },
      "updateMaxDeviation(uint256)": {
        "notice": "Update max deviation"
      },
      "updateStableCoins(address,address)": {
        "notice": "Update stable coin"
      }
    },
    "version": 1
  },
  "storageLayout": {
    "storage": [
      {
        "astId": 8496,
        "contract": "contracts/core/StableCoinProvider.sol:StableCoinProvider",
        "label": "defaultStalePeriod",
        "offset": 0,
        "slot": "0",
        "type": "t_uint256"
      },
      {
        "astId": 8501,
        "contract": "contracts/core/StableCoinProvider.sol:StableCoinProvider",
        "label": "customStalePeriod",
        "offset": 0,
        "slot": "1",
        "type": "t_mapping(t_address,t_uint256)"
      },
      {
        "astId": 8411,
        "contract": "contracts/core/StableCoinProvider.sol:StableCoinProvider",
        "label": "maxDeviation",
        "offset": 0,
        "slot": "2",
        "type": "t_uint256"
      },
      {
        "astId": 5670,
        "contract": "contracts/core/StableCoinProvider.sol:StableCoinProvider",
        "label": "primaryStableCoin",
        "offset": 0,
        "slot": "3",
        "type": "t_address"
      },
      {
        "astId": 5672,
        "contract": "contracts/core/StableCoinProvider.sol:StableCoinProvider",
        "label": "__primaryStableCoinDecimals",
        "offset": 20,
        "slot": "3",
        "type": "t_uint8"
      },
      {
        "astId": 5675,
        "contract": "contracts/core/StableCoinProvider.sol:StableCoinProvider",
        "label": "secondaryStableCoin",
        "offset": 0,
        "slot": "4",
        "type": "t_address"
      },
      {
        "astId": 5677,
        "contract": "contracts/core/StableCoinProvider.sol:StableCoinProvider",
        "label": "__secondaryStableCoinDecimals",
        "offset": 20,
        "slot": "4",
        "type": "t_uint8"
      }
    ],
    "types": {
      "t_address": {
        "encoding": "inplace",
        "label": "address",
        "numberOfBytes": "20"
      },
      "t_mapping(t_address,t_uint256)": {
        "encoding": "mapping",
        "key": "t_address",
        "label": "mapping(address => uint256)",
        "numberOfBytes": "32",
        "value": "t_uint256"
      },
      "t_uint256": {
        "encoding": "inplace",
        "label": "uint256",
        "numberOfBytes": "32"
      },
      "t_uint8": {
        "encoding": "inplace",
        "label": "uint8",
        "numberOfBytes": "1"
      }
    }
  }
}