{
  "address": "0xE55744eBb196D0E4dDeA70204142eaF517EF005A",
  "abi": [
    {
      "inputs": [
        {
          "internalType": "address",
          "name": "primaryStableCoin_",
          "type": "address"
        },
        {
          "internalType": "address",
          "name": "secondaryStableCoin_",
          "type": "address"
        },
        {
          "internalType": "contract IPriceProvidersAggregator",
          "name": "providersAggregator_",
          "type": "address"
        },
        {
          "internalType": "uint256",
          "name": "stalePeriod_",
          "type": "uint256"
        },
        {
          "internalType": "uint256",
          "name": "maxDeviation_",
          "type": "uint256"
        }
      ],
      "stateMutability": "nonpayable",
      "type": "constructor"
    },
    {
      "anonymous": false,
      "inputs": [
        {
          "indexed": false,
          "internalType": "uint8",
          "name": "version",
          "type": "uint8"
        }
      ],
      "name": "Initialized",
      "type": "event"
    },
    {
      "anonymous": false,
      "inputs": [
        {
          "indexed": false,
          "internalType": "uint256",
          "name": "oldMaxDeviation",
          "type": "uint256"
        },
        {
          "indexed": false,
          "internalType": "uint256",
          "name": "newMaxDeviation",
          "type": "uint256"
        }
      ],
      "name": "MaxDeviationUpdated",
      "type": "event"
    },
    {
      "anonymous": false,
      "inputs": [
        {
          "indexed": false,
          "internalType": "contract IPriceProvidersAggregator",
          "name": "oldProvidersAggregator",
          "type": "address"
        },
        {
          "indexed": false,
          "internalType": "contract IPriceProvidersAggregator",
          "name": "newProvidersAggregator",
          "type": "address"
        }
      ],
      "name": "ProvidersAggregatorUpdated",
      "type": "event"
    },
    {
      "anonymous": false,
      "inputs": [
        {
          "indexed": false,
          "internalType": "address",
          "name": "oldPrimaryStableCoin",
          "type": "address"
        },
        {
          "indexed": false,
          "internalType": "address",
          "name": "oldSecondaryStableCoin",
          "type": "address"
        },
        {
          "indexed": false,
          "internalType": "address",
          "name": "newPrimaryStableCoin",
          "type": "address"
        },
        {
          "indexed": false,
          "internalType": "address",
          "name": "newSecondaryStableCoin",
          "type": "address"
        }
      ],
      "name": "StableCoinsUpdated",
      "type": "event"
    },
    {
      "anonymous": false,
      "inputs": [
        {
          "indexed": false,
          "internalType": "uint256",
          "name": "oldStalePeriod",
          "type": "uint256"
        },
        {
          "indexed": false,
          "internalType": "uint256",
          "name": "newStalePeriod",
          "type": "uint256"
        }
      ],
      "name": "StalePeriodUpdated",
      "type": "event"
    },
    {
      "anonymous": false,
      "inputs": [
        {
          "indexed": true,
          "internalType": "address",
          "name": "previousGovernor",
          "type": "address"
        },
        {
          "indexed": true,
          "internalType": "address",
          "name": "proposedGovernor",
          "type": "address"
        }
      ],
      "name": "UpdatedGovernor",
      "type": "event"
    },
    {
      "inputs": [],
      "name": "ONE_USD",
      "outputs": [
        {
          "internalType": "uint256",
          "name": "",
          "type": "uint256"
        }
      ],
      "stateMutability": "view",
      "type": "function"
    },
    {
      "inputs": [],
      "name": "USD_DECIMALS",
      "outputs": [
        {
          "internalType": "uint256",
          "name": "",
          "type": "uint256"
        }
      ],
      "stateMutability": "view",
      "type": "function"
    },
    {
      "inputs": [],
      "name": "acceptGovernorship",
      "outputs": [],
      "stateMutability": "nonpayable",
      "type": "function"
    },
    {
      "inputs": [],
      "name": "getStableCoinIfPegged",
      "outputs": [
        {
          "internalType": "address",
          "name": "_stableCoin",
          "type": "address"
        }
      ],
      "stateMutability": "view",
      "type": "function"
    },
    {
      "inputs": [],
      "name": "governor",
      "outputs": [
        {
          "internalType": "address",
          "name": "",
          "type": "address"
        }
      ],
      "stateMutability": "view",
      "type": "function"
    },
    {
      "inputs": [],
      "name": "maxDeviation",
      "outputs": [
        {
          "internalType": "uint256",
          "name": "",
          "type": "uint256"
        }
      ],
      "stateMutability": "view",
      "type": "function"
    },
    {
      "inputs": [],
      "name": "primaryStableCoin",
      "outputs": [
        {
          "internalType": "address",
          "name": "",
          "type": "address"
        }
      ],
      "stateMutability": "view",
      "type": "function"
    },
    {
      "inputs": [],
      "name": "providersAggregator",
      "outputs": [
        {
          "internalType": "contract IPriceProvidersAggregator",
          "name": "",
          "type": "address"
        }
      ],
      "stateMutability": "view",
      "type": "function"
    },
    {
      "inputs": [],
      "name": "secondaryStableCoin",
      "outputs": [
        {
          "internalType": "address",
          "name": "",
          "type": "address"
        }
      ],
      "stateMutability": "view",
      "type": "function"
    },
    {
      "inputs": [],
      "name": "stalePeriod",
      "outputs": [
        {
          "internalType": "uint256",
          "name": "",
          "type": "uint256"
        }
      ],
      "stateMutability": "view",
      "type": "function"
    },
    {
      "inputs": [
        {
          "internalType": "uint256",
          "name": "stableCoinAmount_",
          "type": "uint256"
        }
      ],
      "name": "toUsdRepresentation",
      "outputs": [
        {
          "internalType": "uint256",
          "name": "_usdAmount",
          "type": "uint256"
        }
      ],
      "stateMutability": "view",
      "type": "function"
    },
    {
      "inputs": [
        {
          "internalType": "address",
          "name": "_proposedGovernor",
          "type": "address"
        }
      ],
      "name": "transferGovernorship",
      "outputs": [],
      "stateMutability": "nonpayable",
      "type": "function"
    },
    {
      "inputs": [
        {
          "internalType": "uint256",
          "name": "maxDeviation_",
          "type": "uint256"
        }
      ],
      "name": "updateMaxDeviation",
      "outputs": [],
      "stateMutability": "nonpayable",
      "type": "function"
    },
    {
      "inputs": [
        {
          "internalType": "contract IPriceProvidersAggregator",
          "name": "providersAggregator_",
          "type": "address"
        }
      ],
      "name": "updateProvidersAggregator",
      "outputs": [],
      "stateMutability": "nonpayable",
      "type": "function"
    },
    {
      "inputs": [
        {
          "internalType": "address",
          "name": "primaryStableCoin_",
          "type": "address"
        },
        {
          "internalType": "address",
          "name": "secondaryStableCoin_",
          "type": "address"
        }
      ],
      "name": "updateStableCoins",
      "outputs": [],
      "stateMutability": "nonpayable",
      "type": "function"
    },
    {
      "inputs": [
        {
          "internalType": "uint256",
          "name": "stalePeriod_",
          "type": "uint256"
        }
      ],
      "name": "updateStalePeriod",
      "outputs": [],
      "stateMutability": "nonpayable",
      "type": "function"
    }
  ],
  "transactionHash": "0xd36e09cd4883c6839e2a794d48ee751b15f98cd771f655a508075880191cc722",
  "args": [
    "0xA0b86991c6218b36c1d19D4a2e9Eb0cE3606eB48",
    "0x6B175474E89094C44Da98b954EedeAC495271d0F",
    "0x32a21eC8ee93971D4b4093C0895FD841c7169a23",
    86400,
    "10000000000000000"
  ],
  "numDeployments": 1,
  "solcInputHash": "b7d2ef77559d78105af4c2ea80b55c05",
  "bytecode": "0x60806040523480156200001157600080fd5b506040516200146b3803806200146b833981016040819052620000349162000355565b8281836000336000805462010000600160b01b031916620100006001600160a01b038416908102919091178255604051929350917fd4459d5b8b913cab0244230fd9b1c08b6ceace7fe9230e60d0f74cbffdf849d0908290a3506002556003556001600160a01b038116620000e55760405162461bcd60e51b81526020600482015260126024820152711859d9dc9959d85d1bdc8b5a5ccb5b9d5b1b60721b60448201526064015b60405180910390fd5b600480546001600160a01b0319166001600160a01b03929092169190911790556200011185856200011c565b5050505050620003e6565b6001600160a01b038216158015906200013d57506001600160a01b03811615155b6200018b5760405162461bcd60e51b815260206004820152601560248201527f737461626c652d636f696e732d6172652d6e756c6c00000000000000000000006044820152606401620000dc565b806001600160a01b0316826001600160a01b03161415620001ef5760405162461bcd60e51b815260206004820152601960248201527f737461626c652d636f696e732d6172652d7468652d73616d65000000000000006044820152606401620000dc565b600580546001600160a01b038085166001600160a01b0319928316811790935560068054918516919092161790556040805163313ce56760e01b8152905163313ce56791600480820192602092909190829003018186803b1580156200025457600080fd5b505afa15801562000269573d6000803e3d6000fd5b505050506040513d601f19601f820116820180604052508101906200028f9190620003ba565b600560146101000a81548160ff021916908360ff160217905550806001600160a01b031663313ce5676040518163ffffffff1660e01b815260040160206040518083038186803b158015620002e357600080fd5b505afa158015620002f8573d6000803e3d6000fd5b505050506040513d601f19601f820116820180604052508101906200031e9190620003ba565b600660146101000a81548160ff021916908360ff1602179055505050565b6001600160a01b03811681146200035257600080fd5b50565b600080600080600060a086880312156200036e57600080fd5b85516200037b816200033c565b60208701519095506200038e816200033c565b6040870151909450620003a1816200033c565b6060870151608090970151959894975095949392505050565b600060208284031215620003cd57600080fd5b815160ff81168114620003df57600080fd5b9392505050565b61107580620003f66000396000f3fe608060405234801561001057600080fd5b50600436106101005760003560e01c80638f8e162c11610097578063c1a2e32b11610066578063c1a2e32b146101e7578063c1c2d92c146101fa578063d101186f1461020d578063f3b27bc31461022057600080fd5b80638f8e162c146101a5578063a5b36a36146101b8578063b6aa515b146101c1578063ba55f5c1146101d457600080fd5b80632f6ee695116100d35780632f6ee6951461017a57806367781c0e146101825780637587d2491461018a57806384537f0e1461019d57600080fd5b806302651a29146101055780630bb0b89d1461011a5780630c340a241461012d5780632a1bab7314610163575b600080fd5b610118610113366004610d83565b610228565b005b610118610128366004610db4565b6102cf565b600054610146906201000090046001600160a01b031681565b6040516001600160a01b0390911681526020015b60405180910390f35b61016c60035481565b60405190815260200161015a565b61016c601281565b61016c610407565b600554610146906001600160a01b031681565b610146610416565b600454610146906001600160a01b031681565b61016c60025481565b6101186101cf366004610db4565b6106ac565b61016c6101e2366004610d83565b61079d565b6101186101f5366004610d83565b6107e1565b600654610146906001600160a01b031681565b61011861021b366004610dd1565b610883565b61011861094d565b6000546001600160a01b036201000090910416331461028e5760405162461bcd60e51b815260206004820152600c60248201527f6e6f742d676f7665726e6f72000000000000000000000000000000000000000060448201526064015b60405180910390fd5b60035460408051918252602082018390527fea7b0359048504e79474eaaa05294b49265fc4e7b0a0c3737aaa22412e90f16e910160405180910390a1600355565b6000546001600160a01b03620100009091041633146103305760405162461bcd60e51b815260206004820152600c60248201527f6e6f742d676f7665726e6f7200000000000000000000000000000000000000006044820152606401610285565b6001600160a01b0381166103865760405162461bcd60e51b815260206004820152600f60248201527f616464726573732d69732d6e756c6c00000000000000000000000000000000006044820152606401610285565b600454604080516001600160a01b03928316815291831660208301527fbcc4066cae087918db8d7695e80f5dc69eb597f904c8d513f27f2d04eed8f7ca910160405180910390a1600480547fffffffffffffffffffffffff0000000000000000000000000000000000000000166001600160a01b0392909216919091179055565b6104136012600a610f1d565b81565b600480546040517fc6222eba00000000000000000000000000000000000000000000000000000000815260009283926001600160a01b03169163c6222eba916104629160019101610f29565b60206040518083038186803b15801561047a57600080fd5b505afa15801561048e573d6000803e3d6000fd5b505050506040513d601f19601f820116820180604052508101906104b29190610f6a565b6005546040517f07ee40bf0000000000000000000000000000000000000000000000000000000081526001600160a01b03918216600482015291925060009182918416906307ee40bf90602401604080518083038186803b15801561051657600080fd5b505afa15801561052a573d6000803e3d6000fd5b505050506040513d601f19601f8201168201806040525081019061054e9190610f87565b9150915061055b81610a4d565b1580156105785750610578826105736012600a610f1d565b610a61565b156105915750506005546001600160a01b031692915050565b6006546040517f07ee40bf0000000000000000000000000000000000000000000000000000000081526001600160a01b039182166004820152908416906307ee40bf90602401604080518083038186803b1580156105ee57600080fd5b505afa158015610602573d6000803e3d6000fd5b505050506040513d601f19601f820116820180604052508101906106269190610f87565b909250905061063481610a4d565b15801561064c575061064c826105736012600a610f1d565b6106985760405162461bcd60e51b815260206004820152601560248201527f737461626c652d7072696365732d696e76616c696400000000000000000000006044820152606401610285565b50506006546001600160a01b031692915050565b6000546001600160a01b036201000090910416331461070d5760405162461bcd60e51b815260206004820152600c60248201527f6e6f742d676f7665726e6f7200000000000000000000000000000000000000006044820152606401610285565b6001600160a01b0381166107635760405162461bcd60e51b815260206004820152601960248201527f70726f706f7365642d676f7665726e6f722d69732d7a65726f000000000000006044820152606401610285565b600180547fffffffffffffffffffffffff0000000000000000000000000000000000000000166001600160a01b0392909216919091179055565b60055460009074010000000000000000000000000000000000000000900460ff1660128114156107ce575090919050565b6107da83826012610acb565b9392505050565b6000546001600160a01b03620100009091041633146108425760405162461bcd60e51b815260206004820152600c60248201527f6e6f742d676f7665726e6f7200000000000000000000000000000000000000006044820152606401610285565b60025460408051918252602082018390527f1dcb97516840282e793e073fe5a34e75c575d63193a3cbed8fa1930b27df4720910160405180910390a1600255565b6000546001600160a01b03620100009091041633146108e45760405162461bcd60e51b815260206004820152600c60248201527f6e6f742d676f7665726e6f7200000000000000000000000000000000000000006044820152606401610285565b600554600654604080516001600160a01b03938416815291831660208301528483169082015290821660608201527f9185a6f8d50cdc8134346b06fb9eac02c0f5421c392c04ee54d363036db1add59060800160405180910390a16109498282610b2a565b5050565b6001546001600160a01b031633146109a75760405162461bcd60e51b815260206004820152601960248201527f6e6f742d7468652d70726f706f7365642d676f7665726e6f72000000000000006044820152606401610285565b600154600080546040516001600160a01b039384169362010000909204909116917fd4459d5b8b913cab0244230fd9b1c08b6ceace7fe9230e60d0f74cbffdf849d091a360018054600080547fffffffffffffffffffff0000000000000000000000000000000000000000ffff166001600160a01b03831662010000021790557fffffffffffffffffffffffff0000000000000000000000000000000000000000169055565b6000610a5b82600254610d6e565b92915050565b600080828411610a975782610a768582610fab565b610a8890670de0b6b3a7640000610fc2565b610a929190610fe1565b610abe565b83610aa28482610fab565b610ab490670de0b6b3a7640000610fc2565b610abe9190610fe1565b6003541015949350505050565b600081831115610afb57610adf8284610fab565b610aea90600a610f1d565b610af49085610fe1565b90506107da565b81831015610b2257610b0d8383610fab565b610b1890600a610f1d565b610af49085610fc2565b509192915050565b6001600160a01b03821615801590610b4a57506001600160a01b03811615155b610b965760405162461bcd60e51b815260206004820152601560248201527f737461626c652d636f696e732d6172652d6e756c6c00000000000000000000006044820152606401610285565b806001600160a01b0316826001600160a01b03161415610bf85760405162461bcd60e51b815260206004820152601960248201527f737461626c652d636f696e732d6172652d7468652d73616d65000000000000006044820152606401610285565b600580546001600160a01b038085167fffffffffffffffffffffffff000000000000000000000000000000000000000092831681179093556006805491851691909216179055604080517f313ce567000000000000000000000000000000000000000000000000000000008152905163313ce56791600480820192602092909190829003018186803b158015610c8d57600080fd5b505afa158015610ca1573d6000803e3d6000fd5b505050506040513d601f19601f82011682018060405250810190610cc5919061101c565b600560146101000a81548160ff021916908360ff160217905550806001600160a01b031663313ce5676040518163ffffffff1660e01b815260040160206040518083038186803b158015610d1857600080fd5b505afa158015610d2c573d6000803e3d6000fd5b505050506040513d601f19601f82011682018060405250810190610d50919061101c565b600660146101000a81548160ff021916908360ff1602179055505050565b600081610d7b8442610fab565b119392505050565b600060208284031215610d9557600080fd5b5035919050565b6001600160a01b0381168114610db157600080fd5b50565b600060208284031215610dc657600080fd5b81356107da81610d9c565b60008060408385031215610de457600080fd5b8235610def81610d9c565b91506020830135610dff81610d9c565b809150509250929050565b7f4e487b7100000000000000000000000000000000000000000000000000000000600052601160045260246000fd5b600181815b80851115610e74578160001904821115610e5a57610e5a610e0a565b80851615610e6757918102915b93841c9390800290610e3e565b509250929050565b600082610e8b57506001610a5b565b81610e9857506000610a5b565b8160018114610eae5760028114610eb857610ed4565b6001915050610a5b565b60ff841115610ec957610ec9610e0a565b50506001821b610a5b565b5060208310610133831016604e8410600b8410161715610ef7575081810a610a5b565b610f018383610e39565b8060001904821115610f1557610f15610e0a565b029392505050565b60006107da8383610e7c565b60208101600b8310610f64577f4e487b7100000000000000000000000000000000000000000000000000000000600052602160045260246000fd5b91905290565b600060208284031215610f7c57600080fd5b81516107da81610d9c565b60008060408385031215610f9a57600080fd5b505080516020909101519092909150565b600082821015610fbd57610fbd610e0a565b500390565b6000816000190483118215151615610fdc57610fdc610e0a565b500290565b600082611017577f4e487b7100000000000000000000000000000000000000000000000000000000600052601260045260246000fd5b500490565b60006020828403121561102e57600080fd5b815160ff811681146107da57600080fdfea26469706673582212200f879215646fbfe31ff990d71238d87a314001bc6534ebd8242d757d84a9c53764736f6c63430008090033",
  "devdoc": {
    "details": "This contract mitigates a de-peg scenario by checking price against two stable coins that should be around 1",
    "kind": "dev",
    "methods": {
      "acceptGovernorship()": {
        "details": "Allows new governor to accept governorship of the contract."
      },
      "getStableCoinIfPegged()": {
        "details": "Check price relation between both stable coins and revert if peg is too loose",
        "returns": {
          "_stableCoin": "The primary stable coin if pass all checks"
        }
      },
      "transferGovernorship(address)": {
        "details": "Transfers governorship of the contract to a new account (`proposedGovernor`). Can only be called by the current owner."
      },
      "updateStableCoins(address,address)": {
        "details": "Used externally by the governor"
      }
    },
    "stateVariables": {
      "primaryStableCoin": {
        "details": "Should not be called directly from other contracts, must use `getStableCoinIfPegged`"
      },
      "secondaryStableCoin": {
        "details": "Should not be called directly from other contracts, must use `getStableCoinIfPegged`"
      }
    },
    "title": "Provide pegged stable coin, useful for getting USD prices reference from DEXes",
    "version": 1
  },
  "userdoc": {
    "events": {
      "MaxDeviationUpdated(uint256,uint256)": {
        "notice": "Emitted when max deviation is updated"
      },
      "ProvidersAggregatorUpdated(address,address)": {
        "notice": "Emitted when providers aggregator is updated"
      },
      "StableCoinsUpdated(address,address,address,address)": {
        "notice": "Emitted when stable coin is updated"
      },
      "StalePeriodUpdated(uint256,uint256)": {
        "notice": "Emitted when stale period is updated"
      }
    },
    "kind": "user",
    "methods": {
      "getStableCoinIfPegged()": {
        "notice": "Return the stable coin if pegged"
      },
      "maxDeviation()": {
        "notice": "The max acceptable deviation"
      },
      "primaryStableCoin()": {
        "notice": "A stable coin to use as USD price reference"
      },
      "providersAggregator()": {
        "notice": "The PriceProvidersAggregator contract"
      },
      "secondaryStableCoin()": {
        "notice": "A secondary stable coin used to check USD-peg against primary"
      },
      "stalePeriod()": {
        "notice": "The stale period. It's used to determine if a price is invalid (i.e. outdated)"
      },
      "toUsdRepresentation(uint256)": {
        "notice": "Convert given amount of stable coin to USD representation (18 decimals)"
      },
      "updateMaxDeviation(uint256)": {
        "notice": "Update max deviation"
      },
      "updateProvidersAggregator(address)": {
        "notice": "Update PriceProvidersAggregator contract"
      },
      "updateStableCoins(address,address)": {
        "notice": "Update stable coin"
      },
      "updateStalePeriod(uint256)": {
        "notice": "Update stale period"
      }
    },
    "version": 1
  },
  "storageLayout": {
    "storage": [
      {
        "astId": 420,
        "contract": "contracts/core/StableCoinProvider.sol:StableCoinProvider",
        "label": "_initialized",
        "offset": 0,
        "slot": "0",
        "type": "t_uint8"
      },
      {
        "astId": 423,
        "contract": "contracts/core/StableCoinProvider.sol:StableCoinProvider",
        "label": "_initializing",
        "offset": 1,
        "slot": "0",
        "type": "t_bool"
      },
      {
        "astId": 6513,
        "contract": "contracts/core/StableCoinProvider.sol:StableCoinProvider",
        "label": "governor",
        "offset": 2,
        "slot": "0",
        "type": "t_address"
      },
      {
        "astId": 6515,
        "contract": "contracts/core/StableCoinProvider.sol:StableCoinProvider",
        "label": "proposedGovernor",
        "offset": 0,
        "slot": "1",
        "type": "t_address"
      },
      {
        "astId": 11532,
        "contract": "contracts/core/StableCoinProvider.sol:StableCoinProvider",
        "label": "stalePeriod",
        "offset": 0,
        "slot": "2",
        "type": "t_uint256"
      },
      {
        "astId": 11319,
        "contract": "contracts/core/StableCoinProvider.sol:StableCoinProvider",
        "label": "maxDeviation",
        "offset": 0,
        "slot": "3",
        "type": "t_uint256"
      },
      {
        "astId": 11406,
        "contract": "contracts/core/StableCoinProvider.sol:StableCoinProvider",
        "label": "providersAggregator",
        "offset": 0,
        "slot": "4",
        "type": "t_contract(IPriceProvidersAggregator)11809"
      },
      {
        "astId": 8596,
        "contract": "contracts/core/StableCoinProvider.sol:StableCoinProvider",
        "label": "primaryStableCoin",
        "offset": 0,
        "slot": "5",
        "type": "t_address"
      },
      {
        "astId": 8598,
        "contract": "contracts/core/StableCoinProvider.sol:StableCoinProvider",
        "label": "__primaryStableCoinDecimals",
        "offset": 20,
        "slot": "5",
        "type": "t_uint8"
      },
      {
        "astId": 8601,
        "contract": "contracts/core/StableCoinProvider.sol:StableCoinProvider",
        "label": "secondaryStableCoin",
        "offset": 0,
        "slot": "6",
        "type": "t_address"
      },
      {
        "astId": 8603,
        "contract": "contracts/core/StableCoinProvider.sol:StableCoinProvider",
        "label": "__secondaryStableCoinDecimals",
        "offset": 20,
        "slot": "6",
        "type": "t_uint8"
      }
    ],
    "types": {
      "t_address": {
        "encoding": "inplace",
        "label": "address",
        "numberOfBytes": "20"
      },
      "t_bool": {
        "encoding": "inplace",
        "label": "bool",
        "numberOfBytes": "1"
      },
      "t_contract(IPriceProvidersAggregator)11809": {
        "encoding": "inplace",
        "label": "contract IPriceProvidersAggregator",
        "numberOfBytes": "20"
      },
      "t_uint256": {
        "encoding": "inplace",
        "label": "uint256",
        "numberOfBytes": "32"
      },
      "t_uint8": {
        "encoding": "inplace",
        "label": "uint8",
        "numberOfBytes": "1"
      }
    }
  }
}