{
  "address": "0x091F06081aC7083A27A966d466E04cAFeC486CdA",
  "abi": [
    {
      "inputs": [
        {
          "internalType": "address",
          "name": "primaryStableCoin_",
          "type": "address"
        },
        {
          "internalType": "address",
          "name": "secondaryStableCoin_",
          "type": "address"
        },
        {
          "internalType": "uint256",
          "name": "stalePeriod_",
          "type": "uint256"
        },
        {
          "internalType": "uint256",
          "name": "maxDeviation_",
          "type": "uint256"
        }
      ],
      "stateMutability": "nonpayable",
      "type": "constructor"
    },
    {
      "anonymous": false,
      "inputs": [
        {
          "indexed": false,
          "internalType": "uint256",
          "name": "oldMaxDeviation",
          "type": "uint256"
        },
        {
          "indexed": false,
          "internalType": "uint256",
          "name": "newMaxDeviation",
          "type": "uint256"
        }
      ],
      "name": "MaxDeviationUpdated",
      "type": "event"
    },
    {
      "anonymous": false,
      "inputs": [
        {
          "indexed": false,
          "internalType": "address",
          "name": "oldPrimaryStableCoin",
          "type": "address"
        },
        {
          "indexed": false,
          "internalType": "address",
          "name": "oldSecondaryStableCoin",
          "type": "address"
        },
        {
          "indexed": false,
          "internalType": "address",
          "name": "newPrimaryStableCoin",
          "type": "address"
        },
        {
          "indexed": false,
          "internalType": "address",
          "name": "newSecondaryStableCoin",
          "type": "address"
        }
      ],
      "name": "StableCoinsUpdated",
      "type": "event"
    },
    {
      "anonymous": false,
      "inputs": [
        {
          "indexed": false,
          "internalType": "uint256",
          "name": "oldStalePeriod",
          "type": "uint256"
        },
        {
          "indexed": false,
          "internalType": "uint256",
          "name": "newStalePeriod",
          "type": "uint256"
        }
      ],
      "name": "StalePeriodUpdated",
      "type": "event"
    },
    {
      "inputs": [],
      "name": "ONE_USD",
      "outputs": [
        {
          "internalType": "uint256",
          "name": "",
          "type": "uint256"
        }
      ],
      "stateMutability": "view",
      "type": "function"
    },
    {
      "inputs": [],
      "name": "USD_DECIMALS",
      "outputs": [
        {
          "internalType": "uint256",
          "name": "",
          "type": "uint256"
        }
      ],
      "stateMutability": "view",
      "type": "function"
    },
    {
      "inputs": [],
      "name": "addressProvider",
      "outputs": [
        {
          "internalType": "contract IAddressProvider",
          "name": "",
          "type": "address"
        }
      ],
      "stateMutability": "view",
      "type": "function"
    },
    {
      "inputs": [],
      "name": "getStableCoinIfPegged",
      "outputs": [
        {
          "internalType": "address",
          "name": "_stableCoin",
          "type": "address"
        }
      ],
      "stateMutability": "view",
      "type": "function"
    },
    {
      "inputs": [],
      "name": "maxDeviation",
      "outputs": [
        {
          "internalType": "uint256",
          "name": "",
          "type": "uint256"
        }
      ],
      "stateMutability": "view",
      "type": "function"
    },
    {
      "inputs": [],
      "name": "primaryStableCoin",
      "outputs": [
        {
          "internalType": "address",
          "name": "",
          "type": "address"
        }
      ],
      "stateMutability": "view",
      "type": "function"
    },
    {
      "inputs": [],
      "name": "secondaryStableCoin",
      "outputs": [
        {
          "internalType": "address",
          "name": "",
          "type": "address"
        }
      ],
      "stateMutability": "view",
      "type": "function"
    },
    {
      "inputs": [],
      "name": "stalePeriod",
      "outputs": [
        {
          "internalType": "uint256",
          "name": "",
          "type": "uint256"
        }
      ],
      "stateMutability": "view",
      "type": "function"
    },
    {
      "inputs": [
        {
          "internalType": "uint256",
          "name": "stableCoinAmount_",
          "type": "uint256"
        }
      ],
      "name": "toUsdRepresentation",
      "outputs": [
        {
          "internalType": "uint256",
          "name": "_usdAmount",
          "type": "uint256"
        }
      ],
      "stateMutability": "view",
      "type": "function"
    },
    {
      "inputs": [
        {
          "internalType": "uint256",
          "name": "maxDeviation_",
          "type": "uint256"
        }
      ],
      "name": "updateMaxDeviation",
      "outputs": [],
      "stateMutability": "nonpayable",
      "type": "function"
    },
    {
      "inputs": [
        {
          "internalType": "address",
          "name": "primaryStableCoin_",
          "type": "address"
        },
        {
          "internalType": "address",
          "name": "secondaryStableCoin_",
          "type": "address"
        }
      ],
      "name": "updateStableCoins",
      "outputs": [],
      "stateMutability": "nonpayable",
      "type": "function"
    },
    {
      "inputs": [
        {
          "internalType": "uint256",
          "name": "stalePeriod_",
          "type": "uint256"
        }
      ],
      "name": "updateStalePeriod",
      "outputs": [],
      "stateMutability": "nonpayable",
      "type": "function"
    }
  ],
  "transactionHash": "0x3c8afb495a339d9233ba742f63d9b6030150011dc32b737731a36ff1e59e4430",
  "args": [
    "0xA0b86991c6218b36c1d19D4a2e9Eb0cE3606eB48",
    "0x6B175474E89094C44Da98b954EedeAC495271d0F",
    86400,
    "10000000000000000"
  ],
  "numDeployments": 2,
  "solcInputHash": "8b654c506c10a4071125075f82070c93",
  "bytecode": "0x60806040523480156200001157600080fd5b50604051620011d1380380620011d1833981016040819052620000349162000295565b600082905560018190556200004a848462000054565b5050505062000309565b6001600160a01b038216158015906200007557506001600160a01b03811615155b620000c75760405162461bcd60e51b815260206004820152601560248201527f737461626c652d636f696e732d6172652d6e756c6c000000000000000000000060448201526064015b60405180910390fd5b806001600160a01b0316826001600160a01b031614156200012b5760405162461bcd60e51b815260206004820152601960248201527f737461626c652d636f696e732d6172652d7468652d73616d65000000000000006044820152606401620000be565b600280546001600160a01b038085166001600160a01b0319928316811790935560038054918516919092161790556040805163313ce56760e01b8152905163313ce56791600480820192602092909190829003018186803b1580156200019057600080fd5b505afa158015620001a5573d6000803e3d6000fd5b505050506040513d601f19601f82011682018060405250810190620001cb9190620002dd565b600260146101000a81548160ff021916908360ff160217905550806001600160a01b031663313ce5676040518163ffffffff1660e01b815260040160206040518083038186803b1580156200021f57600080fd5b505afa15801562000234573d6000803e3d6000fd5b505050506040513d601f19601f820116820180604052508101906200025a9190620002dd565b600360146101000a81548160ff021916908360ff1602179055505050565b80516001600160a01b03811681146200029057600080fd5b919050565b60008060008060808587031215620002ac57600080fd5b620002b78562000278565b9350620002c76020860162000278565b6040860151606090960151949790965092505050565b600060208284031215620002f057600080fd5b815160ff811681146200030257600080fd5b9392505050565b610eb880620003196000396000f3fe608060405234801561001057600080fd5b50600436106100d45760003560e01c806384537f0e11610081578063c1a2e32b1161005b578063c1a2e32b14610184578063c1c2d92c14610197578063d101186f146101aa57600080fd5b806384537f0e14610160578063a5b36a3614610168578063ba55f5c11461017157600080fd5b80632f6ee695116100b25780632f6ee6951461013d57806367781c0e146101455780637587d2491461014d57600080fd5b806302651a29146100d95780632954018c146100ee5780632a1bab7314610126575b600080fd5b6100ec6100e7366004610be3565b6101bd565b005b61010973fba0816a81bcabbf3829bed28618177a2bf0e82a81565b6040516001600160a01b0390911681526020015b60405180910390f35b61012f60015481565b60405190815260200161011d565b61012f601281565b61012f6102e8565b600254610109906001600160a01b031681565b6101096102f7565b61012f60005481565b61012f61017f366004610be3565b6105f5565b6100ec610192366004610be3565b610639565b600354610109906001600160a01b031681565b6100ec6101b8366004610c14565b61075f565b73fba0816a81bcabbf3829bed28618177a2bf0e82a6001600160a01b0316630c340a246040518163ffffffff1660e01b815260040160206040518083038186803b15801561020a57600080fd5b505afa15801561021e573d6000803e3d6000fd5b505050506040513d601f19601f820116820180604052508101906102429190610c4d565b6001600160a01b0316336001600160a01b0316146102a75760405162461bcd60e51b815260206004820152600c60248201527f6e6f742d676f7665726e6f72000000000000000000000000000000000000000060448201526064015b60405180910390fd5b60015460408051918252602082018390527fea7b0359048504e79474eaaa05294b49265fc4e7b0a0c3737aaa22412e90f16e910160405180910390a1600155565b6102f46012600a610d7d565b81565b60008073fba0816a81bcabbf3829bed28618177a2bf0e82a6001600160a01b0316638f8e162c6040518163ffffffff1660e01b815260040160206040518083038186803b15801561034757600080fd5b505afa15801561035b573d6000803e3d6000fd5b505050506040513d601f19601f8201168201806040525081019061037f9190610c4d565b6001600160a01b031663c6222eba60016040518263ffffffff1660e01b81526004016103ab9190610d89565b60206040518083038186803b1580156103c357600080fd5b505afa1580156103d7573d6000803e3d6000fd5b505050506040513d601f19601f820116820180604052508101906103fb9190610c4d565b6002546040517f07ee40bf0000000000000000000000000000000000000000000000000000000081526001600160a01b03918216600482015291925060009182918416906307ee40bf90602401604080518083038186803b15801561045f57600080fd5b505afa158015610473573d6000803e3d6000fd5b505050506040513d601f19601f820116820180604052508101906104979190610dca565b915091506104a4816108ad565b1580156104c157506104c1826104bc6012600a610d7d565b6108c1565b156104da5750506002546001600160a01b031692915050565b6003546040517f07ee40bf0000000000000000000000000000000000000000000000000000000081526001600160a01b039182166004820152908416906307ee40bf90602401604080518083038186803b15801561053757600080fd5b505afa15801561054b573d6000803e3d6000fd5b505050506040513d601f19601f8201168201806040525081019061056f9190610dca565b909250905061057d816108ad565b1580156105955750610595826104bc6012600a610d7d565b6105e15760405162461bcd60e51b815260206004820152601560248201527f737461626c652d7072696365732d696e76616c69640000000000000000000000604482015260640161029e565b50506003546001600160a01b031692915050565b60025460009074010000000000000000000000000000000000000000900460ff166012811415610626575090919050565b6106328382601261092b565b9392505050565b73fba0816a81bcabbf3829bed28618177a2bf0e82a6001600160a01b0316630c340a246040518163ffffffff1660e01b815260040160206040518083038186803b15801561068657600080fd5b505afa15801561069a573d6000803e3d6000fd5b505050506040513d601f19601f820116820180604052508101906106be9190610c4d565b6001600160a01b0316336001600160a01b03161461071e5760405162461bcd60e51b815260206004820152600c60248201527f6e6f742d676f7665726e6f720000000000000000000000000000000000000000604482015260640161029e565b60005460408051918252602082018390527f1dcb97516840282e793e073fe5a34e75c575d63193a3cbed8fa1930b27df4720910160405180910390a1600055565b73fba0816a81bcabbf3829bed28618177a2bf0e82a6001600160a01b0316630c340a246040518163ffffffff1660e01b815260040160206040518083038186803b1580156107ac57600080fd5b505afa1580156107c0573d6000803e3d6000fd5b505050506040513d601f19601f820116820180604052508101906107e49190610c4d565b6001600160a01b0316336001600160a01b0316146108445760405162461bcd60e51b815260206004820152600c60248201527f6e6f742d676f7665726e6f720000000000000000000000000000000000000000604482015260640161029e565b600254600354604080516001600160a01b03938416815291831660208301528483169082015290821660608201527f9185a6f8d50cdc8134346b06fb9eac02c0f5421c392c04ee54d363036db1add59060800160405180910390a16108a9828261098a565b5050565b60006108bb82600054610bce565b92915050565b6000808284116108f757826108d68582610dee565b6108e890670de0b6b3a7640000610e05565b6108f29190610e24565b61091e565b836109028482610dee565b61091490670de0b6b3a7640000610e05565b61091e9190610e24565b6001541015949350505050565b60008183111561095b5761093f8284610dee565b61094a90600a610d7d565b6109549085610e24565b9050610632565b818310156109825761096d8383610dee565b61097890600a610d7d565b6109549085610e05565b509192915050565b6001600160a01b038216158015906109aa57506001600160a01b03811615155b6109f65760405162461bcd60e51b815260206004820152601560248201527f737461626c652d636f696e732d6172652d6e756c6c0000000000000000000000604482015260640161029e565b806001600160a01b0316826001600160a01b03161415610a585760405162461bcd60e51b815260206004820152601960248201527f737461626c652d636f696e732d6172652d7468652d73616d6500000000000000604482015260640161029e565b600280546001600160a01b038085167fffffffffffffffffffffffff000000000000000000000000000000000000000092831681179093556003805491851691909216179055604080517f313ce567000000000000000000000000000000000000000000000000000000008152905163313ce56791600480820192602092909190829003018186803b158015610aed57600080fd5b505afa158015610b01573d6000803e3d6000fd5b505050506040513d601f19601f82011682018060405250810190610b259190610e5f565b600260146101000a81548160ff021916908360ff160217905550806001600160a01b031663313ce5676040518163ffffffff1660e01b815260040160206040518083038186803b158015610b7857600080fd5b505afa158015610b8c573d6000803e3d6000fd5b505050506040513d601f19601f82011682018060405250810190610bb09190610e5f565b600360146101000a81548160ff021916908360ff1602179055505050565b600081610bdb8442610dee565b119392505050565b600060208284031215610bf557600080fd5b5035919050565b6001600160a01b0381168114610c1157600080fd5b50565b60008060408385031215610c2757600080fd5b8235610c3281610bfc565b91506020830135610c4281610bfc565b809150509250929050565b600060208284031215610c5f57600080fd5b815161063281610bfc565b7f4e487b7100000000000000000000000000000000000000000000000000000000600052601160045260246000fd5b600181815b80851115610cd4578160001904821115610cba57610cba610c6a565b80851615610cc757918102915b93841c9390800290610c9e565b509250929050565b600082610ceb575060016108bb565b81610cf8575060006108bb565b8160018114610d0e5760028114610d1857610d34565b60019150506108bb565b60ff841115610d2957610d29610c6a565b50506001821b6108bb565b5060208310610133831016604e8410600b8410161715610d57575081810a6108bb565b610d618383610c99565b8060001904821115610d7557610d75610c6a565b029392505050565b60006106328383610cdc565b60208101600b8310610dc4577f4e487b7100000000000000000000000000000000000000000000000000000000600052602160045260246000fd5b91905290565b60008060408385031215610ddd57600080fd5b505080516020909101519092909150565b600082821015610e0057610e00610c6a565b500390565b6000816000190483118215151615610e1f57610e1f610c6a565b500290565b600082610e5a577f4e487b7100000000000000000000000000000000000000000000000000000000600052601260045260246000fd5b500490565b600060208284031215610e7157600080fd5b815160ff8116811461063257600080fdfea2646970667358221220c1f6d054206a693649f6a9d367745b2663f0e7601f15122c77fc8e8d98e2698264736f6c63430008090033",
  "devdoc": {
    "details": "This contract mitigates a de-peg scenario by checking price against two stable coins that should be around 1",
    "kind": "dev",
    "methods": {
      "getStableCoinIfPegged()": {
        "details": "Check price relation between both stable coins and revert if peg is too loose",
        "returns": {
          "_stableCoin": "The primary stable coin if pass all checks"
        }
      },
      "updateStableCoins(address,address)": {
        "details": "Used externally by the governor"
      }
    },
    "stateVariables": {
      "primaryStableCoin": {
        "details": "Should not be called directly from other contracts, must use `getStableCoinIfPegged`"
      },
      "secondaryStableCoin": {
        "details": "Should not be called directly from other contracts, must use `getStableCoinIfPegged`"
      }
    },
    "title": "Provide pegged stable coin, useful for getting USD prices reference from DEXes",
    "version": 1
  },
  "userdoc": {
    "events": {
      "MaxDeviationUpdated(uint256,uint256)": {
        "notice": "Emitted when max deviation is updated"
      },
      "StableCoinsUpdated(address,address,address,address)": {
        "notice": "Emitted when stable coin is updated"
      },
      "StalePeriodUpdated(uint256,uint256)": {
        "notice": "Emitted when stale period is updated"
      }
    },
    "kind": "user",
    "methods": {
      "getStableCoinIfPegged()": {
        "notice": "Return the stable coin if pegged"
      },
      "maxDeviation()": {
        "notice": "The max acceptable deviation"
      },
      "primaryStableCoin()": {
        "notice": "A stable coin to use as USD price reference"
      },
      "secondaryStableCoin()": {
        "notice": "A secondary stable coin used to check USD-peg against primary"
      },
      "stalePeriod()": {
        "notice": "The stale period. It's used to determine if a price is invalid (i.e. outdated)"
      },
      "toUsdRepresentation(uint256)": {
        "notice": "Convert given amount of stable coin to USD representation (18 decimals)"
      },
      "updateMaxDeviation(uint256)": {
        "notice": "Update max deviation"
      },
      "updateStableCoins(address,address)": {
        "notice": "Update stable coin"
      },
      "updateStalePeriod(uint256)": {
        "notice": "Update stale period"
      }
    },
    "version": 1
  },
  "storageLayout": {
    "storage": [
      {
        "astId": 11477,
        "contract": "contracts/core/StableCoinProvider.sol:StableCoinProvider",
        "label": "stalePeriod",
        "offset": 0,
        "slot": "0",
        "type": "t_uint256"
      },
      {
        "astId": 11392,
        "contract": "contracts/core/StableCoinProvider.sol:StableCoinProvider",
        "label": "maxDeviation",
        "offset": 0,
        "slot": "1",
        "type": "t_uint256"
      },
      {
        "astId": 8671,
        "contract": "contracts/core/StableCoinProvider.sol:StableCoinProvider",
        "label": "primaryStableCoin",
        "offset": 0,
        "slot": "2",
        "type": "t_address"
      },
      {
        "astId": 8673,
        "contract": "contracts/core/StableCoinProvider.sol:StableCoinProvider",
        "label": "__primaryStableCoinDecimals",
        "offset": 20,
        "slot": "2",
        "type": "t_uint8"
      },
      {
        "astId": 8676,
        "contract": "contracts/core/StableCoinProvider.sol:StableCoinProvider",
        "label": "secondaryStableCoin",
        "offset": 0,
        "slot": "3",
        "type": "t_address"
      },
      {
        "astId": 8678,
        "contract": "contracts/core/StableCoinProvider.sol:StableCoinProvider",
        "label": "__secondaryStableCoinDecimals",
        "offset": 20,
        "slot": "3",
        "type": "t_uint8"
      }
    ],
    "types": {
      "t_address": {
        "encoding": "inplace",
        "label": "address",
        "numberOfBytes": "20"
      },
      "t_uint256": {
        "encoding": "inplace",
        "label": "uint256",
        "numberOfBytes": "32"
      },
      "t_uint8": {
        "encoding": "inplace",
        "label": "uint8",
        "numberOfBytes": "1"
      }
    }
  }
}