{
  "address": "0x790E5f103Ab69122FC5D9A3d5216Fad11FE36ACb",
  "abi": [
    {
      "inputs": [
        {
          "internalType": "address",
          "name": "factory_",
          "type": "address"
        },
        {
          "internalType": "uint256",
          "name": "defaultTwapPeriod_",
          "type": "uint256"
        },
        {
          "internalType": "address",
          "name": "nativeToken_",
          "type": "address"
        },
        {
          "internalType": "contract IStableCoinProvider",
          "name": "stableCoinProvider_",
          "type": "address"
        }
      ],
      "stateMutability": "nonpayable",
      "type": "constructor"
    },
    {
      "anonymous": false,
      "inputs": [
        {
          "indexed": false,
          "internalType": "uint256",
          "name": "oldTwapPeriod",
          "type": "uint256"
        },
        {
          "indexed": false,
          "internalType": "uint256",
          "name": "newTwapPeriod",
          "type": "uint256"
        }
      ],
      "name": "DefaultTwapPeriodUpdated",
      "type": "event"
    },
    {
      "anonymous": false,
      "inputs": [
        {
          "indexed": false,
          "internalType": "uint8",
          "name": "version",
          "type": "uint8"
        }
      ],
      "name": "Initialized",
      "type": "event"
    },
    {
      "anonymous": false,
      "inputs": [
        {
          "indexed": false,
          "internalType": "contract IStableCoinProvider",
          "name": "oldStableCoinProvider",
          "type": "address"
        },
        {
          "indexed": false,
          "internalType": "contract IStableCoinProvider",
          "name": "newStableCoinProvider",
          "type": "address"
        }
      ],
      "name": "StableCoinProviderUpdated",
      "type": "event"
    },
    {
      "anonymous": false,
      "inputs": [
        {
          "indexed": true,
          "internalType": "address",
          "name": "previousGovernor",
          "type": "address"
        },
        {
          "indexed": true,
          "internalType": "address",
          "name": "proposedGovernor",
          "type": "address"
        }
      ],
      "name": "UpdatedGovernor",
      "type": "event"
    },
    {
      "inputs": [],
      "name": "USD_DECIMALS",
      "outputs": [
        {
          "internalType": "uint256",
          "name": "",
          "type": "uint256"
        }
      ],
      "stateMutability": "view",
      "type": "function"
    },
    {
      "inputs": [],
      "name": "acceptGovernorship",
      "outputs": [],
      "stateMutability": "nonpayable",
      "type": "function"
    },
    {
      "inputs": [],
      "name": "defaultTwapPeriod",
      "outputs": [
        {
          "internalType": "uint256",
          "name": "",
          "type": "uint256"
        }
      ],
      "stateMutability": "view",
      "type": "function"
    },
    {
      "inputs": [],
      "name": "factory",
      "outputs": [
        {
          "internalType": "address",
          "name": "",
          "type": "address"
        }
      ],
      "stateMutability": "view",
      "type": "function"
    },
    {
      "inputs": [
        {
          "internalType": "address",
          "name": "token_",
          "type": "address"
        }
      ],
      "name": "getPriceInUsd",
      "outputs": [
        {
          "internalType": "uint256",
          "name": "_priceInUsd",
          "type": "uint256"
        },
        {
          "internalType": "uint256",
          "name": "_lastUpdatedAt",
          "type": "uint256"
        }
      ],
      "stateMutability": "view",
      "type": "function"
    },
    {
      "inputs": [
        {
          "internalType": "address",
          "name": "token_",
          "type": "address"
        },
        {
          "internalType": "uint256",
          "name": "twapPeriod_",
          "type": "uint256"
        }
      ],
      "name": "getPriceInUsd",
      "outputs": [
        {
          "internalType": "uint256",
          "name": "_priceInUsd",
          "type": "uint256"
        },
        {
          "internalType": "uint256",
          "name": "_lastUpdatedAt",
          "type": "uint256"
        }
      ],
      "stateMutability": "view",
      "type": "function"
    },
    {
      "inputs": [],
      "name": "governor",
      "outputs": [
        {
          "internalType": "address",
          "name": "",
          "type": "address"
        }
      ],
      "stateMutability": "view",
      "type": "function"
    },
    {
      "inputs": [
        {
          "internalType": "contract IUniswapV2Pair",
          "name": "pair_",
          "type": "address"
        },
        {
          "internalType": "uint256",
          "name": "twapPeriod_",
          "type": "uint256"
        }
      ],
      "name": "hasOracle",
      "outputs": [
        {
          "internalType": "bool",
          "name": "",
          "type": "bool"
        }
      ],
      "stateMutability": "view",
      "type": "function"
    },
    {
      "inputs": [
        {
          "internalType": "contract IUniswapV2Pair",
          "name": "pair_",
          "type": "address"
        }
      ],
      "name": "hasOracle",
      "outputs": [
        {
          "internalType": "bool",
          "name": "",
          "type": "bool"
        }
      ],
      "stateMutability": "view",
      "type": "function"
    },
    {
      "inputs": [],
      "name": "nativeToken",
      "outputs": [
        {
          "internalType": "address",
          "name": "",
          "type": "address"
        }
      ],
      "stateMutability": "view",
      "type": "function"
    },
    {
      "inputs": [
        {
          "internalType": "contract IUniswapV2Pair",
          "name": "",
          "type": "address"
        },
        {
          "internalType": "uint256",
          "name": "",
          "type": "uint256"
        }
      ],
      "name": "oracles",
      "outputs": [
        {
          "internalType": "address",
          "name": "token0",
          "type": "address"
        },
        {
          "internalType": "address",
          "name": "token1",
          "type": "address"
        },
        {
          "internalType": "uint256",
          "name": "price0CumulativeLast",
          "type": "uint256"
        },
        {
          "internalType": "uint256",
          "name": "price1CumulativeLast",
          "type": "uint256"
        },
        {
          "internalType": "uint32",
          "name": "blockTimestampLast",
          "type": "uint32"
        },
        {
          "components": [
            {
              "internalType": "uint224",
              "name": "_x",
              "type": "uint224"
            }
          ],
          "internalType": "struct FixedPoint.uq112x112",
          "name": "price0Average",
          "type": "tuple"
        },
        {
          "components": [
            {
              "internalType": "uint224",
              "name": "_x",
              "type": "uint224"
            }
          ],
          "internalType": "struct FixedPoint.uq112x112",
          "name": "price1Average",
          "type": "tuple"
        }
      ],
      "stateMutability": "view",
      "type": "function"
    },
    {
      "inputs": [
        {
          "internalType": "address",
          "name": "token0_",
          "type": "address"
        },
        {
          "internalType": "address",
          "name": "token1_",
          "type": "address"
        }
      ],
      "name": "pairFor",
      "outputs": [
        {
          "internalType": "contract IUniswapV2Pair",
          "name": "_pair",
          "type": "address"
        }
      ],
      "stateMutability": "view",
      "type": "function"
    },
    {
      "inputs": [
        {
          "internalType": "address",
          "name": "tokenIn_",
          "type": "address"
        },
        {
          "internalType": "address",
          "name": "tokenOut_",
          "type": "address"
        },
        {
          "internalType": "uint256",
          "name": "twapPeriod_",
          "type": "uint256"
        },
        {
          "internalType": "uint256",
          "name": "amountIn_",
          "type": "uint256"
        }
      ],
      "name": "quote",
      "outputs": [
        {
          "internalType": "uint256",
          "name": "_amountOut",
          "type": "uint256"
        },
        {
          "internalType": "uint256",
          "name": "_lastUpdatedAt",
          "type": "uint256"
        }
      ],
      "stateMutability": "view",
      "type": "function"
    },
    {
      "inputs": [
        {
          "internalType": "address",
          "name": "tokenIn_",
          "type": "address"
        },
        {
          "internalType": "address",
          "name": "tokenOut_",
          "type": "address"
        },
        {
          "internalType": "uint256",
          "name": "amountIn_",
          "type": "uint256"
        }
      ],
      "name": "quote",
      "outputs": [
        {
          "internalType": "uint256",
          "name": "_amountOut",
          "type": "uint256"
        },
        {
          "internalType": "uint256",
          "name": "_lastUpdatedAt",
          "type": "uint256"
        }
      ],
      "stateMutability": "view",
      "type": "function"
    },
    {
      "inputs": [
        {
          "internalType": "address",
          "name": "token_",
          "type": "address"
        },
        {
          "internalType": "uint256",
          "name": "amountIn_",
          "type": "uint256"
        }
      ],
      "name": "quoteTokenToUsd",
      "outputs": [
        {
          "internalType": "uint256",
          "name": "_amountOut",
          "type": "uint256"
        },
        {
          "internalType": "uint256",
          "name": "_lastUpdatedAt",
          "type": "uint256"
        }
      ],
      "stateMutability": "view",
      "type": "function"
    },
    {
      "inputs": [
        {
          "internalType": "address",
          "name": "token_",
          "type": "address"
        },
        {
          "internalType": "uint256",
          "name": "amountIn_",
          "type": "uint256"
        },
        {
          "internalType": "uint256",
          "name": "twapPeriod_",
          "type": "uint256"
        }
      ],
      "name": "quoteTokenToUsd",
      "outputs": [
        {
          "internalType": "uint256",
          "name": "_amountOut",
          "type": "uint256"
        },
        {
          "internalType": "uint256",
          "name": "_lastUpdatedAt",
          "type": "uint256"
        }
      ],
      "stateMutability": "view",
      "type": "function"
    },
    {
      "inputs": [
        {
          "internalType": "address",
          "name": "token_",
          "type": "address"
        },
        {
          "internalType": "uint256",
          "name": "amountIn_",
          "type": "uint256"
        },
        {
          "internalType": "uint256",
          "name": "twapPeriod_",
          "type": "uint256"
        }
      ],
      "name": "quoteUsdToToken",
      "outputs": [
        {
          "internalType": "uint256",
          "name": "_amountOut",
          "type": "uint256"
        },
        {
          "internalType": "uint256",
          "name": "_lastUpdatedAt",
          "type": "uint256"
        }
      ],
      "stateMutability": "view",
      "type": "function"
    },
    {
      "inputs": [
        {
          "internalType": "address",
          "name": "token_",
          "type": "address"
        },
        {
          "internalType": "uint256",
          "name": "amountIn_",
          "type": "uint256"
        }
      ],
      "name": "quoteUsdToToken",
      "outputs": [
        {
          "internalType": "uint256",
          "name": "_amountOut",
          "type": "uint256"
        },
        {
          "internalType": "uint256",
          "name": "_lastUpdatedAt",
          "type": "uint256"
        }
      ],
      "stateMutability": "view",
      "type": "function"
    },
    {
      "inputs": [],
      "name": "stableCoinProvider",
      "outputs": [
        {
          "internalType": "contract IStableCoinProvider",
          "name": "",
          "type": "address"
        }
      ],
      "stateMutability": "view",
      "type": "function"
    },
    {
      "inputs": [
        {
          "internalType": "address",
          "name": "_proposedGovernor",
          "type": "address"
        }
      ],
      "name": "transferGovernorship",
      "outputs": [],
      "stateMutability": "nonpayable",
      "type": "function"
    },
    {
      "inputs": [
        {
          "internalType": "address",
          "name": "tokenIn_",
          "type": "address"
        },
        {
          "internalType": "address",
          "name": "tokenOut_",
          "type": "address"
        },
        {
          "internalType": "uint256",
          "name": "twapPeriod_",
          "type": "uint256"
        },
        {
          "internalType": "uint256",
          "name": "amountIn_",
          "type": "uint256"
        }
      ],
      "name": "updateAndQuote",
      "outputs": [
        {
          "internalType": "uint256",
          "name": "_amountOut",
          "type": "uint256"
        },
        {
          "internalType": "uint256",
          "name": "_lastUpdatedAt",
          "type": "uint256"
        }
      ],
      "stateMutability": "nonpayable",
      "type": "function"
    },
    {
      "inputs": [
        {
          "internalType": "address",
          "name": "tokenIn_",
          "type": "address"
        },
        {
          "internalType": "address",
          "name": "tokenOut_",
          "type": "address"
        },
        {
          "internalType": "uint256",
          "name": "amountIn_",
          "type": "uint256"
        }
      ],
      "name": "updateAndQuote",
      "outputs": [
        {
          "internalType": "uint256",
          "name": "_amountOut",
          "type": "uint256"
        },
        {
          "internalType": "uint256",
          "name": "_lastUpdatedAt",
          "type": "uint256"
        }
      ],
      "stateMutability": "nonpayable",
      "type": "function"
    },
    {
      "inputs": [
        {
          "internalType": "uint256",
          "name": "newDefaultTwapPeriod_",
          "type": "uint256"
        }
      ],
      "name": "updateDefaultTwapPeriod",
      "outputs": [],
      "stateMutability": "nonpayable",
      "type": "function"
    },
    {
      "inputs": [
        {
          "internalType": "address",
          "name": "tokenIn_",
          "type": "address"
        },
        {
          "internalType": "address",
          "name": "tokenOut_",
          "type": "address"
        },
        {
          "internalType": "uint256",
          "name": "twapPeriod_",
          "type": "uint256"
        }
      ],
      "name": "updateOrAdd",
      "outputs": [],
      "stateMutability": "nonpayable",
      "type": "function"
    },
    {
      "inputs": [
        {
          "internalType": "address",
          "name": "tokenIn_",
          "type": "address"
        },
        {
          "internalType": "address",
          "name": "tokenOut_",
          "type": "address"
        }
      ],
      "name": "updateOrAdd",
      "outputs": [],
      "stateMutability": "nonpayable",
      "type": "function"
    },
    {
      "inputs": [
        {
          "internalType": "contract IStableCoinProvider",
          "name": "stableCoinProvider_",
          "type": "address"
        }
      ],
      "name": "updateStableCoinProvider",
      "outputs": [],
      "stateMutability": "nonpayable",
      "type": "function"
    }
  ],
  "transactionHash": "0x1335b6c60019c2471369b52c5b5fa1dfdf6fae0cd2e1224ac7b0a49bad5dd50a",
  "args": [
    "0xC0AEe478e3658e2610c5F7A4A2E1777cE9e4f2Ac",
    7200,
    "0xC02aaA39b223FE8D0A0e5C4F27eAD9083C756Cc2",
    "0x0000000000000000000000000000000000000000"
  ],
  "numDeployments": 1,
  "solcInputHash": "b7d2ef77559d78105af4c2ea80b55c05",
  "bytecode": "0x60c06040523480156200001157600080fd5b506040516200216a3803806200216a833981016040819052620000349162000117565b6000805462010000600160b01b03191633620100008102919091178255604051839282917fd4459d5b8b913cab0244230fd9b1c08b6ceace7fe9230e60d0f74cbffdf849d0908290a350600280546001600160a01b0319166001600160a01b039283161790558416620000df5760405162461bcd60e51b815260206004820152600f60248201526e199858dd1bdc9e4b5a5ccb5b9d5b1b608a1b604482015260640160405180910390fd5b506003919091556001600160a01b039182166080521660a05262000173565b6001600160a01b03811681146200011457600080fd5b50565b600080600080608085870312156200012e57600080fd5b84516200013b81620000fe565b6020860151604087015191955093506200015581620000fe565b60608601519092506200016881620000fe565b939692955090935050565b60805160a051611fbc620001ae600039600081816104cc01528181610858015261088a01526000818161049201526109dc0152611fbc6000f3fe608060405234801561001057600080fd5b50600436106101ae5760003560e01c806372499689116100ee578063b5e9bef511610097578063c45a015511610071578063c45a01551461048d578063d0578a01146104b4578063e1758bd8146104c7578063f3b27bc3146104ee57600080fd5b8063b5e9bef514610454578063b646638414610467578063b6aa515b1461047a57600080fd5b806396ed28f9116100c857806396ed28f9146103265780639f15ec9d14610339578063a00a8b2c1461034c57600080fd5b806372499689146102f757806384e0b2331461030a5780638d0dba001461031357600080fd5b80632082615f1161015b5780633c414453116101355780633c414453146102ab57806341118ef4146102be5780634ad1a30e146102d1578063520b9355146102e457600080fd5b80632082615f1461026f57806320adc813146102825780632f6ee6951461029557600080fd5b80631676a0bf1161018c5780631676a0bf14610226578063180c930914610249578063197dd8c01461025c57600080fd5b806307ee40bf146101b35780630c340a24146101e05780631648b84614610211575b600080fd5b6101c66101c1366004611b53565b6104f6565b604080519283526020830191909152015b60405180910390f35b6000546101f9906201000090046001600160a01b031681565b6040516001600160a01b0390911681526020016101d7565b61022461021f366004611b70565b61050e565b005b610239610234366004611b89565b6105b5565b60405190151581526020016101d7565b610239610257366004611b53565b6105ea565b61022461026a366004611bb5565b6105f8565b6002546101f9906001600160a01b031681565b610224610290366004611b53565b61062f565b61029d601281565b6040519081526020016101d7565b6101c66102b9366004611bf6565b610711565b6102246102cc366004611c2b565b6107c4565b6101c66102df366004611c64565b6107d5565b6101c66102f2366004611c64565b6107fd565b6101c6610305366004611bb5565b6108cc565b61029d60035481565b6101c6610321366004611b89565b6108e9565b6101f9610334366004611c2b565b610999565b6101c6610347366004611bf6565b610a5f565b6103ea61035a366004611b89565b60046020818152600093845260408085208252928452928290208054600182015460028301546003840154948401548651808901885260058601547bffffffffffffffffffffffffffffffffffffffffffffffffffffffff90811682528851998a0190985260069095015490961687526001600160a01b0392831696929091169490939263ffffffff9091169187565b604080516001600160a01b03988916815297909616602088015294860193909352606085019190915263ffffffff166080840152517bffffffffffffffffffffffffffffffffffffffffffffffffffffffff90811660a084015290511660c082015260e0016101d7565b6101c6610462366004611b89565b610afc565b6101c6610475366004611bb5565b610b99565b610224610488366004611b53565b610baa565b6101f97f000000000000000000000000000000000000000000000000000000000000000081565b6101c66104c2366004611b89565b610c9b565b6101f97f000000000000000000000000000000000000000000000000000000000000000081565b610224610e9c565b60008061050583600354610c9b565b91509150915091565b6000546001600160a01b03620100009091041633146105745760405162461bcd60e51b815260206004820152600c60248201527f6e6f742d676f7665726e6f72000000000000000000000000000000000000000060448201526064015b60405180910390fd5b60035460408051918252602082018390527fb2d6c0b99b0405017e8d7385ed0ec304b6c63fcd04917f2fb5e6c88c75ad947a910160405180910390a1600355565b6001600160a01b0382166000908152600460208181526040808420858552909152909120015463ffffffff1615155b92915050565b60006105e4826003546105b5565b60006106048484610999565b905061061081836105b5565b61061e5761061e8183610f9c565b6106288183611440565b5050505050565b6000546001600160a01b03620100009091041633146106905760405162461bcd60e51b815260206004820152600c60248201527f6e6f742d676f7665726e6f720000000000000000000000000000000000000000604482015260640161056b565b600254604080516001600160a01b03928316815291831660208301527fae68fa83120514f5b4621d968a310169ce214a66994debd1638e3ff3ec61dc9d910160405180910390a1600280547fffffffffffffffffffffffff0000000000000000000000000000000000000000166001600160a01b0392909216919091179055565b60008060006107208685610c9b565b809350819250505080866001600160a01b031663313ce5676040518163ffffffff1660e01b815260040160206040518083038186803b15801561076257600080fd5b505afa158015610776573d6000803e3d6000fd5b505050506040513d601f19601f8201168201806040525081019061079a9190611caa565b6107a590600a611de0565b6107af9087611def565b6107b99190611e3d565b925050935093915050565b6107d182826003546105f8565b5050565b6000806107e38686866105f8565b6107ef868686866107fd565b915091505b94509492505050565b600080846001600160a01b0316866001600160a01b031614156108245750819050426107f4565b6108376108318787610999565b856105b5565b1561085257610848868686866115e0565b90925090506107f4565b61087e867f000000000000000000000000000000000000000000000000000000000000000086866115e0565b909250905060006108b17f00000000000000000000000000000000000000000000000000000000000000008787866115e0565b90935090506108c0818361172e565b91505094509492505050565b6000806108dd8585600354866107d5565b91509150935093915050565b60008060006108f7856104f6565b8093508192505050846001600160a01b031663313ce5676040518163ffffffff1660e01b815260040160206040518083038186803b15801561093857600080fd5b505afa15801561094c573d6000803e3d6000fd5b505050506040513d601f19601f820116820180604052508101906109709190611caa565b61097b90600a611de0565b6109858286611def565b61098f9190611e3d565b9250509250929050565b6040517fe6a439050000000000000000000000000000000000000000000000000000000081526001600160a01b03838116600483015282811660248301526000917f00000000000000000000000000000000000000000000000000000000000000009091169063e6a439059060440160206040518083038186803b158015610a2057600080fd5b505afa158015610a34573d6000803e3d6000fd5b505050506040513d601f19601f82011682018060405250810190610a589190611e51565b9392505050565b6000806000610a6e8685610c9b565b8093508192505050856001600160a01b031663313ce5676040518163ffffffff1660e01b815260040160206040518083038186803b158015610aaf57600080fd5b505afa158015610ac3573d6000803e3d6000fd5b505050506040513d601f19601f82011682018060405250810190610ae79190611caa565b610af290600a611de0565b6107af8287611def565b6000806000610b0a856104f6565b809350819250505080856001600160a01b031663313ce5676040518163ffffffff1660e01b815260040160206040518083038186803b158015610b4c57600080fd5b505afa158015610b60573d6000803e3d6000fd5b505050506040513d601f19601f82011682018060405250810190610b849190611caa565b610b8f90600a611de0565b6109859086611def565b6000806108dd8585600354866107fd565b6000546001600160a01b0362010000909104163314610c0b5760405162461bcd60e51b815260206004820152600c60248201527f6e6f742d676f7665726e6f720000000000000000000000000000000000000000604482015260640161056b565b6001600160a01b038116610c615760405162461bcd60e51b815260206004820152601960248201527f70726f706f7365642d676f7665726e6f722d69732d7a65726f00000000000000604482015260640161056b565b600180547fffffffffffffffffffffffff0000000000000000000000000000000000000000166001600160a01b0392909216919091179055565b60025460009081906001600160a01b0316610cf85760405162461bcd60e51b815260206004820152601960248201527f737461626c652d636f696e2d6e6f742d737570706f7274656400000000000000604482015260640161056b565b6000610e0185600260009054906101000a90046001600160a01b03166001600160a01b03166384537f0e6040518163ffffffff1660e01b815260040160206040518083038186803b158015610d4c57600080fd5b505afa158015610d60573d6000803e3d6000fd5b505050506040513d601f19601f82011682018060405250810190610d849190611e51565b86886001600160a01b031663313ce5676040518163ffffffff1660e01b815260040160206040518083038186803b158015610dbe57600080fd5b505afa158015610dd2573d6000803e3d6000fd5b505050506040513d601f19601f82011682018060405250810190610df69190611caa565b6102f290600a611de0565b6002546040517fba55f5c1000000000000000000000000000000000000000000000000000000008152600481018490529194509192506001600160a01b039091169063ba55f5c19060240160206040518083038186803b158015610e6457600080fd5b505afa158015610e78573d6000803e3d6000fd5b505050506040513d601f19601f8201168201806040525081019061098f9190611e6e565b6001546001600160a01b03163314610ef65760405162461bcd60e51b815260206004820152601960248201527f6e6f742d7468652d70726f706f7365642d676f7665726e6f7200000000000000604482015260640161056b565b600154600080546040516001600160a01b039384169362010000909204909116917fd4459d5b8b913cab0244230fd9b1c08b6ceace7fe9230e60d0f74cbffdf849d091a360018054600080547fffffffffffffffffffff0000000000000000000000000000000000000000ffff166001600160a01b03831662010000021790557fffffffffffffffffffffffff0000000000000000000000000000000000000000169055565b6001600160a01b038216610ff25760405162461bcd60e51b815260206004820152600c60248201527f696e76616c69642d706169720000000000000000000000000000000000000000604482015260640161056b565b6000806000846001600160a01b0316630902f1ac6040518163ffffffff1660e01b815260040160606040518083038186803b15801561103057600080fd5b505afa158015611044573d6000803e3d6000fd5b505050506040513d601f19601f820116820180604052508101906110689190611eaa565b925092509250826dffffffffffffffffffffffffffff1660001415801561109e57506dffffffffffffffffffffffffffff821615155b6110ea5760405162461bcd60e51b815260206004820152600b60248201527f6e6f2d7265736572766573000000000000000000000000000000000000000000604482015260640161056b565b6040518060e00160405280866001600160a01b0316630dfe16816040518163ffffffff1660e01b815260040160206040518083038186803b15801561112e57600080fd5b505afa158015611142573d6000803e3d6000fd5b505050506040513d601f19601f820116820180604052508101906111669190611e51565b6001600160a01b03168152602001866001600160a01b031663d21220a76040518163ffffffff1660e01b815260040160206040518083038186803b1580156111ad57600080fd5b505afa1580156111c1573d6000803e3d6000fd5b505050506040513d601f19601f820116820180604052508101906111e59190611e51565b6001600160a01b03168152602001866001600160a01b0316635909c0d56040518163ffffffff1660e01b815260040160206040518083038186803b15801561122c57600080fd5b505afa158015611240573d6000803e3d6000fd5b505050506040513d601f19601f820116820180604052508101906112649190611e6e565b8152602001866001600160a01b0316635a3d54936040518163ffffffff1660e01b815260040160206040518083038186803b1580156112a257600080fd5b505afa1580156112b6573d6000803e3d6000fd5b505050506040513d601f19601f820116820180604052508101906112da9190611e6e565b815263ffffffff928316602080830191909152604080518083018252600090819052815180840183528181528285015281518084018352819052815180840183528181526060948501526001600160a01b03998a1681526004808452828220998252988352819020845181547fffffffffffffffffffffffff0000000000000000000000000000000000000000908116918c16919091178255928501516001820180549094169a169990991790915582015160028801558101516003870155608081015194860180547fffffffffffffffffffffffffffffffffffffffffffffffffffffffff000000001695909216949094179055505060a0810151516005830180547fffffffff000000000000000000000000000000000000000000000000000000009081167bffffffffffffffffffffffffffffffffffffffffffffffffffffffff9384161790915560c09092015151600690930180549092169216919091179055565b6001600160a01b0382166000908152600460209081526040808320848452909152812081808061146f87611744565b6004870154929550909350915063ffffffff908116820390811687111561149e576000955050505050506105e4565b6002850154600386015460408051602081019091529186039190850390806114cc63ffffffff861685611e3d565b7bffffffffffffffffffffffffffffffffffffffffffffffffffffffff90811690915290516005890180547fffffffff00000000000000000000000000000000000000000000000000000000169190921617905560408051602081019091528061153c63ffffffff861684611e3d565b7bffffffffffffffffffffffffffffffffffffffffffffffffffffffff90811690915290516006890180547fffffffff00000000000000000000000000000000000000000000000000000000169190921617905550505060028401929092556003830155600490910180547fffffffffffffffffffffffffffffffffffffffffffffffffffffffff000000001663ffffffff90921691909117905550600192915050565b6000806000600460006115f38989610999565b6001600160a01b039081168252602080830193909352604091820160009081208982528452829020825160e081018452815483168152600182015483168186015260028201548185015260038201546060820152600482015463ffffffff1660808201528351808601855260058301547bffffffffffffffffffffffffffffffffffffffffffffffffffffffff908116825260a08301919091528451958601909452600690910154909216835260c08201929092528051909250888216911614156116ed5760a08101516116d2906116cb908661196e565b5160701c90565b71ffffffffffffffffffffffffffffffffffff169250611717565b60c0810151611700906116cb908661196e565b71ffffffffffffffffffffffffffffffffffff1692505b806080015163ffffffff1691505094509492505050565b600081831061173d5781610a58565b5090919050565b6000806000611751611a47565b9050836001600160a01b0316635909c0d56040518163ffffffff1660e01b815260040160206040518083038186803b15801561178c57600080fd5b505afa1580156117a0573d6000803e3d6000fd5b505050506040513d601f19601f820116820180604052508101906117c49190611e6e565b9250836001600160a01b0316635a3d54936040518163ffffffff1660e01b815260040160206040518083038186803b1580156117ff57600080fd5b505afa158015611813573d6000803e3d6000fd5b505050506040513d601f19601f820116820180604052508101906118379190611e6e565b91506000806000866001600160a01b0316630902f1ac6040518163ffffffff1660e01b815260040160606040518083038186803b15801561187757600080fd5b505afa15801561188b573d6000803e3d6000fd5b505050506040513d601f19601f820116820180604052508101906118af9190611eaa565b9250925092508363ffffffff168163ffffffff16146119645760006118d48286611efa565b90508063ffffffff166118e78486611a5d565b5161191091907bffffffffffffffffffffffffffffffffffffffffffffffffffffffff16611def565b61191a9088611f1f565b96508063ffffffff1661192d8585611a5d565b5161195691907bffffffffffffffffffffffffffffffffffffffffffffffffffffffff16611def565b6119609087611f1f565b9550505b5050509193909250565b60408051602081019091526000815260008215806119c0575083517bffffffffffffffffffffffffffffffffffffffffffffffffffffffff16836119b28183611def565b92506119be9083611e3d565b145b611a325760405162461bcd60e51b815260206004820152602360248201527f4669786564506f696e743a204d554c5449504c49434154494f4e5f4f5645524660448201527f4c4f570000000000000000000000000000000000000000000000000000000000606482015260840161056b565b60408051602081019091529081529392505050565b6000611a5864010000000042611f37565b905090565b6040805160208101909152600081526000826dffffffffffffffffffffffffffff1611611acc5760405162461bcd60e51b815260206004820152601760248201527f4669786564506f696e743a204449565f42595f5a45524f000000000000000000604482015260640161056b565b604080516020810190915280611b146dffffffffffffffffffffffffffff85167bffffffffffffffffffffffffffff0000000000000000000000000000607088901b16611f4b565b7bffffffffffffffffffffffffffffffffffffffffffffffffffffffff1690529392505050565b6001600160a01b0381168114611b5057600080fd5b50565b600060208284031215611b6557600080fd5b8135610a5881611b3b565b600060208284031215611b8257600080fd5b5035919050565b60008060408385031215611b9c57600080fd5b8235611ba781611b3b565b946020939093013593505050565b600080600060608486031215611bca57600080fd5b8335611bd581611b3b565b92506020840135611be581611b3b565b929592945050506040919091013590565b600080600060608486031215611c0b57600080fd5b8335611c1681611b3b565b95602085013595506040909401359392505050565b60008060408385031215611c3e57600080fd5b8235611c4981611b3b565b91506020830135611c5981611b3b565b809150509250929050565b60008060008060808587031215611c7a57600080fd5b8435611c8581611b3b565b93506020850135611c9581611b3b565b93969395505050506040820135916060013590565b600060208284031215611cbc57600080fd5b815160ff81168114610a5857600080fd5b7f4e487b7100000000000000000000000000000000000000000000000000000000600052601160045260246000fd5b600181815b80851115611d37578160001904821115611d1d57611d1d611ccd565b80851615611d2a57918102915b93841c9390800290611d01565b509250929050565b600082611d4e575060016105e4565b81611d5b575060006105e4565b8160018114611d715760028114611d7b57611d97565b60019150506105e4565b60ff841115611d8c57611d8c611ccd565b50506001821b6105e4565b5060208310610133831016604e8410600b8410161715611dba575081810a6105e4565b611dc48383611cfc565b8060001904821115611dd857611dd8611ccd565b029392505050565b6000610a5860ff841683611d3f565b6000816000190483118215151615611e0957611e09611ccd565b500290565b7f4e487b7100000000000000000000000000000000000000000000000000000000600052601260045260246000fd5b600082611e4c57611e4c611e0e565b500490565b600060208284031215611e6357600080fd5b8151610a5881611b3b565b600060208284031215611e8057600080fd5b5051919050565b80516dffffffffffffffffffffffffffff81168114611ea557600080fd5b919050565b600080600060608486031215611ebf57600080fd5b611ec884611e87565b9250611ed660208501611e87565b9150604084015163ffffffff81168114611eef57600080fd5b809150509250925092565b600063ffffffff83811690831681811015611f1757611f17611ccd565b039392505050565b60008219821115611f3257611f32611ccd565b500190565b600082611f4657611f46611e0e565b500690565b60007bffffffffffffffffffffffffffffffffffffffffffffffffffffffff80841680611f7a57611f7a611e0e565b9216919091049291505056fea2646970667358221220081b83d516bd7497814d1958ed2647c1c00d535a42a29811847bde06a799199c64736f6c63430008090033",
  "devdoc": {
    "kind": "dev",
    "methods": {
      "acceptGovernorship()": {
        "details": "Allows new governor to accept governorship of the contract."
      },
      "getPriceInUsd(address)": {
        "params": {
          "token_": "The address of asset"
        },
        "returns": {
          "_lastUpdatedAt": "Last updated timestamp",
          "_priceInUsd": "The USD price"
        }
      },
      "getPriceInUsd(address,uint256)": {
        "params": {
          "token_": "The address of assetIn",
          "twapPeriod_": "The TWAP period"
        },
        "returns": {
          "_lastUpdatedAt": "Last updated timestamp",
          "_priceInUsd": "The USD price"
        }
      },
      "hasOracle(address)": {
        "details": "Uses `defaultTwapPeriod`",
        "params": {
          "pair_": "The pair"
        },
        "returns": {
          "_0": "True if exists"
        }
      },
      "hasOracle(address,uint256)": {
        "params": {
          "pair_": "The pair",
          "twapPeriod_": "The TWAP period"
        },
        "returns": {
          "_0": "True if exists"
        }
      },
      "quote(address,address,uint256)": {
        "params": {
          "amountIn_": "Amount of input token",
          "tokenIn_": "The address of assetIn",
          "tokenOut_": "The address of assetOut"
        },
        "returns": {
          "_amountOut": "Amount out",
          "_lastUpdatedAt": "Last updated timestamp"
        }
      },
      "quote(address,address,uint256,uint256)": {
        "params": {
          "amountIn_": "Amount of input token",
          "tokenIn_": "The address of assetIn",
          "tokenOut_": "The address of assetOut",
          "twapPeriod_": "The TWAP period"
        },
        "returns": {
          "_amountOut": "Amount out",
          "_lastUpdatedAt": "Last updated timestamp"
        }
      },
      "quoteTokenToUsd(address,uint256)": {
        "params": {
          "amountIn_": "Amount of input token.",
          "token_": "The address of assetIn"
        },
        "returns": {
          "_amountOut": "Amount in USD",
          "_lastUpdatedAt": "Last updated timestamp"
        }
      },
      "quoteTokenToUsd(address,uint256,uint256)": {
        "params": {
          "amountIn_": "Amount of input token.",
          "token_": "The address of assetIn",
          "twapPeriod_": "The TWAP period"
        },
        "returns": {
          "_amountOut": "Amount in USD",
          "_lastUpdatedAt": "Last updated timestamp"
        }
      },
      "quoteUsdToToken(address,uint256)": {
        "params": {
          "amountIn_": "Input amount in USD",
          "token_": "The address of assetOut"
        },
        "returns": {
          "_amountOut": "Output amount of token",
          "_lastUpdatedAt": "Last updated timestamp"
        }
      },
      "quoteUsdToToken(address,uint256,uint256)": {
        "params": {
          "amountIn_": "Input amount in USD",
          "token_": "The address of assetIn",
          "twapPeriod_": "The TWAP period"
        },
        "returns": {
          "_amountOut": "Output amount of token",
          "_lastUpdatedAt": "Last updated timestamp"
        }
      },
      "transferGovernorship(address)": {
        "details": "Transfers governorship of the contract to a new account (`proposedGovernor`). Can only be called by the current owner."
      },
      "updateAndQuote(address,address,uint256)": {
        "details": "Will update the oracle if needed before getting quoteUses `defaultTwapPeriod`",
        "params": {
          "amountIn_": "Amount of input token",
          "tokenIn_": "The address of assetIn",
          "tokenOut_": "The address of assetOut"
        },
        "returns": {
          "_amountOut": "Amount out",
          "_lastUpdatedAt": "Last updated timestamp"
        }
      },
      "updateAndQuote(address,address,uint256,uint256)": {
        "details": "Will update the oracle if needed before getting quote",
        "params": {
          "amountIn_": "Amount of input token",
          "tokenIn_": "The address of assetIn",
          "tokenOut_": "The address of assetOut",
          "twapPeriod_": "The TWAP period"
        },
        "returns": {
          "_amountOut": "Amount out",
          "_lastUpdatedAt": "Last updated timestamp"
        }
      },
      "updateDefaultTwapPeriod(uint256)": {
        "details": "Administrative function",
        "params": {
          "newDefaultTwapPeriod_": "The new default period"
        }
      },
      "updateOrAdd(address,address)": {
        "details": "Will create the pair if it doesn't existUses `defaultTwapPeriod`",
        "params": {
          "tokenIn_": "The address of assetIn",
          "tokenOut_": "The address of assetOut"
        }
      },
      "updateOrAdd(address,address,uint256)": {
        "details": "Will create the pair if it doesn't exist",
        "params": {
          "tokenIn_": "The address of assetIn",
          "tokenOut_": "The address of assetOut",
          "twapPeriod_": "The TWAP period"
        }
      }
    },
    "stateVariables": {
      "defaultTwapPeriod": {
        "details": "See more: https://docs.uniswap.org/protocol/concepts/V3-overview/oracle"
      },
      "oracles": {
        "details": "pair => twapPeriod => oracle"
      }
    },
    "title": "UniswapV2 (and forks) TWAP Oracle implementation Based on https://github.com/Uniswap/v2-periphery/blob/master/contracts/examples/ExampleOracleSimple.sol",
    "version": 1
  },
  "userdoc": {
    "events": {
      "DefaultTwapPeriodUpdated(uint256,uint256)": {
        "notice": "Emitted when default TWAP period is updated"
      },
      "StableCoinProviderUpdated(address,address)": {
        "notice": "Emitted when stable coin provider is updated"
      }
    },
    "kind": "user",
    "methods": {
      "defaultTwapPeriod()": {
        "notice": "The default time-weighted average price (TWAP) period Used when a period isn't specified"
      },
      "factory()": {
        "notice": "The UniswapV2-like factory's address"
      },
      "getPriceInUsd(address)": {
        "notice": "Get USD (or equivalent) price of an asset"
      },
      "getPriceInUsd(address,uint256)": {
        "notice": "Get USD (or equivalent) price of an asset"
      },
      "hasOracle(address)": {
        "notice": "Check if there is an oracle for the PAIR-TWAP key"
      },
      "hasOracle(address,uint256)": {
        "notice": "Check if there is an oracle for the PAIR-TWAP key"
      },
      "nativeToken()": {
        "notice": "The native wrapped token (e.g. WETH, WAVAX, WMATIC, etc)"
      },
      "oracles(address,uint256)": {
        "notice": "Oracles'"
      },
      "pairFor(address,address)": {
        "notice": "Returns the pair's contract"
      },
      "quote(address,address,uint256)": {
        "notice": "Get quote"
      },
      "quote(address,address,uint256,uint256)": {
        "notice": "Get quote"
      },
      "quoteTokenToUsd(address,uint256)": {
        "notice": "Get quote in USD (or equivalent) amount"
      },
      "quoteTokenToUsd(address,uint256,uint256)": {
        "notice": "Get quote in USD (or equivalent) amount"
      },
      "quoteUsdToToken(address,uint256)": {
        "notice": "Get quote from USD (or equivalent) amount to amount of token"
      },
      "quoteUsdToToken(address,uint256,uint256)": {
        "notice": "Get quote from USD (or equivalent) amount to amount of token"
      },
      "stableCoinProvider()": {
        "notice": "The StableCoinProvider contract"
      },
      "updateAndQuote(address,address,uint256)": {
        "notice": "Get quote"
      },
      "updateAndQuote(address,address,uint256,uint256)": {
        "notice": "Get quote"
      },
      "updateDefaultTwapPeriod(uint256)": {
        "notice": "Update the default TWAP period"
      },
      "updateOrAdd(address,address)": {
        "notice": "Update cumulative and average price of pair"
      },
      "updateOrAdd(address,address,uint256)": {
        "notice": "Update cumulative and average price of pair"
      },
      "updateStableCoinProvider(address)": {
        "notice": "Update StableCoinProvider contract"
      }
    },
    "version": 1
  },
  "storageLayout": {
    "storage": [
      {
        "astId": 420,
        "contract": "contracts/core/UniswapV2LikePriceProvider.sol:UniswapV2LikePriceProvider",
        "label": "_initialized",
        "offset": 0,
        "slot": "0",
        "type": "t_uint8"
      },
      {
        "astId": 423,
        "contract": "contracts/core/UniswapV2LikePriceProvider.sol:UniswapV2LikePriceProvider",
        "label": "_initializing",
        "offset": 1,
        "slot": "0",
        "type": "t_bool"
      },
      {
        "astId": 6513,
        "contract": "contracts/core/UniswapV2LikePriceProvider.sol:UniswapV2LikePriceProvider",
        "label": "governor",
        "offset": 2,
        "slot": "0",
        "type": "t_address"
      },
      {
        "astId": 6515,
        "contract": "contracts/core/UniswapV2LikePriceProvider.sol:UniswapV2LikePriceProvider",
        "label": "proposedGovernor",
        "offset": 0,
        "slot": "1",
        "type": "t_address"
      },
      {
        "astId": 11483,
        "contract": "contracts/core/UniswapV2LikePriceProvider.sol:UniswapV2LikePriceProvider",
        "label": "stableCoinProvider",
        "offset": 0,
        "slot": "2",
        "type": "t_contract(IStableCoinProvider)11826"
      },
      {
        "astId": 9392,
        "contract": "contracts/core/UniswapV2LikePriceProvider.sol:UniswapV2LikePriceProvider",
        "label": "defaultTwapPeriod",
        "offset": 0,
        "slot": "3",
        "type": "t_uint256"
      },
      {
        "astId": 9418,
        "contract": "contracts/core/UniswapV2LikePriceProvider.sol:UniswapV2LikePriceProvider",
        "label": "oracles",
        "offset": 0,
        "slot": "4",
        "type": "t_mapping(t_contract(IUniswapV2Pair)5649,t_mapping(t_uint256,t_struct(Oracle)9409_storage))"
      }
    ],
    "types": {
      "t_address": {
        "encoding": "inplace",
        "label": "address",
        "numberOfBytes": "20"
      },
      "t_bool": {
        "encoding": "inplace",
        "label": "bool",
        "numberOfBytes": "1"
      },
      "t_contract(IStableCoinProvider)11826": {
        "encoding": "inplace",
        "label": "contract IStableCoinProvider",
        "numberOfBytes": "20"
      },
      "t_contract(IUniswapV2Pair)5649": {
        "encoding": "inplace",
        "label": "contract IUniswapV2Pair",
        "numberOfBytes": "20"
      },
      "t_mapping(t_contract(IUniswapV2Pair)5649,t_mapping(t_uint256,t_struct(Oracle)9409_storage))": {
        "encoding": "mapping",
        "key": "t_contract(IUniswapV2Pair)5649",
        "label": "mapping(contract IUniswapV2Pair => mapping(uint256 => struct UniswapV2LikePriceProvider.Oracle))",
        "numberOfBytes": "32",
        "value": "t_mapping(t_uint256,t_struct(Oracle)9409_storage)"
      },
      "t_mapping(t_uint256,t_struct(Oracle)9409_storage)": {
        "encoding": "mapping",
        "key": "t_uint256",
        "label": "mapping(uint256 => struct UniswapV2LikePriceProvider.Oracle)",
        "numberOfBytes": "32",
        "value": "t_struct(Oracle)9409_storage"
      },
      "t_struct(Oracle)9409_storage": {
        "encoding": "inplace",
        "label": "struct UniswapV2LikePriceProvider.Oracle",
        "members": [
          {
            "astId": 9394,
            "contract": "contracts/core/UniswapV2LikePriceProvider.sol:UniswapV2LikePriceProvider",
            "label": "token0",
            "offset": 0,
            "slot": "0",
            "type": "t_address"
          },
          {
            "astId": 9396,
            "contract": "contracts/core/UniswapV2LikePriceProvider.sol:UniswapV2LikePriceProvider",
            "label": "token1",
            "offset": 0,
            "slot": "1",
            "type": "t_address"
          },
          {
            "astId": 9398,
            "contract": "contracts/core/UniswapV2LikePriceProvider.sol:UniswapV2LikePriceProvider",
            "label": "price0CumulativeLast",
            "offset": 0,
            "slot": "2",
            "type": "t_uint256"
          },
          {
            "astId": 9400,
            "contract": "contracts/core/UniswapV2LikePriceProvider.sol:UniswapV2LikePriceProvider",
            "label": "price1CumulativeLast",
            "offset": 0,
            "slot": "3",
            "type": "t_uint256"
          },
          {
            "astId": 9402,
            "contract": "contracts/core/UniswapV2LikePriceProvider.sol:UniswapV2LikePriceProvider",
            "label": "blockTimestampLast",
            "offset": 0,
            "slot": "4",
            "type": "t_uint32"
          },
          {
            "astId": 9405,
            "contract": "contracts/core/UniswapV2LikePriceProvider.sol:UniswapV2LikePriceProvider",
            "label": "price0Average",
            "offset": 0,
            "slot": "5",
            "type": "t_struct(uq112x112)5096_storage"
          },
          {
            "astId": 9408,
            "contract": "contracts/core/UniswapV2LikePriceProvider.sol:UniswapV2LikePriceProvider",
            "label": "price1Average",
            "offset": 0,
            "slot": "6",
            "type": "t_struct(uq112x112)5096_storage"
          }
        ],
        "numberOfBytes": "224"
      },
      "t_struct(uq112x112)5096_storage": {
        "encoding": "inplace",
        "label": "struct FixedPoint.uq112x112",
        "members": [
          {
            "astId": 5095,
            "contract": "contracts/core/UniswapV2LikePriceProvider.sol:UniswapV2LikePriceProvider",
            "label": "_x",
            "offset": 0,
            "slot": "0",
            "type": "t_uint224"
          }
        ],
        "numberOfBytes": "32"
      },
      "t_uint224": {
        "encoding": "inplace",
        "label": "uint224",
        "numberOfBytes": "28"
      },
      "t_uint256": {
        "encoding": "inplace",
        "label": "uint256",
        "numberOfBytes": "32"
      },
      "t_uint32": {
        "encoding": "inplace",
        "label": "uint32",
        "numberOfBytes": "4"
      },
      "t_uint8": {
        "encoding": "inplace",
        "label": "uint8",
        "numberOfBytes": "1"
      }
    }
  }
}