{
  "address": "0x21ce811b3EE51344BF9C2D3595dae56960F9b4A3",
  "abi": [
    {
      "inputs": [
        {
          "internalType": "contract IExchangeRateRegistry",
          "name": "exchangeRateRegistry_",
          "type": "address"
        }
      ],
      "stateMutability": "nonpayable",
      "type": "constructor"
    },
    {
      "inputs": [],
      "name": "ONE_USD",
      "outputs": [
        {
          "internalType": "uint256",
          "name": "",
          "type": "uint256"
        }
      ],
      "stateMutability": "view",
      "type": "function"
    },
    {
      "inputs": [],
      "name": "exchangeRateRegistry",
      "outputs": [
        {
          "internalType": "contract IExchangeRateRegistry",
          "name": "",
          "type": "address"
        }
      ],
      "stateMutability": "view",
      "type": "function"
    },
    {
      "inputs": [
        {
          "internalType": "address",
          "name": "token_",
          "type": "address"
        }
      ],
      "name": "getPriceInUsd",
      "outputs": [
        {
          "internalType": "uint256",
          "name": "",
          "type": "uint256"
        }
      ],
      "stateMutability": "view",
      "type": "function"
    }
  ],
  "transactionHash": "0xa82ab2eb53e1bad23e60186b56ebf87133dd360672a727dd0b5eee4dd9059cf6",
  "args": [
    "0xBbBe37FE58e9859b6943AC53bDf4d0827f7F0034"
  ],
  "numDeployments": 1,
  "solcInputHash": "e04a8a7ff0f0e4be0e617fa3b289ec90",
  "bytecode": "0x60a060405234801561001057600080fd5b5060405161091a38038061091a83398101604081905261002f91610040565b6001600160a01b0316608052610070565b60006020828403121561005257600080fd5b81516001600160a01b038116811461006957600080fd5b9392505050565b60805161088961009160003960008181607101526104d001526108896000f3fe608060405234801561001057600080fd5b50600436106100415760003560e01c806307ee40bf1461004657806337203c671461006c57806367781c0e146100b8575b600080fd5b61005961005436600461058f565b6100c7565b6040519081526020015b60405180910390f35b6100937f000000000000000000000000000000000000000000000000000000000000000081565b60405173ffffffffffffffffffffffffffffffffffffffff9091168152602001610063565b610059670de0b6b3a764000081565b60008082905060008173ffffffffffffffffffffffffffffffffffffffff166329db1be66040518163ffffffff1660e01b815260040160206040518083038186803b15801561011557600080fd5b505afa158015610129573d6000803e3d6000fd5b505050506040513d601f19601f8201168201806040525081019061014d91906105b3565b6040517f07ee40bf00000000000000000000000000000000000000000000000000000000815273ffffffffffffffffffffffffffffffffffffffff82166004820152909150339060009082906307ee40bf9060240160206040518083038186803b1580156101ba57600080fd5b505afa1580156101ce573d6000803e3d6000fd5b505050506040513d601f19601f820116820180604052508101906101f291906105d0565b905060088473ffffffffffffffffffffffffffffffffffffffff1663c19d93fb6040518163ffffffff1660e01b815260040160206040518083038186803b15801561023c57600080fd5b505afa158015610250573d6000803e3d6000fd5b505050506040513d601f19601f820116820180604052508101906102749190610618565b6008811115610285576102856105e9565b1415610481576000808573ffffffffffffffffffffffffffffffffffffffff166307ea4c016040518163ffffffff1660e01b815260040160806040518083038186803b1580156102d457600080fd5b505afa1580156102e8573d6000803e3d6000fd5b505050506040513d601f19601f8201168201806040525081019061030c919061065e565b93509350505060008673ffffffffffffffffffffffffffffffffffffffff1663313ce5676040518163ffffffff1660e01b815260040160206040518083038186803b15801561035a57600080fd5b505afa15801561036e573d6000803e3d6000fd5b505050506040513d601f19601f8201168201806040525081019061039291906106b2565b61039d90600a6107ea565b90506000826fffffffffffffffffffffffffffffffff16846fffffffffffffffffffffffffffffffff16836103d291906107f9565b6103dc9190610818565b90508673ffffffffffffffffffffffffffffffffffffffff1663313ce5676040518163ffffffff1660e01b815260040160206040518083038186803b15801561042457600080fd5b505afa158015610438573d6000803e3d6000fd5b505050506040513d601f19601f8201168201806040525081019061045c91906106b2565b60ff1661046982876107f9565b6104739190610818565b9a9950505050505050505050565b6040517fefb7601d00000000000000000000000000000000000000000000000000000000815273ffffffffffffffffffffffffffffffffffffffff8781166004830152670de0b6b3a7640000917f00000000000000000000000000000000000000000000000000000000000000009091169063efb7601d9060240160206040518083038186803b15801561051457600080fd5b505afa158015610528573d6000803e3d6000fd5b505050506040513d601f19601f8201168201806040525081019061054c91906105d0565b61055690836107f9565b6105609190610818565b9695505050505050565b73ffffffffffffffffffffffffffffffffffffffff8116811461058c57600080fd5b50565b6000602082840312156105a157600080fd5b81356105ac8161056a565b9392505050565b6000602082840312156105c557600080fd5b81516105ac8161056a565b6000602082840312156105e257600080fd5b5051919050565b7f4e487b7100000000000000000000000000000000000000000000000000000000600052602160045260246000fd5b60006020828403121561062a57600080fd5b8151600981106105ac57600080fd5b80516fffffffffffffffffffffffffffffffff8116811461065957600080fd5b919050565b6000806000806080858703121561067457600080fd5b61067d85610639565b935061068b60208601610639565b925061069960408601610639565b91506106a760608601610639565b905092959194509250565b6000602082840312156106c457600080fd5b815160ff811681146105ac57600080fd5b7f4e487b7100000000000000000000000000000000000000000000000000000000600052601160045260246000fd5b600181815b8085111561073f578160001904821115610725576107256106d5565b8085161561073257918102915b93841c9390800290610709565b509250929050565b600082610756575060016107e4565b81610763575060006107e4565b816001811461077957600281146107835761079f565b60019150506107e4565b60ff841115610794576107946106d5565b50506001821b6107e4565b5060208310610133831016604e8410600b84101617156107c2575081810a6107e4565b6107cc8383610704565b80600019048211156107e0576107e06106d5565b0290505b92915050565b60006105ac60ff841683610747565b6000816000190483118215151615610813576108136106d5565b500290565b60008261084e577f4e487b7100000000000000000000000000000000000000000000000000000000600052601260045260246000fd5b50049056fea26469706673582212200bd92deaf151a39ba86fe5ba8059d697b60cf322989289a8d26cfaf02c831c2064736f6c63430008090033",
  "devdoc": {
    "kind": "dev",
    "methods": {},
    "title": "Oracle for TBY tokens",
    "version": 1
  },
  "userdoc": {
    "kind": "user",
    "methods": {
      "getPriceInUsd(address)": {
        "notice": "Note: Until the maturity, we use the exchange rate to calculate TBY price When it enters the withdraw phase, exchange rate isn't accurate because: 1) Interest rate may vary and that could impact TBY price even after the maturity 2) After the maturity the actual TBY price is the redeemable USDC amount"
      }
    },
    "version": 1
  },
  "storageLayout": {
    "storage": [],
    "types": null
  }
}