{
  "address": "0x0F5e7ad77687c41Ca5a73185545cFEEd37e91910",
  "abi": [
    {
      "inputs": [
        {
          "internalType": "contract IUniswapV2Router02",
          "name": "router_",
          "type": "address"
        },
        {
          "internalType": "address",
          "name": "wethLike_",
          "type": "address"
        }
      ],
      "stateMutability": "nonpayable",
      "type": "constructor"
    },
    {
      "anonymous": false,
      "inputs": [
        {
          "indexed": false,
          "internalType": "uint8",
          "name": "version",
          "type": "uint8"
        }
      ],
      "name": "Initialized",
      "type": "event"
    },
    {
      "anonymous": false,
      "inputs": [
        {
          "indexed": true,
          "internalType": "address",
          "name": "previousGovernor",
          "type": "address"
        },
        {
          "indexed": true,
          "internalType": "address",
          "name": "proposedGovernor",
          "type": "address"
        }
      ],
      "name": "UpdatedGovernor",
      "type": "event"
    },
    {
      "anonymous": false,
      "inputs": [
        {
          "indexed": false,
          "internalType": "address",
          "name": "oldWethLike",
          "type": "address"
        },
        {
          "indexed": false,
          "internalType": "address",
          "name": "newWethLike",
          "type": "address"
        }
      ],
      "name": "WethLikeTokenUpdated",
      "type": "event"
    },
    {
      "inputs": [],
      "name": "acceptGovernorship",
      "outputs": [],
      "stateMutability": "nonpayable",
      "type": "function"
    },
    {
      "inputs": [
        {
          "internalType": "uint256",
          "name": "_amountOut",
          "type": "uint256"
        },
        {
          "internalType": "bytes",
          "name": "path_",
          "type": "bytes"
        }
      ],
      "name": "getAmountsIn",
      "outputs": [
        {
          "internalType": "uint256",
          "name": "_amountIn",
          "type": "uint256"
        }
      ],
      "stateMutability": "view",
      "type": "function"
    },
    {
      "inputs": [
        {
          "internalType": "uint256",
          "name": "amountIn_",
          "type": "uint256"
        },
        {
          "internalType": "bytes",
          "name": "path_",
          "type": "bytes"
        }
      ],
      "name": "getAmountsOut",
      "outputs": [
        {
          "internalType": "uint256",
          "name": "_amountOut",
          "type": "uint256"
        }
      ],
      "stateMutability": "view",
      "type": "function"
    },
    {
      "inputs": [
        {
          "internalType": "address",
          "name": "tokenIn_",
          "type": "address"
        },
        {
          "internalType": "address",
          "name": "tokenOut_",
          "type": "address"
        },
        {
          "internalType": "uint256",
          "name": "amountOut_",
          "type": "uint256"
        }
      ],
      "name": "getBestAmountIn",
      "outputs": [
        {
          "internalType": "uint256",
          "name": "_amountIn",
          "type": "uint256"
        },
        {
          "internalType": "bytes",
          "name": "_path",
          "type": "bytes"
        }
      ],
      "stateMutability": "nonpayable",
      "type": "function"
    },
    {
      "inputs": [
        {
          "internalType": "address",
          "name": "tokenIn_",
          "type": "address"
        },
        {
          "internalType": "address",
          "name": "tokenOut_",
          "type": "address"
        },
        {
          "internalType": "uint256",
          "name": "amountIn_",
          "type": "uint256"
        }
      ],
      "name": "getBestAmountOut",
      "outputs": [
        {
          "internalType": "uint256",
          "name": "_amountOut",
          "type": "uint256"
        },
        {
          "internalType": "bytes",
          "name": "_path",
          "type": "bytes"
        }
      ],
      "stateMutability": "nonpayable",
      "type": "function"
    },
    {
      "inputs": [],
      "name": "governor",
      "outputs": [
        {
          "internalType": "address",
          "name": "",
          "type": "address"
        }
      ],
      "stateMutability": "view",
      "type": "function"
    },
    {
      "inputs": [],
      "name": "router",
      "outputs": [
        {
          "internalType": "contract IUniswapV2Router02",
          "name": "",
          "type": "address"
        }
      ],
      "stateMutability": "view",
      "type": "function"
    },
    {
      "inputs": [
        {
          "internalType": "bytes",
          "name": "path_",
          "type": "bytes"
        },
        {
          "internalType": "uint256",
          "name": "amountIn_",
          "type": "uint256"
        },
        {
          "internalType": "uint256",
          "name": "amountOutMin_",
          "type": "uint256"
        },
        {
          "internalType": "address",
          "name": "outReceiver_",
          "type": "address"
        }
      ],
      "name": "swapExactInput",
      "outputs": [
        {
          "internalType": "uint256",
          "name": "_amountOut",
          "type": "uint256"
        }
      ],
      "stateMutability": "nonpayable",
      "type": "function"
    },
    {
      "inputs": [
        {
          "internalType": "bytes",
          "name": "path_",
          "type": "bytes"
        },
        {
          "internalType": "uint256",
          "name": "amountOut_",
          "type": "uint256"
        },
        {
          "internalType": "uint256",
          "name": "amountInMax_",
          "type": "uint256"
        },
        {
          "internalType": "address",
          "name": "inSender_",
          "type": "address"
        },
        {
          "internalType": "address",
          "name": "outRecipient_",
          "type": "address"
        }
      ],
      "name": "swapExactOutput",
      "outputs": [
        {
          "internalType": "uint256",
          "name": "_amountIn",
          "type": "uint256"
        }
      ],
      "stateMutability": "nonpayable",
      "type": "function"
    },
    {
      "inputs": [
        {
          "internalType": "address",
          "name": "_proposedGovernor",
          "type": "address"
        }
      ],
      "name": "transferGovernorship",
      "outputs": [],
      "stateMutability": "nonpayable",
      "type": "function"
    },
    {
      "inputs": [
        {
          "internalType": "address",
          "name": "wethLike_",
          "type": "address"
        }
      ],
      "name": "updateWethLikeToken",
      "outputs": [],
      "stateMutability": "nonpayable",
      "type": "function"
    },
    {
      "inputs": [],
      "name": "wethLike",
      "outputs": [
        {
          "internalType": "address",
          "name": "",
          "type": "address"
        }
      ],
      "stateMutability": "view",
      "type": "function"
    }
  ],
  "transactionHash": "0xa938f8452d6e93cad232da572db45c29e56b797316258077f707d0f9c8c67a8c",
  "args": [
    "0x7a250d5630B4cF539739dF2C5dAcb4c659F2488D",
    "0xC02aaA39b223FE8D0A0e5C4F27eAD9083C756Cc2"
  ],
  "numDeployments": 2,
  "solcInputHash": "49893132d55b2f3f3ecc32c583b89ca5",
  "bytecode": "0x60a06040523480156200001157600080fd5b5060405162001e1238038062001e128339810160408190526200003491620000c0565b6000805462010000600160b01b03191633620100008102919091178255604051909182917fd4459d5b8b913cab0244230fd9b1c08b6ceace7fe9230e60d0f74cbffdf849d0908290a3506001600160a01b03918216608052600280546001600160a01b03191691909216179055620000ff565b6001600160a01b0381168114620000bd57600080fd5b50565b60008060408385031215620000d457600080fd5b8251620000e181620000a7565b6020840151909250620000f481620000a7565b809150509250929050565b608051611cb162000161600039600081816101d2015281816104a30152818161060b015281816106c8015281816107a401528181610c5001528181610d0d01528181610de9015281816110d2015281816111d801526112fc0152611cb16000f3fe608060405234801561001057600080fd5b50600436106100d45760003560e01c80637fbb36e711610081578063f3b27bc31161005b578063f3b27bc3146101c5578063f887ea40146101cd578063fee9574a146101f457600080fd5b80637fbb36e71461018a5780639d9f384d1461019f578063b6aa515b146101b257600080fd5b80632aa4a9e5116100b25780632aa4a9e5146101435780634909c29a1461016457806370b247421461017757600080fd5b80630c340a24146100d9578063191457981461010f57806329dbd94414610130575b600080fd5b6000546100f2906201000090046001600160a01b031681565b6040516001600160a01b0390911681526020015b60405180910390f35b61012261011d3660046116b8565b610207565b604051610106929190611755565b6002546100f2906001600160a01b031681565b6101566101513660046117ce565b61049e565b604051908152602001610106565b6101566101723660046118b6565b610571565b6101226101853660046116b8565b61086a565b61019d610198366004611921565b610ad4565b005b6101566101ad36600461193e565b610bb6565b61019d6101c0366004611921565b610ecf565b61019d610fc0565b6100f27f000000000000000000000000000000000000000000000000000000000000000081565b6101566102023660046117ce565b6110c0565b60408051600280825260608281019093526000929183918160200160208202803683370190505090508581600081518110610244576102446119ba565b60200260200101906001600160a01b031690816001600160a01b0316815250508481600181518110610278576102786119ba565b60200260200101906001600160a01b031690816001600160a01b03168152505060006102a485836111a5565b6002549091506001600160a01b03888116911614806102d057506002546001600160a01b038781169116145b1561033f576000811161032a5760405162461bcd60e51b815260206004820152600d60248201527f6e6f2d706174682d666f756e640000000000000000000000000000000000000060448201526064015b60405180910390fd5b806103348361128a565b935093505050610496565b60408051600380825260808201909252600091602082016060803683370190505090508781600081518110610376576103766119ba565b6001600160a01b0392831660209182029290920101526002548251911690829060019081106103a7576103a76119ba565b60200260200101906001600160a01b031690816001600160a01b03168152505086816002815181106103db576103db6119ba565b60200260200101906001600160a01b031690816001600160a01b031681525050600061040787836111a5565b905060008311806104185750600081115b6104645760405162461bcd60e51b815260206004820152600d60248201527f6e6f2d706174682d666f756e64000000000000000000000000000000000000006044820152606401610321565b8083111561048357826104768561128a565b9550955050505050610496565b8061048d8361128a565b95509550505050505b935093915050565b6000807f00000000000000000000000000000000000000000000000000000000000000006001600160a01b0316631f00ca74856104da866112b3565b6040518363ffffffff1660e01b81526004016104f7929190611a2d565b60006040518083038186803b15801561050f57600080fd5b505afa158015610523573d6000803e3d6000fd5b505050506040513d6000823e601f3d908101601f1916820160405261054b9190810190611a6a565b905080600081518110610560576105606119ba565b602002602001015191505092915050565b6000806105b387878080601f0160208091040260200160405190810160405280939291908181526020018383808284376000920191909152506112b392505050565b90506000816000815181106105ca576105ca6119ba565b60209081029190910101516040517fdd62ed3e0000000000000000000000000000000000000000000000000000000081523060048201526001600160a01b037f000000000000000000000000000000000000000000000000000000000000000081166024830152919250879183169063dd62ed3e9060440160206040518083038186803b15801561065a57600080fd5b505afa15801561066e573d6000803e3d6000fd5b505050506040513d601f19601f820116820180604052508101906106929190611af5565b1015610774576040517f095ea7b30000000000000000000000000000000000000000000000000000000081526001600160a01b037f0000000000000000000000000000000000000000000000000000000000000000811660048301527fffffffffffffffffffffffffffffffffffffffffffffffffffffffffffffffff602483015282169063095ea7b390604401602060405180830381600087803b15801561073a57600080fd5b505af115801561074e573d6000803e3d6000fd5b505050506040513d601f19601f820116820180604052508101906107729190611b0e565b505b6040517f38ed17390000000000000000000000000000000000000000000000000000000081526001600160a01b037f000000000000000000000000000000000000000000000000000000000000000016906338ed1739906107e1908990899087908a904290600401611b30565b600060405180830381600087803b1580156107fb57600080fd5b505af115801561080f573d6000803e3d6000fd5b505050506040513d6000823e601f3d908101601f191682016040526108379190810190611a6a565b600183516108459190611b6c565b81518110610855576108556119ba565b60200260200101519250505095945050505050565b604080516002808252606082810190935260009291839181602001602082028036833701905050905085816000815181106108a7576108a76119ba565b60200260200101906001600160a01b031690816001600160a01b03168152505084816001815181106108db576108db6119ba565b60200260200101906001600160a01b031690816001600160a01b031681525050600061090785836112c9565b6002549091506001600160a01b038881169116148061093357506002546001600160a01b038781169116145b15610988576000811161032a5760405162461bcd60e51b815260206004820152600d60248201527f6e6f2d706174682d666f756e64000000000000000000000000000000000000006044820152606401610321565b604080516003808252608082019092526000916020820160608036833701905050905087816000815181106109bf576109bf6119ba565b6001600160a01b0392831660209182029290920101526002548251911690829060019081106109f0576109f06119ba565b60200260200101906001600160a01b031690816001600160a01b0316815250508681600281518110610a2457610a246119ba565b60200260200101906001600160a01b031690816001600160a01b0316815250506000610a5087836112c9565b90506000831180610a615750600081115b610aad5760405162461bcd60e51b815260206004820152600d60248201527f6e6f2d706174682d666f756e64000000000000000000000000000000000000006044820152606401610321565b600083118015610abc57508083105b80610ac5575080155b1561048357826104768561128a565b6000546001600160a01b0362010000909104163314610b355760405162461bcd60e51b815260206004820152600c60248201527f6e6f742d676f7665726e6f7200000000000000000000000000000000000000006044820152606401610321565b600254604080516001600160a01b03928316815291831660208301527fa660aa88bd78e0552d7e2b6cb01df732642a0ff595c9c7b2ae67fb9e3db01f55910160405180910390a1600280547fffffffffffffffffffffffff0000000000000000000000000000000000000000166001600160a01b0392909216919091179055565b600080610bf888888080601f0160208091040260200160405190810160405280939291908181526020018383808284376000920191909152506112b392505050565b9050600081600081518110610c0f57610c0f6119ba565b60209081029190910101516040517fdd62ed3e0000000000000000000000000000000000000000000000000000000081523060048201526001600160a01b037f000000000000000000000000000000000000000000000000000000000000000081166024830152919250879183169063dd62ed3e9060440160206040518083038186803b158015610c9f57600080fd5b505afa158015610cb3573d6000803e3d6000fd5b505050506040513d601f19601f82011682018060405250810190610cd79190611af5565b1015610db9576040517f095ea7b30000000000000000000000000000000000000000000000000000000081526001600160a01b037f0000000000000000000000000000000000000000000000000000000000000000811660048301527fffffffffffffffffffffffffffffffffffffffffffffffffffffffffffffffff602483015282169063095ea7b390604401602060405180830381600087803b158015610d7f57600080fd5b505af1158015610d93573d6000803e3d6000fd5b505050506040513d601f19601f82011682018060405250810190610db79190611b0e565b505b6040517f8803dbee0000000000000000000000000000000000000000000000000000000081526001600160a01b037f00000000000000000000000000000000000000000000000000000000000000001690638803dbee90610e26908a908a9087908a904290600401611b30565b600060405180830381600087803b158015610e4057600080fd5b505af1158015610e54573d6000803e3d6000fd5b505050506040513d6000823e601f3d908101601f19168201604052610e7c9190810190611a6a565b600081518110610e8e57610e8e6119ba565b6020026020010151925060008387610ea69190611b6c565b90508015610ec257610ec26001600160a01b038316878361139c565b5050509695505050505050565b6000546001600160a01b0362010000909104163314610f305760405162461bcd60e51b815260206004820152600c60248201527f6e6f742d676f7665726e6f7200000000000000000000000000000000000000006044820152606401610321565b6001600160a01b038116610f865760405162461bcd60e51b815260206004820152601960248201527f70726f706f7365642d676f7665726e6f722d69732d7a65726f000000000000006044820152606401610321565b600180547fffffffffffffffffffffffff0000000000000000000000000000000000000000166001600160a01b0392909216919091179055565b6001546001600160a01b0316331461101a5760405162461bcd60e51b815260206004820152601960248201527f6e6f742d7468652d70726f706f7365642d676f7665726e6f72000000000000006044820152606401610321565b600154600080546040516001600160a01b039384169362010000909204909116917fd4459d5b8b913cab0244230fd9b1c08b6ceace7fe9230e60d0f74cbffdf849d091a360018054600080547fffffffffffffffffffff0000000000000000000000000000000000000000ffff166001600160a01b03831662010000021790557fffffffffffffffffffffffff0000000000000000000000000000000000000000169055565b6000806110cc836112b3565b905060007f00000000000000000000000000000000000000000000000000000000000000006001600160a01b031663d06ca61f86846040518363ffffffff1660e01b815260040161111e929190611a2d565b60006040518083038186803b15801561113657600080fd5b505afa15801561114a573d6000803e3d6000fd5b505050506040513d6000823e601f3d908101601f191682016040526111729190810190611a6a565b905080600183516111839190611b6c565b81518110611193576111936119ba565b60200260200101519250505092915050565b6040517fd06ca61f0000000000000000000000000000000000000000000000000000000081526000906001600160a01b037f0000000000000000000000000000000000000000000000000000000000000000169063d06ca61f9061120f9086908690600401611a2d565b60006040518083038186803b15801561122757600080fd5b505afa92505050801561125c57506040513d6000823e601f3d908101601f191682016040526112599190810190611a6a565b60015b61126557611284565b80600184516112749190611b6c565b81518110610560576105606119ba565b92915050565b60608160405160200161129d9190611baa565b6040516020818303038152906040529050919050565b6060818060200190518101906112849190611bbd565b6040517f1f00ca740000000000000000000000000000000000000000000000000000000081526000906001600160a01b037f00000000000000000000000000000000000000000000000000000000000000001690631f00ca74906113339086908690600401611a2d565b60006040518083038186803b15801561134b57600080fd5b505afa92505050801561138057506040513d6000823e601f3d908101601f1916820160405261137d9190810190611a6a565b60015b61138957611284565b80600081518110610560576105606119ba565b604080516001600160a01b038416602482015260448082018490528251808303909101815260649091019091526020810180517bffffffffffffffffffffffffffffffffffffffffffffffffffffffff167fa9059cbb0000000000000000000000000000000000000000000000000000000017905261141c908490611421565b505050565b6000611476826040518060400160405280602081526020017f5361666545524332303a206c6f772d6c6576656c2063616c6c206661696c6564815250856001600160a01b03166115069092919063ffffffff16565b80519091501561141c57808060200190518101906114949190611b0e565b61141c5760405162461bcd60e51b815260206004820152602a60248201527f5361666545524332303a204552433230206f7065726174696f6e20646964206e60448201527f6f742073756363656564000000000000000000000000000000000000000000006064820152608401610321565b6060611515848460008561151f565b90505b9392505050565b6060824710156115975760405162461bcd60e51b815260206004820152602660248201527f416464726573733a20696e73756666696369656e742062616c616e636520666f60448201527f722063616c6c00000000000000000000000000000000000000000000000000006064820152608401610321565b6001600160a01b0385163b6115ee5760405162461bcd60e51b815260206004820152601d60248201527f416464726573733a2063616c6c20746f206e6f6e2d636f6e74726163740000006044820152606401610321565b600080866001600160a01b0316858760405161160a9190611c4c565b60006040518083038185875af1925050503d8060008114611647576040519150601f19603f3d011682016040523d82523d6000602084013e61164c565b606091505b509150915061165c828286611667565b979650505050505050565b60608315611676575081611518565b8251156116865782518084602001fd5b8160405162461bcd60e51b81526004016103219190611c68565b6001600160a01b03811681146116b557600080fd5b50565b6000806000606084860312156116cd57600080fd5b83356116d8816116a0565b925060208401356116e8816116a0565b929592945050506040919091013590565b60005b838110156117145781810151838201526020016116fc565b83811115611723576000848401525b50505050565b600081518084526117418160208601602086016116f9565b601f01601f19169290920160200192915050565b8281526040602082015260006115156040830184611729565b7f4e487b7100000000000000000000000000000000000000000000000000000000600052604160045260246000fd5b604051601f8201601f1916810167ffffffffffffffff811182821017156117c6576117c661176e565b604052919050565b600080604083850312156117e157600080fd5b8235915060208084013567ffffffffffffffff8082111561180157600080fd5b818601915086601f83011261181557600080fd5b8135818111156118275761182761176e565b61183984601f19601f8401160161179d565b9150808252878482850101111561184f57600080fd5b80848401858401376000848284010152508093505050509250929050565b60008083601f84011261187f57600080fd5b50813567ffffffffffffffff81111561189757600080fd5b6020830191508360208285010111156118af57600080fd5b9250929050565b6000806000806000608086880312156118ce57600080fd5b853567ffffffffffffffff8111156118e557600080fd5b6118f18882890161186d565b90965094505060208601359250604086013591506060860135611913816116a0565b809150509295509295909350565b60006020828403121561193357600080fd5b8135611518816116a0565b60008060008060008060a0878903121561195757600080fd5b863567ffffffffffffffff81111561196e57600080fd5b61197a89828a0161186d565b9097509550506020870135935060408701359250606087013561199c816116a0565b915060808701356119ac816116a0565b809150509295509295509295565b7f4e487b7100000000000000000000000000000000000000000000000000000000600052603260045260246000fd5b600081518084526020808501945080840160005b83811015611a225781516001600160a01b0316875295820195908201906001016119fd565b509495945050505050565b82815260406020820152600061151560408301846119e9565b600067ffffffffffffffff821115611a6057611a6061176e565b5060051b60200190565b60006020808385031215611a7d57600080fd5b825167ffffffffffffffff811115611a9457600080fd5b8301601f81018513611aa557600080fd5b8051611ab8611ab382611a46565b61179d565b81815260059190911b82018301908381019087831115611ad757600080fd5b928401925b8284101561165c57835182529284019290840190611adc565b600060208284031215611b0757600080fd5b5051919050565b600060208284031215611b2057600080fd5b8151801515811461151857600080fd5b85815284602082015260a060408201526000611b4f60a08301866119e9565b6001600160a01b0394909416606083015250608001529392505050565b600082821015611ba5577f4e487b7100000000000000000000000000000000000000000000000000000000600052601160045260246000fd5b500390565b60208152600061151860208301846119e9565b60006020808385031215611bd057600080fd5b825167ffffffffffffffff811115611be757600080fd5b8301601f81018513611bf857600080fd5b8051611c06611ab382611a46565b81815260059190911b82018301908381019087831115611c2557600080fd5b928401925b8284101561165c578351611c3d816116a0565b82529284019290840190611c2a565b60008251611c5e8184602087016116f9565b9190910192915050565b602081526000611518602083018461172956fea26469706673582212205c7082f7190888752bde28feaf1b62cf3897a0f9385525a30e7dde9001c472e564736f6c63430008090033",
  "devdoc": {
    "kind": "dev",
    "methods": {
      "acceptGovernorship()": {
        "details": "Allows new governor to accept governorship of the contract."
      },
      "constructor": {
        "details": "Doesn't consider router.WETH() as `wethLike` because isn't guaranteed that it's the most liquid token."
      },
      "getBestAmountIn(address,address,uint256)": {
        "details": "It shouldn't be used as oracle!!!"
      },
      "getBestAmountOut(address,address,uint256)": {
        "details": "It shouldn't be used as oracle!!!"
      },
      "swapExactInput(bytes,uint256,uint256,address)": {
        "details": "Should transfer `amountIn_` before performing swap"
      },
      "swapExactOutput(bytes,uint256,uint256,address,address)": {
        "details": "Should transfer `amountInMax_` before performing swapSends swap remains - if any - to the `inSender_`"
      },
      "transferGovernorship(address)": {
        "details": "Transfers governorship of the contract to a new account (`proposedGovernor`). Can only be called by the current owner."
      }
    },
    "stateVariables": {
      "wethLike": {
        "details": "I.e. should be the most liquid token that offer best routers among trade pairsIt's usually the wrapper token of the chain's native coin but it isn't always true For instance: On Polygon, the `WETH` is more liquid than `WMATIC` on UniV3 protocol."
      }
    },
    "version": 1
  },
  "userdoc": {
    "events": {
      "WethLikeTokenUpdated(address,address)": {
        "notice": "Emitted when wethLike token is updated"
      }
    },
    "kind": "user",
    "methods": {
      "getAmountsIn(uint256,bytes)": {
        "notice": "Wraps `router.getAmountsIn()` function"
      },
      "getAmountsOut(uint256,bytes)": {
        "notice": "Wraps `router.getAmountsOut()` function"
      },
      "getBestAmountIn(address,address,uint256)": {
        "notice": "Get *spot* quote It will return the swap amount based on the current reserves of the best pair/path found (i.e. spot price)"
      },
      "getBestAmountOut(address,address,uint256)": {
        "notice": "Get *spot* quote It will return the swap amount based on the current reserves of the best pair/path found (i.e. spot price)"
      },
      "router()": {
        "notice": "The UniswapV2-Like router contract"
      },
      "swapExactInput(bytes,uint256,uint256,address)": {
        "notice": "Perform an exact input swap"
      },
      "swapExactOutput(bytes,uint256,uint256,address,address)": {
        "notice": "Perform an exact output swap"
      },
      "updateWethLikeToken(address)": {
        "notice": "Update WETH-Like token"
      },
      "wethLike()": {
        "notice": "The WETH-Like token (a.k.a. Native Token)"
      }
    },
    "notice": "UniswapV2 Like Exchange",
    "version": 1
  },
  "storageLayout": {
    "storage": [
      {
        "astId": 420,
        "contract": "contracts/swapper/UniswapV2LikeExchange.sol:UniswapV2LikeExchange",
        "label": "_initialized",
        "offset": 0,
        "slot": "0",
        "type": "t_uint8"
      },
      {
        "astId": 423,
        "contract": "contracts/swapper/UniswapV2LikeExchange.sol:UniswapV2LikeExchange",
        "label": "_initializing",
        "offset": 1,
        "slot": "0",
        "type": "t_bool"
      },
      {
        "astId": 6779,
        "contract": "contracts/swapper/UniswapV2LikeExchange.sol:UniswapV2LikeExchange",
        "label": "governor",
        "offset": 2,
        "slot": "0",
        "type": "t_address"
      },
      {
        "astId": 6781,
        "contract": "contracts/swapper/UniswapV2LikeExchange.sol:UniswapV2LikeExchange",
        "label": "proposedGovernor",
        "offset": 0,
        "slot": "1",
        "type": "t_address"
      },
      {
        "astId": 15935,
        "contract": "contracts/swapper/UniswapV2LikeExchange.sol:UniswapV2LikeExchange",
        "label": "wethLike",
        "offset": 0,
        "slot": "2",
        "type": "t_address"
      }
    ],
    "types": {
      "t_address": {
        "encoding": "inplace",
        "label": "address",
        "numberOfBytes": "20"
      },
      "t_bool": {
        "encoding": "inplace",
        "label": "bool",
        "numberOfBytes": "1"
      },
      "t_uint8": {
        "encoding": "inplace",
        "label": "uint8",
        "numberOfBytes": "1"
      }
    }
  }
}