{
  "address": "0x455F908D4f7E021794AA4988E4AE3D6dbD577c6F",
  "abi": [
    {
      "inputs": [
        {
          "internalType": "address",
          "name": "wethLike_",
          "type": "address"
        }
      ],
      "stateMutability": "nonpayable",
      "type": "constructor"
    },
    {
      "inputs": [],
      "name": "POOL_FEE_BPS",
      "outputs": [
        {
          "internalType": "uint24",
          "name": "",
          "type": "uint24"
        }
      ],
      "stateMutability": "view",
      "type": "function"
    },
    {
      "inputs": [],
      "name": "UNISWAP_V3_FACTORY",
      "outputs": [
        {
          "internalType": "address",
          "name": "",
          "type": "address"
        }
      ],
      "stateMutability": "view",
      "type": "function"
    },
    {
      "inputs": [],
      "name": "defaultPoolFee",
      "outputs": [
        {
          "internalType": "uint24",
          "name": "",
          "type": "uint24"
        }
      ],
      "stateMutability": "view",
      "type": "function"
    },
    {
      "inputs": [
        {
          "internalType": "uint256",
          "name": "amountOut_",
          "type": "uint256"
        },
        {
          "internalType": "bytes",
          "name": "path_",
          "type": "bytes"
        }
      ],
      "name": "getAmountsIn",
      "outputs": [
        {
          "internalType": "uint256",
          "name": "_amountIn",
          "type": "uint256"
        }
      ],
      "stateMutability": "nonpayable",
      "type": "function"
    },
    {
      "inputs": [
        {
          "internalType": "uint256",
          "name": "amountIn_",
          "type": "uint256"
        },
        {
          "internalType": "bytes",
          "name": "path_",
          "type": "bytes"
        }
      ],
      "name": "getAmountsOut",
      "outputs": [
        {
          "internalType": "uint256",
          "name": "_amountOut",
          "type": "uint256"
        }
      ],
      "stateMutability": "nonpayable",
      "type": "function"
    },
    {
      "inputs": [
        {
          "internalType": "address",
          "name": "tokenIn_",
          "type": "address"
        },
        {
          "internalType": "address",
          "name": "tokenOut_",
          "type": "address"
        },
        {
          "internalType": "uint256",
          "name": "amountOut_",
          "type": "uint256"
        }
      ],
      "name": "getBestAmountIn",
      "outputs": [
        {
          "internalType": "uint256",
          "name": "_amountIn",
          "type": "uint256"
        },
        {
          "internalType": "bytes",
          "name": "_path",
          "type": "bytes"
        }
      ],
      "stateMutability": "nonpayable",
      "type": "function"
    },
    {
      "inputs": [
        {
          "internalType": "address",
          "name": "tokenIn_",
          "type": "address"
        },
        {
          "internalType": "address",
          "name": "tokenOut_",
          "type": "address"
        },
        {
          "internalType": "uint256",
          "name": "amountIn_",
          "type": "uint256"
        }
      ],
      "name": "getBestAmountOut",
      "outputs": [
        {
          "internalType": "uint256",
          "name": "_amountOut",
          "type": "uint256"
        },
        {
          "internalType": "bytes",
          "name": "_path",
          "type": "bytes"
        }
      ],
      "stateMutability": "nonpayable",
      "type": "function"
    },
    {
      "inputs": [
        {
          "internalType": "bytes",
          "name": "path_",
          "type": "bytes"
        },
        {
          "internalType": "uint256",
          "name": "amountIn_",
          "type": "uint256"
        },
        {
          "internalType": "uint256",
          "name": "amountOutMin_",
          "type": "uint256"
        },
        {
          "internalType": "address",
          "name": "outReceiver_",
          "type": "address"
        }
      ],
      "name": "swapExactInput",
      "outputs": [
        {
          "internalType": "uint256",
          "name": "_amountOut",
          "type": "uint256"
        }
      ],
      "stateMutability": "nonpayable",
      "type": "function"
    },
    {
      "inputs": [
        {
          "internalType": "bytes",
          "name": "path_",
          "type": "bytes"
        },
        {
          "internalType": "uint256",
          "name": "amountOut_",
          "type": "uint256"
        },
        {
          "internalType": "uint256",
          "name": "amountInMax_",
          "type": "uint256"
        },
        {
          "internalType": "address",
          "name": "remainingReceiver_",
          "type": "address"
        },
        {
          "internalType": "address",
          "name": "outReceiver_",
          "type": "address"
        }
      ],
      "name": "swapExactOutput",
      "outputs": [
        {
          "internalType": "uint256",
          "name": "_amountIn",
          "type": "uint256"
        }
      ],
      "stateMutability": "nonpayable",
      "type": "function"
    },
    {
      "inputs": [],
      "name": "wethLike",
      "outputs": [
        {
          "internalType": "address",
          "name": "",
          "type": "address"
        }
      ],
      "stateMutability": "view",
      "type": "function"
    }
  ],
  "transactionHash": "0x20bba6a805a7fc839f630f1c2a7560ee1932885a704c901e7ff2c0bf932c6085",
  "args": [
    "0xC02aaA39b223FE8D0A0e5C4F27eAD9083C756Cc2"
  ],
  "numDeployments": 1,
  "solcInputHash": "d9fc4bdc3c42e88a672b94af7d3f27dd",
  "bytecode": "0x60a06040526000805462ffffff1916610bb817905534801561002057600080fd5b50604051611a80380380611a8083398101604081905261003f91610054565b60601b6001600160601b031916608052610082565b600060208284031215610065578081fd5b81516001600160a01b038116811461007b578182fd5b9392505050565b60805160601c6119c36100bd6000398061019952806101ee52806102c052806103335280610726528061077b528061081d52506119c36000f3fe608060405234801561001057600080fd5b50600436106100be5760003560e01c806370b2474211610076578063cd6c78731161005b578063cd6c787314610170578063f73e5aab14610178578063fee9574a14610180576100be565b806370b247421461014a5780639d9f384d1461015d576100be565b80632aa4a9e5116100a75780632aa4a9e5146101025780634909c29a146101225780636f60a6dd14610135576100be565b806319145798146100c357806329dbd944146100ed575b600080fd5b6100d66100d1366004611480565b610193565b6040516100e4929190611924565b60405180910390f35b6100f5610331565b6040516100e491906117fa565b6101156101103660046115cc565b610355565b6040516100e4919061191b565b6101156101303660046114db565b610406565b61013d610715565b6040516100e4919061190b565b6100d6610158366004611480565b610720565b61011561016b366004611540565b610864565b61013d610c8e565b6100f5610c95565b61011561018e3660046115cc565b610cad565b600060607f000000000000000000000000000000000000000000000000000000000000000073ffffffffffffffffffffffffffffffffffffffff168573ffffffffffffffffffffffffffffffffffffffff16148061023c57507f000000000000000000000000000000000000000000000000000000000000000073ffffffffffffffffffffffffffffffffffffffff168473ffffffffffffffffffffffffffffffffffffffff16145b156102aa5760005460405161025f91879162ffffff909116908790602001611717565b604051602081830303815290604052905061027a8382610cad565b9150600082116102a55760405162461bcd60e51b815260040161029c9061188a565b60405180910390fd5b610329565b6000546040516102ec91879162ffffff909116907f0000000000000000000000000000000000000000000000000000000000000000908290899060200161177d565b60405160208183030381529060405290506103078382610cad565b9150600082116103295760405162461bcd60e51b815260040161029c9061188a565b935093915050565b7f000000000000000000000000000000000000000000000000000000000000000081565b6040517f2f80bb1d00000000000000000000000000000000000000000000000000000000815260009073b27308f9f90d607463bb33ea1bebb41c27ce5ab690632f80bb1d906103aa9085908790600401611868565b602060405180830381600087803b1580156103c457600080fd5b505af19250505080156103f4575060408051601f3d908101601f191682019092526103f1918101906115b4565b60015b6103fd57610400565b90505b92915050565b6000806040518060a0016040528088888080601f016020809104026020016040519081016040528093929190818152602001838380828437600092018290525093855250505073ffffffffffffffffffffffffffffffffffffffff861660208084019190915242604080850191909152606084018a905260809093018890528251601f8b01829004820281018201909352898352929350916104c391908a908a9081908401838280828437600092019190915250610d0292505050565b50506040517fdd62ed3e0000000000000000000000000000000000000000000000000000000081529091508190879073ffffffffffffffffffffffffffffffffffffffff83169063dd62ed3e9061053490309073e592427a0aece92de3edee1f18e0157c058615649060040161181b565b60206040518083038186803b15801561054c57600080fd5b505afa158015610560573d6000803e3d6000fd5b505050506040513d601f19601f8201168201806040525081019061058491906115b4565b1015610666576040517f095ea7b300000000000000000000000000000000000000000000000000000000815273ffffffffffffffffffffffffffffffffffffffff82169063095ea7b3906106129073e592427a0aece92de3edee1f18e0157c05861564907fffffffffffffffffffffffffffffffffffffffffffffffffffffffffffffffff90600401611842565b602060405180830381600087803b15801561062c57600080fd5b505af1158015610640573d6000803e3d6000fd5b505050506040513d601f19601f8201168201806040525081019061066491906114bb565b505b6040517fc04b8d5900000000000000000000000000000000000000000000000000000000815273e592427a0aece92de3edee1f18e0157c058615649063c04b8d59906106b69086906004016118f8565b602060405180830381600087803b1580156106d057600080fd5b505af11580156106e4573d6000803e3d6000fd5b505050506040513d601f19601f8201168201806040525081019061070891906115b4565b9998505050505050505050565b60005462ffffff1681565b600060607f000000000000000000000000000000000000000000000000000000000000000073ffffffffffffffffffffffffffffffffffffffff168573ffffffffffffffffffffffffffffffffffffffff1614806107c957507f000000000000000000000000000000000000000000000000000000000000000073ffffffffffffffffffffffffffffffffffffffff168473ffffffffffffffffffffffffffffffffffffffff16145b15610807576000546040516107ec91869162ffffff909116908890602001611717565b604051602081830303815290604052905061027a8382610355565b60005460405161084991869162ffffff909116907f00000000000000000000000000000000000000000000000000000000000000009082908a9060200161177d565b60405160208183030381529060405290506103078382610355565b6000806108a688888080601f016020809104026020016040519081016040528093929190818152602001838380828437600092019190915250610d3392505050565b600114156108f7576108ed88888080601f016020809104026020016040519081016040528093929190818152602001838380828437600092019190915250610d0292505050565b50915061099d9050565b61093688888080601f016020809104026020016040519081016040528093929190818152602001838380828437600092019190915250610d3392505050565b60021415610985576108ed61098089898080601f016020809104026020016040519081016040528093929190818152602001838380828437600092019190915250610d6292505050565b610d02565b60405162461bcd60e51b815260040161029c906118c1565b6040517fdd62ed3e0000000000000000000000000000000000000000000000000000000081528190869073ffffffffffffffffffffffffffffffffffffffff83169063dd62ed3e90610a0990309073e592427a0aece92de3edee1f18e0157c058615649060040161181b565b60206040518083038186803b158015610a2157600080fd5b505afa158015610a35573d6000803e3d6000fd5b505050506040513d601f19601f82011682018060405250810190610a5991906115b4565b1015610b3b576040517f095ea7b300000000000000000000000000000000000000000000000000000000815273ffffffffffffffffffffffffffffffffffffffff82169063095ea7b390610ae79073e592427a0aece92de3edee1f18e0157c05861564907fffffffffffffffffffffffffffffffffffffffffffffffffffffffffffffffff90600401611842565b602060405180830381600087803b158015610b0157600080fd5b505af1158015610b15573d6000803e3d6000fd5b505050506040513d601f19601f82011682018060405250810190610b3991906114bb565b505b6040805160c06020601f8c01819004028201810190925260a081018a81526000928291908d908d908190850183828082843760009201919091525050509082525073ffffffffffffffffffffffffffffffffffffffff8716602082015242604080830191909152606082018b90526080909101899052517ff28c049800000000000000000000000000000000000000000000000000000000815290915073e592427a0aece92de3edee1f18e0157c058615649063f28c049890610c029084906004016118f8565b602060405180830381600087803b158015610c1c57600080fd5b505af1158015610c30573d6000803e3d6000fd5b505050506040513d601f19601f82011682018060405250810190610c5491906115b4565b93508387038015610c8057610c8073ffffffffffffffffffffffffffffffffffffffff84168883610d97565b505050509695505050505050565b620f424081565b731f98431c8ad98523631ae4a59f267346ea31f98481565b6040517fcdca175300000000000000000000000000000000000000000000000000000000815260009073b27308f9f90d607463bb33ea1bebb41c27ce5ab69063cdca1753906103aa9085908790600401611868565b60008080610d108482610e29565b9250610d1d846014610ef5565b9050610d2a846017610e29565b91509193909250565b805160177fffffffffffffffffffffffffffffffffffffffffffffffffffffffffffffffec909101045b919050565b80516060906104009083906017907fffffffffffffffffffffffffffffffffffffffffffffffffffffffffffffffe901610fb1565b6040805173ffffffffffffffffffffffffffffffffffffffff8416602482015260448082018490528251808303909101815260649091019091526020810180517bffffffffffffffffffffffffffffffffffffffffffffffffffffffff167fa9059cbb00000000000000000000000000000000000000000000000000000000179052610e2490849061112e565b505050565b600081826014011015610e83576040805162461bcd60e51b815260206004820152601260248201527f746f416464726573735f6f766572666c6f770000000000000000000000000000604482015290519081900360640190fd5b8160140183511015610edc576040805162461bcd60e51b815260206004820152601560248201527f746f416464726573735f6f75744f66426f756e64730000000000000000000000604482015290519081900360640190fd5b5001602001516c01000000000000000000000000900490565b600081826003011015610f4f576040805162461bcd60e51b815260206004820152601160248201527f746f55696e7432345f6f766572666c6f77000000000000000000000000000000604482015290519081900360640190fd5b8160030183511015610fa8576040805162461bcd60e51b815260206004820152601460248201527f746f55696e7432345f6f75744f66426f756e6473000000000000000000000000604482015290519081900360640190fd5b50016003015190565b60608182601f01101561100b576040805162461bcd60e51b815260206004820152600e60248201527f736c6963655f6f766572666c6f77000000000000000000000000000000000000604482015290519081900360640190fd5b828284011015611062576040805162461bcd60e51b815260206004820152600e60248201527f736c6963655f6f766572666c6f77000000000000000000000000000000000000604482015290519081900360640190fd5b818301845110156110ba576040805162461bcd60e51b815260206004820152601160248201527f736c6963655f6f75744f66426f756e6473000000000000000000000000000000604482015290519081900360640190fd5b6060821580156110d95760405191506000825260208201604052611123565b6040519150601f8416801560200281840101858101878315602002848b0101015b818310156111125780518352602092830192016110fa565b5050858452601f01601f1916604052505b5090505b9392505050565b6000611190826040518060400160405280602081526020017f5361666545524332303a206c6f772d6c6576656c2063616c6c206661696c65648152508573ffffffffffffffffffffffffffffffffffffffff166111ec9092919063ffffffff16565b805190915015610e24578080602001905160208110156111af57600080fd5b5051610e245760405162461bcd60e51b815260040180806020018281038252602a815260200180611964602a913960400191505060405180910390fd5b60606111fb8484600085611203565b949350505050565b6060824710156112445760405162461bcd60e51b815260040180806020018281038252602681526020018061193e6026913960400191505060405180910390fd5b61124d8561136b565b61129e576040805162461bcd60e51b815260206004820152601d60248201527f416464726573733a2063616c6c20746f206e6f6e2d636f6e7472616374000000604482015290519081900360640190fd5b6000808673ffffffffffffffffffffffffffffffffffffffff1685876040518082805190602001908083835b602083106112e95780518252601f1990920191602091820191016112ca565b6001836020036101000a03801982511681845116808217855250505050505090500191505060006040518083038185875af1925050503d806000811461134b576040519150601f19603f3d011682016040523d82523d6000602084013e611350565b606091505b5091509150611360828286611371565b979650505050505050565b3b151590565b60608315611380575081611127565b8251156113905782518084602001fd5b8160405162461bcd60e51b81526004018080602001828103825283818151815260200191508051906020019080838360005b838110156113da5781810151838201526020016113c2565b50505050905090810190601f1680156114075780820380516001836020036101000a031916815260200191505b509250505060405180910390fd5b803573ffffffffffffffffffffffffffffffffffffffff81168114610d5d57600080fd5b60008083601f84011261144a578081fd5b50813567ffffffffffffffff811115611461578182fd5b60208301915083602082850101111561147957600080fd5b9250929050565b600080600060608486031215611494578283fd5b61149d84611415565b92506114ab60208501611415565b9150604084013590509250925092565b6000602082840312156114cc578081fd5b815180151581146103fd578182fd5b6000806000806000608086880312156114f2578081fd5b853567ffffffffffffffff811115611508578182fd5b61151488828901611439565b909650945050602086013592506040860135915061153460608701611415565b90509295509295909350565b60008060008060008060a08789031215611558578081fd5b863567ffffffffffffffff81111561156e578182fd5b61157a89828a01611439565b909750955050602087013593506040870135925061159a60608801611415565b91506115a860808801611415565b90509295509295509295565b6000602082840312156115c5578081fd5b5051919050565b600080604083850312156115de578182fd5b8235915060208084013567ffffffffffffffff808211156115fd578384fd5b818601915086601f830112611610578384fd5b81358181111561161c57fe5b60405184601f19601f840116820101818110848211171561163957fe5b604052818152838201850189101561164f578586fd5b81858501868301378585838301015280955050505050509250929050565b60008151808452815b8181101561169257602081850181015186830182015201611676565b818111156116a35782602083870101525b50601f01601f19169290920160200192915050565b6000815160a084526116cd60a085018261166d565b905073ffffffffffffffffffffffffffffffffffffffff60208401511660208501526040830151604085015260608301516060850152608083015160808501528091505092915050565b606093841b7fffffffffffffffffffffffffffffffffffffffff000000000000000000000000908116825260e89390931b7fffffff0000000000000000000000000000000000000000000000000000000000166014820152921b166017820152602b0190565b7fffffffffffffffffffffffffffffffffffffffff000000000000000000000000606096871b811682527fffffff000000000000000000000000000000000000000000000000000000000060e896871b8116601484015294871b811660178301529290941b909216602b840152921b909116602e82015260420190565b73ffffffffffffffffffffffffffffffffffffffff91909116815260200190565b73ffffffffffffffffffffffffffffffffffffffff92831681529116602082015260400190565b73ffffffffffffffffffffffffffffffffffffffff929092168252602082015260400190565b60006040825261187b604083018561166d565b90508260208301529392505050565b6020808252600d908201527f6e6f2d706174682d666f756e6400000000000000000000000000000000000000604082015260600190565b60208082526013908201527f696e76616c69642d706174682d6c656e67746800000000000000000000000000604082015260600190565b60006020825261112760208301846116b8565b62ffffff91909116815260200190565b90815260200190565b6000838252604060208301526111fb604083018461166d56fe416464726573733a20696e73756666696369656e742062616c616e636520666f722063616c6c5361666545524332303a204552433230206f7065726174696f6e20646964206e6f742073756363656564a264697066735822122024ffb4fbed07a742b1a60cc0a58e4a754d628423b8bd8cea3cbf3f296e78379764736f6c63430007060033",
  "devdoc": {
    "kind": "dev",
    "methods": {
      "constructor": {
        "details": "Doesn't consider router.WETH() as `wethLike` because isn't guaranteed that it's the most liquid token. For instance: On Polygon, the `WETH` is more liquid than `WMATIC` on UniV3 protocol."
      },
      "getAmountsIn(uint256,bytes)": {
        "details": "Returns `0` if reverts"
      },
      "getAmountsOut(uint256,bytes)": {
        "details": "Returns `0` if reverts"
      },
      "getBestAmountIn(address,address,uint256)": {
        "details": "It shouldn't be used as oracle!!!"
      },
      "getBestAmountOut(address,address,uint256)": {
        "details": "It shouldn't be used as oracle!!!"
      },
      "swapExactInput(bytes,uint256,uint256,address)": {
        "details": "Should transfer `amountIn_` before performing swap"
      },
      "swapExactOutput(bytes,uint256,uint256,address,address)": {
        "details": "Should transfer `amountInMax_` before performing swapSends swap remains - if any - to the `inSender_`"
      }
    },
    "title": "UniswapV3 Exchange",
    "version": 1
  },
  "userdoc": {
    "kind": "user",
    "methods": {
      "getAmountsIn(uint256,bytes)": {
        "notice": "Wraps `quoter.quoteExactOutput()` function"
      },
      "getAmountsOut(uint256,bytes)": {
        "notice": "Wraps `quoter.quoteExactInput()` function"
      },
      "getBestAmountIn(address,address,uint256)": {
        "notice": "Get *spot* quote It will return the swap amount based on the current reserves of the best pair/path found (i.e. spot price)"
      },
      "getBestAmountOut(address,address,uint256)": {
        "notice": "Get *spot* quote It will return the swap amount based on the current reserves of the best pair/path found (i.e. spot price)"
      },
      "swapExactInput(bytes,uint256,uint256,address)": {
        "notice": "Perform an exact input swap"
      },
      "swapExactOutput(bytes,uint256,uint256,address,address)": {
        "notice": "Perform an exact output swap"
      }
    },
    "version": 1
  },
  "storageLayout": {
    "storage": [
      {
        "astId": 3324,
        "contract": "contracts/swapper/UniswapV3Exchange.sol:UniswapV3Exchange",
        "label": "defaultPoolFee",
        "offset": 0,
        "slot": "0",
        "type": "t_uint24"
      }
    ],
    "types": {
      "t_uint24": {
        "encoding": "inplace",
        "label": "uint24",
        "numberOfBytes": "3"
      }
    }
  }
}