{
  "address": "0x236829F4878D5143D2Fe206E864012b3997BBa5E",
  "abi": [
    {
      "inputs": [
        {
          "internalType": "contract IUniswapV2Router02",
          "name": "router_",
          "type": "address"
        },
        {
          "internalType": "address",
          "name": "wethLike_",
          "type": "address"
        }
      ],
      "stateMutability": "nonpayable",
      "type": "constructor"
    },
    {
      "anonymous": false,
      "inputs": [
        {
          "indexed": false,
          "internalType": "uint8",
          "name": "version",
          "type": "uint8"
        }
      ],
      "name": "Initialized",
      "type": "event"
    },
    {
      "anonymous": false,
      "inputs": [
        {
          "indexed": true,
          "internalType": "address",
          "name": "previousGovernor",
          "type": "address"
        },
        {
          "indexed": true,
          "internalType": "address",
          "name": "proposedGovernor",
          "type": "address"
        }
      ],
      "name": "UpdatedGovernor",
      "type": "event"
    },
    {
      "anonymous": false,
      "inputs": [
        {
          "indexed": false,
          "internalType": "address",
          "name": "oldWethLike",
          "type": "address"
        },
        {
          "indexed": false,
          "internalType": "address",
          "name": "newWethLike",
          "type": "address"
        }
      ],
      "name": "WethLikeTokenUpdated",
      "type": "event"
    },
    {
      "inputs": [],
      "name": "acceptGovernorship",
      "outputs": [],
      "stateMutability": "nonpayable",
      "type": "function"
    },
    {
      "inputs": [
        {
          "internalType": "address",
          "name": "tokenIn_",
          "type": "address"
        },
        {
          "internalType": "address",
          "name": "tokenOut_",
          "type": "address"
        },
        {
          "internalType": "uint256",
          "name": "amountOut_",
          "type": "uint256"
        }
      ],
      "name": "getBestAmountIn",
      "outputs": [
        {
          "internalType": "uint256",
          "name": "_amountIn",
          "type": "uint256"
        },
        {
          "internalType": "bytes",
          "name": "_path",
          "type": "bytes"
        }
      ],
      "stateMutability": "nonpayable",
      "type": "function"
    },
    {
      "inputs": [
        {
          "internalType": "address",
          "name": "tokenIn_",
          "type": "address"
        },
        {
          "internalType": "address",
          "name": "tokenOut_",
          "type": "address"
        },
        {
          "internalType": "uint256",
          "name": "amountIn_",
          "type": "uint256"
        }
      ],
      "name": "getBestAmountOut",
      "outputs": [
        {
          "internalType": "uint256",
          "name": "_amountOut",
          "type": "uint256"
        },
        {
          "internalType": "bytes",
          "name": "_path",
          "type": "bytes"
        }
      ],
      "stateMutability": "nonpayable",
      "type": "function"
    },
    {
      "inputs": [],
      "name": "governor",
      "outputs": [
        {
          "internalType": "address",
          "name": "",
          "type": "address"
        }
      ],
      "stateMutability": "view",
      "type": "function"
    },
    {
      "inputs": [],
      "name": "router",
      "outputs": [
        {
          "internalType": "contract IUniswapV2Router02",
          "name": "",
          "type": "address"
        }
      ],
      "stateMutability": "view",
      "type": "function"
    },
    {
      "inputs": [
        {
          "internalType": "bytes",
          "name": "path_",
          "type": "bytes"
        },
        {
          "internalType": "uint256",
          "name": "amountIn_",
          "type": "uint256"
        },
        {
          "internalType": "uint256",
          "name": "amountOutMin_",
          "type": "uint256"
        },
        {
          "internalType": "address",
          "name": "outReceiver_",
          "type": "address"
        }
      ],
      "name": "swapExactInput",
      "outputs": [
        {
          "internalType": "uint256",
          "name": "_amountOut",
          "type": "uint256"
        }
      ],
      "stateMutability": "nonpayable",
      "type": "function"
    },
    {
      "inputs": [
        {
          "internalType": "bytes",
          "name": "path_",
          "type": "bytes"
        },
        {
          "internalType": "uint256",
          "name": "amountOut_",
          "type": "uint256"
        },
        {
          "internalType": "uint256",
          "name": "amountInMax_",
          "type": "uint256"
        },
        {
          "internalType": "address",
          "name": "inSender_",
          "type": "address"
        },
        {
          "internalType": "address",
          "name": "outRecipient_",
          "type": "address"
        }
      ],
      "name": "swapExactOutput",
      "outputs": [
        {
          "internalType": "uint256",
          "name": "_amountIn",
          "type": "uint256"
        }
      ],
      "stateMutability": "nonpayable",
      "type": "function"
    },
    {
      "inputs": [
        {
          "internalType": "address",
          "name": "_proposedGovernor",
          "type": "address"
        }
      ],
      "name": "transferGovernorship",
      "outputs": [],
      "stateMutability": "nonpayable",
      "type": "function"
    },
    {
      "inputs": [
        {
          "internalType": "address",
          "name": "wethLike_",
          "type": "address"
        }
      ],
      "name": "updateWethLikeToken",
      "outputs": [],
      "stateMutability": "nonpayable",
      "type": "function"
    },
    {
      "inputs": [],
      "name": "wethLike",
      "outputs": [
        {
          "internalType": "address",
          "name": "",
          "type": "address"
        }
      ],
      "stateMutability": "view",
      "type": "function"
    }
  ],
  "transactionHash": "0x03759d0b3082d2b3d8a14310f431c82e032519b0a1ac279ed2bc3d49be21fca4",
  "args": [
    "0x7a250d5630B4cF539739dF2C5dAcb4c659F2488D",
    "0xC02aaA39b223FE8D0A0e5C4F27eAD9083C756Cc2"
  ],
  "numDeployments": 1,
  "solcInputHash": "e41066c15c2a88ae557b6f0d3059c5d2",
  "bytecode": "0x60a06040523480156200001157600080fd5b5060405162001b7d38038062001b7d8339810160408190526200003491620000c0565b6000805462010000600160b01b03191633620100008102919091178255604051909182917fd4459d5b8b913cab0244230fd9b1c08b6ceace7fe9230e60d0f74cbffdf849d0908290a3506001600160a01b03918216608052600280546001600160a01b03191691909216179055620000ff565b6001600160a01b0381168114620000bd57600080fd5b50565b60008060408385031215620000d457600080fd5b8251620000e181620000a7565b6020840151909250620000f481620000a7565b809150509250929050565b608051611a2a62000153600039600081816101a9015281816104fc015281816105b90152818161069501528181610b4101528181610bfe01528181610cda01528181610fe401526111140152611a2a6000f3fe608060405234801561001057600080fd5b50600436106100be5760003560e01c80637fbb36e711610076578063b6aa515b1161005b578063b6aa515b14610189578063f3b27bc31461019c578063f887ea40146101a457600080fd5b80637fbb36e7146101615780639d9f384d1461017657600080fd5b806329dbd944116100a757806329dbd9441461011a5780634909c29a1461012d57806370b247421461014e57600080fd5b80630c340a24146100c357806319145798146100f9575b600080fd5b6000546100dc906201000090046001600160a01b031681565b6040516001600160a01b0390911681526020015b60405180910390f35b61010c6101073660046114d0565b6101cb565b6040516100f092919061156d565b6002546100dc906001600160a01b031681565b61014061013b3660046115cf565b610462565b6040519081526020016100f0565b61010c61015c3660046114d0565b61075b565b61017461016f36600461163a565b6109c5565b005b610140610184366004611657565b610aa7565b61017461019736600461163a565b610dc0565b610174610eb1565b6100dc7f000000000000000000000000000000000000000000000000000000000000000081565b6040805160028082526060828101909352600092918391816020016020820280368337019050509050858160008151811061020857610208611702565b60200260200101906001600160a01b031690816001600160a01b031681525050848160018151811061023c5761023c611702565b60200260200101906001600160a01b031690816001600160a01b03168152505060006102688583610fb1565b6002549091506001600160a01b038881169116148061029457506002546001600160a01b038781169116145b1561030357600081116102ee5760405162461bcd60e51b815260206004820152600d60248201527f6e6f2d706174682d666f756e640000000000000000000000000000000000000060448201526064015b60405180910390fd5b806102f8836110a2565b93509350505061045a565b6040805160038082526080820190925260009160208201606080368337019050509050878160008151811061033a5761033a611702565b6001600160a01b03928316602091820292909201015260025482519116908290600190811061036b5761036b611702565b60200260200101906001600160a01b031690816001600160a01b031681525050868160028151811061039f5761039f611702565b60200260200101906001600160a01b031690816001600160a01b03168152505060006103cb8783610fb1565b905060008311806103dc5750600081115b6104285760405162461bcd60e51b815260206004820152600d60248201527f6e6f2d706174682d666f756e640000000000000000000000000000000000000060448201526064016102e5565b80831115610447578261043a856110a2565b955095505050505061045a565b80610451836110a2565b95509550505050505b935093915050565b6000806104a487878080601f0160208091040260200160405190810160405280939291908181526020018383808284376000920191909152506110cb92505050565b90506000816000815181106104bb576104bb611702565b60209081029190910101516040517fdd62ed3e0000000000000000000000000000000000000000000000000000000081523060048201526001600160a01b037f000000000000000000000000000000000000000000000000000000000000000081166024830152919250879183169063dd62ed3e9060440160206040518083038186803b15801561054b57600080fd5b505afa15801561055f573d6000803e3d6000fd5b505050506040513d601f19601f820116820180604052508101906105839190611731565b1015610665576040517f095ea7b30000000000000000000000000000000000000000000000000000000081526001600160a01b037f0000000000000000000000000000000000000000000000000000000000000000811660048301527fffffffffffffffffffffffffffffffffffffffffffffffffffffffffffffffff602483015282169063095ea7b390604401602060405180830381600087803b15801561062b57600080fd5b505af115801561063f573d6000803e3d6000fd5b505050506040513d601f19601f82011682018060405250810190610663919061174a565b505b6040517f38ed17390000000000000000000000000000000000000000000000000000000081526001600160a01b037f000000000000000000000000000000000000000000000000000000000000000016906338ed1739906106d2908990899087908a9042906004016117b0565b600060405180830381600087803b1580156106ec57600080fd5b505af1158015610700573d6000803e3d6000fd5b505050506040513d6000823e601f3d908101601f191682016040526107289190810190611841565b6001835161073691906118cc565b8151811061074657610746611702565b60200260200101519250505095945050505050565b6040805160028082526060828101909352600092918391816020016020820280368337019050509050858160008151811061079857610798611702565b60200260200101906001600160a01b031690816001600160a01b03168152505084816001815181106107cc576107cc611702565b60200260200101906001600160a01b031690816001600160a01b03168152505060006107f885836110e1565b6002549091506001600160a01b038881169116148061082457506002546001600160a01b038781169116145b1561087957600081116102ee5760405162461bcd60e51b815260206004820152600d60248201527f6e6f2d706174682d666f756e640000000000000000000000000000000000000060448201526064016102e5565b604080516003808252608082019092526000916020820160608036833701905050905087816000815181106108b0576108b0611702565b6001600160a01b0392831660209182029290920101526002548251911690829060019081106108e1576108e1611702565b60200260200101906001600160a01b031690816001600160a01b031681525050868160028151811061091557610915611702565b60200260200101906001600160a01b031690816001600160a01b031681525050600061094187836110e1565b905060008311806109525750600081115b61099e5760405162461bcd60e51b815260206004820152600d60248201527f6e6f2d706174682d666f756e640000000000000000000000000000000000000060448201526064016102e5565b6000831180156109ad57508083105b806109b6575080155b15610447578261043a856110a2565b6000546001600160a01b0362010000909104163314610a265760405162461bcd60e51b815260206004820152600c60248201527f6e6f742d676f7665726e6f72000000000000000000000000000000000000000060448201526064016102e5565b600254604080516001600160a01b03928316815291831660208301527fa660aa88bd78e0552d7e2b6cb01df732642a0ff595c9c7b2ae67fb9e3db01f55910160405180910390a1600280547fffffffffffffffffffffffff0000000000000000000000000000000000000000166001600160a01b0392909216919091179055565b600080610ae988888080601f0160208091040260200160405190810160405280939291908181526020018383808284376000920191909152506110cb92505050565b9050600081600081518110610b0057610b00611702565b60209081029190910101516040517fdd62ed3e0000000000000000000000000000000000000000000000000000000081523060048201526001600160a01b037f000000000000000000000000000000000000000000000000000000000000000081166024830152919250879183169063dd62ed3e9060440160206040518083038186803b158015610b9057600080fd5b505afa158015610ba4573d6000803e3d6000fd5b505050506040513d601f19601f82011682018060405250810190610bc89190611731565b1015610caa576040517f095ea7b30000000000000000000000000000000000000000000000000000000081526001600160a01b037f0000000000000000000000000000000000000000000000000000000000000000811660048301527fffffffffffffffffffffffffffffffffffffffffffffffffffffffffffffffff602483015282169063095ea7b390604401602060405180830381600087803b158015610c7057600080fd5b505af1158015610c84573d6000803e3d6000fd5b505050506040513d601f19601f82011682018060405250810190610ca8919061174a565b505b6040517f8803dbee0000000000000000000000000000000000000000000000000000000081526001600160a01b037f00000000000000000000000000000000000000000000000000000000000000001690638803dbee90610d17908a908a9087908a9042906004016117b0565b600060405180830381600087803b158015610d3157600080fd5b505af1158015610d45573d6000803e3d6000fd5b505050506040513d6000823e601f3d908101601f19168201604052610d6d9190810190611841565b600081518110610d7f57610d7f611702565b6020026020010151925060008387610d9791906118cc565b90508015610db357610db36001600160a01b03831687836111b4565b5050509695505050505050565b6000546001600160a01b0362010000909104163314610e215760405162461bcd60e51b815260206004820152600c60248201527f6e6f742d676f7665726e6f72000000000000000000000000000000000000000060448201526064016102e5565b6001600160a01b038116610e775760405162461bcd60e51b815260206004820152601960248201527f70726f706f7365642d676f7665726e6f722d69732d7a65726f0000000000000060448201526064016102e5565b600180547fffffffffffffffffffffffff0000000000000000000000000000000000000000166001600160a01b0392909216919091179055565b6001546001600160a01b03163314610f0b5760405162461bcd60e51b815260206004820152601960248201527f6e6f742d7468652d70726f706f7365642d676f7665726e6f720000000000000060448201526064016102e5565b600154600080546040516001600160a01b039384169362010000909204909116917fd4459d5b8b913cab0244230fd9b1c08b6ceace7fe9230e60d0f74cbffdf849d091a360018054600080547fffffffffffffffffffff0000000000000000000000000000000000000000ffff166001600160a01b03831662010000021790557fffffffffffffffffffffffff0000000000000000000000000000000000000000169055565b6040517fd06ca61f0000000000000000000000000000000000000000000000000000000081526000906001600160a01b037f0000000000000000000000000000000000000000000000000000000000000000169063d06ca61f9061101b908690869060040161190a565b60006040518083038186803b15801561103357600080fd5b505afa92505050801561106857506040513d6000823e601f3d908101601f191682016040526110659190810190611841565b60015b6110715761109c565b806001845161108091906118cc565b8151811061109057611090611702565b60200260200101519150505b92915050565b6060816040516020016110b59190611923565b6040516020818303038152906040529050919050565b60608180602001905181019061109c9190611936565b6040517f1f00ca740000000000000000000000000000000000000000000000000000000081526000906001600160a01b037f00000000000000000000000000000000000000000000000000000000000000001690631f00ca749061114b908690869060040161190a565b60006040518083038186803b15801561116357600080fd5b505afa92505050801561119857506040513d6000823e601f3d908101601f191682016040526111959190810190611841565b60015b6111a15761109c565b8060008151811061109057611090611702565b604080516001600160a01b038416602482015260448082018490528251808303909101815260649091019091526020810180517bffffffffffffffffffffffffffffffffffffffffffffffffffffffff167fa9059cbb00000000000000000000000000000000000000000000000000000000179052611234908490611239565b505050565b600061128e826040518060400160405280602081526020017f5361666545524332303a206c6f772d6c6576656c2063616c6c206661696c6564815250856001600160a01b031661131e9092919063ffffffff16565b80519091501561123457808060200190518101906112ac919061174a565b6112345760405162461bcd60e51b815260206004820152602a60248201527f5361666545524332303a204552433230206f7065726174696f6e20646964206e60448201527f6f7420737563636565640000000000000000000000000000000000000000000060648201526084016102e5565b606061132d8484600085611337565b90505b9392505050565b6060824710156113af5760405162461bcd60e51b815260206004820152602660248201527f416464726573733a20696e73756666696369656e742062616c616e636520666f60448201527f722063616c6c000000000000000000000000000000000000000000000000000060648201526084016102e5565b6001600160a01b0385163b6114065760405162461bcd60e51b815260206004820152601d60248201527f416464726573733a2063616c6c20746f206e6f6e2d636f6e747261637400000060448201526064016102e5565b600080866001600160a01b0316858760405161142291906119c5565b60006040518083038185875af1925050503d806000811461145f576040519150601f19603f3d011682016040523d82523d6000602084013e611464565b606091505b509150915061147482828661147f565b979650505050505050565b6060831561148e575081611330565b82511561149e5782518084602001fd5b8160405162461bcd60e51b81526004016102e591906119e1565b6001600160a01b03811681146114cd57600080fd5b50565b6000806000606084860312156114e557600080fd5b83356114f0816114b8565b92506020840135611500816114b8565b929592945050506040919091013590565b60005b8381101561152c578181015183820152602001611514565b8381111561153b576000848401525b50505050565b60008151808452611559816020860160208601611511565b601f01601f19169290920160200192915050565b82815260406020820152600061132d6040830184611541565b60008083601f84011261159857600080fd5b50813567ffffffffffffffff8111156115b057600080fd5b6020830191508360208285010111156115c857600080fd5b9250929050565b6000806000806000608086880312156115e757600080fd5b853567ffffffffffffffff8111156115fe57600080fd5b61160a88828901611586565b9096509450506020860135925060408601359150606086013561162c816114b8565b809150509295509295909350565b60006020828403121561164c57600080fd5b8135611330816114b8565b60008060008060008060a0878903121561167057600080fd5b863567ffffffffffffffff81111561168757600080fd5b61169389828a01611586565b909750955050602087013593506040870135925060608701356116b5816114b8565b915060808701356116c5816114b8565b809150509295509295509295565b7f4e487b7100000000000000000000000000000000000000000000000000000000600052604160045260246000fd5b7f4e487b7100000000000000000000000000000000000000000000000000000000600052603260045260246000fd5b60006020828403121561174357600080fd5b5051919050565b60006020828403121561175c57600080fd5b8151801515811461133057600080fd5b600081518084526020808501945080840160005b838110156117a55781516001600160a01b031687529582019590820190600101611780565b509495945050505050565b85815284602082015260a0604082015260006117cf60a083018661176c565b6001600160a01b0394909416606083015250608001529392505050565b604051601f8201601f1916810167ffffffffffffffff81118282101715611815576118156116d3565b604052919050565b600067ffffffffffffffff821115611837576118376116d3565b5060051b60200190565b6000602080838503121561185457600080fd5b825167ffffffffffffffff81111561186b57600080fd5b8301601f8101851361187c57600080fd5b805161188f61188a8261181d565b6117ec565b81815260059190911b820183019083810190878311156118ae57600080fd5b928401925b82841015611474578351825292840192908401906118b3565b600082821015611905577f4e487b7100000000000000000000000000000000000000000000000000000000600052601160045260246000fd5b500390565b82815260406020820152600061132d604083018461176c565b602081526000611330602083018461176c565b6000602080838503121561194957600080fd5b825167ffffffffffffffff81111561196057600080fd5b8301601f8101851361197157600080fd5b805161197f61188a8261181d565b81815260059190911b8201830190838101908783111561199e57600080fd5b928401925b828410156114745783516119b6816114b8565b825292840192908401906119a3565b600082516119d7818460208701611511565b9190910192915050565b602081526000611330602083018461154156fea264697066735822122071388ae13d980b28a1485fbe970f0217658496a79105d740b28e6712466c1ae064736f6c63430008090033",
  "devdoc": {
    "kind": "dev",
    "methods": {
      "acceptGovernorship()": {
        "details": "Allows new governor to accept governorship of the contract."
      },
      "constructor": {
        "details": "Doesn't consider router.WETH() as `wethLike` because isn't guaranteed that it's the most liquid token."
      },
      "getBestAmountIn(address,address,uint256)": {
        "details": "It shouldn't be used as oracle!!!"
      },
      "getBestAmountOut(address,address,uint256)": {
        "details": "It shouldn't be used as oracle!!!"
      },
      "swapExactInput(bytes,uint256,uint256,address)": {
        "details": "Should transfer `amountIn_` before performing swap"
      },
      "swapExactOutput(bytes,uint256,uint256,address,address)": {
        "details": "Should transfer `amountInMax_` before performing swapSends swap remains - if any - to the `inSender_`"
      },
      "transferGovernorship(address)": {
        "details": "Transfers governorship of the contract to a new account (`proposedGovernor`). Can only be called by the current owner."
      }
    },
    "stateVariables": {
      "wethLike": {
        "details": "I.e. should be the most liquid token that offer best routers among trade pairsIt's usually the wrapper token of the chain's native coin but it isn't always true For instance: On Polygon, the `WETH` is more liquid than `WMATIC` on UniV3 protocol."
      }
    },
    "version": 1
  },
  "userdoc": {
    "events": {
      "WethLikeTokenUpdated(address,address)": {
        "notice": "Emitted when wethLike token is updated"
      }
    },
    "kind": "user",
    "methods": {
      "getBestAmountIn(address,address,uint256)": {
        "notice": "Get *spot* quote It will return the swap amount based on the current reserves of the best pair/path found (i.e. spot price)"
      },
      "getBestAmountOut(address,address,uint256)": {
        "notice": "Get *spot* quote It will return the swap amount based on the current reserves of the best pair/path found (i.e. spot price)"
      },
      "router()": {
        "notice": "The UniswapV2-Like router contract"
      },
      "swapExactInput(bytes,uint256,uint256,address)": {
        "notice": "Perform an exact input swap"
      },
      "swapExactOutput(bytes,uint256,uint256,address,address)": {
        "notice": "Perform an exact output swap"
      },
      "updateWethLikeToken(address)": {
        "notice": "Update WETH-Like token"
      },
      "wethLike()": {
        "notice": "The WETH-Like token (a.k.a. Native Token)"
      }
    },
    "notice": "UniswapV2 Like Exchange",
    "version": 1
  },
  "storageLayout": {
    "storage": [
      {
        "astId": 420,
        "contract": "contracts/swapper/UniswapV2LikeExchange.sol:UniswapV2LikeExchange",
        "label": "_initialized",
        "offset": 0,
        "slot": "0",
        "type": "t_uint8"
      },
      {
        "astId": 423,
        "contract": "contracts/swapper/UniswapV2LikeExchange.sol:UniswapV2LikeExchange",
        "label": "_initializing",
        "offset": 1,
        "slot": "0",
        "type": "t_bool"
      },
      {
        "astId": 6779,
        "contract": "contracts/swapper/UniswapV2LikeExchange.sol:UniswapV2LikeExchange",
        "label": "governor",
        "offset": 2,
        "slot": "0",
        "type": "t_address"
      },
      {
        "astId": 6781,
        "contract": "contracts/swapper/UniswapV2LikeExchange.sol:UniswapV2LikeExchange",
        "label": "proposedGovernor",
        "offset": 0,
        "slot": "1",
        "type": "t_address"
      },
      {
        "astId": 15425,
        "contract": "contracts/swapper/UniswapV2LikeExchange.sol:UniswapV2LikeExchange",
        "label": "wethLike",
        "offset": 0,
        "slot": "2",
        "type": "t_address"
      }
    ],
    "types": {
      "t_address": {
        "encoding": "inplace",
        "label": "address",
        "numberOfBytes": "20"
      },
      "t_bool": {
        "encoding": "inplace",
        "label": "bool",
        "numberOfBytes": "1"
      },
      "t_uint8": {
        "encoding": "inplace",
        "label": "uint8",
        "numberOfBytes": "1"
      }
    }
  }
}