{
  "address": "0x06950080017FC33628239Aa50E4Fd6cecAfd133D",
  "abi": [
    {
      "inputs": [
        {
          "internalType": "address",
          "name": "factory_",
          "type": "address"
        },
        {
          "internalType": "uint256",
          "name": "defaultTwapPeriod_",
          "type": "uint256"
        },
        {
          "internalType": "address",
          "name": "nativeToken_",
          "type": "address"
        }
      ],
      "stateMutability": "nonpayable",
      "type": "constructor"
    },
    {
      "anonymous": false,
      "inputs": [
        {
          "indexed": false,
          "internalType": "uint256",
          "name": "oldTwapPeriod",
          "type": "uint256"
        },
        {
          "indexed": false,
          "internalType": "uint256",
          "name": "newTwapPeriod",
          "type": "uint256"
        }
      ],
      "name": "DefaultTwapPeriodUpdated",
      "type": "event"
    },
    {
      "inputs": [],
      "name": "USD_DECIMALS",
      "outputs": [
        {
          "internalType": "uint256",
          "name": "",
          "type": "uint256"
        }
      ],
      "stateMutability": "view",
      "type": "function"
    },
    {
      "inputs": [],
      "name": "addressProvider",
      "outputs": [
        {
          "internalType": "contract IAddressProvider",
          "name": "",
          "type": "address"
        }
      ],
      "stateMutability": "view",
      "type": "function"
    },
    {
      "inputs": [],
      "name": "defaultTwapPeriod",
      "outputs": [
        {
          "internalType": "uint256",
          "name": "",
          "type": "uint256"
        }
      ],
      "stateMutability": "view",
      "type": "function"
    },
    {
      "inputs": [],
      "name": "factory",
      "outputs": [
        {
          "internalType": "address",
          "name": "",
          "type": "address"
        }
      ],
      "stateMutability": "view",
      "type": "function"
    },
    {
      "inputs": [
        {
          "internalType": "address",
          "name": "token_",
          "type": "address"
        }
      ],
      "name": "getPriceInUsd",
      "outputs": [
        {
          "internalType": "uint256",
          "name": "_priceInUsd",
          "type": "uint256"
        },
        {
          "internalType": "uint256",
          "name": "_lastUpdatedAt",
          "type": "uint256"
        }
      ],
      "stateMutability": "view",
      "type": "function"
    },
    {
      "inputs": [
        {
          "internalType": "address",
          "name": "token_",
          "type": "address"
        },
        {
          "internalType": "uint256",
          "name": "twapPeriod_",
          "type": "uint256"
        }
      ],
      "name": "getPriceInUsd",
      "outputs": [
        {
          "internalType": "uint256",
          "name": "_priceInUsd",
          "type": "uint256"
        },
        {
          "internalType": "uint256",
          "name": "_lastUpdatedAt",
          "type": "uint256"
        }
      ],
      "stateMutability": "view",
      "type": "function"
    },
    {
      "inputs": [
        {
          "internalType": "contract IUniswapV2Pair",
          "name": "pair_",
          "type": "address"
        },
        {
          "internalType": "uint256",
          "name": "twapPeriod_",
          "type": "uint256"
        }
      ],
      "name": "hasOracle",
      "outputs": [
        {
          "internalType": "bool",
          "name": "",
          "type": "bool"
        }
      ],
      "stateMutability": "view",
      "type": "function"
    },
    {
      "inputs": [
        {
          "internalType": "contract IUniswapV2Pair",
          "name": "pair_",
          "type": "address"
        }
      ],
      "name": "hasOracle",
      "outputs": [
        {
          "internalType": "bool",
          "name": "",
          "type": "bool"
        }
      ],
      "stateMutability": "view",
      "type": "function"
    },
    {
      "inputs": [],
      "name": "nativeToken",
      "outputs": [
        {
          "internalType": "address",
          "name": "",
          "type": "address"
        }
      ],
      "stateMutability": "view",
      "type": "function"
    },
    {
      "inputs": [
        {
          "internalType": "contract IUniswapV2Pair",
          "name": "",
          "type": "address"
        },
        {
          "internalType": "uint256",
          "name": "",
          "type": "uint256"
        }
      ],
      "name": "oracles",
      "outputs": [
        {
          "internalType": "address",
          "name": "token0",
          "type": "address"
        },
        {
          "internalType": "address",
          "name": "token1",
          "type": "address"
        },
        {
          "internalType": "uint256",
          "name": "price0CumulativeLast",
          "type": "uint256"
        },
        {
          "internalType": "uint256",
          "name": "price1CumulativeLast",
          "type": "uint256"
        },
        {
          "internalType": "uint32",
          "name": "blockTimestampLast",
          "type": "uint32"
        },
        {
          "components": [
            {
              "internalType": "uint224",
              "name": "_x",
              "type": "uint224"
            }
          ],
          "internalType": "struct FixedPoint.uq112x112",
          "name": "price0Average",
          "type": "tuple"
        },
        {
          "components": [
            {
              "internalType": "uint224",
              "name": "_x",
              "type": "uint224"
            }
          ],
          "internalType": "struct FixedPoint.uq112x112",
          "name": "price1Average",
          "type": "tuple"
        }
      ],
      "stateMutability": "view",
      "type": "function"
    },
    {
      "inputs": [
        {
          "internalType": "address",
          "name": "token0_",
          "type": "address"
        },
        {
          "internalType": "address",
          "name": "token1_",
          "type": "address"
        }
      ],
      "name": "pairFor",
      "outputs": [
        {
          "internalType": "contract IUniswapV2Pair",
          "name": "_pair",
          "type": "address"
        }
      ],
      "stateMutability": "view",
      "type": "function"
    },
    {
      "inputs": [
        {
          "internalType": "address",
          "name": "tokenIn_",
          "type": "address"
        },
        {
          "internalType": "address",
          "name": "tokenOut_",
          "type": "address"
        },
        {
          "internalType": "uint256",
          "name": "twapPeriod_",
          "type": "uint256"
        },
        {
          "internalType": "uint256",
          "name": "amountIn_",
          "type": "uint256"
        }
      ],
      "name": "quote",
      "outputs": [
        {
          "internalType": "uint256",
          "name": "_amountOut",
          "type": "uint256"
        },
        {
          "internalType": "uint256",
          "name": "_lastUpdatedAt",
          "type": "uint256"
        }
      ],
      "stateMutability": "view",
      "type": "function"
    },
    {
      "inputs": [
        {
          "internalType": "address",
          "name": "tokenIn_",
          "type": "address"
        },
        {
          "internalType": "address",
          "name": "tokenOut_",
          "type": "address"
        },
        {
          "internalType": "uint256",
          "name": "amountIn_",
          "type": "uint256"
        }
      ],
      "name": "quote",
      "outputs": [
        {
          "internalType": "uint256",
          "name": "_amountOut",
          "type": "uint256"
        },
        {
          "internalType": "uint256",
          "name": "_lastUpdatedAt",
          "type": "uint256"
        }
      ],
      "stateMutability": "view",
      "type": "function"
    },
    {
      "inputs": [
        {
          "internalType": "address",
          "name": "token_",
          "type": "address"
        },
        {
          "internalType": "uint256",
          "name": "amountIn_",
          "type": "uint256"
        }
      ],
      "name": "quoteTokenToUsd",
      "outputs": [
        {
          "internalType": "uint256",
          "name": "_amountOut",
          "type": "uint256"
        },
        {
          "internalType": "uint256",
          "name": "_lastUpdatedAt",
          "type": "uint256"
        }
      ],
      "stateMutability": "view",
      "type": "function"
    },
    {
      "inputs": [
        {
          "internalType": "address",
          "name": "token_",
          "type": "address"
        },
        {
          "internalType": "uint256",
          "name": "amountIn_",
          "type": "uint256"
        },
        {
          "internalType": "uint256",
          "name": "twapPeriod_",
          "type": "uint256"
        }
      ],
      "name": "quoteTokenToUsd",
      "outputs": [
        {
          "internalType": "uint256",
          "name": "_amountOut",
          "type": "uint256"
        },
        {
          "internalType": "uint256",
          "name": "_lastUpdatedAt",
          "type": "uint256"
        }
      ],
      "stateMutability": "view",
      "type": "function"
    },
    {
      "inputs": [
        {
          "internalType": "address",
          "name": "token_",
          "type": "address"
        },
        {
          "internalType": "uint256",
          "name": "amountIn_",
          "type": "uint256"
        },
        {
          "internalType": "uint256",
          "name": "twapPeriod_",
          "type": "uint256"
        }
      ],
      "name": "quoteUsdToToken",
      "outputs": [
        {
          "internalType": "uint256",
          "name": "_amountOut",
          "type": "uint256"
        },
        {
          "internalType": "uint256",
          "name": "_lastUpdatedAt",
          "type": "uint256"
        }
      ],
      "stateMutability": "view",
      "type": "function"
    },
    {
      "inputs": [
        {
          "internalType": "address",
          "name": "token_",
          "type": "address"
        },
        {
          "internalType": "uint256",
          "name": "amountIn_",
          "type": "uint256"
        }
      ],
      "name": "quoteUsdToToken",
      "outputs": [
        {
          "internalType": "uint256",
          "name": "_amountOut",
          "type": "uint256"
        },
        {
          "internalType": "uint256",
          "name": "_lastUpdatedAt",
          "type": "uint256"
        }
      ],
      "stateMutability": "view",
      "type": "function"
    },
    {
      "inputs": [
        {
          "internalType": "address",
          "name": "tokenIn_",
          "type": "address"
        },
        {
          "internalType": "address",
          "name": "tokenOut_",
          "type": "address"
        },
        {
          "internalType": "uint256",
          "name": "twapPeriod_",
          "type": "uint256"
        },
        {
          "internalType": "uint256",
          "name": "amountIn_",
          "type": "uint256"
        }
      ],
      "name": "updateAndQuote",
      "outputs": [
        {
          "internalType": "uint256",
          "name": "_amountOut",
          "type": "uint256"
        },
        {
          "internalType": "uint256",
          "name": "_lastUpdatedAt",
          "type": "uint256"
        }
      ],
      "stateMutability": "nonpayable",
      "type": "function"
    },
    {
      "inputs": [
        {
          "internalType": "address",
          "name": "tokenIn_",
          "type": "address"
        },
        {
          "internalType": "address",
          "name": "tokenOut_",
          "type": "address"
        },
        {
          "internalType": "uint256",
          "name": "amountIn_",
          "type": "uint256"
        }
      ],
      "name": "updateAndQuote",
      "outputs": [
        {
          "internalType": "uint256",
          "name": "_amountOut",
          "type": "uint256"
        },
        {
          "internalType": "uint256",
          "name": "_lastUpdatedAt",
          "type": "uint256"
        }
      ],
      "stateMutability": "nonpayable",
      "type": "function"
    },
    {
      "inputs": [
        {
          "internalType": "uint256",
          "name": "newDefaultTwapPeriod_",
          "type": "uint256"
        }
      ],
      "name": "updateDefaultTwapPeriod",
      "outputs": [],
      "stateMutability": "nonpayable",
      "type": "function"
    },
    {
      "inputs": [
        {
          "internalType": "address",
          "name": "tokenIn_",
          "type": "address"
        },
        {
          "internalType": "address",
          "name": "tokenOut_",
          "type": "address"
        },
        {
          "internalType": "uint256",
          "name": "twapPeriod_",
          "type": "uint256"
        }
      ],
      "name": "updateOrAdd",
      "outputs": [],
      "stateMutability": "nonpayable",
      "type": "function"
    },
    {
      "inputs": [
        {
          "internalType": "address",
          "name": "tokenIn_",
          "type": "address"
        },
        {
          "internalType": "address",
          "name": "tokenOut_",
          "type": "address"
        }
      ],
      "name": "updateOrAdd",
      "outputs": [],
      "stateMutability": "nonpayable",
      "type": "function"
    }
  ],
  "transactionHash": "0x3c7391241f1d4731e62e19028a29771a6da2a0c11d1e65fc0f814fe4b7ca3654",
  "args": [
    "0x5C69bEe701ef814a2B6a3EDD4B1652CB9cc5aA6f",
    7200,
    "0xC02aaA39b223FE8D0A0e5C4F27eAD9083C756Cc2"
  ],
  "numDeployments": 2,
  "solcInputHash": "8b654c506c10a4071125075f82070c93",
  "bytecode": "0x60c06040523480156200001157600080fd5b5060405162001eb238038062001eb28339810160408190526200003491620000bc565b6001600160a01b038316620000815760405162461bcd60e51b815260206004820152600f60248201526e199858dd1bdc9e4b5a5ccb5b9d5b1b608a1b604482015260640160405180910390fd5b6000919091556001600160a01b039182166080521660a052620000fd565b80516001600160a01b0381168114620000b757600080fd5b919050565b600080600060608486031215620000d257600080fd5b620000dd846200009f565b925060208401519150620000f4604085016200009f565b90509250925092565b60805160a051611d7a62000138600039600081816104690152818161079001526107c201526000818161042f01526109140152611d7a6000f3fe608060405234801561001057600080fd5b50600436106101825760003560e01c806372499689116100d8578063a00a8b2c1161008c578063c45a015511610066578063c45a01551461042a578063d0578a0114610451578063e1758bd81461046457600080fd5b8063a00a8b2c146102fc578063b5e9bef514610404578063b64663841461041757600080fd5b80638d0dba00116100bd5780638d0dba00146102c357806396ed28f9146102d65780639f15ec9d146102e957600080fd5b806372499689146102a757806384e0b233146102ba57600080fd5b80632954018c1161013a57806341118ef41161011457806341118ef41461026e5780634ad1a30e14610281578063520b93551461029457600080fd5b80632954018c146102125780632f6ee695146102455780633c4144531461025b57600080fd5b80631676a0bf1161016b5780631676a0bf146101c9578063180c9309146101ec578063197dd8c0146101ff57600080fd5b806307ee40bf146101875780631648b846146101b4575b600080fd5b61019a610195366004611911565b61048b565b604080519283526020830191909152015b60405180910390f35b6101c76101c236600461192e565b6104a3565b005b6101dc6101d7366004611947565b6105ce565b60405190151581526020016101ab565b6101dc6101fa366004611911565b610604565b6101c761020d366004611973565b610612565b61022d73fba0816a81bcabbf3829bed28618177a2bf0e82a81565b6040516001600160a01b0390911681526020016101ab565b61024d601281565b6040519081526020016101ab565b61019a6102693660046119b4565b610649565b6101c761027c3660046119e9565b6106fc565b61019a61028f366004611a22565b61070d565b61019a6102a2366004611a22565b610735565b61019a6102b5366004611973565b610804565b61024d60005481565b61019a6102d1366004611947565b610821565b61022d6102e43660046119e9565b6108d1565b61019a6102f73660046119b4565b610997565b61039a61030a366004611947565b60016020818152600093845260408085208252928452928290208054918101546002820154600383015460048401548651808901885260058601547bffffffffffffffffffffffffffffffffffffffffffffffffffffffff90811682528851998a0190985260069095015490961687526001600160a01b0394851696929094169490939263ffffffff9091169187565b604080516001600160a01b03988916815297909616602088015294860193909352606085019190915263ffffffff166080840152517bffffffffffffffffffffffffffffffffffffffffffffffffffffffff90811660a084015290511660c082015260e0016101ab565b61019a610412366004611947565b610a34565b61019a610425366004611973565b610ad1565b61022d7f000000000000000000000000000000000000000000000000000000000000000081565b61019a61045f366004611947565b610ae2565b61022d7f000000000000000000000000000000000000000000000000000000000000000081565b60008061049a83600054610ae2565b91509150915091565b73fba0816a81bcabbf3829bed28618177a2bf0e82a6001600160a01b0316630c340a246040518163ffffffff1660e01b815260040160206040518083038186803b1580156104f057600080fd5b505afa158015610504573d6000803e3d6000fd5b505050506040513d601f19601f820116820180604052508101906105289190611a68565b6001600160a01b0316336001600160a01b03161461058d5760405162461bcd60e51b815260206004820152600c60248201527f6e6f742d676f7665726e6f72000000000000000000000000000000000000000060448201526064015b60405180910390fd5b60005460408051918252602082018390527fb2d6c0b99b0405017e8d7385ed0ec304b6c63fcd04917f2fb5e6c88c75ad947a910160405180910390a1600055565b6001600160a01b038216600090815260016020908152604080832084845290915290206004015463ffffffff1615155b92915050565b60006105fe826000546105ce565b600061061e84846108d1565b905061062a81836105ce565b610638576106388183610d5a565b61064281836111fe565b5050505050565b60008060006106588685610ae2565b809350819250505080866001600160a01b031663313ce5676040518163ffffffff1660e01b815260040160206040518083038186803b15801561069a57600080fd5b505afa1580156106ae573d6000803e3d6000fd5b505050506040513d601f19601f820116820180604052508101906106d29190611a85565b6106dd90600a611bbb565b6106e79087611bca565b6106f19190611c18565b925050935093915050565b6107098282600054610612565b5050565b60008061071b868686610612565b61072786868686610735565b915091505b94509492505050565b600080846001600160a01b0316866001600160a01b0316141561075c57508190504261072c565b61076f61076987876108d1565b856105ce565b1561078a576107808686868661139e565b909250905061072c565b6107b6867f0000000000000000000000000000000000000000000000000000000000000000868661139e565b909250905060006107e97f000000000000000000000000000000000000000000000000000000000000000087878661139e565b90935090506107f881836114ec565b91505094509492505050565b60008061081585856000548661070d565b91509150935093915050565b600080600061082f8561048b565b8093508192505050846001600160a01b031663313ce5676040518163ffffffff1660e01b815260040160206040518083038186803b15801561087057600080fd5b505afa158015610884573d6000803e3d6000fd5b505050506040513d601f19601f820116820180604052508101906108a89190611a85565b6108b390600a611bbb565b6108bd8286611bca565b6108c79190611c18565b9250509250929050565b6040517fe6a439050000000000000000000000000000000000000000000000000000000081526001600160a01b03838116600483015282811660248301526000917f00000000000000000000000000000000000000000000000000000000000000009091169063e6a439059060440160206040518083038186803b15801561095857600080fd5b505afa15801561096c573d6000803e3d6000fd5b505050506040513d601f19601f820116820180604052508101906109909190611a68565b9392505050565b60008060006109a68685610ae2565b8093508192505050856001600160a01b031663313ce5676040518163ffffffff1660e01b815260040160206040518083038186803b1580156109e757600080fd5b505afa1580156109fb573d6000803e3d6000fd5b505050506040513d601f19601f82011682018060405250810190610a1f9190611a85565b610a2a90600a611bbb565b6106e78287611bca565b6000806000610a428561048b565b809350819250505080856001600160a01b031663313ce5676040518163ffffffff1660e01b815260040160206040518083038186803b158015610a8457600080fd5b505afa158015610a98573d6000803e3d6000fd5b505050506040513d601f19601f82011682018060405250810190610abc9190611a85565b610ac790600a611bbb565b6108bd9086611bca565b600080610815858560005486610735565b600080600073fba0816a81bcabbf3829bed28618177a2bf0e82a6001600160a01b0316632082615f6040518163ffffffff1660e01b815260040160206040518083038186803b158015610b3457600080fd5b505afa158015610b48573d6000803e3d6000fd5b505050506040513d601f19601f82011682018060405250810190610b6c9190611a68565b90506001600160a01b038116610bc45760405162461bcd60e51b815260206004820152601960248201527f737461626c652d636f696e2d6e6f742d737570706f72746564000000000000006044820152606401610584565b6000610cb886836001600160a01b03166384537f0e6040518163ffffffff1660e01b815260040160206040518083038186803b158015610c0357600080fd5b505afa158015610c17573d6000803e3d6000fd5b505050506040513d601f19601f82011682018060405250810190610c3b9190611a68565b87896001600160a01b031663313ce5676040518163ffffffff1660e01b815260040160206040518083038186803b158015610c7557600080fd5b505afa158015610c89573d6000803e3d6000fd5b505050506040513d601f19601f82011682018060405250810190610cad9190611a85565b6102a290600a611bbb565b6040517fba55f5c1000000000000000000000000000000000000000000000000000000008152600481018390529094509091506001600160a01b0383169063ba55f5c19060240160206040518083038186803b158015610d1757600080fd5b505afa158015610d2b573d6000803e3d6000fd5b505050506040513d601f19601f82011682018060405250810190610d4f9190611c2c565b935050509250929050565b6001600160a01b038216610db05760405162461bcd60e51b815260206004820152600c60248201527f696e76616c69642d7061697200000000000000000000000000000000000000006044820152606401610584565b6000806000846001600160a01b0316630902f1ac6040518163ffffffff1660e01b815260040160606040518083038186803b158015610dee57600080fd5b505afa158015610e02573d6000803e3d6000fd5b505050506040513d601f19601f82011682018060405250810190610e269190611c68565b925092509250826dffffffffffffffffffffffffffff16600014158015610e5c57506dffffffffffffffffffffffffffff821615155b610ea85760405162461bcd60e51b815260206004820152600b60248201527f6e6f2d72657365727665730000000000000000000000000000000000000000006044820152606401610584565b6040518060e00160405280866001600160a01b0316630dfe16816040518163ffffffff1660e01b815260040160206040518083038186803b158015610eec57600080fd5b505afa158015610f00573d6000803e3d6000fd5b505050506040513d601f19601f82011682018060405250810190610f249190611a68565b6001600160a01b03168152602001866001600160a01b031663d21220a76040518163ffffffff1660e01b815260040160206040518083038186803b158015610f6b57600080fd5b505afa158015610f7f573d6000803e3d6000fd5b505050506040513d601f19601f82011682018060405250810190610fa39190611a68565b6001600160a01b03168152602001866001600160a01b0316635909c0d56040518163ffffffff1660e01b815260040160206040518083038186803b158015610fea57600080fd5b505afa158015610ffe573d6000803e3d6000fd5b505050506040513d601f19601f820116820180604052508101906110229190611c2c565b8152602001866001600160a01b0316635a3d54936040518163ffffffff1660e01b815260040160206040518083038186803b15801561106057600080fd5b505afa158015611074573d6000803e3d6000fd5b505050506040513d601f19601f820116820180604052508101906110989190611c2c565b815263ffffffff928316602080830191909152604080518083018252600090819052815180840183528181528285015281518084018352819052815180840183528181526060948501526001600160a01b03998a1681526001808452828220998252988352819020845181547fffffffffffffffffffffffff0000000000000000000000000000000000000000908116918c169190911782559285015198810180549093169890991697909717905594810151600287015593840151600386015560808401516004860180547fffffffffffffffffffffffffffffffffffffffffffffffffffffffff000000001691909216179055505060a0810151516005830180547fffffffff000000000000000000000000000000000000000000000000000000009081167bffffffffffffffffffffffffffffffffffffffffffffffffffffffff9384161790915560c09092015151600690930180549092169216919091179055565b6001600160a01b0382166000908152600160209081526040808320848452909152812081808061122d87611502565b6004870154929550909350915063ffffffff908116820390811687111561125c576000955050505050506105fe565b60028501546003860154604080516020810190915291860391908503908061128a63ffffffff861685611c18565b7bffffffffffffffffffffffffffffffffffffffffffffffffffffffff90811690915290516005890180547fffffffff0000000000000000000000000000000000000000000000000000000016919092161790556040805160208101909152806112fa63ffffffff861684611c18565b7bffffffffffffffffffffffffffffffffffffffffffffffffffffffff90811690915290516006890180547fffffffff00000000000000000000000000000000000000000000000000000000169190921617905550505060028401929092556003830155600490910180547fffffffffffffffffffffffffffffffffffffffffffffffffffffffff000000001663ffffffff90921691909117905550600192915050565b6000806000600160006113b189896108d1565b6001600160a01b039081168252602080830193909352604091820160009081208982528452829020825160e081018452815483168152600182015483168186015260028201548185015260038201546060820152600482015463ffffffff1660808201528351808601855260058301547bffffffffffffffffffffffffffffffffffffffffffffffffffffffff908116825260a08301919091528451958601909452600690910154909216835260c08201929092528051909250888216911614156114ab5760a081015161149090611489908661172c565b5160701c90565b71ffffffffffffffffffffffffffffffffffff1692506114d5565b60c08101516114be90611489908661172c565b71ffffffffffffffffffffffffffffffffffff1692505b806080015163ffffffff1691505094509492505050565b60008183106114fb5781610990565b5090919050565b600080600061150f611805565b9050836001600160a01b0316635909c0d56040518163ffffffff1660e01b815260040160206040518083038186803b15801561154a57600080fd5b505afa15801561155e573d6000803e3d6000fd5b505050506040513d601f19601f820116820180604052508101906115829190611c2c565b9250836001600160a01b0316635a3d54936040518163ffffffff1660e01b815260040160206040518083038186803b1580156115bd57600080fd5b505afa1580156115d1573d6000803e3d6000fd5b505050506040513d601f19601f820116820180604052508101906115f59190611c2c565b91506000806000866001600160a01b0316630902f1ac6040518163ffffffff1660e01b815260040160606040518083038186803b15801561163557600080fd5b505afa158015611649573d6000803e3d6000fd5b505050506040513d601f19601f8201168201806040525081019061166d9190611c68565b9250925092508363ffffffff168163ffffffff16146117225760006116928286611cb8565b90508063ffffffff166116a5848661181b565b516116ce91907bffffffffffffffffffffffffffffffffffffffffffffffffffffffff16611bca565b6116d89088611cdd565b96508063ffffffff166116eb858561181b565b5161171491907bffffffffffffffffffffffffffffffffffffffffffffffffffffffff16611bca565b61171e9087611cdd565b9550505b5050509193909250565b604080516020810190915260008152600082158061177e575083517bffffffffffffffffffffffffffffffffffffffffffffffffffffffff16836117708183611bca565b925061177c9083611c18565b145b6117f05760405162461bcd60e51b815260206004820152602360248201527f4669786564506f696e743a204d554c5449504c49434154494f4e5f4f5645524660448201527f4c4f5700000000000000000000000000000000000000000000000000000000006064820152608401610584565b60408051602081019091529081529392505050565b600061181664010000000042611cf5565b905090565b6040805160208101909152600081526000826dffffffffffffffffffffffffffff161161188a5760405162461bcd60e51b815260206004820152601760248201527f4669786564506f696e743a204449565f42595f5a45524f0000000000000000006044820152606401610584565b6040805160208101909152806118d26dffffffffffffffffffffffffffff85167bffffffffffffffffffffffffffff0000000000000000000000000000607088901b16611d09565b7bffffffffffffffffffffffffffffffffffffffffffffffffffffffff1690529392505050565b6001600160a01b038116811461190e57600080fd5b50565b60006020828403121561192357600080fd5b8135610990816118f9565b60006020828403121561194057600080fd5b5035919050565b6000806040838503121561195a57600080fd5b8235611965816118f9565b946020939093013593505050565b60008060006060848603121561198857600080fd5b8335611993816118f9565b925060208401356119a3816118f9565b929592945050506040919091013590565b6000806000606084860312156119c957600080fd5b83356119d4816118f9565b95602085013595506040909401359392505050565b600080604083850312156119fc57600080fd5b8235611a07816118f9565b91506020830135611a17816118f9565b809150509250929050565b60008060008060808587031215611a3857600080fd5b8435611a43816118f9565b93506020850135611a53816118f9565b93969395505050506040820135916060013590565b600060208284031215611a7a57600080fd5b8151610990816118f9565b600060208284031215611a9757600080fd5b815160ff8116811461099057600080fd5b7f4e487b7100000000000000000000000000000000000000000000000000000000600052601160045260246000fd5b600181815b80851115611b12578160001904821115611af857611af8611aa8565b80851615611b0557918102915b93841c9390800290611adc565b509250929050565b600082611b29575060016105fe565b81611b36575060006105fe565b8160018114611b4c5760028114611b5657611b72565b60019150506105fe565b60ff841115611b6757611b67611aa8565b50506001821b6105fe565b5060208310610133831016604e8410600b8410161715611b95575081810a6105fe565b611b9f8383611ad7565b8060001904821115611bb357611bb3611aa8565b029392505050565b600061099060ff841683611b1a565b6000816000190483118215151615611be457611be4611aa8565b500290565b7f4e487b7100000000000000000000000000000000000000000000000000000000600052601260045260246000fd5b600082611c2757611c27611be9565b500490565b600060208284031215611c3e57600080fd5b5051919050565b80516dffffffffffffffffffffffffffff81168114611c6357600080fd5b919050565b600080600060608486031215611c7d57600080fd5b611c8684611c45565b9250611c9460208501611c45565b9150604084015163ffffffff81168114611cad57600080fd5b809150509250925092565b600063ffffffff83811690831681811015611cd557611cd5611aa8565b039392505050565b60008219821115611cf057611cf0611aa8565b500190565b600082611d0457611d04611be9565b500690565b60007bffffffffffffffffffffffffffffffffffffffffffffffffffffffff80841680611d3857611d38611be9565b9216919091049291505056fea2646970667358221220d66c014ce4e8ed566ac54e0539fb0a461679755ffbec4558d2d572f389efeb0d64736f6c63430008090033",
  "devdoc": {
    "kind": "dev",
    "methods": {
      "getPriceInUsd(address)": {
        "params": {
          "token_": "The address of asset"
        },
        "returns": {
          "_lastUpdatedAt": "Last updated timestamp",
          "_priceInUsd": "The USD price"
        }
      },
      "getPriceInUsd(address,uint256)": {
        "params": {
          "token_": "The address of assetIn",
          "twapPeriod_": "The TWAP period"
        },
        "returns": {
          "_lastUpdatedAt": "Last updated timestamp",
          "_priceInUsd": "The USD price"
        }
      },
      "hasOracle(address)": {
        "details": "Uses `defaultTwapPeriod`",
        "params": {
          "pair_": "The pair"
        },
        "returns": {
          "_0": "True if exists"
        }
      },
      "hasOracle(address,uint256)": {
        "params": {
          "pair_": "The pair",
          "twapPeriod_": "The TWAP period"
        },
        "returns": {
          "_0": "True if exists"
        }
      },
      "quote(address,address,uint256)": {
        "params": {
          "amountIn_": "Amount of input token",
          "tokenIn_": "The address of assetIn",
          "tokenOut_": "The address of assetOut"
        },
        "returns": {
          "_amountOut": "Amount out",
          "_lastUpdatedAt": "Last updated timestamp"
        }
      },
      "quote(address,address,uint256,uint256)": {
        "params": {
          "amountIn_": "Amount of input token",
          "tokenIn_": "The address of assetIn",
          "tokenOut_": "The address of assetOut",
          "twapPeriod_": "The TWAP period"
        },
        "returns": {
          "_amountOut": "Amount out",
          "_lastUpdatedAt": "Last updated timestamp"
        }
      },
      "quoteTokenToUsd(address,uint256)": {
        "params": {
          "amountIn_": "Amount of input token.",
          "token_": "The address of assetIn"
        },
        "returns": {
          "_amountOut": "Amount in USD",
          "_lastUpdatedAt": "Last updated timestamp"
        }
      },
      "quoteTokenToUsd(address,uint256,uint256)": {
        "params": {
          "amountIn_": "Amount of input token.",
          "token_": "The address of assetIn",
          "twapPeriod_": "The TWAP period"
        },
        "returns": {
          "_amountOut": "Amount in USD",
          "_lastUpdatedAt": "Last updated timestamp"
        }
      },
      "quoteUsdToToken(address,uint256)": {
        "params": {
          "amountIn_": "Input amount in USD",
          "token_": "The address of assetOut"
        },
        "returns": {
          "_amountOut": "Output amount of token",
          "_lastUpdatedAt": "Last updated timestamp"
        }
      },
      "quoteUsdToToken(address,uint256,uint256)": {
        "params": {
          "amountIn_": "Input amount in USD",
          "token_": "The address of assetIn",
          "twapPeriod_": "The TWAP period"
        },
        "returns": {
          "_amountOut": "Output amount of token",
          "_lastUpdatedAt": "Last updated timestamp"
        }
      },
      "updateAndQuote(address,address,uint256)": {
        "details": "Will update the oracle if needed before getting quoteUses `defaultTwapPeriod`",
        "params": {
          "amountIn_": "Amount of input token",
          "tokenIn_": "The address of assetIn",
          "tokenOut_": "The address of assetOut"
        },
        "returns": {
          "_amountOut": "Amount out",
          "_lastUpdatedAt": "Last updated timestamp"
        }
      },
      "updateAndQuote(address,address,uint256,uint256)": {
        "details": "Will update the oracle if needed before getting quote",
        "params": {
          "amountIn_": "Amount of input token",
          "tokenIn_": "The address of assetIn",
          "tokenOut_": "The address of assetOut",
          "twapPeriod_": "The TWAP period"
        },
        "returns": {
          "_amountOut": "Amount out",
          "_lastUpdatedAt": "Last updated timestamp"
        }
      },
      "updateDefaultTwapPeriod(uint256)": {
        "details": "Administrative function",
        "params": {
          "newDefaultTwapPeriod_": "The new default period"
        }
      },
      "updateOrAdd(address,address)": {
        "details": "Will create the pair if it doesn't existUses `defaultTwapPeriod`",
        "params": {
          "tokenIn_": "The address of assetIn",
          "tokenOut_": "The address of assetOut"
        }
      },
      "updateOrAdd(address,address,uint256)": {
        "details": "Will create the pair if it doesn't exist",
        "params": {
          "tokenIn_": "The address of assetIn",
          "tokenOut_": "The address of assetOut",
          "twapPeriod_": "The TWAP period"
        }
      }
    },
    "stateVariables": {
      "defaultTwapPeriod": {
        "details": "See more: https://docs.uniswap.org/protocol/concepts/V3-overview/oracle"
      },
      "oracles": {
        "details": "pair => twapPeriod => oracle"
      }
    },
    "title": "UniswapV2 (and forks) TWAP Oracle implementation Based on https://github.com/Uniswap/v2-periphery/blob/master/contracts/examples/ExampleOracleSimple.sol",
    "version": 1
  },
  "userdoc": {
    "events": {
      "DefaultTwapPeriodUpdated(uint256,uint256)": {
        "notice": "Emitted when default TWAP period is updated"
      }
    },
    "kind": "user",
    "methods": {
      "defaultTwapPeriod()": {
        "notice": "The default time-weighted average price (TWAP) period Used when a period isn't specified"
      },
      "factory()": {
        "notice": "The UniswapV2-like factory's address"
      },
      "getPriceInUsd(address)": {
        "notice": "Get USD (or equivalent) price of an asset"
      },
      "getPriceInUsd(address,uint256)": {
        "notice": "Get USD (or equivalent) price of an asset"
      },
      "hasOracle(address)": {
        "notice": "Check if there is an oracle for the PAIR-TWAP key"
      },
      "hasOracle(address,uint256)": {
        "notice": "Check if there is an oracle for the PAIR-TWAP key"
      },
      "nativeToken()": {
        "notice": "The native wrapped token (e.g. WETH, WAVAX, WMATIC, etc)"
      },
      "oracles(address,uint256)": {
        "notice": "Oracles'"
      },
      "pairFor(address,address)": {
        "notice": "Returns the pair's contract"
      },
      "quote(address,address,uint256)": {
        "notice": "Get quote"
      },
      "quote(address,address,uint256,uint256)": {
        "notice": "Get quote"
      },
      "quoteTokenToUsd(address,uint256)": {
        "notice": "Get quote in USD (or equivalent) amount"
      },
      "quoteTokenToUsd(address,uint256,uint256)": {
        "notice": "Get quote in USD (or equivalent) amount"
      },
      "quoteUsdToToken(address,uint256)": {
        "notice": "Get quote from USD (or equivalent) amount to amount of token"
      },
      "quoteUsdToToken(address,uint256,uint256)": {
        "notice": "Get quote from USD (or equivalent) amount to amount of token"
      },
      "updateAndQuote(address,address,uint256)": {
        "notice": "Get quote"
      },
      "updateAndQuote(address,address,uint256,uint256)": {
        "notice": "Get quote"
      },
      "updateDefaultTwapPeriod(uint256)": {
        "notice": "Update the default TWAP period"
      },
      "updateOrAdd(address,address)": {
        "notice": "Update cumulative and average price of pair"
      },
      "updateOrAdd(address,address,uint256)": {
        "notice": "Update cumulative and average price of pair"
      }
    },
    "version": 1
  },
  "storageLayout": {
    "storage": [
      {
        "astId": 9463,
        "contract": "contracts/core/UniswapV2LikePriceProvider.sol:UniswapV2LikePriceProvider",
        "label": "defaultTwapPeriod",
        "offset": 0,
        "slot": "0",
        "type": "t_uint256"
      },
      {
        "astId": 9489,
        "contract": "contracts/core/UniswapV2LikePriceProvider.sol:UniswapV2LikePriceProvider",
        "label": "oracles",
        "offset": 0,
        "slot": "1",
        "type": "t_mapping(t_contract(IUniswapV2Pair)5649,t_mapping(t_uint256,t_struct(Oracle)9480_storage))"
      }
    ],
    "types": {
      "t_address": {
        "encoding": "inplace",
        "label": "address",
        "numberOfBytes": "20"
      },
      "t_contract(IUniswapV2Pair)5649": {
        "encoding": "inplace",
        "label": "contract IUniswapV2Pair",
        "numberOfBytes": "20"
      },
      "t_mapping(t_contract(IUniswapV2Pair)5649,t_mapping(t_uint256,t_struct(Oracle)9480_storage))": {
        "encoding": "mapping",
        "key": "t_contract(IUniswapV2Pair)5649",
        "label": "mapping(contract IUniswapV2Pair => mapping(uint256 => struct UniswapV2LikePriceProvider.Oracle))",
        "numberOfBytes": "32",
        "value": "t_mapping(t_uint256,t_struct(Oracle)9480_storage)"
      },
      "t_mapping(t_uint256,t_struct(Oracle)9480_storage)": {
        "encoding": "mapping",
        "key": "t_uint256",
        "label": "mapping(uint256 => struct UniswapV2LikePriceProvider.Oracle)",
        "numberOfBytes": "32",
        "value": "t_struct(Oracle)9480_storage"
      },
      "t_struct(Oracle)9480_storage": {
        "encoding": "inplace",
        "label": "struct UniswapV2LikePriceProvider.Oracle",
        "members": [
          {
            "astId": 9465,
            "contract": "contracts/core/UniswapV2LikePriceProvider.sol:UniswapV2LikePriceProvider",
            "label": "token0",
            "offset": 0,
            "slot": "0",
            "type": "t_address"
          },
          {
            "astId": 9467,
            "contract": "contracts/core/UniswapV2LikePriceProvider.sol:UniswapV2LikePriceProvider",
            "label": "token1",
            "offset": 0,
            "slot": "1",
            "type": "t_address"
          },
          {
            "astId": 9469,
            "contract": "contracts/core/UniswapV2LikePriceProvider.sol:UniswapV2LikePriceProvider",
            "label": "price0CumulativeLast",
            "offset": 0,
            "slot": "2",
            "type": "t_uint256"
          },
          {
            "astId": 9471,
            "contract": "contracts/core/UniswapV2LikePriceProvider.sol:UniswapV2LikePriceProvider",
            "label": "price1CumulativeLast",
            "offset": 0,
            "slot": "3",
            "type": "t_uint256"
          },
          {
            "astId": 9473,
            "contract": "contracts/core/UniswapV2LikePriceProvider.sol:UniswapV2LikePriceProvider",
            "label": "blockTimestampLast",
            "offset": 0,
            "slot": "4",
            "type": "t_uint32"
          },
          {
            "astId": 9476,
            "contract": "contracts/core/UniswapV2LikePriceProvider.sol:UniswapV2LikePriceProvider",
            "label": "price0Average",
            "offset": 0,
            "slot": "5",
            "type": "t_struct(uq112x112)5096_storage"
          },
          {
            "astId": 9479,
            "contract": "contracts/core/UniswapV2LikePriceProvider.sol:UniswapV2LikePriceProvider",
            "label": "price1Average",
            "offset": 0,
            "slot": "6",
            "type": "t_struct(uq112x112)5096_storage"
          }
        ],
        "numberOfBytes": "224"
      },
      "t_struct(uq112x112)5096_storage": {
        "encoding": "inplace",
        "label": "struct FixedPoint.uq112x112",
        "members": [
          {
            "astId": 5095,
            "contract": "contracts/core/UniswapV2LikePriceProvider.sol:UniswapV2LikePriceProvider",
            "label": "_x",
            "offset": 0,
            "slot": "0",
            "type": "t_uint224"
          }
        ],
        "numberOfBytes": "32"
      },
      "t_uint224": {
        "encoding": "inplace",
        "label": "uint224",
        "numberOfBytes": "28"
      },
      "t_uint256": {
        "encoding": "inplace",
        "label": "uint256",
        "numberOfBytes": "32"
      },
      "t_uint32": {
        "encoding": "inplace",
        "label": "uint32",
        "numberOfBytes": "4"
      }
    }
  }
}