{
  "address": "0x01c3Ffac6ED33B2D4596307B1c5F7b6BF7D0b9cD",
  "abi": [
    {
      "inputs": [
        {
          "internalType": "address",
          "name": "factory_",
          "type": "address"
        },
        {
          "internalType": "uint256",
          "name": "defaultTwapPeriod_",
          "type": "uint256"
        },
        {
          "internalType": "address",
          "name": "nativeToken_",
          "type": "address"
        }
      ],
      "stateMutability": "nonpayable",
      "type": "constructor"
    },
    {
      "anonymous": false,
      "inputs": [
        {
          "indexed": false,
          "internalType": "uint256",
          "name": "oldTwapPeriod",
          "type": "uint256"
        },
        {
          "indexed": false,
          "internalType": "uint256",
          "name": "newTwapPeriod",
          "type": "uint256"
        }
      ],
      "name": "DefaultTwapPeriodUpdated",
      "type": "event"
    },
    {
      "inputs": [],
      "name": "USD_DECIMALS",
      "outputs": [
        {
          "internalType": "uint256",
          "name": "",
          "type": "uint256"
        }
      ],
      "stateMutability": "view",
      "type": "function"
    },
    {
      "inputs": [],
      "name": "addressProvider",
      "outputs": [
        {
          "internalType": "contract IAddressProvider",
          "name": "",
          "type": "address"
        }
      ],
      "stateMutability": "view",
      "type": "function"
    },
    {
      "inputs": [],
      "name": "defaultTwapPeriod",
      "outputs": [
        {
          "internalType": "uint256",
          "name": "",
          "type": "uint256"
        }
      ],
      "stateMutability": "view",
      "type": "function"
    },
    {
      "inputs": [],
      "name": "factory",
      "outputs": [
        {
          "internalType": "address",
          "name": "",
          "type": "address"
        }
      ],
      "stateMutability": "view",
      "type": "function"
    },
    {
      "inputs": [
        {
          "internalType": "address",
          "name": "token_",
          "type": "address"
        }
      ],
      "name": "getPriceInUsd",
      "outputs": [
        {
          "internalType": "uint256",
          "name": "_priceInUsd",
          "type": "uint256"
        },
        {
          "internalType": "uint256",
          "name": "_lastUpdatedAt",
          "type": "uint256"
        }
      ],
      "stateMutability": "view",
      "type": "function"
    },
    {
      "inputs": [
        {
          "internalType": "address",
          "name": "token_",
          "type": "address"
        },
        {
          "internalType": "uint256",
          "name": "twapPeriod_",
          "type": "uint256"
        }
      ],
      "name": "getPriceInUsd",
      "outputs": [
        {
          "internalType": "uint256",
          "name": "_priceInUsd",
          "type": "uint256"
        },
        {
          "internalType": "uint256",
          "name": "_lastUpdatedAt",
          "type": "uint256"
        }
      ],
      "stateMutability": "view",
      "type": "function"
    },
    {
      "inputs": [
        {
          "internalType": "contract IUniswapV2Pair",
          "name": "pair_",
          "type": "address"
        },
        {
          "internalType": "uint256",
          "name": "twapPeriod_",
          "type": "uint256"
        }
      ],
      "name": "hasOracle",
      "outputs": [
        {
          "internalType": "bool",
          "name": "",
          "type": "bool"
        }
      ],
      "stateMutability": "view",
      "type": "function"
    },
    {
      "inputs": [
        {
          "internalType": "contract IUniswapV2Pair",
          "name": "pair_",
          "type": "address"
        }
      ],
      "name": "hasOracle",
      "outputs": [
        {
          "internalType": "bool",
          "name": "",
          "type": "bool"
        }
      ],
      "stateMutability": "view",
      "type": "function"
    },
    {
      "inputs": [],
      "name": "nativeToken",
      "outputs": [
        {
          "internalType": "address",
          "name": "",
          "type": "address"
        }
      ],
      "stateMutability": "view",
      "type": "function"
    },
    {
      "inputs": [
        {
          "internalType": "contract IUniswapV2Pair",
          "name": "",
          "type": "address"
        },
        {
          "internalType": "uint256",
          "name": "",
          "type": "uint256"
        }
      ],
      "name": "oracles",
      "outputs": [
        {
          "internalType": "address",
          "name": "token0",
          "type": "address"
        },
        {
          "internalType": "address",
          "name": "token1",
          "type": "address"
        },
        {
          "internalType": "uint256",
          "name": "price0CumulativeLast",
          "type": "uint256"
        },
        {
          "internalType": "uint256",
          "name": "price1CumulativeLast",
          "type": "uint256"
        },
        {
          "internalType": "uint32",
          "name": "blockTimestampLast",
          "type": "uint32"
        },
        {
          "components": [
            {
              "internalType": "uint224",
              "name": "_x",
              "type": "uint224"
            }
          ],
          "internalType": "struct FixedPoint.uq112x112",
          "name": "price0Average",
          "type": "tuple"
        },
        {
          "components": [
            {
              "internalType": "uint224",
              "name": "_x",
              "type": "uint224"
            }
          ],
          "internalType": "struct FixedPoint.uq112x112",
          "name": "price1Average",
          "type": "tuple"
        }
      ],
      "stateMutability": "view",
      "type": "function"
    },
    {
      "inputs": [
        {
          "internalType": "address",
          "name": "token0_",
          "type": "address"
        },
        {
          "internalType": "address",
          "name": "token1_",
          "type": "address"
        }
      ],
      "name": "pairFor",
      "outputs": [
        {
          "internalType": "contract IUniswapV2Pair",
          "name": "_pair",
          "type": "address"
        }
      ],
      "stateMutability": "view",
      "type": "function"
    },
    {
      "inputs": [
        {
          "internalType": "address",
          "name": "tokenIn_",
          "type": "address"
        },
        {
          "internalType": "address",
          "name": "tokenOut_",
          "type": "address"
        },
        {
          "internalType": "uint256",
          "name": "twapPeriod_",
          "type": "uint256"
        },
        {
          "internalType": "uint256",
          "name": "amountIn_",
          "type": "uint256"
        }
      ],
      "name": "quote",
      "outputs": [
        {
          "internalType": "uint256",
          "name": "_amountOut",
          "type": "uint256"
        },
        {
          "internalType": "uint256",
          "name": "_tokenInLastUpdatedAt",
          "type": "uint256"
        },
        {
          "internalType": "uint256",
          "name": "_tokenOutLastUpdatedAt",
          "type": "uint256"
        }
      ],
      "stateMutability": "view",
      "type": "function"
    },
    {
      "inputs": [
        {
          "internalType": "address",
          "name": "tokenIn_",
          "type": "address"
        },
        {
          "internalType": "address",
          "name": "tokenOut_",
          "type": "address"
        },
        {
          "internalType": "uint256",
          "name": "amountIn_",
          "type": "uint256"
        }
      ],
      "name": "quote",
      "outputs": [
        {
          "internalType": "uint256",
          "name": "_amountOut",
          "type": "uint256"
        },
        {
          "internalType": "uint256",
          "name": "_tokenInLastUpdatedAt",
          "type": "uint256"
        },
        {
          "internalType": "uint256",
          "name": "_tokenOutLastUpdatedAt",
          "type": "uint256"
        }
      ],
      "stateMutability": "view",
      "type": "function"
    },
    {
      "inputs": [
        {
          "internalType": "address",
          "name": "token_",
          "type": "address"
        },
        {
          "internalType": "uint256",
          "name": "amountIn_",
          "type": "uint256"
        }
      ],
      "name": "quoteTokenToUsd",
      "outputs": [
        {
          "internalType": "uint256",
          "name": "_amountOut",
          "type": "uint256"
        },
        {
          "internalType": "uint256",
          "name": "_lastUpdatedAt",
          "type": "uint256"
        }
      ],
      "stateMutability": "view",
      "type": "function"
    },
    {
      "inputs": [
        {
          "internalType": "address",
          "name": "token_",
          "type": "address"
        },
        {
          "internalType": "uint256",
          "name": "amountIn_",
          "type": "uint256"
        },
        {
          "internalType": "uint256",
          "name": "twapPeriod_",
          "type": "uint256"
        }
      ],
      "name": "quoteTokenToUsd",
      "outputs": [
        {
          "internalType": "uint256",
          "name": "_amountOut",
          "type": "uint256"
        },
        {
          "internalType": "uint256",
          "name": "_lastUpdatedAt",
          "type": "uint256"
        }
      ],
      "stateMutability": "view",
      "type": "function"
    },
    {
      "inputs": [
        {
          "internalType": "address",
          "name": "token_",
          "type": "address"
        },
        {
          "internalType": "uint256",
          "name": "amountIn_",
          "type": "uint256"
        },
        {
          "internalType": "uint256",
          "name": "twapPeriod_",
          "type": "uint256"
        }
      ],
      "name": "quoteUsdToToken",
      "outputs": [
        {
          "internalType": "uint256",
          "name": "_amountOut",
          "type": "uint256"
        },
        {
          "internalType": "uint256",
          "name": "_lastUpdatedAt",
          "type": "uint256"
        }
      ],
      "stateMutability": "view",
      "type": "function"
    },
    {
      "inputs": [
        {
          "internalType": "address",
          "name": "token_",
          "type": "address"
        },
        {
          "internalType": "uint256",
          "name": "amountIn_",
          "type": "uint256"
        }
      ],
      "name": "quoteUsdToToken",
      "outputs": [
        {
          "internalType": "uint256",
          "name": "_amountOut",
          "type": "uint256"
        },
        {
          "internalType": "uint256",
          "name": "_lastUpdatedAt",
          "type": "uint256"
        }
      ],
      "stateMutability": "view",
      "type": "function"
    },
    {
      "inputs": [
        {
          "internalType": "address",
          "name": "tokenIn_",
          "type": "address"
        },
        {
          "internalType": "address",
          "name": "tokenOut_",
          "type": "address"
        },
        {
          "internalType": "uint256",
          "name": "twapPeriod_",
          "type": "uint256"
        },
        {
          "internalType": "uint256",
          "name": "amountIn_",
          "type": "uint256"
        }
      ],
      "name": "updateAndQuote",
      "outputs": [
        {
          "internalType": "uint256",
          "name": "_amountOut",
          "type": "uint256"
        },
        {
          "internalType": "uint256",
          "name": "_tokenInLastUpdatedAt",
          "type": "uint256"
        },
        {
          "internalType": "uint256",
          "name": "_tokenOutLastUpdatedAt",
          "type": "uint256"
        }
      ],
      "stateMutability": "nonpayable",
      "type": "function"
    },
    {
      "inputs": [
        {
          "internalType": "address",
          "name": "tokenIn_",
          "type": "address"
        },
        {
          "internalType": "address",
          "name": "tokenOut_",
          "type": "address"
        },
        {
          "internalType": "uint256",
          "name": "amountIn_",
          "type": "uint256"
        }
      ],
      "name": "updateAndQuote",
      "outputs": [
        {
          "internalType": "uint256",
          "name": "_amountOut",
          "type": "uint256"
        },
        {
          "internalType": "uint256",
          "name": "_tokenInLastUpdatedAt",
          "type": "uint256"
        },
        {
          "internalType": "uint256",
          "name": "_tokenOutLastUpdatedAt",
          "type": "uint256"
        }
      ],
      "stateMutability": "nonpayable",
      "type": "function"
    },
    {
      "inputs": [
        {
          "internalType": "uint256",
          "name": "newDefaultTwapPeriod_",
          "type": "uint256"
        }
      ],
      "name": "updateDefaultTwapPeriod",
      "outputs": [],
      "stateMutability": "nonpayable",
      "type": "function"
    },
    {
      "inputs": [
        {
          "internalType": "address",
          "name": "tokenIn_",
          "type": "address"
        },
        {
          "internalType": "address",
          "name": "tokenOut_",
          "type": "address"
        },
        {
          "internalType": "uint256",
          "name": "twapPeriod_",
          "type": "uint256"
        }
      ],
      "name": "updateOrAdd",
      "outputs": [],
      "stateMutability": "nonpayable",
      "type": "function"
    },
    {
      "inputs": [
        {
          "internalType": "address",
          "name": "tokenIn_",
          "type": "address"
        },
        {
          "internalType": "address",
          "name": "tokenOut_",
          "type": "address"
        }
      ],
      "name": "updateOrAdd",
      "outputs": [],
      "stateMutability": "nonpayable",
      "type": "function"
    }
  ],
  "transactionHash": "0x8c2796520996fa7aef9465a7ec744a1187fb26e91730a2ba244e85a6d6003d70",
  "args": [
    "0x5C69bEe701ef814a2B6a3EDD4B1652CB9cc5aA6f",
    7200,
    "0xC02aaA39b223FE8D0A0e5C4F27eAD9083C756Cc2"
  ],
  "numDeployments": 3,
  "solcInputHash": "631221980a3697b51bca4256d1fd6608",
  "bytecode": "0x60c06040523480156200001157600080fd5b5060405162001ebe38038062001ebe8339810160408190526200003491620000bc565b6001600160a01b038316620000815760405162461bcd60e51b815260206004820152600f60248201526e199858dd1bdc9e4b5a5ccb5b9d5b1b608a1b604482015260640160405180910390fd5b6000919091556001600160a01b039182166080521660a052620000fd565b80516001600160a01b0381168114620000b757600080fd5b919050565b600080600060608486031215620000d257600080fd5b620000dd846200009f565b925060208401519150620000f4604085016200009f565b90509250925092565b60805160a051611d866200013860003960008181610484015281816107b801526107e801526000818161044a01526109330152611d866000f3fe608060405234801561001057600080fd5b50600436106101825760003560e01c806372499689116100d8578063a00a8b2c1161008c578063c45a015511610066578063c45a015514610445578063d0578a011461046c578063e1758bd81461047f57600080fd5b8063a00a8b2c14610317578063b5e9bef51461041f578063b64663841461043257600080fd5b80638d0dba00116100bd5780638d0dba00146102de57806396ed28f9146102f15780639f15ec9d1461030457600080fd5b806372499689146102c257806384e0b233146102d557600080fd5b80632954018c1161013a57806341118ef41161011457806341118ef41461026e5780634ad1a30e14610281578063520b9355146102af57600080fd5b80632954018c146102125780632f6ee695146102455780633c4144531461025b57600080fd5b80631676a0bf1161016b5780631676a0bf146101c9578063180c9309146101ec578063197dd8c0146101ff57600080fd5b806307ee40bf146101875780631648b846146101b4575b600080fd5b61019a61019536600461191d565b6104a6565b604080519283526020830191909152015b60405180910390f35b6101c76101c236600461193a565b6104be565b005b6101dc6101d7366004611953565b6105e9565b60405190151581526020016101ab565b6101dc6101fa36600461191d565b61061f565b6101c761020d36600461197f565b61062d565b61022d73fba0816a81bcabbf3829bed28618177a2bf0e82a81565b6040516001600160a01b0390911681526020016101ab565b61024d601281565b6040519081526020016101ab565b61019a6102693660046119c0565b610664565b6101c761027c3660046119f5565b610717565b61029461028f366004611a2e565b610728565b604080519384526020840192909252908201526060016101ab565b6102946102bd366004611a2e565b610755565b6102946102d036600461197f565b61081e565b61024d60005481565b61019a6102ec366004611953565b610840565b61022d6102ff3660046119f5565b6108f0565b61019a6103123660046119c0565b6109b6565b6103b5610325366004611953565b60016020818152600093845260408085208252928452928290208054918101546002820154600383015460048401548651808901885260058601547bffffffffffffffffffffffffffffffffffffffffffffffffffffffff90811682528851998a0190985260069095015490961687526001600160a01b0394851696929094169490939263ffffffff9091169187565b604080516001600160a01b03988916815297909616602088015294860193909352606085019190915263ffffffff166080840152517bffffffffffffffffffffffffffffffffffffffffffffffffffffffff90811660a084015290511660c082015260e0016101ab565b61019a61042d366004611953565b610a53565b61029461044036600461197f565b610af0565b61022d7f000000000000000000000000000000000000000000000000000000000000000081565b61019a61047a366004611953565b610b03565b61022d7f000000000000000000000000000000000000000000000000000000000000000081565b6000806104b583600054610b03565b91509150915091565b73fba0816a81bcabbf3829bed28618177a2bf0e82a6001600160a01b0316630c340a246040518163ffffffff1660e01b815260040160206040518083038186803b15801561050b57600080fd5b505afa15801561051f573d6000803e3d6000fd5b505050506040513d601f19601f820116820180604052508101906105439190611a74565b6001600160a01b0316336001600160a01b0316146105a85760405162461bcd60e51b815260206004820152600c60248201527f6e6f742d676f7665726e6f72000000000000000000000000000000000000000060448201526064015b60405180910390fd5b60005460408051918252602082018390527fb2d6c0b99b0405017e8d7385ed0ec304b6c63fcd04917f2fb5e6c88c75ad947a910160405180910390a1600055565b6001600160a01b038216600090815260016020908152604080832084845290915290206004015463ffffffff1615155b92915050565b6000610619826000546105e9565b600061063984846108f0565b905061064581836105e9565b610653576106538183610d7c565b61065d8183611220565b5050505050565b60008060006106738685610b03565b809350819250505080866001600160a01b031663313ce5676040518163ffffffff1660e01b815260040160206040518083038186803b1580156106b557600080fd5b505afa1580156106c9573d6000803e3d6000fd5b505050506040513d601f19601f820116820180604052508101906106ed9190611a91565b6106f890600a611bc7565b6107029087611bd6565b61070c9190611c24565b925050935093915050565b610724828260005461062d565b5050565b600080600061073887878761062d565b61074487878787610755565b9250925092505b9450945094915050565b6000806000856001600160a01b0316876001600160a01b0316141561078157508291504290508061074b565b61079461078e88886108f0565b866105e9565b156107b2576107a5878787876113c0565b909350915081905061074b565b6107de877f000000000000000000000000000000000000000000000000000000000000000087876113c0565b909350915061080f7f00000000000000000000000000000000000000000000000000000000000000008787866113c0565b90935090509450945094915050565b6000806000610831868660005487610728565b92509250925093509350939050565b600080600061084e856104a6565b8093508192505050846001600160a01b031663313ce5676040518163ffffffff1660e01b815260040160206040518083038186803b15801561088f57600080fd5b505afa1580156108a3573d6000803e3d6000fd5b505050506040513d601f19601f820116820180604052508101906108c79190611a91565b6108d290600a611bc7565b6108dc8286611bd6565b6108e69190611c24565b9250509250929050565b6040517fe6a439050000000000000000000000000000000000000000000000000000000081526001600160a01b03838116600483015282811660248301526000917f00000000000000000000000000000000000000000000000000000000000000009091169063e6a439059060440160206040518083038186803b15801561097757600080fd5b505afa15801561098b573d6000803e3d6000fd5b505050506040513d601f19601f820116820180604052508101906109af9190611a74565b9392505050565b60008060006109c58685610b03565b8093508192505050856001600160a01b031663313ce5676040518163ffffffff1660e01b815260040160206040518083038186803b158015610a0657600080fd5b505afa158015610a1a573d6000803e3d6000fd5b505050506040513d601f19601f82011682018060405250810190610a3e9190611a91565b610a4990600a611bc7565b6107028287611bd6565b6000806000610a61856104a6565b809350819250505080856001600160a01b031663313ce5676040518163ffffffff1660e01b815260040160206040518083038186803b158015610aa357600080fd5b505afa158015610ab7573d6000803e3d6000fd5b505050506040513d601f19601f82011682018060405250810190610adb9190611a91565b610ae690600a611bc7565b6108dc9086611bd6565b6000806000610831868660005487610755565b600080600073fba0816a81bcabbf3829bed28618177a2bf0e82a6001600160a01b0316632082615f6040518163ffffffff1660e01b815260040160206040518083038186803b158015610b5557600080fd5b505afa158015610b69573d6000803e3d6000fd5b505050506040513d601f19601f82011682018060405250810190610b8d9190611a74565b90506001600160a01b038116610be55760405162461bcd60e51b815260206004820152601960248201527f737461626c652d636f696e2d6e6f742d737570706f7274656400000000000000604482015260640161059f565b6000610cd986836001600160a01b03166384537f0e6040518163ffffffff1660e01b815260040160206040518083038186803b158015610c2457600080fd5b505afa158015610c38573d6000803e3d6000fd5b505050506040513d601f19601f82011682018060405250810190610c5c9190611a74565b87896001600160a01b031663313ce5676040518163ffffffff1660e01b815260040160206040518083038186803b158015610c9657600080fd5b505afa158015610caa573d6000803e3d6000fd5b505050506040513d601f19601f82011682018060405250810190610cce9190611a91565b6102bd90600a611bc7565b506040517fba55f5c1000000000000000000000000000000000000000000000000000000008152600481018390529094509091506001600160a01b0383169063ba55f5c19060240160206040518083038186803b158015610d3957600080fd5b505afa158015610d4d573d6000803e3d6000fd5b505050506040513d601f19601f82011682018060405250810190610d719190611c38565b935050509250929050565b6001600160a01b038216610dd25760405162461bcd60e51b815260206004820152600c60248201527f696e76616c69642d706169720000000000000000000000000000000000000000604482015260640161059f565b6000806000846001600160a01b0316630902f1ac6040518163ffffffff1660e01b815260040160606040518083038186803b158015610e1057600080fd5b505afa158015610e24573d6000803e3d6000fd5b505050506040513d601f19601f82011682018060405250810190610e489190611c74565b925092509250826dffffffffffffffffffffffffffff16600014158015610e7e57506dffffffffffffffffffffffffffff821615155b610eca5760405162461bcd60e51b815260206004820152600b60248201527f6e6f2d7265736572766573000000000000000000000000000000000000000000604482015260640161059f565b6040518060e00160405280866001600160a01b0316630dfe16816040518163ffffffff1660e01b815260040160206040518083038186803b158015610f0e57600080fd5b505afa158015610f22573d6000803e3d6000fd5b505050506040513d601f19601f82011682018060405250810190610f469190611a74565b6001600160a01b03168152602001866001600160a01b031663d21220a76040518163ffffffff1660e01b815260040160206040518083038186803b158015610f8d57600080fd5b505afa158015610fa1573d6000803e3d6000fd5b505050506040513d601f19601f82011682018060405250810190610fc59190611a74565b6001600160a01b03168152602001866001600160a01b0316635909c0d56040518163ffffffff1660e01b815260040160206040518083038186803b15801561100c57600080fd5b505afa158015611020573d6000803e3d6000fd5b505050506040513d601f19601f820116820180604052508101906110449190611c38565b8152602001866001600160a01b0316635a3d54936040518163ffffffff1660e01b815260040160206040518083038186803b15801561108257600080fd5b505afa158015611096573d6000803e3d6000fd5b505050506040513d601f19601f820116820180604052508101906110ba9190611c38565b815263ffffffff928316602080830191909152604080518083018252600090819052815180840183528181528285015281518084018352819052815180840183528181526060948501526001600160a01b03998a1681526001808452828220998252988352819020845181547fffffffffffffffffffffffff0000000000000000000000000000000000000000908116918c169190911782559285015198810180549093169890991697909717905594810151600287015593840151600386015560808401516004860180547fffffffffffffffffffffffffffffffffffffffffffffffffffffffff000000001691909216179055505060a0810151516005830180547fffffffff000000000000000000000000000000000000000000000000000000009081167bffffffffffffffffffffffffffffffffffffffffffffffffffffffff9384161790915560c09092015151600690930180549092169216919091179055565b6001600160a01b0382166000908152600160209081526040808320848452909152812081808061124f8761150e565b6004870154929550909350915063ffffffff908116820390811687111561127e57600095505050505050610619565b6002850154600386015460408051602081019091529186039190850390806112ac63ffffffff861685611c24565b7bffffffffffffffffffffffffffffffffffffffffffffffffffffffff90811690915290516005890180547fffffffff00000000000000000000000000000000000000000000000000000000169190921617905560408051602081019091528061131c63ffffffff861684611c24565b7bffffffffffffffffffffffffffffffffffffffffffffffffffffffff90811690915290516006890180547fffffffff00000000000000000000000000000000000000000000000000000000169190921617905550505060028401929092556003830155600490910180547fffffffffffffffffffffffffffffffffffffffffffffffffffffffff000000001663ffffffff90921691909117905550600192915050565b6000806000600160006113d389896108f0565b6001600160a01b039081168252602080830193909352604091820160009081208982528452829020825160e081018452815483168152600182015483168186015260028201548185015260038201546060820152600482015463ffffffff1660808201528351808601855260058301547bffffffffffffffffffffffffffffffffffffffffffffffffffffffff908116825260a08301919091528451958601909452600690910154909216835260c08201929092528051909250888216911614156114cd5760a08101516114b2906114ab9086611738565b5160701c90565b71ffffffffffffffffffffffffffffffffffff1692506114f7565b60c08101516114e0906114ab9086611738565b71ffffffffffffffffffffffffffffffffffff1692505b806080015163ffffffff1691505094509492505050565b600080600061151b611811565b9050836001600160a01b0316635909c0d56040518163ffffffff1660e01b815260040160206040518083038186803b15801561155657600080fd5b505afa15801561156a573d6000803e3d6000fd5b505050506040513d601f19601f8201168201806040525081019061158e9190611c38565b9250836001600160a01b0316635a3d54936040518163ffffffff1660e01b815260040160206040518083038186803b1580156115c957600080fd5b505afa1580156115dd573d6000803e3d6000fd5b505050506040513d601f19601f820116820180604052508101906116019190611c38565b91506000806000866001600160a01b0316630902f1ac6040518163ffffffff1660e01b815260040160606040518083038186803b15801561164157600080fd5b505afa158015611655573d6000803e3d6000fd5b505050506040513d601f19601f820116820180604052508101906116799190611c74565b9250925092508363ffffffff168163ffffffff161461172e57600061169e8286611cc4565b90508063ffffffff166116b18486611827565b516116da91907bffffffffffffffffffffffffffffffffffffffffffffffffffffffff16611bd6565b6116e49088611ce9565b96508063ffffffff166116f78585611827565b5161172091907bffffffffffffffffffffffffffffffffffffffffffffffffffffffff16611bd6565b61172a9087611ce9565b9550505b5050509193909250565b604080516020810190915260008152600082158061178a575083517bffffffffffffffffffffffffffffffffffffffffffffffffffffffff168361177c8183611bd6565b92506117889083611c24565b145b6117fc5760405162461bcd60e51b815260206004820152602360248201527f4669786564506f696e743a204d554c5449504c49434154494f4e5f4f5645524660448201527f4c4f570000000000000000000000000000000000000000000000000000000000606482015260840161059f565b60408051602081019091529081529392505050565b600061182264010000000042611d01565b905090565b6040805160208101909152600081526000826dffffffffffffffffffffffffffff16116118965760405162461bcd60e51b815260206004820152601760248201527f4669786564506f696e743a204449565f42595f5a45524f000000000000000000604482015260640161059f565b6040805160208101909152806118de6dffffffffffffffffffffffffffff85167bffffffffffffffffffffffffffff0000000000000000000000000000607088901b16611d15565b7bffffffffffffffffffffffffffffffffffffffffffffffffffffffff1690529392505050565b6001600160a01b038116811461191a57600080fd5b50565b60006020828403121561192f57600080fd5b81356109af81611905565b60006020828403121561194c57600080fd5b5035919050565b6000806040838503121561196657600080fd5b823561197181611905565b946020939093013593505050565b60008060006060848603121561199457600080fd5b833561199f81611905565b925060208401356119af81611905565b929592945050506040919091013590565b6000806000606084860312156119d557600080fd5b83356119e081611905565b95602085013595506040909401359392505050565b60008060408385031215611a0857600080fd5b8235611a1381611905565b91506020830135611a2381611905565b809150509250929050565b60008060008060808587031215611a4457600080fd5b8435611a4f81611905565b93506020850135611a5f81611905565b93969395505050506040820135916060013590565b600060208284031215611a8657600080fd5b81516109af81611905565b600060208284031215611aa357600080fd5b815160ff811681146109af57600080fd5b7f4e487b7100000000000000000000000000000000000000000000000000000000600052601160045260246000fd5b600181815b80851115611b1e578160001904821115611b0457611b04611ab4565b80851615611b1157918102915b93841c9390800290611ae8565b509250929050565b600082611b3557506001610619565b81611b4257506000610619565b8160018114611b585760028114611b6257611b7e565b6001915050610619565b60ff841115611b7357611b73611ab4565b50506001821b610619565b5060208310610133831016604e8410600b8410161715611ba1575081810a610619565b611bab8383611ae3565b8060001904821115611bbf57611bbf611ab4565b029392505050565b60006109af60ff841683611b26565b6000816000190483118215151615611bf057611bf0611ab4565b500290565b7f4e487b7100000000000000000000000000000000000000000000000000000000600052601260045260246000fd5b600082611c3357611c33611bf5565b500490565b600060208284031215611c4a57600080fd5b5051919050565b80516dffffffffffffffffffffffffffff81168114611c6f57600080fd5b919050565b600080600060608486031215611c8957600080fd5b611c9284611c51565b9250611ca060208501611c51565b9150604084015163ffffffff81168114611cb957600080fd5b809150509250925092565b600063ffffffff83811690831681811015611ce157611ce1611ab4565b039392505050565b60008219821115611cfc57611cfc611ab4565b500190565b600082611d1057611d10611bf5565b500690565b60007bffffffffffffffffffffffffffffffffffffffffffffffffffffffff80841680611d4457611d44611bf5565b9216919091049291505056fea2646970667358221220a3c1d980b14f614a814f6eee8f152a2cf04f84591ac1f0b2efed4064a461c2fa64736f6c63430008090033",
  "devdoc": {
    "kind": "dev",
    "methods": {
      "getPriceInUsd(address)": {
        "params": {
          "token_": "The address of asset"
        },
        "returns": {
          "_lastUpdatedAt": "Last updated timestamp",
          "_priceInUsd": "The USD price"
        }
      },
      "getPriceInUsd(address,uint256)": {
        "params": {
          "token_": "The address of assetIn",
          "twapPeriod_": "The TWAP period"
        },
        "returns": {
          "_lastUpdatedAt": "Last updated timestamp",
          "_priceInUsd": "The USD price"
        }
      },
      "hasOracle(address)": {
        "details": "Uses `defaultTwapPeriod`",
        "params": {
          "pair_": "The pair"
        },
        "returns": {
          "_0": "True if exists"
        }
      },
      "hasOracle(address,uint256)": {
        "params": {
          "pair_": "The pair",
          "twapPeriod_": "The TWAP period"
        },
        "returns": {
          "_0": "True if exists"
        }
      },
      "quote(address,address,uint256)": {
        "params": {
          "amountIn_": "Amount of input token",
          "tokenIn_": "The address of assetIn",
          "tokenOut_": "The address of assetOut"
        },
        "returns": {
          "_amountOut": "Amount out",
          "_tokenInLastUpdatedAt": "Last updated timestamp of `tokenIn_`",
          "_tokenOutLastUpdatedAt": "Last updated timestamp of `tokenOut_`"
        }
      },
      "quote(address,address,uint256,uint256)": {
        "params": {
          "amountIn_": "Amount of input token",
          "tokenIn_": "The address of assetIn",
          "tokenOut_": "The address of assetOut",
          "twapPeriod_": "The TWAP period"
        },
        "returns": {
          "_amountOut": "Amount out",
          "_tokenInLastUpdatedAt": "Last updated timestamp of `tokenIn_`",
          "_tokenOutLastUpdatedAt": "Last updated timestamp of `tokenOut_`"
        }
      },
      "quoteTokenToUsd(address,uint256)": {
        "params": {
          "amountIn_": "Amount of input token.",
          "token_": "The address of assetIn"
        },
        "returns": {
          "_amountOut": "Amount in USD",
          "_lastUpdatedAt": "Last updated timestamp"
        }
      },
      "quoteTokenToUsd(address,uint256,uint256)": {
        "params": {
          "amountIn_": "Amount of input token.",
          "token_": "The address of assetIn",
          "twapPeriod_": "The TWAP period"
        },
        "returns": {
          "_amountOut": "Amount in USD",
          "_lastUpdatedAt": "Last updated timestamp"
        }
      },
      "quoteUsdToToken(address,uint256)": {
        "params": {
          "amountIn_": "Input amount in USD",
          "token_": "The address of assetOut"
        },
        "returns": {
          "_amountOut": "Output amount of token",
          "_lastUpdatedAt": "Last updated timestamp"
        }
      },
      "quoteUsdToToken(address,uint256,uint256)": {
        "params": {
          "amountIn_": "Input amount in USD",
          "token_": "The address of assetIn",
          "twapPeriod_": "The TWAP period"
        },
        "returns": {
          "_amountOut": "Output amount of token",
          "_lastUpdatedAt": "Last updated timestamp"
        }
      },
      "updateAndQuote(address,address,uint256)": {
        "details": "Will update the oracle if needed before getting quoteUses `defaultTwapPeriod`",
        "params": {
          "amountIn_": "Amount of input token",
          "tokenIn_": "The address of assetIn",
          "tokenOut_": "The address of assetOut"
        },
        "returns": {
          "_amountOut": "Amount out",
          "_tokenInLastUpdatedAt": "Last updated timestamp of `tokenIn_`",
          "_tokenOutLastUpdatedAt": "Last updated timestamp of `tokenOut_`"
        }
      },
      "updateAndQuote(address,address,uint256,uint256)": {
        "details": "Will update the oracle if needed before getting quote",
        "params": {
          "amountIn_": "Amount of input token",
          "tokenIn_": "The address of assetIn",
          "tokenOut_": "The address of assetOut",
          "twapPeriod_": "The TWAP period"
        },
        "returns": {
          "_amountOut": "Amount out",
          "_tokenInLastUpdatedAt": "Last updated timestamp of `tokenIn_`",
          "_tokenOutLastUpdatedAt": "Last updated timestamp of `tokenOut_`"
        }
      },
      "updateDefaultTwapPeriod(uint256)": {
        "details": "Administrative function",
        "params": {
          "newDefaultTwapPeriod_": "The new default period"
        }
      },
      "updateOrAdd(address,address)": {
        "details": "Will create the pair if it doesn't existUses `defaultTwapPeriod`",
        "params": {
          "tokenIn_": "The address of assetIn",
          "tokenOut_": "The address of assetOut"
        }
      },
      "updateOrAdd(address,address,uint256)": {
        "details": "Will create the pair if it doesn't exist",
        "params": {
          "tokenIn_": "The address of assetIn",
          "tokenOut_": "The address of assetOut",
          "twapPeriod_": "The TWAP period"
        }
      }
    },
    "stateVariables": {
      "defaultTwapPeriod": {
        "details": "See more: https://docs.uniswap.org/protocol/concepts/V3-overview/oracle"
      },
      "oracles": {
        "details": "pair => twapPeriod => oracle"
      }
    },
    "title": "UniswapV2 (and forks) TWAP Oracle implementation Based on https://github.com/Uniswap/v2-periphery/blob/master/contracts/examples/ExampleOracleSimple.sol",
    "version": 1
  },
  "userdoc": {
    "events": {
      "DefaultTwapPeriodUpdated(uint256,uint256)": {
        "notice": "Emitted when default TWAP period is updated"
      }
    },
    "kind": "user",
    "methods": {
      "defaultTwapPeriod()": {
        "notice": "The default time-weighted average price (TWAP) period Used when a period isn't specified"
      },
      "factory()": {
        "notice": "The UniswapV2-like factory's address"
      },
      "getPriceInUsd(address)": {
        "notice": "Get USD (or equivalent) price of an asset"
      },
      "getPriceInUsd(address,uint256)": {
        "notice": "Get USD (or equivalent) price of an asset"
      },
      "hasOracle(address)": {
        "notice": "Check if there is an oracle for the PAIR-TWAP key"
      },
      "hasOracle(address,uint256)": {
        "notice": "Check if there is an oracle for the PAIR-TWAP key"
      },
      "nativeToken()": {
        "notice": "The native wrapped token (e.g. WETH, WAVAX, WMATIC, etc)"
      },
      "oracles(address,uint256)": {
        "notice": "Oracles'"
      },
      "pairFor(address,address)": {
        "notice": "Returns the pair's contract"
      },
      "quote(address,address,uint256)": {
        "notice": "Get quote"
      },
      "quote(address,address,uint256,uint256)": {
        "notice": "Get quote"
      },
      "quoteTokenToUsd(address,uint256)": {
        "notice": "Get quote in USD (or equivalent) amount"
      },
      "quoteTokenToUsd(address,uint256,uint256)": {
        "notice": "Get quote in USD (or equivalent) amount"
      },
      "quoteUsdToToken(address,uint256)": {
        "notice": "Get quote from USD (or equivalent) amount to amount of token"
      },
      "quoteUsdToToken(address,uint256,uint256)": {
        "notice": "Get quote from USD (or equivalent) amount to amount of token"
      },
      "updateAndQuote(address,address,uint256)": {
        "notice": "Get quote"
      },
      "updateAndQuote(address,address,uint256,uint256)": {
        "notice": "Get quote"
      },
      "updateDefaultTwapPeriod(uint256)": {
        "notice": "Update the default TWAP period"
      },
      "updateOrAdd(address,address)": {
        "notice": "Update cumulative and average price of pair"
      },
      "updateOrAdd(address,address,uint256)": {
        "notice": "Update cumulative and average price of pair"
      }
    },
    "version": 1
  },
  "storageLayout": {
    "storage": [
      {
        "astId": 6464,
        "contract": "contracts/core/UniswapV2LikePriceProvider.sol:UniswapV2LikePriceProvider",
        "label": "defaultTwapPeriod",
        "offset": 0,
        "slot": "0",
        "type": "t_uint256"
      },
      {
        "astId": 6490,
        "contract": "contracts/core/UniswapV2LikePriceProvider.sol:UniswapV2LikePriceProvider",
        "label": "oracles",
        "offset": 0,
        "slot": "1",
        "type": "t_mapping(t_contract(IUniswapV2Pair)3147,t_mapping(t_uint256,t_struct(Oracle)6481_storage))"
      }
    ],
    "types": {
      "t_address": {
        "encoding": "inplace",
        "label": "address",
        "numberOfBytes": "20"
      },
      "t_contract(IUniswapV2Pair)3147": {
        "encoding": "inplace",
        "label": "contract IUniswapV2Pair",
        "numberOfBytes": "20"
      },
      "t_mapping(t_contract(IUniswapV2Pair)3147,t_mapping(t_uint256,t_struct(Oracle)6481_storage))": {
        "encoding": "mapping",
        "key": "t_contract(IUniswapV2Pair)3147",
        "label": "mapping(contract IUniswapV2Pair => mapping(uint256 => struct UniswapV2LikePriceProvider.Oracle))",
        "numberOfBytes": "32",
        "value": "t_mapping(t_uint256,t_struct(Oracle)6481_storage)"
      },
      "t_mapping(t_uint256,t_struct(Oracle)6481_storage)": {
        "encoding": "mapping",
        "key": "t_uint256",
        "label": "mapping(uint256 => struct UniswapV2LikePriceProvider.Oracle)",
        "numberOfBytes": "32",
        "value": "t_struct(Oracle)6481_storage"
      },
      "t_struct(Oracle)6481_storage": {
        "encoding": "inplace",
        "label": "struct UniswapV2LikePriceProvider.Oracle",
        "members": [
          {
            "astId": 6466,
            "contract": "contracts/core/UniswapV2LikePriceProvider.sol:UniswapV2LikePriceProvider",
            "label": "token0",
            "offset": 0,
            "slot": "0",
            "type": "t_address"
          },
          {
            "astId": 6468,
            "contract": "contracts/core/UniswapV2LikePriceProvider.sol:UniswapV2LikePriceProvider",
            "label": "token1",
            "offset": 0,
            "slot": "1",
            "type": "t_address"
          },
          {
            "astId": 6470,
            "contract": "contracts/core/UniswapV2LikePriceProvider.sol:UniswapV2LikePriceProvider",
            "label": "price0CumulativeLast",
            "offset": 0,
            "slot": "2",
            "type": "t_uint256"
          },
          {
            "astId": 6472,
            "contract": "contracts/core/UniswapV2LikePriceProvider.sol:UniswapV2LikePriceProvider",
            "label": "price1CumulativeLast",
            "offset": 0,
            "slot": "3",
            "type": "t_uint256"
          },
          {
            "astId": 6474,
            "contract": "contracts/core/UniswapV2LikePriceProvider.sol:UniswapV2LikePriceProvider",
            "label": "blockTimestampLast",
            "offset": 0,
            "slot": "4",
            "type": "t_uint32"
          },
          {
            "astId": 6477,
            "contract": "contracts/core/UniswapV2LikePriceProvider.sol:UniswapV2LikePriceProvider",
            "label": "price0Average",
            "offset": 0,
            "slot": "5",
            "type": "t_struct(uq112x112)2594_storage"
          },
          {
            "astId": 6480,
            "contract": "contracts/core/UniswapV2LikePriceProvider.sol:UniswapV2LikePriceProvider",
            "label": "price1Average",
            "offset": 0,
            "slot": "6",
            "type": "t_struct(uq112x112)2594_storage"
          }
        ],
        "numberOfBytes": "224"
      },
      "t_struct(uq112x112)2594_storage": {
        "encoding": "inplace",
        "label": "struct FixedPoint.uq112x112",
        "members": [
          {
            "astId": 2593,
            "contract": "contracts/core/UniswapV2LikePriceProvider.sol:UniswapV2LikePriceProvider",
            "label": "_x",
            "offset": 0,
            "slot": "0",
            "type": "t_uint224"
          }
        ],
        "numberOfBytes": "32"
      },
      "t_uint224": {
        "encoding": "inplace",
        "label": "uint224",
        "numberOfBytes": "28"
      },
      "t_uint256": {
        "encoding": "inplace",
        "label": "uint256",
        "numberOfBytes": "32"
      },
      "t_uint32": {
        "encoding": "inplace",
        "label": "uint32",
        "numberOfBytes": "4"
      }
    }
  }
}