{
  "address": "0xc6A57Ed64e1B703a7250a04f0A90F5E0a116CD2e",
  "abi": [
    {
      "inputs": [
        {
          "internalType": "address",
          "name": "token_",
          "type": "address"
        }
      ],
      "name": "getPriceInUsd",
      "outputs": [
        {
          "internalType": "uint256",
          "name": "_priceInUsd",
          "type": "uint256"
        }
      ],
      "stateMutability": "view",
      "type": "function"
    }
  ],
  "transactionHash": "0x70f2e7929f0d2ea054f206c4e5331575c09509e32f5730e6e58b5a512ab75095",
  "args": [],
  "numDeployments": 1,
  "solcInputHash": "907fdc10b42273782005459788cc093f",
  "bytecode": "0x608060405234801561001057600080fd5b506104f3806100206000396000f3fe608060405234801561001057600080fd5b506004361061002b5760003560e01c806307ee40bf14610030575b600080fd5b61004361003e3660046102c2565b610055565b60405190815260200160405180910390f35b60008082905060008173ffffffffffffffffffffffffffffffffffffffff1663fc0c546a6040518163ffffffff1660e01b815260040160206040518083038186803b1580156100a357600080fd5b505afa1580156100b7573d6000803e3d6000fd5b505050506040513d601f19601f820116820180604052508101906100db91906102e6565b90508073ffffffffffffffffffffffffffffffffffffffff1663313ce5676040518163ffffffff1660e01b815260040160206040518083038186803b15801561012357600080fd5b505afa158015610137573d6000803e3d6000fd5b505050506040513d601f19601f8201168201806040525081019061015b9190610303565b61016690600a61043b565b8273ffffffffffffffffffffffffffffffffffffffff166399530b066040518163ffffffff1660e01b815260040160206040518083038186803b1580156101ac57600080fd5b505afa1580156101c0573d6000803e3d6000fd5b505050506040513d601f19601f820116820180604052508101906101e4919061044a565b6040517f07ee40bf00000000000000000000000000000000000000000000000000000000815273ffffffffffffffffffffffffffffffffffffffff8416600482015233906307ee40bf9060240160206040518083038186803b15801561024957600080fd5b505afa15801561025d573d6000803e3d6000fd5b505050506040513d601f19601f82011682018060405250810190610281919061044a565b61028b9190610463565b6102959190610482565b949350505050565b73ffffffffffffffffffffffffffffffffffffffff811681146102bf57600080fd5b50565b6000602082840312156102d457600080fd5b81356102df8161029d565b9392505050565b6000602082840312156102f857600080fd5b81516102df8161029d565b60006020828403121561031557600080fd5b815160ff811681146102df57600080fd5b7f4e487b7100000000000000000000000000000000000000000000000000000000600052601160045260246000fd5b600181815b8085111561039057816000190482111561037657610376610326565b8085161561038357918102915b93841c939080029061035a565b509250929050565b6000826103a757506001610435565b816103b457506000610435565b81600181146103ca57600281146103d4576103f0565b6001915050610435565b60ff8411156103e5576103e5610326565b50506001821b610435565b5060208310610133831016604e8410600b8410161715610413575081810a610435565b61041d8383610355565b806000190482111561043157610431610326565b0290505b92915050565b60006102df60ff841683610398565b60006020828403121561045c57600080fd5b5051919050565b600081600019048311821515161561047d5761047d610326565b500290565b6000826104b8577f4e487b7100000000000000000000000000000000000000000000000000000000600052601260045260246000fd5b50049056fea2646970667358221220ff6a8f0df32e65101f4a7c60e91c16933239a7e732ac9ccad37439a592bc3cce64736f6c63430008090033",
  "devdoc": {
    "kind": "dev",
    "methods": {
      "getPriceInUsd(address)": {
        "params": {
          "token_": "The address of asset"
        },
        "returns": {
          "_priceInUsd": "The USD price"
        }
      }
    },
    "title": "Oracle for vPool token",
    "version": 1
  },
  "userdoc": {
    "kind": "user",
    "methods": {
      "getPriceInUsd(address)": {
        "notice": "Get USD (or equivalent) price of an asset"
      }
    },
    "version": 1
  },
  "storageLayout": {
    "storage": [],
    "types": null
  }
}