{
  "address": "0xa889d4993C44ea78E2C87bc5897C74977a126Dee",
  "abi": [
    {
      "inputs": [
        {
          "internalType": "uint256",
          "name": "maxDeviation_",
          "type": "uint256"
        },
        {
          "internalType": "uint256",
          "name": "stalePeriod_",
          "type": "uint256"
        }
      ],
      "stateMutability": "nonpayable",
      "type": "constructor"
    },
    {
      "anonymous": false,
      "inputs": [
        {
          "indexed": false,
          "internalType": "uint256",
          "name": "oldMaxDeviation",
          "type": "uint256"
        },
        {
          "indexed": false,
          "internalType": "uint256",
          "name": "newMaxDeviation",
          "type": "uint256"
        }
      ],
      "name": "MaxDeviationUpdated",
      "type": "event"
    },
    {
      "anonymous": false,
      "inputs": [
        {
          "indexed": false,
          "internalType": "uint256",
          "name": "oldStalePeriod",
          "type": "uint256"
        },
        {
          "indexed": false,
          "internalType": "uint256",
          "name": "newStalePeriod",
          "type": "uint256"
        }
      ],
      "name": "StalePeriodUpdated",
      "type": "event"
    },
    {
      "inputs": [],
      "name": "ONE_VSP",
      "outputs": [
        {
          "internalType": "uint256",
          "name": "",
          "type": "uint256"
        }
      ],
      "stateMutability": "view",
      "type": "function"
    },
    {
      "inputs": [],
      "name": "VSP_ADDRESS",
      "outputs": [
        {
          "internalType": "address",
          "name": "",
          "type": "address"
        }
      ],
      "stateMutability": "view",
      "type": "function"
    },
    {
      "inputs": [],
      "name": "WETH_ADDRESS",
      "outputs": [
        {
          "internalType": "address",
          "name": "",
          "type": "address"
        }
      ],
      "stateMutability": "view",
      "type": "function"
    },
    {
      "inputs": [],
      "name": "addressProvider",
      "outputs": [
        {
          "internalType": "contract IAddressProvider",
          "name": "",
          "type": "address"
        }
      ],
      "stateMutability": "view",
      "type": "function"
    },
    {
      "inputs": [
        {
          "internalType": "address",
          "name": "_asset",
          "type": "address"
        }
      ],
      "name": "getPriceInUsd",
      "outputs": [
        {
          "internalType": "uint256",
          "name": "_priceInUsd",
          "type": "uint256"
        }
      ],
      "stateMutability": "view",
      "type": "function"
    },
    {
      "inputs": [],
      "name": "maxDeviation",
      "outputs": [
        {
          "internalType": "uint256",
          "name": "",
          "type": "uint256"
        }
      ],
      "stateMutability": "view",
      "type": "function"
    },
    {
      "inputs": [],
      "name": "stalePeriod",
      "outputs": [
        {
          "internalType": "uint256",
          "name": "",
          "type": "uint256"
        }
      ],
      "stateMutability": "view",
      "type": "function"
    },
    {
      "inputs": [],
      "name": "update",
      "outputs": [],
      "stateMutability": "nonpayable",
      "type": "function"
    },
    {
      "inputs": [
        {
          "internalType": "uint256",
          "name": "maxDeviation_",
          "type": "uint256"
        }
      ],
      "name": "updateMaxDeviation",
      "outputs": [],
      "stateMutability": "nonpayable",
      "type": "function"
    },
    {
      "inputs": [
        {
          "internalType": "uint256",
          "name": "stalePeriod_",
          "type": "uint256"
        }
      ],
      "name": "updateStalePeriod",
      "outputs": [],
      "stateMutability": "nonpayable",
      "type": "function"
    }
  ],
  "transactionHash": "0x16f3478dbe5050f17ec59a53fb5df0693086a8a81e4491d4a496083efb7fa395",
  "args": [
    "50000000000000000",
    7200
  ],
  "numDeployments": 3,
  "solcInputHash": "8b654c506c10a4071125075f82070c93",
  "bytecode": "0x608060405234801561001057600080fd5b506040516110c53803806110c583398101604081905261002f9161003d565b600091909155600155610061565b6000806040838503121561005057600080fd5b505080516020909101519092909150565b611055806100706000396000f3fe608060405234801561001057600080fd5b50600436106100be5760003560e01c8063a2e6204511610076578063b478ade71161005b578063b478ade714610173578063c1a2e32b14610182578063f5dfef1d1461019557600080fd5b8063a2e6204514610162578063a5b36a361461016a57600080fd5b806307ee40bf116100a757806307ee40bf1461011d5780632954018c1461013e5780632a1bab731461015957600080fd5b806302651a29146100c3578063040141e5146100d8575b600080fd5b6100d66100d1366004610e40565b6101b0565b005b6100f373c02aaa39b223fe8d0a0e5c4f27ead9083c756cc281565b60405173ffffffffffffffffffffffffffffffffffffffff90911681526020015b60405180910390f35b61013061012b366004610e7e565b61031c565b604051908152602001610114565b6100f373fba0816a81bcabbf3829bed28618177a2bf0e82a81565b61013060005481565b6100d66106e4565b61013060015481565b610130670de0b6b3a764000081565b6100d6610190366004610e40565b610c32565b6100f3731b40183efb4dd766f11bda7a7c3ad8982e99842181565b73fba0816a81bcabbf3829bed28618177a2bf0e82a73ffffffffffffffffffffffffffffffffffffffff16630c340a246040518163ffffffff1660e01b815260040160206040518083038186803b15801561020a57600080fd5b505afa15801561021e573d6000803e3d6000fd5b505050506040513d601f19601f820116820180604052508101906102429190610ea2565b73ffffffffffffffffffffffffffffffffffffffff163373ffffffffffffffffffffffffffffffffffffffff16146102db576040517f08c379a000000000000000000000000000000000000000000000000000000000815260206004820152600c60248201527f6e6f742d676f7665726e6f72000000000000000000000000000000000000000060448201526064015b60405180910390fd5b60005460408051918252602082018390527fea7b0359048504e79474eaaa05294b49265fc4e7b0a0c3737aaa22412e90f16e910160405180910390a1600055565b600073ffffffffffffffffffffffffffffffffffffffff8216731b40183efb4dd766f11bda7a7c3ad8982e998421146103b1576040517f08c379a000000000000000000000000000000000000000000000000000000000815260206004820152600d60248201527f696e76616c69642d746f6b656e0000000000000000000000000000000000000060448201526064016102d2565b60008073fba0816a81bcabbf3829bed28618177a2bf0e82a73ffffffffffffffffffffffffffffffffffffffff16638f8e162c6040518163ffffffff1660e01b815260040160206040518083038186803b15801561040e57600080fd5b505afa158015610422573d6000803e3d6000fd5b505050506040513d601f19601f820116820180604052508101906104469190610ea2565b6040517f2b041e3a00000000000000000000000000000000000000000000000000000000815290915073ffffffffffffffffffffffffffffffffffffffff821690632b041e3a906104bc90600390731b40183efb4dd766f11bda7a7c3ad8982e99842190670de0b6b3a764000090600401610efa565b604080518083038186803b1580156104d357600080fd5b505afa1580156104e7573d6000803e3d6000fd5b505050506040513d601f19601f8201168201806040525081019061050b9190610f2f565b6040517f2b041e3a0000000000000000000000000000000000000000000000000000000081529194509250600090819073ffffffffffffffffffffffffffffffffffffffff841690632b041e3a9061058790600490731b40183efb4dd766f11bda7a7c3ad8982e99842190670de0b6b3a7640000908301610efa565b604080518083038186803b15801561059e57600080fd5b505afa1580156105b2573d6000803e3d6000fd5b505050506040513d601f19601f820116820180604052508101906105d69190610f2f565b915091506000851180156105ea5750600082115b801561060557506106036105fe8583610d99565b610db3565b155b61066b576040517f08c379a000000000000000000000000000000000000000000000000000000000815260206004820152601a60248201527f6f6e652d6f722d626f74682d7072696365732d696e76616c696400000000000060448201526064016102d2565b6106758583610dc1565b6106db576040517f08c379a000000000000000000000000000000000000000000000000000000000815260206004820152601960248201527f7072696365732d646576696174696f6e2d746f6f2d686967680000000000000060448201526064016102d2565b50505050919050565b600073fba0816a81bcabbf3829bed28618177a2bf0e82a905060008173ffffffffffffffffffffffffffffffffffffffff16638f8e162c6040518163ffffffff1660e01b815260040160206040518083038186803b15801561074557600080fd5b505afa158015610759573d6000803e3d6000fd5b505050506040513d601f19601f8201168201806040525081019061077d9190610ea2565b905060008273ffffffffffffffffffffffffffffffffffffffff16632082615f6040518163ffffffff1660e01b815260040160206040518083038186803b1580156107c757600080fd5b505afa1580156107db573d6000803e3d6000fd5b505050506040513d601f19601f820116820180604052508101906107ff9190610ea2565b73ffffffffffffffffffffffffffffffffffffffff166384537f0e6040518163ffffffff1660e01b815260040160206040518083038186803b15801561084457600080fd5b505afa158015610858573d6000803e3d6000fd5b505050506040513d601f19601f8201168201806040525081019061087c9190610ea2565b905060008273ffffffffffffffffffffffffffffffffffffffff1663c6222eba60036040518263ffffffff1660e01b81526004016108ba9190610f53565b60206040518083038186803b1580156108d257600080fd5b505afa1580156108e6573d6000803e3d6000fd5b505050506040513d601f19601f8201168201806040525081019061090a9190610ea2565b905060008373ffffffffffffffffffffffffffffffffffffffff1663c6222eba60046040518263ffffffff1660e01b81526004016109489190610f53565b60206040518083038186803b15801561096057600080fd5b505afa158015610974573d6000803e3d6000fd5b505050506040513d601f19601f820116820180604052508101906109989190610ea2565b6040517f41118ef4000000000000000000000000000000000000000000000000000000008152731b40183efb4dd766f11bda7a7c3ad8982e998421600482015273c02aaa39b223fe8d0a0e5c4f27ead9083c756cc2602482015290915073ffffffffffffffffffffffffffffffffffffffff8316906341118ef490604401600060405180830381600087803b158015610a3057600080fd5b505af1158015610a44573d6000803e3d6000fd5b50506040517f41118ef400000000000000000000000000000000000000000000000000000000815273c02aaa39b223fe8d0a0e5c4f27ead9083c756cc2600482015273ffffffffffffffffffffffffffffffffffffffff8681166024830152851692506341118ef49150604401600060405180830381600087803b158015610acb57600080fd5b505af1158015610adf573d6000803e3d6000fd5b50506040517f41118ef4000000000000000000000000000000000000000000000000000000008152731b40183efb4dd766f11bda7a7c3ad8982e998421600482015273c02aaa39b223fe8d0a0e5c4f27ead9083c756cc2602482015273ffffffffffffffffffffffffffffffffffffffff841692506341118ef49150604401600060405180830381600087803b158015610b7857600080fd5b505af1158015610b8c573d6000803e3d6000fd5b50506040517f41118ef400000000000000000000000000000000000000000000000000000000815273c02aaa39b223fe8d0a0e5c4f27ead9083c756cc2600482015273ffffffffffffffffffffffffffffffffffffffff8681166024830152841692506341118ef49150604401600060405180830381600087803b158015610c1357600080fd5b505af1158015610c27573d6000803e3d6000fd5b505050505050505050565b73fba0816a81bcabbf3829bed28618177a2bf0e82a73ffffffffffffffffffffffffffffffffffffffff16630c340a246040518163ffffffff1660e01b815260040160206040518083038186803b158015610c8c57600080fd5b505afa158015610ca0573d6000803e3d6000fd5b505050506040513d601f19601f82011682018060405250810190610cc49190610ea2565b73ffffffffffffffffffffffffffffffffffffffff163373ffffffffffffffffffffffffffffffffffffffff1614610d58576040517f08c379a000000000000000000000000000000000000000000000000000000000815260206004820152600c60248201527f6e6f742d676f7665726e6f72000000000000000000000000000000000000000060448201526064016102d2565b60015460408051918252602082018390527f1dcb97516840282e793e073fe5a34e75c575d63193a3cbed8fa1930b27df4720910160405180910390a1600155565b6000818310610da85781610daa565b825b90505b92915050565b6000610dad82600154610e2b565b600080828411610df75782610dd68582610f90565b610de890670de0b6b3a7640000610fa7565b610df29190610fe4565b610e1e565b83610e028482610f90565b610e1490670de0b6b3a7640000610fa7565b610e1e9190610fe4565b6000541015949350505050565b600081610e388442610f90565b119392505050565b600060208284031215610e5257600080fd5b5035919050565b73ffffffffffffffffffffffffffffffffffffffff81168114610e7b57600080fd5b50565b600060208284031215610e9057600080fd5b8135610e9b81610e59565b9392505050565b600060208284031215610eb457600080fd5b8151610e9b81610e59565b600b8110610ef6577f4e487b7100000000000000000000000000000000000000000000000000000000600052602160045260246000fd5b9052565b60608101610f088286610ebf565b73ffffffffffffffffffffffffffffffffffffffff93909316602082015260400152919050565b60008060408385031215610f4257600080fd5b505080516020909101519092909150565b60208101610dad8284610ebf565b7f4e487b7100000000000000000000000000000000000000000000000000000000600052601160045260246000fd5b600082821015610fa257610fa2610f61565b500390565b6000817fffffffffffffffffffffffffffffffffffffffffffffffffffffffffffffffff0483118215151615610fdf57610fdf610f61565b500290565b60008261101a577f4e487b7100000000000000000000000000000000000000000000000000000000600052601260045260246000fd5b50049056fea26469706673582212208ed9e305644396b00f7b7df4892c67a2351be835c15b253c3d40b49fc49ff4b764736f6c63430008090033",
  "devdoc": {
    "kind": "dev",
    "methods": {
      "getPriceInUsd(address)": {
        "params": {
          "token_": "The address of asset"
        },
        "returns": {
          "_priceInUsd": "The USD price"
        }
      }
    },
    "title": "VSP oracle (mainnet)",
    "version": 1
  },
  "userdoc": {
    "events": {
      "MaxDeviationUpdated(uint256,uint256)": {
        "notice": "Emitted when max deviation is updated"
      },
      "StalePeriodUpdated(uint256,uint256)": {
        "notice": "Emitted when stale period is updated"
      }
    },
    "kind": "user",
    "methods": {
      "getPriceInUsd(address)": {
        "notice": "Get USD (or equivalent) price of an asset"
      },
      "maxDeviation()": {
        "notice": "The max acceptable deviation"
      },
      "stalePeriod()": {
        "notice": "The stale period. It's used to determine if a price is invalid (i.e. outdated)"
      },
      "update()": {
        "notice": "Update underlying price providers (i.e. UniswapV2-Like)"
      },
      "updateMaxDeviation(uint256)": {
        "notice": "Update max deviation"
      },
      "updateStalePeriod(uint256)": {
        "notice": "Update stale period"
      }
    },
    "version": 1
  },
  "storageLayout": {
    "storage": [
      {
        "astId": 11392,
        "contract": "contracts/periphery/tokens/VspMainnetOracle.sol:VspMainnetOracle",
        "label": "maxDeviation",
        "offset": 0,
        "slot": "0",
        "type": "t_uint256"
      },
      {
        "astId": 11477,
        "contract": "contracts/periphery/tokens/VspMainnetOracle.sol:VspMainnetOracle",
        "label": "stalePeriod",
        "offset": 0,
        "slot": "1",
        "type": "t_uint256"
      }
    ],
    "types": {
      "t_uint256": {
        "encoding": "inplace",
        "label": "uint256",
        "numberOfBytes": "32"
      }
    }
  }
}