{
  "address": "0x507F6Af560b0A44383264b2BC19572E2C1F4519F",
  "abi": [
    {
      "inputs": [
        {
          "internalType": "contract AggregatorV3Interface",
          "name": "aggregator_",
          "type": "address"
        },
        {
          "internalType": "contract IVesperPool",
          "name": "vToken_",
          "type": "address"
        }
      ],
      "stateMutability": "nonpayable",
      "type": "constructor"
    },
    {
      "inputs": [],
      "name": "aggregator",
      "outputs": [
        {
          "internalType": "contract AggregatorV3Interface",
          "name": "",
          "type": "address"
        }
      ],
      "stateMutability": "view",
      "type": "function"
    },
    {
      "inputs": [],
      "name": "latestRoundData",
      "outputs": [
        {
          "internalType": "uint80",
          "name": "roundId",
          "type": "uint80"
        },
        {
          "internalType": "int256",
          "name": "answer",
          "type": "int256"
        },
        {
          "internalType": "uint256",
          "name": "startedAt",
          "type": "uint256"
        },
        {
          "internalType": "uint256",
          "name": "updatedAt",
          "type": "uint256"
        },
        {
          "internalType": "uint80",
          "name": "answeredInRound",
          "type": "uint80"
        }
      ],
      "stateMutability": "view",
      "type": "function"
    },
    {
      "inputs": [],
      "name": "underlyingDecimals",
      "outputs": [
        {
          "internalType": "uint8",
          "name": "",
          "type": "uint8"
        }
      ],
      "stateMutability": "view",
      "type": "function"
    },
    {
      "inputs": [],
      "name": "vToken",
      "outputs": [
        {
          "internalType": "contract IVesperPool",
          "name": "",
          "type": "address"
        }
      ],
      "stateMutability": "view",
      "type": "function"
    }
  ],
  "transactionHash": "0x505042df6d59a1852ee724a3aebf351ffac6883d902cbd870ca45ff7e8a5a711",
  "args": [
    "0x5f4eC3Df9cbd43714FE2740f5E3616155c5b8419",
    "0xd1C117319B3595fbc39b471AB1fd485629eb05F2"
  ],
  "numDeployments": 1,
  "solcInputHash": "5d5402695dd2cb825625827ca0db9ba4",
  "bytecode": "0x60e060405234801561001057600080fd5b5060405161086138038061086183398101604081905261002f91610148565b6001600160a01b0380831660a0528116608081905260408051637e062a3560e11b8152905163fc0c546a91600480820192602092909190829003018186803b15801561007a57600080fd5b505afa15801561008e573d6000803e3d6000fd5b505050506040513d601f19601f820116820180604052508101906100b29190610182565b6001600160a01b031663313ce5676040518163ffffffff1660e01b815260040160206040518083038186803b1580156100ea57600080fd5b505afa1580156100fe573d6000803e3d6000fd5b505050506040513d601f19601f8201168201806040525081019061012291906101a6565b60ff1660c052506101c99050565b6001600160a01b038116811461014557600080fd5b50565b6000806040838503121561015b57600080fd5b825161016681610130565b602084015190925061017781610130565b809150509250929050565b60006020828403121561019457600080fd5b815161019f81610130565b9392505050565b6000602082840312156101b857600080fd5b815160ff8116811461019f57600080fd5b60805160a05160c05161065761020a6000396000818160a701526101fd0152600081816056015261014c01526000818160e0015261022501526106576000f3fe608060405234801561001057600080fd5b506004361061004c5760003560e01c8063245a7bfc1461005157806325a760c2146100a25780639bb1a99c146100db578063feaf968c14610102575b600080fd5b6100787f000000000000000000000000000000000000000000000000000000000000000081565b60405173ffffffffffffffffffffffffffffffffffffffff90911681526020015b60405180910390f35b6100c97f000000000000000000000000000000000000000000000000000000000000000081565b60405160ff9091168152602001610099565b6100787f000000000000000000000000000000000000000000000000000000000000000081565b61010a610141565b6040805169ffffffffffffffffffff968716815260208101959095528401929092526060830152909116608082015260a001610099565b6000806000806000807f000000000000000000000000000000000000000000000000000000000000000073ffffffffffffffffffffffffffffffffffffffff1663feaf968c6040518163ffffffff1660e01b815260040160a06040518083038186803b1580156101b057600080fd5b505afa1580156101c4573d6000803e3d6000fd5b505050506040513d601f19601f820116820180604052508101906101e89190610433565b939950909650945090925090506102e36102237f0000000000000000000000000000000000000000000000000000000000000000600a610598565b7f000000000000000000000000000000000000000000000000000000000000000073ffffffffffffffffffffffffffffffffffffffff166399530b066040518163ffffffff1660e01b815260040160206040518083038186803b15801561028957600080fd5b505afa15801561029d573d6000803e3d6000fd5b505050506040513d601f19601f820116820180604052508101906102c191906105ae565b6102ca846102ed565b6102d491906105c7565b6102de91906105e6565b610362565b9450509091929394565b60008082121561035e576040517f08c379a000000000000000000000000000000000000000000000000000000000815260206004820181905260248201527f53616665436173743a2076616c7565206d75737420626520706f73697469766560448201526064015b60405180910390fd5b5090565b60007f7fffffffffffffffffffffffffffffffffffffffffffffffffffffffffffffff82111561035e576040517f08c379a000000000000000000000000000000000000000000000000000000000815260206004820152602860248201527f53616665436173743a2076616c756520646f65736e27742066697420696e206160448201527f6e20696e743235360000000000000000000000000000000000000000000000006064820152608401610355565b805169ffffffffffffffffffff8116811461042e57600080fd5b919050565b600080600080600060a0868803121561044b57600080fd5b61045486610414565b945060208601519350604086015192506060860151915061047760808701610414565b90509295509295909350565b7f4e487b7100000000000000000000000000000000000000000000000000000000600052601160045260246000fd5b600181815b808511156104ed5781600019048211156104d3576104d3610483565b808516156104e057918102915b93841c93908002906104b7565b509250929050565b60008261050457506001610592565b8161051157506000610592565b816001811461052757600281146105315761054d565b6001915050610592565b60ff84111561054257610542610483565b50506001821b610592565b5060208310610133831016604e8410600b8410161715610570575081810a610592565b61057a83836104b2565b806000190482111561058e5761058e610483565b0290505b92915050565b60006105a760ff8416836104f5565b9392505050565b6000602082840312156105c057600080fd5b5051919050565b60008160001904831182151516156105e1576105e1610483565b500290565b60008261061c577f4e487b7100000000000000000000000000000000000000000000000000000000600052601260045260246000fd5b50049056fea2646970667358221220d86864a0a5de1ac3224c8b296c9942de2f552c35b753798cbce3b8802b6391f764736f6c63430008090033",
  "devdoc": {
    "kind": "dev",
    "methods": {},
    "title": "Oracle for vPool token (FraxLend)",
    "version": 1
  },
  "userdoc": {
    "kind": "user",
    "methods": {},
    "version": 1
  },
  "storageLayout": {
    "storage": [],
    "types": null
  }
}