{
  "address": "0xDBd9Cfb0b54C08E75085f8c8844E8054d13Bd39a",
  "abi": [
    {
      "inputs": [],
      "name": "CalldataMustHaveValidPayload",
      "type": "error"
    },
    {
      "inputs": [],
      "name": "CalldataOverOrUnderFlow",
      "type": "error"
    },
    {
      "inputs": [],
      "name": "CanNotPickMedianOfEmptyArray",
      "type": "error"
    },
    {
      "inputs": [],
      "name": "DataPackageTimestampMustNotBeZero",
      "type": "error"
    },
    {
      "inputs": [],
      "name": "DataPackageTimestampsMustBeEqual",
      "type": "error"
    },
    {
      "inputs": [],
      "name": "DataTimestampCannotBeZero",
      "type": "error"
    },
    {
      "inputs": [],
      "name": "EachSignerMustProvideTheSameValue",
      "type": "error"
    },
    {
      "inputs": [],
      "name": "EmptyCalldataPointersArr",
      "type": "error"
    },
    {
      "inputs": [],
      "name": "GetDataServiceIdNotImplemented",
      "type": "error"
    },
    {
      "inputs": [],
      "name": "IncorrectUnsignedMetadataSize",
      "type": "error"
    },
    {
      "inputs": [
        {
          "internalType": "uint256",
          "name": "receivedSignersCount",
          "type": "uint256"
        },
        {
          "internalType": "uint256",
          "name": "requiredSignersCount",
          "type": "uint256"
        }
      ],
      "name": "InsufficientNumberOfUniqueSigners",
      "type": "error"
    },
    {
      "inputs": [],
      "name": "InvalidCalldataPointer",
      "type": "error"
    },
    {
      "inputs": [],
      "name": "RedstonePayloadMustHaveAtLeastOneDataPackage",
      "type": "error"
    },
    {
      "inputs": [
        {
          "internalType": "address",
          "name": "receivedSigner",
          "type": "address"
        }
      ],
      "name": "SignerNotAuthorised",
      "type": "error"
    },
    {
      "inputs": [
        {
          "internalType": "uint256",
          "name": "receivedTimestampSeconds",
          "type": "uint256"
        },
        {
          "internalType": "uint256",
          "name": "blockTimestamp",
          "type": "uint256"
        }
      ],
      "name": "TimestampFromTooLongFuture",
      "type": "error"
    },
    {
      "inputs": [
        {
          "internalType": "uint256",
          "name": "receivedTimestampSeconds",
          "type": "uint256"
        },
        {
          "internalType": "uint256",
          "name": "blockTimestamp",
          "type": "uint256"
        }
      ],
      "name": "TimestampIsTooOld",
      "type": "error"
    },
    {
      "inputs": [],
      "name": "TimestampsMustBeEqual",
      "type": "error"
    },
    {
      "inputs": [
        {
          "internalType": "uint256",
          "name": "valueByteSize",
          "type": "uint256"
        }
      ],
      "name": "TooLargeValueByteSize",
      "type": "error"
    },
    {
      "anonymous": false,
      "inputs": [
        {
          "indexed": false,
          "internalType": "uint256",
          "name": "price",
          "type": "uint256"
        },
        {
          "indexed": false,
          "internalType": "uint256",
          "name": "priceTimestamp",
          "type": "uint256"
        }
      ],
      "name": "CacheUpdated",
      "type": "event"
    },
    {
      "anonymous": false,
      "inputs": [
        {
          "indexed": false,
          "internalType": "bytes32",
          "name": "feedId",
          "type": "bytes32"
        },
        {
          "indexed": false,
          "internalType": "address[]",
          "name": "tokens",
          "type": "address[]"
        }
      ],
      "name": "FeedIdUpdated",
      "type": "event"
    },
    {
      "inputs": [],
      "name": "REDSTONE_DECIMALS",
      "outputs": [
        {
          "internalType": "uint256",
          "name": "",
          "type": "uint256"
        }
      ],
      "stateMutability": "view",
      "type": "function"
    },
    {
      "inputs": [],
      "name": "TO_SCALE",
      "outputs": [
        {
          "internalType": "uint256",
          "name": "",
          "type": "uint256"
        }
      ],
      "stateMutability": "view",
      "type": "function"
    },
    {
      "inputs": [],
      "name": "USD_DECIMALS",
      "outputs": [
        {
          "internalType": "uint256",
          "name": "",
          "type": "uint256"
        }
      ],
      "stateMutability": "view",
      "type": "function"
    },
    {
      "inputs": [],
      "name": "addressProvider",
      "outputs": [
        {
          "internalType": "contract IAddressProvider",
          "name": "",
          "type": "address"
        }
      ],
      "stateMutability": "view",
      "type": "function"
    },
    {
      "inputs": [
        {
          "internalType": "uint256[]",
          "name": "values",
          "type": "uint256[]"
        }
      ],
      "name": "aggregateValues",
      "outputs": [
        {
          "internalType": "uint256",
          "name": "",
          "type": "uint256"
        }
      ],
      "stateMutability": "view",
      "type": "function"
    },
    {
      "inputs": [],
      "name": "extractTimestampsAndAssertAllAreEqual",
      "outputs": [
        {
          "internalType": "uint256",
          "name": "extractedTimestamp",
          "type": "uint256"
        }
      ],
      "stateMutability": "pure",
      "type": "function"
    },
    {
      "inputs": [
        {
          "internalType": "address",
          "name": "signerAddress",
          "type": "address"
        }
      ],
      "name": "getAuthorisedSignerIndex",
      "outputs": [
        {
          "internalType": "uint8",
          "name": "",
          "type": "uint8"
        }
      ],
      "stateMutability": "view",
      "type": "function"
    },
    {
      "inputs": [],
      "name": "getDataServiceId",
      "outputs": [
        {
          "internalType": "string",
          "name": "",
          "type": "string"
        }
      ],
      "stateMutability": "view",
      "type": "function"
    },
    {
      "inputs": [
        {
          "internalType": "address",
          "name": "token_",
          "type": "address"
        }
      ],
      "name": "getPriceInUsd",
      "outputs": [
        {
          "internalType": "uint256",
          "name": "_priceInUsd",
          "type": "uint256"
        },
        {
          "internalType": "uint256",
          "name": "_lastUpdatedAt",
          "type": "uint256"
        }
      ],
      "stateMutability": "view",
      "type": "function"
    },
    {
      "inputs": [],
      "name": "getUniqueSignersThreshold",
      "outputs": [
        {
          "internalType": "uint8",
          "name": "",
          "type": "uint8"
        }
      ],
      "stateMutability": "view",
      "type": "function"
    },
    {
      "inputs": [
        {
          "internalType": "address",
          "name": "tokenIn_",
          "type": "address"
        },
        {
          "internalType": "address",
          "name": "tokenOut_",
          "type": "address"
        },
        {
          "internalType": "uint256",
          "name": "amountIn_",
          "type": "uint256"
        }
      ],
      "name": "quote",
      "outputs": [
        {
          "internalType": "uint256",
          "name": "_amountOut",
          "type": "uint256"
        },
        {
          "internalType": "uint256",
          "name": "_tokenInLastUpdatedAt",
          "type": "uint256"
        },
        {
          "internalType": "uint256",
          "name": "_tokenOutLastUpdatedAt",
          "type": "uint256"
        }
      ],
      "stateMutability": "view",
      "type": "function"
    },
    {
      "inputs": [
        {
          "internalType": "address",
          "name": "token_",
          "type": "address"
        },
        {
          "internalType": "uint256",
          "name": "amountIn_",
          "type": "uint256"
        }
      ],
      "name": "quoteTokenToUsd",
      "outputs": [
        {
          "internalType": "uint256",
          "name": "_amountOut",
          "type": "uint256"
        },
        {
          "internalType": "uint256",
          "name": "_lastUpdatedAt",
          "type": "uint256"
        }
      ],
      "stateMutability": "view",
      "type": "function"
    },
    {
      "inputs": [
        {
          "internalType": "address",
          "name": "token_",
          "type": "address"
        },
        {
          "internalType": "uint256",
          "name": "amountIn_",
          "type": "uint256"
        }
      ],
      "name": "quoteUsdToToken",
      "outputs": [
        {
          "internalType": "uint256",
          "name": "_amountOut",
          "type": "uint256"
        },
        {
          "internalType": "uint256",
          "name": "_lastUpdatedAt",
          "type": "uint256"
        }
      ],
      "stateMutability": "view",
      "type": "function"
    },
    {
      "inputs": [
        {
          "internalType": "bytes32",
          "name": "feedId_",
          "type": "bytes32"
        }
      ],
      "name": "tokensOf",
      "outputs": [
        {
          "internalType": "address[]",
          "name": "tokens_",
          "type": "address[]"
        }
      ],
      "stateMutability": "view",
      "type": "function"
    },
    {
      "inputs": [
        {
          "internalType": "bytes32",
          "name": "feedId_",
          "type": "bytes32"
        },
        {
          "internalType": "address[]",
          "name": "tokens_",
          "type": "address[]"
        }
      ],
      "name": "updateFeed",
      "outputs": [],
      "stateMutability": "nonpayable",
      "type": "function"
    },
    {
      "inputs": [
        {
          "internalType": "bytes32[]",
          "name": "dataFeedIds_",
          "type": "bytes32[]"
        }
      ],
      "name": "updatePrice",
      "outputs": [],
      "stateMutability": "nonpayable",
      "type": "function"
    },
    {
      "inputs": [
        {
          "internalType": "uint256",
          "name": "receivedTimestampMilliseconds",
          "type": "uint256"
        }
      ],
      "name": "validateTimestamp",
      "outputs": [],
      "stateMutability": "view",
      "type": "function"
    }
  ],
  "transactionHash": "0xea24ba86934a30f121c555f44f1a1a974ded42ff45663074d949a458af030bc3",
  "args": [],
  "numDeployments": 1,
  "solcInputHash": "8438ec668be5c3dd7f055b02b25fa293",
  "bytecode": "0x608060405234801561001057600080fd5b50611f04806100206000396000f3fe608060405234801561001057600080fd5b506004361061011b5760003560e01c80639db22f71116100b2578063c274583a11610081578063dee7aba411610066578063dee7aba4146102c6578063f50b2efe146102ce578063f90c4924146102e157600080fd5b8063c274583a14610274578063d3dce958146102b357600080fd5b80639db22f7114610200578063b24ebfcc14610220578063b5e9bef514610233578063b64663841461024657600080fd5b80633ce142f5116100ee5780633ce142f5146101ab57806355a547d5146101d05780636820b6e8146101d85780638d0dba00146101ed57600080fd5b806307ee40bf1461012057806309089ac51461014d5780632954018c146101635780632f6ee695146101a3575b600080fd5b61013361012e36600461193c565b6102e8565b604080519283526020830191909152015b60405180910390f35b610155600881565b604051908152602001610144565b61017e73fba0816a81bcabbf3829bed28618177a2bf0e82a81565b60405173ffffffffffffffffffffffffffffffffffffffff9091168152602001610144565b610155601281565b6101be6101b936600461193c565b610392565b60405160ff9091168152602001610144565b610155610505565b6101eb6101e63660046119dd565b610654565b005b6101336101fb366004611a73565b610927565b61021361020e366004611a9f565b6109e4565b6040516101449190611b09565b61015561022e3660046119dd565b610a5b565b610133610241366004611a73565b610a6c565b610259610254366004611b1c565b610b2b565b60408051938452602084019290925290820152606001610144565b604080518082018252601581527f72656473746f6e652d7072696d6172792d70726f640000000000000000000000602082015290516101449190611b5d565b6101eb6102c1366004611bb2565b610b58565b610155610d40565b6101eb6102dc366004611a9f565b610d5a565b60036101be565b73ffffffffffffffffffffffffffffffffffffffff81166000908152600160208181526040928390208351808501909452805480855292015490830181905290918161033a5750600093849350915050565b42821080156103525750603c6103508342611c87565b115b156103635750600093849350915050565b428211801561037b5750603c6103794284611c87565b115b1561038c5750600093849350915050565b50915091565b6000738bb8f32df04c8b654987daaed53d6b6091e3b77473ffffffffffffffffffffffffffffffffffffffff831614156103ce57506000919050565b73deb22f54738d54976c4c0fe5ce6d408e40d8849973ffffffffffffffffffffffffffffffffffffffff8316141561040857506001919050565b7351ce04be4b3e32572c4ec9135221d0691ba7d20273ffffffffffffffffffffffffffffffffffffffff8316141561044257506002919050565b73dd682daec5a90dd295d14da4b0bec9281017b5be73ffffffffffffffffffffffffffffffffffffffff8316141561047c57506003919050565b739c5ae89c4af6aa32ce58588dbaf90d18a855b6de73ffffffffffffffffffffffffffffffffffffffff831614156104b657506004919050565b6040517fec459bc000000000000000000000000000000000000000000000000000000000815273ffffffffffffffffffffffffffffffffffffffff831660048201526024015b60405180910390fd5b600080610510610d66565b9050600061051d82610e7d565b925061ffff1690508061055c576040517f8552ff3c00000000000000000000000000000000000000000000000000000000815260040160405180910390fd5b60005b8181101561064e57600061057284610ee5565b9050600080610582606887611c9e565b905060006105908236611c87565b80359350905065ffffffffffff83166105d5576040517f336dc9d000000000000000000000000000000000000000000000000000000000815260040160405180910390fd5b876105ea578265ffffffffffff16975061062b565b878365ffffffffffff161461062b576040517fd9d1f46500000000000000000000000000000000000000000000000000000000815260040160405180910390fd5b6106358488611c9e565b965050505050808061064690611cb6565b91505061055f565b50505090565b60008061066083610f21565b91509150600082519050835181146106d4576040517f08c379a000000000000000000000000000000000000000000000000000000000815260206004820152600c60248201527f696e76616c69642d64617461000000000000000000000000000000000000000060448201526064016104fc565b6106e06103e883611d00565b915060005b8181101561092057600080600087848151811061070457610704611d14565b6020026020010151815260200190815260200160002080548060200260200160405190810160405280929190818152602001828054801561077b57602002820191906000526020600020905b815473ffffffffffffffffffffffffffffffffffffffff168152600190910190602001808311610750575b505083519394506000925050505b8181101561090c5760008382815181106107a5576107a5611d14565b60200260200101519050600073ffffffffffffffffffffffffffffffffffffffff168173ffffffffffffffffffffffffffffffffffffffff161415610846576040517f08c379a000000000000000000000000000000000000000000000000000000000815260206004820152600c60248201527f666565642d756e6b6e6f776e000000000000000000000000000000000000000060448201526064016104fc565b73ffffffffffffffffffffffffffffffffffffffff81166000908152600160208190526040909120015487146108fb5760405180604001604052806008601261088f9190611c87565b61089a90600a611e27565b8a88815181106108ac576108ac611d14565b60200260200101516108be9190611e33565b8152602090810189905273ffffffffffffffffffffffffffffffffffffffff83166000908152600180835260409091208351815592909101519101555b5061090581611cb6565b9050610789565b5050508061091990611cb6565b90506106e5565b5050505050565b6000806000610935856102e8565b80935081925050508473ffffffffffffffffffffffffffffffffffffffff1663313ce5676040518163ffffffff1660e01b815260040160206040518083038186803b15801561098357600080fd5b505afa158015610997573d6000803e3d6000fd5b505050506040513d601f19601f820116820180604052508101906109bb9190611e52565b6109c690600a611e75565b6109d08286611e33565b6109da9190611d00565b9250509250929050565b60008181526020818152604091829020805483518184028101840190945280845260609392830182828015610a4f57602002820191906000526020600020905b815473ffffffffffffffffffffffffffffffffffffffff168152600190910190602001808311610a24575b50505050509050919050565b6000610a668261113f565b92915050565b6000806000610a7a856102e8565b9250905080610a90576000809250925050610b24565b808573ffffffffffffffffffffffffffffffffffffffff1663313ce5676040518163ffffffff1660e01b815260040160206040518083038186803b158015610ad757600080fd5b505afa158015610aeb573d6000803e3d6000fd5b505050506040513d601f19601f82011682018060405250810190610b0f9190611e52565b610b1a90600a611e75565b6109d09086611e33565b9250929050565b600080600080610b3b8786610927565b93509050610b498682610a6c565b90989397509550919350505050565b73fba0816a81bcabbf3829bed28618177a2bf0e82a73ffffffffffffffffffffffffffffffffffffffff16630c340a246040518163ffffffff1660e01b815260040160206040518083038186803b158015610bb257600080fd5b505afa158015610bc6573d6000803e3d6000fd5b505050506040513d601f19601f82011682018060405250810190610bea9190611e84565b73ffffffffffffffffffffffffffffffffffffffff163373ffffffffffffffffffffffffffffffffffffffff1614610c7e576040517f08c379a000000000000000000000000000000000000000000000000000000000815260206004820152600c60248201527f6e6f742d676f7665726e6f72000000000000000000000000000000000000000060448201526064016104fc565b81610ce5576040517f08c379a000000000000000000000000000000000000000000000000000000000815260206004820152600a60248201527f69642d69732d6e756c6c0000000000000000000000000000000000000000000060448201526064016104fc565b6000828152602081815260409091208251610d029284019061187b565b507fe2283bd41bd3257b2f0fdaf5490cc4da556c1f214492fc5c0222b93d1bc350708282604051610d34929190611ea1565b60405180910390a15050565b610d4c60086012611c87565b610d5790600a611e27565b81565b610d638161114a565b50565b60006602ed57011e0000601f1936013581161480610db0576040517fe7764c9e00000000000000000000000000000000000000000000000000000000815260040160405180910390fd5b60003660291115610ded576040517f5796f78a00000000000000000000000000000000000000000000000000000000815260040160405180910390fd5b507fffffffffffffffffffffffffffffffffffffffffffffffffffffffffffffffd736013560006009610e26600362ffffff8516611c9e565b610e309190611c9e565b905036610e3e600283611c9e565b1115610e76576040517fc30a7bd700000000000000000000000000000000000000000000000000000000815260040160405180910390fd5b9392505050565b60008080610e8c602085611c9e565b905036811115610ec8576040517f5796f78a00000000000000000000000000000000000000000000000000000000815260040160405180910390fd5b3681900335925082610edb600286611c9e565b9250925050915091565b6000806000610ef384611200565b9092509050604e610f05826020611c9e565b610f0f9084611e33565b610f199190611c9e565b949350505050565b6060600080835167ffffffffffffffff811115610f4057610f40611959565b604051908082528060200260200182016040528015610f69578160200160208202803683370190505b5090506000845167ffffffffffffffff811115610f8857610f88611959565b604051908082528060200260200182016040528015610fb1578160200160208202803683370190505b5090506000855167ffffffffffffffff811115610fd057610fd0611959565b60405190808252806020026020018201604052801561100357816020015b6060815260200190600190039081610fee5790505b50905060005b8651811015611056576040805160038082526080820190925290602082016060803683370190505082828151811061104357611043611d14565b6020908102919091010152600101611009565b506000611061610d66565b9050600061106e82610e7d565b60405190935061ffff909116915060005b828110156111275760006110968b89898989611253565b9095509050806110d2576040517fdfb25a7900000000000000000000000000000000000000000000000000000000815260040160405180910390fd5b8881141580156110e157508815155b15611118576040517f4cbc474200000000000000000000000000000000000000000000000000000000815260040160405180910390fd5b6040839052975060010161107f565b5061113284876114df565b9750505050505050915091565b6000610a6682611611565b60006111586103e883611d00565b9050804210156111b357603c61116e4283611c87565b11156111af576040517fb6b0916d000000000000000000000000000000000000000000000000000000008152600481018290524260248201526044016104fc565b5050565b60b46111bf8242611c87565b11156111af576040517f0321d0b5000000000000000000000000000000000000000000000000000000008152600481018290524260248201526044016104fc565b6000808080806020611213604188611c9e565b61121d9190611c9e565b6112279036611c87565b803593509050611238600382611c87565b62ffffff9390931696923563ffffffff169550919350505050565b600080600080600061126486611200565b909250905060008060608180600d61127d602088611c9e565b6112879089611e33565b6112919190611c9e565b915060006112a060688d611c9e565b6112aa9036611c87565b90506000836112ba60418f611c9e565b6112c49190611c9e565b6112ce9036611c87565b90506112da84826112ed565b9450836020860120955081359250611311565b60408051838152602081850181019092526000910183838237601f19019392505050565b8265ffffffffffff169a506113328660418f61132d9190611c9e565b611749565b965061133d87610392565b60ff16995050505050505050604e866113569190611c9e565b955060008060005b848110156114cc576020611372858b611c9e565b61137c9190611c9e565b985061138889856117c1565b909350915060005b8d518110156114c3578d81815181106113ab576113ab611d14565b60200260200101518414156114bb5760008c82815181106113ce576113ce611d14565b602002602001015190506113e781896001901b16151590565b1580156114105750600360ff168e838151811061140657611406611d14565b6020026020010151105b156114b557838c838151811061142857611428611d14565b60200260200101518f848151811061144257611442611d14565b60200260200101518151811061145a5761145a611d14565b6020026020010181815250508d828151811061147857611478611d14565b60200260200101805180919061148d90611cb6565b9052506001881b81178d83815181106114a8576114a8611d14565b6020026020010181815250505b506114c3565b600101611390565b5060010161135e565b5050508594505050509550959350505050565b60606000835167ffffffffffffffff8111156114fd576114fd611959565b604051908082528060200260200182016040528015611526578160200160208202803683370190505b509050600360005b8551811015611607578185828151811061154a5761154a611d14565b602002602001015110156115b05784818151811061156a5761156a611d14565b6020026020010151826040517f2b13aef50000000000000000000000000000000000000000000000000000000081526004016104fc929190918252602082015260400190565b60006115d48783815181106115c7576115c7611d14565b6020026020010151610a5b565b9050808483815181106115e9576115e9611d14565b602090810291909101015250806115ff81611cb6565b91505061152e565b5090949350505050565b60008151600214156116695760028260018151811061163257611632611d14565b60200260200101518360008151811061164d5761164d611d14565b602002602001015161165f9190611c9e565b610a669190611d00565b81516116a1576040517f9e198af900000000000000000000000000000000000000000000000000000000815260040160405180910390fd5b6116aa8261182d565b6000600283516116ba9190611d00565b9050600283516116ca9190611eba565b6117275760008382815181106116e2576116e2611d14565b6020026020010151846001846116f89190611c87565b8151811061170857611708611d14565b602002602001015161171a9190611c9e565b9050610f19600282611d00565b82818151811061173957611739611d14565b6020026020010151915050919050565b60408051600080825260208083018085528690523685900380850135831a948401859052803560608501819052910135608084018190529193909260019060a0016020604051602081039080840390855afa1580156117ac573d6000803e3d6000fd5b5050604051601f190151979650505050505050565b600080806117cf8536611c87565b9050803592506020810135915060218410611819576040517fc000fc42000000000000000000000000000000000000000000000000000000008152600481018590526024016104fc565b8360200360080282901c9150509250929050565b8051602082016020820281019150805b8281101561187557815b8181101561186c578151815180821015611862578084528183525b5050602001611847565b5060200161183d565b50505050565b8280548282559060005260206000209081019282156118f5579160200282015b828111156118f557825182547fffffffffffffffffffffffff00000000000000000000000000000000000000001673ffffffffffffffffffffffffffffffffffffffff90911617825560209092019160019091019061189b565b50611901929150611905565b5090565b5b808211156119015760008155600101611906565b73ffffffffffffffffffffffffffffffffffffffff81168114610d6357600080fd5b60006020828403121561194e57600080fd5b8135610e768161191a565b7f4e487b7100000000000000000000000000000000000000000000000000000000600052604160045260246000fd5b604051601f8201601f1916810167ffffffffffffffff811182821017156119b1576119b1611959565b604052919050565b600067ffffffffffffffff8211156119d3576119d3611959565b5060051b60200190565b600060208083850312156119f057600080fd5b823567ffffffffffffffff811115611a0757600080fd5b8301601f81018513611a1857600080fd5b8035611a2b611a26826119b9565b611988565b81815260059190911b82018301908381019087831115611a4a57600080fd5b928401925b82841015611a6857833582529284019290840190611a4f565b979650505050505050565b60008060408385031215611a8657600080fd5b8235611a918161191a565b946020939093013593505050565b600060208284031215611ab157600080fd5b5035919050565b600081518084526020808501945080840160005b83811015611afe57815173ffffffffffffffffffffffffffffffffffffffff1687529582019590820190600101611acc565b509495945050505050565b602081526000610e766020830184611ab8565b600080600060608486031215611b3157600080fd5b8335611b3c8161191a565b92506020840135611b4c8161191a565b929592945050506040919091013590565b600060208083528351808285015260005b81811015611b8a57858101830151858201604001528201611b6e565b81811115611b9c576000604083870101525b50601f01601f1916929092016040019392505050565b60008060408385031215611bc557600080fd5b8235915060208084013567ffffffffffffffff811115611be457600080fd5b8401601f81018613611bf557600080fd5b8035611c03611a26826119b9565b81815260059190911b82018301908381019088831115611c2257600080fd5b928401925b82841015611c49578335611c3a8161191a565b82529284019290840190611c27565b80955050505050509250929050565b7f4e487b7100000000000000000000000000000000000000000000000000000000600052601160045260246000fd5b600082821015611c9957611c99611c58565b500390565b60008219821115611cb157611cb1611c58565b500190565b6000600019821415611cca57611cca611c58565b5060010190565b7f4e487b7100000000000000000000000000000000000000000000000000000000600052601260045260246000fd5b600082611d0f57611d0f611cd1565b500490565b7f4e487b7100000000000000000000000000000000000000000000000000000000600052603260045260246000fd5b600181815b80851115611d7e578160001904821115611d6457611d64611c58565b80851615611d7157918102915b93841c9390800290611d48565b509250929050565b600082611d9557506001610a66565b81611da257506000610a66565b8160018114611db85760028114611dc257611dde565b6001915050610a66565b60ff841115611dd357611dd3611c58565b50506001821b610a66565b5060208310610133831016604e8410600b8410161715611e01575081810a610a66565b611e0b8383611d43565b8060001904821115611e1f57611e1f611c58565b029392505050565b6000610e768383611d86565b6000816000190483118215151615611e4d57611e4d611c58565b500290565b600060208284031215611e6457600080fd5b815160ff81168114610e7657600080fd5b6000610e7660ff841683611d86565b600060208284031215611e9657600080fd5b8151610e768161191a565b828152604060208201526000610f196040830184611ab8565b600082611ec957611ec9611cd1565b50069056fea2646970667358221220a3fcb304592924d177c19b5cfa6dd8acb0e50c7c2c4f11c221beaa2108e88c1b64736f6c63430008090033",
  "devdoc": {
    "events": {
      "CacheUpdated(uint256,uint256)": {
        "params": {
          "price": "The Redstone price.",
          "priceTimestamp": "The timestamp contained within the price data packages."
        }
      }
    },
    "kind": "dev",
    "methods": {
      "aggregateValues(uint256[])": {
        "details": "This function may be overridden by the child consumer contract. It should aggregate values from different signers to a single uint value. By default, it calculates the median value",
        "params": {
          "values": "An array of uint256 values from different signers"
        },
        "returns": {
          "_0": "Result of the aggregation in the form of a single number"
        }
      },
      "getDataServiceId()": {
        "details": "This function must be implemented by the child consumer contract. It should return dataServiceId which DataServiceWrapper will use if not provided explicitly . If not overridden, value will always have to be provided explicitly in DataServiceWrapper.",
        "returns": {
          "_0": "dataServiceId being consumed by contract"
        }
      },
      "getPriceInUsd(address)": {
        "params": {
          "token_": "The address of asset"
        },
        "returns": {
          "_lastUpdatedAt": "Last updated timestamp",
          "_priceInUsd": "The USD price"
        }
      },
      "getUniqueSignersThreshold()": {
        "details": "This function should be overridden by the child consumer contract.",
        "returns": {
          "_0": "The minimum required value of unique authorised signers"
        }
      },
      "quote(address,address,uint256)": {
        "params": {
          "amountIn_": "Amount of input token",
          "tokenIn_": "The address of assetIn",
          "tokenOut_": "The address of assetOut"
        },
        "returns": {
          "_amountOut": "Amount out",
          "_tokenInLastUpdatedAt": "Last updated timestamp of `tokenIn_`",
          "_tokenOutLastUpdatedAt": "Last updated timestamp of `tokenOut_`"
        }
      },
      "quoteTokenToUsd(address,uint256)": {
        "params": {
          "amountIn_": "Amount of input token.",
          "token_": "The address of assetIn"
        },
        "returns": {
          "_amountOut": "Amount in USD",
          "_lastUpdatedAt": "Last updated timestamp"
        }
      },
      "quoteUsdToToken(address,uint256)": {
        "params": {
          "amountIn_": "Input amount in USD",
          "token_": "The address of assetOut"
        },
        "returns": {
          "_amountOut": "Output amount of token",
          "_lastUpdatedAt": "Last updated timestamp"
        }
      },
      "updateFeed(bytes32,address[])": {
        "details": "The feed should be denominated in USD"
      },
      "validateTimestamp(uint256)": {
        "details": "This function may be overridden by the child consumer contract. It should validate the timestamp against the current time (block.timestamp) It should revert with a helpful message if the timestamp is not valid",
        "params": {
          "receivedTimestampMilliseconds": "Timestamp extracted from calldata"
        }
      }
    },
    "title": "Redstone's price provider",
    "version": 1
  },
  "userdoc": {
    "events": {
      "CacheUpdated(uint256,uint256)": {
        "notice": "The cache timestamp was updated."
      },
      "FeedIdUpdated(bytes32,address[])": {
        "notice": "Emitted when an feed id is updated"
      }
    },
    "kind": "user",
    "methods": {
      "getPriceInUsd(address)": {
        "notice": "Get USD (or equivalent) price of an asset"
      },
      "quote(address,address,uint256)": {
        "notice": "Get quote"
      },
      "quoteTokenToUsd(address,uint256)": {
        "notice": "Get quote in USD (or equivalent) amount"
      },
      "quoteUsdToToken(address,uint256)": {
        "notice": "Get quote from USD (or equivalent) amount to amount of token"
      },
      "tokensOf(bytes32)": {
        "notice": "Get tokens of a feed"
      },
      "updateFeed(bytes32,address[])": {
        "notice": "Update feed id"
      },
      "updatePrice(bytes32[])": {
        "notice": "Update price for the tokens related to the `dataFeedIds_`"
      }
    },
    "version": 1
  },
  "storageLayout": {
    "storage": [
      {
        "astId": 9525,
        "contract": "contracts/core/RedstonePriceProvider.sol:RedstonePriceProvider",
        "label": "feeds",
        "offset": 0,
        "slot": "0",
        "type": "t_mapping(t_bytes32,t_array(t_address)dyn_storage)"
      },
      {
        "astId": 9531,
        "contract": "contracts/core/RedstonePriceProvider.sol:RedstonePriceProvider",
        "label": "cache",
        "offset": 0,
        "slot": "1",
        "type": "t_mapping(t_address,t_struct(Cache)9519_storage)"
      }
    ],
    "types": {
      "t_address": {
        "encoding": "inplace",
        "label": "address",
        "numberOfBytes": "20"
      },
      "t_array(t_address)dyn_storage": {
        "base": "t_address",
        "encoding": "dynamic_array",
        "label": "address[]",
        "numberOfBytes": "32"
      },
      "t_bytes32": {
        "encoding": "inplace",
        "label": "bytes32",
        "numberOfBytes": "32"
      },
      "t_mapping(t_address,t_struct(Cache)9519_storage)": {
        "encoding": "mapping",
        "key": "t_address",
        "label": "mapping(address => struct RedstonePriceProvider.Cache)",
        "numberOfBytes": "32",
        "value": "t_struct(Cache)9519_storage"
      },
      "t_mapping(t_bytes32,t_array(t_address)dyn_storage)": {
        "encoding": "mapping",
        "key": "t_bytes32",
        "label": "mapping(bytes32 => address[])",
        "numberOfBytes": "32",
        "value": "t_array(t_address)dyn_storage"
      },
      "t_struct(Cache)9519_storage": {
        "encoding": "inplace",
        "label": "struct RedstonePriceProvider.Cache",
        "members": [
          {
            "astId": 9516,
            "contract": "contracts/core/RedstonePriceProvider.sol:RedstonePriceProvider",
            "label": "price",
            "offset": 0,
            "slot": "0",
            "type": "t_uint256"
          },
          {
            "astId": 9518,
            "contract": "contracts/core/RedstonePriceProvider.sol:RedstonePriceProvider",
            "label": "priceTimestamp",
            "offset": 0,
            "slot": "1",
            "type": "t_uint256"
          }
        ],
        "numberOfBytes": "64"
      },
      "t_uint256": {
        "encoding": "inplace",
        "label": "uint256",
        "numberOfBytes": "32"
      }
    }
  }
}