{
  "address": "0x51BC603a29BeF7181E9866ed27beaAE215865761",
  "abi": [
    {
      "inputs": [
        {
          "internalType": "address",
          "name": "usdc_",
          "type": "address"
        }
      ],
      "stateMutability": "nonpayable",
      "type": "constructor"
    },
    {
      "anonymous": false,
      "inputs": [
        {
          "indexed": false,
          "internalType": "address",
          "name": "token",
          "type": "address"
        },
        {
          "indexed": false,
          "internalType": "uint256",
          "name": "oldStalePeriod",
          "type": "uint256"
        },
        {
          "indexed": false,
          "internalType": "uint256",
          "name": "newStalePeriod",
          "type": "uint256"
        }
      ],
      "name": "CustomStalePeriodUpdated",
      "type": "event"
    },
    {
      "anonymous": false,
      "inputs": [
        {
          "indexed": false,
          "internalType": "uint256",
          "name": "oldStalePeriod",
          "type": "uint256"
        },
        {
          "indexed": false,
          "internalType": "uint256",
          "name": "newStalePeriod",
          "type": "uint256"
        }
      ],
      "name": "DefaultStalePeriodUpdated",
      "type": "event"
    },
    {
      "anonymous": false,
      "inputs": [
        {
          "indexed": true,
          "internalType": "address",
          "name": "token",
          "type": "address"
        },
        {
          "indexed": false,
          "internalType": "contract AggregatorV3Interface",
          "name": "usdcFeed",
          "type": "address"
        }
      ],
      "name": "UsdcFeedUpdated",
      "type": "event"
    },
    {
      "inputs": [],
      "name": "USDC",
      "outputs": [
        {
          "internalType": "address",
          "name": "",
          "type": "address"
        }
      ],
      "stateMutability": "view",
      "type": "function"
    },
    {
      "inputs": [],
      "name": "addressProvider",
      "outputs": [
        {
          "internalType": "contract IAddressProvider",
          "name": "",
          "type": "address"
        }
      ],
      "stateMutability": "view",
      "type": "function"
    },
    {
      "inputs": [],
      "name": "defaultStalePeriod",
      "outputs": [
        {
          "internalType": "uint256",
          "name": "",
          "type": "uint256"
        }
      ],
      "stateMutability": "view",
      "type": "function"
    },
    {
      "inputs": [
        {
          "internalType": "address",
          "name": "token_",
          "type": "address"
        }
      ],
      "name": "getPriceInUsd",
      "outputs": [
        {
          "internalType": "uint256",
          "name": "_priceInUsd",
          "type": "uint256"
        }
      ],
      "stateMutability": "view",
      "type": "function"
    },
    {
      "inputs": [
        {
          "internalType": "address",
          "name": "token_",
          "type": "address"
        }
      ],
      "name": "stalePeriodOf",
      "outputs": [
        {
          "internalType": "uint256",
          "name": "_stalePeriod",
          "type": "uint256"
        }
      ],
      "stateMutability": "view",
      "type": "function"
    },
    {
      "inputs": [
        {
          "internalType": "address",
          "name": "token_",
          "type": "address"
        },
        {
          "internalType": "uint256",
          "name": "stalePeriod_",
          "type": "uint256"
        }
      ],
      "name": "updateCustomStalePeriod",
      "outputs": [],
      "stateMutability": "nonpayable",
      "type": "function"
    },
    {
      "inputs": [
        {
          "internalType": "uint256",
          "name": "stalePeriod_",
          "type": "uint256"
        }
      ],
      "name": "updateDefaultStalePeriod",
      "outputs": [],
      "stateMutability": "nonpayable",
      "type": "function"
    },
    {
      "inputs": [
        {
          "internalType": "address",
          "name": "token_",
          "type": "address"
        },
        {
          "internalType": "contract AggregatorV3Interface",
          "name": "usdcFeed_",
          "type": "address"
        }
      ],
      "name": "updateUsdcFeed",
      "outputs": [],
      "stateMutability": "nonpayable",
      "type": "function"
    },
    {
      "inputs": [
        {
          "internalType": "address",
          "name": "",
          "type": "address"
        }
      ],
      "name": "usdcFeedOf",
      "outputs": [
        {
          "internalType": "contract AggregatorV3Interface",
          "name": "",
          "type": "address"
        }
      ],
      "stateMutability": "view",
      "type": "function"
    }
  ],
  "transactionHash": "0x723712128fba0d83601b2f723a7b3321183203882f011b0f84d7c35245b04064",
  "args": [
    "0x99a38322cAF878Ef55AE4d0Eda535535eF8C7960"
  ],
  "numDeployments": 1,
  "solcInputHash": "f5dda62b766521c65fcdc377bc9a3d0a",
  "bytecode": "0x60a060405234801561001057600080fd5b50604051610d8a380380610d8a83398101604081905261002f91610047565b620151806000556001600160a01b0316608052610077565b60006020828403121561005957600080fd5b81516001600160a01b038116811461007057600080fd5b9392505050565b608051610cf16100996000396000818161013b01526103300152610cf16000f3fe608060405234801561001057600080fd5b50600436106100a35760003560e01c806389a3027111610076578063d2f07eec1161005b578063d2f07eec14610166578063ec8969bf1461019c578063f1c809b3146101af57600080fd5b806389a3027114610136578063cafe465f1461015d57600080fd5b806307ee40bf146100a85780632954018c146100ce5780636ad7e14b1461010e5780637cf295a014610123575b600080fd5b6100bb6100b63660046109e9565b6101c2565b6040519081526020015b60405180910390f35b6100e973fba0816a81bcabbf3829bed28618177a2bf0e82a81565b60405173ffffffffffffffffffffffffffffffffffffffff90911681526020016100c5565b61012161011c366004610a0d565b6103e2565b005b610121610131366004610a26565b61052f565b6100e97f000000000000000000000000000000000000000000000000000000000000000081565b6100bb60005481565b6100e96101743660046109e9565b60026020526000908152604090205473ffffffffffffffffffffffffffffffffffffffff1681565b6100bb6101aa3660046109e9565b61075b565b6101216101bd366004610a52565b610790565b73ffffffffffffffffffffffffffffffffffffffff8082166000908152600260205260408082205481517ffeaf968c0000000000000000000000000000000000000000000000000000000081529151929384938493929091169163feaf968c9160048083019260a0929190829003018186803b15801561024157600080fd5b505afa158015610255573d6000803e3d6000fd5b505050506040513d601f19601f820116820180604052508101906102799190610aa5565b509350509250506000821380156102975750610295848261093c565b155b6102e85760405162461bcd60e51b815260206004820152600d60248201527f70726963652d696e76616c69640000000000000000000000000000000000000060448201526064015b60405180910390fd5b60006102f383610959565b6040517f07ee40bf00000000000000000000000000000000000000000000000000000000815273ffffffffffffffffffffffffffffffffffffffff7f000000000000000000000000000000000000000000000000000000000000000016600482015290915060009033906307ee40bf9060240160206040518083038186803b15801561037e57600080fd5b505afa158015610392573d6000803e3d6000fd5b505050506040513d601f19601f820116820180604052508101906103b69190610af5565b90506103c46008600a610c21565b6103ce8284610c2d565b6103d89190610c4c565b9695505050505050565b73fba0816a81bcabbf3829bed28618177a2bf0e82a73ffffffffffffffffffffffffffffffffffffffff16630c340a246040518163ffffffff1660e01b815260040160206040518083038186803b15801561043c57600080fd5b505afa158015610450573d6000803e3d6000fd5b505050506040513d601f19601f820116820180604052508101906104749190610c87565b73ffffffffffffffffffffffffffffffffffffffff163373ffffffffffffffffffffffffffffffffffffffff16146104ee5760405162461bcd60e51b815260206004820152600c60248201527f6e6f742d676f7665726e6f72000000000000000000000000000000000000000060448201526064016102df565b60005460408051918252602082018390527f2298ab1c5c06d8c35fa98988c0f4a11eabd87ee1f630d5633b8eef025c4fba5c910160405180910390a1600055565b73fba0816a81bcabbf3829bed28618177a2bf0e82a73ffffffffffffffffffffffffffffffffffffffff16630c340a246040518163ffffffff1660e01b815260040160206040518083038186803b15801561058957600080fd5b505afa15801561059d573d6000803e3d6000fd5b505050506040513d601f19601f820116820180604052508101906105c19190610c87565b73ffffffffffffffffffffffffffffffffffffffff163373ffffffffffffffffffffffffffffffffffffffff161461063b5760405162461bcd60e51b815260206004820152600c60248201527f6e6f742d676f7665726e6f72000000000000000000000000000000000000000060448201526064016102df565b73ffffffffffffffffffffffffffffffffffffffff821661069e5760405162461bcd60e51b815260206004820152600d60248201527f746f6b656e2d69732d6e756c6c0000000000000000000000000000000000000060448201526064016102df565b73ffffffffffffffffffffffffffffffffffffffff82166000818152600160209081526040918290205482519384529083015281018290527ff8186f97b3fdb2550b9756b668187a5196e4e023b0090dcdf93bfbb2999fae549060600160405180910390a180156107335773ffffffffffffffffffffffffffffffffffffffff91909116600090815260016020526040902055565b5073ffffffffffffffffffffffffffffffffffffffff16600090815260016020526040812055565b73ffffffffffffffffffffffffffffffffffffffff81166000908152600160205260409020548061078b57506000545b919050565b73fba0816a81bcabbf3829bed28618177a2bf0e82a73ffffffffffffffffffffffffffffffffffffffff16630c340a246040518163ffffffff1660e01b815260040160206040518083038186803b1580156107ea57600080fd5b505afa1580156107fe573d6000803e3d6000fd5b505050506040513d601f19601f820116820180604052508101906108229190610c87565b73ffffffffffffffffffffffffffffffffffffffff163373ffffffffffffffffffffffffffffffffffffffff161461089c5760405162461bcd60e51b815260206004820152600c60248201527f6e6f742d676f7665726e6f72000000000000000000000000000000000000000060448201526064016102df565b60405173ffffffffffffffffffffffffffffffffffffffff82811682528316907f0a105614e82704ef4f1f36714c7a23f38229293f5e54fd26c3aedbed93e79ce89060200160405180910390a273ffffffffffffffffffffffffffffffffffffffff918216600090815260026020526040902080547fffffffffffffffffffffffff00000000000000000000000000000000000000001691909216179055565b60006109508261094b8561075b565b6109af565b90505b92915050565b6000808212156109ab5760405162461bcd60e51b815260206004820181905260248201527f53616665436173743a2076616c7565206d75737420626520706f73697469766560448201526064016102df565b5090565b6000816109bc8442610ca4565b119392505050565b73ffffffffffffffffffffffffffffffffffffffff811681146109e657600080fd5b50565b6000602082840312156109fb57600080fd5b8135610a06816109c4565b9392505050565b600060208284031215610a1f57600080fd5b5035919050565b60008060408385031215610a3957600080fd5b8235610a44816109c4565b946020939093013593505050565b60008060408385031215610a6557600080fd5b8235610a70816109c4565b91506020830135610a80816109c4565b809150509250929050565b805169ffffffffffffffffffff8116811461078b57600080fd5b600080600080600060a08688031215610abd57600080fd5b610ac686610a8b565b9450602086015193506040860151925060608601519150610ae960808701610a8b565b90509295509295909350565b600060208284031215610b0757600080fd5b5051919050565b7f4e487b7100000000000000000000000000000000000000000000000000000000600052601160045260246000fd5b600181815b80851115610b78578160001904821115610b5e57610b5e610b0e565b80851615610b6b57918102915b93841c9390800290610b42565b509250929050565b600082610b8f57506001610953565b81610b9c57506000610953565b8160018114610bb25760028114610bbc57610bd8565b6001915050610953565b60ff841115610bcd57610bcd610b0e565b50506001821b610953565b5060208310610133831016604e8410600b8410161715610bfb575081810a610953565b610c058383610b3d565b8060001904821115610c1957610c19610b0e565b029392505050565b60006109508383610b80565b6000816000190483118215151615610c4757610c47610b0e565b500290565b600082610c82577f4e487b7100000000000000000000000000000000000000000000000000000000600052601260045260246000fd5b500490565b600060208284031215610c9957600080fd5b8151610a06816109c4565b600082821015610cb657610cb6610b0e565b50039056fea2646970667358221220ae76aa6a347040920876e3195559c8738832ec623af2f9f89d655ab5257553ae64736f6c63430008090033",
  "devdoc": {
    "details": "Redstone uses the same interface but asset decimals aren't the same as Chainlink",
    "kind": "dev",
    "methods": {
      "getPriceInUsd(address)": {
        "params": {
          "token_": "The address of asset"
        },
        "returns": {
          "_priceInUsd": "The USD price"
        }
      },
      "updateCustomStalePeriod(address,uint256)": {
        "details": "Use `0` as `stalePeriod_` to remove custom stale period"
      }
    },
    "title": "Redstone Oracle for token with USDC-only price feed",
    "version": 1
  },
  "userdoc": {
    "events": {
      "CustomStalePeriodUpdated(address,uint256,uint256)": {
        "notice": "Emitted when custom stale period is updated"
      },
      "DefaultStalePeriodUpdated(uint256,uint256)": {
        "notice": "Emitted when default stale period is updated"
      }
    },
    "kind": "user",
    "methods": {
      "defaultStalePeriod()": {
        "notice": "The default stale period. It's used to determine if a price is invalid (i.e. outdated)"
      },
      "getPriceInUsd(address)": {
        "notice": "Get USD (or equivalent) price of an asset"
      },
      "stalePeriodOf(address)": {
        "notice": "Get stale period of a token"
      },
      "updateCustomStalePeriod(address,uint256)": {
        "notice": "Update custom stale period"
      },
      "updateDefaultStalePeriod(uint256)": {
        "notice": "Update default stale period"
      },
      "updateUsdcFeed(address,address)": {
        "notice": "Update default stale period"
      }
    },
    "version": 1
  },
  "storageLayout": {
    "storage": [
      {
        "astId": 473,
        "contract": "contracts/periphery/tokens/RedstoneUsdcOnlyTokenOracle.sol:RedstoneUsdcOnlyTokenOracle",
        "label": "defaultStalePeriod",
        "offset": 0,
        "slot": "0",
        "type": "t_uint256"
      },
      {
        "astId": 478,
        "contract": "contracts/periphery/tokens/RedstoneUsdcOnlyTokenOracle.sol:RedstoneUsdcOnlyTokenOracle",
        "label": "customStalePeriod",
        "offset": 0,
        "slot": "1",
        "type": "t_mapping(t_address,t_uint256)"
      },
      {
        "astId": 932,
        "contract": "contracts/periphery/tokens/RedstoneUsdcOnlyTokenOracle.sol:RedstoneUsdcOnlyTokenOracle",
        "label": "usdcFeedOf",
        "offset": 0,
        "slot": "2",
        "type": "t_mapping(t_address,t_contract(AggregatorV3Interface)45)"
      }
    ],
    "types": {
      "t_address": {
        "encoding": "inplace",
        "label": "address",
        "numberOfBytes": "20"
      },
      "t_contract(AggregatorV3Interface)45": {
        "encoding": "inplace",
        "label": "contract AggregatorV3Interface",
        "numberOfBytes": "20"
      },
      "t_mapping(t_address,t_contract(AggregatorV3Interface)45)": {
        "encoding": "mapping",
        "key": "t_address",
        "label": "mapping(address => contract AggregatorV3Interface)",
        "numberOfBytes": "32",
        "value": "t_contract(AggregatorV3Interface)45"
      },
      "t_mapping(t_address,t_uint256)": {
        "encoding": "mapping",
        "key": "t_address",
        "label": "mapping(address => uint256)",
        "numberOfBytes": "32",
        "value": "t_uint256"
      },
      "t_uint256": {
        "encoding": "inplace",
        "label": "uint256",
        "numberOfBytes": "32"
      }
    }
  }
}